S0160000476174655F4C525F436F6E6E6563742E73333737
S3150800000000200020893C0008EFD60108EFD6010839
S31508000010C51F0208EFD60108EFD60108EFD601087A
S31508000020EFD60108EFD60108EFD60108EFD601088A
S31508000030EFD60108EFD60108EFD60108EFD601087A
S31508000040EFD60108EFD60108EFD60108EFD601086A
S3150800005069660008EFD60108EFD60108EFD6010851
S31508000060EFD60108EFD60108EFD60108493800088F
S3150800007039380008EFD60108EFD60108EFD601088F
S31508000080EFD60108EFD60108EFD60108EFD601082A
S31508000090EFD60108EFD60108E5480008EFD60108B3
S315080000A0EFD60108EFD60108A943000881430008E6
S315080000B0EFD60108EFD6010805AA0108B1B4010870
S315080000C0D7500208D350020865AC0108ED50020863
S315080000D0DB50020881B40108DF50020815B5010893
S315080000E04DB50108EFD60108EFD60108D5C50008B9
S315080000F0EFD60108EFD60108EFD60108EFD60108BA
S31508000100EFD60108EFD60108EFD60108EFD60108A9
S31508000110EFD60108EFD60108EFD60108EFD6010899
S31508000120EFD60108EFD60108EFD60108EFD6010889
S31508000130EFD60108EFD60108EFD60108EFD6010879
S31508000140EFD60108EFD60108EFD60108EFD6010869
S31508000150EFD60108EFD60108776B0208F18E010881
S31508000160EFD60108EFD60108715002087750020849
S31508000180194A5AB3194BDB6913F0040F29D110B475
S315080001900AE003EA00048C4210D0013AB2B1134BCC
S315080001A0DB6913F0040F14D110F0010FF1D1104CD4
S315080001B01C40002CEDD06FF001000CE00C4A1A40F0
S315080001C00AB9002007E06FF0010004E06FF00200B2
S315080001D001E04FF0FF305DF8044B70476FF0020006
S315080001E070474FF0FF307047809698000000035024
S315080001F0020001000D4BDB6913F4803F12D170B584
S315080002000A4B03F580560124F46003F500552C6467
S315080002104FF480721A6100212046FFF7B1FF34645B
S31508000220EC6070BD6FF00100704700BF000003501E
S3150800023010B5124B4FF480329A6603F51C33DC690D
S31508000240144041F67132DA6303F580520121D16018
S31508000250586102221A6100212120FFF791FF40B15F
S31508000260074B0122DA601CB1A3F500530022DA63BA
S3150800027010BD00212120FFF783FFF1E70090005011
S315080002800020035038B51A4B5861DB6913F0040F88
S315080002902AD10C4654F8041B154B9961151F06E024
S315080002A0214651F8042B124B9A61043D0C465DB168
S315080002B008210846FFF764FF03460028F0D00C4AD9
S315080002C004211161184638BD094B04221A61002120
S315080002D02120FFF755FF03460028F3D100212120EE
S315080002E0FFF74EFF0346EDE74FF0FF33EAE700BF9F
S315080002F0000003502DE9F0410F46164605461A4BF5
S315080003004FF480329A6603F51C33DA6902F48038B2
S3150800031041F67132DA6303F580530122DA6000236D
S3150800032002E025442744361B8EB105F5005424F413
S31508000330FF5424F01F04641BB44228BF34462246E7
S3150800034039462846FFF79EFF03460028E9D0074AA4
S315080003500121D160B8F1000F03D0A2F500520021A7
S31508000360D1631846BDE8F081009000500020035084
S31508000370000000000000000000000000000000006F
S31508000380013800D0FCE770472DE9F04F2DED028BC0
S3150800039093B082460C4693461D4657EC106B8DED7E
S315080003A0080B32463B46304639461BF0A3FD00286B
S315080003B000F009814FF0FF32B14B304639461BF049
S315080003C0C1FD002840F0FF804FF0FF326FF4801324
S315080003D0304639461BF098FD002840F0F48000228C
S315080003E00023DDE90867304639461BF08DFD0028F5
S315080003F040F0FC809DED087B8DED067B209B13F479
S315080004008063119301D106231E93DDE90601024696
S31508000410C1F30A50C1F31303904643F07F5949F4D8
S315080004204019A0F2FF301BF093FA83A3D3E9002307
S315080004301BF0F8FA82A3D3E900231BF03DF9064620
S315080004400F4600228F4B404649461BF033F97EA3E0
S31508000450D3E900231BF0E6FA02460B463046394636
S315080004601BF02AF91BF078FD06461BF071FA804648
S31508000470894677A3D3E900231BF0D4FA0022824BDE
S315080004801BF01AF91BF068FD074673A3D3E900238E
S31508000490404649461BF0C6FA8046894638461BF050
S315080004A057FA6FA3D3E900231BF0BCFA02460B46A2
S315080004B0404649461BF0FEF88046894602460B46EA
S315080004C01BF0B0FACDE90C0107F2FF370021002234
S315080004D0CDE90A123B050B9300230A9342464B4685
S315080004E0404649461BF0E8F8CDE90E0142464B4620
S315080004F000204FF080411BF0DDF880468946002237
S31508000500624BDDE90C011BF0B7FB0022604B1BF0C8
S31508000510D3F802460B46DDE90C011BF0ADFB0022C1
S315080005205C4B1BF0C9F802460B46DDE90C011BF0D3
S31508000530A3FB02460B46404649461BF0BDF8024659
S315080005400B46DDE90E011BF097FB0022524B1BF010
S31508000550B3F8DDE90A231BF065FA8046894649ECBB
S31508000560188BDDE906231BF0EDFC40B1013E0022A5
S31508000570474B404649461BF07FFB41EC180B06F1FA
S315080005806303C62B3BD80427209B13F4006F40D087
S3150800059035A3D3E90023DDE90689404649461BF021
S315080005A0C7FC00283BD032A3D3E90023404649467E
S315080005B01BF0AAFC002832D01E9BB34221DD9E1BED
S315080005C0731E1E931FE0209B02931F9B01931E9B85
S315080005D000939DED080B2B465A462146504600F0DF
S315080005E0CBF813B0BDEC028BBDE8F08F9FED227BF4
S315080005F08DED067B069607F100430793FEE6052771
S31508000600C2E700231E93209B43F4806320930027B0
S315080006103E461F9B9F4241D2A3EB070840E01E9B24
S31508000620002BF6D0119B002BF3D01E9B013B1E938B
S31508000630EFE700BFAFF30080FB799F501344D33F29
S31508000640B3C8608B288AC63F61436F63A787D23FCA
S3150800065071A379094F930A401655B5BBB16B024091
S31508000660EF39FAFE422EE63F2D431CEBE2361A3FDF
S315080006700000000080842E410000000000000000F9
S31508000680FFFFEF7F0000F83F0000E03F00002C402E
S3150800069000002440000018400000F03F4FF000081A
S315080006A0209B13F0020902D00FB14FF000083EB1AB
S315080006B053EC182BDDE906011BF0DEFACDE906013D
S315080006C000220023DDE908011BF01EFC00283BD1AF
S315080006D0209B23F400630293CDF804801E9B0093AD
S315080006E09DED060B2B465A462146504600F044F827
S315080006F0002F3FF476AF209B13F0200F2CD04FF03D
S31508000700450C00F101082B46024621466046D047B3
S3150800071086EAE672A2EBE67205230593013F049783
S31508000720002303930A230293F30F019300922B46A7
S3150800073042462146504623F0C2F8B9F1000F3FF46D
S3150800074050AF02461F9F10E0DDE90601024601F19F
S315080007500043CDE90623BBE74FF0650CD1E7561CED
S315080007602B4621462020D0473246A2EB0B03BB423C
S31508000770F5D3104635E700BF2DE9F04F2DED028B76
S3150800078093B00590089192469B4659EC108B1E9D96
S3150800079042464B46404649461BF0ACFB002840D033
S315080007A04FF0FF326FF48013404649461BF0ACFB0E
S315080007B0002845D14FF0FF32B14B404649461BF061
S315080007C0C1FB00284BD1AAA3D3E9002340464946DA
S315080007D01BF0B8FB00285AD1A7A3D3E9002340464B
S315080007E049461BF091FB002851D1002200234046C0
S315080007F049461BF089FB002857D100230993209B03
S3150800080013F4806F5CD000241F2C5BD8092D59D9AE
S3150800081004F148036B44302203F8202C013D0134CF
S31508000820F2E7209B03931F9B029303230193954BA7
S3150800083000935B4652460899059822F066FF10E138
S31508000840209B03931F9B0293042301938E4B0093D3
S315080008505B4652460899059822F057FF01E1209B0E
S3150800086013F004030FD0894A7BB10423209903911E
S315080008701F990291019300925B4652460899059882
S3150800088022F043FFEDE0824AEEE70323EEE7209BE2
S3150800089002931F9B0193009549EC108B5B465246C9
S315080008A008990598FFF770FDDBE042464B460020A5
S315080008B000211AF0FFFE80468946012309939EE728
S315080008C00625A0E7404649461BF046FB06461BF0B0
S315080008D03FF802460B46404649461AF0EBFE6D4B7A
S315080008E003EBC50393ED008B53EC182B1BF09AF81A
S315080008F002460B46CDE906231BF056FB07461BF0BE
S3150800090017F802460B46DDE906011AF0D3FE024641
S315080009100B46CDE9062300225F4B1BF013FB50B3B1
S31508000920013738461BF004F802460B4651EC180B03
S315080009301BF0F4FA08B10136002755BB30461BF008
S3150800094007F802460B46404649461AF0B3FE80466B
S3150800095089460022504B1BF0D7FA38B100224E4B7D
S31508000960404649461BF0EEFA002842D016F0010F21
S315080009703FD001363DE00022474BDDE906011BF07A
S31508000980C3FA0028D9D117B117F0010FD5D001370E
S31508000990D3E71F2C17D8013D404BA3FB0723DB08E1
S315080009A0194603EB8303A7EB4303621C303304F1B8
S315080009B048000DEB000404F8203C092F02D90F4625
S315080009C01446E6E714461F2C0AD86B1E45B104F1F7
S315080009D048026A44302102F8201C1D460134F2E719
S315080009E01F2C06D804F148036B442E2203F8202C4A
S315080009F001341F2C17D82A4A82FB0632F317C3EB99
S31508000A00A2031A4603EB8303A6EB4303611C3033A8
S31508000A1004F148000DEB000404F8203C16460AB120
S31508000A200C46E6E70C46209B03F00303012B39D05E
S31508000A301F2C09D8099B002B51D004F148036B449D
S31508000A402D2203F8202C0134209B03931F9B02932D
S31508000A5001940AAB00935B4652460899059822F022
S31508000A6054FE13B0BDEC028BBDE8F08FAFF30080E7
S31508000A700000000065CDCD410000000065CDCDC168
S31508000A80FFFFEF7F0C87020810870208008702081D
S31508000A9008870208188702080000E03FCDCCCCCCB6
S31508000AA0676666661F9BB3B1099B1BB9209B13F04B
S31508000AB00C0F12D01F9B013B1F93194606E004F149
S31508000AC048036B44302203F8202C01348C42AFD201
S31508000AD01F2CF4D9ACE71F99F8E71F99F6E7209B76
S31508000AE013F0040F07D004F148036B442B2203F8D4
S31508000AF0202C0134A8E7209B13F0080FA4D004F19A
S31508000B0048036B44202203F8202C01349CE700BFDD
S31508000B1038B50D46044625F076FD064A13889BB27D
S31508000B202DB123431380BDE8384025F067BD23EA7D
S31508000B300403F7E7684B00200022034B01214FF41A
S31508000B4080709A70E4E700BF684B00207FB54E6856
S31508000B5002A9044623F04DFD9DF808300C2B19D147
S31508000B60134BB3F90050134B9E4218D807F08EFE6C
S31508000B7003460068694600909B882046ADF8043015
S31508000B8023F024FD70B140F25F620B490B480DF06B
S31508000B9091FCFEE7204613F08FFA0546E3E71FF0BF
S31508000BA04BF9E5E72946204623F0F6FC04B070BD6C
S31508000BB03C510020FFC99A3BC18902088C8702086C
S31508000BC0002330B5134C85B0CDE901330393237860
S31508000BD08DF8043025F017FDA288E38805469A4269
S31508000BE00DD0E188A06801AAA18023F08BFB58B13B
S31508000BF040F2DA62084909480DF05CFCFEE7A06895
S31508000C0023F059FB0128ECD0284625F0F7FC05B05F
S31508000C1030BD00BF98560020C18902088C8702089B
S31508000C2038B50F4C656835B940F2C7720D490E489C
S31508000C300DF040FCFEE722F017FF284410F08AFB6F
S31508000C4000F00700032809D164680921204623F02B
S31508000C5027F8205C031F5842584138BD0020FCE79E
S31508000C60684B0020C18902088C87020808B5114B19
S31508000C709A78042A06D040F28E520F490F480DF092
S31508000C8019FCFEE71B881B0706D440F28F520A4957
S31508000C900A480DF00FFCFEE700210820FFF738FF91
S31508000CA00222074B98681A7312F0C0FFBDE8084085
S31508000CB021F0E2BA684B0020C18902088C87020835
S31508000CC09856002010B5084CA06812F0AFFFA0682F
S31508000CD023F0F1FA012806D00122A0681146BDE8E2
S31508000CE0104023F0EABA10BD9856002038B5194DC1
S31508000CF0AB7833B140F22B72174918480DF0DAFB7E
S31508000D00FEE725F080FC2988044611F0060109D083
S31508000D1001214FF48070FFF7FBFE2046BDE83840FE
S31508000D2025F06CBC4FF48070FFF7F2FE12F0D0F895
S31508000D30012805D010F0FD0F05D1FFF741FFECE7BC
S31508000D40FFF7C0FFE9E740F24172034903480DF097
S31508000D50B1FBFEE7684B0020C18902088C870208B0
S31508000D6070B50446064D95F90860FFF7BFFF11F008
S31508000D70ADFF314620466A68BDE8704011F0DEBD19
S31508000D80684B002008B50A4B1B88DB0606D440F2E0
S31508000D90A752084908480DF08DFBFEE700211020F0
S31508000DA0FFF7B6FE12F010F9BDE8084021F064BA64
S31508000DB0684B0020C18902088C8702080D4B10B5C4
S31508000DC01B8804469B0713D500210220FFF7A0FEC7
S31508000DD0094B5A7BFF2A06D040F2E54207490848E4
S31508000DE00DF068FBFEE75C73BDE8104021F044BADD
S31508000DF010BD00BF684B002098560020C189020824
S31508000E008C8702087047704707B5ADF8061001468B
S31508000E1030B94FF4B572104910480DF04BFBFEE798
S31508000E20BDF8063033B940F26B120B490B480DF08A
S31508000E3041FBFEE70A4B0DF10602986823F090FC89
S31508000E4030B140F26D12044904480DF033FBFEE759
S31508000E5003B05DF804FB00BFC18902088C8702084D
S31508000E609856002010B50E4CA37833B14FF4EA72A9
S31508000E700C490D480DF01EFBFEE7606019B1A17B19
S31508000E80003918BF01212020FFF742FE074B08480A
S31508000E909B7B23760223A370BDE8104010F026B989
S31508000EA0684B0020C18902088C87020898560020E2
S31508000EB0844B002008B50BF02BFE80F00100C0B271
S31508000EC008BD0A4B9A780AB1062A0CD11B8803F486
S31508000ED08B7343B9064B5A7BFF2A04D1187BFF381C
S31508000EE018BF012070470120704700BF684B0020DB
S31508000EF09856002008B50BF0FBFD0028FBD108BD6D
S31508000F000C4B42889A8142789A730278DA738288FF
S31508000F101A82C2885A82C2685A61017A064A91734D
S31508000F20028A998C914204D001214FF400709A8468
S31508000F30EEE57047684B002098560020094B9A89C1
S31508000F4042809A7B4270DA7B02701A8A82805A8AB9
S31508000F50C2805A699B8CC260034A0382927B0272E2
S31508000F60704700BF684B0020985600204B1E012B87
S31508000F7070B50C4606D940F2B7221A491A480DF040
S31508000F8099FAFEE7194D0A460146A86823F012FCAD
S31508000F9030B140F2B922134913480DF08BFAFEE737
S31508000FA0AE6810F017F822460146304623F0FCFBDF
S31508000FB030B140F2BD220B490B480DF07BFAFEE733
S31508000FC0AD6810F013F822460146284623F0F8FBD0
S31508000FD030B140F2C122034903480DF06BFAFEE72F
S31508000FE070BD00BFC18902088C8702089856002088
S31508000FF0054BDB7B1B0913F00E0003D0052B8CBFBA
S3150800100000200120704700BF98560020044BDB7B68
S315080010101B0913F00E0F0CBF01200020704700BFFC
S31508001020985600202DE9F04F15469A0580461F462A
S315080010308FB003D501218020FFF76AFDEB014FF041
S31508001040000955D5984C23889E0751D5974E737B32
S31508001050FF2B06D040F2AF42954996480DF02AFA82
S31508001060FEE7636833B94FF49662914991480DF0EB
S3150800107021FAFEE749460220FFF74AFDA37886F8DB
S315080010800D90042B03D101210820FFF741FD002311
S31508001090B06808A98DF82C3023F0ADFA30B140F2CB
S315080010A0BA42834983480DF005FAFEE7FFF7A0FF29
S315080010B0B0B922F0D9FC8146606822F0E0FC08A9A4
S315080010C08144B068ADF8249023F098FA30B140F224
S315080010D0C242774977480DF0EDF9FEE7089BA3620F
S315080010E0A378032B02D1B06812F0A0FD21F0C4F852
S315080010F0B80702D50120FFF761FE15F0A84F02D008
S315080011000220FFF75BFEA90220D50021402003AC90
S31508001110FFF7FEFC2146404623F06AFBB0B99DF86E
S31508001120143008AA022B22D18DF82830BDF80C30CD
S31508001130ADF82030104611F0D3FD38B1404623F003
S3150800114055FB18B901214020FFF7E2FC2A0753D5C1
S31508001150564E0321B06803AA23F004FB814688B9DA
S3150800116040F2FE42524953480DF0A4F9FEE7032B1C
S3150800117005BF8DF82830D4E900018DF82800C2E9AA
S315080011800001D7E79DF80C30B068072B40F01F81A7
S31508001190494608AA23F0E8FA30B140F20152444918
S315080011A044480DF087F9FEE7FFF722FFBDF80E2049
S315080011B0A0B9FFF72BFF78B1043292B2B06808A93C
S315080011C0ADF8242023F0D2FA40B140F21252384941
S315080011D038480DF06FF9FEE70232EEE7BDF80E006B
S315080011E00121073080B225F03FF98246002842D116
S315080011F001210C2012F0AEFCA90705D52A4B1B8845
S315080012001A0701D5FFF732FDAB010BD500210420E3
S31508001210FFF77EFC244B9B78012B03D1234B986860
S3150800122012F004FD15F0284F03D000210420FFF723
S315080012306FFC7E060CD51C4C23881D0701D5FFF7CD
S3150800124015FD2388580703D500210420FFF760FC05
S31508001250F90540F1D88003A9404608AA23F029F8E1
S315080012600146002800F0BA8040F2D25210491148CF
S315080012700DF020F9FEE74FF0000B25F079F8CDF8D0
S3150800128000B00246BDF80E3004464946B06823F061
S3150800129071FABDF80E3083420ED040F2225204494C
S315080012A004480DF007F9FEE7684B00209856002021
S315080012B0C18902088C87020822F0D6FB204410F068
S315080012C049F800F007000228DFF8589124D199F868
S315080012D00230042B90D122F0C7FB504B2044827871
S315080012E01B789A4288D159460820FFF711FC22F04C
S315080012F0BBFB204410F02EF89DF82E30C0F30010EA
S31508001300307389F80830FFF78BFC00287FF474AF38
S31508001310B06812F08BFC6FE722F0A6FB204410F0B1
S3150800132019F883064AD522F09FFB204410F012F8DC
S3150800133000F0070003280BD10921204622F0B0FC53
S3150800134014F800B0ABF1040CDCF1000B4BEB0C0B02
S3150800135001210420FFF7DCFBB06823F01EFAC9F868
S315080013602C00BBF1000F30D0B9F8003058062CD548
S3150800137000214020FFF7CCFB0126BDF80E309DF872
S315080013802E200120E254BDF80E309DF82F2023446C
S315080013909A71BDF80E10089A013121440FF0E8FF42
S315080013A0BDF80E3050461C44667125F0B5F81C4B46
S315080013B018780FF0A1FF20F05FFF1DE799F80230BB
S315080013C0012B02D1B06812F031FC0026D5E723F0D4
S315080013D0ADF94946B06823F0CBF90DE79DF80C3016
S315080013E003F0BF02032A01D0022B0FD10D4C23882C
S315080013F05A0702D50420FFF78BFB23889B0702D5E3
S315080014000120FFF7DBFC0FB0BDE8F08F4FF4BF6299
S31508001410054906480DF04EF8FEE700BFD54B0020FB
S31508001420F84A0020684B0020C18902088C87020808
S3150800143008B50246FFF7DCFD30B1072A06D80020BA
S31508001440034B83F8302008BD7020FCE70220FAE73A
S31508001450684B002008B50246FFF7CAFD28B10020F0
S31508001460034B93F83030137008BD7020FCE700BFBB
S31508001470684B002008B5074B01460022986823F000
S3150800148099F930B140F2EB22034904480DF012F8FD
S31508001490FEE708BD98560020C18902088C87020815
S315080014A008B5074B01460022986823F07DF930B14C
S315080014B040F2F122034904480CF0FCFFFEE708BDA0
S315080014C098560020C18902088C87020808B5074B80
S315080014D00146986823F07AF930B140F2F7220449B8
S315080014E004480CF0E7FFFEE708BD00BF9856002049
S315080014F0C18902088C87020808B5074B9B7833B167
S3150800150040F20132054906480CF0D4FFFEE7BDE873
S315080015100840FFF7EBBB00BF684B0020C1890208F3
S315080015208C87020808B5054B0146986823F034F8FD
S31508001530002814BF8B20002008BD00BF9856002045
S31508001540014B986812F0B8BD98560020014BD88810
S31508001550704700BF985600207FB50123ADF80E30BE
S315080015604FF6FE7309480093806800230DF10E02BA
S3150800157004A922F09EFF212800D020B9BDF810004A
S3150800158007B05DF804FB4FF6FF70F9E798560020A0
S3150800159008B5044B0146986822F03FFFB0FA80F080
S315080015A0400908BD9856002038B50B4D0446AB785F
S315080015B0012B0DD8FFF7ECFF60B1084BDC80AB7848
S315080015C01BB9FFF793FB002038BDFFF7F9FAFAE7D6
S315080015D03E20F9E78A20F7E7684B00209856002056
S315080015E0024B9B780BB9FFF781BB7047684B00200D
S315080015F0014BD873704700BF684B002008B5064BEF
S315080016004FF0FF31986822F081FE0028B8BF0330FA
S3150800161040F3870008BD00BF9856002008B5044B64
S31508001620986822F0F6FE034BB3FBF0F080B208BDD3
S315080016309856002040420F0030B58DB02C22044643
S31508001640002101A823F0DFFD01234FF002328DF8B7
S3150800165008306423CDE9032306930B238DF82C3039
S31508001660214B9B8CADF80A30FFF7C2FCA8B140F2BB
S31508001670F23307934FF47A7305930CB9FFF722FBFD
S315080016801A4D01A9A86812F0EBFDC0B140F2AC6290
S31508001690174918480CF00EFFFEE7FFF7BFFF0C23AB
S315080016A04343902B0793A3F10A02D8BF91230592CF
S315080016B0D8BF0793059B8B2BDFD88C23DCE7FFF776
S315080016C0A5FC60B10122A868114623F08DF830B157
S315080016D040F2AF62064907480CF0ECFEFEE70CB98B
S315080016E0FFF704FB0DB030BD684B0020985600206C
S315080016F0C18902088C870208F8B524F084FF554C86
S3150800170006462388D90503D5A37843BBFFF7EEFA27
S31508001710514D6B7BFF2B13D06B7B03F0FF0723BB6D
S31508001720FF236B73A378032B0AD100233046A370DB
S3150800173024F064FF3846FFF713FB24F064FF0646DF
S31508001740A378042B08D12B7BFF2B05D02B7B022BF0
S3150800175014D142480FF0CAFCFF232B7327E000215F
S315080017604FF48070FFF7D4F9D2E76B7B012B4FF06B
S31508001770FF0314BF89278D276B73D6E72B7B13B11D
S315080017802B7B012B1ED1FFF74BFA0022FF212B7B67
S315080017900746DBB222772973002847D0012B0AD1E6
S315080017A064212E48A3700FF0ACFCFFF709FA304607
S315080017B024F024FF06E03046A27024F01FFF3120F3
S315080017C0FFF7CEFA23881A0608D500218020FFF7EE
S315080017D09FF9A86822F04BFF11F0D7FB23889B05D9
S315080017E007D54FF400700021FFF792F90020FFF7A4
S315080017F023FF0BF07DF9608620B324F0B9FD0121A3
S315080018000546002012F0A6F9A678012E14D1002666
S315080018102677A670FFF76AFA284610F0B1FFA37874
S3150800182066867BB9BDE8F84011F050BAA07030461C
S3150800183024F0E4FE3846C3E72EB1284610F0A0FF90
S3150800184000236386F8BDFFF751FA284610F098FF83
S315080018506686F7E7684B002098560020844B0020E0
S315080018608B4BF0B51B888B4C8B4D63848B4B85B0AB
S315080018701B68E3628A4B1B8823848A4B1B68A36216
S315080018802B88DB0700F1FC8001210846FFF740F9A9
S315080018900523854A04F1100104F10800AB7012F023
S315080018A087F928B1F522814981480CF003FEFEE745
S315080018B0A3682BB9F7227D497D480CF0FBFDFEE7AE
S315080018C07C4822F03EFD70A3D3E90023CDE900232E
S315080018D04FF0FF324FF0FF33A06822F0E1FD4FF4DE
S315080018E08811A06812F060FC014630B140F20F1270
S315080018F06E496F480CF0DEFDFEE76F4B1B78012B37
S315080019000ED16E4AA06812F021FAA06812F0D6FC31
S31508001910E0B140F21B12654965480CF0CBFDFEE7C5
S31508001920674E316831B94FF48F72604960480CF0E0
S31508001930C1FDFEE7614AA06812F008FA33689B68A1
S3150800194023B1DB6913B15B7803B1E373FFF704FED8
S315080019500146E080A06812F075FB064630B140F2F9
S315080019602D12524952480CF0A5FDFEE7554B0120B1
S315080019701B78C3EB431203EB8203DB00AB84FFF750
S315080019805BFEA7680FF032FB32460146384622F066
S3150800199017FF064630B140F23312444944480CF06A
S315080019A089FDFEE740F203530427AB81464BAF732C
S315080019B01B78EB73FFF732FE00EB80039B002B824C
S315080019C0FFF72CFEC00068823946A0686E6122F0D7
S315080019D00FFD30B14FF4A172344935480CF06AFD59
S315080019E0FEE73A46A06803A922F095FD042806D02A
S315080019F04FF4A3722D492E480CF05CFDFEE703A9AF
S31508001A0001200FF0C3FC0AF0F9FD08224FF0FF3160
S31508001A10A06822F056FD30B140F24F1223492448FF
S31508001A200CF048FDFEE712F0C9FD30B140F2551240
S31508001A301E491F480CF03EFDFEE7FFF7D9FA68B1CC
S31508001A401EF0FCF90146A06822F0C0FD30B140F254
S31508001A505912164916480CF02DFDFEE7A468FFF743
S31508001A607BFD1A4B014603F10C02204622F04CFC82
S31508001A7030B14FF4B0720D490D480CF01BFDFEE76E
S31508001A8005B0F0BDAFF300800A0020FF4203000056
S31508001A90B88C020898560020684B0020BC8C0208B7
S31508001AA0BA8C0208C08C0208390B0008C1890208E2
S31508001AB08C870208690345ECB94B00204D0B0008DA
S31508001AC0805400203A58002039580020EC89020832
S31508001AD008B5044B986822F09EFC034BB3FBF0F064
S31508001AE080B208BD9856002040420F002DE9F04309
S31508001AF08C4D87B02B889B0706D440F24C728A49D6
S31508001B008A480CF0D7FCFEE7AB78033B012B06D9D5
S31508001B1040F24E72844985480CF0CCFCFEE76A68B0
S31508001B2032B940F25172804980480CF0C3FCFEE796
S31508001B307F4E2C88F77B14F0200418BF4FF47A7474
S31508001B404FEA1718FFF754FA00287DD0B8F1020FAC
S31508001B500AD0A8F10303022B74D940F265727249C0
S31508001B6072480CF0A7FCFEE7032795F8303008EB1F
S31508001B70C80898446F4B104603EB4803B3F81C801B
S31508001B8021F07DFF4FF4FA534343B3FBF8F3782271
S31508001B907733B3FBF2F31F44C7EB0717AB78FF00A5
S31508001BA0BFB204F5347417FA84F4042BA4B203D133
S31508001BB007F6E8072744BCB2D5F8048021F054FF9D
S31508001BC00746686821F05BFF074421F073FFBFB240
S31508001BD03F1A21F049FF40440FF0BCFB7378C0F36D
S31508001BE040198DF80C30544BBFB2CDE904340024AB
S31508001BF021F06CFF009402463B464146B06822F04D
S31508001C0097FD287EB278737812FB00F29342C4BF20
S31508001C109B1ADCB22B88F18813F0200FB068B180CC
S31508001C208DF80C4003AB76D000934A46434B22F01E
S31508001C3060FB002873D040F224723B493B480CF005
S31508001C4039FCFEE7062790E7FFF7E0F9002846D0BB
S31508001C50384B07F00F0708EBC801394403EB41037B
S31508001C601046B3F81C9021F00AFFB8F1000F2CD0EB
S31508001C70B8F1010F2CD14FF00408400080B2F319D7
S31508001C8093F834304BB14FF4FA52023303444344C9
S31508001C909BB25343B3FBF9F39CB2AB78042B8BD1BD
S31508001CA0FFF7BCFC374497F834308146053398442F
S31508001CB0FFF70EFF0C2308FB00F003FB09F909EBFD
S31508001CC0C009A1441FFA89F476E74FF00208D6E75F
S31508001CD040F28672144915480CF0ECFBFEE7FFF754
S31508001CE0F7FE0746686821F0CAFE09307843AB78E4
S31508001CF004EBC000042B84B27FF45EAFFFF78EFCC2
S31508001D000746FFF7E5FE602358430C2303FB07004D
S31508001D10204484B250E74A4622F0E9FA89E707B038
S31508001D20BDE8F083684B0020C18902088C87020849
S31508001D3098560020EC89020820A10700744B002061
S31508001D40F8B5494C258815F0020506D040F27512FB
S31508001D50464947480CF0AEFBFEE7257724F053FCCE
S31508001D60238806465A070CD5424B986822F015FD7B
S31508001D70E36AC01AA38C984203D929460420FEF7C1
S31508001D80C7FE304624F03AFCA778022F37D124F054
S31508001D903AFC2388064613F0040507D036480FF0A8
S31508001DA0A5F93046BDE8F84024F028BC24F026FC06
S31508001DB0606810F0C5FF20B1A570BDE8F840FEF7D1
S31508001DC0CFBF24F020FC6668054621F04DFE30445E
S31508001DD00FF0C0FA10F0200F0CBF032304230121D3
S31508001DE03846A370FEF794FEFFF780FE284624F0D7
S31508001DF005FC01210846BDE8F84011F0ABBE042FEA
S31508001E0027D11C4B1B7BFF2B2DD1237EF3B124F04E
S31508001E10FAFB238805465B0704D517480FF066F9D1
S31508001E202846BFE724F0EAFB237E013B237624F00D
S31508001E30EAFB044601210220FEF76AFEFFF756FE7A
S31508001E40204624F0DBFB01210820D4E74020A370BC
S31508001E50B3E7012F07D10023A370064B986811F04A
S31508001E60E5FE3120A9E7F8BD684B0020C1890208C4
S31508001E708C87020898560020844B002038B501212B
S31508001E8004461020FEF744FE064B9D68FFF7C6FB86
S31508001E90012200FB04F1044B284622F013FA002025
S31508001EA038BD00BF98560020850D000808B50A4BB6
S31508001EB01B88DB0606D44FF46172084908480CF003
S31508001EC0F9FAFEE710200021FEF722FE054B986876
S31508001ED0BDE8084022F004BA684B0020C189020810
S31508001EE08C8702089856002038B50E4D688E30B992
S31508001EF040F291320C490D480CF0DCFAFEE724F06A
S31508001F0037FA0446688E24F051FA811F21440120CD
S31508001F100FF03CFA064B0446986822F03EFC001B7C
S31508001F2038BD00BF684B0020C18902088C870208AB
S31508001F309856002010B5084C636833B94FF4687298
S31508001F40064907480CF0B6FAFEE7064B986822F0F1
S31508001F5024FCA36AC01A10BD684B0020C189020878
S31508001F608C8702089856002038B50A4D688E30B915
S31508001F7040F2AA32084909480CF09CFAFEE724F018
S31508001F80F7F90446688E24F011FA044414F8020C92
S31508001F9038BD00BF684B0020C18902088C8702083B
S31508001FA038B50A4D688E30B940F2B9320849094841
S31508001FB00CF080FAFEE724F0DBF90446688E24F07C
S31508001FC0F5F9044414F9070C38BD00BF684B002026
S31508001FD0C18902088C87020838B50A4D688E30B95F
S31508001FE04FF47272084909480CF064FAFEE724F0C7
S31508001FF0BFF90446688E24F0D9F9044414F9010C93
S3150800200038BD00BF684B0020C18902088C870208CA
S31508002010024B1888C0F3C010704700BF684B0020F9
S3150800202030B585B005466C460D4B0FCB84E80F00DE
S315080020300DB12B6800930B4B21460022986812F0CD
S3150800204051F8044630B140F2E632074907480CF029
S3150800205031FAFEE7FEF7B4FD204605B030BD00BFF5
S31508002060748A020898560020C18902088C870208DB
S3150800207030B5154D87B004460DF10701A86822F062
S3150800208011FA30B140F2F732104911480CF012FA41
S31508002090FEE79DF80720531EDBB2FD2B0FD90294ED
S315080020A0FF2A00D10394A86802A922F0E3FA40B1F6
S315080020B040F20442054906480CF0FCF9FEE7012AFD
S315080020C0EFE707B030BD00BF98560020C189020867
S315080020D08C87020808B5064B986822F0DAFA30B100
S315080020E04FF48262034904480CF0E4F9FEE708BDA0
S315080020F098560020C18902088C8702080122024BE3
S315080021001146986822F0D9B8985600207047F8B555
S31508002110064604200D4621F089FC030622D5124FF7
S31508002120BC78FCB926B1012E17D002242046F8BD8A
S3150800213001262846FFF72CFA0028F6D00B4800237C
S3150800214032462946806822F0D6F840B14FF48A62B2
S31508002150074908480CF0AEF9FEE72646E9E70623E4
S31508002160BB70E3E77024E1E7684B0020985600202F
S31508002170C18902088C870208042010B521F056FC94
S31508002180030611D5094CA378062B0DD1084B986880
S3150800219022F0B3F830B140F26A42064906480CF01C
S315080021A089F9FEE7A07010BD7020FCE7684B002097
S315080021B098560020C18902088C8702081FB5044674
S315080021C001A811F057FF9DF80D3053B14CB1064BDD
S315080021D02078617818700020A27859709A7004B037
S315080021E010BD0220FBE700BF985600201FB5044625
S315080021F001A811F03FFF9DF80D3053B14CB10020F6
S31508002200054B1A7822705A789B786270A37004B0CE
S3150800221010BD0220FBE700BF98560020FFF7CEBF8F
S31508002220FFF7E4BF0348044B834202D0034B03B1D4
S3150800223018477047505800205058002000000000EA
S31508002240064B0749C91A891048BF0131491003D0FE
S31508002250044B0BB101481847704700BF505800207F
S31508002260505800200000000010B5064C237843B9EA
S31508002270FFF7D8FF044B13B10448AFF300800123DE
S31508002280237010BDF65100200000000060C6020849
S3150800229008B5054B1BB105490548AFF30080BDE8F5
S315080022A00840FFF7CDBF00BF00000000A0220020B5
S315080022B060C60208A3F5803A704700BF174B002B8B
S315080022C008BF134B9D46FFF7F5FF00218B460F46C7
S315080022D01348144A121A22F096FF0E4B002B00D010
S315080022E098470D4B002B00D098470020002104008A
S315080022F00D000D48002802D00C48AFF300801AF0F4
S315080023008BFB200029001BF0FAF81AF01BF800BF17
S315080023100000080000000000000000000020002067
S31508002320002000206052002000000000000000008D
S3150800233010B50A4B01220A490A48006803F0B6FF9D
S3150800234004F0F6F8084C0949204609F0F5FF4FF461
S31508002350FA7120680EF0D5FE10BD00BF29250008C9
S31508002360EC2200201C560020B82200205125000827
S31508002370024B93F82E300370704700BFBC22002032
S3150800238010B55F4B93F85930042B0ED8DFE803F0ED
S3150800239003132231420003787E2B07D0594B0122C2
S315080023A059495A48006803F081FF10BD544B012271
S315080023B083F85920F2E70378514981F8313002232E
S315080023C081F859304F4B012230315048006803F0EC
S315080023D06DFFEAE703784A4981F83230032381F82A
S315080023E05930484B012230314848006803F05EFFF7
S315080023F0DBE70378424981F83330042381F8593002
S3150800240091F831203F4B043A34314048006803F0D4
S315080024104DFFCAE73A4C002384F85930621C94F8F9
S31508002420311004F131001AF03DFF207020B9E3782D
S31508002430482B09D0432B5DD0324B01223249334811
S31508002440006803F033FFB0E7637A84F82E30013B67
S31508002450042BF1D8DFE803F0031221303F000320F4
S3150800246001F05EFA0028E7D01BF0D5F81BF0D4F887
S315080024702749284B18681EF0D6FDDDE7032001F032
S315080024804FFA0028D8D01BF0C6F81BF0C5F8224929
S31508002490204B18681EF0C7FDCEE7032001F040FA6E
S315080024A00028C9D01BF0B7F81BF0B6F81B49194B22
S315080024B018681EF0B8FDBFE7032001F031FA0028BE
S315080024C0BAD01BF0A8F81BF0A7F81549114B1868E5
S315080024D01EF0A9FDB0E7032001F022FA0028ABD0D0
S315080024E01BF099F81BF098F80E490A4B18681EF06D
S315080024F09AFDA1E7024B1A7983F82F209CE700BFC3
S31508002500BC22002029250008EC2200201C560020A9
S31508002510E86C0208E8270020F06C0208F86C02084C
S31508002520006D02080C6D020808B50248FFF728FF7F
S3150800253008BD00BFEC22002008B50A460023014664
S315080025400248006803F078FF08BD00BF1C5600204B
S3150800255008B51AF035FF4FF4FA71024B18680EF0F9
S31508002560D0FD08BDB822002010B582B004461AF086
S3150800257040FF08B902B010BD00230093ADF804303F
S31508002580074B1B88ADF80230ADF8044040F2FF1344
S31508002590ADF80030694604201FF001FFEAE700BFE6
S315080025A03451002008B513460A4601460448006817
S315080025B003F000F900B908BD02480BF07BFFFAE703
S315080025C050560020186D02080A2800D9704730B501
S315080025D083B004460D466B4601AA014610480068BA
S315080025E003F04EF808B9019B23B10E480BF062FFC1
S315080025F003B030BD009B2A4621460948006802F010
S315080026007FFF40B9214608480BF054FF2946074882
S315080026100BF050FFECE7214605480BF04BFFE7E7C8
S3150800262050560020206D0208446D0208606D0208AD
S31508002630686D02080A2800D9704710B50446014695
S31508002640064B186803F084F920B9214604480BF0B4
S3150800265031FF10BD03480BF02DFFFAE75056002056
S315080026608C6D0208A86D020808B5032001F058F918
S3150800267058B9FFF75DFE4FF4FA61094B18680EF07A
S3150800268040FD0848FFF774FE08BD1AF0C4FF1AF0AB
S31508002690C3FF0549054B18681EF0C5FCE9E700BFEE
S315080026A06023002056230020C06D0208E82700207A
S315080026B008B50B4B1A789A721B7843B103F0FF02E0
S315080026C02B2A08D0074B1B6800221A7008BD0C205D
S315080026D01AF053FEF6E7044B18680EF007FDF1E70B
S315080026E0482300206423002068230020037823BBA6
S315080026F070470133022B22DC03EB4302104911F821
S315080027002220002AF5D100B50A4603EB430102EB65
S31508002710810C4FF0000E8CF801E04FF0010C02F826
S3150800272021C002EB810301684268C3F80210C3F8AE
S31508002730062002895A815DF804FB0023DAE7704710
S315080027401823002010B5194C2046FFF711FE204625
S3150800275010F80D39827B934206D14FF49671144BCB
S3150800276018680EF0CEFC10BDA4F10D029373032079
S3150800277001F0D6F880B90F481E2303700E4B9B7BD9
S3150800278043700223437200211AF054FE0028E4D154
S315080027900A481BF02EF9E0E71AF03DFF1AF03CFF55
S315080027A00749084B18681EF03EFCE4E7552300204D
S315080027B0602300203C23002048230020107F0208C5
S315080027C0CC6D0208E827002008B5044A1AF01BFE5B
S315080027D0034B18680EF08AFC08BD00BF482300208A
S315080027E06423002038B504461FF0E5FDA04201D851
S315080027F0012038BD0546032001F092F80028F8D0DC
S315080028001AF009FF1AF008FF2B4622460349044826
S3150800281000681EF008FC0020EBE700BFDC6D02082C
S31508002820E827002030B583B004468368C26853F8A9
S3150800283022301D882846FFF7D5FF08B903B030BDFA
S3150800284000230093ADF80430164B1B88ADF8023010
S31508002850ADF804506368E2689B1A012B1DDDA36876
S31508002860013253F822301B88ADF800301FF093FD73
S31508002870694603201FF093FD0446032001F050F833
S315080028800028DBD01AF0C7FE1AF0C6FE2246064913
S31508002890064B18681EF0C7FBD0E740F2FF13ADF8E9
S315080028A00030E3E736510020146E0208E8270020BE
S315080028B030B583B004468368C26853F822301D8851
S315080028C02846FFF78FFF08B903B030BD00230093F1
S315080028D0ADF80430154B1B88ADF80230ADF804503E
S315080028E06368E2689B1A012B1BDDA368013253F863
S315080028F022301B88ADF80030694604201FF04FFDD2
S315080029000446032001F00CF80028DDD01AF083FEF7
S315080029101AF082FE22460649064B18681EF083FB0B
S31508002920D2E740F2FF13ADF80030E5E73651002054
S31508002930346E0208E827002030B583B00446836861
S31508002940C26853F822301D882846FFF74BFF08B99E
S3150800295003B030BD00230093ADF80430154B1B8837
S31508002960ADF80230ADF804506368E2689B1A012B93
S315080029701BDDA368013253F822301B88ADF80030FE
S31508002980694602201FF00BFD0446032000F0C8FF2D
S315080029900028DDD01AF03FFE1AF03EFE2246064910
S315080029A0064B18681EF03FFBD2E740F2FF13ADF85E
S315080029B00030E5E736510020486E0208E827002077
S315080029C030B583B08368C26853F822301C78002378
S315080029D0019343689B1A012B19DD01AA01211DF0F9
S315080029E0F2FD01469DF804001FF0D1FC054680B1B2
S315080029F0022000F095FF60B11AF00DFE1AF00CFEE9
S31508002A002A460649064B18681EF00DFB01E01FF022
S31508002A10C2FC20461FF0C7FC03B030BD646E020836
S31508002A20E827002010B503468168C26851F82200DD
S31508002A30B0F900001A4C20805B689B1A012B0FDD49
S31508002A40013251F8223093F90010003918BF0121DC
S31508002A501FF052FCA0B9032000F062FF10B910BDA8
S31508002A600021F5E71AF0D7FD1AF0D6FD0D4B1C68C4
S31508002A701FF046FC02460C4920461EF0D4FAEEE743
S31508002A80012000F04DFF0028E9D01AF0C4FD1AF025
S31508002A90C3FD0649034B18681EF0C5FADFE700BFF9
S31508002AA036510020E8270020C86E0208DC6E0208AE
S31508002AB008B51FF015FC032000F032FF00B908BD69
S31508002AC01AF0A9FD1AF0A8FD0249034B18681EF072
S31508002AD0AAFAF4E7F46E0208E827002008B5836826
S31508002AE0C26853F822301A88094B1A80032000F06E
S31508002AF017FF00B908BD1AF08EFD1AF08DFD044BBC
S31508002B001A880449044B18681EF08DFAF2E700BFCC
S31508002B10B8570020146F0208E827002008B5024BB2
S31508002B2018680EF0E3FA08BD682300202DE9F04185
S31508002B3086B01FF0F1FB0446894B1B7813F0020F91
S31508002B402CD0884E13F0010F2AD0864F13F0040FAD
S31508002B5028D0DFF81082032000F0E2FE28BB03200D
S31508002B6000F0DEFE58BB032000F0DAFE002835D15F
S31508002B70032000F0D5FE00283ED1032000F0D0FE49
S31508002B80002847D1032000F0CBFE00285ED10320A1
S31508002B9000F0C6FE002867D1002471E0724ED1E726
S31508002BA0714FD3E7DFF8C081D5E71AF034FD1AF084
S31508002BB033FD6E496E4B18681EF035FACFE71AF0EA
S31508002BC02AFD1AF029FD6A4B1D6805F025FA02460A
S31508002BD00B46684928461EF026FAC4E71AF01BFD7C
S31508002BE01AF01AFD624B1D681FF06EFB0246624919
S31508002BF028461EF018FABBE71AF00DFD1AF00CFD70
S31508002C005B4B1D681FF094FB02465C4928461EF084
S31508002C100AFAB2E71AF0FFFC1AF0FEFCE279A37989
S31508002C2061792079E57894F802C094F801E024786F
S31508002C300594CDF810E0CDF80CC0029501900091EE
S31508002C404F494B4800681EF0EEF99BE71AF0E3FC83
S31508002C501AF0E2FC464B1C681FF062FB0246494923
S31508002C6020461EF0E0F992E71AF0D5FC1AF0D4FCDB
S31508002C7045493F4B18681EF0D6F98DE70134E4B292
S31508002C80072C12D8032000F04BFE0028F6D01AF0C5
S31508002C90C2FC1AF0C1FC364B1D681FF03DFB025DF5
S31508002CA03A4928461EF0BFF9E8E7032000F038FE47
S31508002CB098B9032000F034FEC8B9032000F030FEAE
S31508002CC018BB032000F02CFE68BB032000F028FE8A
S31508002CD0002836D106B0BDE8F0811AF09CFC1AF03F
S31508002CE09BFC2B49224B18681EF09DF9E1E71AF068
S31508002CF092FC1AF091FC1E4B1C681FF015FB02464D
S31508002D00244920461EF08FF9D7E71AF084FC1AF0FA
S31508002D1083FC174B1C681FF0EBFA02461E49204637
S31508002D201EF081F9CDE71AF076FC1AF075FC104B07
S31508002D301C681FF0E5FA0246184920461EF073F98A
S31508002D40C3E71AF068FC1AF067FCCDF800803B462A
S31508002D5032461349064800681EF065F9BAE700BF0F
S31508002D602E5800207C6E0208846E0208306F020816
S31508002D70E8270020386F0208546F0208706F0208AF
S31508002D808C6F0208B06F0208CC6F0208E06F020869
S31508002D905C6D0208E86F0208047002081C700208DD
S31508002DA03470020830B583B08368C26853F822309D
S31508002DB01C7801A920461FF097FA88B9032000F06D
S31508002DC0AFFD08B903B030BD1AF025FC1AF024FC93
S31508002DD0019B22460B490C4800681EF024F9F1E7CE
S31508002DE00546012000F09CFD0028EBD01AF013FCE4
S31508002DF01AF012FC2A460549034B18681EF013F907
S31508002E00E0E700BF6C700208E82700208870020817
S31508002E1070B58268C36852F823100C88013352F8DB
S31508002E2023301D78294620461FF0ADFA80B90320C5
S31508002E3000F076FD00B970BD1AF0EDFB1AF0ECFB58
S31508002E402B4622460B490C4800681EF0ECF8F2E7C0
S31508002E500646012000F064FD0028ECD01AF0DBFBE2
S31508002E601AF0DAFB32460549034B18681EF0DBF800
S31508002E70E1E700BFAC700208E8270020DC70020812
S31508002E8070B582B08368C26853F822301B78134A3B
S31508002E90137013F0020F0ED0114C13F0010F0CD063
S31508002EA00F4D13F0040F0AD00D4E032000F038FD25
S31508002EB038B902B070BD0B4CEFE70A4DF1E7094E81
S31508002EC0F3E71AF0A8FB1AF0A7FB00962B46224652
S31508002ED00549064800681EF0A6F8EAE72E580020BD
S31508002EE07C6E0208846E0208906E0208E8270020AD
S31508002EF030B58FB004460D4668461AF0BAFA0DF199
S31508002F00200EEC46BCE80F00AEE80F009CE8030074
S31508002F108EE8030008A9464B186820F042F810F11D
S31508002F20880F46D168461AF0A4FA0DF1200EEC4631
S31508002F30BCE80F00AEE80F009CE803008EE803002B
S31508002F404FF41053ADF820308023ADF822304FF4FB
S31508002F504073079307A81AF09CFA079B0A93354B08
S31508002F600B93334B1A68099B0D9213F0FF0F04D18C
S31508002F7023F0FF0343F001030993012309932C4B24
S31508002F802A46214608A820F029F8044610BB032043
S31508002F9000F0C6FC90B9264B18681FF09DF9054647
S31508002FA0002831D1032000F0BBFC044610BB0124E5
S31508002FB02FE01F4B18681FF0CBFFB3E71AF02BFB67
S31508002FC01AF02AFB1A4B1A681B491C4B18681EF084
S31508002FD02AF8E0E7032000F0A3FC0028DBD01AF06B
S31508002FE01AFB1AF019FB22461549144B18681EF0ED
S31508002FF01AF8D0E71AF00FFB1AF00EFB11490F4B1F
S3150800300018681EF010F804E0032000F089FC044656
S3150800301010B920460FB030BD1AF0FDFA1AF0FCFAC6
S315080030202A460949054B18681DF0FDFF0024F0E7FC
S3150800303058230020000144050C710208E8270020E7
S315080030403C710208607102088071020800B583B0FD
S315080030500021019101AA1DF0B6FA019910290ED096
S31508003060032000F05DFC60B11AF0D5FA1AF0D4FA24
S3150800307010220549054B18681DF0D5FF01E0FFF73A
S3150800308037FF03B05DF804FBA0710208E8270020AB
S3150800309010B588B020F0A1F8012009F047FA574A80
S315080030A0936843F40053936055490320FFF78CFA5D
S315080030B05449554809F040F95449554809F03CF92E
S315080030C05449554809F038F9032000F029FCF8B9A5
S315080030D00124524B1C6002A81AF0F2F902A92046F4
S315080030E01FF05FFF10F1880F1CD0032000F018FCBA
S315080030F000286ED1494B18681FF0EEF81FF03FF90B
S315080031000446032000F00CFC00286CD108B010BD62
S315080031101AF081FA1AF080FA4149424B18681DF0F4
S3150800312082FFD5E7032000F0FBFB002837D13B4B95
S315080031301A68039B079213F0FF0F04D123F0FF03CD
S3150800314043F001030393384B05934FF440730193FF
S3150800315001A81AF0C5F9019B04934FF41053ADF872
S3150800316008308023ADF80A30012303932B4B102235
S315080031702E4902A81FF032FF0446D0B9032000F0FA
S31508003180CFFB0028B6D01AF046FA1AF045FA234BB8
S315080031901A682749234B18681DF045FFAAE71AF055
S315080031A03AFA1AF039FA23491E4B18681DF03BFF04
S315080031B0BDE7032000F0B4FB00289BD01AF02BFAD9
S315080031C01AF02AFA22461C49164B18681DF02BFFDE
S315080031D090E71AF020FA1AF01FFA1849114B1868E6
S315080031E01DF021FF86E71AF016FA1AF015FA22469C
S315080031F013490C4B18681DF016FF87E700C00550E9
S3150800320053230020B1260008642300204527000820
S3150800321060230020D93200086823002058230020A4
S31508003220C8710208E8270020004440046C540020B6
S315080032300C710208D47102083C710208FC7102087C
S315080032402872020808B50320FFF7F4F90449002399
S3150800325001F80B3F01220320FFF7A4F908BD00BFC0
S315080032604823002010B504461AF0BAFA10B9154BCF
S315080032709C4205D020461AF0B3FA012808D010BDA2
S3150800328023F046FC104B1860104B01221A70F1E728
S3150800329023F03EFC0D4B00221A700B4B1B68C01A1C
S315080032A00B4B984208D84CF24F339842E7D8094B53
S315080032B018680DF01BFFE2E71FF079F8FFF7C2FF69
S315080032C0DDE700BFF87E02085C230020F7510020E6
S315080032D0A08601006823002010B584B01EF0F8FF10
S315080032E050B1254BDB7A73B1012B2AD0234B1B68CF
S315080032F000221A7004B010BDFFF736F91F4B1B6881
S3150800330000221A70F2E79DF80030032262F30403E4
S315080033108DF800309DF800306FF346138DF80030B5
S315080033201C238DF8043002228DF80D209DF800200C
S315080033308DF80520104A9372002101A81AF07AF830
S31508003340D4E70D4B9B7A2B2BD0D10D4C2046FFF79B
S315080033500FF82B238DF8043004238DF80D302378CD
S315080033608DF80530FF238DF806308DF807300021DB
S3150800337001A81AF05FF8B9E748230020682300205F
S315080033805523002070B506460D468B681B781C2B06
S3150800339001D000241DE0214BDB7A002BF9D100284F
S315080033A0F7D101221D4901F80B2F0320FFF7FAF880
S315080033B0EFE704EB44021A4B03EB82035B780A2B14
S315080033C01DD11749900001EB820300220A545A7056
S315080033D00134022C21DCAB68197804EB4402104B4B
S315080033E003EB82039B789942F2D1002EE1D10C4976
S315080033F0900001EB820300220A545A70E8E7084A53
S3150800340004EB440C02EB8C00012102F82C100B444F
S31508003410437002301AF00EF8DAE770BD4823002030
S315080034201823002010B5A0F19003062B48D8DFE832
S3150800343003F0040B1A47472938002A4B19882A4BE8
S3150800344018680DF05EFE10BD032000F069FA00282A
S31508003450F9D01AF0E0F81AF0DFF82449244B186876
S315080034601DF0E1FDEFE7012000F05AFA0028EAD046
S315080034701AF0D1F81AF0D0F81E491D4B18681DF03D
S31508003480D2FDE0E7012000F04BFA0028DBD01AF065
S31508003490C2F81AF0C1F81849154B18681DF0C3FD93
S315080034A0D1E7032000F03CFA0028CCD01AF0B3F894
S315080034B01AF0B2F811490E4B18681DF0B4FDC2E7B0
S315080034C00446032000F02CFA0028BCD01AF0A3F812
S315080034D01AF0A2F822460A49054B18681DF0A3FD02
S315080034E0B1E700BFB85700206823002040720208E1
S315080034F0E8270020507202087072020894720208C7
S31508003500B072020810B523F003FB0446104B1B6883
S31508003510C31A104A934202D90F4B1B7853B91EF0AF
S31508003520D7FE58B90D4B1B68E31A41F678629342E9
S3150800353008D810BD0A481AF057FAFAE708481AF0E8
S315080035404EFAF6E7054B1C6005481AF052FAF0E702
S315080035505C230020A0860100F75100207C5400203F
S31508003560287F020810B580B10446012000F0D8F97A
S3150800357000B910BD1AF04FF81AF04EF822460A495B
S315080035800A4B18681DF04FFDF3E7032000F0C8F951
S315080035900028EED01AF03FF81AF03EF80449034B1B
S315080035A018681DF040FDE4E7C8720208E827002005
S315080035B0F072020808B5024B1B6803B1984708BDAC
S315080035C09C23002008B5024B5B6803B1984708BDE9
S315080035D09C23002008B5024B9B6803B1984708BD99
S315080035E09C23002008B5024BDB6803B1984708BD49
S315080035F09C23002008B5024B1B6903B1984708BDF8
S315080036009C23002008B5024B5B6903B1984708BDA7
S315080036109C23002000B585B0094B1868094B186033
S31508003620094B0A4A13600A4A01920A4A1268029228
S31508003630039301A91CF0E9FF05B05DF804FB00BF80
S315080036409C54002044320020905400204032002030
S31508003650D87E02087026002008B5024B18681CF0B0
S31508003660E8FF08BD9C54002038B507F015FB044652
S31508003670064D2B68D3F8B00207F002FB28681CF049
S31508003680F2FF204607F0FCFA38BD00BF9C54002024
S3150800369008B5034823F0BCF8024800F099FE08BDB7
S315080036A010820208A05400200023062073B1704738
S315080036B054B224B9013353B15DF8044B704702285C
S315080036C0F8D008680A4908601046F3E710B4094AB2
S315080036D052F823100A7A022AEAD9032AEAD1441EA2
S315080036E0E4B2012CE6D90868014908601046E1E70A
S315080036F070260020B454002010B5A2B0202422461B
S3150800370000211AA821F07FFD314B1A934FF4E133BB
S315080037101C9302238DF8753003238DF876302D4BD4
S315080037201E930A238DF87E3009238DF880300021F8
S31508003730159116911791189119914FF480131593B5
S31508003740254B199310911191129113911491234BB2
S315080037501093234B14933C2201A821F054FD0DF13C
S31508003760040E0DF1540CBCE80F00AEE80F00DCF8AF
S315080037700030CEF800300DF1180E0DF1400CBCE803
S315080037800F00AEE80F00DCF80030CEF80030154B1D
S315080037900B930C9401238DF834308DF835308DF861
S315080037A03630114B0F93114B1AAA01A9104807F08E
S315080037B01FFB04469DF837303BB100214FF4E1303A
S315080037C019F083FF204622B010BD0321F6E700BF9B
S315080037D034820208188202083C00015B01001000CE
S315080037E04400015B74260020C8540020942600205B
S315080037F05027002008B531B9084B1868036823B16B
S3150800380007F00CFF01E0012900D908BD034B186831
S315080038100368002BF9D01DF0E8FEF6E7DC5400201B
S3150800382008B50349034808F06DF8FFF765FF08BDBA
S31508003830E05400207827002008B502481DF039FC1E
S3150800384008BD00BF5027002008B502481DF031FC0E
S3150800385008BD00BF5027002008B5024B5A6A1868F1
S31508003860904708BD5027002008B5024819F0B1FF57
S3150800387008BD00BFF87E020808B503481AF0AAF882
S3150800388002481AF0A7F808BD287F0208107F020828
S3150800389018B1034A1060002070472520704700BF02
S315080038A08027002010B5044C0449206802F016FC55
S315080038B02068FFF7EDFF10BD1C560020F8540020C5
S315080038C0014B1868704700BF8027002000B583B0F9
S315080038D00B460549097801910092002201211EF044
S315080038E03FFD03B05DF804FB2E58002010B50446D2
S315080038F0032000F015F820B9A179A06819F087FE11
S3150800390010BD19F088FE19F087FE0349034B1868A5
S315080039101DF089FBF0E700BF407F0208E82700207A
S3150800392003460B4A107828B10A4A12789A4202D2FC
S31508003930002000E00120084A12783AB1074A1278B6
S3150800394042FA03F313F0010F00D10020704700BFBD
S315080039503158002030580020F95100202F580020F7
S3150800396008B5084B01221A70074B00221A70074B3C
S3150800397004221A70064B1F221A7007F08DF9054BA0
S31508003980186008BD31580020F95100203058002031
S315080039902F580020E827002008B5054822F038FFF0
S315080039A019F0D6FD012019F05DFE00F0B1F808BD4A
S315080039B01082020808B5024822F02AFF08BD00BF97
S315080039C0108202082DE9F04180460F4601F10905EB
S315080039D00026344604E05B21082000F0C1FA0134D1
S315080039E0AC4233D2052C1BD801A353F824F000BFF0
S315080039F0D7390008093A00083D3A0008113A000884
S31508003A00153A0008193A0008FBB20433D9B2E3E7BD
S31508003A108021E1E70021DFE7731C3146DEB2DBE7F0
S31508003A20BB1DA3420CD0FB1DA3420BD007F1080314
S31508003A30A34209D0A31F18F80310CDE7D121CBE77D
S31508003A405A21C9E75A21C7E75D21C5E70020BDE825
S31508003A50F08100BF00B583B0002300930193FFF700
S31508003A602FFF114B186001238DF8003090F836307F
S31508003A7093B100200C4B1B6893F8351002290FD020
S31508003A8003290FD119F004FE019008216846FFF7B3
S31508003A9099FF03B05DF804FB00681CF03CF9E9E700
S31508003AA00321EFE70021EDE7EC27002000B583B0FE
S31508003AB000220092019202218DF80010054819F0A3
S31508003AC0ECFD019008216846FFF77CFF03B05DF81E
S31508003AD004FB00BF006A180000B583B0044B1B88BE
S31508003AE0ADF8043001A800F017FB03B05DF804FB3D
S31508003AF0507F020800B583B0044B1B88ADF804302C
S31508003B0001A800F0D9FA03B05DF804FB507F02085B
S31508003B102DE9F04F97B04D4D09AC2E1D0FCE0FC4B1
S31508003B203368236001AC05F118060FCE0FC496E87A
S31508003B300F0084E80F00464822F06AFE454822F046
S31508003B4067FE01268DF8096000248DF80840424B6F
S31508003B500B9301AB0D93414F09A938461BF0EBFFB8
S31508003B60B5F838B0ADF838B0324604210EA800F0E2
S31508003B7067FAB5F83CA0ADF83CA0224631460FA836
S31508003B8000F05EFAB5F84090ADF840903246042150
S31508003B9010A800F055FAB5F80080ADF84480324612
S31508003BA0042111A800F04CFA2D4D2E4BC5F8F83417
S31508003BB04FF00213C5F8F434A3F58033C5F8FC3486
S31508003BC01C23C5F8E4344FF4487008F053FBFFF79C
S31508003BD083FF142008F04EFBFFF78CFF232008F024
S31508003BE049FBFFF779FFB92138461BF08CFFFFF731
S31508003BF081FFADF848B02246214612A800F020FA07
S31508003C00ADF84CA02246214613A800F019FAADF8E3
S31508003C1050903246214614A800F012FAADF85480A6
S31508003C203246214615A800F00BFA384603F0A6FDE1
S31508003C30C5F8E444C5F8F844C5F8F444C5F8FC44A6
S31508003C40044822F0EAFD17B0BDE8F08F507F02085D
S31508003C501082020814820208E070720000000A50FE
S31508003C6000C003500200030008B50448044A121AAB
S31508003C709210044919F03CFD08BD00BF80010008F8
S31508003C80800300086052002008B5154B83F30A88A4
S31508003C9000F030F8FFF7E8FF124A0AE010685168AA
S31508003CA050F8230041F82300013391688B42F5D37D
S31508003CB00C320D4B9A4201D20023F6E70B4A08E074
S31508003CC01168002041F82300013351688B42F7D36D
S31508003CD00832074B9A4201D20023F6E7FEF7EEFABE
S31508003CE00000002068C6020874C6020874C60208E6
S31508003CF074C6020870B5134B134A9A60D3F8882025
S31508003D0042F47002C3F88820104A4FF48041916645
S31508003D100F4D05F500544FF0FF3222660D4A6266D4
S31508003D200222C3F8D020BFF34F8FBFF36F8F002056
S31508003D3006F07CFF4FF44036E66000201DF01EF9C1
S31508003D402E6170BD00ED00E00000000800900050F4
S31508003D50008000447FFF7F01014B1860704700BF59
S31508003D602456002008B5064B1860064B1B6F03F057
S31508003D700703032B00D008BD21F0CCFCFBE700BFEE
S31508003D802C56002000800050BFF34F8F0549CA68A3
S31508003D9002F4E062044B1343CB60BFF34F8F00BFBE
S31508003DA0FDE700BF00ED00E00400FA05F0B1844627
S31508003DB0F1B110B409E004F120000FE02033C01A75
S31508003DC018D1BCB10CF1010C01319CF800400B4B29
S31508003DD01B5D03F00303012BEDD020460B78074A41
S31508003DE0D25C02F00302012AE9D1E7E70120704715
S31508003DF0012070475DF8044B704700BF2DC50208C7
S31508003E0030B587B00546046823798DF80C30637998
S31508003E108DF80D301B4822F0FBFC0022012103A877
S31508003E2000F00EF90DF10B0103A819F09CFD9DF8A1
S31508003E300B3083F001032370A379022B02D00020F4
S31508003E4007B030BD4FF0FF330593049300950E4B32
S31508003E50002205A903A800F02FFA059BB3F1FF3F3E
S31508003E6007D00095084B012204A903A800F084F99D
S31508003E70E5E70095044B042204A903A800F07CF9A1
S31508003E80DDE700BF10820208EFD7010810B582B03F
S31508003E90002401942A4822F0BBFC8DF80040032335
S31508003EA08DF8013001220421684600F0C9F8254B37
S31508003EB00122C3F8442401A9052022F0A2FC002807
S31508003EC03BD1214BD3F8F02042F00102C3F8F02091
S31508003ED0D3F8FC2042F08072C3F8FC20A3F55D43BA
S31508003EE01A4A1A60019B03F5D52303F2FC43DB0843
S31508003EF0174AA2FB03239B0A013B164A13610223B6
S31508003F00C2F8F0304FF48073C2F804334FF06043C0
S31508003F10114AC3F8B02F114AC3F8802ED3F8002EE1
S31508003F2042F48072C3F8002EFF2283F82020D3F8CB
S31508003F30002E22F48072C3F8002E02B010BD00BF16
S31508003F401082020800D0035000ED00E0FF03004095
S31508003F5017916502000004E055CEACC509000100C2
S31508003F604FF06043D3F8803E13F0010F01D11120C2
S31508003F7070470E4AD2F8FC3043F08073C2F8FC3022
S31508003F804FF06043D3F8002E4FF0010C0CFA00FCFA
S31508003F9042EA0C02C3F8002E53F82030002BE8D072
S31508003FA04FF0604303F820100020704700ED00E052
S31508003FB010B504460FE00123834024EA03040F28C2
S31508003FC014D800EB40020E4B03EB82035A6812B179
S31508003FD09968C0B2904794B1234600201F28EAD8B2
S31508003FE013F0010FE7D101305B08F7E7103800EB53
S31508003FF040039B00B033024A13440433E6E710BD7E
S31508004000F027002008B50D4822F002FC1A2006F019
S31508004010D3FD28B91B2006F0CFFD40B9002008BD06
S315080040201A2006F003FE1A201CF0A8FFF2E71B2050
S3150800403006F0FCFD1B201CF0A1FFEFE7108202082A
S315080040402DE9F04170B30C46174605460F292BD8C3
S3150800405003784BB1022B20D0032B21D0012B01D0A2
S31508004060002303E07F2301E040F2FF736A78D34020
S3150800407013F0010F1AD00F4BD3F81063C6B922F00C
S31508004080C2FA80463A462146284604F015F94046C3
S3150800409022F0B4FA3046BDE8F08140F2FF33E5E796
S315080040A03F23E3E72226F5E72126F3E72126F1E772
S315080040B00226EFE700C0035040B310B50446037864
S315080040C04BB1022B1DD0032B1ED0012B01D0002390
S315080040D003E07F2301E040F2FF736278D34013F0D8
S315080040E0010F15D022F08FFA2378627801219140CA
S315080040F003EB43031B01074AD15022F07FFA002045
S3150800410010BD40F2FF33E8E73F23E6E72220704779
S315080041102120F5E740D0035040B310B50446037894
S315080041204BB1022B1DD0032B1ED0012B01D000232F
S3150800413003E07F2301E040F2FF736278D34013F077
S31508004140010F15D022F05FFA237862780121914099
S3150800415003EB43031B01074AD15022F04FFA002014
S3150800416010BD40F2FF33E8E73F23E6E72220704719
S315080041702120F5E740E00350002866D02DE9F041FC
S315080041800C4615461F460646002960D002784AB1F5
S31508004190022A3ED0032A3FD0012A01D0002303E099
S315080041A07F2301E040F2FF737178CB4013F0010FD3
S315080041B001D1FF2A4DD1022D01D9042D4BD122F070
S315080041C022FA80463378FF2B28D12368B3F1FF3FC4
S315080041D02BD02268B2F1FF3F32D0204B02EB4202CD
S315080041E003EB82025760226802EB420203EB82036A
S315080041F0069A9A603378FF2B05D0226801239340EC
S31508004200174AC2F82434404622F0F8F90020BDE8DF
S31508004210F08140F2FF33C7E73F23C5E72A46216806
S31508004220304604F0B3F82060CFE73378FF2BD0D1BF
S315080042300C4BD3F8241470781BF0A5FD2060C8E752
S31508004240404622F0DBF92D20E1E7222070472220A4
S31508004250DDE72120DBE72120D9E700BFF027002092
S3150800426000D0035000C00350B0F1FF3F1AD038B554
S3150800427004460F2818DC002818DB22F0C4F90123AD
S31508004280A3400B4AC2F82034C2F82434094B04EB85
S31508004290440203EB820200255560956022F0AEF9D0
S315080042A0284638BD212070472120FAE72120F8E763
S315080042B000E00350F0270020002856D02DE9F041F1
S315080042C00C4617461E460546002950D0017849B1C6
S315080042D0022939D003293AD0012901D0002303E065
S315080042E07F2301E040F2FF736A78D34013F0010F91
S315080042F001D1FF293DD122F086F980462B78FF2B84
S3150800430027D12268B2F1FF3F2AD01B4B02EB4202AB
S3150800431003EB8202C2F8B860226802EB420203EBA2
S315080043208203069AC3F8BC202B78FF2B06D0226896
S31508004330103201239340114AC2F82434404622F031
S315080043405DF90020BDE8F08140F2FF33CCE73F235A
S31508004350CAE73A462168284604F0B8F82060D0E74C
S31508004360404622F04BF92D20ECE722207047222008
S31508004370E8E72120E6E700BFF027002000D0035039
S3150800438008B5084BD3F82404D3F82024104000F0CD
S31508004390553020F0502003F50053C3F82004FFF7EA
S315080043A007FE08BD00C0035008B5084BD3F824041F
S315080043B0D3F82024104000F0AA3020F0A02003F5FE
S315080043C00053C3F82004FFF7F3FD08BD00C00350EF
S315080043D070B586B005460368B3F1B64F27D0304AA4
S315080043E0934222D04FF0FF36B3F1B64F21D02C4A74
S315080043F0934252D12B4822F00BFA2B798DF80430D0
S315080044006B798DF80530AB798DF80030EB798DF83E
S31508004410013001220A2101A8FFF712FE01220A2112
S315080044206846FFF70DFE002412E00126DCE70026A9
S31508004430DAE71D48DFE701A8FFF76EFE642007F0FC
S3150800444019FF01A8FFF738FE642007F013FF0134AF
S31508004450092CF0DD154A02EB06110323C1F838359D
S3150800446068792B7943EA0043C1F83C35E979AB7999
S3150800447043EA014354363601935101238DF8083037
S315080044808DF80930EB680493AB6803932B7C8DF8A1
S31508004490143002A9286803F073FC06B070BD00BF8B
S315080044A000800650088202080C82020800C00350E9
S315080044B010B582B004460A4822F0AAF923788DF886
S315080044C0043063788DF80530A278B2FA82F2520980
S315080044D004210DEB0100FFF7B3FD002002B010BD6B
S315080044E010820208F0B585B00C4694469DF8341043
S315080044F0664A1278002A00F0BD800546BCF1070F0F
S3150800450000F2BA800A9A002A00F0B8800B9A002AAC
S3150800451000F0B6800E9AB2F5006F00F3B38001285A
S315080045205BD05B4A02EB0C12127B002A00F0AC80CF
S3150800453000220092019202920392564A02EB4C1E06
S31508004540002C4FD14FEA4C1600209051CEF80400AB
S31508004550CEF80800CEF80C009EF8020040F01000D5
S315080045608EF802009EF8030040F030008EF8030033
S3150800457021B9C1B241F003018EF8031000930E9BD6
S31508004580013B444A4FEA4C1002EB4C11165A63F3AE
S315080045900E1616520A9B8B600B9B4B60CB789DF8C8
S315080045A03C2062F38303CB70012D36D0109B002B81
S315080045B056D0374A4FEA0C1102EB0C13109850509C
S315080045C0119A5A6000249C605D737246694660467B
S315080045D003F04CFC204605B0F0BD0C9A002AA0D189
S315080045E02D48F8E72B4F4FEA4C1607EB4C120020E4
S315080045F0B85150609060D060907840F0100090708C
S31508004600D07840F00300D0700029B7D107EB4C12E0
S31508004610C1B241F03001D170B0E70E460A7B42F0D4
S3150800462001020A73D2B242F002020A73CA6804216E
S3150800463061F39F02F26006F1100796E80F0087E81B
S315080046400F00F2696FF0030161F39F02F2610C9BA0
S315080046507361012CAAD10B9AB2610C9A7260A5E714
S31508004660002DA6D10B4B03EB4C139A786FF304126B
S315080046709A709EE70948AEE70748ACE70648AAE7F6
S315080046800548A8E70448A6E70548A4E7FA51002024
S31508004690582A002058290020018000F0028000F0E6
S315080046A0078000F0134B1B78FBB110B50446F0B138
S315080046B021F0A9FF0023072B13D80F4A02EB031298
S315080046C0127B0AB10133F6E723600B4A190102EBA4
S315080046D0031301241C730024545021F08FFF204635
S315080046E002E021F08BFF054810BD054870470548D4
S315080046F0FAE700BFFA510020582A0020048000F08B
S31508004700028000F0018000F038B521F07CFF0446F5
S315080047100023072B06DC0C4A02EB0312127B12B9A4
S315080047200133F6E7002222B1204621F067FF074849
S3150800473038BD03F047FB0025054B1D70204621F0C8
S315080047405DFF2846F4E700BF582A0020058000F0E0
S31508004750FA5100200F4B1B78BBB110B50446072849
S3150800476015D821F050FF0C4B03EB04131B7B1BB928
S3150800477021F044FF09480BE0074B03EB0413002420
S315080047801C7321F03BFF204602E0054870470548A8
S3150800479010BD00BFFA510020582A0020068000F0FC
S315080047A0028000F0018000F000B583B0134B1B684F
S315080047B0019300238DF8043021F025FF104B1B7858
S315080047C033B90F4B01221A7021F018FF002309E0B4
S315080047D021F014FF0B480EE00B4A02EB03120021EE
S315080047E011730133072BF7DD08238DF8073001A86D
S315080047F003F00CFB002003B05DF804FB947F02086D
S31508004800FA510020038000F0582A002010B5104CF9
S315080048102478BCB1072817DC0E4C04EB0014247B63
S31508004820A4B10C4C4FEA001E04EB001C44F80E30F1
S31508004830029BCCF804300024CCF8084003F016FBA1
S31508004840204610BD0448FCE70448FAE70448F8E7A0
S31508004850FA510020582A0020028000F0018000F05A
S31508004860078000F008B50A4B1B785BB107280BD800
S31508004870084B03EB00131B7B43B1002103F0B8FA86
S31508004880002008BD0448FCE70448FAE70448F8E7AE
S31508004890FA510020582A0020028000F0018000F01A
S315080048A0078000F008B50A4B1B785BB107280BD8C0
S315080048B0084B03EB00131B7B43B1012103F098FA65
S315080048C0002008BD0448FCE70448FAE70448F8E76E
S315080048D0FA510020582A0020028000F0018000F0DA
S315080048E0078000F0F8B5194B1F6D5B6D1F4002D4A9
S315080048F00125002402E0FEE701346D00072C24D8C8
S315080049003D42F9D0124B1D652301124AD358002B9C
S31508004910F2D002EB0416B1680131B1607268204624
S31508004920984780F00100C0B2737B012BE4D10028C0
S31508004930E2D0094B03EB44131A7B6FF341021A7357
S315080049401A7F6FF341021A77D6E7F8BD00000450C4
S3150800495000200450582A0020582900202DE9F04F3D
S3150800496089B005460E4614469846C36B5B69012214
S3150800497007A960689847EB6B5B69012206A9304670
S31508004980984707A81AF097FA48B10027A7756775D8
S315080049904FF0FF33A360384609B0BDE8F08F0746ED
S315080049A006A81AF098FA0123A375237E033304EBAD
S315080049B0C3035E6000221A816368B3422AD0236863
S315080049C0834201D00023A37506A81AF0A9FA237D0D
S315080049D0984201D00023A37506A81AF080FA8146EA
S315080049E007A81AF07CFA814501D00023A37506A80A
S315080049F01AF07DFA814607A81AF079FA814501D09E
S31508004A000023A375237D043BDBB2022B0BD80023BE
S31508004A10A375C0E7206006A81AF082FA20754FF041
S31508004A20FF33A360EEE706A81AF059FA80B1EB6BDC
S31508004A305B69022204A93046984704A81AF062FA6C
S31508004A400346207D032868D8DFE800F0615B070D80
S31508004A5006A81AF057FA0346F3E7237E033304EB56
S31508004A60C303CC221A811AF06BFA129B187094F8B9
S31508004A70189006A81AF026FA09F1030904EBC909E1
S31508004A8089F80A00237E033304EBC303B3F808A0AE
S31508004A9093F80AB006A81AF022FA814606A81AF070
S31508004AA026FA0390B9F1000F3DD0EB6B5B69022241
S31508004AB004A93046984704A81AF0E0F96075637DA2
S31508004AC003B9A375A37DA3B1BAF1000F11D0039B57
S31508004AD0F1186B6C5B4286EA01021A4201D0002388
S31508004AE0A3756B6C5A1E0A409B1A9A4501D9002376
S31508004AF0A375A37D002B40D0BBF1000F18D1E77D2D
S31508004B003CE0227E033204EBC2021381ABE7227E2D
S31508004B10033204EBC2021381A5E7227E033204EBBB
S31508004B20C20213819FE706A81AF091F96075C6E7D5
S31508004B300122E275627EBAB9BBF1010F08D095F879
S31508004B403470DFB9EA6AB2F1FF3F05D01F4615E0B7
S31508004B5001216176174611E0BBF1030F01D01F460C
S31508004B600CE00122A27609E0BBF1010F37D0BBF1B8
S31508004B70030F03D10122A27600E01F4653B117B1F5
S31508004B80BBF1010F06D95346039A3146284619F058
S31508004B90D5FAA060A37D13B1236953442361237E0C
S31508004BA0114A127893421CD201332376B8F1000FCA
S31508004BB013D0A37D8BB1E37D7BB177B9BBF1030F2E
S31508004BC00BD0A168B1F1FF3F07D0129B00930123D8
S31508004BD022462846FFF7C2FEA075A77DDBE61746E4
S31508004BE0CCE70023A375E1E7B87F02082DE9F04F6B
S31508004BF089B005460F4692469B4600238DF80B3032
S31508004C004FF0FF31104600F0EFFFB7F5801F1DD3B8
S31508004C100023009317F1020F07D0009B002B40F0EA
S31508004C209E802B7C002B00F08C80EB6AB3F1FF3F53
S31508004C302CD02A689B1A6A6CB3FBF2F917F10208A2
S31508004C4018BF4FF00108002301935DE00DF10A0239
S31508004C50394605F1080000F017FF0146B0F1FF3F9D
S31508004C6011D0504600F0C0FF0DF10B03012251464A
S31508004C70284619F0E2FA00900028CBD09DF80B30B0
S31508004C808BF80030C6E700230093C3E7696A284615
S31508004C9019F075F98146D1E70123019337E09DF8AC
S31508004CA00B308BF80030324B1A683249504620F0E8
S31508004CB0D1FA00942F4B9968B1F1FF3F1BD06B6C6A
S31508004CC05B4281EA06021A4215D12A4C204600F0B8
S31508004CD08BFF0DF10B0342462146284619F0ADFA23
S31508004CE004460028E6D017F1020FD8D0214B1B68DE
S31508004CF0BB42DFD1D3E74946284619F040F9814639
S31508004D00019BCBB9009BBBB96B6A4B45C4D02C68D9
S31508004D106B6C03FB0944EB6B5B69052203A9204610
S31508004D20984703A81AF0A3F91AF0C8F920461AF00A
S31508004D30D1F906460146BFE7009BA3B1B7F5801F28
S31508004D4003D3009B8BB100200AE09BF80030DAF809
S31508004D500420394605F1080000F0B4FEF1E700200A
S31508004D6009B0BDE8F08F2D20FAE72D20F8E700BF3F
S31508004D70B47F02084C31002070B582B004464FF06B
S31508004D80FF33C3620DF107031A4A6FF00101FFF7FB
S31508004D902DFF20BB174B9B68E362E56A2946204630
S31508004DA018F0DEFE2063E8B12946204619F0B6F968
S31508004DB00546A36AAB421BD02946204618F0D0FE0A
S31508004DC00646236B034423632946204619F0A6F9B1
S31508004DD00546002EEDD100232363E062E9E7A36AC6
S31508004DE0E362DAE7E16A204619F098F9E062DBE760
S31508004DF002B070BD7831002030B583B01C46032A56
S31508004E0014BF002201221B7E9A4202D0012003B061
S31508004E1030BD0D46096823689942F7D363689942FD
S31508004E20F4D80DF10703114AFFF7E0FE0028EDD18B
S31508004E300E4B5A686B689A42E8D19DF80730032BE7
S31508004E4014BF00230123227E9342DFD16369013315
S31508004E5063612369E2689342D8D2A268296842F856
S31508004E602310236901332361D0E700BF783100207E
S31508004E702DE9F04182B004460E4690461F46816AE7
S31508004E8006E01A4B9968B1F1FF3F1FD0012E23D0D7
S31508004E90E06A884217D0B1F1FF3F14D0134D284677
S31508004EA000F0A2FE0DF1070301222946204619F05B
S31508004EB0C4F90028E5D03B469DF807202946204638
S31508004EC0C0470028DDD102B0BDE8F0815968204608
S31508004ED019F024F90146D9E7044B5A68636C5B421A
S31508004EE04A401A42D4D04FF0FF31D1E72031002092
S31508004EF010B50446083000F08DFD0023024A194615
S31508004F002046FFF7B5FF10BD29E2010838B504466B
S31508004F10037C0BBB02461349083000F01DFE616A8C
S31508004F20204619F04EF8421C616A204618F09FFF89
S31508004F30054620B9236B626C1344143B2363A16AAC
S31508004F40204619F0EBF8A0622368C01A636CB0FB20
S31508004F50F3F06062284638BD0023034A0121FFF7B3
S31508004F6087FFDCE7C1E501088FE50108F0B589B0E0
S31508004F7080B30F4616461D46044690F834301BB9D2
S31508004F800025284609B0F0BD012118F045FF019516
S31508004F900E9B0293039704960023059306939DF8A8
S31508004FA03C308DF81C30237C5BB901AA0A4904F110
S31508004FB0080000F0D1FD5EB9069D204619F0CEF92D
S31508004FC0DFE701AB054A00212046FFF751FFF2E76C
S31508004FD0059DF2E70025D4E7DDDD0108F94D000857
S31508004FE0F0B58BB004460D46406AE36B5B69052253
S31508004FF005A92668676C07FB0060984705A81AF09C
S3150800500036F8012836D00094002301938DF808500D
S31508005010039301238DF81030A16AE36A99420FD0F1
S31508005020237CBBB96A46144904F1080000F094FDD4
S31508005030019B13B99DF810309BB901980BB0F0BDD0
S31508005040204619F06BF8E062236B626C9B1A1433E6
S315080050502363EDE76B46094A01212046FFF708FF5F
S31508005060E6E7626A2368616C01FB0231E06B19F0BE
S31508005070B0FFE2E70020E1E7855200080552000884
S315080050802DE9F04F89B004468A4691461D4600230D
S3150800509007930969026BCB1D406C1438B3FBF0F318
S315080050A0013301EBC301914200F2A7804E4677E037
S315080050B03D2840F092800490BB4605961EE04FF0CE
S315080050C000092368616C01FB0631E06B19F06DFF7E
S315080050D0204618F0ABFE204619F047F82063B9F1D0
S315080050E0000F76D0DAF81020D31D616C1439B3FBA3
S315080050F0F1F3013302EBC30290423AD32368ABEBD8
S315080051000309606CB9FBF0F909FB003019F0E2FFFE
S315080051108046E16A204619F001F8A36A83422CD03A
S31508005120E062374B9A68616C4B1E1340226B5B1A20
S3150800513013442363ABEB08072368079EF61AB6FBEE
S31508005140F1F6B145BBD197B1E36B9B69BA08414605
S3150800515098478146E36A3B44E362236BA8EB0B0856
S315080051604344236304F1080000F054FCA9E7B94658
S31508005170A7E7DDF810B0059E02E0DDF810B0059E41
S31508005180BBF1000F29D0DAF81000226BC31D616C41
S315080051901439B3FBF1F3013300EBC30082421CD38D
S315080051A0E76ADFF85C803946404600F01DFD07AB2C
S315080051B00293019500963B4642465146204619F011
S315080051C0F8FA834600287FF473AFD8F80830E3620C
S315080051D0D6E7DDF810B0059ED2E75F461FB1384620
S315080051E009B0BDE8F08F2B46054A5268DAF8001078
S315080051F004F1080000F066FCF1E71C27EFE700BFA2
S315080052004C310020F0B583B01C46032A05D1237A19
S31508005210012B33D0012003B0F0BD06460F461546D4
S315080052200DF10703164A0968FFF7E0FC60600028DD
S31508005230EDD19DF80730032BE9D0114B5A687B68EE
S315080052409A42E4D1237A012B08D13B69E2681344D8
S315080052507269934202D900232374D8E7E3683A694E
S3150800526013440833E3602B46012239463046FFF7DC
S3150800527007FF60600028CAD00020CCE7207CCAE778
S3150800528078310020F0B583B0089C2668032A05D13A
S31508005290237A012B4DD0012003B0F0BD15460DF140
S315080052A00703254A3046FFF7A1FC60600028EFD1C6
S315080052B02168214B5A688B6A486CC0F1000C5A4029
S315080052C012EA0C0FE4D1227A012A19D00F68DB1BE7
S315080052D0B3FBF0F3CA6AD21BB2FBF0F29A4219D0BA
S315080052E0E36815490A6913440833E3602B4601222B
S315080052F02068FFF7C5FE60600028C9D00020CBE70C
S315080053000D4A1269E7683A447769BA42DED900233A
S315080053102374BDE7726CF16A531E0B40316B9B1AFE
S315080053200B4433632668B16A304618F0F7FEF0621C
S31508005330D6E7207CB0E700BF78310020F8B56E4B81
S315080053401E6800221A60002800F0B6800D46044642
S3150800535090F8343013B30A6803689A4240F0AE8076
S315080053604A6843689A4240F0AC808A6883689A42E1
S3150800537040F0A980CA68C3689A4240F0A6800A69C4
S3150800538043699A4240F0A3808A69C36B9A4201D066
S315080053905D2594E04B698361002590E0876B682260
S315080053A000211FF030FFA7632B6823606B686360DA
S315080053B02B6963616B69A361EA68A96804F108004F
S315080053C000F03AFBAB69E3639B6804F14000984739
S315080053D030B9636C23B16268B2FBF3F2E26101E0B3
S315080053E00023E36194F84330002B72D00023236630
S315080053F0656C002D6FD0E369002B6ED02368B3FB74
S31508005400F5F205FB1233002B69D16768B7FBF5F394
S3150800541005FB1373002B64D1204618F091FBA36992
S31508005420034404339F425ED36369B3F5805F5CD857
S31508005430CB2B5CD9B5F5805F5BD30321204618F0EA
S31508005440EBFCE36B1B686168206898470546E36BCD
S31508005450DB6802209847EDB1636C143B5DB9266A98
S3150800546003FB06F6204618F06BFBA36903440433D6
S315080054709E4200D25A25B5FA85F35B0984F8343082
S315080054801BB11E4A13680133136085B1204618F014
S3150800549065FF14E03146204618F0E3FE0546642809
S315080054A0DAD13146204618F0DCFE0546D4E76168B5
S315080054B0206819F06FFCE9E7212500E05D252846FC
S315080054C0F8BD5D25FBE75D25F9E75D25F7E75D2571
S315080054D0F5E72125F3E75B25F1E75B25EFE7592596
S315080054E0EDE75925EBE75A25E9E75F25E7E75F2565
S315080054F0E5E75B25E3E700BFDC2A0020D82A002081
S31508005500F0B585B0A8B30C4617461E46054690F872
