S0160000476174655F4C525F436F6E6E6563742E73333737
S3150800000000200020F5420008D7DF0108D7DF0108E5
S31508000010D5280208D7DF0108D7DF0108D7DF01088E
S31508000020D7DF0108D7DF0108D7DF0108D7DF0108C6
S31508000030D7DF0108D7DF0108D7DF0108D7DF0108B6
S31508000040D7DF0108D7DF0108D7DF0108D7DF0108A6
S31508000050D56C0008D7DF0108D7DF0108D7DF01080C
S31508000060D7DF0108D7DF0108D7DF0108BD3D000843
S31508000070AD3D0008D7DF0108D7DF0108D7DF010843
S31508000080D7DF0108D7DF0108D7DF0108D7DF010866
S31508000090D7DF0108D7DF0108514F0008D7DF01086D
S315080000A0D7DF0108D7DF0108154A0008ED4900081F
S315080000B0D7DF0108D7DF0108A1B301084DBE010843
S315080000C0EF590208EB59020801B60108055A020859
S315080000D0F35902081DBE0108F7590208B1BE010806
S315080000E0E9BE0108D7DF0108D7DF010835CE0008C9
S315080000F0D7DF0108D7DF0108D7DF0108D7DF0108F6
S31508000100D7DF0108D7DF0108D7DF0108D7DF0108E5
S31508000110D7DF0108D7DF0108D7DF0108D7DF0108D5
S31508000120D7DF0108D7DF0108D7DF0108D7DF0108C5
S31508000130D7DF0108D7DF0108D7DF0108D7DF0108B5
S31508000140D7DF0108D7DF0108D7DF0108D7DF0108A5
S31508000150D7DF0108D7DF01080B7502088D9801085B
S31508000160D7DF0108D7DF0108895902088F59020825
S31508000180194A5AB3194BDB6913F0040F29D110B475
S315080001900AE003EA00048C4210D0013AB2B1134BCC
S315080001A0DB6913F0040F14D110F0010FF1D1104CD4
S315080001B01C40002CEDD06FF001000CE00C4A1A40F0
S315080001C00AB9002007E06FF0010004E06FF00200B2
S315080001D001E04FF0FF305DF8044B70476FF0020006
S315080001E070474FF0FF307047809698000000035024
S315080001F0020001000D4BDB6913F4803F12D170B584
S315080002000A4B03F580560124F46003F500552C6467
S315080002104FF480721A6100212046FFF7B1FF34645B
S31508000220EC6070BD6FF00100704700BF000003501E
S3150800023010B5124B4FF480329A6603F51C33DC690D
S31508000240144041F67132DA6303F580520121D16018
S31508000250586102221A6100212120FFF791FF40B15F
S31508000260074B0122DA601CB1A3F500530022DA63BA
S3150800027010BD00212120FFF783FFF1E70090005011
S315080002800020035038B51A4B5861DB6913F0040F88
S315080002902AD10C4654F8041B154B9961151F06E024
S315080002A0214651F8042B124B9A61043D0C465DB168
S315080002B008210846FFF764FF03460028F0D00C4AD9
S315080002C004211161184638BD094B04221A61002120
S315080002D02120FFF755FF03460028F3D100212120EE
S315080002E0FFF74EFF0346EDE74FF0FF33EAE700BF9F
S315080002F0000003502DE9F0410F46164605461A4BF5
S315080003004FF480329A6603F51C33DA6902F48038B2
S3150800031041F67132DA6303F580530122DA6000236D
S3150800032002E025442744361B8EB105F5005424F413
S31508000330FF5424F01F04641BB44228BF34462246E7
S3150800034039462846FFF79EFF03460028E9D0074AA4
S315080003500121D160B8F1000F03D0A2F500520021A7
S31508000360D1631846BDE8F081009000500020035084
S31508000370000000000000000000000000000000006F
S31508000380013800D0FCE770472DE9F04F2DED028BC0
S3150800039093B082460C4693461D4657EC106B8DED7E
S315080003A0080B32463B46304639461CF071FA00289F
S315080003B000F009814FF0FF32B14B304639461CF048
S315080003C08FFA002840F0FF804FF0FF326FF4801359
S315080003D0304639461CF066FA002840F0F4800022C0
S315080003E00023DDE90867304639461CF05BFA002829
S315080003F040F0FC809DED087B8DED067B209B13F479
S315080004008063119301D106231E93DDE90601024696
S31508000410C1F30A50C1F31303904643F07F5949F4D8
S315080004204019A0F2FF301BF061FF83A3D3E9002334
S315080004301BF0C6FF82A3D3E900231BF00BFE06467A
S315080004400F4600228F4B404649461BF001FE7EA30D
S31508000450D3E900231BF0B4FF02460B463046394663
S315080004601BF0F8FD1CF046FA06461BF03FFF8046D7
S31508000470894677A3D3E900231BF0A2FF0022824B0B
S315080004801BF0E8FD1CF036FA074673A3D3E90023F0
S31508000490404649461BF094FF8046894638461BF07D
S315080004A025FF6FA3D3E900231BF08AFF02460B46FC
S315080004B0404649461BF0CCFD8046894602460B4617
S315080004C01BF07EFFCDE90C0107F2FF370021002261
S315080004D0CDE90A123B050B9300230A9342464B4685
S315080004E0404649461BF0B6FDCDE90E0142464B464D
S315080004F000204FF080411BF0ABFD80468946002264
S31508000500624BDDE90C011CF085F80022604B1BF0FC
S31508000510A1FD02460B46DDE90C011CF07BF8002222
S315080005205C4B1BF097FD02460B46DDE90C011CF0FF
S3150800053071F802460B46404649461BF08BFD0246BB
S315080005400B46DDE90E011CF065F80022524B1BF044
S3150800055081FDDDE90A231BF033FF8046894649EC15
S31508000560188BDDE906231CF0BBF940B1013E0022D9
S31508000570474B404649461CF04DF841EC180B06F12E
S315080005806303C62B3BD80427209B13F4006F40D087
S3150800059035A3D3E90023DDE90689404649461CF020
S315080005A095F900283BD032A3D3E9002340464946B3
S315080005B01CF078F9002832D01E9BB34221DD9E1B21
S315080005C0731E1E931FE0209B02931F9B01931E9B85
S315080005D000939DED080B2B465A462146504600F0DF
S315080005E0CBF813B0BDEC028BBDE8F08F9FED227BF4
S315080005F08DED067B069607F100430793FEE6052771
S31508000600C2E700231E93209B43F4806320930027B0
S315080006103E461F9B9F4241D2A3EB070840E01E9B24
S31508000620002BF6D0119B002BF3D01E9B013B1E938B
S31508000630EFE700BFAFF30080FB799F501344D33F29
S31508000640B3C8608B288AC63F61436F63A787D23FCA
S3150800065071A379094F930A401655B5BBB16B024091
S31508000660EF39FAFE422EE63F2D431CEBE2361A3FDF
S315080006700000000080842E410000000000000000F9
S31508000680FFFFEF7F0000F83F0000E03F00002C402E
S3150800069000002440000018400000F03F4FF000081A
S315080006A0209B13F0020902D00FB14FF000083EB1AB
S315080006B053EC182BDDE906011BF0ACFFCDE906016A
S315080006C000220023DDE908011CF0ECF800283BD1E4
S315080006D0209B23F400630293CDF804801E9B0093AD
S315080006E09DED060B2B465A462146504600F044F827
S315080006F0002F3FF476AF209B13F0200F2CD04FF03D
S31508000700450C00F101082B46024621466046D047B3
S3150800071086EAE672A2EBE67205230593013F049783
S31508000720002303930A230293F30F019300922B46A7
S3150800073042462146504623F04EFDB9F1000F3FF4DC
S3150800074050AF02461F9F10E0DDE90601024601F19F
S315080007500043CDE90623BBE74FF0650CD1E7561CED
S315080007602B4621462020D0473246A2EB0B03BB423C
S31508000770F5D3104635E700BF2DE9F04F2DED028B76
S3150800078093B00590089192469B4659EC108B1E9D96
S3150800079042464B46404649461CF07AF8002840D067
S315080007A04FF0FF326FF48013404649461CF07AF842
S315080007B0002845D14FF0FF32B14B404649461CF060
S315080007C08FF800284BD1AAA3D3E90023404649460F
S315080007D01CF086F800285AD1A7A3D3E9002340467F
S315080007E049461CF05FF8002851D1002200234046F4
S315080007F049461CF057F8002857D100230993209B37
S3150800080013F4806F5CD000241F2C5BD8092D59D9AE
S3150800081004F148036B44302203F8202C013D0134CF
S31508000820F2E7209B03931F9B029303230193954BA7
S3150800083000935B4652460899059823F0F2FB10E1AF
S31508000840209B03931F9B0293042301938E4B0093D3
S315080008505B4652460899059823F0E3FB01E1209B85
S3150800086013F004030FD0894A7BB10423209903911E
S315080008701F990291019300925B4652460899059882
S3150800088023F0CFFBEDE0824AEEE70323EEE7209B59
S3150800089002931F9B0193009549EC108B5B465246C9
S315080008A008990598FFF770FDDBE042464B460020A5
S315080008B000211BF0CDFB80468946012309939EE75C
S315080008C00625A0E7404649461CF014F806461BF0E4
S315080008D00DFD02460B46404649461BF0B9FB6D4BDB
S315080008E003EBC50393ED008B53EC182B1BF068FD47
S315080008F002460B46CDE906231CF024F807461BF0F2
S31508000900E5FC02460B46DDE906011BF0A1FB0246A3
S315080009100B46CDE9062300225F4B1BF0E1FF50B3DF
S31508000920013738461BF0D2FC02460B4651EC180B31
S315080009301BF0C2FF08B10136002755BB30461BF035
S31508000940D5FC02460B46404649461BF081FB8046CD
S3150800095089460022504B1BF0A5FF38B100224E4BAA
S31508000960404649461BF0BCFF002842D016F0010F4E
S315080009703FD001363DE00022474BDDE906011BF07A
S3150800098091FF0028D9D117B117F0010FD5D001373B
S31508000990D3E71F2C17D8013D404BA3FB0723DB08E1
S315080009A0194603EB8303A7EB4303621C303304F1B8
S315080009B048000DEB000404F8203C092F02D90F4625
S315080009C01446E6E714461F2C0AD86B1E45B104F1F7
S315080009D048026A44302102F8201C1D460134F2E719
S315080009E01F2C06D804F148036B442E2203F8202C4A
S315080009F001341F2C17D82A4A82FB0632F317C3EB99
S31508000A00A2031A4603EB8303A6EB4303611C3033A8
S31508000A1004F148000DEB000404F8203C16460AB120
S31508000A200C46E6E70C46209B03F00303012B39D05E
S31508000A301F2C09D8099B002B51D004F148036B449D
S31508000A402D2203F8202C0134209B03931F9B02932D
S31508000A5001940AAB00935B4652460899059823F021
S31508000A60E0FA13B0BDEC028BBDE8F08FAFF300805F
S31508000A700000000065CDCD410000000065CDCDC168
S31508000A80FFFFEF7F749002087890020868900208CA
S31508000A9070900208809002080000E03FCDCCCCCCD4
S31508000AA0676666661F9BB3B1099B1BB9209B13F04B
S31508000AB00C0F12D01F9B013B1F93194606E004F149
S31508000AC048036B44302203F8202C01348C42AFD201
S31508000AD01F2CF4D9ACE71F99F8E71F99F6E7209B76
S31508000AE013F0040F07D004F148036B442B2203F8D4
S31508000AF0202C0134A8E7209B13F0080FA4D004F19A
S31508000B0048036B44202203F8202C01349CE700BFDD
S31508000B1038B50D46044626F002FA064A13889BB2F3
S31508000B202DB123431380BDE8384026F0F3B923EAF4
S31508000B300403F7E7A44B00200022034B01214FF4DE
S31508000B4080709A70E4E700BFA44B00207FB54E681A
S31508000B5002A9044624F0D9F99DF808300C2B19D1BE
S31508000B60134BB3F90050134B9E4218D808F0C4F93A
S31508000B7003460068694600909B882046ADF8043015
S31508000B8024F0B0F970B140F25F620B490B480EF0E1
S31508000B905FF9FEE7204613F05DFF0546E3E71FF021
S31508000BA0C3FDE5E72946204624F082F904B070BD66
S31508000BB076510020FFC99A3B29930208F49002084F
S31508000BC0002330B5134C85B0CDE901330393237860
S31508000BD08DF8043026F0A3F9A288E38805469A42E0
S31508000BE00DD0E188A06801AAA18024F017F858B1B1
S31508000BF040F2DA62084909480EF02AF9FEE7A068C9
S31508000C0023F0E5FF0128ECD0284626F083F905B045
S31508000C1030BD00BFDC56002029930208F490020874
S31508000C2038B50F4C656835B940F2C7720D490E489C
S31508000C300EF00EF9FEE723F0A3FB284411F058F84E
S31508000C4000F00700032809D164680921204623F02B
S31508000C50B3FC205C031F5842584138BD0020FCE70E
S31508000C60A44B002029930208F490020808B5114BFA
S31508000C709A78042A06D040F28E520F490F480EF091
S31508000C80E7F8FEE71B881B0706D440F28F520A498D
S31508000C900A480EF0DDF8FEE700210820FFF738FFC6
S31508000CA00222074B98681A7313F08EFCBDE80840B9
S31508000CB021F06ABFA44B002029930208F490020889
S31508000CC0DC56002010B5084CA06813F07DFCA0681F
S31508000CD023F07DFF012806D00122A0681146BDE851
S31508000CE0104023F076BF10BDDC56002038B5194DEC
S31508000CF0AB7833B140F22B72174918480EF0A8F8B2
S31508000D00FEE726F00CF92988044611F0060109D0F9
S31508000D1001214FF48070FFF7FBFE2046BDE83840FE
S31508000D2026F0F8B84FF48070FFF7F2FE12F09EFD39
S31508000D30012805D010F0FD0F05D1FFF741FFECE7BC
S31508000D40FFF7C0FFE9E740F24172034903480EF096
S31508000D507FF8FEE7A44B002029930208F4900208C6
S31508000D6070B50446064D95F90860FFF7BFFF12F007
S31508000D707BFC314620466A68BDE8704012F0ACBA82
S31508000D80A44B002008B50A4B1B88DB0606D440F2A4
S31508000D90A752084908480EF05BF8FEE70021102024
S31508000DA0FFF7B6FE12F0DEFDBDE8084021F0ECBE06
S31508000DB0A44B002029930208F49002080D4B10B5A5
S31508000DC01B8804469B0713D500210220FFF7A0FEC7
S31508000DD0094B5A7BFF2A06D040F2E54207490848E4
S31508000DE00EF036F8FEE75C73BDE8104021F0CCBE85
S31508000DF010BD00BFA44B0020DC5600202993020832
S31508000E00F49002087047704707B5ADF8061001461A
S31508000E1030B94FF4B572104910480EF019F8FEE7CC
S31508000E20BDF8063033B940F26B120B490B480EF089
S31508000E300FF8FEE70A4B0DF10602986824F01CF934
S31508000E4030B140F26D12044904480EF001F8FEE78D
S31508000E5003B05DF804FB00BF29930208F49002086A
S31508000E60DC56002010B50E4CA37833B14FF4EA7265
S31508000E700C490D480DF0ECFFFEE7606019B1A17B47
S31508000E80003918BF01212020FFF742FE074B08480A
S31508000E909B7B23760223A370BDE8104010F0F4BDB7
S31508000EA0A44B002029930208F4900208DC5600207F
S31508000EB0C04B002008B50CF05BFA80F00100C0B208
S31508000EC008BD0A4B9A780AB1062A0CD11B8803F486
S31508000ED08B7343B9064B5A7BFF2A04D1187BFF381C
S31508000EE018BF012070470120704700BFA44B00209F
S31508000EF0DC56002008B50CF02BFA0028FBD108BDFB
S31508000F000C4B42889A8142789A730278DA738288FF
S31508000F101A82C2885A82C2685A61017A064A91734D
S31508000F20028A998C914204D001214FF400709A8468
S31508000F30EEE57047A44B0020DC560020094B9A8941
S31508000F4042809A7B4270DA7B02701A8A82805A8AB9
S31508000F50C2805A699B8CC260034A0382927B0272E2
S31508000F60704700BFA44B0020DC5600204B1E012B07
S31508000F7070B50C4606D940F2B7221A491A480DF040
S31508000F8067FFFEE7194D0A460146A86824F09EF851
S31508000F9030B140F2B922134913480DF059FFFEE764
S31508000FA0AE6810F0E5FC22460146304624F088F883
S31508000FB030B140F2BD220B490B480DF049FFFEE760
S31508000FC0AD6810F0E1FC22460146284624F084F874
S31508000FD030B140F2C122034903480DF039FFFEE75C
S31508000FE070BD00BF29930208F4900208DC56002061
S31508000FF0054BDB7B1B0913F00E0003D0052B8CBFBA
S3150800100000200120704700BFDC560020044BDB7B24
S315080010101B0913F00E0F0CBF01200020704700BFFC
S31508001020DC5600202DE9F04F15469A0580461F46E6
S315080010308FB003D501218020FFF76AFDEB014FF041
S31508001040000955D5984C23889E0751D5974E737B32
S31508001050FF2B06D040F2AF42954996480DF0F8FEB0
S31508001060FEE7636833B94FF49662914991480DF0EB
S31508001070EFFEFEE749460220FFF74AFDA37886F809
S315080010800D90042B03D101210820FFF741FD002311
S31508001090B06808A98DF82C3023F039FF30B140F23A
S315080010A0BA42834983480DF0D3FEFEE7FFF7A0FF57
S315080010B0B0B923F065F98146606823F06CF908A990
S315080010C08144B068ADF8249023F024FF30B140F293
S315080010D0C242774977480DF0BBFEFEE7089BA3623C
S315080010E0A378032B02D1B06813F06EFA21F04CFDF9
S315080010F0B80702D50120FFF761FE15F0A84F02D008
S315080011000220FFF75BFEA90220D50021402003AC90
S31508001110FFF7FEFC2146404623F0F6FFB0B99DF8DE
S31508001120143008AA022B22D18DF82830BDF80C30CD
S31508001130ADF82030104612F0A1FA38B1404623F037
S31508001140E1FF18B901214020FFF7E2FC2A0753D531
S31508001150564E0321B06803AA23F090FF814688B94A
S3150800116040F2FE42524953480DF072FEFEE7032B49
S3150800117005BF8DF82830D4E900018DF82800C2E9AA
S315080011800001D7E79DF80C30B068072B40F01F81A7
S31508001190494608AA23F074FF30B140F20152444987
S315080011A044480DF055FEFEE7FFF722FFBDF80E2076
S315080011B0A0B9FFF72BFF78B1043292B2B06808A93C
S315080011C0ADF8242023F05EFF40B140F212523849B0
S315080011D038480DF03DFEFEE70232EEE7BDF80E0098
S315080011E00121073080B225F0CBFD8246002842D186
S315080011F001210C2013F07CF9A90705D52A4B1B8879
S315080012001A0701D5FFF732FDAB010BD500210420E3
S31508001210FFF77EFC244B9B78012B03D1234B986860
S3150800122013F0D2F915F0284F03D000210420FFF758
S315080012306FFC7E060CD51C4C23881D0701D5FFF7CD
S3150800124015FD2388580703D500210420FFF760FC05
S31508001250F90540F1D88003A9404608AA23F0B5FC51
S315080012600146002800F0BA8040F2D25210491148CF
S315080012700DF0EEFDFEE74FF0000B25F005FDCDF86D
S3150800128000B00246BDF80E3004464946B06823F061
S31508001290FDFEBDF80E3083420ED040F222520449BC
S315080012A004480DF0D5FDFEE7A44B0020DC560020CF
S315080012B029930208F490020823F062F8204410F0FB
S315080012C017FD00F007000228DFF8589124D199F895
S315080012D00230042B90D123F053F8504B20448278E7
S315080012E01B789A4288D159460820FFF711FC23F04B
S315080012F047F8204410F0FCFC9DF82E30C0F300108F
S31508001300307389F80830FFF78BFC00287FF474AF38
S31508001310B06813F059F96FE723F032F8204410F05B
S31508001320E7FC83064AD523F02BF8204410F0E0FCAE
S3150800133000F0070003280BD10921204623F03CF9C9
S3150800134014F800B0ABF1040CDCF1000B4BEB0C0B02
S3150800135001210420FFF7DCFBB06823F0AAFEC9F8D8
S315080013602C00BBF1000F30D0B9F8003058062CD548
S3150800137000214020FFF7CCFB0126BDF80E309DF872
S315080013802E200120E254BDF80E309DF82F2023446C
S315080013909A71BDF80E10089A0131214410F0B6FC76
S315080013A0BDF80E3050461C44667125F041FD1C4BB5
S315080013B0187810F06FFC21F0E7FB1DE799F802306A
S315080013C0012B02D1B06813F0FFF80026D5E723F009
S315080013D039FE4946B06823F057FE0DE79DF80C30F4
S315080013E003F0BF02032A01D0022B0FD10D4C23882C
S315080013F05A0702D50420FFF78BFB23889B0702D5E3
S315080014000120FFF7DBFC0FB0BDE8F08F4FF4BF6299
S31508001410054906480DF01CFDFEE700BF114C0020EB
S31508001420344B0020A44B002029930208F4900208AC
S3150800143008B50246FFF7DCFD30B1072A06D80020BA
S31508001440034B83F8302008BD7020FCE70220FAE73A
S31508001450A44B002008B50246FFF7CAFD28B10020B4
S31508001460034B93F83030137008BD7020FCE700BFBB
S31508001470A44B002008B5074B01460022986823F0C4
S3150800148025FE30B140F2EB22034904480DF0E0FC9A
S31508001490FEE708BDDC56002029930208F4900208EE
S315080014A008B5074B01460022986823F009FE30B1BB
S315080014B040F2F122034904480DF0CAFCFEE708BDD4
S315080014C0DC56002029930208F490020808B5074B59
S315080014D00146986823F006FE30B140F2F722044927
S315080014E004480DF0B5FCFEE708BD00BFDC56002039
S315080014F029930208F490020808B5074B9B7833B184
S3150800150040F20132054906480DF0A2FCFEE7BDE8A7
S315080015100840FFF7EBBB00BFA44B00202993020845
S31508001520F490020808B5054B0146986823F0C0FCFC
S31508001530002814BF8B20002008BD00BFDC56002001
S31508001540014B986813F086BADC560020014BD88800
S31508001550704700BFDC5600207FB50123ADF80E307A
S315080015604FF6FE7309480093806800230DF10E02BA
S3150800157004A923F02AFC212800D020B9BDF81000C0
S3150800158007B05DF804FB4FF6FF70F9E7DC5600205C
S3150800159008B5044B0146986823F0CBFBB0FA80F0F7
S315080015A0400908BDDC56002038B50B4D0446AB781B
S315080015B0012B0DD8FFF7ECFF60B1084BDC80AB7848
S315080015C01BB9FFF793FB002038BDFFF7F9FAFAE7D6
S315080015D03E20F9E78A20F7E7A44B0020DC560020D6
S315080015E0024B9B780BB9FFF781BB7047A44B0020D1
S315080015F0014BD873704700BFA44B002008B5064BB3
S315080016004FF0FF31986823F00DFB0028B8BF033070
S3150800161040F3870008BD00BFDC56002008B5044B20
S31508001620986823F082FB034BB3FBF0F080B208BD49
S31508001630DC56002040420F0030B58DB02C220446FF
S31508001640002101A824F06BFA01234FF002328DF82D
S3150800165008306423CDE9032306930B238DF82C3039
S31508001660214B9B8CADF80A30FFF7C2FCA8B140F2BB
S31508001670F23307934FF47A7305930CB9FFF722FBFD
S315080016801A4D01A9A86813F0B9FAC0B140F2AC62C4
S31508001690174918480DF0DCFBFEE7FFF7BFFF0C23E0
S315080016A04343902B0793A3F10A02D8BF91230592CF
S315080016B0D8BF0793059B8B2BDFD88C23DCE7FFF776
S315080016C0A5FC60B10122A868114623F019FD30B1C6
S315080016D040F2AF62064907480DF0BAFBFEE70CB9BF
S315080016E0FFF704FB0DB030BDA44B0020DC560020EC
S315080016F029930208F4900208F8B525F010FC554C19
S3150800170006462388D90503D5A37843BBFFF7EEFA27
S31508001710514D6B7BFF2B13D06B7B03F0FF0723BB6D
S31508001720FF236B73A378032B0AD100233046A370DB
S3150800173025F0F0FB3846FFF713FB25F0F0FB0646CD
S31508001740A378042B08D12B7BFF2B05D02B7B022BF0
S3150800175014D1424810F098F9FF232B7327E0002193
S315080017604FF48070FFF7D4F9D2E76B7B012B4FF06B
S31508001770FF0314BF89278D276B73D6E72B7B13B11D
S315080017802B7B012B1ED1FFF74BFA0022FF212B7B67
S315080017900746DBB222772973002847D0012B0AD1E6
S315080017A064212E48A37010F07AF9FFF709FA30463B
S315080017B025F0B0FB06E03046A27025F0ABFB3120E1
S315080017C0FFF7CEFA23881A0608D500218020FFF7EE
S315080017D09FF9A86823F0D7FB12F0A5F823889B0584
S315080017E007D54FF400700021FFF792F90020FFF7A4
S315080017F023FF0BF0ADFD608620B325F045FA0121E5
S315080018000546002012F074FEA678012E14D1002693
S315080018102677A670FFF76AFA284611F07FFCA378A8
S3150800182066867BB9BDE8F84011F01EBFA070304649
S3150800183025F070FB3846C3E72EB1284611F06EFC3A
S3150800184000236386F8BDFFF751FA284611F066FCB7
S315080018506686F7E7A44B0020DC560020C04B002024
S315080018608B4BF0B51B888B4C8B4D63848B4B85B0AB
S315080018701B68E3628A4B1B8823848A4B1B68A36216
S315080018802B88DB0700F1FC8001210846FFF740F9A9
S315080018900523854A04F1100104F10800AB7012F023
S315080018A055FE28B1F522814981480DF0D1FAFEE7A7
S315080018B0A3682BB9F7227D497D480DF0C9FAFEE7E2
S315080018C07C4823F0CAF970A3D3E90023CDE90023A5
S315080018D04FF0FF324FF0FF33A06823F06DFA4FF454
S315080018E08811A06813F02EF9014630B140F20F12A4
S315080018F06E496F480DF0ACFAFEE76F4B1B78012B6B
S315080019000ED16E4AA06812F0EFFEA06813F0A4F993
S31508001910E0B140F21B12654965480DF099FAFEE7F9
S31508001920674E316831B94FF48F72604960480DF0DF
S315080019308FFAFEE7614AA06812F0D6FE33689B6804
S3150800194023B1DB6913B15B7803B1E373FFF704FED8
S315080019500146E080A06813F043F8064630B140F22D
S315080019602D12524952480DF073FAFEE7554B0120E5
S315080019701B78C3EB431203EB8203DB00AB84FFF750
S315080019805BFEA76810F000F832460146384623F099
S31508001990A3FB064630B140F23312444944480DF0E1
S315080019A057FAFEE740F203530427AB81464BAF7361
S315080019B01B78EB73FFF732FE00EB80039B002B824C
S315080019C0FFF72CFEC00068823946A0686E6123F0D6
S315080019D09BF930B14FF4A172344935480DF038FA05
S315080019E0FEE73A46A06803A923F021FA042806D0A0
S315080019F04FF4A3722D492E480DF02AFAFEE703A9E3
S31508001A00012010F091F90BF029FA08224FF0FF3166
S31508001A10A06823F0E2F930B140F24F122349244876
S31508001A200DF016FAFEE713F097FA30B140F25512A8
S31508001A301E491F480DF00CFAFEE7FFF7D9FA68B100
S31508001A401EF074FE0146A06823F04CFA30B140F24D
S31508001A505912164916480DF0FBF9FEE7A468FFF778
S31508001A607BFD1A4B014603F10C02204623F0D8F8F9
S31508001A7030B14FF4B0720D490D480DF0E9F9FEE7A3
S31508001A8005B0F0BDAFF300800A0020FF4203000056
S31508001A9020960208DC560020A44B00202496020853
S31508001AA02296020828960208390B0008299302088C
S31508001AB0F4900208690345ECF54B00204D0B00082D
S31508001AC0C0540020815800208058002054930208F2
S31508001AD008B5044B986823F02AF9034BB3FBF0F0DA
S31508001AE080B208BDDC56002040420F002DE9F043C5
S31508001AF08C4D87B02B889B0706D440F24C728A49D6
S31508001B008A480DF0A5F9FEE7AB78033B012B06D909
S31508001B1040F24E72844985480DF09AF9FEE76A68E4
S31508001B2032B940F25172804980480DF091F9FEE7CA
S31508001B307F4E2C88F77B14F0200418BF4FF47A7474
S31508001B404FEA1718FFF754FA00287DD0B8F1020FAC
S31508001B500AD0A8F10303022B74D940F265727249C0
S31508001B6072480DF075F9FEE7032795F8303008EB53
S31508001B70C80898446F4B104603EB4803B3F81C801B
S31508001B8022F009FC4FF4FA534343B3FBF8F37822E7
S31508001B907733B3FBF2F31F44C7EB0717AB78FF00A5
S31508001BA0BFB204F5347417FA84F4042BA4B203D133
S31508001BB007F6E8072744BCB2D5F8048022F0E0FB14
S31508001BC00746686822F0E7FB074422F0FFFBBFB22E
S31508001BD03F1A22F0D5FB404410F08AF87378C0F318
S31508001BE040198DF80C30544BBFB2CDE904340024AB
S31508001BF022F0F8FB009402463B464146B06823F0C3
S31508001C0023FA287EB278737812FB00F29342C4BF97
S31508001C109B1ADCB22B88F18813F0200FB068B180CC
S31508001C208DF80C4003AB76D000934A46434B22F01E
S31508001C30ECFF002873D040F224723B493B480DF074
S31508001C4007F9FEE7062790E7FFF7E0F9002846D0F0
S31508001C50384B07F00F0708EBC801394403EB41037B
S31508001C601046B3F81C9022F096FBB8F1000F2CD062
S31508001C70B8F1010F2CD14FF00408400080B2F319D7
S31508001C8093F834304BB14FF4FA52023303444344C9
S31508001C909BB25343B3FBF9F39CB2AB78042B8BD1BD
S31508001CA0FFF7BCFC374497F834308146053398442F
S31508001CB0FFF70EFF0C2308FB00F003FB09F909EBFD
S31508001CC0C009A1441FFA89F476E74FF00208D6E75F
S31508001CD040F28672144915480DF0BAF8FEE7FFF788
S31508001CE0F7FE0746686822F056FB09307843AB785A
S31508001CF004EBC000042B84B27FF45EAFFFF78EFCC2
S31508001D000746FFF7E5FE602358430C2303FB07004D
S31508001D10204484B250E74A4622F075FF89E707B0A7
S31508001D20BDE8F083A44B002029930208F49002082A
S31508001D30DC5600205493020820A10700B04B00206F
S31508001D40F8B5494C258815F0020506D040F27512FB
S31508001D50464947480DF07CF8FEE7257725F0DFF879
S31508001D60238806465A070CD5424B986823F0A1F9F2
S31508001D70E36AC01AA38C984203D929460420FEF7C1
S31508001D80C7FE304625F0C6F8A778022F37D125F0CA
S31508001D90C6F82388064613F0040507D036480FF020
S31508001DA073FE3046BDE8F84025F0B4B825F0B2F821
S31508001DB0606811F093FC20B1A570BDE8F840FEF705
S31508001DC0CFBF25F0ACF86668054622F0D9FA30444C
S31508001DD00FF08EFF10F0200F0CBF03230423012100
S31508001DE03846A370FEF794FEFFF780FE284625F0D6
S31508001DF091F801210846BDE8F84012F079BB042F96
S31508001E0027D11C4B1B7BFF2B2DD1237EF3B125F04D
S31508001E1086F8238805465B0704D517480FF034FE75
S31508001E202846BFE725F076F8237E013B237625F082
S31508001E3076F8044601210220FEF76AFEFFF756FEF1
S31508001E40204625F067F801210820D4E74020A37032
S31508001E50B3E7012F07D10023A370064B986812F049
S31508001E60B3FB3120A9E7F8BDA44B0020299302084B
S31508001E70F4900208DC560020C04B002038B501213A
S31508001E8004461020FEF744FE064B9D68FFF7C6FB86
S31508001E90012200FB04F1044B284622F09FFE002095
S31508001EA038BD00BFDC560020850D000808B50A4B72
S31508001EB01B88DB0606D44FF46172084908480CF003
S31508001EC0C7FFFEE710200021FEF722FE054B9868A3
S31508001ED0BDE8084022F090BEA44B002029930208D2
S31508001EE0F4900208DC56002038B50E4D688E30B9DD
S31508001EF040F291320C490D480CF0AAFFFEE724F097
S31508001F00C3FE0446688E24F0DDFE811F21440120AD
S31508001F100FF00AFF064B0446986823F0CAF8001B20
S31508001F2038BD00BFA44B002029930208F49002088C
S31508001F30DC56002010B5084C636833B94FF4687254
S31508001F40064907480CF084FFFEE7064B986823F01D
S31508001F50B0F8A36AC01A10BDA44B00202993020842
S31508001F60F4900208DC56002038B50A4D688E30B960
S31508001F7040F2AA32084909480CF06AFFFEE724F045
S31508001F8083FE0446688E24F09DFE044414F8020C71
S31508001F9038BD00BFA44B002029930208F49002081C
S31508001FA038B50A4D688E30B940F2B9320849094841
S31508001FB00CF04EFFFEE724F067FE0446688E24F018
S31508001FC081FE044414F9070C38BD00BFA44B002059
S31508001FD029930208F490020838B50A4D688E30B97C
S31508001FE04FF47272084909480CF032FFFEE724F0F4
S31508001FF04BFE0446688E24F065FE044414F9010C71
S3150800200038BD00BFA44B002029930208F4900208AB
S31508002010024B1888C0F3C010704700BFA44B0020BD
S3150800202030B585B005466C460D4B0FCB84E80F00DE
S315080020300DB12B6800930B4B21460022986812F0CD
S315080020401FFD044630B140F2E632074907480CF056
S31508002050FFFEFEE7FEF7B4FD204605B030BD00BF23
S31508002060DC930208DC56002029930208F490020843
S3150800207030B5154D87B004460DF10701A86822F062
S315080020809DFE30B140F2F732104911480CF0E0FEDF
S31508002090FEE79DF80720531EDBB2FD2B0FD90294ED
S315080020A0FF2A00D10394A86802A922F06FFF40B165
S315080020B040F20442054906480CF0CAFEFEE7012A2A
S315080020C0EFE707B030BD00BFDC56002029930208B1
S315080020D0F490020808B5064B986822F066FF30B1FE
S315080020E04FF48262034904480CF0B2FEFEE708BDCD
S315080020F0DC56002029930208F49002080122024BBC
S315080021001146986822F065BDDC5600207047F8B580
S31508002110064604200D4622F015F9030622D5124F6D
S31508002120BC78FCB926B1012E17D002242046F8BD8A
S3150800213001262846FFF72CFA0028F6D00B4800237C
S3150800214032462946806822F062FD40B14FF48A6221
S31508002150074908480CF07CFEFEE72646E9E7062311
S31508002160BB70E3E77024E1E7A44B0020DC560020AF
S3150800217029930208F4900208042010B522F0E2F828
S31508002180030611D5094CA378062B0DD1084B986880
S3150800219022F03FFD30B140F26A42064906480CF08B
S315080021A057FEFEE7A07010BD7020FCE7A44B002088
S315080021B0DC56002029930208F49002081FB504464D
S315080021C001A812F025FC9DF80D3053B14CB1064B11
S315080021D02078617818700020A27859709A7004B037
S315080021E010BD0220FBE700BFDC5600201FB50446E1
S315080021F001A812F00DFC9DF80D3053B14CB100202A
S31508002200054B1A7822705A789B786270A37004B0CE
S3150800221010BD0220FBE700BFDC560020FFF7CEBF4B
S31508002220FFF7E4BF0348044B834202D0034B03B1D4
S31508002230184770479858002098580020000000005A
S31508002240064B0749C91A891048BF0131491003D0FE
S31508002250044B0BB101481847704700BF9858002037
S31508002260985800200000000010B5064C237843B9A2
S31508002270FFF7D8FF044B13B10448AFF300800123DE
S31508002280237010BD3052002000000000C8CF02089D
S3150800229008B5054B1BB105490548AFF30080BDE8F5
S315080022A00840FFF7CDBF00BF00000000A0220020B5
S315080022B0C8CF0208A3F5803A704700BF174B002B1A
S315080022C008BF134B9D46FFF7F5FF00218B460F46C7
S315080022D01348144A121A23F022FC0E4B002B00D086
S315080022E098470D4B002B00D098470020002104008A
S315080022F00D000D48002802D00C48AFF300801BF0F3
S3150800230059F8200029001BF07DFD1AF0E9FC00BFF2
S315080023100000080000000000000000000020002067
S3150800232000200020A052002000000000000000004D
S3150800233008B5074B01229A73064B1B6800221A70D0
S315080023404FF49671044B18680FF0A9FB08BD00BF3F
S315080023507C230020B8220020BC22002010B504F0FF
S315080023601DFC0B4B01220B490B48006804F0D4FAFC
S315080023700A490B480AF010FC0A4C0B4920460AF099
S315080023800BFC41F2883120680FF089FB10BD00BFB5
S315080023909D250008F022002060560020B52600087A
S315080023A0BC220020B822002031230008084B9B7B62
S315080023B0012B05D01BB9074B93F82E3003707047D5
S315080023C0054BD3F8A430C3F340030370704700BF2E
S315080023D07C230020C022002000C0035010B5634BA8
S315080023E093F85930042B0ED8DFE803F00313223193
S315080023F0420003787E2B07D05D4B01225D495E487B
S31508002400006804F089FA10BD584B012283F8592058
S31508002410F2E70378554981F83130022381F85930BB
S31508002420534B012230315448006804F075FAEAE744
S3150800243003784E4981F83230032381F859304C4BE2
S31508002440012230314C48006804F066FADBE703786D
S31508002450464981F83330042381F8593091F8312000
S31508002460434B043A34314448006804F055FACAE745
S315080024703E4C002384F85930621C94F8311004F15C
S3150800248031001BF0DDFB207038B1394B0122394988
S315080024903948006804F040FAB5E7384B00229A73C9
S315080024A04FF49671364B18680FF0F9FAE378482B13
S315080024B006D0432BE9D12D4B1A7983F82F20E4E770
S315080024C0637A84F82E30013B042BDED8DFE803F06C
S315080024D0031221303F00032001F058FD0028D4D014
S315080024E01BF02AFD1BF029FD2649274B18681FF00B
S315080024F022FACAE7032001F049FD0028C5D01BF0DF
S315080025001BFD1BF01AFD21491F4B18681FF013FA13
S31508002510BBE7032001F03AFD0028B6D01BF00CFDFE
S315080025201BF00BFD1A49184B18681FF004FAACE7A4
S31508002530032001F02BFD0028A7D01BF0FDFC1BF0A3
S31508002540FCFC1449104B18681FF0F5F99DE70320A9
S3150800255001F01CFD002898D01BF0EEFC1BF0EDFCEA
S315080025600D49094B18681FF0E6F98EE7C0220020CE
S315080025709D250008F0220020605600207C230020BC
S31508002580BC220020687602082428002070760208FB
S3150800259078760208807602088C76020808B5024822
S315080025A0FFF71CFF08BD00BFF022002008B50A4649
S315080025B0002301460248006804F074FA08BD00BF0B
S315080025C06056002000B591B0264B9B7B23B1012BAA
S315080025D020D011B05DF804FB8DF814008DF8153085
S315080025E08DF816308DF817300122039204220292D4
S315080025F005AA01924322009202220A2106A81BF08C
S31508002600DDFA0A2106A8FFF7D1FF42F2107004F09E
S3150800261035FBDEE7144BD3F8982722F01002C3F8EF
S315080026209827D3F8982722F00402C3F8982703F5C9
S31508002630805320221A6400210C481DF0F9FF00235C
S3150800264004220521184605F045FE0023012206212D
S31508002650184605F03FFEC821054B18680FF01FFA0B
S31508002660B7E700BF7C23002000C0035000C0055018
S31508002670BC2200200E4B9B7B03B1704700B58FB080
S315080026800123039300230293019348220092022216
S31508002690062104A81BF092FA062104A8FFF786FF74
S315080026A042F2107004F0EAFA0FB05DF804FB00BFBE
S315080026B07C23002008B5094B20221A64FFF7DAFFAD
S315080026C04FF49671064B18680FF0E9F941F2883114
S315080026D0044B18680FF0E3F908BD00BF00D003509B
S315080026E0BC220020B8220020F0B58FB005460E4661
S315080026F0174600240D940794089409940A940B9499
S315080027000C9406944FF40073059305A81BF003FB7D
S31508002710059B0993124B0A934FF41053ADF81C30DE
S315080027208023ADF81E3008940C940DAB1022294670
S3150800273007A821F0DFF8044610B120460FB0F0BD17
S3150800274006AB0293102301930097324604490D986D
S315080027500BF034FD04460D9821F086F8EDE700BF2E
S315080027600044400410B582B004461BF0E3FA08B9E9
S3150800277002B010BD00230093ADF80430074B1B8848
S31508002780ADF80230ADF8044041F6FF73ADF80030FD
S315080027906946022020F08FFAEAE700BFFC570020BE
S315080027A000B583B000230093ADF80430094B1B88AD
S315080027B0ADF8023044F22133ADF80030684620F017
S315080027C076FA20F070FA0A2020F079FA03B05DF85C
S315080027D004FB00BFFC57002008B513460A4601460D
S315080027E00448006803F01CFB00B908BD02480CF059
S315080027F02FFBFAE794560020A87602080A2800D983
S31508002800704730B583B004460D466B4601AA0146AB
S315080028101048006803F06AFA08B9019B23B10E480C
S315080028200CF016FB03B030BD009B2A46214609482A
S31508002830006803F09BF940B9214608480CF008FBEC
S31508002840294607480CF004FBECE7214605480CF03E
S31508002850FFFAE7E794560020B0760208D476020815
S31508002860F0760208F87602080A2800D9704710B5EB
S3150800287004460146064B186803F0A0FB20B921461A
S3150800288004480CF0E5FA10BD03480CF0E1FAFAE743
S31508002890945600201C7702083877020808B5314B91
S315080028A01B78012B21D0022B3DD003B108BD2E4B3E
S315080028B01B782E4A1278B3EB420F07DA01332A4AFD
S315080028C0137001212A481BF027FBEFE70023294A4A
S315080028D01370254A137026481BF026FB264B012247
S315080028E01A70264823F030FFE0E71F4B1B781F4A73
S315080028F01278B3EB420F07DA01331B4A1370012132
S315080029001F481BF009FBD1E700231A4A1370164A21
S3150800291013701B481BF008FB174B01221A70174847
S3150800292023F012FFC2E7104B1B78104A1278B3EB5C
S31508002930420F07DA01330C4A1370012111481BF0C4
S31508002940EBFAB3E700230B4A1370074A13700D48D6
S315080029501BF0EAFA084B01221A70084823F0F4FE25
S31508002960A4E700BF31520020335200203252002023
S315080029707088020834520020745800201C23002056
S3150800298088880208A0880208037823BB70470133A9
S31508002990022B22DC03EB4302104911F82220002AFD
S315080029A0F5D100B50A4603EB430102EB810C4FF063
S315080029B0000E8CF801E04FF0010C02F821C002EB82
S315080029C0810301684268C3F80210C3F80620028929
S315080029D05A815DF804FB0023DAE770473C230020A0
S315080029E030B583B00446144B5D7B21B123788DF84E
S315080029F0003000230BE0FFF7C7FFF7E7E118497837
S31508002A0003F109026A4402F8081C0133DBB2617A51
S31508002A104A1E9342F2DB23781C2B08D0074B03226D
S31508002A201A706A46284601F045FA03B030BD034BD2
S31508002A3000221A70F5E700BF7C2300207558002095
S31508002A4010B5214C2046FFF7B1FC204610F8103986
S31508002A50427C934206D0A4F110025374527B42B1D1
S31508002A60012A26D04FF49671184B18680FF017F8FC
S31508002A7010BD032001F08AFA88B915481E23037091
S31508002A8006234372134A137C4370FF238370C37073
S31508002A900371D37A43710021FFF7A2FFE2E71BF027
S31508002AA04BFA1BF04AFA0C490C4B18681EF043FF08
S31508002AB0E3E707481E22027043700223437200218F
S31508002AC0FFF78EFFCEE700BF8C2300209C23002053
S31508002AD0602300207C230020507702082428002049
S31508002AE008B5244B1A789A721B78DBB21D2B08D0CE
S31508002AF02B2B18D0102B1BD01F4B1B6800221A70CB
S31508002B0008BD1C4B1B7C012B05D0032B07D00C20C2
S31508002B10FFF758FDF0E70220FFF754FDECE7012028
S31508002B20FFF750FDE8E7154B18680EF0ADFFE3E731
S31508002B30104B5B7B012BDFD10E4B5B78DBB2012B95
S31508002B4007D00C4B5B78DBB2022B06D0094B5B78BF
S31508002B50D2E70C20FFF736FDCEE709482B23037092
S31508002B60044B1B7C4370022343720021FFF738FF96
S31508002B70C2E700BF7C230020A0230020A423002056
S31508002B806023002000B583B08C461146084B1870A8
S31508002B90084B83F800C00023074A137001220192EC
S31508002BA00093064A064824F04BFC03B05DF804FB84
S31508002BB03152002032520020745800209D28000807
S31508002BC01C23002008B5044A1BF0BEF8034B1868FE
S31508002BD00EF05AFF08BD00BF7C230020A02300206A
S31508002BE038B5044620F073F8A04201D8012038BD54
S31508002BF00546032001F0CAF90028F8D01BF09CF915
S31508002C001BF09BF92B4622460349044800681EF030
S31508002C1092FE0020EBE700BF607702082428002018
S31508002C2030B583B004468368C26853F822301D88DD
S31508002C302846FFF7D5FF08B903B030BD0023009337
S31508002C40ADF80430164B1B88ADF80230ADF80450C9
S31508002C506368E2689B1A012B1DDDA368013253F8ED
S31508002C6022301B88ADF8003020F01DF86946032095
S31508002C7020F021F80446032001F088F90028DBD06B
S31508002C801BF05AF91BF059F922460649064B1868F3
S31508002C901EF051FED0E740F2FF13ADF80030E3E72F
S31508002CA070510020987702082428002030B583B098
S31508002CB004468368C26853F822301D882846FFF701
S31508002CC08FFF08B903B030BD00230093ADF8043078
S31508002CD0154B1B88ADF80230ADF804506368E268FE
S31508002CE09B1A012B1BDDA368013253F822301B887F
S31508002CF0ADF80030694604201FF0DDFF04460320C6
S31508002D0001F044F90028DDD01BF016F91BF015F97F
S31508002D1022460649064B18681EF00DFED2E740F219
S31508002D20FF13ADF80030E5E770510020B8770208C8
S31508002D302428002030B583B004468368C26853F857
S31508002D4022301D882846FFF74BFF08B903B030BD6F
S31508002D5000230093ADF80430154B1B88ADF80230FC
S31508002D60ADF804506368E2689B1A012B1BDDA36863
S31508002D70013253F822301B88ADF80030694602202C
S31508002D801FF099FF0446032001F000F90028DDD062
S31508002D901BF0D2F81BF0D1F822460649064B1868F4
S31508002DA01EF0C9FDD2E740F2FF13ADF80030E5E7A3
S31508002DB070510020CC7702082428002030B583B053
S31508002DC08368C26853F822301C780023019343684D
S31508002DD09B1A012B19DD01AA01211EF07CF8014678
S31508002DE09DF804001FF05BFF054680B1022001F044
S31508002DF0CDF860B11BF0A0F81BF09FF82A460649EB
S31508002E00064B18681EF097FD01E01FF04CFF2046A0
S31508002E101FF055FF03B030BDE877020824280020CC
S31508002E2010B503468168C26851F82200B0F900005F
S31508002E301A4C20805B689B1A012B0FDD013251F872
S31508002E40223093F90010003918BF01211FF0DCFE6B
S31508002E50A0B9032001F09AF810B910BD0021F5E7D2
S31508002E601BF06AF81BF069F80D4B1C681FF0D0FEC2
S31508002E7002460C4920461EF05EFDEEE7012001F0F1
S31508002E8085F80028E9D01BF057F81BF056F80649D4
S31508002E90034B18681EF04FFDDFE700BF7051002096
S31508002EA0242800204C7802086078020808B51FF02C
S31508002EB09FFE032001F06AF800B908BD1BF03CF834
S31508002EC01BF03BF80249034B18681EF034FDF4E783
S31508002ED0787802082428002008B58368C26853F861
S31508002EE022301A88094B1A80032001F04FF800B9DE
S31508002EF008BD1BF021F81BF020F8044B1A8804497A
S31508002F00044B18681EF017FDF2E700BFFE570020B5
S31508002F10987802082428002008B5024B18680EF095
S31508002F20B3FD08BDA42300202DE9F04186B01FF0AB
S31508002F307BFE0446894B1B7813F0020F2CD0884E73
S31508002F4013F0010F2AD0864F13F0040F28D0DFF8AC
S31508002F501082032001F01AF828BB032001F016F8A6
S31508002F6058BB032001F012F8002835D1032001F0E0
S31508002F700DF800283ED1032001F008F8002847D1B3
S31508002F80032001F003F800285ED1032000F0FEFFBD
S31508002F90002867D1002471E0724ED1E7714FD3E75C
S31508002FA0DFF8C081D5E71AF0C7FF1AF0C6FF6E49E9
S31508002FB06E4B18681EF0BFFCCFE71AF0BDFF1AF07B
S31508002FC0BCFF6A4B1D6805F05DFB02460B46684967
S31508002FD028461EF0B0FCC4E71AF0AEFF1AF0ADFFA3
S31508002FE0624B1D681FF0F8FD0246624928461EF02E
S31508002FF0A2FCBBE71AF0A0FF1AF09FFF5B4B1D6807
S315080030001FF01EFE02465C4928461EF094FCB2E7F5
S315080030101AF092FF1AF091FFE279A3796179207983
S31508003020E57894F802C094F801E024780594CDF880
S3150800303010E0CDF80CC00295019000914F494B481D
S3150800304000681EF078FC9BE71AF076FF1AF075FF09
S31508003050464B1C681FF0ECFD0246494920461EF007
S315080030606AFC92E71AF068FF1AF067FF45493F4B7A
S3150800307018681EF060FC8DE70134E4B2072C12D8FC
S31508003080032000F083FF0028F6D01AF055FF1AF047
S3150800309054FF364B1D681FF0C7FD025D3A492846A6
S315080030A01EF049FCE8E7032000F070FF98B90320FA
S315080030B000F06CFFC8B9032000F068FF18BB0320B6
S315080030C000F064FF68BB032000F060FF002836D1DB
S315080030D006B0BDE8F0811AF02FFF1AF02EFF2B4933
S315080030E0224B18681EF027FCE1E71AF025FF1AF0B4
S315080030F024FF1E4B1C681FF09FFD024624492046EC
S315080031001EF019FCD7E71AF017FF1AF016FF174B2F
S315080031101C681FF075FD02461E4920461EF00BFC72
S31508003120CDE71AF009FF1AF008FF104B1C681FF0CC
S315080031306FFD0246184920461EF0FDFBC3E71AF04C
S31508003140FBFE1AF0FAFECDF800803B4632461349DC
S31508003150064800681EF0EFFBBAE700BF7558002066
S315080031600078020808780208B478020824280020A3
S31508003170BC780208D8780208F478020810790208A0
S31508003180347902085079020864790208EC76020854
S315080031906C79020888790208A0790208B8790208C9
S315080031A030B583B08368C26853F822301C7801A909
S315080031B020461FF021FD88B9032000F0E7FE08B974
S315080031C003B030BD1AF0B8FE1AF0B7FE019B2246CE
S315080031D00B490C4800681EF0AEFBF1E705460120D6
S315080031E000F0D4FE0028EBD01AF0A6FE1AF0A5FED1
S315080031F02A460549034B18681EF09DFBE0E700BF09
S31508003200F0790208242800200C7A020870B5826832
S31508003210C36852F823100C88013352F823301D78FE
S31508003220294620461FF037FD80B9032000F0AEFE80
S3150800323000B970BD1AF080FE1AF07FFE2B462246B2
S315080032400B490C4800681EF076FBF2E7064601209B
S3150800325000F09CFE0028ECD01AF06EFE1AF06DFE07
S3150800326032460549034B18681EF065FBE1E700BFC7
S31508003270307A020824280020607A020870B582B0E5
S315080032808368C26853F822301B78134A137013F008
S31508003290020F0ED0114C13F0010F0CD00F4D13F086
S315080032A0040F0AD00D4E032000F070FE38B902B0A4
S315080032B070BD0B4CEFE70A4DF1E7094EF3E71AF03C
S315080032C03BFE1AF03AFE00962B462246054906486A
S315080032D000681EF030FBEAE77558002000780208FF
S315080032E008780208147802082428002030B58FB020
S315080032F004460D4668461AF03EFD0DF1200EEC46D2
S31508003300BCE80F00AEE80F009CE803008EE8030057
S3150800331008A9464B186820F0D0FA10F1880F46D154
S3150800332068461AF028FD0DF1200EEC46BCE80F00A1
S31508003330AEE80F009CE803008EE803004FF4105334
S31508003340ADF820308023ADF822304FF44073079350
S3150800335007A81AF020FD079B0A93354B0B93334BAE
S315080033601A68099B0D9213F0FF0F04D123F0FF038F
S3150800337043F001030993012309932C4B2A4621465E
S3150800338008A820F0B7FA044610BB032000F0FEFD9B
S3150800339090B9264B18681FF027FC0546002831D13E
S315080033A0032000F0F3FD044610BB01242FE01F4B59
S315080033B0186820F059FAB3E71AF0BEFD1AF0BDFDF9
S315080033C01A4B1A681B491C4B18681EF0B4FAE0E73A
S315080033D0032000F0DBFD0028DBD01AF0ADFD1AF063
S315080033E0ACFD22461549144B18681EF0A4FAD0E71E
S315080033F01AF0A2FD1AF0A1FD11490F4B18681EF02C
S315080034009AFA04E0032000F0C1FD044610B92046EC
S315080034100FB030BD1AF090FD1AF08FFD2A46094903
S31508003420054B18681EF087FA0024F0E79023002061
S3150800343000014405907A020824280020C07A020870
S31508003440E47A0208047B020800B583B000210191E2
S3150800345001AA1DF040FD019910290ED0032000F0A5
S3150800346095FD60B11AF068FD1AF067FD102205494E
S31508003470054B18681EF05FFA01E0FFF737FF03B047
S315080034805DF804FB247B02082428002010B588B0C8
S3150800349020F02FFB032000F079FDF8B901244A4BF0
S315080034A01C6002A81AF08EFC02A9204620F005FA34
S315080034B010F1880F1CD0032000F068FD00286ED19B
S315080034C0414B18681FF090FB1FF0E1FB04460320F0
S315080034D000F05CFD00286CD108B010BD1AF02CFD78
S315080034E01AF02BFD39493A4B18681EF024FAD5E72D
S315080034F0032000F04BFD002837D1334B1A68039B95
S31508003500079213F0FF0F04D123F0FF0343F00103E2
S315080035100393304B05934FF44073019301A81AF0B7
S3150800352061FC019B04934FF41053ADF808308023D7
S31508003530ADF80A3001230393234B1022264902A82B
S3150800354020F0D8F90446D0B9032000F01FFD002862
S31508003550B6D01AF0F1FC1AF0F0FC1B4B1A681F499A
S315080035601B4B18681EF0E7F9AAE71AF0E5FC1AF0F3
S31508003570E4FC1B49164B18681EF0DDF9BDE703206D
S3150800358000F004FD00289BD01AF0D6FC1AF0D5FCF2
S31508003590224614490E4B18681EF0CDF990E71AF02A
S315080035A0CBFC1AF0CAFC1049094B18681EF0C3F97F
S315080035B086E71AF0C1FC1AF0C0FC22460B49044BF8
S315080035C018681EF0B8F987E7902300204C7B02089C
S315080035D02428002000444004AC540020907A0208B5
S315080035E0587B0208C07A0208807B0208AC7B020876
S315080035F010B5012009F0CAFB0D4C21460420FFF73F
S31508003600FDF8611E0320FFF7F9F80A490820FFF7BD
S31508003610F5F84FF4FA61084B18680EF040FA074BB4
S3150800362001221A70064B1B6800221A7010BD00BFD3
S31508003630892300206C2300209C230020355200207B
S315080036409823002010B584B0364B1B7B3BB1022B68
S3150800365023D0354B1B6800221A7004B010BD9DF8A4
S315080036600030032262F304038DF800309DF8003021
S315080036706FF346138DF800301C238DF804300222B0
S315080036808DF80D209DF800208DF80520254A9372A7
S31508003690002101A8FFF7A4F9DBE7224B9B7A1E2B32
S315080036A021D0204B9B7A2B2BD3D1204C2046FEF7DA
S315080036B07DFE2B238DF8043006238DF80D30204629
S315080036C010F810398DF80530FF238DF806308DF87F
S315080036D007308DF80830C37A8DF80930002101A823
S315080036E0FFF77EF9B5E7114C2046FEF75FFE1E236D
S315080036F08DF8043006238DF80D30204610F8103961
S315080037008DF80530FF238DF806308DF807308DF8D3
S315080037100830C37A8DF80930002101A8FFF760F94F
S31508003720BFE700BF7C230020A42300208C230020B1
S3150800373010B50C490C4809F02FFA0C490C4809F049
S315080037402BFA0C490C4809F027FA0C4C0C49204670
S3150800375009F022FAFEF702FE4FF47A7120680EF09D
S315080037609EF910BDE12A0008A0230020412A00087E
S315080037709C23002045360008A42300209823002017
S31508003780F135000808B50320FFF76EF80820FFF7A3
S315080037906BF80449002301F80C3F01220320FFF7C8
S315080037A01BF808BD7C23002010B504461AF08CFCD3
S315080037B010B9344B9C4205D020461AF085FC0128E6
S315080037C008D010BD23F030FE2F4B18602F4B012276
S315080037D01A70F1E723F028FE2C4B00221A702A4BA8
S315080037E01B68C01AA0F5C333A13B294A934215D9D1
S315080037F0284B984224D9284B5B7BA3B1012BE0D1F7
S315080038000024254901F80D4F01220420FEF7E4FFA4
S31508003810642205212046FFF7B5F9D2E71FF053FACF
S31508003820FFF7B0FFCDE701221B4901F80D2F042051
S31508003830FEF7D2FF642205210020FFF7A3F9C0E7AF
S31508003840164B9842BDD8144B1B7B002BB9D1124B93
S315080038505B7B6BB1012BB4D1114B01221A70FEF7B9
S315080038609FFF4FF47A7205210020FFF78BF9A8E72E
S315080038700020FEF777FF0B4B00221A700A481AF051
S3150800388022FD9EE75888020894230020365200201D
S315080038909E860100400D03007C230020A0860100BF
S315080038A03452002074580020A088020870B50646D5
S315080038B00D468B681B781C2B01D000241EE0244B78
S315080038C01B7B002BF9D10028F7D12149022301F8E7
S315080038D00C3F01220320FEF77FFFEEE704EB4402CC
S315080038E01C4B03EB82035B780A2B1DD11949900008
S315080038F001EB820300220A545A700134022C21DC9F
S31508003900AB68197804EB4402124B03EB82039B78ED
S315080039109942F2D1002EE1D10E49900001EB8203C3
S3150800392000220A545A70E8E70A4A04EB440C02EBF0
S315080039308C00012102F82C100B4443700230FFF76B
S315080039404FF8DAE72B7B5B42014AD37270BD00BFA2
S315080039507C2300203C23002010B504463D481AF07D
S31508003960E3FAA4F19003062B5ED8DFE803F0040A15
S315080039701E5D5D334800C82202210120FFF702F9C7
S3150800398010BD032000F002FB28B96422052100209F
S31508003990FFF7F8F8F4E71AF0CFFA1AF0CEFA2E493C
S315080039A02E4B18681DF0C7FFEFE7012000F0EEFA6E
S315080039B030B94FF47A7202210020FFF7E3F8DFE707
S315080039C01AF0BAFA1AF0B9FA2549244B18681DF004
S315080039D0B2FFEEE7012000F0D9FA30B94FF47A7257
S315080039E002210020FFF7CEF8CAE71AF0A5FA1AF066
S315080039F0A4FA1C49194B18681DF09DFFEEE7032031
S31508003A0000F0C4FA30B94FF47A7202210020FFF7A9
S31508003A10B9F8B5E71AF090FA1AF08FFA12490F4B6F
S31508003A2018681DF088FFEEE7032000F0AFFA30B9FA
S31508003A304FF47A7202210020FFF7A4F8A0E71AF0E3
S31508003A407BFA1AF07AFA22460849044B18681DF0E0
S31508003A5072FFEDE7A0880208C47B0208242800202C
S31508003A60D47B0208F47B0208187C0208347C02081E
S31508003A7010B523F0D9FC04462A4B1B68C31A2A4AF8
S31508003A80934205D9294A127812B1294A93420ED986
S31508003A90264A127812B1264A934212D8254B1B7829
S31508003AA023B1254B5B7B8BB1012B2ED010BD234850
S31508003AB01AF00EFC22481AF00BFC22481AF008FCF1
S31508003AC0F4E700211D4800F0C1F9EFE71FF088F878
S31508003AD0B0B91D4B1B78002BE8D01C4B1B68E31AAA
S31508003AE041F678629342E1D9184B1C6015481AF0E2
S31508003AF0F4FB12481AF0ECFB11481AF0E9FBD5E77B
S31508003B0000210F4800F0A2F9D0E71FF069F8002855
S31508003B10CCD00F4B1B78002BC8D108481AF0D3FB22
S31508003B20C4E700BF94230020A08601003652002077
S31508003B30400D0300355200207C23002070880208BF
S31508003B4088880208A088020874580020BC540020FF
S31508003B503452002008B5024B1B6803B1984708BDCC
S31508003B60D823002008B5024B5B6803B1984708BD07
S31508003B70D823002008B5024B9B6803B1984708BDB7
S31508003B80D823002008B5024BDB6803B1984708BD67
S31508003B90D823002008B5024B1B6903B1984708BD16
S31508003BA0D823002008B5024B5B6903B1984708BDC6
S31508003BB0D823002000B585B0094B1868094B186052
S31508003BC0094B0A4A13600A4A01920A4A1268029283
S31508003BD0039301A91DF0A1F905B05DF804FB00BF28
S31508003BE0DC54002080320020D05400207C32002093
S31508003BF018880208AC26002008B5024B18681DF084
S31508003C00A0F908BDDC54002038B507F075FC044659
S31508003C10064D2B68D3F8B00207F062FC28681DF041
S31508003C20AAF9204607F05CFC38BD00BFDC5400202A
S31508003C3008B5034823F078FA024800F0FFFE08BDED
S31508003C40788B0208E05400200023062073B17047E1
S31508003C5054B224B9013353B15DF8044B70470228B6
S31508003C60F8D008680A4908601046F3E710B4094A0C
S31508003C7052F823100A7A022AEAD9032AEAD1441EFC
S31508003C80E4B2012CE6D90868014908601046E1E764
S31508003C90AC260020F454002010B5A2B00DF1680C33
S31508003CA0294C0FCCACE80F0094E80F008CE80F0005
S31508003CB00021159116911791189119914FF48013B7
S31508003CC01593224B199310911191129113911491F6
S31508003CD01F4B10931F4B14933C2201A821F01FFF82
S31508003CE001AC0DF1540CBCE80F000FC4DCF8003031
S31508003CF0236006AC0DF1400CBCE80F000FC4DCF8DD
S31508003D0000302360144B0B9320230C9301238DF86A
S31508003D1034308DF835308DF83630104B0F93104B04
S31508003D201AAA01A90F4807F093FC04469DF83730F4
S31508003D303BB100214FF4E1301AF03BF9204622B09E
S31508003D4010BD0321F6E700BF388802083C00015B76
S31508003D50010010004400015BB02600200855002031
S31508003D60D02600208C27002008B531B9084B1868E2
S31508003D70036823B108F082F801E0012900D908BDDB
S31508003D80034B18680368002BF9D01EF0B6F8F6E75F
S31508003D901C55002008B50349034808F0E3F9FFF766
S31508003DA07BFF08BD20550020B427002008B502482F
S31508003DB01DF007FE08BD00BF8C27002008B5024885
S31508003DC01DF0FFFD08BD00BF8C27002008B5024B7B
S31508003DD05A6A1868904708BD8C27002008B502481B
S31508003DE01AF06BF908BD00BF5888020808B50548DF
S31508003DF01AF064FA04481AF061FA04481AF05EFAEE
S31508003E0008BD00BFA08802088888020870880208D2
S31508003E1018B1034A1060002070472520704700BF7C
S31508003E20BC27002010B5044C0449206802F08CFC1D
S31508003E302068FFF7EDFF10BD605600203C550020B6
S31508003E40014B1868704700BFBC27002008B539BB6E
S31508003E50154B984206D0154B98420DD0144B9842F4
S31508003E6014D008BD18461AF02EFA10481AF030FA7F
S31508003E700F481AF02DFAF4E70B481AF029FA0B48FE
S31508003E801AF021FA0A481AF023FAEAE706481AF05D
S31508003E901FFA06481AF01CFA05481AF014FAE0E761
S31508003EA01AF016FADDE700BF70880208888802084B
S31508003EB0A088020800B583B00B4605490978019128
S31508003EC00092002201211EF0D3FE03B05DF804FB28
S31508003ED07558002030B585B0044685682B782F2B99
S31508003EE009D0254B1B7B002B33D0013BDBB2012BC2
S31508003EF038D905B030BD204B1B7B012BF1D86C4659
S31508003F00D5F80100D5F80510D5F80920D5F80D30F3
S31508003F100FC41A4C224669461948FEF7E5FB1021DC
S31508003F202046FFF7E3F90128E3D1102221460820AD
S31508003F30FEF752FC104B1B7B002BDAD1114B1B787A
S31508003F40002BD6D04FF47A710F4B18680DF0A7FDE9
S31508003F50CFE7A179284619F0EBFF63795B42064A59
S31508003F60D372C6E7A179284619F0E2FF63795B4266
S31508003F70014AD372BDE700BF7C2300206C230020D2
S31508003F809876020835520020A423002003460B4ADF
S31508003F90107828B10A4A12789A4202D2002000E024
S31508003FA00120084A12783AB1074A127842FA03F30E
S31508003FB013F0010F00D10020704700BF7858002089
S31508003FC077580020385200207658002008B5084B4C
S31508003FD001221A70074B00221A70074B04221A7026
S31508003FE0064B1F221A7007F087FA054B186008BDA2
S31508003FF0785800203852002077580020765800203C
S315080040002428002008B5054823F08EF819F023FF68
S31508004010012019F09BFF00F0B1F808BD788B020863
S3150800402008B5024823F080F808BD00BF788B02085F
S315080040302DE9F04180460F4601F109050026344670
S3150800404004E05B21082000F0C1FA0134AC4233D207
S31508004050052C1BD801A353F824F000BF43400008E1
S3150800406075400008A94000087D4000088140000806
S3150800407085400008FBB20433D9B2E3E78021E1E7C3
S315080040800021DFE7731C3146DEB2DBE7BB1DA34226
S315080040900CD0FB1DA3420BD007F10803A34209D09D
S315080040A0A31F18F80310CDE7D121CBE75A21C9E79A
S315080040B05A21C7E75D21C5E70020BDE8F08100BFAA
S315080040C000B583B0002300930193FFF7B9FE114BA7
S315080040D0186001238DF8003090F8363093B100202F
S315080040E00C4B1B6893F8351002290FD003290FD102
S315080040F019F042FF019008216846FFF799FF03B0BF
S315080041005DF804FB00681CF07EFAE9E70321EFE797
S315080041100021EDE72828002000B583B00022009290
S31508004120019202218DF80010054819F02AFF019026
S3150800413008216846FFF77CFF03B05DF804FB00BF63
S31508004140006A180000B583B0044B1B88ADF804302C
S3150800415001A800F017FB03B05DF804FBB888020855
S3150800416000B583B0044B1B88ADF8043001A800F0F5
S31508004170D9FA03B05DF804FBB88802082DE9F04FB8
S3150800418097B04D4D09AC2E1D0FCE0FC43368236072
S3150800419001AC05F118060FCE0FC496E80F0084E8A7
S315080041A00F00464822F0C0FF454822F0BDFF012611
S315080041B08DF8096000248DF80840424B0B9301AB3B
S315080041C00D93414F09A938461CF02DF9B5F838B0BA
S315080041D0ADF838B0324604210EA800F067FAB5F8F3
S315080041E03CA0ADF83CA0224631460FA800F05EFA86
S315080041F0B5F84090ADF840903246042110A800F07A
S3150800420055FAB5F80080ADF844803246042111A865
S3150800421000F04CFA2D4D2E4BC5F8F8344FF002132A
S31508004220C5F8F434A3F58033C5F8FC341C23C5F867
S31508004230E4344FF4487008F04DFCFFF783FF142070
S3150800424008F048FCFFF78CFF232008F043FCFFF733
S3150800425079FFB92138461CF0CEF8FFF781FFADF893
S3150800426048B02246214612A800F020FAADF84CA024
S315080042702246214613A800F019FAADF850903246A6
S31508004280214614A800F012FAADF8548032462146A9
S3150800429015A800F00BFA384603F0A6FDC5F8E44465
S315080042A0C5F8F844C5F8F444C5F8FC44044822F0B7
S315080042B040FF17B0BDE8F08FB8880208788B02086F
S315080042C07C8B0208E070720000000A5000C00350A0
S315080042D00200030008B50448044A121A9210044959
S315080042E019F07AFE08BD00BF8001000880030008A7
S315080042F0A052002008B5154B83F30A8800F030F861
S31508004300FFF7E8FF124A0AE01068516850F82300E0
S3150800431041F82300013391688B42F5D30C320D4BDB
S315080043209A4201D20023F6E70B4A08E011680020FA
S3150800433041F82300013351688B42F7D30832074B03
S315080043409A4201D20023F6E7FDF7B8FF00000020E5
S31508004350D0CF0208DCCF0208DCCF0208DCCF020887
S3150800436070B5134B134A9A60D3F8882042F470024A
S31508004370C3F88820104A4FF4804191660F4D05F521
S3150800438000544FF0FF3222660D4A62660222C3F8D5
S31508004390D020BFF34F8FBFF36F8F002007F076F85A
S315080043A04FF44036E66000201DF070FA2E6170BDAD
S315080043B000ED00E000000008009000500080004476
S315080043C07FFF7F01014B1860704700BF68560020C9
S315080043D008B5064B1860064B1B6F03F00703032B43
S315080043E000D008BD21F022FEFBE700BF7056002072
S315080043F000800050BFF34F8F0549CA6802F4E06297
S31508004400044B1343CB60BFF34F8F00BFFDE700BFDC
S3150800441000ED00E00400FA05F0B18446F1B110B4ED
S3150800442009E004F120000FE02033C01A18D1BCB10E
S315080044300CF1010C01319CF800400B4B1B5D03F09D
S315080044400303012BEDD020460B78074AD25C02F015
S315080044500302012AE9D1E7E70120704701207047E6
S315080044605DF8044B704700BF95CE020830B587B09B
S315080044700546046823798DF80C3063798DF80D307C
S315080044801B4822F051FE0022012103A800F00EF974
S315080044900DF10B0103A819F0DAFE9DF80B3083F035
S315080044A001032370A379022B02D0002007B030BD88
S315080044B04FF0FF330593049300950E4B002205A990
S315080044C003A800F02FFA059BB3F1FF3F07D000952C
S315080044D0084B012204A903A800F084F9E5E7009532
S315080044E0044B042204A903A800F07CF9DDE700BF09
S315080044F0788B0208D7E0010810B582B00024019431
S315080045002A4822F011FE8DF8004003238DF8013069
S3150800451001220421684600F0C9F8254B0122C3F898
S31508004520442401A9052022F0F8FD00283BD1214B9F
S31508004530D3F8F02042F00102C3F8F020D3F8FC20AB
S3150800454042F08072C3F8FC20A3F55D431A4A1A604C
S31508004550019B03F5D52303F2FC43DB08174AA2FBAC
S3150800456003239B0A013B164A13610223C2F8F03063
S315080045704FF48073C2F804334FF06043114AC3F80E
S31508004580B02F114AC3F8802ED3F8002E42F4807259
S31508004590C3F8002EFF2283F82020D3F8002E22F439
S315080045A08072C3F8002E02B010BD00BF788B0208D7
S315080045B000D0035000ED00E0FF03004017916502AC
S315080045C0000004E055CEACC5090001004FF0604379
S315080045D0D3F8803E13F0010F01D1112070470E4A1F
S315080045E0D2F8FC3043F08073C2F8FC304FF06043D9
S315080045F0D3F8002E4FF0010C0CFA00FC42EA0C022C
S31508004600C3F8002E53F82030002BE8D04FF0604353
S3150800461003F820100020704700ED00E010B50446AE
S315080046200FE00123834024EA03040F2814D800EB83
S3150800463040020E4B03EB82035A6812B19968C0B266
S31508004640904794B1234600201F28EAD813F0010F9B
S31508004650E7D101305B08F7E7103800EB40039B0011
S31508004660B033024A13440433E6E710BD2C28002071
S3150800467008B50D4822F058FD1A2006F0CDFE28B9D7
S315080046801B2006F0C9FE40B9002008BD1A2006F016
S31508004690FDFE1A201DF0FAF8F2E71B2006F0F6FEDA
S315080046A01B201DF0F3F8EFE7788B02082DE9F0419F
S315080046B070B30C46174605460F292BD803784BB11D
S315080046C0022B20D0032B21D0012B01D0002303E09D
S315080046D07F2301E040F2FF736A78D34013F0010F9D
S315080046E01AD00F4BD3F81063C6B922F018FC8046CF
S315080046F03A462146284604F015F9404622F00AFCB7
S315080047003046BDE8F08140F2FF33E5E73F23E3E7B3
S315080047102226F5E72126F3E72126F1E70226EFE729
S3150800472000C0035040B310B5044603784BB1022BC2
S315080047301DD0032B1ED0012B01D0002303E07F23BD
S3150800474001E040F2FF736278D34013F0010F15D0F1
S3150800475022F0E5FB237862780121914003EB4303BD
S315080047601B01074AD15022F0D5FB002010BD40F2AC
S31508004770FF33E8E73F23E6E7222070472120F5E7E5
S3150800478040D0035040B310B5044603784BB1022B12
S315080047901DD0032B1ED0012B01D0002303E07F235D
S315080047A001E040F2FF736278D34013F0010F15D091
S315080047B022F0B5FB237862780121914003EB43038D
S315080047C01B01074AD15022F0A5FB002010BD40F27C
S315080047D0FF33E8E73F23E6E7222070472120F5E785
S315080047E040E00350002866D02DE9F0410C461546F6
S315080047F01F460646002960D002784AB1022A3ED0F2
S31508004800032A3FD0012A01D0002303E07F2301E0D9
S3150800481040F2FF737178CB4013F0010F01D1FF2AE4
S315080048204DD1022D01D9042D4BD122F078FB8046BB
S315080048303378FF2B28D12368B3F1FF3F2BD02268AA
S31508004840B2F1FF3F32D0204B02EB420203EB820269
S315080048505760226802EB420203EB8203069A9A60CB
S315080048603378FF2B05D0226801239340174AC2F8F4
S315080048702434404622F04EFB0020BDE8F08140F289
S31508004880FF33C7E73F23C5E72A462168304604F0C9
S31508004890B3F82060CFE73378FF2BD0D10C4BD3F891
S315080048A0241470781BF0E7FE2060C8E7404622F023
S315080048B031FB2D20E1E7222070472220DDE7212069
S315080048C0DBE72120D9E700BF2C28002000D00350C1
S315080048D000C00350B0F1FF3F1AD038B504460F2880
S315080048E018DC002818DB22F01AFB0123A3400B4A28
S315080048F0C2F82034C2F82434094B04EB440203EB13
S31508004900820200255560956022F004FB284638BDD2
S31508004910212070472120FAE72120F8E700E003501C
S315080049202C280020002856D02DE9F0410C461746C1
S315080049301E460546002950D0017849B1022939D0CA
S3150800494003293AD0012901D0002303E07F2301E09F
S3150800495040F2FF736A78D34013F0010F01D1FF29A3
S315080049603DD122F0DCFA80462B78FF2B27D122682E
S31508004970B2F1FF3F2AD01B4B02EB420203EB820245
S31508004980C2F8B860226802EB420203EB8203069A79
S31508004990C3F8BC202B78FF2B06D0226810320123DF
S315080049A09340114AC2F82434404622F0B3FA002054
S315080049B0BDE8F08140F2FF33CCE73F23CAE73A4629
S315080049C02168284604F0B8F82060D0E7404622F06F
S315080049D0A1FA2D20ECE7222070472220E8E72120C3
S315080049E0E6E700BF2C28002000D0035008B5084B86
S315080049F0D3F82404D3F82024104000F0553020F0D2
S31508004A00502003F50053C3F82004FFF707FE08BD3E
S31508004A1000C0035008B5084BD3F82404D3F8202463
S31508004A20104000F0AA3020F0A02003F50053C3F888
S31508004A302004FFF7F3FD08BD00C0035070B586B02B
S31508004A4005460368B3F1B64F27D0304A934222D0C1
S31508004A504FF0FF36B3F1B64F21D02C4A934252D1CC
S31508004A602B4822F061FB2B798DF804306B798DF891
S31508004A700530AB798DF80030EB798DF801300122DD
S31508004A800A2101A8FFF712FE01220A216846FFF74C
S31508004A900DFE002412E00126DCE70026DAE71D48B1
S31508004AA0DFE701A8FFF76EFE642008F013F801A8F7
S31508004AB0FFF738FE642008F00DF80134092CF0DD04
S31508004AC0154A02EB06110323C1F8383568792B79A4
S31508004AD043EA0043C1F83C35E979AB7943EA014337
S31508004AE054363601935101238DF808308DF8093074
S31508004AF0EB680493AB6803932B7C8DF8143002A9FA
S31508004B00286803F073FC06B070BD00BF008006502D
S31508004B10708B0208748B020800C0035010B582B06F
S31508004B2004460A4822F000FB23788DF8043063789F
S31508004B308DF80530A278B2FA82F2520904210DEBFB
S31508004B400100FFF7B3FD002002B010BD788B020804
S31508004B50F0B585B00C4694469DF83410664A12782E
S31508004B60002A00F0BD800546BCF1070F00F2BA80A6
S31508004B700A9A002A00F0B8800B9A002A00F0B6803C
S31508004B800E9AB2F5006F00F3B38001285BD05B4A3A
S31508004B9002EB0C12127B002A00F0AC800022009275
S31508004BA0019202920392564A02EB4C1E002C4FD1F8
S31508004BB04FEA4C1600209051CEF80400CEF80800B3
S31508004BC0CEF80C009EF8020040F010008EF80200A5
S31508004BD09EF8030040F030008EF8030021B9C1B2F8
S31508004BE041F003018EF8031000930E9B013B444AE3
S31508004BF04FEA4C1002EB4C11165A63F30E16165276
S31508004C000A9B8B600B9B4B60CB789DF83C2062F32C
S31508004C108303CB70012D36D0109B002B56D0374A14
S31508004C204FEA0C1102EB0C1310985050119A5A6067
S31508004C3000249C605D7372466946604603F04CFC2E
S31508004C40204605B0F0BD0C9A002AA0D12D48F8E7F9
S31508004C502B4F4FEA4C1607EB4C120020B851506008
S31508004C609060D060907840F010009070D07840F056
S31508004C700300D0700029B7D107EB4C12C1B241F03E
S31508004C803001D170B0E70E460A7B42F001020A7382
S31508004C90D2B242F002020A73CA68042161F39F0283
S31508004CA0F26006F1100796E80F0087E80F00F26930
S31508004CB06FF0030161F39F02F2610C9B7361012C93
S31508004CC0AAD10B9AB2610C9A7260A5E7002DA6D1FB
S31508004CD00B4B03EB4C139A786FF304129A709EE70A
S31508004CE00948AEE70748ACE70648AAE70548A8E733
S31508004CF00448A6E70548A4E739520020942A00206C
S31508004D0094290020018000F0028000F0078000F05E
S31508004D10134B1B78FBB110B50446F0B122F0FFF82F
S31508004D200023072B13D80F4A02EB0312127B0AB192
S31508004D300133F6E723600B4A190102EB031301243A
S31508004D401C730024545022F0E5F8204602E022F0B5
S31508004D50E1F8054810BD054870470548FAE700BF61
S31508004D6039520020942A0020048000F0028000F0C6
S31508004D70018000F038B522F0D2F804460023072B4C
S31508004D8006DC0C4A02EB0312127B12B90133F6E772
S31508004D90002222B1204622F0BDF8074838BD03F0AC
S31508004DA047FB0025054B1D70204622F0B3F8284620
S31508004DB0F4E700BF942A0020058000F0395200204D
S31508004DC00F4B1B78BBB110B50446072815D822F03F
S31508004DD0A6F80C4B03EB04131B7B1BB922F09AF8BD
S31508004DE009480BE0074B03EB041300241C7322F05D
S31508004DF091F8204602E005487047054810BD00BFF7
S31508004E0039520020942A0020068000F0028000F023
S31508004E10018000F000B583B0134B1B680193002393
S31508004E208DF8043022F07BF8104B1B7833B90F4B02
S31508004E3001221A7022F06EF8002309E022F06AF8BF
S31508004E400B480EE00B4A02EB0312002111730133E3
S31508004E50072BF7DD08238DF8073001A803F00CFBB4
S31508004E60002003B05DF804FBFC88020839520020D4
S31508004E70038000F0942A002010B5104C2478BCB1A9
S31508004E80072817DC0E4C04EB0014247BA4B10C4C49
S31508004E904FEA001E04EB001C44F80E30029BCCF8C7
S31508004EA004300024CCF8084003F016FB204610BD59
S31508004EB00448FCE70448FAE70448F8E739520020B2
S31508004EC0942A0020028000F0018000F0078000F09C
S31508004ED008B50A4B1B785BB107280BD8084B03EBC0
S31508004EE000131B7B43B1002103F0B8FA002008BD6C
S31508004EF00448FCE70448FAE70448F8E73952002072
S31508004F00942A0020028000F0018000F0078000F05B
S31508004F1008B50A4B1B785BB107280BD8084B03EB7F
S31508004F2000131B7B43B1012103F098FA002008BD4A
S31508004F300448FCE70448FAE70448F8E73952002031
S31508004F40942A0020028000F0018000F0078000F01B
S31508004F50F8B5194B1F6D5B6D1F4002D4012500245F
S31508004F6002E0FEE701346D00072C24D83D42F9D053
S31508004F70124B1D652301124AD358002BF2D002EBBF
S31508004F800416B1680131B16072682046984780F00E
S31508004F900100C0B2737B012BE4D10028E2D0094B93
S31508004FA003EB44131A7B6FF341021A731A7F6FF3EC
S31508004FB041021A77D6E7F8BD0000045000200450D5
S31508004FC0942A0020942900202DE9F04F89B005463F
S31508004FD00E4614469846C36B5B69012207A96068AA
S31508004FE09847EB6B5B69012206A93046984707A8E4
S31508004FF01AF0D9FB48B10027A77567754FF0FF333C
S31508005000A360384609B0BDE8F08F074606A81AF02F
S31508005010DAFB0123A375237E033304EBC3035E6027
S3150800502000221A816368B3422AD02368834201D0DA
S315080050300023A37506A81AF0EBFB237D984201D03E
S315080050400023A37506A81AF0C2FB814607A81AF022
S31508005050BEFB814501D00023A37506A81AF0BFFB45
S31508005060814607A81AF0BBFB814501D00023A3752A
S31508005070237D043BDBB2022B0BD80023A375C0E7C4
S31508005080206006A81AF0C4FB20754FF0FF33A36012
S31508005090EEE706A81AF09BFB80B1EB6B5B69022270
S315080050A004A93046984704A81AF0A4FB0346207DB5
S315080050B0032868D8DFE800F0615B070D06A81AF038
S315080050C099FB0346F3E7237E033304EBC303CC22A1
S315080050D01A811AF0ADFB129B187094F8189006A85E
S315080050E01AF068FB09F1030904EBC90989F80A00F3
S315080050F0237E033304EBC303B3F808A093F80AB07E
S3150800510006A81AF064FB814606A81AF068FB039005
S31508005110B9F1000F3DD0EB6B5B69022204A930465A
S31508005120984704A81AF022FB6075637D03B9A37536
S31508005130A37DA3B1BAF1000F11D0039BF1186B6CD4
S315080051405B4286EA01021A4201D00023A3756B6C02
S315080051505A1E0A409B1A9A4501D90023A375A37DB6
S31508005160002B40D0BBF1000F18D1E77D3CE0227E32
S31508005170033204EBC2021381ABE7227E033204EB4F
S31508005180C2021381A5E7227E033204EBC202138111
S315080051909FE706A81AF0D3FA6075C6E70122E275FA
S315080051A0627EBAB9BBF1010F08D095F83470DFB941
S315080051B0EA6AB2F1FF3F05D01F4615E00121617684
S315080051C0174611E0BBF1030F01D01F460CE0012280
S315080051D0A27609E0BBF1010F37D0BBF1030F03D16B
S315080051E00122A27600E01F4653B117B1BBF1010FA9
S315080051F006D95346039A3146284619F017FCA0608B
S31508005200A37D13B1236953442361237E114A12787F
S3150800521093421CD201332376B8F1000F13D0A37D35
S315080052208BB1E37D7BB177B9BBF1030F0BD0A168D6
S31508005230B1F1FF3F07D0129B00930123224628466F
S31508005240FFF7C2FEA075A77DDBE61746CCE700236D
S31508005250A375E1E7208902082DE9F04F89B00546D4
S315080052600F4692469B4600238DF80B304FF0FF31D0
S31508005270104600F0EFFFB7F5801F1DD300230093FB
S3150800528017F1020F07D0009B002B40F09E802B7C65
S31508005290002B00F08C80EB6AB3F1FF3F2CD02A6814
S315080052A09B1A6A6CB3FBF2F917F1020818BF4FF0A4
S315080052B00108002301935DE00DF10A02394605F164
S315080052C0080000F017FF0146B0F1FF3F11D0504625
S315080052D000F0C0FF0DF10B0301225146284619F0D4
S315080052E024FC00900028CBD09DF80B308BF80030BA
S315080052F0C6E700230093C3E7696A284619F0B7FA98
S315080053008146D1E70123019337E09DF80B308BF8EE
S315080053100030324B1A683249504620F027FC009478
S315080053202F4B9968B1F1FF3F1BD06B6C5B4281EA4A
S3150800533006021A4215D12A4C204600F08BFF0DF1C1
S315080053400B0342462146284619F0EFFB044600287F
S31508005350E6D017F1020FD8D0214B1B68BB42DFD12C
S31508005360D3E74946284619F082FA8146019BCBB90C
S31508005370009BBBB96B6A4B45C4D02C686B6C03FBAE
S315080053800944EB6B5B69052203A92046984703A8E5
S315080053901AF0E5FA1AF00AFB20461AF013FB06463D
S315080053A00146BFE7009BA3B1B7F5801F03D3009B57
S315080053B08BB100200AE09BF80030DAF80420394661
S315080053C005F1080000F0B4FEF1E7002009B0BDE8D9
S315080053D0F08F2D20FAE72D20F8E700BF1C89020878
S315080053E08831002070B582B004464FF0FF33C3629F
S315080053F00DF107031A4A6FF00101FFF72DFF20BBD5
S31508005400174B9B68E362E56A2946204619F020F89F
S315080054102063E8B12946204619F0F8FA0546A36A3A
S31508005420AB421BD02946204619F012F80646236BD4
S31508005430034423632946204619F0E8FA0546002E58
S31508005440EDD100232363E062E9E7A36AE362DAE7C2
S31508005450E16A204619F0DAFAE062DBE702B070BDCD
S31508005460B431002030B583B01C46032A14BF00228D
S3150800547001221B7E9A4202D0012003B030BD0D46A0
S31508005480096823689942F7D363689942F4D80DF1FD
S315080054900703114AFFF7E0FE0028EDD10E4B5A68C4
S315080054A06B689A42E8D19DF80730032B14BF002396
S315080054B00123227E9342DFD1636901336361236945
S315080054C0E2689342D8D2A268296842F82310236971
S315080054D001332361D0E700BFB43100202DE9F04144
S315080054E082B004460E4690461F46816A06E01A4B6D
S315080054F09968B1F1FF3F1FD0012E23D0E06A884298
S3150800550017D0B1F1FF3F14D0134D284600F0A2FE84
