:020000040800F2
:1000000000200020C140000863DA010863DA01081B
:100010004123020863DA010863DA010863DA0108A0
:1000200063DA010863DA010863DA010863DA0108B8
:1000300063DA010863DA010863DA010863DA0108A8
:1000400063DA010863DA010863DA010863DA010898
:10005000A16A000863DA010863DA010863DA0108BB
:1000600063DA010863DA010863DA01080D3C00086D
:10007000FD3B000863DA010863DA010863DA01086E
:1000800063DA010863DA010863DA010863DA010858
:1000900063DA010863DA01081D4D000863DA01081C
:1000A00063DA010863DA0108E1470008B94700088C
:1000B00063DA010863DA01083DAE0108E9B8010816
:1000C0005B540208575402089DB00108715402089D
:1000D0005F540208B9B80108635402084DB9010819
:1000E00085B9010863DA010863DA01080DCA00085E
:1000F00063DA010863DA010863DA010863DA0108E8
:1001000063DA010863DA010863DA010863DA0108D7
:1001100063DA010863DA010863DA010863DA0108C7
:1001200063DA010863DA010863DA010863DA0108B7
:1001300063DA010863DA010863DA010863DA0108A7
:1001400063DA010863DA010863DA010863DA010897
:1001500063DA010863DA0108776F0208299301085E
:1001600063DA010863DA0108F5530208FB53020859
:10018000194A5AB3194BDB6913F0040F29D110B483
:100190000AE003EA00048C4210D0013AB2B1134BDA
:1001A000DB6913F0040F14D110F0010FF1D1104CE2
:1001B0001C40002CEDD06FF001000CE00C4A1A40FE
:1001C0000AB9002007E06FF0010004E06FF00200C0
:1001D00001E04FF0FF305DF8044B70476FF0020014
:1001E00070474FF0FF307047809698000000035032
:1001F000020001000D4BDB6913F4803F12D170B592
:100200000A4B03F580560124F46003F500552C6475
:100210004FF480721A6100212046FFF7B1FF346469
:10022000EC6070BD6FF00100704700BF000003502C
:1002300010B5124B4FF480329A6603F51C33DC691B
:10024000144041F67132DA6303F580520121D16026
:10025000586102221A6100212120FFF791FF40B16D
:10026000074B0122DA601CB1A3F500530022DA63C8
:1002700010BD00212120FFF783FFF1E7009000501F
:100280000020035038B51A4B5861DB6913F0040F96
:100290002AD10C4654F8041B154B9961151F06E032
:1002A000214651F8042B124B9A61043D0C465DB176
:1002B00008210846FFF764FF03460028F0D00C4AE7
:1002C00004211161184638BD094B04221A6100212E
:1002D0002120FFF755FF03460028F3D100212120FC
:1002E000FFF74EFF0346EDE74FF0FF33EAE700BFAD
:1002F000000003502DE9F0410F46164605461A4B03
:100300004FF480329A6603F51C33DA6902F48038C0
:1003100041F67132DA6303F580530122DA6000237B
:1003200002E025442744361B8EB105F5005424F421
:10033000FF5424F01F04641BB44228BF34462246F5
:1003400039462846FFF79EFF03460028E9D0074AB2
:100350000121D160B8F1000F03D0A2F500520021B5
:10036000D1631846BDE8F081009000500020035092
:10037000000000000000000000000000000000007D
:10038000013800D0FCE770472DE9F04F2DED028BCE
:1003900093B082460C4693461D4657EC106B8DED8C
:1003A000080B32463B46304639461BF0BFFF00285B
:1003B00000F009814FF0FF32B14B304639461BF057
:1003C000DDFF002840F0FF804FF0FF326FF4801314
:1003D000304639461BF0B4FF002840F0F48000227C
:1003E0000023DDE90867304639461BF0A9FF0028E5
:1003F00040F0FC809DED087B8DED067B209B13F487
:100400008063119301D106231E93DDE906010246A4
:10041000C1F30A50C1F31303904643F07F5949F4E6
:100420004019A0F2FF301BF0AFFC83A3D3E90023F7
:100430001BF014FD82A3D3E900231BF059FB0646F1
:100440000F4600228F4B404649461BF04FFB7EA3D0
:10045000D3E900231BF002FD02460B463046394625
:100460001BF046FB1BF094FF06461BF08DFC8046FC
:10047000894677A3D3E900231BF0F0FC0022824BCE
:100480001BF036FB1BF084FF074673A3D3E9002360
:10049000404649461BF0E2FC8046894638461BF040
:1004A00073FC6FA3D3E900231BF0D8FC02460B4674
:1004B000404649461BF01AFB8046894602460B46D9
:1004C0001BF0CCFCCDE90C0107F2FF370021002224
:1004D000CDE90A123B050B9300230A9342464B4693
:1004E000404649461BF004FBCDE90E0142464B460F
:1004F00000204FF080411BF0F9FA80468946002227
:10050000624BDDE90C011BF0D3FD0022604B1BF0B8
:10051000EFFA02460B46DDE90C011BF0C9FD002293
:100520005C4B1BF0E5FA02460B46DDE90C011BF0C3
:10053000BFFD02460B46404649461BF0D9FA02462B
:100540000B46DDE90E011BF0B3FD0022524B1BF000
:10055000CFFADDE90A231BF081FC8046894649EC8D
:10056000188BDDE906231BF009FF40B1013E002294
:10057000474B404649461BF09BFD41EC180B06F1EA
:100580006303C62B3BD80427209B13F4006F40D095
:1005900035A3D3E90023DDE90689404649461BF02F
:1005A000E3FE00283BD032A3D3E90023404649466E
:1005B0001BF0C6FE002832D01E9BB34221DD9E1BDD
:1005C000731E1E931FE0209B02931F9B01931E9B93
:1005D00000939DED080B2B465A462146504600F0ED
:1005E000CBF813B0BDEC028BBDE8F08F9FED227B02
:1005F0008DED067B069607F100430793FEE605277F
:10060000C2E700231E93209B43F4806320930027BE
:100610003E461F9B9F4241D2A3EB070840E01E9B32
:10062000002BF6D0119B002BF3D01E9B013B1E9399
:10063000EFE700BFAFF30080FB799F501344D33F37
:10064000B3C8608B288AC63F61436F63A787D23FD8
:1006500071A379094F930A401655B5BBB16B02409F
:10066000EF39FAFE422EE63F2D431CEBE2361A3FED
:100670000000000080842E41000000000000000007
:10068000FFFFEF7F0000F83F0000E03F00002C403C
:1006900000002440000018400000F03F4FF0000828
:1006A000209B13F0020902D00FB14FF000083EB1B9
:1006B00053EC182BDDE906011BF0FAFCCDE906012D
:1006C00000220023DDE908011BF03AFE00283BD19F
:1006D000209B23F400630293CDF804801E9B0093BB
:1006E0009DED060B2B465A462146504600F044F835
:1006F000002F3FF476AF209B13F0200F2CD04FF04B
:10070000450C00F101082B46024621466046D047C1
:1007100086EAE672A2EBE67205230593013F049791
:10072000002303930A230293F30F019300922B46B5
:1007300042462146504623F084FAB9F1000F3FF4B7
:1007400050AF02461F9F10E0DDE90601024601F1AD
:100750000043CDE90623BBE74FF0650CD1E7561CFB
:100760002B4621462020D0473246A2EB0B03BB424A
:10077000F5D3104635E700BF2DE9F04F2DED028B84
:1007800093B00590089192469B4659EC108B1E9DA4
:1007900042464B46404649461BF0C8FD002840D023
:1007A0004FF0FF326FF48013404649461BF0C8FDFE
:1007B000002845D14FF0FF32B14B404649461BF06F
:1007C000DDFD00284BD1AAA3D3E9002340464946CA
:1007D0001BF0D4FD00285AD1A7A3D3E9002340463B
:1007E00049461BF0ADFD002851D1002200234046B0
:1007F00049461BF0A5FD002857D100230993209BF3
:1008000013F4806F5CD000241F2C5BD8092D59D9BC
:1008100004F148036B44302203F8202C013D0134DD
:10082000F2E7209B03931F9B029303230193954BB5
:1008300000935B4652460899059823F028F910E189
:10084000209B03931F9B0293042301938E4B0093E1
:100850005B4652460899059823F019F901E1209B5F
:1008600013F004030FD0894A7BB10423209903912C
:100870001F990291019300925B4652460899059890
:1008800023F005F9EDE0824AEEE70323EEE7209B33
:1008900002931F9B0193009549EC108B5B465246D7
:1008A00008990598FFF770FDDBE042464B460020B3
:1008B00000211BF01BF980468946012309939EE71E
:1008C0000625A0E7404649461BF062FD06461BF0A0
:1008D0005BFA02460B46404649461BF007F96D4B52
:1008E00003EBC50393ED008B53EC182B1BF0B6FA0A
:1008F00002460B46CDE906231BF072FD07461BF0AE
:1009000033FA02460B46DDE906011BF0EFF802461A
:100910000B46CDE9062300225F4B1BF02FFD50B3A1
:10092000013738461BF020FA02460B4651EC180BF3
:100930001BF010FD08B10136002755BB30461BF0F7
:1009400023FA02460B46404649461BF0CFF8804644
:1009500089460022504B1BF0F3FC38B100224E4B6D
:10096000404649461BF00AFD002842D016F0010F10
:100970003FD001363DE00022474BDDE906011BF088
:10098000DFFC0028D9D117B117F0010FD5D00137FE
:10099000D3E71F2C17D8013D404BA3FB0723DB08EF
:1009A000194603EB8303A7EB4303621C303304F1C6
:1009B00048000DEB000404F8203C092F02D90F4633
:1009C0001446E6E714461F2C0AD86B1E45B104F105
:1009D00048026A44302102F8201C1D460134F2E727
:1009E0001F2C06D804F148036B442E2203F8202C58
:1009F00001341F2C17D82A4A82FB0632F317C3EBA7
:100A0000A2031A4603EB8303A6EB4303611C3033B6
:100A100004F148000DEB000404F8203C16460AB12E
:100A20000C46E6E70C46209B03F00303012B39D06C
:100A30001F2C09D8099B002B51D004F148036B44AB
:100A40002D2203F8202C0134209B03931F9B02933B
:100A500001940AAB00935B4652460899059823F02F
:100A600016F813B0BDEC028BBDE8F08FAFF3008039
:100A70000000000065CDCD410000000065CDCDC176
:100A8000FFFFEF7FCC8A0208D08A0208C08A0208E2
:100A9000C88A0208D88A02080000E03FCDCCCCCC3E
:100AA000676666661F9BB3B1099B1BB9209B13F059
:100AB0000C0F12D01F9B013B1F93194606E004F157
:100AC00048036B44302203F8202C01348C42AFD20F
:100AD0001F2CF4D9ACE71F99F8E71F99F6E7209B84
:100AE00013F0040F07D004F148036B442B2203F8E2
:100AF000202C0134A8E7209B13F0080FA4D004F1A8
:100B000048036B44202203F8202C01349CE700BFEB
:100B100038B50D46044625F038FF064A13889BB2C7
:100B20002DB123431380BDE8384025F029BF23EAC7
:100B30000403F7E7A44B00200022034B01214FF4EC
:100B400080709A70E4E700BFA44B00207FB54E6828
:100B500002A9044623F00FFF9DF808300C2B19D191
:100B6000134BB3F90050134B9E4218D808F0AAF863
:100B700003460068694600909B882046ADF8043023
:100B800023F0E6FE70B140F25F620B490B480DF0B6
:100B9000ADFEFEE7204613F0ABFC0546E3E71FF091
:100BA00009FBE5E72946204623F0B8FE04B070BDF6
:100BB00076510020FFC99A3B818D02084C8B0208B8
:100BC000002330B5134C85B0CDE90133039323786E
:100BD0008DF8043025F0D9FEA288E38805469A42B4
:100BE0000DD0E188A06801AAA18023F04DFD58B185
:100BF00040F2DA62084909480DF078FEFEE7A06885
:100C000023F01BFD0128ECD0284625F0B9FE05B0E5
:100C100030BD00BFD8560020818D02084C8B0208E1
:100C200038B50F4C656835B940F2C7720D490E48AA
:100C30000DF05CFEFEE723F0D9F8284410F0A6FD85
:100C400000F00700032809D164680921204623F039
:100C5000E9F9205C031F5842584138BD0020FCE7E9
:100C6000A44B0020818D02084C8B020808B5114B63
:100C70009A78042A06D040F28E520F490F480DF0A0
:100C800035FEFEE71B881B0706D440F28F520A4947
:100C90000A480DF02BFEFEE700210820FFF738FF81
:100CA0000222074B98681A7313F0DCF9BDE808407C
:100CB00021F0A0BCA44B0020818D02084C8B0208BF
:100CC000D856002010B5084CA06813F0CBF9A068E6
:100CD00023F0B3FC012806D00122A0681146BDE82C
:100CE000104023F0ACBC10BDD856002038B5194DCB
:100CF000AB7833B140F22B72174918480DF0F6FD6E
:100D0000FEE725F042FE2988044611F0060109D0CD
:100D100001214FF48070FFF7FBFE2046BDE838400C
:100D200025F02EBE4FF48070FFF7F2FE12F0ECFAC1
:100D3000012805D010F0FD0F05D1FFF741FFECE7CA
:100D4000FFF7C0FFE9E740F24172034903480DF0A5
:100D5000CDFDFEE7A44B0020818D02084C8B0208DC
:100D600070B50446064D95F90860FFF7BFFF12F015
:100D7000C9F9314620466A68BDE8704011F0FABFF3
:100D8000A44B002008B50A4B1B88DB0606D440F2B2
:100D9000A752084908480DF0A9FDFEE700211020E0
:100DA000FFF7B6FE12F02CFBBDE8084021F022BC94
:100DB000A44B0020818D02084C8B02080D4B10B50E
:100DC0001B8804469B0713D500210220FFF7A0FED5
:100DD000094B5A7BFF2A06D040F2E54207490848F2
:100DE0000DF084FDFEE75C73BDE8104021F002BC0D
:100DF00010BD00BFA44B0020D8560020818D0208F2
:100E00004C8B02087047704707B5ADF806100146D5
:100E100030B94FF4B572104910480DF067FDFEE788
:100E2000BDF8063033B940F26B120B490B480DF098
:100E30005DFDFEE70A4B0DF10602986823F052FEB5
:100E400030B140F26D12044904480DF04FFDFEE749
:100E500003B05DF804FB00BF818D02084C8B0208D3
:100E6000D856002010B50E4CA37833B14FF4EA7277
:100E70000C490D480DF03AFDFEE7606019B1A17B09
:100E8000003918BF01212020FFF742FE074B084818
:100E90009B7B23760223A370BDE8104010F042BB79
:100EA000A44B0020818D02084C8B0208D8560020EC
:100EB000C04B002008B50CF047F880F00100C0B22C
:100EC00008BD0A4B9A780AB1062A0CD11B8803F494
:100ED0008B7343B9064B5A7BFF2A04D1187BFF382A
:100EE00018BF012070470120704700BFA44B0020AD
:100EF000D856002008B50CF017F80028FBD108BD23
:100F00000C4B42889A8142789A730278DA7382880D
:100F10001A82C2885A82C2685A61017A064A91735B
:100F2000028A998C914204D001214FF400709A8476
:100F3000EEE57047A44B0020D8560020094B9A8953
:100F400042809A7B4270DA7B02701A8A82805A8AC7
:100F5000C2805A699B8CC260034A0382927B0272F0
:100F6000704700BFA44B0020D85600204B1E012B19
:100F700070B50C4606D940F2B7221A491A480DF04E
:100F8000B5FCFEE7194D0A460146A86823F0D4FDDA
:100F900030B140F2B922134913480DF0A7FCFEE727
:100FA000AE6810F033FA22460146304623F0BEFD0B
:100FB00030B140F2BD220B490B480DF097FCFEE723
:100FC000AD6810F02FFA22460146284623F0BAFDFC
:100FD00030B140F2C122034903480DF087FCFEE71F
:100FE00070BD00BF818D02084C8B0208D8560020CE
:100FF000054BDB7B1B0913F00E0003D0052B8CBFC8
:1010000000200120704700BFD8560020044BDB7B36
:101010001B0913F00E0F0CBF01200020704700BF0A
:10102000D85600202DE9F04F15469A0580461F46F8
:101030008FB003D501218020FFF76AFDEB014FF04F
:10104000000955D5984C23889E0751D5974E737B40
:10105000FF2B06D040F2AF42954996480DF046FC72
:10106000FEE7636833B94FF49662914991480DF0F9
:101070003DFCFEE749460220FFF74AFDA37886F8CB
:101080000D90042B03D101210820FFF741FD00231F
:10109000B06808A98DF82C3023F06FFC30B140F215
:1010A000BA42834983480DF021FCFEE7FFF7A0FF19
:1010B000B0B922F09BFE8146606822F0A2FE08A92A
:1010C0008144B068ADF8249023F05AFC30B140F26E
:1010D000C242774977480DF009FCFEE7089BA362FE
:1010E000A378032B02D1B06812F0BCFF21F082FA82
:1010F000B80702D50120FFF761FE15F0A84F02D016
:101100000220FFF75BFEA90220D50021402003AC9E
:10111000FFF7FEFC2146404623F02CFDB0B99DF8B8
:10112000143008AA022B22D18DF82830BDF80C30DB
:10113000ADF82030104611F0EFFF38B1404623F0F3
:1011400017FD18B901214020FFF7E2FC2A0753D50B
:10115000564E0321B06803AA23F0C6FC814688B925
:1011600040F2FE42524953480DF0C0FBFEE7032B0C
:1011700005BF8DF82830D4E900018DF82800C2E9B8
:101180000001D7E79DF80C30B068072B40F01F81B5
:10119000494608AA23F0AAFC30B140F20152444962
:1011A00044480DF0A3FBFEE7FFF722FFBDF80E2039
:1011B000A0B9FFF72BFF78B1043292B2B06808A94A
:1011C000ADF8242023F094FC40B140F2125238498B
:1011D00038480DF08BFBFEE70232EEE7BDF80E005B
:1011E0000121073080B225F001FB8246002842D160
:1011F00001210C2012F0CAFEA90705D52A4B1B8835
:101200001A0701D5FFF732FDAB010BD500210420F1
:10121000FFF77EFC244B9B78012B03D1234B98686E
:1012200012F020FF15F0284F03D000210420FFF713
:101230006FFC7E060CD51C4C23881D0701D5FFF7DB
:1012400015FD2388580703D500210420FFF760FC13
:10125000F90540F1D88003A9404608AA23F0EBF92C
:101260000146002800F0BA8040F2D25210491148DD
:101270000DF03CFBFEE74FF0000B25F03BFACDF8FC
:1012800000B00246BDF80E3004464946B06823F06F
:1012900033FCBDF80E3083420ED040F22252044996
:1012A00004480DF023FBFEE7A44B0020D856002095
:1012B000818D02084C8B020822F098FD204410F02A
:1012C00065FA00F007000228DFF8589124D199F858
:1012D0000230042B90D122F089FD504B20448278BB
:1012E0001B789A4288D159460820FFF711FC22F05A
:1012F0007DFD204410F04AFA9DF82E30C0F3001016
:10130000307389F80830FFF78BFC00287FF474AF46
:10131000B06812F0A7FE6FE722F068FD204410F0DD
:1013200035FA83064AD522F061FD204410F02EFAEA
:1013300000F0070003280BD10921204622F072FE9D
:1013400014F800B0ABF1040CDCF1000B4BEB0C0B10
:1013500001210420FFF7DCFBB06823F0E0FBC9F8B3
:101360002C00BBF1000F30D0B9F8003058062CD556
:1013700000214020FFF7CCFB0126BDF80E309DF880
:101380002E200120E254BDF80E309DF82F2023447A
:101390009A71BDF80E10089A0131214410F004FA38
:1013A000BDF80E3050461C44667125F077FA1C4B90
:1013B000187810F0BDF921F01DF91DE799F80230F9
:1013C000012B02D1B06812F04DFE0026D5E723F0C4
:1013D0006FFB4946B06823F08DFB0DE79DF80C309C
:1013E00003F0BF02032A01D0022B0FD10D4C23883A
:1013F0005A0702D50420FFF78BFB23889B0702D5F1
:101400000120FFF7DBFC0FB0BDE8F08F4FF4BF62A7
:10141000054906480DF06AFAFEE700BF114C0020AE
:10142000344B0020A44B0020818D02084C8B020815
:1014300008B50246FFF7DCFD30B1072A06D80020C8
:10144000034B83F8302008BD7020FCE70220FAE748
:10145000A44B002008B50246FFF7CAFD28B10020C2
:10146000034B93F83030137008BD7020FCE700BFC9
:10147000A44B002008B5074B01460022986823F0D2
:101480005BFB30B140F2EB22034904480DF02EFA29
:10149000FEE708BDD8560020818D02084C8B02085B
:1014A00008B5074B01460022986823F03FFB30B196
:1014B00040F2F122034904480DF018FAFEE708BD96
:1014C000D8560020818D02084C8B020808B5074BC6
:1014D0000146986823F03CFB30B140F2F722044902
:1014E00004480DF003FAFEE708BD00BFD8560020FF
:1014F000818D02084C8B020808B5074B9B7833B1ED
:1015000040F20132054906480DF0F0F9FEE7BDE86A
:101510000840FFF7EBBB00BFA44B0020818D020801
:101520004C8B020808B5054B0146986823F0F6F984
:10153000002814BF8B20002008BD00BFD856002013
:10154000014B986812F0D4BFD8560020014BD888C0
:10155000704700BFD85600207FB50123ADF80E308C
:101560004FF6FE7309480093806800230DF10E02C8
:1015700004A923F060F9212800D020B9BDF810009B
:1015800007B05DF804FB4FF6FF70F9E7D85600206E
:1015900008B5044B0146986823F001F9B0FA80F0D1
:1015A000400908BDD856002038B50B4D0446AB782D
:1015B000012B0DD8FFF7ECFF60B1084BDC80AB7856
:1015C0001BB9FFF793FB002038BDFFF7F9FAFAE7E4
:1015D0003E20F9E78A20F7E7A44B0020D8560020E8
:1015E000024B9B780BB9FFF781BB7047A44B0020DF
:1015F000014BD873704700BFA44B002008B5064BC1
:101600004FF0FF31986823F043F80028B8BF03304B
:1016100040F3870008BD00BFD856002008B5044B32
:10162000986823F0B8F8034BB3FBF0F080B208BD24
:10163000D856002040420F0030B58DB02C22044611
:10164000002101A823F0A1FF01234FF002328DF801
:1016500008306423CDE9032306930B238DF82C3047
:10166000214B9B8CADF80A30FFF7C2FCA8B140F2C9
:10167000F23307934FF47A7305930CB9FFF722FB0B
:101680001A4D01A9A86813F007F8C0B140F2AC6286
:10169000174918480DF02AF9FEE7FFF7BFFF0C23A2
:1016A0004343902B0793A3F10A02D8BF91230592DD
:1016B000D8BF0793059B8B2BDFD88C23DCE7FFF784
:1016C000A5FC60B10122A868114623F04FFA30B1A1
:1016D00040F2AF62064907480DF008F9FEE70CB981
:1016E000FFF704FB0DB030BDA44B0020D8560020FE
:1016F000818D02084C8B0208F8B525F046F9554C4F
:1017000006462388D90503D5A37843BBFFF7EEFA35
:10171000514D6B7BFF2B13D06B7B03F0FF0723BB7B
:10172000FF236B73A378032B0AD100233046A370E9
:1017300025F026F93846FFF713FB25F026F9064673
:10174000A378042B08D12B7BFF2B05D02B7B022BFE
:1017500014D142480FF0E6FEFF232B7327E000214F
:101760004FF48070FFF7D4F9D2E76B7B012B4FF079
:10177000FF0314BF89278D276B73D6E72B7B13B12B
:101780002B7B012B1ED1FFF74BFA0022FF212B7B75
:101790000746DBB222772973002847D0012B0AD1F4
:1017A00064212E48A3700FF0C8FEFFF709FA3046F7
:1017B00025F0E6F806E03046A27025F0E1F8312089
:1017C000FFF7CEFA23881A0608D500218020FFF7FC
:1017D0009FF9A86823F00DF911F0F3FD23889B050C
:1017E00007D54FF400700021FFF792F90020FFF7B2
:1017F00023FF0BF099FB608620B324F07BFF0121CF
:101800000546002012F0C2FBA678012E14D1002656
:101810002677A670FFF76AFA284611F0CDF9A3786B
:1018200066867BB9BDE8F84011F06CBCA07030460C
:1018300025F0A6F83846C3E72EB1284611F0BCF9CA
:1018400000236386F8BDFFF751FA284611F0B4F97A
:101850006686F7E7A44B0020D8560020C04B002036
:101860008B4BF0B51B888B4C8B4D63848B4B85B0B9
:101870001B68E3628A4B1B8823848A4B1B68A36224
:101880002B88DB0700F1FC8001210846FFF740F9B7
:101890000523854A04F1100104F10800AB7012F031
:1018A000A3FB28B1F522814981480DF01FF8FEE71E
:1018B000A3682BB9F7227D497D480DF017F8FEE7A4
:1018C0007C4822F000FF70A3D3E90023CDE9002378
:1018D0004FF0FF324FF0FF33A06822F0A3FF4FF428
:1018E0008811A06812F07CFE014630B140F20F1260
:1018F0006E496F480CF0FAFFFEE76F4B1B78012B27
:101900000ED16E4AA06812F03DFCA06812F0F2FE03
:10191000E0B140F21B12654965480CF0E7FFFEE7B5
:10192000674E316831B94FF48F72604960480CF0EE
:10193000DDFFFEE7614AA06812F024FC33689B6873
:1019400023B1DB6913B15B7803B1E373FFF704FEE6
:101950000146E080A06812F091FD064630B140F2E9
:101960002D12524952480CF0C1FFFEE7554B0120A1
:101970001B78C3EB431203EB8203DB00AB84FFF75E
:101980005BFEA7680FF04EFD32460146384623F055
:10199000D9F8064630B140F23312444944480CF0BD
:1019A000A5FFFEE740F203530427AB81464BAF731C
:1019B0001B78EB73FFF732FE00EB80039B002B825A
:1019C000FFF72CFEC00068823946A0686E6122F0E5
:1019D000D1FE30B14FF4A172344935480CF086FF86
:1019E000FEE73A46A06803A922F057FF042806D074
:1019F0004FF4A3722D492E480CF078FFFEE703A99F
:101A000001200FF0DFFE0BF015F808224FF0FF3138
:101A1000A06822F018FF30B140F24F122349244849
:101A20000CF064FFFEE712F0E5FF30B140F2551212
:101A30001E491F480CF05AFFFEE7FFF7D9FA68B1BC
:101A40001EF0BAFB0146A06822F082FF30B140F2DE
:101A50005912164916480CF049FFFEE7A468FFF733
:101A60007BFD1A4B014603F10C02204622F00EFECC
:101A700030B14FF4B0720D490D480CF037FFFEE75E
:101A800005B0F0BDAFF300800A0020FF4203000064
:101A900078900208D8560020A44B00207C900208C1
:101AA0007A90020880900208390B0008818D0208A4
:101AB0004C8B0208690345ECF54B00204D0B0008E8
:101AC000C05400207C5800207B580020AC8D0208B8
:101AD00008B5044B986822F060FE034BB3FBF0F0AE
:101AE00080B208BDD856002040420F002DE9F043D7
:101AF0008C4D87B02B889B0706D440F24C728A49E4
:101B00008A480CF0F3FEFEE7AB78033B012B06D9C5
:101B100040F24E72844985480CF0E8FEFEE76A68A0
:101B200032B940F25172804980480CF0DFFEFEE786
:101B30007F4E2C88F77B14F0200418BF4FF47A7482
:101B40004FEA1718FFF754FA00287DD0B8F1020FBA
:101B50000AD0A8F10303022B74D940F265727249CE
:101B600072480CF0C3FEFEE7032795F8303008EB0F
:101B7000C80898446F4B104603EB4803B3F81C8029
:101B800022F03FF94FF4FA534343B3FBF8F37822C2
:101B90007733B3FBF2F31F44C7EB0717AB78FF00B3
:101BA000BFB204F5347417FA84F4042BA4B203D141
:101BB00007F6E8072744BCB2D5F8048022F016F9EE
:101BC0000746686822F01DF9074422F035F9BFB2D4
:101BD0003F1A22F00BF940440FF0D8FD7378C0F3A0
:101BE00040198DF80C30544BBFB2CDE904340024B9
:101BF00022F02EF9009402463B464146B06822F09E
:101C000059FF287EB278737812FB00F29342C4BF6A
:101C10009B1ADCB22B88F18813F0200FB068B180DA
:101C20008DF80C4003AB76D000934A46434B22F02C
:101C300022FD002873D040F224723B493B480CF04F
:101C400055FEFEE7062790E7FFF7E0F9002846D0AB
:101C5000384B07F00F0708EBC801394403EB410389
:101C60001046B3F81C9022F0CCF8B8F1000F2CD03D
:101C7000B8F1010F2CD14FF00408400080B2F319E5
:101C800093F834304BB14FF4FA52023303444344D7
:101C90009BB25343B3FBF9F39CB2AB78042B8BD1CB
:101CA000FFF7BCFC374497F834308146053398443D
:101CB000FFF70EFF0C2308FB00F003FB09F909EB0B
:101CC000C009A1441FFA89F476E74FF00208D6E76D
:101CD00040F28672144915480CF008FEFEE7FFF743
:101CE000F7FE0746686822F08CF809307843AB7835
:101CF00004EBC000042B84B27FF45EAFFFF78EFCD0
:101D00000746FFF7E5FE602358430C2303FB07005B
:101D1000204484B250E74A4622F0ABFC89E707B082
:101D2000BDE8F083A44B0020818D02084C8B020893
:101D3000D8560020AC8D020820A10700B04B00202F
:101D4000F8B5494C258815F0020506D040F2751209
:101D5000464947480CF0CAFDFEE7257724F015FEFA
:101D6000238806465A070CD5424B986822F0D7FEC6
:101D7000E36AC01AA38C984203D929460420FEF7CF
:101D8000C7FE304624F0FCFDA778022F37D124F09F
:101D9000FCFD2388064613F0040507D036480FF0F3
:101DA000C1FB3046BDE8F84024F0EABD24F0E8FD70
:101DB000606811F0E1F920B1A570BDE8F840FEF7C8
:101DC000CFBF24F0E2FD6668054622F00FF83044EC
:101DD0000FF0DCFC10F0200F0CBF032304230121C3
:101DE0003846A370FEF794FEFFF780FE284624F0E5
:101DF000C7FD01210846BDE8F84012F0C7B8042F1E
:101E000027D11C4B1B7BFF2B2DD1237EF3B124F05C
:101E1000BCFD238805465B0704D517480FF082FBFD
:101E20002846BFE724F0ACFD237E013B237624F057
:101E3000ACFD044601210220FEF76AFEFFF756FEC4
:101E4000204624F09DFD01210820D4E74020A37006
:101E5000B3E7012F07D10023A370064B986812F057
:101E600001F93120A9E7F8BDA44B0020818D0208BB
:101E70004C8B0208D8560020C04B002038B50121F9
:101E800004461020FEF744FE064B9D68FFF7C6FB94
:101E9000012200FB04F1044B284622F0D5FB002070
:101EA00038BD00BFD8560020850D000808B50A4B84
:101EB0001B88DB0606D44FF46172084908480CF011
:101EC00015FDFEE710200021FEF722FE054B986865
:101ED000BDE8084022F0C6BBA44B0020818D02085B
:101EE0004C8B0208D856002038B50E4D688E30B99C
:101EF00040F291320C490D480CF0F8FCFEE724F05A
:101F0000F9FB0446688E24F013FC811F2144012054
:101F10000FF058FC064B0446986822F000FE001BA8
:101F200038BD00BFA44B0020818D02084C8B0208F5
:101F3000D856002010B5084C636833B94FF4687266
:101F4000064907480CF0D2FCFEE7064B986822F0E1
:101F5000E6FDA36AC01A10BDA44B0020818D0208C3
:101F60004C8B0208D856002038B50A4D688E30B91F
:101F700040F2AA32084909480CF0B8FCFEE724F008
:101F8000B9FB0446688E24F0D3FB044414F8020C19
:101F900038BD00BFA44B0020818D02084C8B020885
:101FA00038B50A4D688E30B940F2B932084909484F
:101FB0000CF09CFCFEE724F09DFB0446688E24F0A8
:101FC000B7FB044414F9070C38BD00BFA44B002034
:101FD000818D02084C8B020838B50A4D688E30B9E5
:101FE0004FF47272084909480CF080FCFEE724F0B7
:101FF00081FB0446688E24F09BFB044414F9010C19
:1020000038BD00BFA44B0020818D02084C8B020814
:10201000024B1888C0F3C010704700BFA44B0020CB
:1020200030B585B005466C460D4B0FCB84E80F00EC
:102030000DB12B6800930B4B21460022986812F0DB
:102040006DFA044630B140F2E632074907480CF019
:102050004DFCFEE7FEF7B4FD204605B030BD00BFE5
:10206000348E0208D8560020818D02084C8B02085D
:1020700030B5154D87B004460DF10701A86822F070
:10208000D3FB30B140F2F732104911480CF02EFC6E
:10209000FEE79DF80720531EDBB2FD2B0FD90294FB
:1020A000FF2A00D10394A86802A922F0A5FC40B140
:1020B00040F20442054906480CF018FCFEE7012AEC
:1020C000EFE707B030BD00BFD8560020818D020871
:1020D0004C8B020808B5064B986822F09CFC30B186
:1020E0004FF48262034904480CF000FCFEE708BD8F
:1020F000D8560020818D02084C8B02080122024B29
:102100001146986822F09BBAD85600207047F8B55F
:10211000064604200D4621F04BFE030622D5124F41
:10212000BC78FCB926B1012E17D002242046F8BD98
:1021300001262846FFF72CFA0028F6D00B4800238A
:1021400032462946806822F098FA40B14FF48A62FC
:10215000074908480CF0CAFBFEE72646E9E70623D4
:10216000BB70E3E77024E1E7A44B0020D8560020C1
:10217000818D02084C8B0208042010B521F018FE56
:10218000030611D5094CA378062B0DD1084B98688E
:1021900022F075FA30B140F26A42064906480CF066
:1021A000A5FBFEE7A07010BD7020FCE7A44B00204B
:1021B000D8560020818D02084C8B02081FB50446BA
:1021C00001A812F073F99DF80D3053B14CB1064BD4
:1021D0002078617818700020A27859709A7004B045
:1021E00010BD0220FBE700BFD85600201FB50446F3
:1021F00001A812F05BF99DF80D3053B14CB10020ED
:10220000054B1A7822705A789B786270A37004B0DC
:1022100010BD0220FBE700BFD8560020FFF7CEBF5D
:10222000FFF7E4BF0348044B834202D0034B03B1E2
:102230001847704794580020945800200000000070
:10224000064B0749C91A891048BF0131491003D00C
:10225000044B0BB101481847704700BF9458002049
:10226000945800200000000010B5064C237843B9B4
:10227000FFF7D8FF044B13B10448AFF300800123EC
:10228000237010BD305200200000000020CA020858
:1022900008B5054B1BB105490548AFF30080BDE803
:1022A0000840FFF7CDBF00BF00000000A0220020C3
:1022B00020CA0208A3F5803A704700BF174B002BD5
:1022C00008BF134B9D46FFF7F5FF00218B460F46D5
:1022D0001348144A121A23F058F90E4B002B00D061
:1022E00098470D4B002B00D0984700200021040098
:1022F0000D000D48002802D00C48AFF300801AF002
:10230000A7FD200029001BF0BBFA1AF037FA00BF26
:102310000000080000000000000000000020002075
:1023200000200020A052002000000000000000005B
:1023300008B5074B01229A73064B1B6800221A70DE
:102340004FF49671044B18680FF0F7F808BD00BF02
:102350007C230020B8220020BC22002010B504F00D
:1023600003FB0B4B01220B490B48006804F0BAF940
:102370000A490B480AF0FCF90A4C0B4920460AF0BE
:10238000F7F941F2883120680FF0D7F810BD00BF8F
:102390009D250008F02200205C560020B52600088C
:1023A000BC220020B822002031230008084B9B7B70
:1023B000012B05D01BB9074B93F82E3003707047E3
:1023C000054BD3F8A430C3F340030370704700BF3C
:1023D0007C230020C022002000C0035010B5634BB6
:1023E00093F85930042B0ED8DFE803F003132231A1
:1023F000420003787E2B07D05D4B01225D495E4889
:10240000006804F06FF910BD584B012283F8592081
:10241000F2E70378554981F83130022381F85930C9
:10242000534B012230315448006804F05BF9EAE76D
:1024300003784E4981F83230032381F859304C4BF0
:10244000012230314C48006804F04CF9DBE7037896
:10245000464981F83330042381F8593091F831200E
:10246000434B043A34314448006804F03BF9CAE76E
:102470003E4C002384F85930621C94F8311004F16A
:1024800031001BF02BF9207038B1394B012239494A
:102490003948006804F026F9B5E7384B00229A73F2
:1024A0004FF49671364B18680FF047F8E378482BD5
:1024B00006D0432BE9D12D4B1A7983F82F20E4E77E
:1024C000637A84F82E30013B042BDED8DFE803F07A
:1024D000031221303F00032001F03EFC0028D4D03D
:1024E0001BF070FA1BF06FFA2649274B18681EF094
:1024F00058FFCAE7032001F02FFC0028C5D01BF0CD
:1025000061FA1BF060FA21491F4B18681EF049FF61
:10251000BBE7032001F020FC0028B6D01BF052FAE4
:102520001BF051FA1A49184B18681EF03AFFACE735
:10253000032001F011FC0028A7D01BF043FA1BF088
:1025400042FA1449104B18681EF02BFF9DE7032038
:1025500001F002FC002898D01BF034FA1BF033FA8B
:102560000D49094B18681EF01CFF8EE7C0220020A1
:102570009D250008F02200205C5600207C230020CE
:10258000BC220020E870020824280020F070020815
:10259000F8700208007102080C71020808B50248C0
:1025A000FFF71CFF08BD00BFF022002008B50A4657
:1025B000002301460248006804F05AF908BD00BF34
:1025C0005C56002000B591B0264B9B7B23B1012BBC
:1025D00020D011B05DF804FB8DF814008DF8153093
:1025E0008DF816308DF817300122039204220292E2
:1025F00005AA01924322009202220A2106A81BF09A
:102600002BF80A2106A8FFF7D1FF42F2107004F060
:102610001BFADEE7144BD3F8982722F01002C3F818
:102620009827D3F8982722F00402C3F8982703F5D7
:10263000805320221A6400210C481DF03FFD002326
:1026400004220521184605F02BFD00230122062156
:10265000184605F025FDC821054B18680EF06DFFE2
:10266000B7E700BF7C23002000C0035000C0055026
:10267000BC2200200E4B9B7B03B1704700B58FB08E
:102680000123039300230293019348220092022224
:10269000062104A81AF0E0FF062104A8FFF786FF30
:1026A00042F2107004F0D0F90FB05DF804FB00BFE7
:1026B0007C23002008B5094B20221A64FFF7DAFFBB
:1026C0004FF49671064B18680EF037FF41F28831CF
:1026D000044B18680EF031FF08BD00BF00D0035056
:1026E000BC220020B822002010B582B004461BF0A6
:1026F00060F808B902B010BD00230093ADF80430B3
:10270000074B1B88ADF80230ADF8044044F21623A5
:10271000ADF800306946022020F003F8EAE700BF78
:10272000F857002000B583B000230093ADF80430C3
:10273000094B1B88ADF8023044F22133ADF800306C
:1027400068461FF0EAFF1FF0E4FF0A201FF0EDFFCC
:1027500003B05DF804FB00BFF857002008B513462E
:102760000A4601460448006803F040FA00B908BD73
:1027700002480CF0BBF8FAE79056002018710208E6
:102780000A2800D9704730B583B004460D466B4621
:1027900001AA01461048006803F08EF908B9019BB0
:1027A00023B10E480CF0A2F803B030BD009B2A46BE
:1027B00021460948006803F0BFF840B9214608489F
:1027C0000CF094F8294607480CF090F8ECE7214605
:1027D00005480CF08BF8E7E79056002020710208BE
:1027E0004471020860710208687102080A2800D961
:1027F000704710B504460146064B186803F0C4FA4A
:1028000020B9214604480CF071F810BD03480CF0C3
:102810006DF8FAE7905600208C710208A871020842
:1028200008B50F4B1B786BB90E4B1B780E4A12780C
:10283000B3EB420F07DA01330A4A137001210B4848
:102840001BF0A8F808BD0023094A1370054A13704D
:10285000012106481BF0AEF8064823F0ABFCF1E777
:10286000315200203352002032520020F8820208F8
:10287000345200201C230020037823BB704701330F
:10288000022B22DC03EB4302104911F82220002A1C
:10289000F5D100B50A4603EB430102EB810C4FF082
:1028A000000E8CF801E04FF0010C02F821C002EBA1
:1028B000810301684268C3F80210C3F80620028948
:1028C0005A815DF804FB0023DAE770473C230020BF
:1028D00030B583B004460F4B5D7B21B123788DF872
:1028E000003000230BE0FFF7C7FFF7E7E118497856
:1028F00003F109026A4402F8081C0133DBB2617A71
:102900004A1E9342F2DB6A46284601F0C1F903B041
:1029100030BD00BF7C23002010B5214C2046FFF7BE
:1029200045FD204610F81039427C934206D0A4F1B0
:1029300010025374527B42B1012A26D04FF4967193
:10294000184B18680EF0F9FD10BD032001F004FAD1
:1029500088B915481E23037006234372134A137C5B
:102960004370FF238370C3700371D37A43710021D6
:10297000FFF7AEFFE2E71BF025F81BF024F80C4947
:102980000C4B18681EF00DFDE3E707481E2202708D
:102990004370022343720021FFF79AFFCEE700BF86
:1029A0008C2300209C230020602300207C23002017
:1029B000C07102082428002008B5244B1A789A72A6
:1029C0001B78DBB21D2B08D02B2B18D0102B1BD063
:1029D0001F4B1B6800221A7008BD1C4B1B7C012B6F
:1029E00005D0032B07D00C20FFF7ECFDF0E7022009
:1029F000FFF7E8FDECE70120FFF7E4FDE8E7154B02
:102A000018680EF08FFDE3E7104B5B7B012BDFD1E5
:102A10000E4B5B78DBB2012B07D00C4B5B78DBB243
:102A2000022B06D0094B5B78D2E70C20FFF7CAFDDA
:102A3000CEE709482B230370044B1B7C4370022311
:102A400043720021FFF744FFC2E700BF7C23002050
:102A5000A0230020A42300206023002000B583B021
:102A60008C461146074B1870074B83F800C00123B2
:102A7000019300230093054A054824F017FA03B098
:102A80005DF804FB3152002032520020212800085A
:102A90001C23002008B5044A1AF095FE034B186861
:102AA0000EF040FD08BD00BF7C230020A0230020C5
:102AB00038B504461FF041FEA04201D8012038BDC0
:102AC0000546032001F048F90028F8D01AF07AFFF3
:102AD0001AF079FF2B4622460349044800681EF08D
:102AE00060FC0020EBE700BFD07102082428002022
:102AF00030B583B004468368C26853F822301D881D
:102B00002846FFF7D5FF08B903B030BD0023009376
:102B1000ADF80430164B1B88ADF80230ADF8045008
:102B20006368E2689B1A012B1DDDA368013253F82C
:102B300022301B88ADF800301FF0EBFD6946032002
:102B40001FF0EFFD0446032001F006F90028DBD05A
:102B50001AF038FF1AF037FF22460649064B18686C
:102B60001EF01FFCD0E740F2FF13ADF80030E3E7A2
:102B700070510020087202082428002030B583B06C
:102B800004468368C26853F822301D882846FFF740
:102B90008FFF08B903B030BD00230093ADF80430B7
:102BA000154B1B88ADF80230ADF804506368E2683D
:102BB0009B1A012B1BDDA368013253F822301B88BE
:102BC000ADF80030694604201FF0ABFD0446032039
:102BD00001F0C2F80028DDD01AF0F4FE1AF0F3FE7E
:102BE00022460649064B18681EF0DBFBD2E740F28E
:102BF000FF13ADF80030E5E770510020287202089D
:102C00002428002030B583B004468368C26853F896
:102C100022301D882846FFF74BFF08B903B030BDAE
:102C200000230093ADF80430154B1B88ADF802303B
:102C3000ADF804506368E2689B1A012B1BDDA368A2
:102C4000013253F822301B88ADF80030694602206B
:102C50001FF067FD0446032001F07EF80028DDD058
:102C60001AF0B0FE1AF0AFFE22460649064B18686D
:102C70001EF097FBD2E740F2FF13ADF80030E5E716
:102C8000705100203C7202082428002030B583B027
:102C90008368C26853F822301C780023019343688C
:102CA0009B1A012B19DD01AA01211DF04AFE0146E4
:102CB0009DF804001FF029FD054680B1022001F0B7
:102CC0004BF860B11AF07EFE1AF07DFE2A460649E6
:102CD000064B18681EF065FB01E01FF01AFD204648
:102CE0001FF023FD03B030BD5872020824280020D5
:102CF00010B503468168C26851F82200B0F900009F
:102D00001A4C20805B689B1A012B0FDD013251F8B1
:102D1000223093F90010003918BF01211FF0AAFCDE
:102D2000A0B9032001F018F810B910BD0021F5E793
:102D30001AF048FE1AF047FE0D4B1C681FF09EFC6F
:102D400002460C4920461EF02CFBEEE7012001F064
:102D500003F80028E9D01AF035FE1AF034FE0649CF
:102D6000034B18681EF01DFBDFE700BF7051002009
:102D700024280020BC720208D072020808B51FF097
:102D80006DFC032000F0E8FF00B908BD1AF01AFE40
:102D90001AF019FE0249034B18681EF002FBF4E713
:102DA000E87202082428002008B58368C26853F836
:102DB00022301A88094B1A80032000F0CDFF00B999
:102DC00008BD1AF0FFFD1AF0FEFD044B1A880449F5
:102DD000044B18681EF0E5FAF2E700BFFA5700202E
:102DE000087302082428002008B5024B18680EF06A
:102DF00099FB08BDA42300202DE9F04186B01FF007
:102E000049FC0446894B1B7813F0020F2CD0884EE6
:102E100013F0010F2AD0864F13F0040F28D0DFF8EB
:102E20001082032000F098FF28BB032000F094FFDD
:102E300058BB032000F090FF002835D1032000F09C
:102E40008BFF00283ED1032000F086FF002847D1E9
:102E5000032000F081FF00285ED1032000F07CFFFA
:102E6000002867D1002471E0724ED1E7714FD3E79B
:102E7000DFF8C081D5E71AF0A5FD1AF0A4FD6E4970
:102E80006E4B18681EF08DFACFE71AF09BFD1AF012
:102E90009AFD6A4B1D6805F0DBFA02460B4668494D
:102EA00028461EF07EFAC4E71AF08CFD1AF08BFD5E
:102EB000624B1D681FF0C6FB0246624928461EF0A1
:102EC00070FABBE71AF07EFD1AF07DFD5B4B1D68C2
:102ED0001FF0ECFB02465C4928461EF062FAB2E79E
:102EE0001AF070FD1AF06FFDE279A379617920790B
:102EF000E57894F802C094F801E024780594CDF8C0
:102F000010E0CDF80CC00295019000914F494B485C
:102F100000681EF046FA9BE71AF054FD1AF053FDC4
:102F2000464B1C681FF0BAFB0246494920461EF07A
:102F300038FA92E71AF046FD1AF045FD45493F4B35
:102F400018681EF02EFA8DE70134E4B2072C12D86F
:102F5000032000F001FF0028F6D01AF033FD1AF02C
:102F600032FD364B1D681FF095FB025D3A4928463D
:102F70001EF017FAE8E7032000F0EEFE98B90320F0
:102F800000F0EAFEC8B9032000F0E6FE18BB0320FB
:102F900000F0E2FE68BB032000F0DEFE002836D120
:102FA00006B0BDE8F0811AF00DFD1AF00CFD2B49BA
:102FB000224B18681EF0F5F9E1E71AF003FD1AF04C
:102FC00002FD1E4B1C681FF06DFB02462449204683
:102FD0001EF0E7F9D7E71AF0F5FC1AF0F4FC174BEE
:102FE0001C681FF043FB02461E4920461EF0D9F91B
:102FF000CDE71AF0E7FC1AF0E6FC104B1C681FF056
:103000003DFB0246184920461EF0CBF9C3E71AF0F3
:10301000D9FC1AF0D8FCCDF800803B463246134963
:10302000064800681EF0BDF9BAE700BF70580020DE
:1030300070720208787202082473020824280020A3
:103040002C73020848730208647302088073020834
:10305000A4730208C0730208D47302085C710208EA
:10306000DC730208F873020810740208287402085E
:1030700030B583B08368C26853F822301C7801A948
:1030800020461FF0EFFA88B9032000F065FE08B96A
:1030900003B030BD1AF096FC1AF095FC019B224655
:1030A0000B490C4800681EF07CF9F1E70546012049
:1030B00000F052FE0028EBD01AF084FC1AF083FCDA
:1030C0002A460549034B18681EF06BF9E0E700BF7C
:1030D00060740208242800207C74020870B582689D
:1030E000C36852F823100C88013352F823301D783E
:1030F000294620461FF005FB80B9032000F02CFE76
:1031000000B970BD1AF05EFC1AF05DFC2B46224639
:103110000B490C4800681EF044F9F2E7064601200E
:1031200000F01AFE0028ECD01AF04CFC1AF04BFC10
:1031300032460549034B18681EF033F9E1E700BF3A
:10314000A074020824280020D074020870B582B050
:103150008368C26853F822301B78134A137013F047
:10316000020F0ED0114C13F0010F0CD00F4D13F0C5
:10317000040F0AD00D4E032000F0EEFD38B902B066
:1031800070BD0B4CEFE70A4DF1E7094EF3E71AF07B
:1031900019FC1AF018FC00962B46224605490648F1
:1031A00000681EF0FEF8EAE770580020707202080E
:1031B00078720208847202082428002030B58FB08B
:1031C00004460D4668461AF015FB0DF1200EEC463C
:1031D000BCE80F00AEE80F009CE803008EE8030097
:1031E00008A9464B186820F09EF810F1880F46D1C8
:1031F00068461AF0FFFA0DF1200EEC46BCE80F000D
:10320000AEE80F009CE803008EE803004FF4105373
:10321000ADF820308023ADF822304FF4407307938F
:1032200007A81AF0F7FA079B0A93354B0B93334B19
:103230001A68099B0D9213F0FF0F04D123F0FF03CE
:1032400043F001030993012309932C4B2A4621469D
:1032500008A820F085F8044610BB032000F07CFD90
:1032600090B9264B18681FF0F5F90546002831D1B2
:10327000032000F071FD044610BB01242FE01F4B1A
:10328000186820F027F8B3E71AF09CFB1AF09BFBB4
:103290001A4B1A681B491C4B18681EF082F8E0E7AD
:1032A000032000F059FD0028DBD01AF08BFB1AF048
:1032B0008AFB22461549144B18681EF072F8D0E7B5
:1032C0001AF080FB1AF07FFB11490F4B18681EF0B3
:1032D00068F804E0032000F03FFD044610B92046E2
:1032E0000FB030BD1AF06EFB1AF06DFB2A4609498B
:1032F000054B18681EF055F80024F0E790230020D5
:1033000000014405007502082428002030750208D9
:10331000547502087475020800B583B0002101914C
:1033200001AA1DF00EFB019910290ED0032000F018
:1033300013FD60B11AF046FB1AF045FB1022054957
:10334000054B18681EF02DF801E0FFF737FF03B0BA
:103350005DF804FB947502082428002010B588B09D
:1033600020F0FDF8032000F0F7FCF8B901244A4BE7
:103370001C6002A81AF065FA02A920461FF0D3FFCC
:1033800010F1880F1CD0032000F0E6FC00286ED15D
:10339000414B18681FF05EF91FF0AFF90446032097
:1033A00000F0DAFC00286CD108B010BD1AF00AFB5E
:1033B0001AF009FB39493A4B18681DF0F2FFD5E7BE
:1033C000032000F0C9FC002837D1334B1A68039B57
:1033D000079213F0FF0F04D123F0FF0343F0010322
:1033E0000393304B05934FF44073019301A81AF0F7
:1033F00038FA019B04934FF41053ADF80830802342
:10340000ADF80A3001230393234B1022264902A86A
:103410001FF0A6FF0446D0B9032000F09DFC002851
:10342000B6D01AF0CFFA1AF0CEFA1B4B1A681F4921
:103430001B4B18681DF0B5FFAAE71AF0C3FA1AF083
:10344000C2FA1B49164B18681DF0ABFFBDE70320FD
:1034500000F082FC00289BD01AF0B4FA1AF0B3FAFC
:10346000224614490E4B18681DF09BFF90E71AF096
:10347000A9FA1AF0A8FA1049094B18681DF091FF33
:1034800086E71AF09FFA1AF09EFA22460B49044B7F
:1034900018681DF086FF87E790230020BC7502089E
:1034A0002428002000444004AC5400200075020889
:1034B000C875020830750208F07502081C7602080B
:1034C00010B5012009F04EFA0D4C21460420FFF7FB
:1034D00057F9611E0320FFF753F90A490820FFF747
:1034E0004FF94FF4FA61084B18680EF026F8074BB5
:1034F00001221A70064B1B6800221A7010BD00BF13
:10350000892300206C2300209C23002035520020BA
:103510009823002010B584B0364B1B7B3BB1022BA7
:1035200023D0354B1B6800221A7004B010BD9DF8E3
:103530000030032262F304038DF800309DF8003060
:103540006FF346138DF800301C238DF804300222EF
:103550008DF80D209DF800208DF80520254A9372E6
:10356000002101A8FFF7B4F9DBE7224B9B7A1E2B61
:1035700021D0204B9B7A2B2BD3D1204C2046FEF719
:1035800015FF2B238DF8043006238DF80D302046CF
:1035900010F810398DF80530FF238DF806308DF8BE
:1035A00007308DF80830C37A8DF80930002101A862
:1035B000FFF78EF9B5E7114C2046FEF7F7FE1E2304
:1035C0008DF8043006238DF80D30204610F81039A0
:1035D0008DF80530FF238DF806308DF807308DF813
:1035E0000830C37A8DF80930002101A8FFF770F97F
:1035F000BFE700BF7C230020A42300208C230020F1
:1036000010B50E490E4809F0B3F80E490E4809F0FE
:10361000AFF80E490E4809F0ABF80E4C0E492046A3
:1036200009F0A6F801210D481AF0BCF9FEF796FE44
:103630004FF47A7120680DF080FF10BDB9290008A1
:10364000A0230020192900089C230020153500081C
:10365000A423002098230020C1340008F882020827
:1036600008B50320FFF7C2F80820FFF7BFF80449A8
:10367000002301F80C3F01220320FFF76FF808BD7B
:103680007C23002010B504461AF064FA10B92F4BC1
:103690009C4205D020461AF05DFA012808D010BDE2
:1036A00023F0F8FB2A4B18602A4B01221A70F1E72D
:1036B00023F0F0FB274B00221A70254B1B68C01A21
:1036C000A0F5C333A13B244A934210D9234B98421F
:1036D0001FD9234B5B7B7BB1012BE0D12049002319
:1036E00001F80D3F01220420FFF738F8D7E71FF05B
:1036F00020F8FFF7B5FFD2E70122194901F80D2F95
:103700000420FFF72BF8642205210020FFF7A6F91B
:10371000C5E7144B9842C2D8114B1B7B002BBED17E
:103720000F4B5B7B6BB1012BB9D10F4B01221A7090
:10373000FEF7F8FF4FF47A7205210020FFF78EF9AB
:10374000ADE70020FEF7D0FFA9E700BFC88202085E
:1037500094230020365200209E860100400D030075
:103760007C230020A08601003452002070B506465C
:103770000D468B681B781C2B01D000241EE0244BC7
:103780001B7B002BF9D10028F7D12149022301F836
:103790000C3F01220320FEF7E1FFEEE704EB4402B9
:1037A0001C4B03EB82035B780A2B1DD11949900057
:1037B00001EB820300220A545A700134022C21DCEE
:1037C000AB68197804EB4402124B03EB82039B783D
:1037D0009942F2D1002EE1D10E49900001EB820313
:1037E00000220A545A70E8E70A4A04EB440C02EB40
:1037F0008C00012102F82C100B4443700230FFF7BB
:1038000067F8DAE72B7B5B42014AD37270BD00BFD9
:103810007C2300203C23002008B5012101481AF038
:10382000C1F808BDF882020810B5A0F19003062B7C
:1038300041D8DFE803F008041340402231000320A0
:1038400000F08AFA00B910BD1AF0BCF81AF0BBF803
:103850002149224B18681DF0A4FDF4E7012000F077
:103860007BFA0028EFD01AF0ADF81AF0ACF81C493A
:103870001A4B18681DF095FDE5E7012000F06CFA81
:103880000028E0D01AF09EF81AF09DF81549134B65
:1038900018681DF086FDD6E7032000F05DFA0028C9
:1038A000D1D01AF08FF81AF08EF80F490B4B186828
:1038B0001DF077FDC7E70446032000F04DFA00280D
:1038C000C1D01AF07FF81AF07EF822460749034B60
:1038D00018681DF066FDB6E734760208242800203B
:1038E000447602086476020888760208A476020804
:1038F00010B523F0CFFA0446214B1B68C31A214AA6
:10390000934205D9204A127812B1204A93420ED927
:103910001D4A127812B11D4A93420CD81C4B1B78D9
:1039200023B11C4B5B7B53B1012B1CD010BD1A483B
:103930001AF014FAFAE718481AF00BFAF6E71EF034
:1039400085FE60B9154B1B68E31A41F67862934215
:10395000ECD9124B1C6010481AF005FAE6E70E4845
:103960001AF0F7F9E2E71EF071FE0028DED00C4BEA
:103970001B78002BDAD108481AF0EBF9D6E700BF24
:1039800094230020A086010036520020400D030041
:10399000355200207C230020F8820208BC5400200D
:1039A0003452002008B5024B1B6803B1984708BD8C
:1039B000D823002008B5024B5B6803B1984708BDC7
:1039C000D823002008B5024B9B6803B1984708BD77
:1039D000D823002008B5024BDB6803B1984708BD27
:1039E000D823002008B5024B1B6903B1984708BDD6
:1039F000D823002008B5024B5B6903B1984708BD86
:103A0000D823002000B585B0094B1868094B186011
:103A1000094B0A4A13600A4A01920A4A1268029242
:103A2000039301A91CF0AFFF05B05DF804FB00BFD4
:103A3000DC54002080320020D05400207C32002052
:103A400088820208AC26002008B5024B18681CF0DA
:103A5000AEFF08BDDC54002038B507F039FB044642
:103A6000064D2B68D3F8B00207F026FB28681CF03F
:103A7000B8FF204607F020FB38BD00BFDC54002013
:103A800008B5034823F086F8024800F0BDFE08BDE3
:103A9000D0850208E05400200023062073B170474F
:103AA00054B224B9013353B15DF8044B7047022876
:103AB000F8D008680A4908601046F3E710B4094ACC
:103AC00052F823100A7A022AEAD9032AEAD1441EBC
:103AD000E4B2012CE6D90868014908601046E1E724
:103AE000AC260020F454002010B5A2B00DF1680CF3
:103AF000294C0FCCACE80F0094E80F008CE80F00C5
:103B00000021159116911791189119914FF4801376
:103B10001593224B199310911191129113911491B5
:103B20001F4B10931F4B14933C2201A821F02DFD35
:103B300001AC0DF1540CBCE80F000FC4DCF80030F0
:103B4000236006AC0DF1400CBCE80F000FC4DCF89C
:103B500000302360144B0B9320230C9301238DF82A
:103B600034308DF835308DF83630104B0F93104BC4
:103B70001AAA01A90F4807F057FB04469DF83730F1
:103B80003BB100214FF4E13019F059FF204622B03B
:103B900010BD0321F6E700BFA88202083C00015BCC
:103BA000010010004400015BB026002008550020F1
:103BB000D02600208C27002008B531B9084B1868A2
:103BC000036823B107F046FF01E0012900D908BDD1
:103BD000034B18680368002BF9D01DF0C4FEF6E70C
:103BE0001C55002008B50349034808F0A7F8FFF763
:103BF0007BFF08BD20550020B427002008B50248EF
:103C00001DF015FC08BD00BF8C27002008B5024838
:103C10001DF00DFC08BD00BF8C27002008B5024B2D
:103C20005A6A1868904708BD8C27002008B50248DA
:103C300019F089FF08BD00BFC882020808B5034813
:103C40001AF082F802481AF07FF808BDF8820208DC
:103C5000E082020818B1034A106000207047252056
:103C6000704700BFBC27002010B5044C04492068F1
:103C700002F050FC2068FFF7EDFF10BD5C560020FD
:103C800038550020014B1868704700BFBC27002042
:103C900000B583B00B4605490978019100920022D6
:103CA00001211EF01BFD03B05DF804FB70580020DD
:103CB00010B50446806803782F2B08D0224B1B7B5D
:103CC000002B30D0013BDBB2012B34D910BD1E4B91
:103CD0001B7B002BF2D11D4BD0F801C0D0F8054062
:103CE000D0F80910D0F80D20C3F800C05C609960CE
:103CF000DA6010211846FFF761FA0128E6D1102298
:103D000012490820FEF72AFD0F4B1B7B002BDDD14B
:103D10000F4B1B78002BD9D04FF47A710D4B1868DC
:103D20000DF00BFCD2E7A17919F048FE63795B42F4
:103D3000054AD372CAE7A17919F040FE63795B4264
:103D4000014AD372C2E700BF7C2300206C2300200D
:103D500035520020A423002003460B4A107828B1D6
:103D60000A4A12789A4202D2002000E00120084A52
:103D700012783AB1074A127842FA03F313F0010FAE
:103D800000D10020704700BF7358002072580020F7
:103D9000385200207158002008B5084B01221A70D3
:103DA000074B00221A70074B04221A70064B1F2281
:103DB0001A7007F08DF9054B186008BD7358002084
:103DC000385200207258002071580020242800200A
:103DD00008B5054822F0DEFE19F07BFD012019F040
:103DE000FBFD00F0B1F808BDD085020808B5024817
:103DF00022F0D0FE08BD00BFD08502082DE9F041B9
:103E000080460F4601F109050026344604E05B2197
:103E1000082000F0C1FA0134AC4233D2052C1BD883
:103E200001A353F824F000BF0F3E0008413E0008F4
:103E3000753E0008493E00084D3E0008513E00080E
:103E4000FBB20433D9B2E3E78021E1E70021DFE7E9
:103E5000731C3146DEB2DBE7BB1DA3420CD0FB1D59
:103E6000A3420BD007F10803A34209D0A31F18F8FF
:103E70000310CDE7D121CBE75A21C9E75A21C7E783
:103E80005D21C5E70020BDE8F08100BF00B583B02B
:103E9000002300930193FFF7F5FE114B18600123F7
:103EA0008DF8003090F8363093B100200C4B1B6831
:103EB00093F8351002290FD003290FD119F0A2FD74
:103EC000019008216846FFF799FF03B05DF804FBF5
:103ED00000681CF0DEF8E9E70321EFE70021EDE7D9
:103EE0002828002000B583B0002200920192022110
:103EF0008DF80010054819F08AFD019008216846E8
:103F0000FFF77CFF03B05DF804FB00BF006A1800F8
:103F100000B583B0044B1B88ADF8043001A800F055
:103F200017FB03B05DF804FB1083020800B583B0F3
:103F3000044B1B88ADF8043001A800F0D9FA03B097
:103F40005DF804FB108302082DE9F04F97B04D4D4A
:103F500009AC2E1D0FCE0FC43368236001AC05F1F0
:103F600018060FCE0FC496E80F0084E80F004648ED
:103F700022F010FE454822F00DFE01268DF8096062
:103F800000248DF80840424B0B9301AB0D93414F39
:103F900009A938461BF08DFFB5F838B0ADF838B038
:103FA000324604210EA800F067FAB5F83CA0ADF83F
:103FB0003CA0224631460FA800F05EFAB5F84090CA
:103FC000ADF840903246042110A800F055FAB5F83B
:103FD0000080ADF844803246042111A800F04CFA6C
:103FE0002D4D2E4BC5F8F8344FF00213C5F8F434BC
:103FF000A3F58033C5F8FC341C23C5F8E4344FF432
:10400000487008F053FBFFF783FF142008F04EFBC5
:10401000FFF78CFF232008F049FBFFF779FFB92158
:1040200038461BF02EFFFFF781FFADF848B022465F
:10403000214612A800F020FAADF84CA022462146F5
:1040400013A800F019FAADF850903246214614A892
:1040500000F012FAADF854803246214615A800F05F
:104060000BFA384603F0A6FDC5F8E444C5F8F84459
:10407000C5F8F444C5F8FC44044822F090FD17B09C
:10408000BDE8F08F10830208D0850208D4850208AD
:10409000E070720000000A5000C0035002000300EC
:1040A00008B50448044A121A9210044919F0DAFCBF
:1040B00008BD00BF8001000880030008A052002056
:1040C00008B5154B83F30A8800F030F8FFF7E8FFD6
:1040D000124A0AE01068516850F8230041F82300A2
:1040E000013391688B42F5D30C320D4B9A4201D2C9
:1040F0000023F6E70B4A08E01168002041F823008E
:10410000013351688B42F7D30832074B9A4201D2F0
:104110000023F6E7FEF7D2F80000002028CA0208C4
:1041200034CA020834CA020834CA020870B5134BF4
:10413000134A9A60D3F8882042F47002C3F88820AA
:10414000104A4FF4804191660F4D05F500544FF031
:10415000FF3222660D4A62660222C3F8D020BFF306
:104160004F8FBFF36F8F002006F07CFF4FF4403677
:10417000E66000201DF0C0F82E6170BD00ED00E08B
:104180000000000800900050008000447FFF7F0185
:10419000014B1860704700BF6456002008B5064BFD
:1041A0001860064B1B6F03F00703032B00D008BDFC
:1041B00021F072FCFBE700BF6C560020008000502D
:1041C000BFF34F8F0549CA6802F4E062044B134302
:1041D000CB60BFF34F8F00BFFDE700BF00ED00E0F5
:1041E0000400FA05F0B18446F1B110B409E004F11D
:1041F00020000FE02033C01A18D1BCB10CF1010C23
:1042000001319CF800400B4B1B5D03F00303012BB5
:10421000EDD020460B78074AD25C02F00302012A57
:10422000E9D1E7E701207047012070475DF8044BB2
:10423000704700BFEDC8020830B587B00546046876
:1042400023798DF80C3063798DF80D301B4822F0FE
:10425000A1FC0022012103A800F00EF90DF10B01D1
:1042600003A819F03AFD9DF80B3083F00103237089
:10427000A379022B02D0002007B030BD4FF0FF33EE
:104280000593049300950E4B002205A903A800F0A6
:104290002FFA059BB3F1FF3F07D00095084B012291
:1042A00004A903A800F084F9E5E70095044B042273
:1042B00004A903A800F07CF9DDE700BFD08502085F
:1042C00063DB010810B582B0002401942A4822F073
:1042D00061FC8DF8004003238DF801300122042198
:1042E000684600F0C9F8254B0122C3F8442401A90F
:1042F000052022F048FC00283BD1214BD3F8F020C8
:1043000042F00102C3F8F020D3F8FC2042F08072A2
:10431000C3F8FC20A3F55D431A4A1A60019B03F51C
:10432000D52303F2FC43DB08174AA2FB03239B0AB5
:10433000013B164A13610223C2F8F0304FF4807338
:10434000C2F804334FF06043114AC3F8B02F114A4A
:10435000C3F8802ED3F8002E42F48072C3F8002EEA
:10436000FF2283F82020D3F8002E22F48072C3F8B5
:10437000002E02B010BD00BFD085020800D003504F
:1043800000ED00E0FF03004017916502000004E02B
:1043900055CEACC5090001004FF06043D3F8803E14
:1043A00013F0010F01D1112070470E4AD2F8FC30F2
:1043B00043F08073C2F8FC304FF06043D3F8002E16
:1043C0004FF0010C0CFA00FC42EA0C02C3F8002E7C
:1043D00053F82030002BE8D04FF0604303F8201052
:1043E0000020704700ED00E010B504460FE0012307
:1043F000834024EA03040F2814D800EB40020E4B3C
:1044000003EB82035A6812B19968C0B2904794B125
:10441000234600201F28EAD813F0010FE7D101300E
:104420005B08F7E7103800EB40039B00B033024A0B
:1044300013440433E6E710BD2C28002008B50D48CE
:1044400022F0A8FB1A2006F0D3FD28B91B2006F0A5
:10445000CFFD40B9002008BD1A2006F003FE1A2047
:104460001CF04AFFF2E71B2006F0FCFD1B201CF0AD
:1044700043FFEFE7D08502082DE9F04170B30C4609
:10448000174605460F292BD803784BB1022B20D0B5
:10449000032B21D0012B01D0002303E07F2301E077
:1044A00040F2FF736A78D34013F0010F1AD00F4B1C
:1044B000D3F81063C6B922F068FA80463A4621461E
:1044C000284604F015F9404622F05AFA3046BDE875
:1044D000F08140F2FF33E5E73F23E3E72226F5E7EB
:1044E0002126F3E72126F1E70226EFE700C003507B
:1044F00040B310B5044603784BB1022B1DD0032BFB
:104500001ED0012B01D0002303E07F2301E040F205
:10451000FF736278D34013F0010F15D022F035FA03
:10452000237862780121914003EB43031B01074A82
:10453000D15022F025FA002010BD40F2FF33E8E709
:104540003F23E6E7222070472120F5E740D00350C3
:1045500040B310B5044603784BB1022B1DD0032B9A
:104560001ED0012B01D0002303E07F2301E040F2A5
:10457000FF736278D34013F0010F15D022F005FAD3
:10458000237862780121914003EB43031B01074A22
:10459000D15022F0F5F9002010BD40F2FF33E8E7DA
:1045A0003F23E6E7222070472120F5E740E0035053
:1045B000002866D02DE9F0410C4615461F460646F8
:1045C000002960D002784AB1022A3ED0032A3FD0A7
:1045D000012A01D0002303E07F2301E040F2FF73B2
:1045E0007178CB4013F0010F01D1FF2A4DD1022D7C
:1045F00001D9042D4BD122F0C8F980463378FF2B26
:1046000028D12368B3F1FF3F2BD02268B2F1FF3FDE
:1046100032D0204B02EB420203EB82025760226849
:1046200002EB420203EB8203069A9A603378FF2B77
:1046300005D0226801239340174AC2F8243440462B
:1046400022F09EF90020BDE8F08140F2FF33C7E779
:104650003F23C5E72A462168304604F0B3F82060BE
:10466000CFE73378FF2BD0D10C4BD3F824147078DC
:104670001BF047FD2060C8E7404622F081F92D205D
:10468000E1E7222070472220DDE72120DBE721201F
:10469000D9E700BF2C28002000D0035000C00350F1
:1046A000B0F1FF3F1AD038B504460F2818DC0028B7
:1046B00018DB22F06AF90123A3400B4AC2F8203428
:1046C000C2F82434094B04EB440203EB82020025B8
:1046D0005560956022F054F9284638BD2120704776
:1046E0002120FAE72120F8E700E003502C280020E1
:1046F000002856D02DE9F0410C4617461E460546C7
:10470000002950D0017849B1022939D003293AD083
:10471000012901D0002303E07F2301E040F2FF7371
:104720006A78D34013F0010F01D1FF293DD122F067
:104730002CF980462B78FF2B27D12268B2F1FF3F5E
:104740002AD01B4B02EB420203EB8202C2F8B86094
:10475000226802EB420203EB8203069AC3F8BC20F4
:104760002B78FF2B06D02268103201239340114A88
:10477000C2F82434404622F003F90020BDE8F0815D
:1047800040F2FF33CCE73F23CAE73A462168284688
:1047900004F0B8F82060D0E7404622F0F1F82D2070
:1047A000ECE7222070472220E8E72120E6E700BF5F
:1047B0002C28002000D0035008B5084BD3F824045F
:1047C000D3F82024104000F0553020F0502003F59D
:1047D0000053C3F82004FFF707FE08BD00C00350D4
:1047E00008B5084BD3F82404D3F82024104000F077
:1047F000AA3020F0A02003F50053C3F82004FFF7EF
:10480000F3FD08BD00C0035070B586B005460368CF
:10481000B3F1B64F27D0304A934222D04FF0FF3643
:10482000B3F1B64F21D02C4A934252D12B4822F0FB
:10483000B1F92B798DF804306B798DF80530AB79AF
:104840008DF80030EB798DF8013001220A2101A8A2
:10485000FFF712FE01220A216846FFF70DFE002431
:1048600012E00126DCE70026DAE71D48DFE701A8B1
:10487000FFF76EFE642007F019FF01A8FFF738FE6E
:10488000642007F013FF0134092CF0DD154A02EB18
:1048900006110323C1F8383568792B7943EA0043C0
:1048A000C1F83C35E979AB7943EA01435436360126
:1048B000935101238DF808308DF80930EB6804938B
:1048C000AB6803932B7C8DF8143002A9286803F0A1
:1048D00073FC06B070BD00BF00800650C88502089A
:1048E000CC85020800C0035010B582B004460A48C7
:1048F00022F050F923788DF8043063788DF8053074
:10490000A278B2FA82F2520904210DEB0100FFF7FE
:10491000B3FD002002B010BDD0850208F0B585B00F
:104920000C4694469DF83410664A1278002A00F02E
:10493000BD800546BCF1070F00F2BA800A9A002A32
:1049400000F0B8800B9A002A00F0B6800E9AB2F5FB
:10495000006F00F3B38001285BD05B4A02EB0C12BE
:10496000127B002A00F0AC80002200920192029299
:104970000392564A02EB4C1E002C4FD14FEA4C16C4
:1049800000209051CEF80400CEF80800CEF80C00BC
:104990009EF8020040F010008EF802009EF803001E
:1049A00040F030008EF8030021B9C1B241F003019C
:1049B0008EF8031000930E9B013B444A4FEA4C10C3
:1049C00002EB4C11165A63F30E1616520A9B8B60BB
:1049D0000B9B4B60CB789DF83C2062F38303CB703C
:1049E000012D36D0109B002B56D0374A4FEA0C11C0
:1049F00002EB0C1310985050119A5A6000249C60DE
:104A00005D7372466946604603F04CFC204605B073
:104A1000F0BD0C9A002AA0D12D48F8E72B4F4FEAA1
:104A20004C1607EB4C120020B85150609060D060DB
:104A3000907840F010009070D07840F00300D07073
:104A40000029B7D107EB4C12C1B241F03001D1704F
:104A5000B0E70E460A7B42F001020A73D2B242F07E
:104A600002020A73CA68042161F39F02F26006F130
:104A7000100796E80F0087E80F00F2696FF0030156
:104A800061F39F02F2610C9B7361012CAAD10B9A16
:104A9000B2610C9A7260A5E7002DA6D10B4B03EB17
:104AA0004C139A786FF304129A709EE70948AEE7A8
:104AB0000748ACE70648AAE70548A8E70448A6E780
:104AC0000548A4E739520020942A002094290020A8
:104AD000018000F0028000F0078000F0134B1B788B
:104AE000FBB110B50446F0B121F04FFF0023072BB6
:104AF00013D80F4A02EB0312127B0AB10133F6E717
:104B000023600B4A190102EB031301241C730024D8
:104B1000545021F035FF204602E021F031FF0548D6
:104B200010BD054870470548FAE700BF395200201C
:104B3000942A0020048000F0028000F0018000F040
:104B400038B521F022FF04460023072B06DC0C4A6F
:104B500002EB0312127B12B90133F6E7002222B1F5
:104B6000204621F00DFF074838BD03F047FB002524
:104B7000054B1D70204621F003FF2846F4E700BFD7
:104B8000942A0020058000F0395200200F4B1B783A
:104B9000BBB110B50446072815D821F0F6FE0C4B22
:104BA00003EB04131B7B1BB921F0EAFE09480BE061
:104BB000074B03EB041300241C7321F0E1FE204695
:104BC00002E005487047054810BD00BF395200207B
:104BD000942A0020068000F0028000F0018000F09E
:104BE00000B583B0134B1B68019300238DF804308C
:104BF00021F0CBFE104B1B7833B90F4B01221A70FA
:104C000021F0BEFE002309E021F0BAFE0B480EE0C1
:104C10000B4A02EB0312002111730133072BF7DD5E
:104C200008238DF8073001A803F00CFB002003B027
:104C30005DF804FB5483020839520020038000F021
:104C4000942A002010B5104C2478BCB1072817DC3A
:104C50000E4C04EB0014247BA4B10C4C4FEA001E54
:104C600004EB001C44F80E30029BCCF80430002406
:104C7000CCF8084003F016FB204610BD0448FCE7C2
:104C80000448FAE70448F8E739520020942A002043
:104C9000028000F0018000F0078000F008B50A4BA8
:104CA0001B785BB107280BD8084B03EB00131B7B69
:104CB00043B1002103F0B8FA002008BD0448FCE726
:104CC0000448FAE70448F8E739520020942A002003
:104CD000028000F0018000F0078000F008B50A4B68
:104CE0001B785BB107280BD8084B03EB00131B7B29
:104CF00043B1012103F098FA002008BD0448FCE705
:104D00000448FAE70448F8E739520020942A0020C2
:104D1000028000F0018000F0078000F0F8B5194B28
:104D20001F6D5B6D1F4002D40125002402E0FEE7E9
:104D300001346D00072C24D83D42F9D0124B1D657B
:104D40002301124AD358002BF2D002EB0416B168AB
:104D50000131B16072682046984780F00100C0B20E
:104D6000737B012BE4D10028E2D0094B03EB441301
:104D70001A7B6FF341021A731A7F6FF341021A779D
:104D8000D6E7F8BD0000045000200450942A00200B
:104D9000942900202DE9F04F89B005460E461446AF
:104DA0009846C36B5B69012207A960689847EB6B63
:104DB0005B69012206A93046984707A81AF039FA1C
:104DC00048B10027A77567754FF0FF33A3603846D9
:104DD00009B0BDE8F08F074606A81AF03AFA012399
:104DE000A375237E033304EBC3035E6000221A81A4
:104DF0006368B3422AD02368834201D00023A3759D
:104E000006A81AF04BFA237D984201D00023A3751F
:104E100006A81AF022FA814607A81AF01EFA814560
:104E200001D00023A37506A81AF01FFA814607A82F
:104E30001AF01BFA814501D00023A375237D043BA2
:104E4000DBB2022B0BD80023A375C0E7206006A8B5
:104E50001AF024FA20754FF0FF33A360EEE706A89E
:104E60001AF0FBF980B1EB6B5B69022204A93046B2
:104E7000984704A81AF004FA0346207D032868D84E
:104E8000DFE800F0615B070D06A81AF0F9F90346A8
:104E9000F3E7237E033304EBC303CC221A811AF019
:104EA0000DFA129B187094F8189006A81AF0C8F919
:104EB00009F1030904EBC90989F80A00237E0333C9
:104EC00004EBC303B3F808A093F80AB006A81AF0DD
:104ED000C4F9814606A81AF0C8F90390B9F1000F89
:104EE0003DD0EB6B5B69022204A93046984704A8C9
:104EF0001AF082F96075637D03B9A375A37DA3B130
:104F0000BAF1000F11D0039BF1186B6C5B4286EA7B
:104F100001021A4201D00023A3756B6C5A1E0A408D
:104F20009B1A9A4501D90023A375A37D002B40D07D
:104F3000BBF1000F18D1E77D3CE0227E033204EB89
:104F4000C2021381ABE7227E033204EBC20213815B
:104F5000A5E7227E033204EBC20213819FE706A875
:104F60001AF033F96075C6E70122E275627EBAB9BC
:104F7000BBF1010F08D095F83470DFB9EA6AB2F1DD
:104F8000FF3F05D01F4615E001216176174611E06D
:104F9000BBF1030F01D01F460CE00122A27609E00D
:104FA000BBF1010F37D0BBF1030F03D10122A27671
:104FB00000E01F4653B117B1BBF1010F06D95346AC
:104FC000039A3146284619F077FAA060A37D13B101
:104FD000236953442361237E114A127893421CD2E1
:104FE00001332376B8F1000F13D0A37D8BB1E37D9D
:104FF0007BB177B9BBF1030F0BD0A168B1F1FF3FD3
:1050000007D0129B0093012322462846FFF7C2FED9
:10501000A075A77DDBE61746CCE70023A375E1E783
:10502000788302082DE9F04F89B005460F46924675
:105030009B4600238DF80B304FF0FF31104600F0F7
:10504000EFFFB7F5801F1DD30023009317F1020F68
:1050500007D0009B002B40F09E802B7C002B00F0A3
:105060008C80EB6AB3F1FF3F2CD02A689B1A6A6CE4
:10507000B3FBF2F917F1020818BF4FF00108002343
:1050800001935DE00DF10A02394605F1080000F0D8
:1050900017FF0146B0F1FF3F11D0504600F0C0FFAE
:1050A0000DF10B0301225146284619F084FA0090B5
:1050B0000028CBD09DF80B308BF80030C6E70023DA
:1050C0000093C3E7696A284619F017F98146D1E7CA
:1050D0000123019337E09DF80B308BF80030324B01
:1050E0001A683249504620F077FA00942F4B99689D
:1050F000B1F1FF3F1BD06B6C5B4281EA06021A42A2
:1051000015D12A4C204600F08BFF0DF10B034246CF
:105110002146284619F04FFA04460028E6D017F138
:10512000020FD8D0214B1B68BB42DFD1D3E74946E1
:10513000284619F0E2F88146019BCBB9009BBBB928
:105140006B6A4B45C4D02C686B6C03FB0944EB6B5A
:105150005B69052203A92046984703A81AF045F980
:105160001AF06AF920461AF073F906460146BFE7BD
:10517000009BA3B1B7F5801F03D3009B8BB1002028
:105180000AE09BF80030DAF80420394605F10800FF
:1051900000F0B4FEF1E7002009B0BDE8F08F2D204B
:1051A000FAE72D20F8E700BF748302088831002059
:1051B00070B582B004464FF0FF33C3620DF10703B0
:1051C0001A4A6FF00101FFF72DFF20BB174B9B68B8
:1051D000E362E56A2946204618F080FE2063E8B1C4
:1051E0002946204619F058F90546A36AAB421BD060
:1051F0002946204618F072FE0646236B03442363BB
:105200002946204619F048F90546002EEDD1002325
:105210002363E062E9E7A36AE362DAE7E16A204632
:1052200019F03AF9E062DBE702B070BDB43100205A
:1052300030B583B01C46032A14BF002201221B7E16
:105240009A4202D0012003B030BD0D4609682368A0
:105250009942F7D363689942F4D80DF10703114AD4
:10526000FFF7E0FE0028EDD10E4B5A686B689A42BA
:10527000E8D19DF80730032B14BF00230123227EC1
:105280009342DFD16369013363612369E26893422A
:10529000D8D2A268296842F8231023690133236118
:1052A000D0E700BFB43100202DE9F04182B00446C0
:1052B0000E4690461F46816A06E01A4B9968B1F186
:1052C000FF3F1FD0012E23D0E06A884217D0B1F1F2
:1052D000FF3F14D0134D284600F0A2FE0DF1070346
:1052E00001222946204619F066F90028E5D03B4600
:1052F0009DF8072029462046C0470028DDD102B08E
:10530000BDE8F0815968204619F0C6F80146D9E792
:10531000044B5A68636C5B424A401A42D4D04FF047
:10532000FF31D1E75C31002010B50446083000F0B1
:105330008DFD0023024A19462046FFF7B5FF10BD38
:10534000A5E5010838B50446037C0BBB02461349AA
:10535000083000F01DFE616A204618F0F0FF421C84
:10536000616A204618F041FF054620B9236B626C44
:105370001344143B2363A16A204619F08DF8A06200
:105380002368C01A636CB0FBF3F06062284638BD36
:105390000023034A0121FFF787FFDCE73DE901080D
:1053A0000BE90108F0B589B080B30F4616461D46DB
:1053B000044690F834301BB90025284609B0F0BDEA
:1053C000012118F0E7FE01950E9B029303970496C6
:1053D0000023059306939DF83C308DF81C30237C08
:1053E0005BB901AA0A4904F1080000F0D1FD5EB9D9
:1053F000069D204619F070F9DFE701AB054A002150
:105400002046FFF751FFF2E7059DF2E70025D4E7BC
:1054100059E1010831520008F0B58BB004460D4641
:10542000406AE36B5B69052205A92668676C07FB88
:105430000060984705A819F0D8FF012836D00094DD
:10544000002301938DF80850039301238DF8103049
:10545000A16AE36A99420FD0237CBBB96A4614491A
:1054600004F1080000F094FD019B13B99DF8103081
:105470009BB901980BB0F0BD204619F00DF8E06221
:10548000236B626C9B1A14332363EDE76B46094A66
:1054900001212046FFF708FFE6E7626A2368616C96
:1054A00001FB0231E06B19F052FFE2E70020E1E777
:1054B000BD5600083D5600082DE9F04F89B004465E
:1054C0008A4691461D46002307930969026BCB1D4E
:1054D000406C1438B3FBF0F3013301EBC30191428C
:1054E00000F2A7804E4677E03D2840F0928004907D
:1054F000BB4605961EE04FF000092368616C01FB76
:105500000631E06B19F00FFF204618F04DFE2046E3
:1055100018F0E9FF2063B9F1000F76D0DAF8102017
:10552000D31D616C1439B3FBF1F3013302EBC302F9
:1055300090423AD32368ABEB0309606CB9FBF0F9F6
:1055400009FB003019F084FF8046E16A204618F01C
:10555000A3FFA36A83422CD0E062374B9A68616C48
:105560004B1E1340226B5B1A13442363ABEB0807FB
:105570002368079EF61AB6FBF1F6B145BBD197B189
:10558000E36B9B69BA08414698478146E36A3B440E
:10559000E362236BA8EB0B084344236304F1080088
:1055A00000F054FCA9E7B946A7E7DDF810B0059E66
:1055B00002E0DDF810B0059EBBF1000F29D0DAF84B
:1055C0001000226BC31D616C1439B3FBF1F301337E
:1055D00000EBC30082421CD3E76ADFF85C803946E7
:1055E000404600F01DFD07AB0293019500963B4637
:1055F00042465146204619F09AFA834600287FF425
:1056000073AFD8F80830E362D6E7DDF810B0059E36
:10561000D2E75F461FB1384609B0BDE8F08F2B4690
:10562000054A5268DAF8001004F1080000F066FC40
:10563000F1E71C27EFE700BF88310020F0B583B009
:105640001C46032A05D1237A012B33D0012003B055
:10565000F0BD06460F4615460DF10703164A0968C8
:10566000FFF7E0FC60600028EDD19DF80730032BC8
:10567000E9D0114B5A687B689A42E4D1237A012B16
:1056800008D13B69E26813447269934202D900234E
:105690002374D8E7E3683A6913440833E3602B4680
:1056A000012239463046FFF707FF60600028CAD064
:1056B0000020CCE7207CCAE7B4310020F0B583B0ED
:1056C000089C2668032A05D1237A012B4DD001209E
:1056D00003B0F0BD15460DF10703254A3046FFF72C
:1056E000A1FC60600028EFD12168214B5A688B6AC9
:1056F000486CC0F1000C5A4012EA0C0FE4D1227A37
:10570000012A19D00F68DB1BB3FBF0F3CA6AD21B66
:10571000B2FBF0F29A4219D0E36815490A691344C2
:105720000833E3602B4601222068FFF7C5FE606066
:105730000028C9D00020CBE70D4A1269E7683A4437
:105740007769BA42DED900232374BDE7726CF16A2F
:10575000531E0B40316B9B1A0B4433632668B16AAE
:10576000304618F099FEF062D6E7207CB0E700BF23
:10577000B4310020F8B56E4B1E6800221A60002874
:1057800000F0B6800D46044690F8343013B30A6832
:1057900003689A4240F0AE804A6843689A4240F0FB
:1057A000AC808A6883689A4240F0A980CA68C3685E
:1057B0009A4240F0A6800A6943699A4240F0A38069
:1057C0008A69C36B9A4201D05D2594E04B6983617D
:1057D000002590E0876B682200211FF0D6FEA763AA
:1057E0002B6823606B6863602B6963616B69A361DD
:1057F000EA68A96804F1080000F03AFBAB69E363CA
:105800009B6804F14000984730B9636C23B162682B
:10581000B2FBF3F2E26101E00023E36194F843306C
:10582000002B72D000232366656C002D6FD0E369D6
:10583000002B6ED02368B3FBF5F205FB1233002B6F
:1058400069D16768B7FBF5F305FB1373002B64D1CF
:10585000204618F033FBA369034404339F425ED310
:105860006369B3F5805F5CD8CB2B5CD9B5F5805FFD
:105870005BD30321204618F08DFCE36B1B68616845
:10588000206898470546E36BDB6802209847EDB136
:10589000636C143B5DB9266A03FB06F6204618F0DC
:1058A0000DFBA369034404339E4200D25A25B5FA86
:1058B00085F35B0984F834301BB11E4A1368013349
:1058C000136085B1204618F007FF14E031462046EA
:1058D00018F085FE05466428DAD13146204618F0D6
:1058E0007EFE0546D4E76168206819F011FCE9E7FF
:1058F000212500E05D252846F8BD5D25FBE75D25F7
:10590000F9E75D25F7E75D25F5E72125F3E75B2559
:10591000F1E75B25EFE75925EDE75925EBE75A2538
:10592000E9E75F25E7E75F25E5E75B25E3E700BFFC
:10593000182B0020142B0020F0B585B0A8B30C461E
:1059400017461E46054690F8343083B3B1F5801FE4
:105950002FD2012118F01EFC0DF10F03164A21462B
:105960002846FFF75FFB044630B99DF80F30012B46
:1059700008D0022B17D02D24284618F0ADFE204663
:1059800005B0F0BD0C4B1B69B34201D06324F3E7B3
:1059900000220192084B009333463946284618F0FE
:1059A000A3FE0446E8E76024E6E72124E7E71124A4
:1059B000E5E72924E3E700BFE0310020F0B585B03A
:1059C000002838D00C4617461E46054690F834305D
:1059D0009BB3B1F5801F32D2012118F0DBFB0DF132
:1059E0000F03184A21462846FFF71CFB044630B92E
:1059F0009DF80F30012B08D0022B1AD02D242846F9
:105A000018F06AFE204605B0F0BD0E4B1A690A9BDD
:105A1000F3189A4201D26324F1E700230193094B62
:105A200000930A9B32463946284618F05DFE04462C
:105A3000E5E76024E3E72124E4E71124E2E72924F1
:105A4000E0E700BFE031002070B582B058B30C46EB
:105A50001646054690F834303BB3B1F5801F26D288
:105A6000012118F097FB0DF10703124A2146284641
:105A7000FFF7D8FA044668B99DF80730032B10D019
:105A8000022B01D0612406E00A49284619F013F8D8
:105A9000306000E02D24284618F01EFE204602B09B
:105AA00070BD2D24F7E72124F8E71124F6E7292417
:105AB000F4E700BFE0310020F0B583B01C460023BE
:105AC000236070B30E461746054690F8343053B342
:105AD000B1F5801F29D2012118F05CFB0DF10703FD
:105AE000134A31462846FFF79DFA064680B99DF8CD
