:020000040800F2
:1000000000200020093B000841DB010841DB01081A
:10001000BD24020841DB010841DB010841DB010886
:1000200041DB010841DB010841DB010841DB01083C
:1000300041DB010841DB010841DB010841DB01082C
:1000400041DB010841DB010841DB010841DB01081C
:10005000E964000841DB010841DB010841DB0108DC
:1000600041DB010841DB010841DB0108C93600081A
:10007000B936000841DB010841DB010841DB01081A
:1000800041DB010841DB010841DB010841DB0108DC
:1000900041DB010841DB01086547000841DB01083D
:1000A00041DB010841DB0108294200080142000848
:1000B00041DB010841DB010859AE010805B901081F
:1000C000D1550208CD550208B9B00108E75502081C
:1000D000D5550208D5B80108D955020869B90108F3
:1000E000A1B9010841DB010841DB010829CA000868
:1000F00041DB01084914020841DB010841DB01082A
:1001000041DB010841DB010841DB010841DB01085B
:1001100041DB010841DB010841DB010841DB01084B
:1001200041DB010841DB010841DB010841DB01083B
:1001300041DB010841DB010841DB010841DB01082B
:1001400041DB010841DB010841DB010841DB01081B
:1001500041DB010841DB01080178020845930108F1
:1001600041DB010841DB01086B55020871550208AB
:10018000194A5AB3194BDB6913F0040F29D110B483
:100190000AE003EA00048C4210D0013AB2B1134BDA
:1001A000DB6913F0040F14D110F0010FF1D1104CE2
:1001B0001C40002CEDD06FF001000CE00C4A1A40FE
:1001C0000AB9002007E06FF0010004E06FF00200C0
:1001D00001E04FF0FF305DF8044B70476FF0020014
:1001E00070474FF0FF307047809698000000035032
:1001F000020001000D4BDB6913F4803F12D170B592
:100200000A4B03F580560124F46003F500552C6475
:100210004FF480721A6100212046FFF7B1FF346469
:10022000EC6070BD6FF00100704700BF000003502C
:1002300010B5124B4FF480329A6603F51C33DC691B
:10024000144041F67132DA6303F580520121D16026
:10025000586102221A6100212120FFF791FF40B16D
:10026000074B0122DA601CB1A3F500530022DA63C8
:1002700010BD00212120FFF783FFF1E7009000501F
:100280000020035038B51A4B5861DB6913F0040F96
:100290002AD10C4654F8041B154B9961151F06E032
:1002A000214651F8042B124B9A61043D0C465DB176
:1002B00008210846FFF764FF03460028F0D00C4AE7
:1002C00004211161184638BD094B04221A6100212E
:1002D0002120FFF755FF03460028F3D100212120FC
:1002E000FFF74EFF0346EDE74FF0FF33EAE700BFAD
:1002F000000003502DE9F0410F46164605461A4B03
:100300004FF480329A6603F51C33DA6902F48038C0
:1003100041F67132DA6303F580530122DA6000237B
:1003200002E025442744361B8EB105F5005424F421
:10033000FF5424F01F04641BB44228BF34462246F5
:1003400039462846FFF79EFF03460028E9D0074AB2
:100350000121D160B8F1000F03D0A2F500520021B5
:10036000D1631846BDE8F081009000500020035092
:10037000000000000000000000000000000000007D
:10038000013800D0FCE770472DE9F04F2DED028BCE
:1003900093B082460C4693461D4657EC106B8DED8C
:1003A000080B32463B46304639461BF0CDFF00284D
:1003B00000F009814FF0FF32B14B304639461BF057
:1003C000EBFF002840F0FF804FF0FF326FF4801306
:1003D000304639461BF0C2FF002840F0F48000226E
:1003E0000023DDE90867304639461BF0B7FF0028D7
:1003F00040F0FC809DED087B8DED067B209B13F487
:100400008063119301D106231E93DDE906010246A4
:10041000C1F30A50C1F31303904643F07F5949F4E6
:100420004019A0F2FF301BF0BDFC83A3D3E90023E9
:100430001BF022FD82A3D3E900231BF067FB0646D5
:100440000F4600228F4B404649461BF05DFB7EA3C2
:10045000D3E900231BF010FD02460B463046394617
:100460001BF054FB1BF0A2FF06461BF09BFC8046D2
:10047000894677A3D3E900231BF0FEFC0022824BC0
:100480001BF044FB1BF092FF074673A3D3E9002344
:10049000404649461BF0F0FC8046894638461BF032
:1004A00081FC6FA3D3E900231BF0E6FC02460B4658
:1004B000404649461BF028FB8046894602460B46CB
:1004C0001BF0DAFCCDE90C0107F2FF370021002216
:1004D000CDE90A123B050B9300230A9342464B4693
:1004E000404649461BF012FBCDE90E0142464B4601
:1004F00000204FF080411BF007FB80468946002218
:10050000624BDDE90C011BF0E1FD0022604B1BF0AA
:10051000FDFA02460B46DDE90C011BF0D7FD002277
:100520005C4B1BF0F3FA02460B46DDE90C011BF0B5
:10053000CDFD02460B46404649461BF0E7FA02460F
:100540000B46DDE90E011BF0C1FD0022524B1BF0F2
:10055000DDFADDE90A231BF08FFC8046894649EC71
:10056000188BDDE906231BF017FF40B1013E002286
:10057000474B404649461BF0A9FD41EC180B06F1DC
:100580006303C62B3BD80427209B13F4006F40D095
:1005900035A3D3E90023DDE90689404649461BF02F
:1005A000F1FE00283BD032A3D3E900234046494660
:1005B0001BF0D4FE002832D01E9BB34221DD9E1BCF
:1005C000731E1E931FE0209B02931F9B01931E9B93
:1005D00000939DED080B2B465A462146504600F0ED
:1005E000CBF813B0BDEC028BBDE8F08F9FED227B02
:1005F0008DED067B069607F100430793FEE605277F
:10060000C2E700231E93209B43F4806320930027BE
:100610003E461F9B9F4241D2A3EB070840E01E9B32
:10062000002BF6D0119B002BF3D01E9B013B1E9399
:10063000EFE700BFAFF30080FB799F501344D33F37
:10064000B3C8608B288AC63F61436F63A787D23FD8
:1006500071A379094F930A401655B5BBB16B02409F
:10066000EF39FAFE422EE63F2D431CEBE2361A3FED
:100670000000000080842E41000000000000000007
:10068000FFFFEF7F0000F83F0000E03F00002C403C
:1006900000002440000018400000F03F4FF0000828
:1006A000209B13F0020902D00FB14FF000083EB1B9
:1006B00053EC182BDDE906011BF008FDCDE906011E
:1006C00000220023DDE908011BF048FE00283BD191
:1006D000209B23F400630293CDF804801E9B0093BB
:1006E0009DED060B2B465A462146504600F044F835
:1006F000002F3FF476AF209B13F0200F2CD04FF04B
:10070000450C00F101082B46024621466046D047C1
:1007100086EAE672A2EBE67205230593013F049791
:10072000002303930A230293F30F019300922B46B5
:1007300042462146504623F03FFBB9F1000F3FF4FB
:1007400050AF02461F9F10E0DDE90601024601F1AD
:100750000043CDE90623BBE74FF0650CD1E7561CFB
:100760002B4621462020D0473246A2EB0B03BB424A
:10077000F5D3104635E700BF2DE9F04F2DED028B84
:1007800093B00590089192469B4659EC108B1E9DA4
:1007900042464B46404649461BF0D6FD002840D015
:1007A0004FF0FF326FF48013404649461BF0D6FDF0
:1007B000002845D14FF0FF32B14B404649461BF06F
:1007C000EBFD00284BD1AAA3D3E9002340464946BC
:1007D0001BF0E2FD00285AD1A7A3D3E9002340462D
:1007E00049461BF0BBFD002851D1002200234046A2
:1007F00049461BF0B3FD002857D100230993209BE5
:1008000013F4806F5CD000241F2C5BD8092D59D9BC
:1008100004F148036B44302203F8202C013D0134DD
:10082000F2E7209B03931F9B029303230193954BB5
:1008300000935B4652460899059823F0E3F910E1CE
:10084000209B03931F9B0293042301938E4B0093E1
:100850005B4652460899059823F0D4F901E1209BA4
:1008600013F004030FD0894A7BB10423209903912C
:100870001F990291019300925B4652460899059890
:1008800023F0C0F9EDE0824AEEE70323EEE7209B78
:1008900002931F9B0193009549EC108B5B465246D7
:1008A00008990598FFF770FDDBE042464B460020B3
:1008B00000211BF029F980468946012309939EE710
:1008C0000625A0E7404649461BF070FD06461BF092
:1008D00069FA02460B46404649461BF015F96D4B36
:1008E00003EBC50393ED008B53EC182B1BF0C4FAFC
:1008F00002460B46CDE906231BF080FD07461BF0A0
:1009000041FA02460B46DDE906011BF0FDF80246FE
:100910000B46CDE9062300225F4B1BF03DFD50B393
:10092000013738461BF02EFA02460B4651EC180BE5
:100930001BF01EFD08B10136002755BB30461BF0E9
:1009400031FA02460B46404649461BF0DDF8804628
:1009500089460022504B1BF001FD38B100224E4B5E
:10096000404649461BF018FD002842D016F0010F02
:100970003FD001363DE00022474BDDE906011BF088
:10098000EDFC0028D9D117B117F0010FD5D00137F0
:10099000D3E71F2C17D8013D404BA3FB0723DB08EF
:1009A000194603EB8303A7EB4303621C303304F1C6
:1009B00048000DEB000404F8203C092F02D90F4633
:1009C0001446E6E714461F2C0AD86B1E45B104F105
:1009D00048026A44302102F8201C1D460134F2E727
:1009E0001F2C06D804F148036B442E2203F8202C58
:1009F00001341F2C17D82A4A82FB0632F317C3EBA7
:100A0000A2031A4603EB8303A6EB4303611C3033B6
:100A100004F148000DEB000404F8203C16460AB12E
:100A20000C46E6E70C46209B03F00303012B39D06C
:100A30001F2C09D8099B002B51D004F148036B44AB
:100A40002D2203F8202C0134209B03931F9B02933B
:100A500001940AAB00935B4652460899059823F02F
:100A6000D1F813B0BDEC028BBDE8F08FAFF300807E
:100A70000000000065CDCD410000000065CDCDC176
:100A8000FFFFEF7F5C930208609302085093020817
:100A900058930208689302080000E03FCDCCCCCC0C
:100AA000676666661F9BB3B1099B1BB9209B13F059
:100AB0000C0F12D01F9B013B1F93194606E004F157
:100AC00048036B44302203F8202C01348C42AFD20F
:100AD0001F2CF4D9ACE71F99F8E71F99F6E7209B84
:100AE00013F0040F07D004F148036B442B2203F8E2
:100AF000202C0134A8E7209B13F0080FA4D004F1A8
:100B000048036B44202203F8202C01349CE700BFEB
:100B100038B50D46044626F0A2FB064A13889BB260
:100B20002DB123431380BDE8384026F093BB23EA60
:100B30000403F7E7B04B00200022034B01214FF4E0
:100B400080709A70E4E700BFB04B00207FB54E681C
:100B500002A9044623F0CAFF9DF808300C2B19D1D6
:100B6000134BB3F90050134B9E4218D807F022FEE6
:100B700003460068694600909B882046ADF8043023
:100B800023F0A1FF70B140F25F620B490B480DF0FA
:100B9000BBFEFEE7204613F0B9FC0546E3E71FF075
:100BA000BFFBE5E72946204623F073FF04B070BD84
:100BB00084510020FFC99A3B11960208DC93020879
:100BC000002330B5134C85B0CDE90133039323786E
:100BD0008DF8043026F043FBA288E38805469A424C
:100BE0000DD0E188A06801AAA18023F008FE58B1C9
:100BF00040F2DA62084909480DF086FEFEE7A06877
:100C000023F0D6FD0128ECD0284626F023FB05B0C2
:100C100030BD00BFD856002011960208DC930208B0
:100C200038B50F4C656835B940F2C7720D490E48AA
:100C30000DF06AFEFEE723F094F9284410F0B4FDAD
:100C400000F00700032809D164680921204623F039
:100C5000A4FA205C031F5842584138BD0020FCE72D
:100C6000B04B002011960208DC93020808B5114B26
:100C70009A78042A06D040F28E520F490F480DF0A0
:100C800043FEFEE71B881B0706D440F28F520A4939
:100C90000A480DF039FEFEE700210820FFF738FF73
:100CA0000222074B98681A7313F0EAF9BDE808406E
:100CB00021F05FBDB04B002011960208DC930208C2
:100CC000D856002010B5084CA06813F0D9F9A068D8
:100CD00023F06EFD012806D00122A0681146BDE870
:100CE000104023F067BD10BDD856002038B5194D0F
:100CF000AB7833B140F22B72174918480DF004FE5F
:100D0000FEE726F0ACFA2988044611F0060109D066
:100D100001214FF48070FFF7FBFE2046BDE838400C
:100D200026F098BA4FF48070FFF7F2FE12F0FAFA4C
:100D3000012805D010F0FD0F05D1FFF741FFECE7CA
:100D4000FFF7C0FFE9E740F24172034903480DF0A5
:100D5000DBFDFEE7B04B002011960208DC93020891
:100D600070B50446064D95F90860FFF7BFFF12F015
:100D7000D7F9314620466A68BDE8704012F008B8DD
:100D8000B04B002008B50A4B1B88DB0606D440F2A6
:100D9000A752084908480DF0B7FDFEE700211020D2
:100DA000FFF7B6FE12F03AFBBDE8084021F0E1BCC7
:100DB000B04B002011960208DC9302080D4B10B5D1
:100DC0001B8804469B0713D500210220FFF7A0FED5
:100DD000094B5A7BFF2A06D040F2E54207490848F2
:100DE0000DF092FDFEE75C73BDE8104021F0C1BC40
:100DF00010BD00BFB04B0020D8560020119602084D
:100E0000DC9302087047704707B5ADF8061001463D
:100E100030B94FF4B572104910480DF075FDFEE77A
:100E2000BDF8063033B940F26B120B490B480DF098
:100E30006BFDFEE70A4B0DF10602986823F00DFFEB
:100E400030B140F26D12044904480DF05DFDFEE73B
:100E500003B05DF804FB00BF11960208DC930208A2
:100E6000D856002010B50E4CA37833B14FF4EA7277
:100E70000C490D480DF048FDFEE7606019B1A17BFB
:100E8000003918BF01212020FFF742FE074B084818
:100E90009B7B23760223A370BDE8104010F050BB6B
:100EA000B04B002011960208DC930208D8560020AF
:100EB000CC4B002008B50CF055F880F00100C0B212
:100EC00008BD0A4B9A780AB1062A0CD11B8803F494
:100ED0008B7343B9064B5A7BFF2A04D1187BFF382A
:100EE00018BF012070470120704700BFB04B0020A1
:100EF000D856002008B50CF025F80028FBD108BD15
:100F00000C4B42889A8142789A730278DA7382880D
:100F10001A82C2885A82C2685A61017A064A91735B
:100F2000028A998C914204D001214FF400709A8476
:100F3000EEE57047B04B0020D8560020094B9A8947
:100F400042809A7B4270DA7B02701A8A82805A8AC7
:100F5000C2805A699B8CC260034A0382927B0272F0
:100F6000704700BFB04B0020D85600204B1E012B0D
:100F700070B50C4606D940F2B7221A491A480DF04E
:100F8000C3FCFEE7194D0A460146A86823F08FFE10
:100F900030B140F2B922134913480DF0B5FCFEE719
:100FA000AE6810F041FA22460146304623F079FE41
:100FB00030B140F2BD220B490B480DF0A5FCFEE715
:100FC000AD6810F03DFA22460146284623F075FE32
:100FD00030B140F2C122034903480DF095FCFEE711
:100FE00070BD00BF11960208DC930208D85600209D
:100FF000054BDB7B1B0913F00E0003D0052B8CBFC8
:1010000000200120704700BFD8560020044BDB7B36
:101010001B0913F00E0F0CBF01200020704700BF0A
:10102000D85600202DE9F04F15469A0580461F46F8
:101030008FB003D501218020FFF76AFDEB014FF04F
:10104000000955D5984C23889E0751D5974E737B40
:10105000FF2B06D040F2AF42954996480DF054FC64
:10106000FEE7636833B94FF49662914991480DF0F9
:101070004BFCFEE749460220FFF74AFDA37886F8BD
:101080000D90042B03D101210820FFF741FD00231F
:10109000B06808A98DF82C3023F02AFD30B140F259
:1010A000BA42834983480DF02FFCFEE7FFF7A0FF0B
:1010B000B0B922F056FF8146606822F05DFF08A9B2
:1010C0008144B068ADF8249023F015FD30B140F2B2
:1010D000C242774977480DF017FCFEE7089BA362F0
:1010E000A378032B02D1B06812F0CAFF21F041FBB4
:1010F000B80702D50120FFF761FE15F0A84F02D016
:101100000220FFF75BFEA90220D50021402003AC9E
:10111000FFF7FEFC2146404623F0E7FDB0B99DF8FD
:10112000143008AA022B22D18DF82830BDF80C30DB
:10113000ADF82030104611F0FDFF38B1404623F0E5
:10114000D2FD18B901214020FFF7E2FC2A0753D550
:10115000564E0321B06803AA23F081FD814688B969
:1011600040F2FE42524953480DF0CEFBFEE7032BFE
:1011700005BF8DF82830D4E900018DF82800C2E9B8
:101180000001D7E79DF80C30B068072B40F01F81B5
:10119000494608AA23F065FD30B140F201524449A6
:1011A00044480DF0B1FBFEE7FFF722FFBDF80E202B
:1011B000A0B9FFF72BFF78B1043292B2B06808A94A
:1011C000ADF8242023F04FFD40B140F212523849CF
:1011D00038480DF099FBFEE70232EEE7BDF80E004D
:1011E0000121073080B225F06BFF8246002842D1F2
:1011F00001210C2012F0D8FEA90705D52A4B1B8827
:101200001A0701D5FFF732FDAB010BD500210420F1
:10121000FFF77EFC244B9B78012B03D1234B98686E
:1012200012F02EFF15F0284F03D000210420FFF705
:101230006FFC7E060CD51C4C23881D0701D5FFF7DB
:1012400015FD2388580703D500210420FFF760FC13
:10125000F90540F1D88003A9404608AA23F0A6FA70
:101260000146002800F0BA8040F2D25210491148DD
:101270000DF04AFBFEE74FF0000B25F0A5FECDF880
:1012800000B00246BDF80E3004464946B06823F06F
:10129000EEFCBDF80E3083420ED040F222520449DB
:1012A00004480DF031FBFEE7B04B0020D85600207B
:1012B00011960208DC93020822F053FE204410F03D
:1012C00073FA00F007000228DFF8589124D199F84A
:1012D0000230042B90D122F044FE504B20448278FF
:1012E0001B789A4288D159460820FFF711FC22F05A
:1012F00038FE204410F058FA9DF82E30C0F300104C
:10130000307389F80830FFF78BFC00287FF474AF46
:10131000B06812F0B5FE6FE722F023FE204410F013
:1013200043FA83064AD522F01CFE204410F03CFA12
:1013300000F0070003280BD10921204622F02DFFE1
:1013400014F800B0ABF1040CDCF1000B4BEB0C0B10
:1013500001210420FFF7DCFBB06823F09BFCC9F8F7
:101360002C00BBF1000F30D0B9F8003058062CD556
:1013700000214020FFF7CCFB0126BDF80E309DF880
:101380002E200120E254BDF80E309DF82F2023447A
:101390009A71BDF80E10089A0131214410F012FA2A
:1013A000BDF80E3050461C44667125F0E1FE1C4B22
:1013B000187810F0CBF921F0DCF91DE799F802302C
:1013C000012B02D1B06812F05BFE0026D5E723F0B6
:1013D0002AFC4946B06823F048FC0DE79DF80C3024
:1013E00003F0BF02032A01D0022B0FD10D4C23883A
:1013F0005A0702D50420FFF78BFB23889B0702D5F1
:101400000120FFF7DBFC0FB0BDE8F08F4FF4BF62A7
:10141000054906480DF078FAFEE700BF1D4C002094
:10142000404B0020B04B002011960208DC930208CC
:1014300008B50246FFF7DCFD30B1072A06D80020C8
:10144000034B83F8302008BD7020FCE70220FAE748
:10145000B04B002008B50246FFF7CAFD28B10020B6
:10146000034B93F83030137008BD7020FCE700BFC9
:10147000B04B002008B5074B01460022986823F0C6
:1014800016FC30B140F2EB22034904480DF03CFA5F
:10149000FEE708BDD856002011960208DC9302082A
:1014A00008B5074B01460022986823F0FAFB30B1DB
:1014B00040F2F122034904480DF026FAFEE708BD88
:1014C000D856002011960208DC93020808B5074B95
:1014D0000146986823F0F7FB30B140F2F722044947
:1014E00004480DF011FAFEE708BD00BFD8560020F1
:1014F00011960208DC93020808B5074B9B7833B1BC
:1015000040F20132054906480DF0FEF9FEE7BDE85C
:101510000840FFF7EBBB00BFB04B0020119602085C
:10152000DC93020808B5054B0146986823F0B1FA30
:10153000002814BF8B20002008BD00BFD856002013
:10154000014B986812F0E2BFD8560020014BD888B2
:10155000704700BFD85600207FB50123ADF80E308C
:101560004FF6FE7309480093806800230DF10E02C8
:1015700004A923F01BFA212800D020B9BDF81000DF
:1015800007B05DF804FB4FF6FF70F9E7D85600206E
:1015900008B5044B0146986823F0BCF9B0FA80F016
:1015A000400908BDD856002038B50B4D0446AB782D
:1015B000012B0DD8FFF7ECFF60B1084BDC80AB7856
:1015C0001BB9FFF793FB002038BDFFF7F9FAFAE7E4
:1015D0003E20F9E78A20F7E7B04B0020D8560020DC
:1015E000024B9B780BB9FFF781BB7047B04B0020D3
:1015F000014BD873704700BFB04B002008B5064BB5
:101600004FF0FF31986823F0FEF80028B8BF033090
:1016100040F3870008BD00BFD856002008B5044B32
:10162000986823F073F9034BB3FBF0F080B208BD68
:10163000D856002040420F0030B58DB02C22044611
:10164000002101A824F05CF801234FF002328DF84C
:1016500008306423CDE9032306930B238DF82C3047
:10166000214B9B8CADF80A30FFF7C2FCA8B140F2C9
:10167000F23307934FF47A7305930CB9FFF722FB0B
:101680001A4D01A9A86813F015F8C0B140F2AC6278
:10169000174918480DF038F9FEE7FFF7BFFF0C2394
:1016A0004343902B0793A3F10A02D8BF91230592DD
:1016B000D8BF0793059B8B2BDFD88C23DCE7FFF784
:1016C000A5FC60B10122A868114623F00AFB30B1E5
:1016D00040F2AF62064907480DF016F9FEE70CB973
:1016E000FFF704FB0DB030BDB04B0020D8560020F2
:1016F00011960208DC930208F8B525F0B0FD554CB0
:1017000006462388D90503D5A37843BBFFF7EEFA35
:10171000514D6B7BFF2B13D06B7B03F0FF0723BB7B
:10172000FF236B73A378032B0AD100233046A370E9
:1017300025F090FD3846FFF713FB25F090FD064697
:10174000A378042B08D12B7BFF2B05D02B7B022BFE
:1017500014D142480FF0F4FEFF232B7327E0002141
:101760004FF48070FFF7D4F9D2E76B7B012B4FF079
:10177000FF0314BF89278D276B73D6E72B7B13B12B
:101780002B7B012B1ED1FFF74BFA0022FF212B7B75
:101790000746DBB222772973002847D0012B0AD1F4
:1017A00064212E48A3700FF0D6FEFFF709FA3046E9
:1017B00025F050FD06E03046A27025F04BFD3120AB
:1017C000FFF7CEFA23881A0608D500218020FFF7FC
:1017D0009FF9A86823F0C8F911F001FE23889B0542
:1017E00007D54FF400700021FFF792F90020FFF7B2
:1017F00023FF0BF0A7FB608620B325F0E5FB01215A
:101800000546002012F0D0FBA678012E14D1002648
:101810002677A670FFF76AFA284611F0DBF9A3785D
:1018200066867BB9BDE8F84011F07ABCA0703046FE
:1018300025F010FD3846C3E72EB1284611F0CAF94D
:1018400000236386F8BDFFF751FA284611F0C2F96C
:101850006686F7E7B04B0020D8560020CC4B00201E
:101860008B4BF0B51B888B4C8B4D63848B4B85B0B9
:101870001B68E3628A4B1B8823848A4B1B68A36224
:101880002B88DB0700F1FC8001210846FFF740F9B7
:101890000523854A04F1100104F10800AB7012F031
:1018A000B1FB28B1F522814981480DF02DF8FEE702
:1018B000A3682BB9F7227D497D480DF025F8FEE796
:1018C0007C4822F0BBFF70A3D3E90023CDE90023BD
:1018D0004FF0FF324FF0FF33A06823F05EF84FF473
:1018E0008811A06812F08AFE014630B140F20F1252
:1018F0006E496F480DF008F8FEE76F4B1B78012B1F
:101900000ED16E4AA06812F04BFCA06812F000FFE6
:10191000E0B140F21B12654965480CF0F5FFFEE7A7
:10192000674E316831B94FF48F72604960480CF0EE
:10193000EBFFFEE7614AA06812F032FC33689B6857
:1019400023B1DB6913B15B7803B1E373FFF704FEE6
:101950000146E080A06812F09FFD064630B140F2DB
:101960002D12524952480CF0CFFFFEE7554B012093
:101970001B78C3EB431203EB8203DB00AB84FFF75E
:101980005BFEA7680FF05CFD32460146384623F047
:1019900094F9064630B140F23312444944480CF001
:1019A000B3FFFEE740F203530427AB81464BAF730E
:1019B0001B78EB73FFF732FE00EB80039B002B825A
:1019C000FFF72CFEC00068823946A0686E6122F0E5
:1019D0008CFF30B14FF4A172344935480CF094FFBC
:1019E000FEE73A46A06803A923F012F8042806D0BF
:1019F0004FF4A3722D492E480CF086FFFEE703A991
:101A000001200FF0EDFE0BF023F808224FF0FF311C
:101A1000A06822F0D3FF30B140F24F12234924488E
:101A20000CF072FFFEE712F0F3FF30B140F25512F6
:101A30001E491F480CF068FFFEE7FFF7D9FA68B1AE
:101A40001EF070FC0146A06823F03DF830B140F272
:101A50005912164916480CF057FFFEE7A468FFF725
:101A60007BFD1A4B014603F10C02204622F0C9FE11
:101A700030B14FF4B0720D490D480CF045FFFEE750
:101A800005B0F0BDAFF300800A0020FF4203000064
:101A900008990208D8560020B04B00200C99020883
:101AA0000A99020810990208390B000811960208D9
:101AB000DC930208690345EC014C00204D0B000843
:101AC000C05400207C5800207B5800203C9602081F
:101AD00008B5044B986822F01BFF034BB3FBF0F0F2
:101AE00080B208BDD856002040420F002DE9F043D7
:101AF0008C4D87B02B889B0706D440F24C728A49E4
:101B00008A480CF001FFFEE7AB78033B012B06D9B6
:101B100040F24E72844985480CF0F6FEFEE76A6892
:101B200032B940F25172804980480CF0EDFEFEE778
:101B30007F4E2C88F77B14F0200418BF4FF47A7482
:101B40004FEA1718FFF754FA00287DD0B8F1020FBA
:101B50000AD0A8F10303022B74D940F265727249CE
:101B600072480CF0D1FEFEE7032795F8303008EB01
:101B7000C80898446F4B104603EB4803B3F81C8029
:101B800022F0FAF94FF4FA534343B3FBF8F3782207
:101B90007733B3FBF2F31F44C7EB0717AB78FF00B3
:101BA000BFB204F5347417FA84F4042BA4B203D141
:101BB00007F6E8072744BCB2D5F8048022F0D1F933
:101BC0000746686822F0D8F9074422F0F0F9BFB25E
:101BD0003F1A22F0C6F940440FF0E6FD7378C0F3D7
:101BE00040198DF80C30544BBFB2CDE904340024B9
:101BF00022F0E9F9009402463B464146B06823F0E2
:101C000014F8287EB278737812FB00F29342C4BFB6
:101C10009B1ADCB22B88F18813F0200FB068B180DA
:101C20008DF80C4003AB76D000934A46434B22F02C
:101C3000DDFD002873D040F224723B493B480CF094
:101C400063FEFEE7062790E7FFF7E0F9002846D09D
:101C5000384B07F00F0708EBC801394403EB410389
:101C60001046B3F81C9022F087F9B8F1000F2CD081
:101C7000B8F1010F2CD14FF00408400080B2F319E5
:101C800093F834304BB14FF4FA52023303444344D7
:101C90009BB25343B3FBF9F39CB2AB78042B8BD1CB
:101CA000FFF7BCFC374497F834308146053398443D
:101CB000FFF70EFF0C2308FB00F003FB09F909EB0B
:101CC000C009A1441FFA89F476E74FF00208D6E76D
:101CD00040F28672144915480CF016FEFEE7FFF735
:101CE000F7FE0746686822F047F909307843AB7879
:101CF00004EBC000042B84B27FF45EAFFFF78EFCD0
:101D00000746FFF7E5FE602358430C2303FB07005B
:101D1000204484B250E74A4622F066FD89E707B0C6
:101D2000BDE8F083B04B002011960208DC93020856
:101D3000D85600203C96020820A10700BC4B00208A
:101D4000F8B5494C258815F0020506D040F2751209
:101D5000464947480CF0D8FDFEE7257725F07FFA85
:101D6000238806465A070CD5424B986822F092FF0A
:101D7000E36AC01AA38C984203D929460420FEF7CF
:101D8000C7FE304625F066FAA778022F37D125F036
:101D900066FA2388064613F0040507D036480FF08C
:101DA000CFFB3046BDE8F84025F054BA25F052FA92
:101DB000606811F0EFF920B1A570BDE8F840FEF7BA
:101DC000CFBF25F04CFA6668054622F0CAF83044C9
:101DD0000FF0EAFC10F0200F0CBF032304230121B5
:101DE0003846A370FEF794FEFFF780FE284625F0E4
:101DF00031FA01210846BDE8F84012F0D5B8042FA9
:101E000027D11C4B1B7BFF2B2DD1237EF3B125F05B
:101E100026FA238805465B0704D517480FF090FB88
:101E20002846BFE725F016FA237E013B237625F0EE
:101E300016FA044601210220FEF76AFEFFF756FE5D
:101E4000204625F007FA01210820D4E74020A3709E
:101E5000B3E7012F07D10023A370064B986812F057
:101E60000FF93120A9E7F8BDB04B00201196020808
:101E7000DC930208D8560020CC4B002038B5012155
:101E800004461020FEF744FE064B9D68FFF7C6FB94
:101E9000012200FB04F1044B284622F090FC0020B4
:101EA00038BD00BFD8560020850D000808B50A4B84
:101EB0001B88DB0606D44FF46172084908480CF011
:101EC00023FDFEE710200021FEF722FE054B986857
:101ED000BDE8084022F081BCB04B002011960208FA
:101EE000DC930208D856002038B50E4D688E30B904
:101EF00040F291320C490D480CF006FDFEE725F04A
:101F000063F80446688E25F07DF8811F2144012086
:101F10000FF066FC064B0446986822F0BBFE001BDF
:101F200038BD00BFB04B002011960208DC930208B8
:101F3000D856002010B5084C636833B94FF4687266
:101F4000064907480CF0E0FCFEE7064B986822F0D3
:101F5000A1FEA36AC01A10BDB04B00201196020862
:101F6000DC930208D856002038B50A4D688E30B987
:101F700040F2AA32084909480CF0C6FCFEE725F0F9
:101F800023F80446688E25F03DF8044414F8020C4A
:101F900038BD00BFB04B002011960208DC93020848
:101FA00038B50A4D688E30B940F2B932084909484F
:101FB0000CF0AAFCFEE725F007F80446688E25F031
:101FC00021F8044414F9070C38BD00BFB04B0020C1
:101FD00011960208DC93020838B50A4D688E30B9B4
:101FE0004FF47272084909480CF08EFCFEE724F0A9
:101FF000EBFF0446688E25F005F8044414F9010C43
:1020000038BD00BFB04B002011960208DC930208D7
:10201000024B1888C0F3C010704700BFB04B0020BF
:1020200030B585B005466C460D4B0FCB84E80F00EC
:102030000DB12B6800930B4B21460022986812F0DB
:102040007BFA044630B140F2E632074907480CF00B
:102050005BFCFEE7FEF7B4FD204605B030BD00BFD7
:10206000C4960208D856002011960208DC93020894
:1020700030B5154D87B004460DF10701A86822F070
:102080008EFC30B140F2F732104911480CF03CFCA4
:10209000FEE79DF80720531EDBB2FD2B0FD90294FB
:1020A000FF2A00D10394A86802A922F060FD40B184
:1020B00040F20442054906480CF026FCFEE7012ADE
:1020C000EFE707B030BD00BFD856002011960208D8
:1020D000DC93020808B5064B986822F057FD30B132
:1020E0004FF48262034904480CF00EFCFEE708BD81
:1020F000D856002011960208DC9302080122024BF8
:102100001146986822F056BBD85600207047F8B5A3
:10211000064604200D4621F006FF030622D5124F85
:10212000BC78FCB926B1012E17D002242046F8BD98
:1021300001262846FFF72CFA0028F6D00B4800238A
:1021400032462946806822F053FB40B14FF48A6240
:10215000074908480CF0D8FBFEE72646E9E70623C6
:10216000BB70E3E77024E1E7B04B0020D8560020B5
:1021700011960208DC930208042010B521F0D3FE6A
:10218000030611D5094CA378062B0DD1084B98688E
:1021900022F030FB30B140F26A42064906480CF0AA
:1021A000B3FBFEE7A07010BD7020FCE7B04B002031
:1021B000D856002011960208DC9302081FB5044689
:1021C00001A812F081F99DF80D3053B14CB1064BC6
:1021D0002078617818700020A27859709A7004B045
:1021E00010BD0220FBE700BFD85600201FB50446F3
:1021F00001A812F069F99DF80D3053B14CB10020DF
:10220000054B1A7822705A789B786270A37004B0DC
:1022100010BD0220FBE700BFD8560020FFF7CEBF5D
:10222000FFF7E4BF0348044B834202D0034B03B1E2
:102230001847704794580020945800200000000070
:10224000064B0749C91A891048BF0131491003D00C
:10225000044B0BB101481847704700BF9458002049
:10226000945800200000000010B5064C237843B9B4
:10227000FFF7D8FF044B13B10448AFF300800123EC
:10228000237010BD3E52002000000000B0D20208B2
:1022900008B5054B1BB105490548AFF30080BDE803
:1022A0000840FFF7CDBF00BF00000000A0220020C3
:1022B000B0D20208A3F5803A704700BF174B002B3D
:1022C00008BF134B9D46FFF7F5FF00218B460F46D5
:1022D0001348144A121A23F013FA0E4B002B00D0A5
:1022E00098470D4B002B00D0984700200021040098
:1022F0000D000D48002802D00C48AFF300801AF002
:10230000B5FD200029001BF020FB1AF045FA00BFA4
:102310000000080000000000000000000020002075
:1023200000200020A052002000000000000000005B
:1023300010B50A4B01220A490A48006803F0F6FE6C
:1023400004F036F8084C094920460AF057FA4FF4D1
:10235000FA7120680FF0FFF810BD00BF29250008B2
:10236000EC2200205C560020B822002051250008F5
:10237000024B93F82E300370704700BFBC22002040
:1023800010B55F4B93F85930042B0ED8DFE803F0FB
:1023900003132231420003787E2B07D0594B0122D0
:1023A00059495A48006803F0C1FE10BD544B012240
:1023B00083F85920F2E70378514981F8313002233C
:1023C00081F859304F4B012230315048006803F0FA
:1023D000ADFEEAE703784A4981F83230032381F8F9
:1023E0005930484B012230314848006803F09EFEC6
:1023F000DBE70378424981F83330042381F8593010
:1024000091F831203F4B043A34314048006803F0E2
:102410008DFECAE73A4C002384F85930621C94F8C8
:10242000311004F131001BF067F9207020B9E37816
:10243000482B09D0432B5DD0324B0122324933481F
:10244000006803F073FEB0E7637A84F82E30013B36
:10245000042BF1D8DFE803F0031221303F00032002
:1024600001F09EF90028E7D01BF0FEFA1BF0FDFA00
:102470002749284B18681FF052F8DDE7032001F0C8
:102480008FF90028D8D01BF0EFFA1BF0EEFA2249A2
:10249000204B18681FF043F8CEE7032001F080F9C5
:1024A0000028C9D01BF0E0FA1BF0DFFA1B49194BDA
:1024B00018681FF034F8BFE7032001F071F9002815
:1024C000BAD01BF0D1FA1BF0D0FA1549114B18689D
:1024D0001FF025F8B0E7032001F062F90028ABD027
:1024E0001BF0C2FA1BF0C1FA0E490A4B18681FF024
:1024F00016F8A1E7024B1A7983F82F209CE700BF5A
:10250000BC22002029250008EC2200205C56002077
:1025100068790208B82700207079020878790208E3
:10252000807902088C79020808B50248FFF728FF75
:1025300008BD00BFEC22002008B50A460023014672
:102540000248006803F0B8FE08BD00BF5C560020DA
:1025500008B51BF05FF94FF4FA71024B18680EF0E2
:10256000FAFF08BDB822002010B582B004461BF067
:102570006AF908B902B010BD00230093ADF8043029
:10258000074B1B88ADF80230ADF8044040F2FF1352
:10259000ADF800306946032020F07EF9EAE700BF7D
:1025A0007C51002008B5064B1B7823B1054B1B68F6
:1025B00000221A7008BD0C201BF009F9F6E700BFD5
:1025C000202300201C23002010B5032001F0E8F890
:1025D00098B9FFF7ADFE0E490E480AF00FF90E4C00
:1025E0000E4920460AF00AF94FF4FA6120680EF00D
:1025F000B2FF0B48FFF7BCFE10BD1BF035FA1BF015
:1026000034FA0849084B18681EF089FFE1E700BF5B
:10261000A52500081C230020182300202D260008D3
:102620002E23002098790208B827002010B584B026
:102630001A4C2046FFF79CFE204610F80D39827B8D
:10264000934207D14FF49671154B18680EF083FF33
:1026500004B010BDA4F10D029373032001F0A0F8A3
:1026600090B91E238DF804300E4B9B7B8DF80530FE
:1026700002238DF80D3001A81BF006F90028E1D1E6
:1026800009481BF0DFFBDDE71BF0EEF91BF0EDF96D
:102690000649074B18681EF042FFE2E72D23002091
:1026A00018230020202300205C8B0208A479020854
:1026B000B827002008B5044A1BF0CFF8034B186870
:1026C0000EF03EFF08BD00BF202300201C23002089
:1026D00038B5044620F0ECF8A04201D8012038BDFE
:1026E0000546032001F05CF80028F8D01BF0BCF987
:1026F0001BF0BBF92B4622460349044800681EF034
:102700000EFF0020EBE700BFB4790208B8270020D5
:1027100030B583B004468368C26853F822301D8800
:102720002846FFF7D5FF08B903B030BD002300935A
:10273000ADF80430164B1B88ADF80230ADF80450EC
:102740006368E2689B1A012B1DDDA368013253F810
:1027500022301B88ADF8003020F09AF8694603203B
:1027600020F09AF80446032001F01AF80028DBD084
:102770001BF07AF91BF079F922460649064B1868D6
:102780001EF0CDFED0E740F2FF13ADF80030E3E7D6
:102790007E510020EC790208B827002030B583B0C4
:1027A00004468368C26853F822301D882846FFF724
:1027B0008FFF08B903B030BD00230093ADF804309B
:1027C000154B1B88ADF80230ADF804506368E26821
:1027D0009B1A012B1BDDA368013253F822301B88A2
:1027E000ADF800306946042020F056F80446032076
:1027F00000F0D6FF0028DDD01BF036F91BF035F9CC
:1028000022460649064B18681EF089FED2E740F2C0
:10281000FF13ADF80030E5E77E5100200C7A020886
:10282000B827002030B583B004468368C26853F8E7
:1028300022301D882846FFF74BFF08B903B030BD92
:1028400000230093ADF80430154B1B88ADF802301F
:10285000ADF804506368E2689B1A012B1BDDA36886
:10286000013253F822301B88ADF80030694602204F
:1028700020F012F80446032000F092FF0028DDD07B
:102880001BF0F2F81BF0F1F822460649064B1868D7
:102890001EF045FED2E740F2FF13ADF80030E5E749
:1028A0007E510020207A0208B827002030B583B07E
:1028B0008368C26853F822301C7800230193436870
:1028C0009B1A012B19DD01AA01211EF0F0F8014627
:1028D0009DF804001FF0D8FF054680B1022000F0EB
:1028E0005FFF60B11BF0C0F81BF0BFF82A46064935
:1028F000064B18681EF013FE01E01FF0C9FF2046CA
:102900001FF0CEFF03B030BD3C7A0208B82700208C
:1029100010B503468168C26851F82200B0F9000082
:102920001A4C20805B689B1A012B0FDD013251F895
:10293000223093F90010003918BF01211FF059FF10
:10294000A0B9032000F02CFF10B910BD0021F5E75D
:102950001BF08AF81BF089F80D4B1C681FF04DFF27
:1029600002460C4920461EF0DAFDEEE7012000F099
:1029700017FF0028E9D01BF077F81BF076F806491E
:10298000034B18681EF0CBFDDFE700BF7E5100202F
:10299000B8270020A07A0208B47A020808B51FF010
:1029A0001CFF032000F0FCFE00B908BD1BF05CF822
:1029B0001BF05BF80249034B18681EF0B0FDF4E70A
:1029C000CC7A0208B827002008B58368C26853F89B
:1029D00022301A88094B1A80032000F0E1FE00B96A
:1029E00008BD1BF041F81BF040F8044B1A8804495D
:1029F000044B18681EF093FDF2E700BFF857002063
:102A0000EC7A0208B827002008B5024B18680EF0CF
:102A100097FD08BD382300202DE9F04186B01FF056
:102A2000F8FE0446894B1B7813F0020F2CD0884E19
:102A300013F0010F2AD0864F13F0040F28D0DFF8CF
:102A40001082032000F0ACFE28BB032000F0A8FE9B
:102A500058BB032000F0A4FE002835D1032000F06D
:102A60009FFE00283ED1032000F09AFE002847D1A7
:102A7000032000F095FE00285ED1032000F090FEB8
:102A8000002867D1002471E0724ED1E7714FD3E77F
:102A9000DFF8C081D5E71AF0E7FF1AF0E6FF6E49CC
:102AA0006E4B18681EF03BFDCFE71AF0DDFF1AF001
:102AB000DCFF6A4B1D6805F043FA02460B46684985
:102AC00028461EF02CFDC4E71AF0CEFF1AF0CDFF09
:102AD000624B1D681FF075FE0246624928461EF0D3
:102AE0001EFDBBE71AF0C0FF1AF0BFFF5B4B1D686D
:102AF0001FF09BFE02465C4928461EF010FDB2E71F
:102B00001AF0B2FF1AF0B1FFE279A3796179207966
:102B1000E57894F802C094F801E024780594CDF8A3
:102B200010E0CDF80CC00295019000914F494B4840
:102B300000681EF0F4FC9BE71AF096FF1AF095FF70
:102B4000464B1C681FF069FE0246494920461EF0AC
:102B5000E6FC92E71AF088FF1AF087FF45493F4BE1
:102B600018681EF0DCFC8DE70134E4B2072C12D8A3
:102B7000032000F015FE0028F6D01AF075FF1AF0B9
:102B800074FF364B1D681FF044FE025D3A4928462B
:102B90001EF0C5FCE8E7032000F002FE98B9032010
:102BA00000F0FEFDC8B9032000F0FAFD18BB0320B9
:102BB00000F0F6FD68BB032000F0F2FD002836D1DE
:102BC00006B0BDE8F0811AF04FFF1AF04EFF2B4916
:102BD000224B18681EF0A3FCE1E71AF045FF1AF03B
:102BE00044FF1E4B1C681FF01CFE02462449204671
:102BF0001EF095FCD7E71AF037FF1AF036FF174B97
:102C00001C681FF0F2FD02461E4920461EF087FC9C
:102C1000CDE71AF029FF1AF028FF104B1C681FF0AF
:102C2000ECFD0246184920461EF079FCC3E71AF075
:102C30001BFF1AF01AFFCDF800803B4632461349BD
:102C4000064800681EF06BFCBAE700BF6E58002013
:102C5000547A02085C7A0208087B0208B827002030
:102C6000107B02082C7B0208487B0208647B020868
:102C7000887B0208A47B0208B87B020894910208B2
:102C8000C07B0208DC7B0208F47B02080C7C020893
:102C900030B583B08368C26853F822301C7801A92C
:102CA00020461FF09EFD88B9032000F079FD08B989
:102CB00003B030BD1AF0D8FE1AF0D7FE019B2246B1
:102CC0000B490C4800681EF02AFCF1E7054601207C
:102CD00000F066FD0028EBD01AF0C6FE1AF0C5FE23
:102CE0002A460549034B18681EF019FCE0E700BFAF
:102CF000447C0208B8270020607C020870B5826816
:102D0000C36852F823100C88013352F823301D7821
:102D1000294620461FF0B4FD80B9032000F040FD95
:102D200000B970BD1AF0A0FE1AF09FFE2B46224695
:102D30000B490C4800681EF0F2FBF2E70646012042
:102D400000F02EFD0028ECD01AF08EFE1AF08DFE59
:102D500032460549034B18681EF0E1FBE1E700BF6E
:102D6000847C0208B8270020B47C020870B582B0C9
:102D70008368C26853F822301B78134A137013F02B
:102D8000020F0ED0114C13F0010F0CD00F4D13F0A9
:102D9000040F0AD00D4E032000F002FD38B902B036
:102DA00070BD0B4CEFE70A4DF1E7094EF3E71AF05F
:102DB0005BFE1AF05AFE00962B462246054906484D
:102DC00000681EF0ACFBEAE76E580020547A020857
:102DD0005C7A0208687A0208B827002030B58FB004
:102DE00004460D4668461AF06AFD0DF1200EEC46C9
:102DF000BCE80F00AEE80F009CE803008EE803007B
:102E000008A9464B186820F049FB10F1880F46D1FD
:102E100068461AF054FD0DF1200EEC46BCE80F0098
:102E2000AEE80F009CE803008EE803004FF4105357
:102E3000ADF820308023ADF822304FF44073079373
:102E400007A81AF04CFD079B0A93354B0B93334BA5
:102E50001A68099B0D9213F0FF0F04D123F0FF03B2
:102E600043F001030993012309932C4B2A46214681
:102E700008A820F030FB044610BB032000F090FCB3
:102E800090B9264B18681FF0A4FC0546002831D1E4
:102E9000032000F085FC044610BB01242FE01F4BEB
:102EA000186820F0D2FAB3E71AF0DEFD1AF0DDFD63
:102EB0001A4B1A681B491C4B18681EF030FBE0E7E0
:102EC000032000F06DFC0028DBD01AF0CDFD1AF0D5
:102ED000CCFD22461549144B18681EF020FBD0E7A4
:102EE0001AF0C2FD1AF0C1FD11490F4B18681EF00F
:102EF00016FB04E0032000F053FC044610B9204602
:102F00000FB030BD1AF0B0FD1AF0AFFD2A460949E6
:102F1000054B18681EF003FB0024F0E73023002067
:102F200000014405E47C0208B8270020147D020853
:102F3000387D0208587D020800B583B00021019158
:102F400001AA1DF0B4FD019910290ED0032000F054
:102F500027FC60B11AF088FD1AF087FD10220549A0
:102F6000054B18681EF0DBFA01E0FFF737FF03B0EE
:102F70005DF804FB787D0208B827002010B588B002
:102F800020F0A8FB514A936843F4005393605049E2
:102F9000504809F033FC032000F002FCF8B901248A
:102FA0004D4B1C6002A81AF0B1FC02A9204620F08B
:102FB00075FA10F1880F1CD0032000F0F1FB0028F7
:102FC0006ED1454B18681FF004FC1FF055FC0446F9
:102FD000032000F0E5FB00286CD108B010BD1AF00A
:102FE00043FD1AF042FD3D493D4B18681EF097FA2B
:102FF000D5E7032000F0D4FB002837D1364B1A6800
:10300000039B079213F0FF0F04D123F0FF0343F05B
:1030100001030393334B05934FF44073019301A8CD
:103020001AF084FC019B04934FF41053ADF8083060
:103030008023ADF80A3001230393274B10222A493D
:1030400002A820F048FA0446D0B9032000F0A8FBFB
:103050000028B6D01AF008FD1AF007FD1E4B1A68BA
:1030600022491F4B18681EF05AFAAAE71AF0FCFC16
:103070001AF0FBFC1E491A4B18681EF050FABDE707
:10308000032000F08DFB00289BD01AF0EDFC1AF015
:10309000ECFC22461749124B18681EF040FA90E7E4
:1030A0001AF0E2FC1AF0E1FC13490D4B18681EF00F
:1030B00036FA86E71AF0D8FC1AF0D7FC22460F49F8
:1030C000074B18681EF02BFA87E700BF00C00550B9
:1030D000713100083823002030230020A07D020831
:1030E000B827002000444004AC540020E47C0208CF
:1030F000AC7D0208147D0208D47D0208007E02081F
:1031000010B504461AF095FD10B9144B9C4205D039
:1031100020461AF08EFD012808D010BD24F01EFBB9
:103120000F4B18600F4B01221A70F1E724F016FBC9
:103130000C4B00221A700A4B1B68C01A0A4B9842AB
:1031400008D84CF24F339842E7D8084B18680EF075
:10315000F7F9E2E71FF0A8FBDFE700BF448B0208A6
:10316000342300203F520020A08601003823002095
:1031700000B585B01FF029FB60B9FFF7F5F9164BD4
:103180001B6800221A70144B1B6800221A7005B0CD
:103190005DF804FB9DF80030032262F304038DF810
:1031A00000309DF800306FF346138DF800301C237B
:1031B0008DF8043002228DF80D209DF800208DF846
:1031C0000520064A937201A81AF05EFB044A1378A0
:1031D00083F001031370D6E738230020202300205A
:1031E00040520020014B1878704700BF4052002029
:1031F00000B9704710B50446032000F0D1FA00B9B9
:1032000010BD1AF031FC1AF030FC22460249034B83
:1032100018681EF084F9F3E7187E0208B82700202A
:1032200010B5A0F19003062B68D8DFE803F0042B5B
:103230003A6767495800032000F0B2FA50B90320FA
:1032400000F0AEFA80B9364B1988364B18680EF08C
:1032500082F910BD1AF008FC1AF007FC3249334B12
:1032600018681EF05CF9EAE71AF0FEFB1AF0FDFBA5
:103270002E4B1C681FF0D1FA02462D4920461EF045
:103280004EF9E0E7032000F08BFA0028E1D01AF0B5
:10329000EBFB1AF0EAFB2749244B18681EF03FF9B4
:1032A000D7E7012000F07CFA0028D2D01AF0DCFB2E
:1032B0001AF0DBFB20491D4B18681EF030F9C8E7F7
:1032C000012000F06DFA0028C3D01AF0CDFB1AF0EF
:1032D000CCFB1A49154B18681EF021F9B9E70320F9
:1032E00000F05EFA0028B4D01AF0BEFB1AF0BDFB65
:1032F00013490E4B18681EF012F9AAE70446032082
:1033000000F04EFA0028A4D01AF0AEFB1AF0ADFB84
:1033100022460C49054B18681EF001F999E700BFD9
:10332000F857002038230020247E0208B827002008
:10333000307E0208587E0208687E0208887E0208F5
:10334000AC7E0208C87E020810B524F007FA0446D5
:10335000104B1B68C31A104A934202D90F4B1B78BB
:1033600053B91FF032FA58B90D4B1B68E31A41F6F6
:103370007862934208D810BD0A481AF05EFDFAE759
:1033800008481AF055FDF6E7054B1C6005481AF091
:1033900059FDF0E734230020A08601003F520020B1
:1033A000BC540020748B020810B580B10446012083
:1033B00000F0F6F900B910BD1AF056FB1AF055FBF3
:1033C00022460A490A4B18681EF0A9F8F3E70320C1
:1033D00000F0E6F90028EED01AF046FB1AF045FBA3
:1033E0000449034B18681EF09AF8E4E7E07E0208EF
:1033F000B8270020087F0208F0B583B004460D46C8
:1034000016461F46032000F0CBF908B903B0F0BD03
:103410001AF02AFB1AF029FB019700962B46224648
:103420000249034800681EF07AF8EFE7207F02089F
:10343000B827002008B5024B1B6803B1984708BDA8
:103440006C23002008B5024B5B6803B1984708BDA8
:103450006C23002008B5024B9B6803B1984708BD58
:103460006C23002008B5024BDB6803B1984708BD08
:103470006C23002008B5024B1B6903B1984708BDB7
:103480006C23002008B5024B5B6903B1984708BD67
:103490006C23002000B585B0094B1868094B1860F3
:1034A000094B0A4A13600A4A01920A4A12680292B8
:1034B000039301A91DF01DFB05B05DF804FB00BFDF
:1034C000DC54002014320020D054002010320020A0
:1034D000248B02084026002008B5024B18681DF016
:1034E0001CFB08BDDC54002038B507F0A1FC0446E5
:1034F000064D2B68D3F8B00207F08EFC28681DF04B
:1035000026FB204607F088FC38BD00BFDC540020B5
:1035100008B5034823F0A8FF024800F099FE08BD53
:10352000608E0208E05400200023062073B170472B
:1035300054B224B9013353B15DF8044B70470228EB
:10354000F8D008680A4908601046F3E710B4094A41
:1035500052F823100A7A022AEAD9032AEAD1441E31
:10356000E4B2012CE6D90868014908601046E1E799
:1035700040260020F454002010B5A2B0202422469A
:1035800000211AA822F0BCF8314B1A934FF4E13312
:103590001C9302238DF8753003238DF876302D4B64
:1035A0001E930A238DF87E3009238DF88030002188
:1035B000159116911791189119914FF48013159345
:1035C000254B199310911191129113911491234B42
:1035D0001093234B14933C2201A822F091F80DF193
:1035E000040E0DF1540CBCE80F00AEE80F00DCF83F
:1035F0000030CEF800300DF1180E0DF1400CBCE893
:103600000F00AEE80F00DCF80030CEF80030154BAC
:103610000B930C9401238DF834308DF835308DF8F0
:103620003630114B0F93114B1AAA01A9104807F01D
:10363000ABFC04469DF837303BB100214FF4E1303C
:103640001AF06CFA204622B010BD0321F6E700BF45
:10365000848E0208688E02083C00015B01001000A5
:103660004400015B44260020085500206426002009
:103670002027002008B531B9084B1868036823B12A
:1036800008F098F801E0012900D908BD034B18683B
:103690000368002BF9D01EF024FAF6E71C55002031
:1036A00008B50349034808F0F9F9FFF765FF08BDBD
:1036B000205500204827002008B502481DF075FF5E
:1036C00008BD00BF2027002008B502481DF06DFF8F
:1036D00008BD00BF2027002008B5024B5A6A1868B1
:1036E000904708BD2027002008B502481AF09AFA32
:1036F00008BD00BF448B020808B503481AF093FBCD
:1037000002481AF090FB08BD748B02085C8B02081B
:1037100018B1034A1060002070472520704700BF91
:103720005027002010B5044C0449206802F016FC14
:103730002068FFF7EDFF10BD5C56002038550020D3
:10374000014B1868704700BF5027002000B583B0B8
:103750000B460549097801910092002201211FF0D2
:103760007CF803B05DF804FB6E58002010B50446E9
:10377000032000F015F820B9A179A0681AF070F9BB
:1037800010BD1AF071F91AF070F90349034B18686B
:103790001DF0C5FEF0E700BF8C8B0208B8270020A3
:1037A00003460B4A107828B10A4A12789A4202D28C
:1037B000002000E00120084A12783AB1074A127846
:1037C00042FA03F313F0010F00D10020704700BF4D
:1037D0007158002070580020425200206F5800207D
:1037E00008B5084B01221A70074B00221A70074BCC
:1037F00004221A70064B1F221A7007F019FB054BA2
:10380000186008BD715800204252002070580020F6
:103810006F580020B827002008B5054823F024FE83
:103820001AF0BBF801201AF046F900F0B1F808BD13
:10383000608E020808B5024823F016FE08BD00BFDE
:10384000608E02082DE9F04180460F4601F109051E
:103850000026344604E05B21082000F0C1FA013460
:10386000AC4233D2052C1BD801A353F824F000BF7F
:103870005738000889380008BD380008913800081A
:103880009538000899380008FBB20433D9B2E3E751
:103890008021E1E70021DFE7731C3146DEB2DBE780
:1038A000BB1DA3420CD0FB1DA3420BD007F10803A4
:1038B000A34209D0A31F18F80310CDE7D121CBE70D
:1038C0005A21C9E75A21C7E75D21C5E70020BDE8B5
:1038D000F08100BF00B583B0002300930193FFF790
:1038E0002FFF114B186001238DF8003090F836300F
:1038F00093B100200C4B1B6893F8351002290FD0B0
:1039000003290FD11AF0EDF8019008216846FFF75E
:1039100099FF03B05DF804FB00681CF070FCE9E758
:103920000321EFE70021EDE7BC27002000B583B0BD
:1039300000220092019202218DF8001005481AF031
:10394000D5F8019008216846FFF77CFF03B05DF8C9
:1039500004FB00BF006A180000B583B0044B1B884D
:10396000ADF8043001A800F017FB03B05DF804FBCC
:103970009C8B020800B583B0044B1B88ADF8043063
:1039800001A800F0D9FA03B05DF804FB9C8B020893
:103990002DE9F04F97B04D4D09AC2E1D0FCE0FC441
:1039A0003368236001AC05F118060FCE0FC496E80A
:1039B0000F0084E80F00464823F056FD454823F0E9
:1039C00053FD01268DF8096000248DF80840424B14
:1039D0000B9301AB0D93414F09A938461CF0D8FA5F
:1039E000B5F838B0ADF838B0324604210EA800F072
:1039F00067FAB5F83CA0ADF83CA0224631460FA8C6
:103A000000F05EFAB5F84090ADF8409032460421DF
:103A100010A800F055FAB5F80080ADF844803246A1
:103A2000042111A800F04CFA2D4D2E4BC5F8F834A6
:103A30004FF00213C5F8F434A3F58033C5F8FC3415
:103A40001C23C5F8E4344FF4487008F075FEFFF706
:103A500083FF142008F070FEFFF78CFF232008F08E
:103A60006BFEFFF779FFB92138461CF079FAFFF7B2
:103A700081FFADF848B02246214612A800F020FA96
:103A8000ADF84CA02246214613A800F019FAADF873
:103A900050903246214614A800F012FAADF8548036
:103AA0003246214615A800F00BFA384603F0D8FD3F
:103AB000C5F8E444C5F8F844C5F8F444C5F8FC4436
:103AC000044823F0D6FC17B0BDE8F08F9C8B0208A9
:103AD000608E0208648E0208E070720000000A50D6
:103AE00000C003500200030008B50448044A121A3B
:103AF000921004491AF025F808BD00BF80010008A3
:103B000080030008A052002008B5154B83F30A88F3
:103B100000F030F8FFF7E8FF124A0AE01068516839
:103B200050F8230041F82300013391688B42F5D30C
:103B30000C320D4B9A4201D20023F6E70B4A08E003
:103B40001168002041F82300013351688B42F7D3FC
:103B50000832074B9A4201D20023F6E7FEF7AEFB8C
:103B600000000020B8D20208C4D20208C4D2020861
:103B7000C4D2020870B5134B134A9A60D3F8882058
:103B800042F47002C3F88820104A4FF480419166D5
:103B90000F4D05F500544FF0FF3222660D4A626664
:103BA0000222C3F8D020BFF34F8FBFF36F8F0020E6
:103BB00007F008F94FF44036E66000201DF05AFC8B
:103BC0002E6170BD00ED00E0000000080090005084
:103BD000008000447FFF7F01014B1860704700BFE9
:103BE0006456002008B5064B1860064B1B6F03F0A7
:103BF0000703032B00D008BD22F008F8FBE700BF45
:103C00006C56002000800050BFF34F8F0549CA68F2
:103C100002F4E062044B1343CB60BFF34F8F00BF4D
:103C2000FDE700BF00ED00E00400FA05F0B18446B6
:103C3000F1B110B409E004F120000FE02033C01A04
:103C400018D1BCB10CF1010C01319CF800400B4BB8
:103C50001B5D03F00303012BEDD020460B78074AD0
:103C6000D25C02F00302012AE9D1E7E701207047A4
:103C7000012070475DF8044B704700BF7DD10208FA
:103C800030B587B00546046823798DF80C30637928
:103C90008DF80D301B4823F0E7FB0022012103A81B
:103CA00000F00EF90DF10B0103A81AF085F89DF84C
:103CB0000B3083F001032370A379022B02D0002084
:103CC00007B030BD4FF0FF330593049300950E4BC2
:103CD000002205A903A800F02FFA059BB3F1FF3FCE
:103CE00007D00095084B012204A903A800F084F92D
:103CF000E5E70095044B042204A903A800F07CF931
:103D0000DDE700BF608E020841DC010810B582B01B
:103D1000002401942A4823F0A7FB8DF800400323D8
:103D20008DF8013001220421684600F0C9F8254BC6
:103D30000122C3F8442401A9052023F08EFB0028AA
:103D40003BD1214BD3F8F02042F00102C3F8F02020
:103D5000D3F8FC2042F08072C3F8FC20A3F55D4349
:103D60001A4A1A60019B03F5D52303F2FC43DB08D2
:103D7000174AA2FB03239B0A013B164A1361022345
:103D8000C2F8F0304FF48073C2F804334FF0604350
:103D9000114AC3F8B02F114AC3F8802ED3F8002E71
:103DA00042F48072C3F8002EFF2283F82020D3F85B
:103DB000002E22F48072C3F8002E02B010BD00BFA6
:103DC000608E020800D0035000ED00E0FF030040C9
:103DD00017916502000004E055CEACC50900010052
:103DE0004FF06043D3F8803E13F0010F01D1112052
:103DF00070470E4AD2F8FC3043F08073C2F8FC30B2
:103E00004FF06043D3F8002E4FF0010C0CFA00FC89
:103E100042EA0C02C3F8002E53F82030002BE8D001
:103E20004FF0604303F820100020704700ED00E0E1
:103E300010B504460FE00123834024EA03040F2851
:103E400014D800EB40020E4B03EB82035A6812B108
:103E50009968C0B2904794B1234600201F28EAD841
:103E600013F0010FE7D101305B08F7E7103800EBE2
:103E700040039B00B033024A13440433E6E710BD0D
:103E8000C027002008B50D4823F0EEFA1A2006F0EE
:103E90005FFF28B91B2006F05BFF40B9002008BD7A
:103EA0001A2006F08FFF1A201DF0E4FAF2E71B201B
:103EB00006F088FF1B201DF0DDFAEFE7608E020898
:103EC0002DE9F04170B30C46174605460F292BD853
:103ED00003784BB1022B20D0032B21D0012B01D032
:103EE000002303E07F2301E040F2FF736A78D340B0
:103EF00013F0010F1AD00F4BD3F81063C6B923F09B
:103F0000AEF980463A462146284604F069F9404613
:103F100023F0A0F93046BDE8F08140F2FF33E5E739
:103F20003F23E3E72226F5E72126F3E72126F1E701
:103F30000226EFE700C0035040B310B504460378F3
:103F40004BB1022B1DD0032B1ED0012B01D000231F
:103F500003E07F2301E040F2FF736278D34013F067
:103F6000010F15D023F07BF923786278012191406D
:103F700003EB43031B01074AD15023F06BF90020E8
:103F800010BD40F2FF33E8E73F23E6E72220704709
:103F90002120F5E740D0035040B310B50446037824
:103FA0004BB1022B1DD0032B1ED0012B01D00023BF
:103FB00003E07F2301E040F2FF736278D34013F007
:103FC000010F15D023F04BF923786278012191403D
:103FD00003EB43031B01074AD15023F03BF90020B8
:103FE00010BD40F2FF33E8E73F23E6E722207047A9
:103FF0002120F5E740E00350002866D02DE9F0418C
:104000000C4615461F460646002960D002784AB184
:10401000022A3ED0032A3FD0012A01D0002303E028
:104020007F2301E040F2FF737178CB4013F0010F62
:1040300001D1FF2A4DD1022D01D9042D4BD123F0FE
:104040000EF980463378FF2B28D12368B3F1FF3F68
:104050002BD02268B2F1FF3F32D0204B02EB42025C
:1040600003EB82025760226802EB420203EB8203F9
:10407000069A9A603378FF2B05D02268012393407B
:10408000174AC2F82434404623F0E4F80020BDE883
:10409000F08140F2FF33C7E73F23C5E72A46216896
:1040A000304604F007F92060CFE73378FF2BD0D1FA
:1040B0000C4BD3F8241470781CF0D9F82060C8E7B2
:1040C000404623F0C7F82D20E1E722207047222048
:1040D000DDE72120DBE72120D9E700BFC027002052
:1040E00000D0035000C00350B0F1FF3F1AD038B5E4
:1040F00004460F2818DC002818DB23F0B0F8012351
:10410000A3400B4AC2F82034C2F82434094B04EB14
:10411000440203EB820200255560956023F09AF873
:10412000284638BD212070472120FAE72120F8E7F2
:1041300000E00350C0270020002856D02DE9F041B0
:104140000C4617461E460546002950D0017849B155
:10415000022939D003293AD0012901D0002303E0F4
:104160007F2301E040F2FF736A78D34013F0010F20
:1041700001D1FF293DD123F072F880462B78FF2B27
:1041800027D12268B2F1FF3F2AD01B4B02EB42023B
:1041900003EB8202C2F8B860226802EB420203EB32
:1041A0008203069AC3F8BC202B78FF2B06D0226826
:1041B000103201239340114AC2F82434404623F0C0
:1041C00049F80020BDE8F08140F2FF33CCE73F23FF
:1041D000CAE73A462168284604F00CF92060D0E787
:1041E000404623F037F82D20ECE7222070472220AC
:1041F000E8E72120E6E700BFC027002000D00350F9
:1042000008B5084BD3F82404D3F82024104000F05C
:10421000553020F0502003F50053C3F82004FFF779
:1042200007FE08BD00C0035008B5084BD3F82404AE
:10423000D3F82024104000F0AA3020F0A02003F58D
:104240000053C3F82004FFF7F3FD08BD00C003507E
:1042500070B586B005460368B3F1B64F27D0304A33
:10426000934222D04FF0FF36B3F1B64F21D02C4A03
:10427000934252D12B4823F0F7F82B798DF8043074
:104280006B798DF80530AB798DF80030EB798DF8CE
:10429000013001220A2101A8FFF712FE01220A21A2
:1042A0006846FFF70DFE002412E00126DCE7002639
:1042B000DAE71D48DFE701A8FFF76EFE642008F08B
:1042C0003BFA01A8FFF738FE642008F035FA013404
:1042D000092CF0DD154A02EB06110323C1F838352D
:1042E00068792B7943EA0043C1F83C35E979AB7929
:1042F00043EA014354363601935101238DF80830C7
:104300008DF80930EB680493AB6803932B7C8DF830
:10431000143002A9286803F0A5FC06B070BD00BFE8
:1043200000800650588E02085C8E020800C00350C0
:1043300010B582B004460A4823F096F823788DF829
:10434000043063788DF80530A278B2FA82F252090F
:1043500004210DEB0100FFF7B3FD002002B010BDFA
:10436000608E0208F0B585B00C4694469DF8341076
:10437000664A1278002A00F0BD800546BCF1070F9E
:1043800000F2BA800A9A002A00F0B8800B9A002A3C
:1043900000F0B6800E9AB2F5006F00F3B3800128EA
:1043A0005BD05B4A02EB0C12127B002A00F0AC805F
:1043B00000220092019202920392564A02EB4C1E96
:1043C000002C4FD14FEA4C1600209051CEF804003B
:1043D000CEF80800CEF80C009EF8020040F0100065
:1043E0008EF802009EF8030040F030008EF80300C3
:1043F00021B9C1B241F003018EF8031000930E9B66
:10440000013B444A4FEA4C1002EB4C11165A63F33D
:104410000E1616520A9B8B600B9B4B60CB789DF857
:104420003C2062F38303CB70012D36D0109B002B10
:1044300056D0374A4FEA0C1102EB0C13109850502B
:10444000119A5A6000249C605D737246694660460A
:1044500003F07EFC204605B0F0BD0C9A002AA0D1E6
:104460002D48F8E72B4F4FEA4C1607EB4C12002073
:10447000B85150609060D060907840F0100090701B
:10448000D07840F00300D0700029B7D107EB4C1270
:10449000C1B241F03001D170B0E70E460A7B42F064
:1044A00001020A73D2B242F002020A73CA680421FE
:1044B00061F39F02F26006F1100796E80F0087E8AB
:1044C0000F00F2696FF0030161F39F02F2610C9B30
:1044D0007361012CAAD10B9AB2610C9A7260A5E7A4
:1044E000002DA6D10B4B03EB4C139A786FF30412FB
:1044F0009A709EE70948AEE70748ACE70648AAE786
:104500000548A8E70448A6E70548A4E74352002069
:10451000282A002028290020018000F0028000F0D5
:10452000078000F0134B1B78FBB110B50446F0B1C7
:1045300022F095FE0023072B13D80F4A02EB03123B
:10454000127B0AB10133F6E723600B4A190102EB33
:10455000031301241C730024545022F07BFE2046D8
:1045600002E022F077FE054810BD05487047054877
:10457000FAE700BF43520020282A0020048000F000
:10458000028000F0018000F038B522F068FE044699
:104590000023072B06DC0C4A02EB0312127B12B934
:1045A0000133F6E7002222B1204622F053FE0748ED
:1045B00038BD03F079FB0025054B1D70204622F025
:1045C00049FE2846F4E700BF282A0020058000F0B5
:1045D000435200200F4B1B78BBB110B5044607288F
:1045E00015D822F03CFE0C4B03EB04131B7B1BB9CC
:1045F00022F030FE09480BE0074B03EB04130024C4
:104600001C7322F027FE204602E00548704705484B
:1046100010BD00BF43520020282A0020068000F071
:10462000028000F0018000F000B583B0134B1B68DE
:10463000019300238DF8043022F011FE104B1B78FB
:1046400033B90F4B01221A7022F004FE002309E057
:1046500022F000FE0B480EE00B4A02EB0312002191
:1046600011730133072BF7DD08238DF8073001A8FC
:1046700003F03EFB002003B05DF804FBE08B020872
:1046800043520020038000F0282A002010B5104C6F
:104690002478BCB1072817DC0E4C04EB0014247BF3
:1046A000A4B10C4C4FEA001E04EB001C44F80E3081
:1046B000029BCCF804300024CCF8084003F048FBFF
:1046C000204610BD0448FCE70448FAE70448F8E730
:1046D00043520020282A0020028000F0018000F0D0
:1046E000078000F008B50A4B1B785BB107280BD890
:1046F000084B03EB00131B7B43B1002103F0EAFAE4
:10470000002008BD0448FCE70448FAE70448F8E73D
:1047100043520020282A0020028000F0018000F08F
:10472000078000F008B50A4B1B785BB107280BD84F
:10473000084B03EB00131B7B43B1012103F0CAFAC2
:10474000002008BD0448FCE70448FAE70448F8E7FD
:1047500043520020282A0020028000F0018000F04F
:10476000078000F0F8B5194B1F6D5B6D1F4002D438
:104770000125002402E0FEE701346D00072C24D857
:104780003D42F9D0124B1D652301124AD358002B2C
:10479000F2D002EB0416B1680131B16072682046B4
:1047A000984780F00100C0B2737B012BE4D1002850
:1047B000E2D0094B03EB44131A7B6FF341021A73E7
:1047C0001A7F6FF341021A77D6E7F8BD0000045054
:1047D00000200450282A0020282900202DE9F04F2D
:1047E00089B005460E4614469846C36B5B690122A4
:1047F00007A960689847EB6B5B69012206A9304600
:10480000984707A81AF080FD48B10027A77567757B
:104810004FF0FF33A360384609B0BDE8F08F07467C
:1048200006A81AF081FD0123A375237E033304EB50
:10483000C3035E6000221A816368B3422AD02368F2
:10484000834201D00023A37506A81AF092FD237DB0
:10485000984201D00023A37506A81AF069FD81468D
:1048600007A81AF065FD814501D00023A37506A8AD
:104870001AF066FD814607A81AF062FD814501D055
:104880000023A375237D043BDBB2022B0BD800234E
:10489000A375C0E7206006A81AF06BFD20754FF0E5
:1048A000FF33A360EEE706A81AF042FD80B1EB6B80
:1048B0005B69022204A93046984704A81AF04BFD10
:1048C0000346207D032868D8DFE800F0615B070D10
:1048D00006A81AF040FD0346F3E7237E033304EBFA
:1048E000C303CC221A811AF054FD129B187094F85D
:1048F000189006A81AF00FFD09F1030904EBC90985
:1049000089F80A00237E033304EBC303B3F808A03D
:1049100093F80AB006A81AF00BFD814606A81AF013
:104920000FFD0390B9F1000F3DD0EB6B5B690222E4
:1049300004A93046984704A81AF0C9FC6075637D45
:1049400003B9A375A37DA3B1BAF1000F11D0039BE6
:10495000F1186B6C5B4286EA01021A4201D0002317
:10496000A3756B6C5A1E0A409B1A9A4501D9002305
:10497000A375A37D002B40D0BBF1000F18D1E77DBC
:104980003CE0227E033204EBC2021381ABE7227EBD
:10499000033204EBC2021381A5E7227E033204EB4B
:1049A000C20213819FE706A81AF07AFC6075C6E779
:1049B0000122E275627EBAB9BBF1010F08D095F809
:1049C0003470DFB9EA6AB2F1FF3F05D01F4615E047
:1049D00001216176174611E0BBF1030F01D01F469C
:1049E0000CE00122A27609E0BBF1010F37D0BBF148
:1049F000030F03D10122A27600E01F4653B117B185
:104A0000BBF1010F06D95346039A3146284619F0E7
:104A1000BEFDA060A37D13B1236953442361237EAF
:104A2000114A127893421CD201332376B8F1000F59
:104A300013D0A37D8BB1E37D7BB177B9BBF1030FBD
:104A40000BD0A168B1F1FF3F07D0129B0093012367
:104A500022462846FFF7C2FEA075A77DDBE6174673
:104A6000CCE70023A375E1E7048C02082DE9F04FA1
:104A700089B005460F4692469B4600238DF80B30C1
:104A80004FF0FF31104600F0EFFFB7F5801F1DD348
:104A90000023009317F1020F07D0009B002B40F07A
:104AA0009E802B7C002B00F08C80EB6AB3F1FF3FE3
:104AB0002CD02A689B1A6A6CB3FBF2F917F1020832
:104AC00018BF4FF00108002301935DE00DF10A02C9
:104AD000394605F1080000F017FF0146B0F1FF3F2D
:104AE00011D0504600F0C0FF0DF10B0301225146DA
:104AF000284619F0CBFD00900028CBD09DF80B3054
:104B00008BF80030C6E700230093C3E7696A2846A4
:104B100019F05EFC8146D1E70123019337E09DF84F
:104B20000B308BF80030324B1A683249504620F077
:104B30000EFE00942F4B9968B1F1FF3F1BD06B6CB8
:104B40005B4281EA06021A4215D12A4C204600F047
:104B50008BFF0DF10B0342462146284619F096FDC6
:104B600004460028E6D017F1020FD8D0214B1B686D
:104B7000BB42DFD1D3E74946284619F029FC8146DC
:104B8000019BCBB9009BBBB96B6A4B45C4D02C6869
:104B90006B6C03FB0944EB6B5B69052203A92046A0
:104BA000984703A81AF08CFC1AF0B1FC20461AF0C2
:104BB000BAFC06460146BFE7009BA3B1B7F5801FCC
:104BC00003D3009B8BB100200AE09BF80030DAF899
:104BD0000420394605F1080000F0B4FEF1E700209A
:104BE00009B0BDE8F08F2D20FAE72D20F8E700BFCF
:104BF000008C02081C31002070B582B004464FF0D2
:104C0000FF33C3620DF107031A4A6FF00101FFF78A
:104C10002DFF20BB174B9B68E362E56A29462046BF
:104C200019F0C7F92063E8B12946204619F09FFC26
:104C30000546A36AAB421BD02946204619F0B9F9B4
:104C40000646236B034423632946204619F08FFC54
:104C50000546002EEDD100232363E062E9E7A36A55
:104C6000E362DAE7E16A204619F081FCE062DBE703
:104C700002B070BD4831002030B583B01C46032A15
:104C800014BF002201221B7E9A4202D0012003B0F1
:104C900030BD0D46096823689942F7D3636899428D
:104CA000F4D80DF10703114AFFF7E0FE0028EDD11B
:104CB0000E4B5A686B689A42E8D19DF80730032B77
:104CC00014BF00230123227E9342DFD163690133A5
:104CD00063612369E2689342D8D2A268296842F8E6
:104CE0002310236901332361D0E700BF483100203E
:104CF0002DE9F04182B004460E4690461F46816A77
:104D000006E01A4B9968B1F1FF3F1FD0012E23D066
:104D1000E06A884217D0B1F1FF3F14D0134D284606
:104D200000F0A2FE0DF1070301222946204619F0EA
:104D3000ADFC0028E5D03B469DF8072029462046DB
:104D4000C0470028DDD102B0BDE8F0815968204697
:104D500019F00DFC0146D9E7044B5A68636C5B42BD
:104D60004A401A42D4D04FF0FF31D1E7F030002052
:104D700010B50446083000F08DFD0023024A1946A4
:104D80002046FFF7B5FF10BD7BE6010838B50446A5
:104D9000037C0BBB02461349083000F01DFE616A1C
:104DA000204619F037FB421C616A204619F088FA48
:104DB000054620B9236B626C1344143B2363A16A3C
:104DC000204619F0D4FBA0622368C01A636CB0FBC4
:104DD000F3F06062284638BD0023034A0121FFF743
:104DE00087FFDCE713EA0108E1E90108F0B589B0C3
:104DF00080B30F4616461D46044690F834301BB962
:104E00000025284609B0F0BD012119F02EFA0195C0
:104E10000E9B0293039704960023059306939DF837
:104E20003C308DF81C30237C5BB901AA0A4904F19F
:104E3000080000F0D1FD5EB9069D204619F0B7FCD0
:104E4000DFE701AB054A00212046FFF751FFF2E7FB
:104E5000059DF2E70025D4E72FE20108794C000810
:104E6000F0B58BB004460D46406AE36B5B690522E2
:104E700005A92668676C07FB0060984705A81AF02B
:104E80001FFB012836D00094002301938DF80850B1
:104E9000039301238DF81030A16AE36A99420FD081
:104EA000237CBBB96A46144904F1080000F094FD64
:104EB000019B13B99DF810309BB901980BB0F0BD60
:104EC000204619F054FBE062236B626C9B1A14338A
:104ED0002363EDE76B46094A01212046FFF708FFEF
:104EE000E6E7626A2368616C01FB0231E06B1AF04D
:104EF00099FAE2E70020E1E7055100088550000833
:104F00002DE9F04F89B004468A4691461D4600239C
:104F100007930969026BCB1D406C1438B3FBF0F3A7
:104F2000013301EBC301914200F2A7804E4677E0C6
:104F30003D2840F092800490BB4605961EE04FF05D
:104F400000092368616C01FB0631E06B1AF056FA28
:104F5000204619F094F9204619F030FB2063B9F18E
:104F6000000F76D0DAF81020D31D616C1439B3FB32
:104F7000F1F3013302EBC30290423AD32368ABEB67
:104F80000309606CB9FBF0F909FB00301AF0CBFAA9
:104F90008046E16A204619F0EAFAA36A83422CD0DF
:104FA000E062374B9A68616C4B1E1340226B5B1AB0
:104FB00013442363ABEB08072368079EF61AB6FB7E
:104FC000F1F6B145BBD197B1E36B9B69BA08414695
:104FD00098478146E36A3B44E362236BA8EB0B08E6
:104FE0004344236304F1080000F054FCA9E7B946E8
:104FF000A7E7DDF810B0059E02E0DDF810B0059ED1
:10500000BBF1000F29D0DAF81000226BC31D616CD0
:105010001439B3FBF1F3013300EBC30082421CD31C
:10502000E76ADFF85C803946404600F01DFD07ABBB
:105030000293019500963B4642465146204619F0A0
:10504000E1FD834600287FF473AFD8F80830E362AF
:10505000D6E7DDF810B0059ED2E75F461FB13846AF
:1050600009B0BDE8F08F2B46054A5268DAF8001007
:1050700004F1080000F066FCF1E71C27EFE700BF31
:105080001C310020F0B583B01C46032A05D1237AD9
:10509000012B33D0012003B0F0BD06460F46154664
:1050A0000DF10703164A0968FFF7E0FC606000286D
:1050B000EDD19DF80730032BE9D0114B5A687B687E
:1050C0009A42E4D1237A012B08D13B69E268134468
:1050D0007269934202D900232374D8E7E3683A69DE
:1050E00013440833E3602B46012239463046FFF76C
:1050F00007FF60600028CAD00020CCE7207CCAE708
:1051000048310020F0B583B0089C2668032A05D1F9
:10511000237A012B4DD0012003B0F0BD15460DF1CF
:105120000703254A3046FFF7A1FC60600028EFD155
:105130002168214B5A688B6A486CC0F1000C5A40B8
:1051400012EA0C0FE4D1227A012A19D00F68DB1B76
:10515000B3FBF0F3CA6AD21BB2FBF0F29A4219D049
:10516000E36815490A6913440833E3602B460122BA
:105170002068FFF7C5FE60600028C9D00020CBE79B
:105180000D4A1269E7683A447769BA42DED90023CA
:105190002374BDE7726CF16A531E0B40316B9B1A8E
:1051A0000B4433632668B16A304619F0E0F9F062C7
:1051B000D6E7207CB0E700BF48310020F8B56E4B41
:1051C0001E6800221A60002800F0B6800D460446D2
:1051D00090F8343013B30A6803689A4240F0AE8006
:1051E0004A6843689A4240F0AC808A6883689A4271
:1051F00040F0A980CA68C3689A4240F0A6800A6954
:1052000043699A4240F0A3808A69C36B9A4201D0F5
:105210005D2594E04B698361002590E0876B6822EF
:10522000002120F06DFAA7632B6823606B68636030
:105230002B6963616B69A361EA68A96804F10800DE
:1052400000F03AFBAB69E3639B6804F140009847C8
:1052500030B9636C23B16268B2FBF3F2E26101E042
:105260000023E36194F84330002B72D000232366BF
:10527000656C002D6FD0E369002B6ED02368B3FB03
:10528000F5F205FB1233002B69D16768B7FBF5F324
:1052900005FB1373002B64D1204618F07AFEA36936
:1052A000034404339F425ED36369B3F5805F5CD8E7
:1052B000CB2B5CD9B5F5805F5BD30321204618F07A
:1052C000D4FFE36B1B686168206898470546E36B71
:1052D000DB6802209847EDB1636C143B5DB9266A28
:1052E00003FB06F6204618F054FEA369034404337A
:1052F0009E4200D25A25B5FA85F35B0984F8343012
:105300001BB11E4A13680133136085B1204619F0A2
:105310004EFA14E03146204619F0CCF905466428CF
:10532000DAD13146204619F0C5F90546D4E761685F
:10533000206819F058FFE9E7212500E05D2528469F
:10534000F8BD5D25FBE75D25F9E75D25F7E75D2500
:10535000F5E72125F3E75B25F1E75B25EFE7592525
:10536000EDE75925EBE75A25E9E75F25E7E75F25F4
:10537000E5E75B25E3E700BFAC2A0020A82A002070
:10538000F0B585B0A8B30C4617461E46054690F802
:10539000343083B3B1F5801F2FD2012118F065FF9F
:1053A0000DF10F03164A21462846FFF75FFB04461E
:1053B00030B99DF80F30012B08D0022B17D02D24C7
:1053C000284619F0F4F9204605B0F0BD0C4B1B69D6
:1053D000B34201D06324F3E700220192084B00930B
:1053E00033463946284619F0EAF90446E8E76024CE
:1053F000E6E72124E7E71124E5E72924E3E700BFF6
:1054000074310020F0B585B0002838D00C4617461E
:105410001E46054690F834309BB3B1F5801F32D25A
:10542000012118F022FF0DF10F03184A21462846EA
:10543000FFF71CFB044630B99DF80F30012B08D054
:10544000022B1AD02D24284619F0B1F9204605B0B8
:10545000F0BD0E4B1A690A9BF3189A4201D26324DD
:10546000F1E700230193094B00930A9B324639462A
:10547000284619F0A4F90446E5E76024E3E721246F
:10548000E4E71124E2E72924E0E700BF74310020BB
:1054900070B582B058B30C461646054690F83430C5
:1054A0003BB3B1F5801F26D2012118F0DEFE0DF1CD
:1054B0000703124A21462846FFF7D8FA044668B97E
:1054C0009DF80730032B10D0022B01D0612406E099
:1054D0000A49284619F05AFB306000E02D2428467E
:1054E00019F065F9204602B070BD2D24F7E721249C
:1054F000F8E71124F6E72924F4E700BF743100200F
:10550000F0B583B01C460023236070B30E461746E7
:10551000054690F8343053B3B1F5801F29D20121EC
:1055200018F0A3FE0DF10703134A31462846FFF792
:105530009DFA064680B99DF80730032B13D0022B45
:1055400005D000233B600C4B1B69236005E0012361
:105550003B600423236000E02D26284619F027F93C
:10556000304603B0F0BD2D26F7E72126F8E71126D7
:10557000F6E72926F4E700BF7431002000B583B0B8
:10558000044B009300231A46194619F030FD03B06E
:105590005DF804FBFFFF0F0000B583B0044B0093E0
:1055A00000231A46194619F02CFD03B05DF804FBE0
:1055B000FFFF0F002DE9F8431D469DF82070436959
:1055C000AB422FD304468846914619F0DEF9032FEB
:1055D00006D0266B2946204618F0CBFC864225D300
:1055E000134E4FF0FF31304600F03EFAC6F800800F
:1055F0003561C6F80C903B46002231462046FFF745
:105600007FFC0546236E73B1204619F004FD94F823
:10561000503013B994F858302BB1236E04F1500078
:10562000984700E062252846BDE8F8831C25FAE784
:10563000483100202DE9F04184B000283AD00C46D2
:1056400090461F46054690F83430ABB3B1F5801F45
:1056500034D2022118F009FE0DF10F03184A214639
:105660002846FFF703FA18B99DF80F30012B0FD029
:10567000012300933B46424621462846FFF79AFF06
:105680000646284619F093F8304604B0BDE8F0818C
:105690000B4B1B69BB42EBD101230193084B0093D9
:1056A0003B4600224146284619F089F80646002864
:1056B000E7D0DDE72126E7E71126E5E72926E3E73E
:1056C00074310020F0B583B0A0B30C4616460546F1
:1056D00090F8343083B3B1F5801F2FD2022118F037
:1056E000C4FD0DF10703164A21462846FFF7BEF90F
:1056F000B8B99DF80730032B1AD0022B01D06124D2
:1057000010E00F4C2146284619F040FA0346471C8A
:105710003A462146284619F0ABFC044616B13760DC
:1057200000E02D24284619F042F8204603B0F0BDD1
:105730002D24F7E72124F8E71124F6E72924F4E7DC
:105740007431002070B586B00392C0B30C46054694
:1057500090F83430ABB3B1F5801F34D2022118F089
:1057600084FD0DF11703194A21462846FFF77EF9FB
:10577000064638B99DF81730032B03D0022B10D002
:10578000612608E002230093CC2303AA2146284681
:10579000FFF710FF0646284619F009F8304606B014
:1057A00070BD0A49284619F0F1F9039A8242F2D0F5
:1057B00003460649284619F05BFC0646EBE721261E
:1057C000ECE71126EAE72926E8E700BF743100205C
:1057D00030B585B048B30C46054690F8343033B345
:1057E000B1F5801F25D2022118F03FFD0DF10F0306
:1057F000114A21462846FFF739F978B99DF80F304C
:10580000032B01D12D240AE00323009300231A4621
:1058100021462846FFF7CEFE044600E02D24284608
:1058200018F0C5FF204605B030BD2124FAE7112449
:10583000F8E72924F6E700BF74310020036853F825
:105840003100C0F313007047036853F83100C0F310
:1058500007507047036803EBC1035868704700BFE7
:10586000006850F831301B0D1B05134340F83130F0
:10587000704700BF006850F83130C3F3130343EAA8
:10588000025340F831307047036803EBC1035A609C
:10589000704700BF002309E002684FF0FF3142F873
:1058A0003310026802EBC3025160013342689A422E
:1058B000F2D800230372704708B501604260FFF719
:1058C000E9FF08BD002342689A421BD910B403E0E7
:1058D000013342689A4212D904684FEAC30C54F863
:1058E0003320B2F1FF3FF3D0C2F313029142EFD164
:1058F0004FF0FF3244F80C20036863445A605DF8AF
:10590000044B7047704700BF10B5002300E001331F
:1059100044689C4212D904684FEAC30E54F83340DD
:10592000B4F1FF3FF3D0C4F3130C6145EFD1C4F3DE
:105930000754147003687344586801E04FF0FF3057
:1059400010BD00BF2DE9F047456806467DB30F4600
:10595000914698460024D0F800A05AF8343001331C
:1059600005D021463046FFF769FFB84210D0013418
:10597000A542F2D1002402E00134A54214D05AF825
:1059800034300133F8D13A4621463046FFF768FFFC
:10599000424621463046FFF76DFF4A4621463046D3
:1059A000BDE8F047FFF770BFB8F1030F03D1012343
:1059B0003372BDE8F087002402E00134A542F6D03E
:1059C00021463046FFF740FF0328F6D13A462146EC
:1059D0003046FFF745FFDBE72DE9F043914642688B
:1059E00083B00AB30546884600242B6853F8343048
:1059F000013316D021462846FFF720FF21460746EF
:105A00002846FFF721FF214606462846FFF722FFDA
:105A10003946034632462846CDF80090C04718B1B3
:105A20006A6801349442E0D303B0BDE8F08300BF5C
:105A300008B5034B1968034B1868FFF7BFFB08BD97
:105A4000705600209056002008B521F0F5FB014B60
:105A5000186008BDA031002008B5024B186821F07D
:105A6000E6FB08BDA031002038B504460D46094BC1
:105A70001A6800211FF044FE4FF0FF32226065607B
:105A80000023A3752361A260E3756376A376237672
:105A900038BD00BF008C02082DE9F04186B00646F3
:105AA0000D4617469846586819F081FC4403A4B285
:105AB00098F803301B0303F480531C4498F8023019
:105AC000DB0203F400631C44B8F80030C3F30A039C
:105AD0001C441B4B01930021384619F072FC0290C4
:105AE0000121384619F06DFC03904FF0FF33049309
