:020000040800F2
:1000000000200020A14800089DE601089DE60108A7
:100010009B2F02089DE601089DE601089DE6010868
:100020009DE601089DE601089DE601089DE60108A0
:100030009DE601089DE601089DE601089DE6010890
:100040009DE601089DE601089DE601089DE6010880
:10005000817200089DE601089DE601089DE6010801
:100060009DE601089DE601089DE601086D43000834
:100070005D4300089DE601089DE601089DE6010834
:100080009DE601089DE601089DE601089DE6010840
:100090009DE601089DE60108FD5400089DE6010863
:1000A0009DE601089DE60108C14F0008994F000830
:1000B0009DE601089DE601084DB90108F9C3010854
:1000C000CD600208C9600208ADBB0108E360020808
:1000D000D1600208C9C30108D56002085DC40108E7
:1000E00095C401089DE601089DE60108E1D30008DA
:1000F0009DE601089DE601089DE601089DE60108D0
:100100009DE601089DE601089DE601089DE60108BF
:100110009DE601089DE601089DE601089DE60108AF
:100120009DE601089DE601089DE601089DE601089F
:100130009DE601089DE601089DE601089DE601088F
:100140009DE601089DE601089DE601089DE601087F
:100150009DE601089DE60108E77B0208399E01083B
:100160009DE601089DE60108676002086D600208CF
:10018000194A5AB3194BDB6913F0040F29D110B483
:100190000AE003EA00048C4210D0013AB2B1134BDA
:1001A000DB6913F0040F14D110F0010FF1D1104CE2
:1001B0001C40002CEDD06FF001000CE00C4A1A40FE
:1001C0000AB9002007E06FF0010004E06FF00200C0
:1001D00001E04FF0FF305DF8044B70476FF0020014
:1001E00070474FF0FF307047809698000000035032
:1001F000020001000D4BDB6913F4803F12D170B592
:100200000A4B03F580560124F46003F500552C6475
:100210004FF480721A6100212046FFF7B1FF346469
:10022000EC6070BD6FF00100704700BF000003502C
:1002300010B5124B4FF480329A6603F51C33DC691B
:10024000144041F67132DA6303F580520121D16026
:10025000586102221A6100212120FFF791FF40B16D
:10026000074B0122DA601CB1A3F500530022DA63C8
:1002700010BD00212120FFF783FFF1E7009000501F
:100280000020035038B51A4B5861DB6913F0040F96
:100290002AD10C4654F8041B154B9961151F06E032
:1002A000214651F8042B124B9A61043D0C465DB176
:1002B00008210846FFF764FF03460028F0D00C4AE7
:1002C00004211161184638BD094B04221A6100212E
:1002D0002120FFF755FF03460028F3D100212120FC
:1002E000FFF74EFF0346EDE74FF0FF33EAE700BFAD
:1002F000000003502DE9F0410F46164605461A4B03
:100300004FF480329A6603F51C33DA6902F48038C0
:1003100041F67132DA6303F580530122DA6000237B
:1003200002E025442744361B8EB105F5005424F421
:10033000FF5424F01F04641BB44228BF34462246F5
:1003400039462846FFF79EFF03460028E9D0074AB2
:100350000121D160B8F1000F03D0A2F500520021B5
:10036000D1631846BDE8F081009000500020035092
:10037000000000000000000000000000000000007D
:10038000013800D0FCE770472DE9F04F2DED028BCE
:1003900093B082460C4693461D4657EC106B8DED8C
:1003A000080B32463B46304639461CF047FD0028D4
:1003B00000F009814FF0FF32B14B304639461CF056
:1003C00065FD002840F0FF804FF0FF326FF480138E
:1003D000304639461CF03CFD002840F0F4800022F5
:1003E0000023DDE90867304639461CF031FD00285E
:1003F00040F0FC809DED087B8DED067B209B13F487
:100400008063119301D106231E93DDE906010246A4
:10041000C1F30A50C1F31303904643F07F5949F4E6
:100420004019A0F2FF301CF037FA83A3D3E9002370
:100430001CF09CFA82A3D3E900231CF0E1F80646E5
:100440000F4600228F4B404649461CF0D7F87EA34A
:10045000D3E900231CF08AFA02460B46304639469F
:100460001CF0CEF81CF01CFD06461CF015FA804668
:10047000894677A3D3E900231CF078FA0022824B47
:100480001CF0BEF81CF00CFD074673A3D3E9002353
:10049000404649461CF06AFA8046894638461CF0B8
:1004A000FBF96FA3D3E900231CF060FA02460B4668
:1004B000404649461CF0A2F88046894602460B4653
:1004C0001CF054FACDE90C0107F2FF37002100229D
:1004D000CDE90A123B050B9300230A9342464B4693
:1004E000404649461CF08CF8CDE90E0142464B4689
:1004F00000204FF080411CF081F8804689460022A0
:10050000624BDDE90C011CF05BFB0022604B1CF030
:1005100077F802460B46DDE90C011CF051FB002286
:100520005C4B1CF06DF802460B46DDE90C011CF03B
:1005300047FB02460B46404649461CF061F802461E
:100540000B46DDE90E011CF03BFB0022524B1CF078
:1005500057F8DDE90A231CF009FA8046894649EC80
:10056000188BDDE906231CF091FC40B1013E00220E
:10057000474B404649461CF023FB41EC180B06F163
:100580006303C62B3BD80427209B13F4006F40D095
:1005900035A3D3E90023DDE90689404649461CF02E
:1005A0006BFC00283BD032A3D3E9002340464946E8
:1005B0001CF04EFC002832D01E9BB34221DD9E1B56
:1005C000731E1E931FE0209B02931F9B01931E9B93
:1005D00000939DED080B2B465A462146504600F0ED
:1005E000CBF813B0BDEC028BBDE8F08F9FED227B02
:1005F0008DED067B069607F100430793FEE605277F
:10060000C2E700231E93209B43F4806320930027BE
:100610003E461F9B9F4241D2A3EB070840E01E9B32
:10062000002BF6D0119B002BF3D01E9B013B1E9399
:10063000EFE700BFAFF30080FB799F501344D33F37
:10064000B3C8608B288AC63F61436F63A787D23FD8
:1006500071A379094F930A401655B5BBB16B02409F
:10066000EF39FAFE422EE63F2D431CEBE2361A3FED
:100670000000000080842E41000000000000000007
:10068000FFFFEF7F0000F83F0000E03F00002C403C
:1006900000002440000018400000F03F4FF0000828
:1006A000209B13F0020902D00FB14FF000083EB1B9
:1006B00053EC182BDDE906011CF082FACDE90601A6
:1006C00000220023DDE908011CF0C2FB00283BD119
:1006D000209B23F400630293CDF804801E9B0093BB
:1006E0009DED060B2B465A462146504600F044F835
:1006F000002F3FF476AF209B13F0200F2CD04FF04B
:10070000450C00F101082B46024621466046D047C1
:1007100086EAE672A2EBE67205230593013F049791
:10072000002303930A230293F30F019300922B46B5
:1007300042462146504624F0BDF8B9F1000F3FF47F
:1007400050AF02461F9F10E0DDE90601024601F1AD
:100750000043CDE90623BBE74FF0650CD1E7561CFB
:100760002B4621462020D0473246A2EB0B03BB424A
:10077000F5D3104635E700BF2DE9F04F2DED028B84
:1007800093B00590089192469B4659EC108B1E9DA4
:1007900042464B46404649461CF050FB002840D09C
:1007A0004FF0FF326FF48013404649461CF050FB77
:1007B000002845D14FF0FF32B14B404649461CF06E
:1007C00065FB00284BD1AAA3D3E900234046494644
:1007D0001CF05CFB00285AD1A7A3D3E900234046B4
:1007E00049461CF035FB002851D100220023404629
:1007F00049461CF02DFB002857D100230993209B6C
:1008000013F4806F5CD000241F2C5BD8092D59D9BC
:1008100004F148036B44302203F8202C013D0134DD
:10082000F2E7209B03931F9B029303230193954BB5
:1008300000935B4652460899059823F061FF10E14A
:10084000209B03931F9B0293042301938E4B0093E1
:100850005B4652460899059823F052FF01E1209B20
:1008600013F004030FD0894A7BB10423209903912C
:100870001F990291019300925B4652460899059890
:1008800023F03EFFEDE0824AEEE70323EEE7209BF4
:1008900002931F9B0193009549EC108B5B465246D7
:1008A00008990598FFF770FDDBE042464B460020B3
:1008B00000211BF0A3FE80468946012309939EE791
:1008C0000625A0E7404649461CF0EAFA06461BF01A
:1008D000E3FF02460B46404649461BF08FFE6D4B38
:1008E00003EBC50393ED008B53EC182B1CF03EF883
:1008F00002460B46CDE906231CF0FAFA07461BF028
:10090000BBFF02460B46DDE906011BF077FE0246FF
:100910000B46CDE9062300225F4B1CF0B7FA50B31B
:10092000013738461BF0A8FF02460B4651EC180B66
:100930001CF098FA08B10136002755BB30461BF071
:10094000ABFF02460B46404649461BF057FE804629
:1009500089460022504B1CF07BFA38B100224E4BE6
:10096000404649461CF092FA002842D016F0010F8A
:100970003FD001363DE00022474BDDE906011CF087
:1009800067FA0028D9D117B117F0010FD5D0013778
:10099000D3E71F2C17D8013D404BA3FB0723DB08EF
:1009A000194603EB8303A7EB4303621C303304F1C6
:1009B00048000DEB000404F8203C092F02D90F4633
:1009C0001446E6E714461F2C0AD86B1E45B104F105
:1009D00048026A44302102F8201C1D460134F2E727
:1009E0001F2C06D804F148036B442E2203F8202C58
:1009F00001341F2C17D82A4A82FB0632F317C3EBA7
:100A0000A2031A4603EB8303A6EB4303611C3033B6
:100A100004F148000DEB000404F8203C16460AB12E
:100A20000C46E6E70C46209B03F00303012B39D06C
:100A30001F2C09D8099B002B51D004F148036B44AB
:100A40002D2203F8202C0134209B03931F9B02933B
:100A500001940AAB00935B4652460899059823F02F
:100A60004FFE13B0BDEC028BBDE8F08FAFF30080FA
:100A70000000000065CDCD410000000065CDCDC176
:100A8000FFFFEF7FDC970208E0970208D09702088B
:100A9000D8970208E89702080000E03FCDCCCCCC04
:100AA000676666661F9BB3B1099B1BB9209B13F059
:100AB0000C0F12D01F9B013B1F93194606E004F157
:100AC00048036B44302203F8202C01348C42AFD20F
:100AD0001F2CF4D9ACE71F99F8E71F99F6E7209B84
:100AE00013F0040F07D004F148036B442B2203F8E2
:100AF000202C0134A8E7209B13F0080FA4D004F1A8
:100B000048036B44202203F8202C01349CE700BFEB
:100B100038B50D46044626F070FD064A13889BB290
:100B20002DB123431380BDE8384026F061BD23EA90
:100B30000403F7E7204C00200022034B01214FF46F
:100B400080709A70E4E700BF204C00207FB54E68AB
:100B500002A9044624F048FD9DF808300C2B19D159
:100B6000134BB3F90050134B9E4218D808F09AFC6F
:100B700003460068694600909B882046ADF8043023
:100B800024F01FFD70B140F25F620B490B480EF07C
:100B900035FCFEE7204614F033FA0546E3E720F083
:100BA00026F9E5E72946204624F0F1FC04B070BDA3
:100BB000F4510020FFC99A3B919A02085C98020800
:100BC000002330B5134C85B0CDE90133039323786E
:100BD0008DF8043026F011FDA288E38805469A427C
:100BE0000DD0E188A06801AAA18024F086FB58B14D
:100BF00040F2DA62084909480EF000FCFEE7A068FE
:100C000024F054FB0128ECD0284626F0F1FC05B076
:100C100030BD00BF5C570020919A02085C98020822
:100C200038B50F4C656835B940F2C7720D490E48AA
:100C30000EF0E4FBFEE723F012FF284411F02EFB38
:100C400000F00700032809D164680921204624F038
:100C500022F8205C031F5842584138BD0020FCE7B1
:100C6000204C0020919A02085C98020808B5114BAC
:100C70009A78042A06D040F28E520F490F480EF09F
:100C8000BDFBFEE71B881B0706D440F28F520A49C2
:100C90000A480EF0B3FBFEE700210820FFF738FFFB
:100CA0000222074B98681A7313F064FFBDE80840EE
:100CB00022F0CDBA204C0020919A02085C980208DC
:100CC0005C57002010B5084CA06813F053FFA068D3
:100CD00024F0ECFA012806D00122A0681146BDE8F4
:100CE000104024F0E5BA10BD5C57002038B5194D0E
:100CF000AB7833B140F22B72174918480EF07EFBE7
:100D0000FEE726F07AFC2988044611F0060109D096
:100D100001214FF48070FFF7FBFE2046BDE838400C
:100D200026F066BC4FF48070FFF7F2FE13F074F803
:100D3000012805D010F0FD0F05D1FFF741FFECE7CA
:100D4000FFF7C0FFE9E740F24172034903480EF0A4
:100D500055FBFEE7204C0020919A02085C9802089F
:100D600070B50446064D95F90860FFF7BFFF12F015
:100D700051FF314620466A68BDE8704012F082BDDE
:100D8000204C002008B50A4B1B88DB0606D440F235
:100D9000A752084908480EF031FBFEE70021102059
:100DA000FFF7B6FE13F0B4F8BDE8084022F04FBAE2
:100DB000204C0020919A02085C9802080D4B10B557
:100DC0001B8804469B0713D500210220FFF7A0FED5
:100DD000094B5A7BFF2A06D040F2E54207490848F2
:100DE0000EF00CFBFEE75C73BDE8104022F02FBA5A
:100DF00010BD00BF204C00205C570020919A0208D3
:100E00005C9802087047704707B5ADF806100146B8
:100E100030B94FF4B572104910480EF0EFFAFEE702
:100E2000BDF8063033B940F26B120B490B480EF097
:100E3000E5FAFEE70A4B0DF10602986824F08BFCF8
:100E400030B140F26D12044904480EF0D7FAFEE7C3
:100E500003B05DF804FB00BF919A02085C98020899
:100E60005C57002010B50E4CA37833B14FF4EA72F2
:100E70000C490D480EF0C2FAFEE7606019B1A17B83
:100E8000003918BF01212020FFF742FE074B084818
:100E90009B7B23760223A370BDE8104011F0CAB8F3
:100EA000204C0020919A02085C9802085C570020B0
:100EB0003C4C002008B50CF031FD80F00100C0B2C0
:100EC00008BD0A4B9A780AB1062A0CD11B8803F494
:100ED0008B7343B9064B5A7BFF2A04D1187BFF382A
:100EE00018BF012070470120704700BF204C002030
:100EF0005C57002008B50CF001FD0028FBD108BDAF
:100F00000C4B42889A8142789A730278DA7382880D
:100F10001A82C2885A82C2685A61017A064A91735B
:100F2000028A998C914204D001214FF400709A8476
:100F3000EEE57047204C00205C570020094B9A8951
:100F400042809A7B4270DA7B02701A8A82805A8AC7
:100F5000C2805A699B8CC260034A0382927B0272F0
:100F6000704700BF204C00205C5700204B1E012B17
:100F700070B50C4606D940F2B7221A491A480EF04D
:100F80003DFAFEE7194D0A460146A86824F00DFC1B
:100F900030B140F2B922134913480EF02FFAFEE7A0
:100FA000AE6810F0BBFF22460146304624F0F7FB46
:100FB00030B140F2BD220B490B480EF01FFAFEE79C
:100FC000AD6810F0B7FF22460146284624F0F3FB37
:100FD00030B140F2C122034903480EF00FFAFEE798
:100FE00070BD00BF919A02085C9802085C5700200F
:100FF000054BDB7B1B0913F00E0003D0052B8CBFC8
:1010000000200120704700BF5C570020044BDB7BB1
:101010001B0913F00E0F0CBF01200020704700BF0A
:101020005C5700202DE9F04F15469A0580461F4673
:101030008FB003D501218020FFF76AFDEB014FF04F
:10104000000955D5984C23889E0751D5974E737B40
:10105000FF2B06D040F2AF42954996480EF0CEF9EC
:10106000FEE7636833B94FF49662914991480EF0F8
:10107000C5F9FEE749460220FFF74AFDA37886F846
:101080000D90042B03D101210820FFF741FD00231F
:10109000B06808A98DF82C3024F0A8FA30B140F2DD
:1010A000BA42834983480EF0A9F9FEE7FFF7A0FF93
:1010B000B0B923F0D4FC8146606823F0DBFC08A9BA
:1010C0008144B068ADF8249024F093FA30B140F236
:1010D000C242774977480EF091F9FEE7089BA36278
:1010E000A378032B02D1B06813F044FD22F0AFF8CF
:1010F000B80702D50120FFF761FE15F0A84F02D016
:101100000220FFF75BFEA90220D50021402003AC9E
:10111000FFF7FEFC2146404624F065FBB0B99DF880
:10112000143008AA022B22D18DF82830BDF80C30DB
:10113000ADF82030104612F077FD38B1404624F06B
:1011400050FB18B901214020FFF7E2FC2A0753D5D4
:10115000564E0321B06803AA24F0FFFA814688B9ED
:1011600040F2FE42524953480EF048F9FEE7032B85
:1011700005BF8DF82830D4E900018DF82800C2E9B8
:101180000001D7E79DF80C30B068072B40F01F81B5
:10119000494608AA24F0E3FA30B140F2015244492A
:1011A00044480EF02BF9FEE7FFF722FFBDF80E20B2
:1011B000A0B9FFF72BFF78B1043292B2B06808A94A
:1011C000ADF8242024F0CDFA40B140F21252384953
:1011D00038480EF013F9FEE70232EEE7BDF80E00D4
:1011E0000121073080B226F039F98246002842D129
:1011F00001210C2013F052FCA90705D52A4B1B88AE
:101200001A0701D5FFF732FDAB010BD500210420F1
:10121000FFF77EFC244B9B78012B03D1234B98686E
:1012200013F0A8FC15F0284F03D000210420FFF78D
:101230006FFC7E060CD51C4C23881D0701D5FFF7DB
:1012400015FD2388580703D500210420FFF760FC13
:10125000F90540F1D88003A9404608AA24F024F8F3
:101260000146002800F0BA8040F2D25210491148DD
:101270000EF0C4F8FEE74FF0000B26F073F8CDF83F
:1012800000B00246BDF80E3004464946B06824F06E
:101290006CFABDF80E3083420ED040F2225204495F
:1012A00004480EF0ABF8FEE7204C00205C5700200D
:1012B000919A02085C98020823F0D1FB204410F0B8
:1012C000EDFF00F007000228DFF8589124D199F8CB
:1012D0000230042B90D123F0C2FB504B2044827883
:1012E0001B789A4288D159460820FFF711FC23F059
:1012F000B6FB204410F0D2FF9DF82E30C0F3001052
:10130000307389F80830FFF78BFC00287FF474AF46
:10131000B06813F02FFC6FE723F0A1FB204410F01E
:10132000BDFF83064AD523F09AFB204410F0B6FF98
:1013300000F0070003280BD10921204623F0ABFC65
:1013400014F800B0ABF1040CDCF1000B4BEB0C0B10
:1013500001210420FFF7DCFBB06824F019FAC9F87A
:101360002C00BBF1000F30D0B9F8003058062CD556
:1013700000214020FFF7CCFB0126BDF80E309DF880
:101380002E200120E254BDF80E309DF82F2023447A
:101390009A71BDF80E10089A0131214410F08CFFAB
:1013A000BDF80E3050461C44667126F0AFF81C4B59
:1013B000187810F045FF21F04AFF1DE799F8023038
:1013C000012B02D1B06813F0D5FB0026D5E724F03D
:1013D000A8F94946B06824F0C6F90DE79DF80C302D
:1013E00003F0BF02032A01D0022B0FD10D4C23883A
:1013F0005A0702D50420FFF78BFB23889B0702D5F1
:101400000120FFF7DBFC0FB0BDE8F08F4FF4BF62A7
:10141000054906480DF0F2FFFEE700BF8D4C0020A5
:10142000B04B0020204C0020919A02085C980208E2
:1014300008B50246FFF7DCFD30B1072A06D80020C8
:10144000034B83F8302008BD7020FCE70220FAE748
:10145000204C002008B50246FFF7CAFD28B1002045
:10146000034B93F83030137008BD7020FCE700BFC9
:10147000204C002008B5074B01460022986824F054
:1014800094F930B140F2EB22034904480DF0B6FF65
:10149000FEE708BD5C570020919A02085C9802089C
:1014A00008B5074B01460022986824F078F930B15E
:1014B00040F2F122034904480DF0A0FFFEE708BD09
:1014C0005C570020919A02085C98020808B5074B07
:1014D0000146986824F075F930B140F2F7220449CA
:1014E00004480DF08BFFFEE708BD00BF5C570020ED
:1014F000919A02085C98020808B5074B9B7833B1B3
:1015000040F20132054906480DF078FFFEE7BDE8DC
:101510000840FFF7EBBB00BF204C0020919A020867
:101520005C98020808B5054B0146986824F02FF82E
:10153000002814BF8B20002008BD00BF5C5700208E
:10154000014B986813F05CBD5C570020014BD888B4
:10155000704700BF5C5700207FB50123ADF80E3007
:101560004FF6FE7309480093806800230DF10E02C8
:1015700004A923F099FF212800D020B9BDF810005C
:1015800007B05DF804FB4FF6FF70F9E75C570020E9
:1015900008B5044B0146986823F03AFFB0FA80F092
:1015A000400908BD5C57002038B50B4D0446AB78A8
:1015B000012B0DD8FFF7ECFF60B1084BDC80AB7856
:1015C0001BB9FFF793FB002038BDFFF7F9FAFAE7E4
:1015D0003E20F9E78A20F7E7204C00205C570020E6
:1015E000024B9B780BB9FFF781BB7047204C002062
:1015F000014BD873704700BF204C002008B5064B44
:101600004FF0FF31986823F07CFE0028B8BF03300C
:1016100040F3870008BD00BF5C57002008B5044BAD
:10162000986823F0F1FE034BB3FBF0F080B208BDE5
:101630005C57002040420F0030B58DB02C2204468C
:10164000002101A824F0DAFD01234FF002328DF8C9
:1016500008306423CDE9032306930B238DF82C3047
:10166000214B9B8CADF80A30FFF7C2FCA8B140F2C9
:10167000F23307934FF47A7305930CB9FFF722FB0B
:101680001A4D01A9A86813F08FFDC0B140F2AC62F9
:10169000174918480DF0B2FEFEE7FFF7BFFF0C2315
:1016A0004343902B0793A3F10A02D8BF91230592DD
:1016B000D8BF0793059B8B2BDFD88C23DCE7FFF784
:1016C000A5FC60B10122A868114624F088F830B169
:1016D00040F2AF62064907480DF090FEFEE70CB9F4
:1016E000FFF704FB0DB030BD204C00205C570020FC
:1016F000919A02085C980208F8B525F07EFF554CD7
:1017000006462388D90503D5A37843BBFFF7EEFA35
:10171000514D6B7BFF2B13D06B7B03F0FF0723BB7B
:10172000FF236B73A378032B0AD100233046A370E9
:1017300025F05EFF3846FFF713FB25F05EFF0646F7
:10174000A378042B08D12B7BFF2B05D02B7B022BFE
:1017500014D1424810F06EFCFF232B7327E00021C8
:101760004FF48070FFF7D4F9D2E76B7B012B4FF079
:10177000FF0314BF89278D276B73D6E72B7B13B12B
:101780002B7B012B1ED1FFF74BFA0022FF212B7B75
:101790000746DBB222772973002847D0012B0AD1F4
:1017A00064212E48A37010F050FCFFF709FA304670
:1017B00025F01EFF06E03046A27025F019FF31200B
:1017C000FFF7CEFA23881A0608D500218020FFF7FC
:1017D0009FF9A86823F046FF12F07BFB23889B0546
:1017E00007D54FF400700021FFF792F90020FFF7B2
:1017F00023FF0CF083F8608620B325F0B3FD0121B0
:101800000546002013F04AF9A678012E14D10026CF
:101810002677A670FFF76AFA284611F055FFA378DD
:1018200066867BB9BDE8F84012F0F4B9A070304686
:1018300025F0DEFE3846C3E72EB1284611F044FFFE
:1018400000236386F8BDFFF751FA284611F03CFFEC
:101850006686F7E7204C00205C5700203C4C0020B7
:101860008B4BF0B51B888B4C8B4D63848B4B85B0B9
:101870001B68E3628A4B1B8823848A4B1B68A36224
:101880002B88DB0700F1FC8001210846FFF740F9B7
:101890000523854A04F1100104F10800AB7013F030
:1018A0002BF928B1F522814981480DF0A7FDFEE70B
:1018B000A3682BB9F7227D497D480DF09FFDFEE717
:1018C0007C4823F039FD70A3D3E90023CDE9002340
:1018D0004FF0FF324FF0FF33A06823F0DCFD4FF4F0
:1018E0008811A06813F004FC014630B140F20F12D9
:1018F0006E496F480DF082FDFEE76F4B1B78012BA0
:101900000ED16E4AA06813F0C5F9A06813F07AFCF6
:10191000E0B140F21B12654965480DF06FFDFEE72E
:10192000674E316831B94FF48F72604960480DF0ED
:1019300065FDFEE7614AA06813F0ACF933689B6867
:1019400023B1DB6913B15B7803B1E373FFF704FEE6
:101950000146E080A06813F019FB064630B140F262
:101960002D12524952480DF049FDFEE7554B01201A
:101970001B78C3EB431203EB8203DB00AB84FFF75E
:101980005BFEA76810F0D6FA32460146384623F0CF
:1019900012FF064630B140F23312444944480DF07C
:1019A0002DFDFEE740F203530427AB81464BAF7396
:1019B0001B78EB73FFF732FE00EB80039B002B825A
:1019C000FFF72CFEC00068823946A0686E6123F0E4
:1019D0000AFD30B14FF4A172344935480DF00EFDC7
:1019E000FEE73A46A06803A923F090FD042806D03C
:1019F0004FF4A3722D492E480DF000FDFEE703A918
:101A0000012010F067FC0BF0FFFC08224FF0FF31C3
:101A1000A06823F051FD30B140F24F122349244811
:101A20000DF0ECFCFEE713F06DFD30B140F2551205
:101A30001E491F480DF0E2FCFEE7FFF7D9FA68B136
:101A40001FF0D7F90146A06823F0BBFD30B140F28A
:101A50005912164916480DF0D1FCFEE7A468FFF7AD
:101A60007BFD1A4B014603F10C02204623F047FC94
:101A700030B14FF4B0720D490D480DF0BFFCFEE7D8
:101A800005B0F0BDAFF300800A0020FF4203000064
:101A9000889D02085C570020204C00208C9D020885
:101AA0008A9D0208909D0208390B0008919A02084D
:101AB0005C980208690345EC714C00204D0B00084E
:101AC000405500200159002000590020BC9A02080E
:101AD00008B5044B986823F099FC034BB3FBF0F076
:101AE00080B208BD5C57002040420F002DE9F04352
:101AF0008C4D87B02B889B0706D440F24C728A49E4
:101B00008A480DF07BFCFEE7AB78033B012B06D93E
:101B100040F24E72844985480DF070FCFEE76A6819
:101B200032B940F25172804980480DF067FCFEE7FF
:101B30007F4E2C88F77B14F0200418BF4FF47A7482
:101B40004FEA1718FFF754FA00287DD0B8F1020FBA
:101B50000AD0A8F10303022B74D940F265727249CE
:101B600072480DF04BFCFEE7032795F8303008EB88
:101B7000C80898446F4B104603EB4803B3F81C8029
:101B800022F078FF4FF4FA534343B3FBF8F3782283
:101B90007733B3FBF2F31F44C7EB0717AB78FF00B3
:101BA000BFB204F5347417FA84F4042BA4B203D141
:101BB00007F6E8072744BCB2D5F8048022F04FFFAF
:101BC0000746686822F056FF074422F06EFFBFB256
:101BD0003F1A22F044FF404410F060FB7378C0F3DA
:101BE00040198DF80C30544BBFB2CDE904340024B9
:101BF00022F067FF009402463B464146B06823F05E
:101C000092FD287EB278737812FB00F29342C4BF33
:101C10009B1ADCB22B88F18813F0200FB068B180DA
:101C20008DF80C4003AB76D000934A46434B23F02B
:101C30005BFB002873D040F224723B493B480DF017
:101C4000DDFBFEE7062790E7FFF7E0F9002846D026
:101C5000384B07F00F0708EBC801394403EB410389
:101C60001046B3F81C9022F005FFB8F1000F2CD0FD
:101C7000B8F1010F2CD14FF00408400080B2F319E5
:101C800093F834304BB14FF4FA52023303444344D7
:101C90009BB25343B3FBF9F39CB2AB78042B8BD1CB
:101CA000FFF7BCFC374497F834308146053398443D
:101CB000FFF70EFF0C2308FB00F003FB09F909EB0B
:101CC000C009A1441FFA89F476E74FF00208D6E76D
:101CD00040F28672144915480DF090FBFEE7FFF7BD
:101CE000F7FE0746686822F0C5FE09307843AB78F6
:101CF00004EBC000042B84B27FF45EAFFFF78EFCD0
:101D00000746FFF7E5FE602358430C2303FB07005B
:101D1000204484B250E74A4623F0E4FA89E707B04A
:101D2000BDE8F083204C0020919A02085C980208DC
:101D30005C570020BC9A020820A107002C4C002010
:101D4000F8B5494C258815F0020506D040F2751209
:101D5000464947480DF052FBFEE7257725F04DFC3C
:101D6000238806465A070CD5424B986823F010FD8D
:101D7000E36AC01AA38C984203D929460420FEF7CF
:101D8000C7FE304625F034FCA778022F37D125F066
:101D900034FC2388064613F0040507D0364810F0BB
:101DA00049F93046BDE8F84025F022BC25F020FC7A
:101DB000606811F069FF20B1A570BDE8F840FEF73A
:101DC000CFBF25F01AFC6668054622F048FE304475
:101DD00010F064FA10F0200F0CBF0323042301213C
:101DE0003846A370FEF794FEFFF780FE284625F0E4
:101DF000FFFB01210846BDE8F84012F04FBE042F5A
:101E000027D11C4B1B7BFF2B2DD1237EF3B125F05B
:101E1000F4FB238805465B0704D5174810F00AF940
:101E20002846BFE725F0E4FB237E013B237625F01F
:101E3000E4FB044601210220FEF76AFEFFF756FE8E
:101E4000204625F0D5FB01210820D4E74020A370CF
:101E5000B3E7012F07D10023A370064B986812F057
:101E600089FE3120A9E7F8BD204C0020919A020894
:101E70005C9802085C5700203C4C002038B50121DA
:101E800004461020FEF744FE064B9D68FFF7C6FB94
:101E9000012200FB04F1044B284623F00EFA002037
:101EA00038BD00BF5C570020850D000808B50A4BFF
:101EB0001B88DB0606D44FF46172084908480DF010
:101EC0009DFAFEE710200021FEF722FE054B9868E0
:101ED000BDE8084023F0FFB9204C0020919A020889
:101EE0005C9802085C57002038B50E4D688E30B9FA
:101EF00040F291320C490D480DF080FAFEE725F0D2
:101F000031FA0446688E25F04BFA811F21440120E6
:101F100010F0E0F9064B0446986823F039FC001BEA
:101F200038BD00BF204C0020919A02085C9802083E
:101F30005C57002010B5084C636833B94FF46872E1
:101F4000064907480DF05AFAFEE7064B986823F059
:101F50001FFCA36AC01A10BD204C0020919A0208F1
:101F60005C9802085C57002038B50A4D688E30B97D
:101F700040F2AA32084909480DF040FAFEE725F080
:101F8000F1F90446688E25F00BFA044414F8020CAB
:101F900038BD00BF204C0020919A02085C980208CE
:101FA00038B50A4D688E30B940F2B932084909484F
:101FB0000DF024FAFEE725F0D5F90446688E25F0E9
:101FC000EFF9044414F9070C38BD00BF204C002081
:101FD000919A02085C98020838B50A4D688E30B9AB
:101FE0004FF47272084909480DF008FAFEE725F02F
:101FF000B9F90446688E25F0D3F9044414F9010CAC
:1020000038BD00BF204C0020919A02085C9802085D
:10201000024B1888C0F3C010704700BF204C00204E
:1020200030B585B005466C460D4B0FCB84E80F00EC
:102030000DB12B6800930B4B21460022986812F0DB
:10204000F5FF044630B140F2E632074907480DF08B
:10205000D5F9FEE7FEF7B4FD204605B030BD00BF60
:10206000449B02085C570020919A02085C98020881
:1020700030B5154D87B004460DF10701A86823F06F
:102080000CFA30B140F2F732104911480DF0B6F9B0
:10209000FEE79DF80720531EDBB2FD2B0FD90294FB
:1020A000FF2A00D10394A86802A923F0DEFA40B108
:1020B00040F20442054906480DF0A0F9FEE7012A66
:1020C000EFE707B030BD00BF5C570020919A0208CF
:1020D0005C98020808B5064B986823F0D5FA30B131
:1020E0004FF48262034904480DF088F9FEE708BD09
:1020F0005C570020919A02085C9802080122024B6A
:102100001146986823F0D4B85C5700207047F8B5A2
:10211000064604200D4622F084FC030622D5124F09
:10212000BC78FCB926B1012E17D002242046F8BD98
:1021300001262846FFF72CFA0028F6D00B4800238A
:1021400032462946806823F0D1F840B14FF48A62C4
:10215000074908480DF052F9FEE72646E9E706234D
:10216000BB70E3E77024E1E7204C00205C570020BF
:10217000919A02085C980208042010B522F051FCE4
:10218000030611D5094CA378062B0DD1084B98688E
:1021900023F0AEF830B140F26A42064906480DF02D
:1021A0002DF9FEE7A07010BD7020FCE7204C002048
:1021B0005C570020919A02085C9802081FB50446FB
:1021C00001A812F0FBFE9DF80D3053B14CB1064B47
:1021D0002078617818700020A27859709A7004B045
:1021E00010BD0220FBE700BF5C5700201FB504466E
:1021F00001A812F0E3FE9DF80D3053B14CB1002060
:10220000054B1A7822705A789B786270A37004B0DC
:1022100010BD0220FBE700BF5C570020FFF7CEBFD8
:10222000FFF7E4BF0348044B834202D0034B03B1E2
:102230001847704718590020185900200000000066
:10224000064B0749C91A891048BF0131491003D00C
:10225000044B0BB101481847704700BF18590020C4
:10226000185900200000000010B5064C237843B92F
:10227000FFF7D8FF044B13B10448AFF300800123EC
:10228000237010BDAE5200200000000030D70208BD
:1022900008B5054B1BB105490548AFF30080BDE803
:1022A0000840FFF7CDBF00BF00000000A0220020C3
:1022B00030D70208A3F5803A704700BF174B002BB8
:1022C00008BF134B9D46FFF7F5FF00218B460F46D5
:1022D0001348144A121A23F091FF0E4B002B00D022
:1022E00098470D4B002B00D0984700200021040098
:1022F0000D000D48002802D00C48AFF300801BF001
:102300002FFB200029001CF0E2F81AF0BFFF00BFED
:102310000000080000000000000000000020002075
:1023200000200020205300200000000000000000DA
:1023300010B504F009FF094B01220949094800685A
:1023400004F0C0FD084C094920460AF0FBFE4FF49A
:10235000967120680FF079FE10BD00BF5926000865
:10236000F9220020E0560020B8220020DD270008D6
:10237000084B5B78012B05D01BB9074B93F83B301A
:1023800003707047054BD3F8A430C3F340030370C8
:10239000704700BFB8230020BC22002000C00350BB
:1023A00010B5A14B93F86630042B0ED8DFE803F08C
:1023B00003132251620003787E2B07D09B4B01222E
:1023C0009B499C48006804F07DFD10BD964B01229E
:1023D00083F86620F2E70378934981F83E300223C0
:1023E00081F86630914B01223D319248006804F03B
:1023F00069FDEAE703788C4A82F83F30032182F8CE
:1024000066108D4AD2788AB98B4203D9102B01D03D
:10241000112B13D1884903238B700123CB70002328
:102420004B7002221144092000F0B6FA7F4B0122C2
:102430007F498048006804F045FDC6E77E490423D3
:102440008B700123CB7002221144092000F0A4FA02
:10245000ECE70378744981F84030042381F8663052
:1024600091F83E20714B043A41317248006804F003
:1024700029FDAAE76C4B002283F866206E4B9B78FF
:10248000032B09D0042B7DD0684B01226849694891
:10249000006804F017FD98E7634CA21C94F83E1006
:1024A00004F13E001BF079FE20700028ECD1E278A8
:1024B000614B1A7100225A704FF496715F4B186885
:1024C0000FF0C3FD2379482B06D0432BDCD1564BAC
:1024D0005A7983F83C20D7E7A37A84F83B30013B54
:1024E000042BD1D8DFE803F0031221303F00032092
:1024F00002F022F80028C7D01CF081F81CF080F808
:102500004F49504B18681FF079FDBDE7032002F0DA
:1025100013F80028B8D01CF072F81CF071F84A4982
:10252000484B18681FF06AFDAEE7032002F004F87C
:102530000028A9D01CF063F81CF062F84349414B15
:1025400018681FF05BFD9FE7032001F0F5FF0028EE
:102550009AD01CF054F81CF053F83D49394B1868D8
:102560001FF04CFD90E7032001F0E6FF00288BD020
:102570001CF045F81CF044F83649324B18681FF03F
:102580003DFD81E7284C04F12F0294F83E1004F140
:102590003E001BF06DFE607000287FF475AF94F86C
:1025A0003010254B197194F8311083F8201094F8ED
:1025B000321083F8201094F8332083F82020D2B210
:1025C000C2F3C00093F8211060F3C71183F8211003
:1025D000C2F38000C9B260F3820183F82110D009F0
:1025E000C9B260F3451183F82110C2F38010C9B25B
:1025F00060F3041183F82110C9B262F3000183F87B
:102600002110C2F34000C9B260F3861183F8211093
:10261000C9B260F3410183F82110CAB242F0080246
:1026200083F8212030E700BFBC2200205926000893
:10263000F9220020E0560020B8230020B822002014
:10264000487D0208A0280020507D0208587D02081D
:10265000607D02086C7D020808B50248FFF7A0FE05
:1026600008BD00BFF922002008B5074B5B7803B115
:1026700008BD0A4601460548006804F0E9FC4FF42D
:102680007A7004F0D1FDF3E7B8230020E056002073
:1026900000B591B0264B5B7823B1012B20D011B04F
:1026A0005DF804FB8DF814008DF815308DF81630A8
:1026B0008DF81730032203920422029205AA019298
:1026C0004322009202220A2106A81BF048FE0A219A
:1026D00006A8FFF7C9FF42F2107004F0A5FDDEE77F
:1026E000144BD3F8982722F01002C3F89827D3F898
:1026F000982722F00402C3F8982703F5805320227C
:102700001A6400210C481EF0F6FA00230422052169
:10271000184606F0B5F8002301220621184606F0F7
:10272000AFF8C821054B18680FF08FFCB7E700BF62
:10273000B823002000C0035000C00550B82200207C
:1027400000B58FB0234B5B786BBB224B9B78032B80
:1027500015D0042B29D103930022029201920E235B
:1027600000931346082104A81BF0F9FD082104A8D2
:10277000FFF77AFF42F2107004F056FD15E0039364
:10278000002302930193482200920222062104A80A
:102790001BF0E5FD062104A8FFF766FF42F210706A
:1027A00004F042FD01E0012B0CD00A4BDB7833B979
:1027B000084B9B78042B09D0064B04229A700FB06B
:1027C0005DF804FB0448FFF7D3FDEEE7014B03225D
:1027D0009A70F4E7B8230020D623002008B50E4BEA
:1027E00020221A64FFF7ACFF0C4BDB7853B90C4A7C
:1027F00013780133DBB213700E2B06D9074B01227D
:102800005A7002E0064B00221A704FF49671054B85
:1028100018680FF01AFC08BD00D00350B823002040
:10282000AF520020B8220020F0B58FB005460E460A
:10283000174600240D940794089409940A940B9465
:102840000C9406944FF48073059305A81BF08CFC40
:10285000059B0993124B0A934FF41053ADF81C30AB
:102860008023ADF81E3008940C940DAB102229463D
:1028700007A821F0AAFB044610B120460FB0F0BD16
:1028800006AB0293102301930097324604490D983A
:102890000BF0AEFE04460D9821F051FBEDE700BFB2
:1028A00000444004F0B58FB005460E46174600249C
:1028B0000D940794089409940A940B940C9406942C
:1028C0004FF40073059305A81BF04EFC059B09937C
:1028D000124B0A934FF41053ADF81C308023ADF81F
:1028E0001E3008940C940DAB1022294607A821F045
:1028F0006CFB044610B120460FB0F0BD06AB02934E
:10290000102301930097324604490D980BF02CFFD9
:1029100004460D9821F013FBEDE700BF004440048E
:1029200010B582B0044600201BF02DFC08B902B09F
:1029300010BD00230093ADF80430054B1B88ADF8A3
:102940000230ADF800406946022020F01FFDEEE79E
:102950007C58002000B583B000230093ADF804300C
:102960000A4B1B88ADF80230094B1B88ADF80030CC
:10297000684620F007FD20F001FD064BF0221A60AA
:102980000A2020F007FD03B05DF804FB7C5800200E
:10299000EC510020A423002008B513460A46014646
:1029A0000448006803F012FD00B908BD02480CF0AD
:1029B00025FDFAE714570020887D02080A2800D96F
:1029C000704730B583B004460D466B4601AA0146F8
:1029D0001048006803F060FC08B9019B23B10E4861
:1029E0000CF00CFD03B030BD009B2A46214609487F
:1029F000006803F091FB40B9214608480CF0FEFC4A
:102A0000294607480CF0FAFCECE7214605480CF093
:102A1000F5FCE7E714570020907D0208B47D02081A
:102A2000D07D0208D87D02080A2800D9704710B569
:102A300004460146064B186803F096FD20B921466E
:102A400004480CF0DBFC10BD03480CF0D7FCFAE79F
:102A500014570020FC7D0208187E020808B5314B8F
:102A60001B78012B21D0022B3DD003B108BD2E4B8A
:102A70001B782E4A1278B3EB420F07DA01332A4A49
:102A8000137001212A481BF0AAFDEFE70023294A11
:102A90001370254A137026481BF0A9FD264B01220E
:102AA0001A70264824F0BEF9E0E71F4B1B781F4A36
:102AB0001278B3EB420F07DA01331B4A137001217E
:102AC0001F481BF08CFDD1E700231A4A1370164AE9
:102AD00013701B481BF08BFD174B01221A7017480F
:102AE00024F0A0F9C2E7104B1B78104A1278B3EB20
:102AF000420F07DA01330C4A1370012111481BF011
:102B00006EFDB3E700230B4A1370074A13700D489C
:102B10001BF06DFD084B01221A70084824F082F961
:102B2000A4E700BFB0520020B2520020B1520020F2
:102B3000D88F0208B4520020F4580020242300202B
:102B4000F08F02080890020808B5314B5A79DA76FE
:102B50005B79103B1B2B25D8DFE803F029242424C4
:102B60002424242424242424240E2424242424243B
:102B70005424242424242420254B9B7F012B05D07E
:102B8000032B07D00C20FFF783FD0BE00220FFF79B
:102B90007FFD07E00120FFF77BFD03E01D4B186878
:102BA0000FF048FA1C4B1B6800221A7008BD184B26
:102BB0001B78012BF6D1164BDB78DBB1144B9B78DD
:102BC000032B0FD0042BEDD1114B9B79DBB2012BE2
:102BD0000CD00F4B9B79DBB2022BE3D102201BF010
:102BE000ABFADFE70C20FFF753FDDBE701201BF01A
:102BF000A3FAD7E7064B5B78012BD3D10C20FFF764
:102C000047FDCFE7024B98791BF096FACAE700BF61
:102C1000B8230020202400201C24002003787BBB44
:102C200070470133022B2DDC03EB4302164911F8E8
:102C30003220002AF5D100B50A4603EB430102EB2E
:102C4000C10C4FF0000E8CF801E04FF0010C02F8BF
:102C500031C002EBC1030268D0F804E0D0F808C02C
:102C6000C168C3F80220C3F806E0C3F80AC0C3F87D
:102C70000E100269C3F81220828ADA825DF804FB22
:102C80000023CFE7704700BF4423002030B583B056
:102C900004460D46174B1B7803B9002522B1237853
:102CA0008DF8003000230CE02046FFF7B7FFF6E771
:102CB000E118497803F109026A4402F8081C01335B
:102CC000DBB2617D4A1E9342F2DB23781C2B07D0D6
:102CD000232B05D02F2B03D0074B03221A7002E0C1
:102CE000054B00221A706A46E8B201F0BBFB03B044
:102CF00030BD00BFB8230020F558002010B5464B6A
:102D00009B78032B08D0042B43D04FF49671434B90
:102D100018680FF09AF910BD414C2046FFF728FBC8
:102D2000204610F81E39C27F9342EED0A4F11E0255
:102D3000D377127862B1012AE7D13A481E22027095
:102D400043700223437500220121FFF79FFFDCE758
:102D5000032001F0F1FB90B932481E2303700623D3
:102D600043752D4A937F4370FF238370C3700371B3
:102D7000137F437100221146FFF788FFC5E71BF060
:102D80003EFC1BF03DFC2849284B18681FF036F923
:102D9000E2E7214A92F8213092F822209342B4D0FF
:102DA00013F0460201D0462AAFD11B4A92F82110F7
:102DB00082F82210127862B1012AA6D11948252280
:102DC000027043700223437500220121FFF75EFF6A
:102DD0009BE7032001F0B0FB98B91248252303704C
:102DE000062343750C4A92F821304370FF23837009
:102DF000C3700371137F437100221146FFF746FF32
:102E000083E71BF0FCFB1BF0FBFB0749074B186833
:102E10001FF0F4F8E1E700BFB823002018240020D9
:102E2000D62300208C230020307E0208A02800201A
:102E300000B583B08C461146084B1870084B83F8D8
:102E400000C00023074A1370012201920093064A32
:102E5000064824F063FE03B05DF804FBB052002086
:102E6000B1520020F45800205D2A000824230020DD
:102E700008B5044A1BF0CEFA034B18680FF0DAF8D5
:102E800008BD00BFBD2300201C24002038B5044627
:102E900020F088FAA04201D8012038BD0546032061
:102EA00001F04AFB0028F8D01BF0A9FB1BF0A8FB9F
:102EB0002B4622460349044800681FF09FF8002073
:102EC000EBE700BF407E0208A028002030B583B0A9
:102ED00004468368C26853F822301D882846FFF7ED
:102EE000D5FF08B903B030BD00230093ADF804301E
:102EF000164B1B88ADF80230ADF804506368E268E9
:102F00009B1A012B1DDDA368013253F822301B8868
:102F1000ADF8003020F032FA6946032020F036FA8E
:102F20000446032001F008FB0028DBD01BF067FB00
:102F30001BF066FB22460649064B18681FF05EF838
:102F4000D0E740F2FF13ADF80030E3E7EE51002088
:102F5000787E0208A028002030B583B0044683683C
:102F6000C26853F822301D882846FFF78FFF08B942
:102F700003B030BD00230093ADF80430154B1B881F
:102F8000ADF80230ADF804506368E2689B1A012B7B
:102F90001BDDA368013253F822301B88ADF80030E6
:102FA0006946042020F0F2F90446032001F0C4FA37
:102FB0000028DDD01BF023FB1BF022FB2246064934
:102FC000064B18681FF01AF8D2E740F2FF13ADF86D
:102FD0000030E5E7EE510020987E0208A02800208E
:102FE00030B583B004468368C26853F822301D8828
:102FF0002846FFF74BFF08B903B030BD002300930C
:10300000ADF80430154B1B88ADF80230ADF8045014
:103010006368E2689B1A012B1BDDA368013253F839
:1030200022301B88ADF800306946022020F0AEF94E
:103030000446032001F080FA0028DDD01BF0DFFAFF
:103040001BF0DEFA22460649064B18681EF0D6FF32
:10305000D2E740F2FF13ADF80030E5E7EE51002073
:10306000AC7E0208A028002030B583B08368C26817
:1030700053F822301C780023019343689B1A012BDC
:1030800019DD01AA01211EF089FA01469DF804000C
:1030900020F070F9054680B1022001F04DFA60B1D0
:1030A0001BF0ADFA1BF0ACFA2A460649064B18682D
:1030B0001EF0A4FF01E020F061F9204620F06AF93B
:1030C00003B030BDC87E0208A028002010B503461A
:1030D0008168C26851F82200B0F900001A4C2080C3
:1030E0005B689B1A012B0FDD013251F8223093F9F6
:1030F0000010003918BF012120F0E9F8A0B9032021
:1031000001F01AFA10B910BD0021F5E71BF077FAAB
:103110001BF076FA0D4B1C6820F0DDF802460C49D6
:1031200020461EF06BFFEEE7012001F005FA0028B3
:10313000E9D01BF064FA1BF063FA0649034B1868E8
:103140001EF05CFFDFE700BFEE510020A02800204A
:103150002C7F0208407F020808B520F0ACF803205D
:1031600001F0EAF900B908BD1BF049FA1BF048FA72
:103170000249034B18681EF041FFF4E7587F02082C
:10318000A028002008B58368C26853F822301A8846
:10319000094B1A80032001F0CFF900B908BD1BF0DC
:1031A0002EFA1BF02DFA044B1A880449044B1868B8
:1031B0001EF024FFF2E700BF7E580020787F02084F
:1031C000A028002008B5024B18680EF033FF08BD98
:1031D000202400202DE9F04186B020F08CF8044630
:1031E000894B1B7813F0020F2CD0884E13F0010F7F
:1031F0002AD0864F13F0040F28D0DFF81082032066
:1032000001F09AF928BB032001F096F958BB03207E
:1032100001F092F9002835D1032001F08DF9002842
:103220003ED1032001F088F9002847D1032001F0A6
:1032300083F900285ED1032001F07EF9002867D1D0
:10324000002471E0724ED1E7714FD3E7DFF8C081FF
:10325000D5E71BF0D4F91BF0D3F96E496E4B186813
:103260001EF0CCFECFE71BF0CAF91BF0C9F96A4B80
:103270001D6805F0DDFC02460B46684928461EF035
:10328000BDFEC4E71BF0BBF91BF0BAF9624B1D6829
:1032900020F005F80246624928461EF0AFFEBBE763
:1032A0001BF0ADF91BF0ACF95B4B1D6820F02FF85B
:1032B00002465C4928461EF0A1FEB2E71BF09FF9CA
:1032C0001BF09EF9E279A37961792079E57894F889
:1032D00002C094F801E024780594CDF810E0CDF810
:1032E0000CC00295019000914F494B4800681EF0B8
:1032F00085FE9BE71BF083F91BF082F9464B1C68A7
:103300001FF0FDFF0246494920461EF077FE92E776
:103310001BF075F91BF074F945493F4B18681EF016
:103320006DFE8DE70134E4B2072C12D8032001F0C2
:1033300003F90028F6D01BF062F91BF061F9364B57
:103340001D681FF0D8FF025D3A4928461EF056FE60
:10335000E8E7032001F0F0F898B9032001F0ECF859
:10336000C8B9032001F0E8F818BB032001F0E4F825
:1033700068BB032001F0E0F8002836D106B0BDE8B4
:10338000F0811BF03CF91BF03BF92B49224B1868EC
:103390001EF034FEE1E71BF032F91BF031F91E4B51
:1033A0001C681FF0B0FF0246244920461EF026FE8E
:1033B000D7E71BF024F91BF023F9174B1C681FF00B
:1033C00082FF02461E4920461EF018FECDE71BF084
:1033D00016F91BF015F9104B1C681FF07CFF024614
:1033E000184920461EF00AFEC3E71BF008F91BF03F
:1033F00007F9CDF800803B4632461349064800687D
:103400001EF0FCFDBAE700BFF5580020E07E020880
:10341000E87E0208947F0208A02800209C7F020812
:10342000B87F0208D47F0208F07F020814800208E7
:103430003080020844800208CC7D02084C800208DB
:1034400068800208808002089880020830B583B046
:103450008368C26853F822301C7801A920461FF007
:103460002EFF88B9032001F067F808B903B030BD1A
:103470001BF0C5F81BF0C4F8019B22460B490C4811
:1034800000681EF0BBFDF1E70546012001F054F88D
:103490000028EBD01BF0B3F81BF0B2F82A46054920
:1034A000034B18681EF0AAFDE0E700BFD0800208B9
:1034B000A0280020EC80020870B58268C36852F82A
:1034C00023100C88013352F823301D7829462046FA
:1034D0001FF04CFF80B9032001F02EF800B970BD39
:1034E0001BF08DF81BF08CF82B4622460B490C483C
:1034F00000681EF083FDF2E70646012001F01CF88B
:103500000028ECD01BF07BF81BF07AF83246054916
:10351000034B18681EF072FDE1E700BF108102083E
:10352000A02800204081020870B582B08368C2687C
:1035300053F822301B78134A137013F0020F0ED089
:10354000114C13F0010F0CD00F4D13F0040F0AD0E3
:103550000D4E032000F0F0FF38B902B070BD0B4CE7
:10356000EFE70A4DF1E7094EF3E71BF048F81BF0CF
:1035700047F800962B4622460549064800681EF08B
:103580003DFDEAE7F5580020E07E0208E87E0208EB
:10359000F47E0208A028002030B58FB004460D4606
:1035A00068461AF04EFF0DF1200EEC46BCE80F0005
:1035B000AEE80F009CE803008EE8030008A9464B24
:1035C000186820F0E5FC10F1880F46D168461AF023
:1035D00038FF0DF1200EEC46BCE80F00AEE80F00FE
:1035E0009CE803008EE803004FF41053ADF8203040
:1035F0008023ADF822304FF44073079307A81AF0E8
:1036000030FF079B0A93354B0B93334B1A68099B8A
:103610000D9213F0FF0F04D123F0FF0343F00103D9
:103620000993012309932C4B2A46214608A820F030
:10363000CCFC044610BB032000F07EFF90B9264B63
:1036400018681FF034FE0546002831D1032000F031
:1036500073FF044610BB01242FE01F4B186820F0B5
:103660006EFCB3E71AF0CBFF1AF0CAFF1A4B1A68C8
:103670001B491C4B18681EF0C1FCE0E7032000F05A
:103680005BFF0028DBD01AF0BAFF1AF0B9FF224620
:103690001549144B18681EF0B1FCD0E71AF0AFFFC3
:1036A0001AF0AEFF11490F4B18681EF0A7FC04E09A
:1036B000032000F041FF044610B920460FB030BD92
:1036C0001AF09DFF1AF09CFF2A460949054B18681D
:1036D0001EF094FC0024F0E7DC23002000014405E8
:1036E00070810208A0280020A0810208C48102087D
:1036F000E481020800B583B00021019101AA1DF008
:103700004DFF019910290ED0032000F015FF60B184
:103710001AF075FF1AF074FF10220549054B18685E
:103720001EF06CFC01E0FFF737FF03B05DF804FB0F
:1037300004820208A028002010B588B020F048FDBF
:10374000032000F0F9FEF8B901244A4B1C6002A8DE
:103750001AF09EFE02A9204620F01AFC10F1880FF4
:103760001CD0032000F0E8FE00286ED1414B186801
:103770001FF09DFD1FF0F2FD0446032000F0DCFE6B
:1037800000286CD108B010BD1AF039FF1AF038FFCC
:1037900039493A4B18681EF031FCD5E7032000F098
:1037A000CBFE002837D1334B1A68039B079213F0E6
:1037B000FF0F04D123F0FF0343F001030393304BC9
:1037C00005934FF44073019301A81AF071FE019B19
:1037D00004934FF41053ADF808308023ADF80A304D
:1037E00001230393234B1022264902A820F0EDFB6E
:1037F0000446D0B9032000F09FFE0028B6D01AF08E
:10380000FEFE1AF0FDFE1B4B1A681F491B4B186881
:103810001EF0F4FBAAE71AF0F2FE1AF0F1FE1B49C3
:10382000164B18681EF0EAFBBDE7032000F084FE8B
:1038300000289BD01AF0E3FE1AF0E2FE224614495B
:103840000E4B18681EF0DAFB90E71AF0D8FE1AF05B
:10385000D7FE1049094B18681EF0D0FB86E71AF016
:10386000CEFE1AF0CDFE22460B49044B18681EF01E
:10387000C5FB87E7DC2300202C820208A02800205B
:10388000004440042C550020708102083882020850
:10389000A0810208608202088C82020838B50120EB
:1038A00009F04AFD104C21460420FFF787F804F187
:1038B0001D010320FFF782F80C490820FFF77EF86E
:1038C0000B490A20FFF77AF80025A570E5704FF440
:1038D000FA61084B18680EF0B8FB074B01221A700A
:1038E000064B1B681D7038BDB8230020A82300209C
:1038F000EC51002018240020B55200201424002090
:1039000010B588B0434B5B7F3BB1012B3BD0424BA2
:103910001B6800221A7008B010BD3E4B9A789DF8C3
:10392000043062F304038DF804309DF804306FF323
:1039300046138DF804309DF8043003F01F03042B68
:1039400019D09DF8043003F01F03032B17D0032375
:103950008DF81D309DF804308DF809302D4B1A7903
:103960008DF80A209DF80820DA760022114602A878
:10397000FFF78CF9CBE723238DF80830E7E71C230A
:103980008DF80830E3E7234BDB7E1E2B22D0214B42
:10399000DB7E2B2BBBD1214C2046FEF7E9FC2B23F1
:1039A0008DF8083006238DF81D30204610F81E399A
:1039B0008DF80930FF238DF80A308DF80B308DF823
:1039C0000C30037F8DF80D300022114602A8FFF75E
:1039D0005DF99CE7114C2046FEF7CAFC1E238DF8CA
:1039E000083006238DF81D30204610F81E398DF85A
:1039F0000930FF238DF80A308DF80B308DF80C302C
:103A0000037F8DF80D300022114602A8FFF73EF922
:103A1000BDE700BFB823002020240020D6230020CB
:103A200010B50C490C4809F08DFB0C490C4809F005
:103A300089FB0C490C4809F085FB0C4C0C492046CD
:103A400009F080FBFEF774FC642120680EF0FDFA9B
:103A500010BD00BF492B00081C240020FD2C0008CD
:103A600018240020013900082024002014240020FC
:103A70009D38000810B58AB01E490420FEF79EFF4D
:103A80000320FEF7D1FF0820FEF7CEFF0920FEF746
:103A9000CBFF0A20FEF7C8FF1021174820F094FB47
:103AA000B0B102221549684606F03AF8E0B1114C6F
:103AB00000236377E370012204F11D010320FEF768
:103AC0006BFF0222A1180920FEF766FF0AB010BDA5
:103AD00010210948FFF760FD0128E2D110220649B4
:103AE0000820FEF759FFDCE7022204490A20FEF70E
:103AF00053FFDCE7B8230020A8230020EC5100206E
:103B000070B506460D468B681B781C2B03D0232B03
:103B100001D0002432E02C4B5B7F002BF9D1002E2A
:103B2000F7D10122284901F81D2F0320FEF734FFA9
:103B3000EFE7254B1B78F3B904EB4402234B03EB6F
:103B4000C2035B780A2B07D12049D00001EBC203E6
:103B500000220A545A7010E01C4904EB440C01EB9B
:103B6000CC00012201F83C201344437069880230E4
:103B7000FFF78CF801E0012B16D00134022C1DDC7C
:103B8000AB68197804EB4402104B03EBC2039B783B
:103B90009942F2D1002ECCD10C49D00001EBC203E6
:103BA00000220A545A70E8E7084904EB4403D8009D
:103BB00001EBC30300220A545A70DEE72B7B5B4201
:103BC000014A137770BD00BFB823002044230020B2
:103BD00010B504463D481AF00AFDA4F19003062BE7
:103BE0005ED8DFE803F0040A1E5D5D334800C8229A
:103BF00002210120FFF71CF910BD032000F09CFCFE
:103C000028B9642205210020FFF712F9F4E71AF021
:103C1000F6FC1AF0F5FC2E492E4B18681EF0EEF952
:103C2000EFE7012000F088FC30B94FF47A720221EE
:103C30000020FFF7FDF8DFE71AF0E1FC1AF0E0FCE6
:103C40002549244B18681EF0D9F9EEE7012000F051
:103C500073FC30B94FF47A7202210020FFF7E8F8C4
:103C6000CAE71AF0CCFC1AF0CBFC1C49194B1868B7
:103C70001EF0C4F9EEE7032000F05EFC30B94FF40B
:103C80007A7202210020FFF7D3F8B5E71AF0B7FCEB
:103C90001AF0B6FC12490F4B18681EF0AFF9EEE7A8
:103CA000032000F049FC30B94FF47A720221002061
:103CB000FFF7BEF8A0E71AF0A2FC1AF0A1FC22461A
:103CC0000849044B18681EF099F9EDE708900208BE
:103CD000A4820208A0280020B4820208D48202082C
:103CE000F88202081483020808B500201FF052FB76
:103CF0000020034B1870034B18601FF0F0FA08BD4A
:103D0000B4520020A423002010B523F0FBFE04468B
:103D10003E4B1B68C31A3E4A934205D93D4A12786E
:103D200012B13D4A93420ED93A4A127812B13A4A38
:103D3000934212D8394B1B7823B1394B1B788BB186
:103D4000012B2FD010BD37481AF025FE36481AF047
:103D500022FE36481AF01FFEF4E70021324800F038
:103D60004DFBEFE71FF09FFAB8B9314B1B78002BE2
:103D7000E8D0304B1B68E31A41F678629342E1D9F0
:103D80002C4B1C60002129481AF029FC25481AF008
:103D90002EFC25481AF02BFCD4E70021224800F025
:103DA0002DFBCFE71FF07FFA30B3234B1B68012BAD
:103DB00018D9204B1B68E31A41F67862934204D865
:103DC0001D4A1368013B1360BCE71A4B1C600021BD
:103DD00016481AF004FC13481AF009FC12481AF0AD
:103DE00006FCEDE7012B04D000210F4800F006FB94
:103DF000A8E7FFF779FFA5E70A481AF0F8FB0A4899
:103E00001AF0F5FB09481AF0F2FB9BE7E0230020CB
:103E100000710200B652002000E20400B5520020FA
:103E2000B8230020D88F0208F08F020808900208FB
:103E3000F45800203C550020A423002030B58BB05E
:103E400005460C46032000F077FBF0B96A46154999
:103E50001548FEF7E9FC2F238DF8103011238DF85B
:103E60002530EC46BCE80F00CDF81100CDF8151058
:103E7000CDF81920CDF81D30002221466046FEF70E
:103E800005FFFFF731FF0BB030BD1AF0B8FB1AF099
:103E9000B7FB2B4622460549054800681EF0AEF8E0
:103EA000D4E700BFA8230020787D02082C830208F5
:103EB000A028002010B500201FF054FA80B104465D
:103EC000012000F039FB00B910BD1AF098FB1AF080
:103ED00097FB22460A490B4B18681EF08FF8F3E750
:103EE000012000F029FB0028EED01AF088FB1AF020
:103EF00087FB00220449034B18681EF07FF8E3E7B4
:103F000064830208A02800209083020810B50446AC
:103F10001AF03DFC10B94B4B9C4205D020461AF0DC
:103F200036FC012808D010BD23F0ECFD464B18608C
:103F3000464B01221A70F1E723F0E4FD434B0022C7
:103F40001A70414B1B68C01AA0F51C33A3F2011371
:103F50003F4A93420CD93F4B984228D93E4B1B789D
:103F60005BB1012B16D01FF019FAFFF783FDDAE7DA
:103F70001FF014FAFFF77EFDD5E7374901240C70D6
:103F800022460420FEF708FD642205212046FEF7A4
:103F90004FFFE8E7304900230B7001220420FEF7B1
:103FA000FBFC642205210120FEF742FFDBE72B4BDF
:103FB0009842B8D8284B5B7FCBB9274B1B7853B1BD
:103FC000012BB0D1264B1B7873B9254B01221A70F7
:103FD000FEF7C0FCA7E7FFF76DFF224B00221A7027
:103FE00021481AF0D3FC9EE7FFF77EFE9BE71F4BAC
:103FF0001B789BB91D4B01221A70174B24225A7152
:1040000011229A7164211A4B18680EF01EF84FF4B1
:10401000FA61184B18680EF018F884E7134B002269
:104020001A700D4B24225A7112229A716421104B7E
:1040300018680EF00AF84FF4FA610E4B18680EF08B
:1040400004F870E7C08F0208E0230020B652002079
:10405000FE70020000E20400B8230020007102009C
:10406000B4520020F458002008900208B3520020F7
:104070001C240020B822002030B4064D2978064CBC
:1040800024F8210004EB8104A270E370013129704F
:1040900030BC7047B7520020E423002038B500231D
:1040A0001846FF256FF07F0E08E0144800EB8101F1
:1040B00091F902E010461D460133DBB20B2B10D8FC
:1040C00019460E4A02EB8302D278002AF4D0002867
:1040D000EBD00A4C04EB830C9CF902407445EBDDF9
:1040E000E3E708B1FF2D03D1054B00221A7038BD5C
:1040F000024B33F82500FEF713FCF5E7E42300201C
:10410000B752002008B5024B1B6803B1984708BDA1
:104110005424002008B5024B5B6803B1984708BDE2
:104120005424002008B5024B9B6803B1984708BD92
:104130005424002008B5024BDB6803B1984708BD42
:104140005424002008B5024B1B6903B1984708BDF1
:104150005424002008B5024B5B6903B1984708BDA1
:104160005424002000B585B0094B1868094B18602D
:10417000094B0A4A13600A4A01920A4A12680292DB
:10418000039301A91DF02CFA05B05DF804FB00BFF4
:104190005C550020FC32002050550020F8320020F1
:1041A000808F02082827002008B5024B18681DF0F0
:1041B0002BFA08BD5C55002038B507F073FC0446A7
:1041C000064D2B68D3F8B00207F060FC28681DF09C
:1041D00035FA204607F05AFC38BD00BF5C55002078
:1041E00008B5034823F00EFB024800F0FDFE08BDB1
:1041F000E0920208605500200023062073B170474A
:1042000054B224B9013353B15DF8044B704702280E
:10421000F8D008680A4908601046F3E710B4094A64
:1042200052F823100A7A022AEAD9032AEAD1441E54
:10423000E4B2012CE6D90868014908601046E1E7BC
:10424000282700207455002010B5A2B00DF1680C8D
:10425000294C0FCCACE80F0094E80F008CE80F005D
:104260000021159116911791189119914FF480130F
:104270001593224B1993109111911291139114914E
:104280001F4B10931F4B14933C2201A821F0B6FF43
:1042900001AC0DF1540CBCE80F000FC4DCF8003089
:1042A000236006AC0DF1400CBCE80F000FC4DCF835
:1042B00000302360144B0B9320230C9301238DF8C3
:1042C00034308DF835308DF83630104B0F93104B5D
:1042D0001AAA01A90F4807F091FC04469DF837304F
:1042E0003BB100214FF4E1301AF0C6F9204622B06C
:1042F00010BD0321F6E700BFA08F02083C00015B60
:10430000010010004400015B2C270020885500208C
:104310004C2700200828002008B531B9084B186840
:10432000036823B108F080F801E0012900D908BD35
:10433000034B18680368002BF9D01EF041F9F6E72B
:104340009C55002008B50349034808F0E1F9FFF740
:104350007BFF08BDA05500203028002008B502488A
:104360001DF092FE08BD00BF0828002008B50248D5
:104370001DF08AFE08BD00BF0828002008B5024BCA
:104380005A6A1868904708BD0828002008B50248F6
:104390001AF0F6F908BD00BFC08F020808B505483D
:1043A0001AF0EFFA04481AF0ECFA04481AF0E9FAA5
:1043B00008BD00BF08900208F08F0208D88F0208DD
:1043C00018B1034A1060002070472520704700BFD5
:1043D0003828002010B5044C0449206802F08AFCFB
:1043E0002068FFF7EDFF10BDE0560020BC5500200F
:1043F000014B1868704700BF3828002008B539BB4A
:10440000154B984206D0154B98420DD0144B98424C
:1044100014D008BD18461AF0B9FA10481AF0BBFAC1
:104420000F481AF0B8FAF4E70B481AF0B4FA0B4840
:104430001AF0ACFA0A481AF0AEFAEAE706481AF09F
:10444000AAFA06481AF0A7FA05481AF09FFAE0E718
:104450001AF0A1FADDE700BFD88F0208F08F02083A
:104460000890020800B583B00B4605490978019110
:104470000092002201211EF062FF03B05DF804FBF0
:10448000F558002010B584B0044683681A782F2AA6
:1044900007D0244A527F002A31D0012A38D004B0F4
:1044A00010BD204A527F002AF3D16C46D3F8010098
:1044B000D3F80510D3F80920D3F80D300FC41A4CE7
:1044C000224669461948FEF7EDF910212046FFF70C
:1044D00063F80028E3D0102221460820FEF75CFA9A
:1044E000104B5B7F002BDAD1114B1B78002BD6D001
:1044F0004FF47A710F4B18680DF0A7FDCFE7A17943
:1045000018461AF078F863795B42064A1377C6E7D3
:10451000A17918461AF06FF863795B42014A137764
:10452000BDE700BFB8230020A8230020787D020843
:10453000B55200202024002003460B4A107828B1F1
:104540000A4A12789A4202D2002000E00120084A6A
:1045500012783AB1074A127842FA03F313F0010FC6
:1045600000D10020704700BFF8580020F758002005
:10457000B9520020F658002008B5084B01221A70E5
:10458000074B00221A70074B04221A70064B1F2299
:104590001A7007F087FA054B186008BDF85800201C
:1045A000B9520020F7580020F6580020A02800201B
:1045B00008B5054823F026F919F0B0FF01201AF0DC
:1045C00028F800F0B1F808BDE092020808B50248EA
:1045D00023F018F908BD00BFE09202082DE9F04170
:1045E00080460F4601F109050026344604E05B21B0
:1045F000082000F0C1FA0134AC4233D2052C1BD89C
:1046000001A353F824F000BFEF450008214600083D
:1046100055460008294600082D4600083146000886
:10462000FBB20433D9B2E3E78021E1E70021DFE701
:10463000731C3146DEB2DBE7BB1DA3420CD0FB1D71
:10464000A3420BD007F10803A34209D0A31F18F817
:104650000310CDE7D121CBE75A21C9E75A21C7E79B
:104660005D21C5E70020BDE8F08100BF00B583B043
:10467000002300930193FFF7BBFE114B1860012349
:104680008DF8003090F8363093B100200C4B1B6849
:1046900093F8351002290FD003290FD119F0CFFF5D
:1046A000019008216846FFF799FF03B05DF804FB0D
:1046B00000681CF00BFBE9E70321EFE70021EDE7C1
:1046C000A428002000B583B00022009201920221AC
:1046D0008DF80010054819F0B7FF019008216846D1
:1046E000FFF77CFF03B05DF804FB00BF006A180011
:1046F00000B583B0044B1B88ADF8043001A800F06E
:1047000017FB03B05DF804FB2090020800B583B0EE
:10471000044B1B88ADF8043001A800F0D9FA03B0AF
:104720005DF804FB209002082DE9F04F97B04D4D45
:1047300009AC2E1D0FCE0FC43368236001AC05F108
:1047400018060FCE0FC496E80F0084E80F00464805
:1047500023F058F8454823F055F801268DF80960F4
:1047600000248DF80840424B0B9301AB0D93414F51
:1047700009A938461CF0BAF9B5F838B0ADF838B028
:10478000324604210EA800F067FAB5F83CA0ADF857
:104790003CA0224631460FA800F05EFAB5F84090E2
:1047A000ADF840903246042110A800F055FAB5F853
:1047B0000080ADF844803246042111A800F04CFA84
:1047C0002D4D2E4BC5F8F8344FF00213C5F8F434D4
:1047D000A3F58033C5F8FC341C23C5F8E4344FF44A
:1047E000487008F04DFCFFF783FF142008F048FCE8
:1047F000FFF78CFF232008F043FCFFF779FFB92176
:1048000038461CF05BF9FFF781FFADF848B022464F
:10481000214612A800F020FAADF84CA0224621460D
:1048200013A800F019FAADF850903246214614A8AA
:1048300000F012FAADF854803246214615A800F077
:104840000BFA384603F0A6FDC5F8E444C5F8F84471
:10485000C5F8F444C5F8FC44044822F0D8FF17B06A
:10486000BDE8F08F20900208E0920208E49202086E
:10487000E070720000000A5000C003500200030004
:1048800008B50448044A121A9210044919F007FFA7
:1048900008BD00BF800100088003000820530020ED
:1048A00008B5154B83F30A8800F030F8FFF7E8FFEE
:1048B000124A0AE01068516850F8230041F82300BA
:1048C000013391688B42F5D30C320D4B9A4201D2E1
:1048D0000023F6E70B4A08E01168002041F82300A6
:1048E000013351688B42F7D30832074B9A4201D209
:1048F0000023F6E7FDF7E2FC0000002038D70208AD
:1049000044D7020844D7020844D7020870B5134BB5
:10491000134A9A60D3F8882042F47002C3F88820C2
:10492000104A4FF4804191660F4D05F500544FF049
:10493000FF3222660D4A62660222C3F8D020BFF31E
:104940004F8FBFF36F8F002007F076F84FF440369B
:10495000E66000201DF0FDFA2E6170BD00ED00E064
:104960000000000800900050008000447FFF7F019D
:10497000014B1860704700BFE856002008B5064B91
:104980001860064B1B6F03F00703032B00D008BD14
:1049900021F0BAFEFBE700BFF05600200080005077
:1049A000BFF34F8F0549CA6802F4E062044B13431A
:1049B000CB60BFF34F8F00BFFDE700BF00ED00E00D
:1049C0000400FA05F0B18446F1B110B409E004F135
:1049D00020000FE02033C01A18D1BCB10CF1010C3B
:1049E00001319CF800400B4B1B5D03F00303012BCE
:1049F000EDD020460B78074AD25C02F00302012A70
:104A0000E9D1E7E701207047012070475DF8044BCA
:104A1000704700BFFDD5020830B587B00546046871
:104A200023798DF80C3063798DF80D301B4822F016
:104A3000E9FE0022012103A800F00EF90DF10B019F
:104A400003A819F067FF9DF80B3083F00103237072
:104A5000A379022B02D0002007B030BD4FF0FF3306
:104A60000593049300950E4B002205A903A800F0BE
:104A70002FFA059BB3F1FF3F07D00095084B0122A9
:104A800004A903A800F084F9E5E70095044B04228B
:104A900004A903A800F07CF9DDE700BFE09202085A
:104AA0009DE7010810B582B0002401942A4822F045
:104AB000A9FE8DF8004003238DF801300122042166
:104AC000684600F0C9F8254B0122C3F8442401A927
:104AD000052022F090FE00283BD1214BD3F8F02096
:104AE00042F00102C3F8F020D3F8FC2042F08072BB
:104AF000C3F8FC20A3F55D431A4A1A60019B03F535
:104B0000D52303F2FC43DB08174AA2FB03239B0ACD
:104B1000013B164A13610223C2F8F0304FF4807350
:104B2000C2F804334FF06043114AC3F8B02F114A62
:104B3000C3F8802ED3F8002E42F48072C3F8002E02
:104B4000FF2283F82020D3F8002E22F48072C3F8CD
:104B5000002E02B010BD00BFE092020800D003504A
:104B600000ED00E0FF03004017916502000004E043
:104B700055CEACC5090001004FF06043D3F8803E2C
:104B800013F0010F01D1112070470E4AD2F8FC300A
:104B900043F08073C2F8FC304FF06043D3F8002E2E
:104BA0004FF0010C0CFA00FC42EA0C02C3F8002E94
:104BB00053F82030002BE8D04FF0604303F820106A
:104BC0000020704700ED00E010B504460FE001231F
:104BD000834024EA03040F2814D800EB40020E4B54
:104BE00003EB82035A6812B19968C0B2904794B13E
:104BF000234600201F28EAD813F0010FE7D1013027
:104C00005B08F7E7103800EB40039B00B033024A23
:104C100013440433E6E710BDA828002008B50D486A
:104C200022F0F0FD1A2006F0CDFE28B91B2006F078
:104C3000C9FE40B9002008BD1A2006F0FDFE1A206A
:104C40001DF087F9F2E71B2006F0F6FE1B201DF091
:104C500080F9EFE7E09202082DE9F04170B30C46CD
:104C6000174605460F292BD803784BB1022B20D0CD
:104C7000032B21D0012B01D0002303E07F2301E08F
:104C800040F2FF736A78D34013F0010F1AD00F4B34
:104C9000D3F81063C6B922F0B0FC80463A462146EC
:104CA000284604F015F9404622F0A2FC3046BDE843
:104CB000F08140F2FF33E5E73F23E3E72226F5E703
:104CC0002126F3E72126F1E70226EFE700C0035093
:104CD00040B310B5044603784BB1022B1DD0032B13
:104CE0001ED0012B01D0002303E07F2301E040F21E
:104CF000FF736278D34013F0010F15D022F07DFCD2
:104D0000237862780121914003EB43031B01074A9A
:104D1000D15022F06DFC002010BD40F2FF33E8E7D7
:104D20003F23E6E7222070472120F5E740D00350DB
:104D300040B310B5044603784BB1022B1DD0032BB2
:104D40001ED0012B01D0002303E07F2301E040F2BD
:104D5000FF736278D34013F0010F15D022F04DFCA1
:104D6000237862780121914003EB43031B01074A3A
:104D7000D15022F03DFC002010BD40F2FF33E8E7A7
:104D80003F23E6E7222070472120F5E740E003506B
:104D9000002866D02DE9F0410C4615461F46064610
:104DA000002960D002784AB1022A3ED0032A3FD0BF
:104DB000012A01D0002303E07F2301E040F2FF73CA
:104DC0007178CB4013F0010F01D1FF2A4DD1022D94
:104DD00001D9042D4BD122F010FC80463378FF2BF3
:104DE00028D12368B3F1FF3F2BD02268B2F1FF3FF7
:104DF00032D0204B02EB420203EB82025760226862
:104E000002EB420203EB8203069A9A603378FF2B8F
:104E100005D0226801239340174AC2F82434404643
:104E200022F0E6FB0020BDE8F08140F2FF33C7E747
:104E30003F23C5E72A462168304604F0B3F82060D6
:104E4000CFE73378FF2BD0D10C4BD3F824147078F4
:104E50001BF074FF2060C8E7404622F0C9FB2D20FC
:104E6000E1E7222070472220DDE72120DBE7212037
:104E7000D9E700BFA828002000D0035000C003508D
:104E8000B0F1FF3F1AD038B504460F2818DC0028CF
:104E900018DB22F0B2FB0123A3400B4AC2F82034F6
:104EA000C2F82434094B04EB440203EB82020025D0
:104EB0005560956022F09CFB284638BD2120704744
:104EC0002120FAE72120F8E700E00350A82800207D
:104ED000002856D02DE9F0410C4617461E460546DF
:104EE000002950D0017849B1022939D003293AD09C
:104EF000012901D0002303E07F2301E040F2FF738A
:104F00006A78D34013F0010F01D1FF293DD122F07F
:104F100074FB80462B78FF2B27D12268B2F1FF3F2C
:104F20002AD01B4B02EB420203EB8202C2F8B860AC
:104F3000226802EB420203EB8203069AC3F8BC200C
:104F40002B78FF2B06D02268103201239340114AA0
:104F5000C2F82434404622F04BFB0020BDE8F0812B
:104F600040F2FF33CCE73F23CAE73A4621682846A0
:104F700004F0B8F82060D0E7404622F039FB2D203D
:104F8000ECE7222070472220E8E72120E6E700BF77
:104F9000A828002000D0035008B5084BD3F82404FB
:104FA000D3F82024104000F0553020F0502003F5B5
:104FB0000053C3F82004FFF707FE08BD00C00350EC
:104FC00008B5084BD3F82404D3F82024104000F08F
:104FD000AA3020F0A02003F50053C3F82004FFF707
:104FE000F3FD08BD00C0035070B586B005460368E8
:104FF000B3F1B64F27D0304A934222D04FF0FF365C
:10500000B3F1B64F21D02C4A934252D12B4822F013
:10501000F9FB2B798DF804306B798DF80530AB797D
:105020008DF80030EB798DF8013001220A2101A8BA
:10503000FFF712FE01220A216846FFF70DFE002449
:1050400012E00126DCE70026DAE71D48DFE701A8C9
:10505000FFF76EFE642008F013F801A8FFF738FE92
:10506000642008F00DF80134092CF0DD154A02EB3C
:1050700006110323C1F8383568792B7943EA0043D8
:10508000C1F83C35E979AB7943EA0143543636013E
:10509000935101238DF808308DF80930EB680493A3
:1050A000AB6803932B7C8DF8143002A9286803F0B9
:1050B00073FC06B070BD00BF00800650D892020895
:1050C000DC92020800C0035010B582B004460A48C2
:1050D00022F098FB23788DF8043063788DF8053042
:1050E000A278B2FA82F2520904210DEB0100FFF717
:1050F000B3FD002002B010BDE0920208F0B585B00B
:105100000C4694469DF83410664A1278002A00F046
:10511000BD800546BCF1070F00F2BA800A9A002A4A
:1051200000F0B8800B9A002A00F0B6800E9AB2F513
:10513000006F00F3B38001285BD05B4A02EB0C12D6
:10514000127B002A00F0AC800022009201920292B1
:105150000392564A02EB4C1E002C4FD14FEA4C16DC
:1051600000209051CEF80400CEF80800CEF80C00D4
:105170009EF8020040F010008EF802009EF8030036
:1051800040F030008EF8030021B9C1B241F00301B4
:105190008EF8031000930E9B013B444A4FEA4C10DB
:1051A00002EB4C11165A63F30E1616520A9B8B60D3
:1051B0000B9B4B60CB789DF83C2062F38303CB7054
:1051C000012D36D0109B002B56D0374A4FEA0C11D8
:1051D00002EB0C1310985050119A5A6000249C60F6
:1051E0005D7372466946604603F04CFC204605B08C
:1051F000F0BD0C9A002AA0D12D48F8E72B4F4FEABA
:105200004C1607EB4C120020B85150609060D060F3
:10521000907840F010009070D07840F00300D0708B
:105220000029B7D107EB4C12C1B241F03001D17067
:10523000B0E70E460A7B42F001020A73D2B242F096
:1052400002020A73CA68042161F39F02F26006F148
:10525000100796E80F0087E80F00F2696FF003016E
:1052600061F39F02F2610C9B7361012CAAD10B9A2E
:10527000B2610C9A7260A5E7002DA6D10B4B03EB2F
:105280004C139A786FF304129A709EE70948AEE7C0
:105290000748ACE70648AAE70548A8E70448A6E798
:1052A0000548A4E7BA520020102B0020102A002045
:1052B000018000F0028000F0078000F0134B1B78A3
:1052C000FBB110B50446F0B122F097F90023072B8B
:1052D00013D80F4A02EB0312127B0AB10133F6E72F
:1052E00023600B4A190102EB031301241C730024F1
:1052F000545022F07DF9204602E022F079F9054869
:1053000010BD054870470548FAE700BFBA520020B3
:10531000102B0020048000F0028000F0018000F0DB
:1053200038B522F06AF904460023072B06DC0C4A44
:1053300002EB0312127B12B90133F6E7002222B10D
:10534000204622F055F9074838BD03F047FB0025F9
:10535000054B1D70204622F04BF92846F4E700BFAC
:10536000102B0020058000F0BA5200200F4B1B7854
:10537000BBB110B50446072815D822F03EF90C4BF6
:1053800003EB04131B7B1BB922F032F909480BE035
:10539000074B03EB041300241C7322F029F9204669
:1053A00002E005487047054810BD00BFBA52002012
:1053B000102B0020068000F0028000F0018000F039
:1053C00000B583B0134B1B68019300238DF80430A4
:1053D00022F013F9104B1B7833B90F4B01221A70CE
:1053E00022F006F9002309E022F002F90B480EE052
:1053F0000B4A02EB0312002111730133072BF7DD77
:1054000008238DF8073001A803F00CFB002003B03F
:105410005DF804FB64900208BA520020038000F09B
:10542000102B002010B5104C2478BCB1072817DCD5
:105430000E4C04EB0014247BA4B10C4C4FEA001E6C
:1054400004EB001C44F80E30029BCCF8043000241E
:10545000CCF8084003F016FB204610BD0448FCE7DA
:105460000448FAE70448F8E7BA520020102B00205D
:10547000028000F0018000F0078000F008B50A4BC0
:105480001B785BB107280BD8084B03EB00131B7B81
:1054900043B1002103F0B8FA002008BD0448FCE73E
:1054A0000448FAE70448F8E7BA520020102B00201D
:1054B000028000F0018000F0078000F008B50A4B80
:1054C0001B785BB107280BD8084B03EB00131B7B41
:1054D00043B1012103F098FA002008BD0448FCE71D
:1054E0000448FAE70448F8E7BA520020102B0020DD
:1054F000028000F0018000F0078000F0F8B5194B41
:105500001F6D5B6D1F4002D40125002402E0FEE701
:1055100001346D00072C24D83D42F9D0124B1D6593
:105520002301124AD358002BF2D002EB0416B168C3
:105530000131B16072682046984780F00100C0B226
:10554000737B012BE4D10028E2D0094B03EB441319
:105550001A7B6FF341021A731A7F6FF341021A77B5
:10556000D6E7F8BD0000045000200450102B0020A6
:10557000102A00202DE9F04F89B005460E4614464A
:105580009846C36B5B69012207A960689847EB6B7B
:105590005B69012206A93046984707A81AF066FC05
:1055A00048B10027A77567754FF0FF33A3603846F1
:1055B00009B0BDE8F08F074606A81AF067FC012382
:1055C000A375237E033304EBC3035E6000221A81BC
:1055D0006368B3422AD02368834201D00023A375B5
:1055E00006A81AF078FC237D984201D00023A37509
:1055F00006A81AF04FFC814607A81AF04BFC81451B
:1056000001D00023A37506A81AF04CFC814607A818
:105610001AF048FC814501D00023A375237D043B8B
:10562000DBB2022B0BD80023A375C0E7206006A8CD
:105630001AF051FC20754FF0FF33A360EEE706A887
:105640001AF028FC80B1EB6B5B69022204A930469A
:10565000984704A81AF031FC0346207D032868D837
:10566000DFE800F0615B070D06A81AF026FC034690
:10567000F3E7237E033304EBC303CC221A811AF031
:105680003AFC129B187094F8189006A81AF0F5FBD3
:1056900009F1030904EBC90989F80A00237E0333E1
:1056A00004EBC303B3F808A093F80AB006A81AF0F5
:1056B000F1FB814606A81AF0F5FB0390B9F1000F43
:1056C0003DD0EB6B5B69022204A93046984704A8E1
:1056D0001AF0AFFB6075637D03B9A375A37DA3B119
:1056E000BAF1000F11D0039BF1186B6C5B4286EA94
:1056F00001021A4201D00023A3756B6C5A1E0A40A6
:105700009B1A9A4501D90023A375A37D002B40D095
:10571000BBF1000F18D1E77D3CE0227E033204EBA1
:10572000C2021381ABE7227E033204EBC202138173
:10573000A5E7227E033204EBC20213819FE706A88D
:105740001AF060FB6075C6E70122E275627EBAB9A5
:10575000BBF1010F08D095F83470DFB9EA6AB2F1F5
:10576000FF3F05D01F4615E001216176174611E085
:10577000BBF1030F01D01F460CE00122A27609E025
:10578000BBF1010F37D0BBF1030F03D10122A27689
:1057900000E01F4653B117B1BBF1010F06D95346C4
:1057A000039A3146284619F0A4FCA060A37D13B1EA
:1057B000236953442361237E114A127893421CD2F9
:1057C00001332376B8F1000F13D0A37D8BB1E37DB5
:1057D0007BB177B9BBF1030F0BD0A168B1F1FF3FEB
:1057E00007D0129B0093012322462846FFF7C2FEF2
:1057F000A075A77DDBE61746CCE70023A375E1E79C
:10580000889002082DE9F04F89B005460F46924670
:105810009B4600238DF80B304FF0FF31104600F00F
:10582000EFFFB7F5801F1DD30023009317F1020F80
:1058300007D0009B002B40F09E802B7C002B00F0BB
:105840008C80EB6AB3F1FF3F2CD02A689B1A6A6CFC
:10585000B3FBF2F917F1020818BF4FF0010800235B
:1058600001935DE00DF10A02394605F1080000F0F0
:1058700017FF0146B0F1FF3F11D0504600F0C0FFC6
:105880000DF10B0301225146284619F0B1FC00909E
:105890000028CBD09DF80B308BF80030C6E70023F2
:1058A0000093C3E7696A284619F044FB8146D1E7B3
:1058B0000123019337E09DF80B308BF80030324B19
:1058C0001A683249504620F0C0FC00942F4B99686A
:1058D000B1F1FF3F1BD06B6C5B4281EA06021A42BA
:1058E00015D12A4C204600F08BFF0DF10B034246E8
:1058F0002146284619F07CFC04460028E6D017F122
:10590000020FD8D0214B1B68BB42DFD1D3E74946F9
:10591000284619F00FFB8146019BCBB9009BBBB910
:105920006B6A4B45C4D02C686B6C03FB0944EB6B72
:105930005B69052203A92046984703A81AF072FB69
:105940001AF097FB20461AF0A0FB06460146BFE777
:10595000009BA3B1B7F5801F03D3009B8BB1002040
:105960000AE09BF80030DAF80420394605F1080017
:1059700000F0B4FEF1E7002009B0BDE8F08F2D2063
:10598000FAE72D20F8E700BF8490020804320020D7
:1059900070B582B004464FF0FF33C3620DF10703C8
:1059A0001A4A6FF00101FFF72DFF20BB174B9B68D0
:1059B000E362E56A2946204619F0ADF82063E8B1B4
:1059C0002946204619F085FB0546A36AAB421BD049
:1059D0002946204619F09FF80646236B03442363AB
:1059E0002946204619F075FB0546002EEDD100230F
:1059F0002363E062E9E7A36AE362DAE7E16A20464B
:105A000019F067FBE062DBE702B070BD30320020C6
:105A100030B583B01C46032A14BF002201221B7E2E
:105A20009A4202D0012003B030BD0D4609682368B8
:105A30009942F7D363689942F4D80DF10703114AEC
:105A4000FFF7E0FE0028EDD10E4B5A686B689A42D2
:105A5000E8D19DF80730032B14BF00230123227ED9
:105A60009342DFD16369013363612369E268934242
:105A7000D8D2A268296842F8231023690133236130
:105A8000D0E700BF303200202DE9F04182B004465B
:105A90000E4690461F46816A06E01A4B9968B1F19E
:105AA000FF3F1FD0012E23D0E06A884217D0B1F10A
:105AB000FF3F14D0134D284600F0A2FE0DF107035E
:105AC00001222946204619F093FB0028E5D03B46E9
:105AD0009DF8072029462046C0470028DDD102B0A6
:105AE000BDE8F0815968204619F0F3FA0146D9E77C
