:020000040800F2
:1000000000200020A140000843DA010843DA01087B
:100010002123020843DA010843DA010843DA010820
:1000200043DA010843DA010843DA010843DA010838
:1000300043DA010843DA010843DA010843DA010828
:1000400043DA010843DA010843DA010843DA010818
:10005000816A000843DA010843DA010843DA01083B
:1000600043DA010843DA010843DA0108293C0008B1
:10007000193C000843DA010843DA010843DA0108B1
:1000800043DA010843DA010843DA010843DA0108D8
:1000900043DA010843DA0108FD4C000843DA01089D
:1000A00043DA010843DA0108C1470008994700080C
:1000B00043DA010843DA01081DAE0108C9B8010896
:1000C0003B540208375402087DB00108515402081D
:1000D0003F54020899B80108435402082DB9010899
:1000E00065B9010843DA010843DA0108EDC90008DF
:1000F00043DA010843DA010843DA010843DA010868
:1001000043DA010843DA010843DA010843DA010857
:1001100043DA010843DA010843DA010843DA010847
:1001200043DA010843DA010843DA010843DA010837
:1001300043DA010843DA010843DA010843DA010827
:1001400043DA010843DA010843DA010843DA010817
:1001500043DA010843DA0108576F020809930108DE
:1001600043DA010843DA0108D5530208DB530208D9
:10018000194A5AB3194BDB6913F0040F29D110B483
:100190000AE003EA00048C4210D0013AB2B1134BDA
:1001A000DB6913F0040F14D110F0010FF1D1104CE2
:1001B0001C40002CEDD06FF001000CE00C4A1A40FE
:1001C0000AB9002007E06FF0010004E06FF00200C0
:1001D00001E04FF0FF305DF8044B70476FF0020014
:1001E00070474FF0FF307047809698000000035032
:1001F000020001000D4BDB6913F4803F12D170B592
:100200000A4B03F580560124F46003F500552C6475
:100210004FF480721A6100212046FFF7B1FF346469
:10022000EC6070BD6FF00100704700BF000003502C
:1002300010B5124B4FF480329A6603F51C33DC691B
:10024000144041F67132DA6303F580520121D16026
:10025000586102221A6100212120FFF791FF40B16D
:10026000074B0122DA601CB1A3F500530022DA63C8
:1002700010BD00212120FFF783FFF1E7009000501F
:100280000020035038B51A4B5861DB6913F0040F96
:100290002AD10C4654F8041B154B9961151F06E032
:1002A000214651F8042B124B9A61043D0C465DB176
:1002B00008210846FFF764FF03460028F0D00C4AE7
:1002C00004211161184638BD094B04221A6100212E
:1002D0002120FFF755FF03460028F3D100212120FC
:1002E000FFF74EFF0346EDE74FF0FF33EAE700BFAD
:1002F000000003502DE9F0410F46164605461A4B03
:100300004FF480329A6603F51C33DA6902F48038C0
:1003100041F67132DA6303F580530122DA6000237B
:1003200002E025442744361B8EB105F5005424F421
:10033000FF5424F01F04641BB44228BF34462246F5
:1003400039462846FFF79EFF03460028E9D0074AB2
:100350000121D160B8F1000F03D0A2F500520021B5
:10036000D1631846BDE8F081009000500020035092
:10037000000000000000000000000000000000007D
:10038000013800D0FCE770472DE9F04F2DED028BCE
:1003900093B082460C4693461D4657EC106B8DED8C
:1003A000080B32463B46304639461BF0AFFF00286B
:1003B00000F009814FF0FF32B14B304639461BF057
:1003C000CDFF002840F0FF804FF0FF326FF4801324
:1003D000304639461BF0A4FF002840F0F48000228C
:1003E0000023DDE90867304639461BF099FF0028F5
:1003F00040F0FC809DED087B8DED067B209B13F487
:100400008063119301D106231E93DDE906010246A4
:10041000C1F30A50C1F31303904643F07F5949F4E6
:100420004019A0F2FF301BF09FFC83A3D3E9002307
:100430001BF004FD82A3D3E900231BF049FB064611
:100440000F4600228F4B404649461BF03FFB7EA3E0
:10045000D3E900231BF0F2FC02460B463046394636
:100460001BF036FB1BF084FF06461BF07DFC80462C
:10047000894677A3D3E900231BF0E0FC0022824BDE
:100480001BF026FB1BF074FF074673A3D3E9002380
:10049000404649461BF0D2FC8046894638461BF050
:1004A00063FC6FA3D3E900231BF0C8FC02460B4694
:1004B000404649461BF00AFB8046894602460B46E9
:1004C0001BF0BCFCCDE90C0107F2FF370021002234
:1004D000CDE90A123B050B9300230A9342464B4693
:1004E000404649461BF0F4FACDE90E0142464B4620
:1004F00000204FF080411BF0E9FA80468946002237
:10050000624BDDE90C011BF0C3FD0022604B1BF0C8
:10051000DFFA02460B46DDE90C011BF0B9FD0022B3
:100520005C4B1BF0D5FA02460B46DDE90C011BF0D3
:10053000AFFD02460B46404649461BF0C9FA02464B
:100540000B46DDE90E011BF0A3FD0022524B1BF010
:10055000BFFADDE90A231BF071FC8046894649ECAD
:10056000188BDDE906231BF0F9FE40B1013E0022A5
:10057000474B404649461BF08BFD41EC180B06F1FA
:100580006303C62B3BD80427209B13F4006F40D095
:1005900035A3D3E90023DDE90689404649461BF02F
:1005A000D3FE00283BD032A3D3E90023404649467E
:1005B0001BF0B6FE002832D01E9BB34221DD9E1BED
:1005C000731E1E931FE0209B02931F9B01931E9B93
:1005D00000939DED080B2B465A462146504600F0ED
:1005E000CBF813B0BDEC028BBDE8F08F9FED227B02
:1005F0008DED067B069607F100430793FEE605277F
:10060000C2E700231E93209B43F4806320930027BE
:100610003E461F9B9F4241D2A3EB070840E01E9B32
:10062000002BF6D0119B002BF3D01E9B013B1E9399
:10063000EFE700BFAFF30080FB799F501344D33F37
:10064000B3C8608B288AC63F61436F63A787D23FD8
:1006500071A379094F930A401655B5BBB16B02409F
:10066000EF39FAFE422EE63F2D431CEBE2361A3FED
:100670000000000080842E41000000000000000007
:10068000FFFFEF7F0000F83F0000E03F00002C403C
:1006900000002440000018400000F03F4FF0000828
:1006A000209B13F0020902D00FB14FF000083EB1B9
:1006B00053EC182BDDE906011BF0EAFCCDE906013D
:1006C00000220023DDE908011BF02AFE00283BD1AF
:1006D000209B23F400630293CDF804801E9B0093BB
:1006E0009DED060B2B465A462146504600F044F835
:1006F000002F3FF476AF209B13F0200F2CD04FF04B
:10070000450C00F101082B46024621466046D047C1
:1007100086EAE672A2EBE67205230593013F049791
:10072000002303930A230293F30F019300922B46B5
:1007300042462146504623F074FAB9F1000F3FF4C7
:1007400050AF02461F9F10E0DDE90601024601F1AD
:100750000043CDE90623BBE74FF0650CD1E7561CFB
:100760002B4621462020D0473246A2EB0B03BB424A
:10077000F5D3104635E700BF2DE9F04F2DED028B84
:1007800093B00590089192469B4659EC108B1E9DA4
:1007900042464B46404649461BF0B8FD002840D033
:1007A0004FF0FF326FF48013404649461BF0B8FD0E
:1007B000002845D14FF0FF32B14B404649461BF06F
:1007C000CDFD00284BD1AAA3D3E9002340464946DA
:1007D0001BF0C4FD00285AD1A7A3D3E9002340464B
:1007E00049461BF09DFD002851D1002200234046C0
:1007F00049461BF095FD002857D100230993209B03
:1008000013F4806F5CD000241F2C5BD8092D59D9BC
:1008100004F148036B44302203F8202C013D0134DD
:10082000F2E7209B03931F9B029303230193954BB5
:1008300000935B4652460899059823F018F910E199
:10084000209B03931F9B0293042301938E4B0093E1
:100850005B4652460899059823F009F901E1209B6F
:1008600013F004030FD0894A7BB10423209903912C
:100870001F990291019300925B4652460899059890
:1008800023F0F5F8EDE0824AEEE70323EEE7209B44
:1008900002931F9B0193009549EC108B5B465246D7
:1008A00008990598FFF770FDDBE042464B460020B3
:1008B00000211BF00BF980468946012309939EE72E
:1008C0000625A0E7404649461BF052FD06461BF0B0
:1008D0004BFA02460B46404649461BF0F7F86D4B73
:1008E00003EBC50393ED008B53EC182B1BF0A6FA1A
:1008F00002460B46CDE906231BF062FD07461BF0BE
:1009000023FA02460B46DDE906011BF0DFF802463A
:100910000B46CDE9062300225F4B1BF01FFD50B3B1
:10092000013738461BF010FA02460B4651EC180B03
:100930001BF000FD08B10136002755BB30461BF007
:1009400013FA02460B46404649461BF0BFF8804664
:1009500089460022504B1BF0E3FC38B100224E4B7D
:10096000404649461BF0FAFC002842D016F0010F21
:100970003FD001363DE00022474BDDE906011BF088
:10098000CFFC0028D9D117B117F0010FD5D001370E
:10099000D3E71F2C17D8013D404BA3FB0723DB08EF
:1009A000194603EB8303A7EB4303621C303304F1C6
:1009B00048000DEB000404F8203C092F02D90F4633
:1009C0001446E6E714461F2C0AD86B1E45B104F105
:1009D00048026A44302102F8201C1D460134F2E727
:1009E0001F2C06D804F148036B442E2203F8202C58
:1009F00001341F2C17D82A4A82FB0632F317C3EBA7
:100A0000A2031A4603EB8303A6EB4303611C3033B6
:100A100004F148000DEB000404F8203C16460AB12E
:100A20000C46E6E70C46209B03F00303012B39D06C
:100A30001F2C09D8099B002B51D004F148036B44AB
:100A40002D2203F8202C0134209B03931F9B02933B
:100A500001940AAB00935B4652460899059823F02F
:100A600006F813B0BDEC028BBDE8F08FAFF3008049
:100A70000000000065CDCD410000000065CDCDC176
:100A8000FFFFEF7FAC8A0208B08A0208A08A020842
:100A9000A88A0208B88A02080000E03FCDCCCCCC7E
:100AA000676666661F9BB3B1099B1BB9209B13F059
:100AB0000C0F12D01F9B013B1F93194606E004F157
:100AC00048036B44302203F8202C01348C42AFD20F
:100AD0001F2CF4D9ACE71F99F8E71F99F6E7209B84
:100AE00013F0040F07D004F148036B442B2203F8E2
:100AF000202C0134A8E7209B13F0080FA4D004F1A8
:100B000048036B44202203F8202C01349CE700BFEB
:100B100038B50D46044625F028FF064A13889BB2D7
:100B20002DB123431380BDE8384025F019BF23EAD7
:100B30000403F7E7944B00200022034B01214FF4FC
:100B400080709A70E4E700BF944B00207FB54E6838
:100B500002A9044623F0FFFE9DF808300C2B19D1A2
:100B6000134BB3F90050134B9E4218D808F09AF873
:100B700003460068694600909B882046ADF8043023
:100B800023F0D6FE70B140F25F620B490B480DF0C6
:100B90009DFEFEE7204613F09BFC0546E3E71FF0B1
:100BA000F9FAE5E72946204623F0A8FE04B070BD17
:100BB00066510020FFC99A3B618D02082C8B020808
:100BC000002330B5134C85B0CDE90133039323786E
:100BD0008DF8043025F0C9FEA288E38805469A42C4
:100BE0000DD0E188A06801AAA18023F03DFD58B195
:100BF00040F2DA62084909480DF068FEFEE7A06895
:100C000023F00BFD0128ECD0284625F0A9FE05B005
:100C100030BD00BFB8560020618D02082C8B020841
:100C200038B50F4C656835B940F2C7720D490E48AA
:100C30000DF04CFEFEE723F0C9F8284410F096FDB5
:100C400000F00700032809D164680921204623F039
:100C5000D9F9205C031F5842584138BD0020FCE7F9
:100C6000944B0020618D02082C8B020808B5114BB3
:100C70009A78042A06D040F28E520F490F480DF0A0
:100C800025FEFEE71B881B0706D440F28F520A4957
:100C90000A480DF01BFEFEE700210820FFF738FF91
:100CA0000222074B98681A7313F0CCF9BDE808408C
:100CB00021F090BC944B0020618D02082C8B02081F
:100CC000B856002010B5084CA06813F0BBF9A06816
:100CD00023F0A3FC012806D00122A0681146BDE83C
:100CE000104023F09CBC10BDB856002038B5194DFB
:100CF000AB7833B140F22B72174918480DF0E6FD7E
:100D0000FEE725F032FE2988044611F0060109D0DD
:100D100001214FF48070FFF7FBFE2046BDE838400C
:100D200025F01EBE4FF48070FFF7F2FE12F0DCFAE1
:100D3000012805D010F0FD0F05D1FFF741FFECE7CA
:100D4000FFF7C0FFE9E740F24172034903480DF0A5
:100D5000BDFDFEE7944B0020618D02082C8B02083C
:100D600070B50446064D95F90860FFF7BFFF12F015
:100D7000B9F9314620466A68BDE8704011F0EABF13
:100D8000944B002008B50A4B1B88DB0606D440F2C2
:100D9000A752084908480DF099FDFEE700211020F0
:100DA000FFF7B6FE12F01CFBBDE8084021F012BCB4
:100DB000944B0020618D02082C8B02080D4B10B55E
:100DC0001B8804469B0713D500210220FFF7A0FED5
:100DD000094B5A7BFF2A06D040F2E54207490848F2
:100DE0000DF074FDFEE75C73BDE8104021F0F2BB2E
:100DF00010BD00BF944B0020B8560020618D020842
:100E00002C8B02087047704707B5ADF806100146F5
:100E100030B94FF4B572104910480DF057FDFEE798
:100E2000BDF8063033B940F26B120B490B480DF098
:100E30004DFDFEE70A4B0DF10602986823F042FED5
:100E400030B140F26D12044904480DF03FFDFEE759
:100E500003B05DF804FB00BF618D02082C8B020813
:100E6000B856002010B50E4CA37833B14FF4EA7297
:100E70000C490D480DF02AFDFEE7606019B1A17B19
:100E8000003918BF01212020FFF742FE074B084818
:100E90009B7B23760223A370BDE8104010F032BB89
:100EA000944B0020618D02082C8B0208B85600205C
:100EB000B04B002008B50CF037F880F00100C0B24C
:100EC00008BD0A4B9A780AB1062A0CD11B8803F494
:100ED0008B7343B9064B5A7BFF2A04D1187BFF382A
:100EE00018BF012070470120704700BF944B0020BD
:100EF000B856002008B50CF007F80028FBD108BD53
:100F00000C4B42889A8142789A730278DA7382880D
:100F10001A82C2885A82C2685A61017A064A91735B
:100F2000028A998C914204D001214FF400709A8476
:100F3000EEE57047944B0020B8560020094B9A8983
:100F400042809A7B4270DA7B02701A8A82805A8AC7
:100F5000C2805A699B8CC260034A0382927B0272F0
:100F6000704700BF944B0020B85600204B1E012B49
:100F700070B50C4606D940F2B7221A491A480DF04E
:100F8000A5FCFEE7194D0A460146A86823F0C4FDFA
:100F900030B140F2B922134913480DF097FCFEE737
:100FA000AE6810F023FA22460146304623F0AEFD2B
:100FB00030B140F2BD220B490B480DF087FCFEE733
:100FC000AD6810F01FFA22460146284623F0AAFD1C
:100FD00030B140F2C122034903480DF077FCFEE72F
:100FE00070BD00BF618D02082C8B0208B85600202E
:100FF000054BDB7B1B0913F00E0003D0052B8CBFC8
:1010000000200120704700BFB8560020044BDB7B56
:101010001B0913F00E0F0CBF01200020704700BF0A
:10102000B85600202DE9F04F15469A0580461F4618
:101030008FB003D501218020FFF76AFDEB014FF04F
:10104000000955D5984C23889E0751D5974E737B40
:10105000FF2B06D040F2AF42954996480DF036FC82
:10106000FEE7636833B94FF49662914991480DF0F9
:101070002DFCFEE749460220FFF74AFDA37886F8DB
:101080000D90042B03D101210820FFF741FD00231F
:10109000B06808A98DF82C3023F05FFC30B140F225
:1010A000BA42834983480DF011FCFEE7FFF7A0FF29
:1010B000B0B922F08BFE8146606822F092FE08A94A
:1010C0008144B068ADF8249023F04AFC30B140F27E
:1010D000C242774977480DF0F9FBFEE7089BA3620F
:1010E000A378032B02D1B06812F0ACFF21F072FAA2
:1010F000B80702D50120FFF761FE15F0A84F02D016
:101100000220FFF75BFEA90220D50021402003AC9E
:10111000FFF7FEFC2146404623F01CFDB0B99DF8C8
:10112000143008AA022B22D18DF82830BDF80C30DB
:10113000ADF82030104611F0DFFF38B1404623F003
:1011400007FD18B901214020FFF7E2FC2A0753D51B
:10115000564E0321B06803AA23F0B6FC814688B935
:1011600040F2FE42524953480DF0B0FBFEE7032B1C
:1011700005BF8DF82830D4E900018DF82800C2E9B8
:101180000001D7E79DF80C30B068072B40F01F81B5
:10119000494608AA23F09AFC30B140F20152444972
:1011A00044480DF093FBFEE7FFF722FFBDF80E2049
:1011B000A0B9FFF72BFF78B1043292B2B06808A94A
:1011C000ADF8242023F084FC40B140F2125238499B
:1011D00038480DF07BFBFEE70232EEE7BDF80E006B
:1011E0000121073080B225F0F1FA8246002842D171
:1011F00001210C2012F0BAFEA90705D52A4B1B8845
:101200001A0701D5FFF732FDAB010BD500210420F1
:10121000FFF77EFC244B9B78012B03D1234B98686E
:1012200012F010FF15F0284F03D000210420FFF723
:101230006FFC7E060CD51C4C23881D0701D5FFF7DB
:1012400015FD2388580703D500210420FFF760FC13
:10125000F90540F1D88003A9404608AA23F0DBF93C
:101260000146002800F0BA8040F2D25210491148DD
:101270000DF02CFBFEE74FF0000B25F02BFACDF81C
:1012800000B00246BDF80E3004464946B06823F06F
:1012900023FCBDF80E3083420ED040F222520449A6
:1012A00004480DF013FBFEE7944B0020B8560020D5
:1012B000618D02082C8B020822F088FD204410F07A
:1012C00055FA00F007000228DFF8589124D199F868
:1012D0000230042B90D122F079FD504B20448278CB
:1012E0001B789A4288D159460820FFF711FC22F05A
:1012F0006DFD204410F03AFA9DF82E30C0F3001036
:10130000307389F80830FFF78BFC00287FF474AF46
:10131000B06812F097FE6FE722F058FD204410F0FD
:1013200025FA83064AD522F051FD204410F01EFA1A
:1013300000F0070003280BD10921204622F062FEAD
:1013400014F800B0ABF1040CDCF1000B4BEB0C0B10
:1013500001210420FFF7DCFBB06823F0D0FBC9F8C3
:101360002C00BBF1000F30D0B9F8003058062CD556
:1013700000214020FFF7CCFB0126BDF80E309DF880
:101380002E200120E254BDF80E309DF82F2023447A
:101390009A71BDF80E10089A0131214410F0F4F949
:1013A000BDF80E3050461C44667125F067FA1C4BA0
:1013B000187810F0ADF921F00DF91DE799F8023019
:1013C000012B02D1B06812F03DFE0026D5E723F0D4
:1013D0005FFB4946B06823F07DFB0DE79DF80C30BC
:1013E00003F0BF02032A01D0022B0FD10D4C23883A
:1013F0005A0702D50420FFF78BFB23889B0702D5F1
:101400000120FFF7DBFC0FB0BDE8F08F4FF4BF62A7
:10141000054906480DF05AFAFEE700BF014C0020CE
:10142000244B0020944B0020618D02082C8B020875
:1014300008B50246FFF7DCFD30B1072A06D80020C8
:10144000034B83F8302008BD7020FCE70220FAE748
:10145000944B002008B50246FFF7CAFD28B10020D2
:10146000034B93F83030137008BD7020FCE700BFC9
:10147000944B002008B5074B01460022986823F0E2
:101480004BFB30B140F2EB22034904480DF01EFA49
:10149000FEE708BDB8560020618D02082C8B0208BB
:1014A00008B5074B01460022986823F02FFB30B1A6
:1014B00040F2F122034904480DF008FAFEE708BDA6
:1014C000B8560020618D02082C8B020808B5074B26
:1014D0000146986823F02CFB30B140F2F722044912
:1014E00004480DF0F3F9FEE708BD00BFB856002030
:1014F000618D02082C8B020808B5074B9B7833B12D
:1015000040F20132054906480DF0E0F9FEE7BDE87A
:101510000840FFF7EBBB00BF944B0020618D020831
:101520002C8B020808B5054B0146986823F0E6F9B4
:10153000002814BF8B20002008BD00BFB856002033
:10154000014B986812F0C4BFB8560020014BD888F0
:10155000704700BFB85600207FB50123ADF80E30AC
:101560004FF6FE7309480093806800230DF10E02C8
:1015700004A923F050F9212800D020B9BDF81000AB
:1015800007B05DF804FB4FF6FF70F9E7B85600208E
:1015900008B5044B0146986823F0F1F8B0FA80F0E2
:1015A000400908BDB856002038B50B4D0446AB784D
:1015B000012B0DD8FFF7ECFF60B1084BDC80AB7856
:1015C0001BB9FFF793FB002038BDFFF7F9FAFAE7E4
:1015D0003E20F9E78A20F7E7944B0020B856002018
:1015E000024B9B780BB9FFF781BB7047944B0020EF
:1015F000014BD873704700BF944B002008B5064BD1
:101600004FF0FF31986823F033F80028B8BF03305B
:1016100040F3870008BD00BFB856002008B5044B52
:10162000986823F0A8F8034BB3FBF0F080B208BD34
:10163000B856002040420F0030B58DB02C22044631
:10164000002101A823F091FF01234FF002328DF811
:1016500008306423CDE9032306930B238DF82C3047
:10166000214B9B8CADF80A30FFF7C2FCA8B140F2C9
:10167000F23307934FF47A7305930CB9FFF722FB0B
:101680001A4D01A9A86812F0F7FFC0B140F2AC6290
:10169000174918480DF01AF9FEE7FFF7BFFF0C23B2
:1016A0004343902B0793A3F10A02D8BF91230592DD
:1016B000D8BF0793059B8B2BDFD88C23DCE7FFF784
:1016C000A5FC60B10122A868114623F03FFA30B1B1
:1016D00040F2AF62064907480DF0F8F8FEE70CB992
:1016E000FFF704FB0DB030BD944B0020B85600202E
:1016F000618D02082C8B0208F8B525F036F9554C9F
:1017000006462388D90503D5A37843BBFFF7EEFA35
:10171000514D6B7BFF2B13D06B7B03F0FF0723BB7B
:10172000FF236B73A378032B0AD100233046A370E9
:1017300025F016F93846FFF713FB25F016F9064693
:10174000A378042B08D12B7BFF2B05D02B7B022BFE
:1017500014D142480FF0D6FEFF232B7327E000215F
:101760004FF48070FFF7D4F9D2E76B7B012B4FF079
:10177000FF0314BF89278D276B73D6E72B7B13B12B
:101780002B7B012B1ED1FFF74BFA0022FF212B7B75
:101790000746DBB222772973002847D0012B0AD1F4
:1017A00064212E48A3700FF0B8FEFFF709FA304607
:1017B00025F0D6F806E03046A27025F0D1F83120A9
:1017C000FFF7CEFA23881A0608D500218020FFF7FC
:1017D0009FF9A86823F0FDF811F0E3FD23889B052D
:1017E00007D54FF400700021FFF792F90020FFF7B2
:1017F00023FF0BF089FB608620B324F06BFF0121EF
:101800000546002012F0B2FBA678012E14D1002666
:101810002677A670FFF76AFA284611F0BDF9A3787B
:1018200066867BB9BDE8F84011F05CBCA07030461C
:1018300025F096F83846C3E72EB1284611F0ACF9EA
:1018400000236386F8BDFFF751FA284611F0A4F98A
:101850006686F7E7944B0020B8560020B04B002076
:101860008B4BF0B51B888B4C8B4D63848B4B85B0B9
:101870001B68E3628A4B1B8823848A4B1B68A36224
:101880002B88DB0700F1FC8001210846FFF740F9B7
:101890000523854A04F1100104F10800AB7012F031
:1018A00093FB28B1F522814981480DF00FF8FEE73E
:1018B000A3682BB9F7227D497D480DF007F8FEE7B4
:1018C0007C4822F0F0FE70A3D3E90023CDE9002389
:1018D0004FF0FF324FF0FF33A06822F093FF4FF438
:1018E0008811A06812F06CFE014630B140F20F1270
:1018F0006E496F480CF0EAFFFEE76F4B1B78012B37
:101900000ED16E4AA06812F02DFCA06812F0E2FE23
:10191000E0B140F21B12654965480CF0D7FFFEE7C5
:10192000674E316831B94FF48F72604960480CF0EE
:10193000CDFFFEE7614AA06812F014FC33689B6893
:1019400023B1DB6913B15B7803B1E373FFF704FEE6
:101950000146E080A06812F081FD064630B140F2F9
:101960002D12524952480CF0B1FFFEE7554B0120B1
:101970001B78C3EB431203EB8203DB00AB84FFF75E
:101980005BFEA7680FF03EFD32460146384623F065
:10199000C9F8064630B140F23312444944480CF0CD
:1019A00095FFFEE740F203530427AB81464BAF732C
:1019B0001B78EB73FFF732FE00EB80039B002B825A
:1019C000FFF72CFEC00068823946A0686E6122F0E5
:1019D000C1FE30B14FF4A172344935480CF076FFA6
:1019E000FEE73A46A06803A922F047FF042806D084
:1019F0004FF4A3722D492E480CF068FFFEE703A9AF
:101A000001200FF0CFFE0BF005F808224FF0FF3158
:101A1000A06822F008FF30B140F24F122349244859
:101A20000CF054FFFEE712F0D5FF30B140F2551232
:101A30001E491F480CF04AFFFEE7FFF7D9FA68B1CC
:101A40001EF0AAFB0146A06822F072FF30B140F2FE
:101A50005912164916480CF039FFFEE7A468FFF743
:101A60007BFD1A4B014603F10C02204622F0FEFDDD
:101A700030B14FF4B0720D490D480CF027FFFEE76E
:101A800005B0F0BDAFF300800A0020FF4203000064
:101A900058900208B8560020944B00205C90020831
:101AA0005A90020860900208390B0008618D020804
:101AB0002C8B0208690345ECE54B00204D0B000818
:101AC000A05400205C5800205B5800208C8D020838
:101AD00008B5044B986822F050FE034BB3FBF0F0BE
:101AE00080B208BDB856002040420F002DE9F043F7
:101AF0008C4D87B02B889B0706D440F24C728A49E4
:101B00008A480CF0E3FEFEE7AB78033B012B06D9D5
:101B100040F24E72844985480CF0D8FEFEE76A68B0
:101B200032B940F25172804980480CF0CFFEFEE796
:101B30007F4E2C88F77B14F0200418BF4FF47A7482
:101B40004FEA1718FFF754FA00287DD0B8F1020FBA
:101B50000AD0A8F10303022B74D940F265727249CE
:101B600072480CF0B3FEFEE7032795F8303008EB1F
:101B7000C80898446F4B104603EB4803B3F81C8029
:101B800022F02FF94FF4FA534343B3FBF8F37822D2
:101B90007733B3FBF2F31F44C7EB0717AB78FF00B3
:101BA000BFB204F5347417FA84F4042BA4B203D141
:101BB00007F6E8072744BCB2D5F8048022F006F9FE
:101BC0000746686822F00DF9074422F025F9BFB2F4
:101BD0003F1A22F0FBF840440FF0C8FD7378C0F3C1
:101BE00040198DF80C30544BBFB2CDE904340024B9
:101BF00022F01EF9009402463B464146B06822F0AE
:101C000049FF287EB278737812FB00F29342C4BF7A
:101C10009B1ADCB22B88F18813F0200FB068B180DA
:101C20008DF80C4003AB76D000934A46434B22F02C
:101C300012FD002873D040F224723B493B480CF05F
:101C400045FEFEE7062790E7FFF7E0F9002846D0BB
:101C5000384B07F00F0708EBC801394403EB410389
:101C60001046B3F81C9022F0BCF8B8F1000F2CD04D
:101C7000B8F1010F2CD14FF00408400080B2F319E5
:101C800093F834304BB14FF4FA52023303444344D7
:101C90009BB25343B3FBF9F39CB2AB78042B8BD1CB
:101CA000FFF7BCFC374497F834308146053398443D
:101CB000FFF70EFF0C2308FB00F003FB09F909EB0B
:101CC000C009A1441FFA89F476E74FF00208D6E76D
:101CD00040F28672144915480CF0F8FDFEE7FFF754
:101CE000F7FE0746686822F07CF809307843AB7845
:101CF00004EBC000042B84B27FF45EAFFFF78EFCD0
:101D00000746FFF7E5FE602358430C2303FB07005B
:101D1000204484B250E74A4622F09BFC89E707B092
:101D2000BDE8F083944B0020618D02082C8B0208E3
:101D3000B85600208C8D020820A10700A04B00207F
:101D4000F8B5494C258815F0020506D040F2751209
:101D5000464947480CF0BAFDFEE7257724F005FE1A
:101D6000238806465A070CD5424B986822F0C7FED6
:101D7000E36AC01AA38C984203D929460420FEF7CF
:101D8000C7FE304624F0ECFDA778022F37D124F0AF
:101D9000ECFD2388064613F0040507D036480FF003
:101DA000B1FB3046BDE8F84024F0DABD24F0D8FDA0
:101DB000606811F0D1F920B1A570BDE8F840FEF7D8
:101DC000CFBF24F0D2FD6668054621F0FFFF304406
:101DD0000FF0CCFC10F0200F0CBF032304230121D3
:101DE0003846A370FEF794FEFFF780FE284624F0E5
:101DF000B7FD01210846BDE8F84012F0B7B8042F3E
:101E000027D11C4B1B7BFF2B2DD1237EF3B124F05C
:101E1000ACFD238805465B0704D517480FF072FB1D
:101E20002846BFE724F09CFD237E013B237624F067
:101E30009CFD044601210220FEF76AFEFFF756FED4
:101E4000204624F08DFD01210820D4E74020A37016
:101E5000B3E7012F07D10023A370064B986812F057
:101E6000F1F83120A9E7F8BD944B0020618D0208FC
:101E70002C8B0208B8560020B04B002038B5012149
:101E800004461020FEF744FE064B9D68FFF7C6FB94
:101E9000012200FB04F1044B284622F0C5FB002080
:101EA00038BD00BFB8560020850D000808B50A4BA4
:101EB0001B88DB0606D44FF46172084908480CF011
:101EC00005FDFEE710200021FEF722FE054B986875
:101ED000BDE8084022F0B6BB944B0020618D02089B
:101EE0002C8B0208B856002038B50E4D688E30B9DC
:101EF00040F291320C490D480CF0E8FCFEE724F06A
:101F0000E9FB0446688E24F003FC811F2144012074
:101F10000FF048FC064B0446986822F0F0FD001BC9
:101F200038BD00BF944B0020618D02082C8B020845
:101F3000B856002010B5084C636833B94FF4687286
:101F4000064907480CF0C2FCFEE7064B986822F0F1
:101F5000D6FDA36AC01A10BD944B0020618D020803
:101F60002C8B0208B856002038B50A4D688E30B95F
:101F700040F2AA32084909480CF0A8FCFEE724F018
:101F8000A9FB0446688E24F0C3FB044414F8020C39
:101F900038BD00BF944B0020618D02082C8B0208D5
:101FA00038B50A4D688E30B940F2B932084909484F
:101FB0000CF08CFCFEE724F08DFB0446688E24F0C8
:101FC000A7FB044414F9070C38BD00BF944B002054
:101FD000618D02082C8B020838B50A4D688E30B925
:101FE0004FF47272084909480CF070FCFEE724F0C7
:101FF00071FB0446688E24F08BFB044414F9010C39
:1020000038BD00BF944B0020618D02082C8B020864
:10201000024B1888C0F3C010704700BF944B0020DB
:1020200030B585B005466C460D4B0FCB84E80F00EC
:102030000DB12B6800930B4B21460022986812F0DB
:102040005DFA044630B140F2E632074907480CF029
:102050003DFCFEE7FEF7B4FD204605B030BD00BFF5
:10206000148E0208B8560020618D02082C8B0208DD
:1020700030B5154D87B004460DF10701A86822F070
:10208000C3FB30B140F2F732104911480CF01EFC8E
:10209000FEE79DF80720531EDBB2FD2B0FD90294FB
:1020A000FF2A00D10394A86802A922F095FC40B150
:1020B00040F20442054906480CF008FCFEE7012AFC
:1020C000EFE707B030BD00BFB8560020618D0208B1
:1020D0002C8B020808B5064B986822F08CFC30B1B6
:1020E0004FF48262034904480CF0F0FBFEE708BDA0
:1020F000B8560020618D02082C8B02080122024B89
:102100001146986822F08BBAB85600207047F8B58F
:10211000064604200D4621F03BFE030622D5124F51
:10212000BC78FCB926B1012E17D002242046F8BD98
:1021300001262846FFF72CFA0028F6D00B4800238A
:1021400032462946806822F088FA40B14FF48A620C
:10215000074908480CF0BAFBFEE72646E9E70623E4
:10216000BB70E3E77024E1E7944B0020B8560020F1
:10217000618D02082C8B0208042010B521F008FEA6
:10218000030611D5094CA378062B0DD1084B98688E
:1021900022F065FA30B140F26A42064906480CF076
:1021A00095FBFEE7A07010BD7020FCE7944B00206B
:1021B000B8560020618D02082C8B02081FB504461A
:1021C00001A812F063F99DF80D3053B14CB1064BE4
:1021D0002078617818700020A27859709A7004B045
:1021E00010BD0220FBE700BFB85600201FB5044613
:1021F00001A812F04BF99DF80D3053B14CB10020FD
:10220000054B1A7822705A789B786270A37004B0DC
:1022100010BD0220FBE700BFB8560020FFF7CEBF7D
:10222000FFF7E4BF0348044B834202D0034B03B1E2
:1022300018477047745800207458002000000000B0
:10224000064B0749C91A891048BF0131491003D00C
:10225000044B0BB101481847704700BF7458002069
:10226000745800200000000010B5064C237843B9D4
:10227000FFF7D8FF044B13B10448AFF300800123EC
:10228000237010BD205200200000000000CA020888
:1022900008B5054B1BB105490548AFF30080BDE803
:1022A0000840FFF7CDBF00BF00000000A0220020C3
:1022B00000CA0208A3F5803A704700BF174B002BF5
:1022C00008BF134B9D46FFF7F5FF00218B460F46D5
:1022D0001348144A121A23F048F90E4B002B00D071
:1022E00098470D4B002B00D0984700200021040098
:1022F0000D000D48002802D00C48AFF300801AF002
:1023000097FD200029001BF0ABFA1AF027FA00BF56
:102310000000080000000000000000000020002075
:10232000002000208052002000000000000000007B
:1023300008B5074B01229A73064B1B6800221A70DE
:102340004FF49671044B18680FF0E7F808BD00BF12
:102350006C230020B8220020BC22002010B504F01D
:10236000F3FA0B4B01220B490B48006804F0AAF961
:102370000A490B480AF0ECF90A4C0B4920460AF0CE
:10238000E7F941F2883120680FF0C7F810BD00BFAF
:102390009D250008F02200203C560020B5260008AC
:1023A000BC220020B822002031230008084B9B7B70
:1023B000012B05D01BB9074B93F82E3003707047E3
:1023C000054BD3F8A430C3F340030370704700BF3C
:1023D0006C230020C022002000C0035010B5634BC6
:1023E00093F85930042B0ED8DFE803F003132231A1
:1023F000420003787E2B07D05D4B01225D495E4889
:10240000006804F05FF910BD584B012283F8592091
:10241000F2E70378554981F83130022381F85930C9
:10242000534B012230315448006804F04BF9EAE77D
:1024300003784E4981F83230032381F859304C4BF0
:10244000012230314C48006804F03CF9DBE70378A6
:10245000464981F83330042381F8593091F831200E
:10246000434B043A34314448006804F02BF9CAE77E
:102470003E4C002384F85930621C94F8311004F16A
:1024800031001BF01BF9207038B1394B012239495A
:102490003948006804F016F9B5E7384B00229A7302
:1024A0004FF49671364B18680FF037F8E378482BE5
:1024B00006D0432BE9D12D4B1A7983F82F20E4E77E
:1024C000637A84F82E30013B042BDED8DFE803F07A
:1024D000031221303F00032001F02EFC0028D4D04D
:1024E0001BF060FA1BF05FFA2649274B18681EF0B4
:1024F00048FFCAE7032001F01FFC0028C5D01BF0ED
:1025000051FA1BF050FA21491F4B18681EF039FF91
:10251000BBE7032001F010FC0028B6D01BF042FA04
:102520001BF041FA1A49184B18681EF02AFFACE755
:10253000032001F001FC0028A7D01BF033FA1BF0A8
:1025400032FA1449104B18681EF01BFF9DE7032058
:1025500001F0F2FB002898D01BF024FA1BF023FABC
:102560000D49094B18681EF00CFF8EE7C0220020B1
:102570009D250008F02200203C5600206C230020FE
:10258000BC220020C870020814280020D070020865
:10259000D8700208E0700208EC70020808B5024822
:1025A000FFF71CFF08BD00BFF022002008B50A4657
:1025B000002301460248006804F04AF908BD00BF44
:1025C0003C56002000B591B0264B9B7B23B1012BDC
:1025D00020D011B05DF804FB8DF814008DF8153093
:1025E0008DF816308DF817300122039204220292E2
:1025F00005AA01924322009202220A2106A81BF09A
:102600001BF80A2106A8FFF7D1FF42F2107004F070
:102610000BFADEE7144BD3F8982722F01002C3F828
:102620009827D3F8982722F00402C3F8982703F5D7
:10263000805320221A6400210C481DF02FFD002336
:1026400004220521184605F01BFD00230122062166
:10265000184605F015FDC821054B18680EF05DFF02
:10266000B7E700BF6C23002000C0035000C0055036
:10267000BC2200200E4B9B7B03B1704700B58FB08E
:102680000123039300230293019348220092022224
:10269000062104A81AF0D0FF062104A8FFF786FF40
:1026A00042F2107004F0C0F90FB05DF804FB00BFF7
:1026B0006C23002008B5094B20221A64FFF7DAFFCB
:1026C0004FF49671064B18680EF027FF41F28831DF
:1026D000044B18680EF021FF08BD00BF00D0035066
:1026E000BC220020B822002010B582B004461BF0A6
:1026F00050F808B902B010BD00230093ADF80430C3
:10270000074B1B88ADF80230ADF8044044F221338A
:10271000ADF80030694602201FF0F3FFEAE700BF82
:10272000D857002000B583B000230093ADF80430E3
:10273000094B1B88ADF8023044F22133ADF800306C
:1027400068461FF0DAFF1FF0D4FF0A201FF0DDFFFC
:1027500003B05DF804FB00BFD857002008B513464E
:102760000A4601460448006803F030FA00B908BD83
:1027700002480CF0ABF8FAE770560020F870020837
:102780000A2800D9704730B583B004460D466B4621
:1027900001AA01461048006803F07EF908B9019BC0
:1027A00023B10E480CF092F803B030BD009B2A46CE
:1027B00021460948006803F0AFF840B921460848AF
:1027C0000CF084F8294607480CF080F8ECE7214625
:1027D00005480CF07BF8E7E770560020007102080E
:1027E0002471020840710208487102080A2800D9C1
:1027F000704710B504460146064B186803F0B4FA5A
:1028000020B9214604480CF061F810BD03480CF0D3
:102810005DF8FAE7705600206C71020888710208B2
:1028200008B50F4B1B786BB90E4B1B780E4A12780C
:10283000B3EB420F07DA01330A4A137001210B4848
:102840001BF098F808BD0023094A1370054A13705D
:10285000012106481BF09EF8064823F09BFCF1E797
:10286000215200202352002022520020D882020848
:10287000245200201C230020037823BB704701331F
:10288000022B22DC03EB4302104911F82220002A1C
:10289000F5D100B50A4603EB430102EB810C4FF082
:1028A000000E8CF801E04FF0010C02F821C002EBA1
:1028B000810301684268C3F80210C3F80620028948
:1028C0005A815DF804FB0023DAE770473C230020BF
:1028D00030B583B00446164B5D7B21B123788DF86B
:1028E000003000230BE0FFF7C7FFF7E7E118497856
:1028F00003F109026A4402F8081C0133DBB2617A71
:102900004A1E9342F2DB0A4B5B8A01F108026A44D9
:1029100002F8083C01F109026A441B0A02F8083C6B
:1029200002316A46C9B2284601F0C0F903B030BD91
:102930006C23002010B51F4C2046FFF737FD2046C2
:1029400010F81039427C934206D0A4F1100253745F
:10295000527B42B1012A22D04FF49671164B18686F
:102960000EF0DBFD10BD032001F0E6F968B9134855
:102970001E23037003234372114B5A7C4270DB7A8F
:1029800083700021FFF7A4FFE6E71BF00BF81BF0B4
:102990000AF80C490C4B18681EF0F3FCE7E70748EF
:1029A0001E2202704370022343720021FFF790FF42
:1029B000D2E700BF7C2300208C230020602300206E
:1029C0006C230020A07102081428002008B52A4BAF
:1029D0001A789A721B78DBB22B2B34D013D803B33E
:1029E000102B34D1244B5B7B012B30D1224B5B78F5
:1029F000DBB2012B30D0204B5B78DBB2022B2FD027
:102A00001D4B5B7823E02F2B21D11B498A784B7813
:102A100043EA022321F8123F02220820FFF79EFE1C
:102A200015E0154B1B7C012B05D0032B07D00C2088
:102A3000FFF7C8FD0BE00220FFF7C4FD07E001200F
:102A4000FFF7C0FD03E00D4B18680EF05BFD0C4B6B
:102A50001B6800221A7008BD0C20FFF7B3FDF6E7D3
:102A600008481F230370044B1B7C437002234372EE
:102A70000021FFF72DFFEAE76C23002094230020BC
:102A8000902300206023002000B583B08C461146BF
:102A9000074B1870074B83F800C0012301930023F4
:102AA0000093054A054824F0F1F903B05DF804FBF2
:102AB0002152002022520020212800081C2300203F
:102AC00008B5044A1AF06FFE034B18680EF01AFDA1
:102AD00008BD00BF6C2300209023002038B50446B9
:102AE0001FF01BFEA04201D8012038BD054603207F
:102AF00001F022F90028F8D01AF054FF1AF053FF21
:102B00002B4622460349044800681EF03AFC002088
:102B1000EBE700BFB07102081428002030B583B085
:102B200004468368C26853F822301D882846FFF7A0
:102B3000D5FF08B903B030BD00230093ADF80430D1
:102B4000164B1B88ADF80230ADF804506368E2689C
:102B50009B1A012B1DDDA368013253F822301B881C
:102B6000ADF800301FF0C5FD694603201FF0C9FD18
:102B70000446032001F0E0F80028DBD01AF012FF31
:102B80001AF011FF22460649064B18681EF0F9FBA1
:102B9000D0E740F2FF13ADF80030E3E760510020CA
:102BA000E87102081428002030B583B00446836819
:102BB000C26853F822301D882846FFF78FFF08B9F6
:102BC00003B030BD00230093ADF80430154B1B88D3
:102BD000ADF80230ADF804506368E2689B1A012B2F
:102BE0001BDDA368013253F822301B88ADF800309A
:102BF000694604201FF085FD0446032001F09CF87F
:102C00000028DDD01AF0CEFE1AF0CDFE224606498D
:102C1000064B18681EF0B5FBD2E740F2FF13ADF883
:102C20000030E5E7605100200872020814280020F7
:102C300030B583B004468368C26853F822301D88DB
:102C40002846FFF74BFF08B903B030BD00230093BF
:102C5000ADF80430154B1B88ADF80230ADF80450C8
:102C60006368E2689B1A012B1BDDA368013253F8ED
:102C700022301B88ADF80030694602201FF041FD6C
:102C80000446032001F058F80028DDD01AF08AFE2F
:102C90001AF089FE22460649064B18681EF071FBA1
:102CA000D2E740F2FF13ADF80030E5E760510020B5
:102CB0001C7202081428002030B583B08368C268F3
:102CC00053F822301C780023019343689B1A012B90
:102CD00019DD01AA01211DF024FE01469DF8040022
:102CE0001FF003FD054680B1022001F025F860B118
:102CF0001AF058FE1AF057FE2A460649064B186885
:102D00001EF03FFB01E01FF0F4FC20461FF0FDFC2D
:102D100003B030BD387202081428002010B50346F5
:102D20008168C26851F82200B0F900001A4C208076
:102D30005B689B1A012B0FDD013251F8223093F9A9
:102D40000010003918BF01211FF084FCA0B9032036
:102D500000F0F2FF10B910BD0021F5E71AF022FED5
:102D60001AF021FE0D4B1C681FF078FC02460C493E
:102D700020461EF006FBEEE7012000F0DDFF0028F4
:102D8000E9D01AF00FFE1AF00EFE0649034B186840
:102D90001EF0F7FADFE700BF605100201428002082
:102DA0009C720208B072020808B51FF047FC0320AD
:102DB00000F0C2FF00B908BD1AF0F4FD1AF0F3FDEF
:102DC0000249034B18681EF0DCFAF4E7C8720208E7
:102DD0001428002008B58368C26853F822301A8886
:102DE000094B1A80032000F0A7FF00B908BD1AF0B4
:102DF000D9FD1AF0D8FD044B1A880449044B186811
:102E00001EF0BFFAF2E700BFDA570020E8720208AE
:102E10001428002008B5024B18680EF073FB08BD9B
:102E2000942300202DE9F04186B01FF023FC0446D6
:102E3000894B1B7813F0020F2CD0884E13F0010F32
:102E40002AD0864F13F0040F28D0DFF81082032019
:102E500000F072FF28BB032000F06EFF58BB032078
:102E600000F06AFF002835D1032000F065FF00283C
:102E70003ED1032000F060FF002847D1032000F07E
:102E80005BFF00285ED1032000F056FF002867D1C9
:102E9000002471E0724ED1E7714FD3E7DFF8C081B3
:102EA000D5E71AF07FFD1AF07EFD6E496E4B18686B
:102EB0001EF067FACFE71AF075FD1AF074FD6A4B41
:102EC0001D6805F0B5FA02460B46684928461EF013
:102ED00058FAC4E71AF066FD1AF065FD624B1D68EA
:102EE0001FF0A0FB0246624928461EF04AFABBE7E3
:102EF0001AF058FD1AF057FD5B4B1D681FF0C6FB1A
:102F000002465C4928461EF03CFAB2E71AF04AFD38
:102F10001AF049FDE279A37961792079E57894F88E
:102F200002C094F801E024780594CDF810E0CDF8C3
:102F30000CC00295019000914F494B4800681EF06B
:102F400020FA9BE71AF02EFD1AF02DFD464B1C6867
:102F50001FF094FB0246494920461EF012FA92E700
:102F60001AF020FD1AF01FFD45493F4B18681EF06E
:102F700008FA8DE70134E4B2072C12D8032000F0E0
:102F8000DBFE0028F6D01AF00DFD1AF00CFD364BD2
:102F90001D681FF06FFB025D3A4928461EF0F1F9EB
:102FA000E8E7032000F0C8FE98B9032000F0C4FE53
:102FB000C8B9032000F0C0FE18BB032000F0BCFE1F
:102FC00068BB032000F0B8FE002836D106B0BDE88B
:102FD000F0811AF0E7FC1AF0E6FC2B49224B186846
:102FE0001EF0CFF9E1E71AF0DDFC1AF0DCFC1E4B15
:102FF0001C681FF047FB0246244920461EF0C1F919
:10300000D7E71AF0CFFC1AF0CEFC174B1C681FF064
:103010001DFB02461E4920461EF0B3F9CDE71AF00B
:10302000C1FC1AF0C0FC104B1C681FF017FB0246D5
:10303000184920461EF0A5F9C3E71AF0B3FC1AF0B0
:10304000B2FCCDF800803B46324613490648006882
:103050001EF097F9BAE700BF5058002050720208DE
:103060005872020804730208142800200C73020826
:10307000287302084473020860730208847302080C
:10308000A0730208B47302083C710208BC73020802
:10309000D8730208F07302080874020830B583B0D0
:1030A0008368C26853F822301C7801A920461FF0BB
:1030B000C9FA88B9032000F03FFE08B903B030BD5B
:1030C0001AF070FC1AF06FFC019B22460B490C4869
:1030D00000681EF056F9F1E70546012000F02CFECD
:1030E0000028EBD01AF05EFC1AF05DFC2A46054978
:1030F000034B18681EF045F9E0E700BF4074020872
:10310000142800205C74020870B58268C36852F805
:1031100023100C88013352F823301D7829462046AD
:103120001FF0DFFA80B9032000F006FE00B970BD81
:103130001AF038FC1AF037FC2B4622460B490C4893
:1031400000681EF01EF9F2E70646012000F0F4FDCB
:103150000028ECD01AF026FC1AF025FC324605496E
:10316000034B18681EF00DF9E1E700BF80740208F8
:1031700014280020B074020870B582B08368C26859
:1031800053F822301B78134A137013F0020F0ED03D
:10319000114C13F0010F0CD00F4D13F0040F0AD097
:1031A0000D4E032000F0C8FD38B902B070BD0B4CC5
:1031B000EFE70A4DF1E7094EF3E71AF0F3FB1AF0D7
:1031C000F2FB00962B4622460549064800681EF091
:1031D000D8F8EAE7505800205072020858720208E6
:1031E000647202081428002030B58FB004460D46E2
:1031F00068461AF0EFFA0DF1200EEC46BCE80F001D
:10320000AEE80F009CE803008EE8030008A9464BD7
:10321000186820F078F810F1880F46D168461AF047
:10322000D9FA0DF1200EEC46BCE80F00AEE80F0015
:103230009CE803008EE803004FF41053ADF82030F3
:103240008023ADF822304FF44073079307A81AF09B
:10325000D1FA079B0A93354B0B93334B1A68099BA2
:103260000D9213F0FF0F04D123F0FF0343F001038D
:103270000993012309932C4B2A46214608A820F0E4
:103280005FF8044610BB032000F056FD90B9264BB2
:1032900018681FF0CFF90546002831D1032000F04F
:1032A0004BFD044610BB01242FE01F4B186820F093
:1032B00001F8B3E71AF076FB1AF075FB1A4B1A689F
:1032C0001B491C4B18681EF05CF8E0E7032000F077
:1032D00033FD0028DBD01AF065FB1AF064FB2246B0
:1032E0001549144B18681EF04CF8D0E71AF05AFB39
:1032F0001AF059FB11490F4B18681EF042F804E010
:10330000032000F019FD044610B920460FB030BD6F
:103310001AF048FB1AF047FB2A460949054B186882
:103320001EF02FF80024F0E7802300200001440560
:10333000E074020814280020107502083475020891
:103340005475020800B583B00021019101AA1DF057
:10335000E8FA019910290ED0032000F0EDFC60B1CD
:103360001AF020FB1AF01FFB10220549054B1868C4
:103370001EF007F801E0FFF737FF03B05DF804FB2C
:10338000747502081428002010B588B020F0D7F812
:10339000032000F0D1FCF8B901244A4B1C6002A8BC
:1033A0001AF03FFA02A920461FF0ADFF10F1880F76
:1033B0001CD0032000F0C0FC00286ED1414B1868DF
:1033C0001FF038F91FF089F90446032000F0B4FC1F
:1033D00000286CD108B010BD1AF0E4FA1AF0E3FA34
:1033E00039493A4B18681DF0CCFFD5E7032000F0AF
:1033F000A3FC002837D1334B1A68039B079213F0C4
:10340000FF0F04D123F0FF0343F001030393304B7C
:1034100005934FF44073019301A81AF012FA019B2F
:1034200004934FF41053ADF808308023ADF80A3000
:1034300001230393234B1022264902A81FF080FF8B
:103440000446D0B9032000F077FC0028B6D01AF06B
:10345000A9FA1AF0A8FA1B4B1A681F491B4B1868E7
:103460001DF08FFFAAE71AF09DFA1AF09CFA1B498B
:10347000164B18681DF085FFBDE7032000F05CFCCB
:1034800000289BD01AF08EFA1AF08DFA22461449C1
:103490000E4B18681DF075FF90E71AF083FA1AF0CA
:1034A00082FA1049094B18681DF06BFF86E71AF085
:1034B00079FA1AF078FA22460B49044B18681DF085
:1034C00060FF87E7802300209C75020814280020F5
:1034D000004440048C540020E0740208A8750208DF
:1034E00010750208D0750208FC75020810B501209D
:1034F00009F028FA0D4C21460420FFF741F9611E1E
:103500000320FFF73DF9611D0820FFF739F94FF45B
:10351000FA61074B18680EF000F8064B01221A708A
:10352000054B1B6800221A7010BD00BF79230020D4
:103530008C230020255200208823002010B584B061
:10354000244B1B7B3BB1022B23D0234B1B68002257
:103550001A7004B010BD9DF80030032262F304031A
:103560008DF800309DF800306FF346138DF8003071
:103570001C238DF8043002228DF80D209DF80020C8
:103580008DF80520134A9372002101A8FFF7A0F9D6
:10359000DBE7104B9B7A2B2BD7D1104C2046FEF744
:1035A00005FF2B238DF8043005238DF80D302046C0
:1035B00010F810398DF80530FF238DF806308DF89E
:1035C0000730C37A8DF80830002101A8FFF780F991
:1035D000BBE700BF6C230020942300207C23002045
:1035E00010B50E490E4809F0B3F80E490E4809F01F
:1035F000AFF80E490E4809F0ABF80E4C0E492046C4
:1036000009F0A6F801210D481AF0BCF9FEF7A6FE54
:103610004FF47A7120680DF080FF10BDCD290008AD
:1036200090230020352900088C2300203D35000818
:103630009423002088230020ED340008D88202085B
:1036400010B50320FFF7D2F80820FFF7CFF8084C99
:1036500000236382214601F80C3F01220320FFF77B
:103660007DF8022204F112010820FFF777F810BD5F
:103670006C23002010B504461AF05CFA10B92F4BE9
:103680009C4205D020461AF055FA012808D010BDFA
:1036900023F0F0FB2A4B18602A4B01221A70F1E745
:1036A00023F0E8FB274B00221A70254B1B68C01A39
:1036B000A0F5C333A13B244A934210D9234B98422F
:1036C0001FD9234B5B7B7BB1012BE0D12049002329
:1036D00001F80D3F01220420FFF740F8D7E71FF063
:1036E00018F8FFF7ADFFD2E70122194901F80D2FB5
:1036F0000420FFF733F8642205210020FFF7C4F906
:10370000C5E7144B9842C2D8114B1B7B002BBED18E
:103710000F4B5B7B6BB1012BB9D10F4B01221A70A0
:10372000FFF700F84FF47A7205210020FFF7ACF99B
:10373000ADE70020FEF7D8FFA9E700BFA882020886
:1037400084230020265200209E860100400D0300A5
:103750006C230020A08601002452002070B506468C
:103760000D468B681B781C2B01D000241EE0244BD7
:103770001B7B002BF9D10028F7D12149022301F846
:103780000C3F01220320FEF7E9FFEEE704EB4402C1
:103790001C4B03EB82035B780A2B1DD11949900067
:1037A00001EB820300220A545A700134022C21DCFE
:1037B000AB68197804EB4402124B03EB82039B784D
:1037C0009942F2D1002EE1D10E49900001EB820323
:1037D00000220A545A70E8E70A4A04EB440C02EB50
:1037E0008C00012102F82C100B4443700230FFF7CB
:1037F0006FF8DAE72B7B5B42014AD37270BD00BFE2
:103800006C2300203C23002008B5012101481AF058
:10381000B9F808BDD882020810B5A0F19003062BB4
:103820004ED8DFE803F00411204D4D2F3E002D4B04
:103830001B7B6BB92C4B1B7853B12C4B19882C4B31
:1038400018680DF06AFE03E0032000F075FA00B975
:1038500010BD1AF0A7F81AF0A6F82649264B1868EA
:103860001DF08FFDF4E7012000F066FA0028EFD08C
:103870001AF098F81AF097F820491F4B18681DF0B5
:1038800080FDE5E7012000F057FA0028E0D01AF0AB
:1038900089F81AF088F81A49174B18681DF071FD5D
:1038A000D6E7032000F048FA0028D1D01AF07AF8C1
:1038B0001AF079F81349104B18681DF062FDC7E73C
:1038C0000446032000F038FA0028C1D01AF06AF844
:1038D0001AF069F822460C49074B18681DF051FD93
:1038E000B6E700BF6C23002025520020DA570020E5
:1038F000942300201476020814280020247602085D
:1039000044760208687602088476020810B523F02F
:10391000B1FA0446214B1B68C31A214A934205D9C8
:10392000204A127812B1204A93420ED91D4A1278C9
:1039300012B11D4A93420CD81C4B1B7823B11C4B6F
:103940005B7B53B1012B1CD010BD1A481AF0F6F95D
:10395000FAE718481AF0EDF9F6E71EF067FE60B9CD
:10396000154B1B68E31A41F678629342ECD9124B6F
:103970001C6010481AF0E7F9E6E70E481AF0D9F98A
:10398000E2E71EF053FE0028DED00C4B1B78002B24
:10399000DAD108481AF0CDF9D6E700BF8423002019
:1039A000A086010026520020400D03002552002071
:1039B0006C230020D88202089C540020245200204E
:1039C00008B5024B1B6803B1984708BDC823002007
:1039D00008B5024B5B6803B1984708BDC8230020B7
:1039E00008B5024B9B6803B1984708BDC823002067
:1039F00008B5024BDB6803B1984708BDC823002017
:103A000008B5024B1B6903B1984708BDC8230020C5
:103A100008B5024B5B6903B1984708BDC823002075
:103A200000B585B0094B1868094B1860094B0A4A64
:103A300013600A4A01920A4A12680292039301A98A
:103A40001CF091FF05B05DF804FB00BFBC540020E2
:103A500070320020B05400206C32002068820208CE
:103A60009C26002008B5024B18681CF090FF08BD8A
:103A7000BC54002038B507F01BFB0446064D2B68EC
:103A8000D3F8B00207F008FB28681CF09AFF204624
:103A900007F002FB38BD00BFBC54002008B5034846
:103AA00023F068F8024800F09FFE08BDB0850208C8
:103AB000C05400200023062073B1704754B224B9CB
:103AC000013353B15DF8044B70470228F8D0086801
:103AD0000A4908601046F3E710B4094A52F8231067
:103AE0000A7A022AEAD9032AEAD1441EE4B2012C56
:103AF000E6D90868014908601046E1E79C260020E5
:103B0000D454002010B5A2B00DF1680C294C0FCC94
:103B1000ACE80F0094E80F008CE80F00002115912D
:103B200016911791189119914FF480131593224B08
:103B30001993109111911291139114911F4B10939D
:103B40001F4B14933C2201A821F00FFD01AC0DF195
:103B5000540CBCE80F000FC4DCF80030236006AC46
:103B60000DF1400CBCE80F000FC4DCF800302360FE
:103B7000144B0B9320230C9301238DF834308DF8D4
:103B800035308DF83630104B0F93104B1AAA01A91F
:103B90000F4807F039FB04469DF837303BB1002150
:103BA0004FF4E13019F03BFF204622B010BD032155
:103BB000F6E700BF888202083C00015B01001000AC
:103BC0004400015BA0260020E8540020C02600200D
:103BD0007C27002008B531B9084B1868036823B169
:103BE00007F028FF01E0012900D908BD034B186840
:103BF0000368002BF9D01DF0A6FEF6E7FC54002068
:103C000008B50349034808F089F8FFF77BFF08BDB2
:103C100000550020A427002008B502481DF0F7FB3E
:103C200008BD00BF7C27002008B502481DF0EFFB4F
:103C300008BD00BF7C27002008B5024B5A6A1868EF
:103C4000904708BD7C27002008B5024819F06BFF9B
:103C500008BD00BFA882020808B503481AF064F83E
:103C600002481AF061F808BDD8820208C082020832
:103C700018B1034A1060002070472520704700BF2C
:103C8000AC27002010B5044C0449206802F032FC37
:103C90002068FFF7EDFF10BD3C56002018550020AE
:103CA000014B1868704700BFAC27002000B583B0F7
:103CB0000B460549097801910092002201211EF06E
:103CC000FDFC03B05DF804FB5058002010B504461D
:103CD000184B1B7B23B1013BDBB2012B09D910BD73
:103CE0008179806819F05AFE63795B42114AD37278
:103CF000F5E78068E188431813F8012C13F8023CBB
:103D000043EA02230B4A528A52B19A42E7D102395E
:103D1000C9B219F043FE63795B42064AD372DEE70B
:103D20000239C9B219F03AFE63795B42014AD37293
:103D3000D5E700BF6C23002003460B4A107828B15A
:103D40000A4A12789A4202D2002000E00120084A72
:103D500012783AB1074A127842FA03F313F0010FCE
:103D600000D10020704700BF535800205258002057
:103D7000285200205158002008B5084B01221A7023
:103D8000074B00221A70074B04221A70064B1F22A1
:103D90001A7007F08DF9054B186008BD53580020C4
:103DA000285200205258002051580020142800208A
:103DB00008B5054822F0DEFE19F07BFD012019F060
:103DC000FBFD00F0B1F808BDB085020808B5024857
:103DD00022F0D0FE08BD00BFB08502082DE9F041F9
:103DE00080460F4601F109050026344604E05B21B8
:103DF000082000F0C1FA0134AC4233D2052C1BD8A4
:103E000001A353F824F000BFEF3D0008213E000855
:103E1000553E0008293E00082D3E0008313E0008AE
:103E2000FBB20433D9B2E3E78021E1E70021DFE709
:103E3000731C3146DEB2DBE7BB1DA3420CD0FB1D79
:103E4000A3420BD007F10803A34209D0A31F18F81F
:103E50000310CDE7D121CBE75A21C9E75A21C7E7A3
:103E60005D21C5E70020BDE8F08100BF00B583B04B
:103E7000002300930193FFF713FF114B18600123F8
:103E80008DF8003090F8363093B100200C4B1B6851
:103E900093F8351002290FD003290FD119F0A2FD94
:103EA000019008216846FFF799FF03B05DF804FB15
:103EB00000681CF0DEF8E9E70321EFE70021EDE7F9
:103EC0001828002000B583B0002200920192022140
:103ED0008DF80010054819F08AFD01900821684608
:103EE000FFF77CFF03B05DF804FB00BF006A180019
:103EF00000B583B0044B1B88ADF8043001A800F076
:103F000017FB03B05DF804FBF082020800B583B034
:103F1000044B1B88ADF8043001A800F0D9FA03B0B7
:103F20005DF804FBF08202082DE9F04F97B04D4D8B
:103F300009AC2E1D0FCE0FC43368236001AC05F110
:103F400018060FCE0FC496E80F0084E80F0046480D
:103F500022F010FE454822F00DFE01268DF8096082
:103F600000248DF80840424B0B9301AB0D93414F59
:103F700009A938461BF08DFFB5F838B0ADF838B058
:103F8000324604210EA800F067FAB5F83CA0ADF85F
:103F90003CA0224631460FA800F05EFAB5F84090EA
:103FA000ADF840903246042110A800F055FAB5F85B
:103FB0000080ADF844803246042111A800F04CFA8C
:103FC0002D4D2E4BC5F8F8344FF00213C5F8F434DC
:103FD000A3F58033C5F8FC341C23C5F8E4344FF452
:103FE000487008F053FBFFF783FF142008F04EFBE6
:103FF000FFF78CFF232008F049FBFFF779FFB92179
:1040000038461BF02EFFFFF781FFADF848B022467F
:10401000214612A800F020FAADF84CA02246214615
:1040200013A800F019FAADF850903246214614A8B2
:1040300000F012FAADF854803246214615A800F07F
:104040000BFA384603F0A6FDC5F8E444C5F8F84479
:10405000C5F8F444C5F8FC44044822F090FD17B0BC
:10406000BDE8F08FF0820208B0850208B48502082E
:10407000E070720000000A5000C00350020003000C
:1040800008B50448044A121A9210044919F0DAFCDF
:1040900008BD00BF80010008800300088052002096
:1040A00008B5154B83F30A8800F030F8FFF7E8FFF6
:1040B000124A0AE01068516850F8230041F82300C2
:1040C000013391688B42F5D30C320D4B9A4201D2E9
:1040D0000023F6E70B4A08E01168002041F82300AE
:1040E000013351688B42F7D30832074B9A4201D211
:1040F0000023F6E7FEF7E2F80000002008CA0208F5
:1041000014CA020814CA020814CA020870B5134B74
:10411000134A9A60D3F8882042F47002C3F88820CA
:10412000104A4FF4804191660F4D05F500544FF051
:10413000FF3222660D4A62660222C3F8D020BFF326
:104140004F8FBFF36F8F002006F07CFF4FF4403697
:10415000E66000201DF0C0F82E6170BD00ED00E0AB
:104160000000000800900050008000447FFF7F01A5
:10417000014B1860704700BF4456002008B5064B3D
:104180001860064B1B6F03F00703032B00D008BD1C
:1041900021F072FCFBE700BF4C560020008000506D
:1041A000BFF34F8F0549CA6802F4E062044B134322
:1041B000CB60BFF34F8F00BFFDE700BF00ED00E015
:1041C0000400FA05F0B18446F1B110B409E004F13D
:1041D00020000FE02033C01A18D1BCB10CF1010C43
:1041E00001319CF800400B4B1B5D03F00303012BD6
:1041F000EDD020460B78074AD25C02F00302012A78
:10420000E9D1E7E701207047012070475DF8044BD2
:10421000704700BFCDC8020830B587B005460468B6
:1042200023798DF80C3063798DF80D301B4822F01E
:10423000A1FC0022012103A800F00EF90DF10B01F1
:1042400003A819F03AFD9DF80B3083F001032370A9
:10425000A379022B02D0002007B030BD4FF0FF330E
:104260000593049300950E4B002205A903A800F0C6
:104270002FFA059BB3F1FF3F07D00095084B0122B1
:1042800004A903A800F084F9E5E70095044B042293
:1042900004A903A800F07CF9DDE700BFB08502089F
:1042A00043DB010810B582B0002401942A4822F0B3
:1042B00061FC8DF8004003238DF8013001220421B8
:1042C000684600F0C9F8254B0122C3F8442401A92F
:1042D000052022F048FC00283BD1214BD3F8F020E8
:1042E00042F00102C3F8F020D3F8FC2042F08072C3
:1042F000C3F8FC20A3F55D431A4A1A60019B03F53D
:10430000D52303F2FC43DB08174AA2FB03239B0AD5
:10431000013B164A13610223C2F8F0304FF4807358
:10432000C2F804334FF06043114AC3F8B02F114A6A
:10433000C3F8802ED3F8002E42F48072C3F8002E0A
:10434000FF2283F82020D3F8002E22F48072C3F8D5
:10435000002E02B010BD00BFB085020800D003508F
:1043600000ED00E0FF03004017916502000004E04B
:1043700055CEACC5090001004FF06043D3F8803E34
:1043800013F0010F01D1112070470E4AD2F8FC3012
:1043900043F08073C2F8FC304FF06043D3F8002E36
:1043A0004FF0010C0CFA00FC42EA0C02C3F8002E9C
:1043B00053F82030002BE8D04FF0604303F8201072
:1043C0000020704700ED00E010B504460FE0012327
:1043D000834024EA03040F2814D800EB40020E4B5C
:1043E00003EB82035A6812B19968C0B2904794B146
:1043F000234600201F28EAD813F0010FE7D101302F
:104400005B08F7E7103800EB40039B00B033024A2B
:1044100013440433E6E710BD1C28002008B50D48FE
:1044200022F0A8FB1A2006F0D3FD28B91B2006F0C5
:10443000CFFD40B9002008BD1A2006F003FE1A2067
:104440001CF04AFFF2E71B2006F0FCFD1B201CF0CD
:1044500043FFEFE7B08502082DE9F04170B30C4649
:10446000174605460F292BD803784BB1022B20D0D5
:10447000032B21D0012B01D0002303E07F2301E097
:1044800040F2FF736A78D34013F0010F1AD00F4B3C
:10449000D3F81063C6B922F068FA80463A4621463E
:1044A000284604F015F9404622F05AFA3046BDE895
:1044B000F08140F2FF33E5E73F23E3E72226F5E70B
:1044C0002126F3E72126F1E70226EFE700C003509B
:1044D00040B310B5044603784BB1022B1DD0032B1B
:1044E0001ED0012B01D0002303E07F2301E040F226
:1044F000FF736278D34013F0010F15D022F035FA24
:10450000237862780121914003EB43031B01074AA2
:10451000D15022F025FA002010BD40F2FF33E8E729
:104520003F23E6E7222070472120F5E740D00350E3
:1045300040B310B5044603784BB1022B1DD0032BBA
:104540001ED0012B01D0002303E07F2301E040F2C5
:10455000FF736278D34013F0010F15D022F005FAF3
:10456000237862780121914003EB43031B01074A42
:10457000D15022F0F5F9002010BD40F2FF33E8E7FA
:104580003F23E6E7222070472120F5E740E0035073
:10459000002866D02DE9F0410C4615461F46064618
:1045A000002960D002784AB1022A3ED0032A3FD0C7
:1045B000012A01D0002303E07F2301E040F2FF73D2
:1045C0007178CB4013F0010F01D1FF2A4DD1022D9C
:1045D00001D9042D4BD122F0C8F980463378FF2B46
:1045E00028D12368B3F1FF3F2BD02268B2F1FF3FFF
:1045F00032D0204B02EB420203EB8202576022686A
:1046000002EB420203EB8203069A9A603378FF2B97
:1046100005D0226801239340174AC2F8243440464B
:1046200022F09EF90020BDE8F08140F2FF33C7E799
:104630003F23C5E72A462168304604F0B3F82060DE
:10464000CFE73378FF2BD0D10C4BD3F824147078FC
:104650001BF047FD2060C8E7404622F081F92D207D
:10466000E1E7222070472220DDE72120DBE721203F
:10467000D9E700BF1C28002000D0035000C0035021
:10468000B0F1FF3F1AD038B504460F2818DC0028D7
:1046900018DB22F06AF90123A3400B4AC2F8203448
:1046A000C2F82434094B04EB440203EB82020025D8
:1046B0005560956022F054F9284638BD2120704796
:1046C0002120FAE72120F8E700E003501C28002011
:1046D000002856D02DE9F0410C4617461E460546E7
:1046E000002950D0017849B1022939D003293AD0A4
:1046F000012901D0002303E07F2301E040F2FF7392
:104700006A78D34013F0010F01D1FF293DD122F087
:104710002CF980462B78FF2B27D12268B2F1FF3F7E
:104720002AD01B4B02EB420203EB8202C2F8B860B4
:10473000226802EB420203EB8203069AC3F8BC2014
:104740002B78FF2B06D02268103201239340114AA8
:10475000C2F82434404622F003F90020BDE8F0817D
:1047600040F2FF33CCE73F23CAE73A4621682846A8
:1047700004F0B8F82060D0E7404622F0F1F82D2090
:10478000ECE7222070472220E8E72120E6E700BF7F
:104790001C28002000D0035008B5084BD3F824048F
:1047A000D3F82024104000F0553020F0502003F5BD
:1047B0000053C3F82004FFF707FE08BD00C00350F4
:1047C00008B5084BD3F82404D3F82024104000F097
:1047D000AA3020F0A02003F50053C3F82004FFF70F
:1047E000F3FD08BD00C0035070B586B005460368F0
:1047F000B3F1B64F27D0304A934222D04FF0FF3664
:10480000B3F1B64F21D02C4A934252D12B4822F01B
:10481000B1F92B798DF804306B798DF80530AB79CF
:104820008DF80030EB798DF8013001220A2101A8C2
:10483000FFF712FE01220A216846FFF70DFE002451
:1048400012E00126DCE70026DAE71D48DFE701A8D1
:10485000FFF76EFE642007F019FF01A8FFF738FE8E
:10486000642007F013FF0134092CF0DD154A02EB38
:1048700006110323C1F8383568792B7943EA0043E0
:10488000C1F83C35E979AB7943EA01435436360146
:10489000935101238DF808308DF80930EB680493AB
:1048A000AB6803932B7C8DF8143002A9286803F0C1
:1048B00073FC06B070BD00BF00800650A8850208DA
:1048C000AC85020800C0035010B582B004460A4807
:1048D00022F050F923788DF8043063788DF8053094
:1048E000A278B2FA82F2520904210DEB0100FFF71F
:1048F000B3FD002002B010BDB0850208F0B585B050
:104900000C4694469DF83410664A1278002A00F04E
:10491000BD800546BCF1070F00F2BA800A9A002A52
:1049200000F0B8800B9A002A00F0B6800E9AB2F51B
:10493000006F00F3B38001285BD05B4A02EB0C12DE
:10494000127B002A00F0AC800022009201920292B9
:104950000392564A02EB4C1E002C4FD14FEA4C16E4
:1049600000209051CEF80400CEF80800CEF80C00DC
:104970009EF8020040F010008EF802009EF803003E
:1049800040F030008EF8030021B9C1B241F00301BC
:104990008EF8031000930E9B013B444A4FEA4C10E3
:1049A00002EB4C11165A63F30E1616520A9B8B60DB
:1049B0000B9B4B60CB789DF83C2062F38303CB705C
:1049C000012D36D0109B002B56D0374A4FEA0C11E0
:1049D00002EB0C1310985050119A5A6000249C60FE
:1049E0005D7372466946604603F04CFC204605B094
:1049F000F0BD0C9A002AA0D12D48F8E72B4F4FEAC2
:104A00004C1607EB4C120020B85150609060D060FB
:104A1000907840F010009070D07840F00300D07093
:104A20000029B7D107EB4C12C1B241F03001D1706F
:104A3000B0E70E460A7B42F001020A73D2B242F09E
:104A400002020A73CA68042161F39F02F26006F150
:104A5000100796E80F0087E80F00F2696FF0030176
:104A600061F39F02F2610C9B7361012CAAD10B9A36
:104A7000B2610C9A7260A5E7002DA6D10B4B03EB37
:104A80004C139A786FF304129A709EE70948AEE7C8
:104A90000748ACE70648AAE70548A8E70448A6E7A0
:104AA0000548A4E729520020842A002084290020F8
:104AB000018000F0028000F0078000F0134B1B78AB
:104AC000FBB110B50446F0B121F04FFF0023072BD6
:104AD00013D80F4A02EB0312127B0AB10133F6E737
:104AE00023600B4A190102EB031301241C730024F9
:104AF000545021F035FF204602E021F031FF0548F7
:104B000010BD054870470548FAE700BF295200204C
:104B1000842A0020048000F0028000F0018000F070
:104B200038B521F022FF04460023072B06DC0C4A8F
:104B300002EB0312127B12B90133F6E7002222B115
:104B4000204621F00DFF074838BD03F047FB002544
:104B5000054B1D70204621F003FF2846F4E700BFF7
:104B6000842A0020058000F0295200200F4B1B787A
:104B7000BBB110B50446072815D821F0F6FE0C4B42
:104B800003EB04131B7B1BB921F0EAFE09480BE081
:104B9000074B03EB041300241C7321F0E1FE2046B5
:104BA00002E005487047054810BD00BF29520020AB
:104BB000842A0020068000F0028000F0018000F0CE
:104BC00000B583B0134B1B68019300238DF80430AC
:104BD00021F0CBFE104B1B7833B90F4B01221A701A
:104BE00021F0BEFE002309E021F0BAFE0B480EE0E2
:104BF0000B4A02EB0312002111730133072BF7DD7F
:104C000008238DF8073001A803F00CFB002003B047
:104C10005DF804FB3483020829520020038000F071
:104C2000842A002010B5104C2478BCB1072817DC6A
:104C30000E4C04EB0014247BA4B10C4C4FEA001E74
:104C400004EB001C44F80E30029BCCF80430002426
:104C5000CCF8084003F016FB204610BD0448FCE7E2
:104C60000448FAE70448F8E729520020842A002083
:104C7000028000F0018000F0078000F008B50A4BC8
:104C80001B785BB107280BD8084B03EB00131B7B89
:104C900043B1002103F0B8FA002008BD0448FCE746
:104CA0000448FAE70448F8E729520020842A002043
:104CB000028000F0018000F0078000F008B50A4B88
:104CC0001B785BB107280BD8084B03EB00131B7B49
:104CD00043B1012103F098FA002008BD0448FCE725
:104CE0000448FAE70448F8E729520020842A002003
:104CF000028000F0018000F0078000F0F8B5194B49
:104D00001F6D5B6D1F4002D40125002402E0FEE709
:104D100001346D00072C24D83D42F9D0124B1D659B
:104D20002301124AD358002BF2D002EB0416B168CB
:104D30000131B16072682046984780F00100C0B22E
:104D4000737B012BE4D10028E2D0094B03EB441321
:104D50001A7B6FF341021A731A7F6FF341021A77BD
:104D6000D6E7F8BD0000045000200450842A00203B
:104D7000842900202DE9F04F89B005460E461446DF
:104D80009846C36B5B69012207A960689847EB6B83
:104D90005B69012206A93046984707A81AF039FA3C
:104DA00048B10027A77567754FF0FF33A3603846F9
:104DB00009B0BDE8F08F074606A81AF03AFA0123B9
:104DC000A375237E033304EBC3035E6000221A81C4
:104DD0006368B3422AD02368834201D00023A375BD
:104DE00006A81AF04BFA237D984201D00023A37540
:104DF00006A81AF022FA814607A81AF01EFA814581
:104E000001D00023A37506A81AF01FFA814607A84F
:104E10001AF01BFA814501D00023A375237D043BC2
:104E2000DBB2022B0BD80023A375C0E7206006A8D5
:104E30001AF024FA20754FF0FF33A360EEE706A8BE
:104E40001AF0FBF980B1EB6B5B69022204A93046D2
:104E5000984704A81AF004FA0346207D032868D86E
:104E6000DFE800F0615B070D06A81AF0F9F90346C8
:104E7000F3E7237E033304EBC303CC221A811AF039
:104E80000DFA129B187094F8189006A81AF0C8F939
:104E900009F1030904EBC90989F80A00237E0333E9
:104EA00004EBC303B3F808A093F80AB006A81AF0FD
:104EB000C4F9814606A81AF0C8F90390B9F1000FA9
:104EC0003DD0EB6B5B69022204A93046984704A8E9
:104ED0001AF082F96075637D03B9A375A37DA3B150
:104EE000BAF1000F11D0039BF1186B6C5B4286EA9C
:104EF00001021A4201D00023A3756B6C5A1E0A40AE
:104F00009B1A9A4501D90023A375A37D002B40D09D
:104F1000BBF1000F18D1E77D3CE0227E033204EBA9
:104F2000C2021381ABE7227E033204EBC20213817B
:104F3000A5E7227E033204EBC20213819FE706A895
:104F40001AF033F96075C6E70122E275627EBAB9DC
:104F5000BBF1010F08D095F83470DFB9EA6AB2F1FD
:104F6000FF3F05D01F4615E001216176174611E08D
:104F7000BBF1030F01D01F460CE00122A27609E02D
:104F8000BBF1010F37D0BBF1030F03D10122A27691
:104F900000E01F4653B117B1BBF1010F06D95346CC
:104FA000039A3146284619F077FAA060A37D13B121
:104FB000236953442361237E114A127893421CD201
:104FC00001332376B8F1000F13D0A37D8BB1E37DBD
:104FD0007BB177B9BBF1030F0BD0A168B1F1FF3FF3
:104FE00007D0129B0093012322462846FFF7C2FEFA
:104FF000A075A77DDBE61746CCE70023A375E1E7A4
:10500000588302082DE9F04F89B005460F469246B5
:105010009B4600238DF80B304FF0FF31104600F017
:10502000EFFFB7F5801F1DD30023009317F1020F88
:1050300007D0009B002B40F09E802B7C002B00F0C3
:105040008C80EB6AB3F1FF3F2CD02A689B1A6A6C04
:10505000B3FBF2F917F1020818BF4FF00108002363
:1050600001935DE00DF10A02394605F1080000F0F8
:1050700017FF0146B0F1FF3F11D0504600F0C0FFCE
:105080000DF10B0301225146284619F084FA0090D5
:105090000028CBD09DF80B308BF80030C6E70023FA
:1050A0000093C3E7696A284619F017F98146D1E7EA
:1050B0000123019337E09DF80B308BF80030324B21
:1050C0001A683249504620F077FA00942F4B9968BD
:1050D000B1F1FF3F1BD06B6C5B4281EA06021A42C2
:1050E00015D12A4C204600F08BFF0DF10B034246F0
:1050F0002146284619F04FFA04460028E6D017F159
:10510000020FD8D0214B1B68BB42DFD1D3E7494601
:10511000284619F0E2F88146019BCBB9009BBBB948
:105120006B6A4B45C4D02C686B6C03FB0944EB6B7A
:105130005B69052203A92046984703A81AF045F9A0
:105140001AF06AF920461AF073F906460146BFE7DD
:10515000009BA3B1B7F5801F03D3009B8BB1002048
:105160000AE09BF80030DAF80420394605F108001F
:1051700000F0B4FEF1E7002009B0BDE8F08F2D206B
:10518000FAE72D20F8E700BF5483020878310020A9
:1051900070B582B004464FF0FF33C3620DF10703D0
:1051A0001A4A6FF00101FFF72DFF20BB174B9B68D8
:1051B000E362E56A2946204618F080FE2063E8B1E4
:1051C0002946204619F058F90546A36AAB421BD080
:1051D0002946204618F072FE0646236B03442363DB
:1051E0002946204619F048F90546002EEDD1002346
:1051F0002363E062E9E7A36AE362DAE7E16A204653
:1052000019F03AF9E062DBE702B070BDA43100208A
:1052100030B583B01C46032A14BF002201221B7E36
:105220009A4202D0012003B030BD0D4609682368C0
:105230009942F7D363689942F4D80DF10703114AF4
:10524000FFF7E0FE0028EDD10E4B5A686B689A42DA
:10525000E8D19DF80730032B14BF00230123227EE1
:105260009342DFD16369013363612369E26893424A
:10527000D8D2A268296842F8231023690133236138
:10528000D0E700BFA43100202DE9F04182B00446F0
:105290000E4690461F46816A06E01A4B9968B1F1A6
:1052A000FF3F1FD0012E23D0E06A884217D0B1F112
:1052B000FF3F14D0134D284600F0A2FE0DF1070366
:1052C00001222946204619F066F90028E5D03B4620
:1052D0009DF8072029462046C0470028DDD102B0AE
:1052E000BDE8F0815968204619F0C6F80146D9E7B3
:1052F000044B5A68636C5B424A401A42D4D04FF068
:10530000FF31D1E74C31002010B50446083000F0E1
:105310008DFD0023024A19462046FFF7B5FF10BD58
:1053200085E5010838B50446037C0BBB02461349EA
:10533000083000F01DFE616A204618F0F0FF421CA4
:10534000616A204618F041FF054620B9236B626C64
:105350001344143B2363A16A204619F08DF8A06220
:105360002368C01A636CB0FBF3F06062284638BD56
:105370000023034A0121FFF787FFDCE71DE901084D
:10538000EBE80108F0B589B080B30F4616461D461C
:10539000044690F834301BB90025284609B0F0BD0A
:1053A000012118F0E7FE01950E9B029303970496E6
:1053B0000023059306939DF83C308DF81C30237C28
:1053C0005BB901AA0A4904F1080000F0D1FD5EB9F9
:1053D000069D204619F070F9DFE701AB054A002170
:1053E0002046FFF751FFF2E7059DF2E70025D4E7DD
:1053F00039E1010811520008F0B58BB004460D46A2
:10540000406AE36B5B69052205A92668676C07FBA8
:105410000060984705A819F0D8FF012836D00094FD
:10542000002301938DF80850039301238DF8103069
:10543000A16AE36A99420FD0237CBBB96A4614493A
:1054400004F1080000F094FD019B13B99DF81030A1
:105450009BB901980BB0F0BD204619F00DF8E06241
:10546000236B626C9B1A14332363EDE76B46094A86
:1054700001212046FFF708FFE6E7626A2368616CB6
:1054800001FB0231E06B19F052FFE2E70020E1E797
:105490009D5600081D5600082DE9F04F89B00446BE
:1054A0008A4691461D46002307930969026BCB1D6E
:1054B000406C1438B3FBF0F3013301EBC3019142AC
:1054C00000F2A7804E4677E03D2840F0928004909D
:1054D000BB4605961EE04FF000092368616C01FB96
:1054E0000631E06B19F00FFF204618F04DFE204604
:1054F00018F0E9FF2063B9F1000F76D0DAF8102038
:10550000D31D616C1439B3FBF1F3013302EBC30219
:1055100090423AD32368ABEB0309606CB9FBF0F916
:1055200009FB003019F084FF8046E16A204618F03C
:10553000A3FFA36A83422CD0E062374B9A68616C68
:105540004B1E1340226B5B1A13442363ABEB08071B
:105550002368079EF61AB6FBF1F6B145BBD197B1A9
:10556000E36B9B69BA08414698478146E36A3B442E
:10557000E362236BA8EB0B084344236304F10800A8
:1055800000F054FCA9E7B946A7E7DDF810B0059E86
:1055900002E0DDF810B0059EBBF1000F29D0DAF86B
:1055A0001000226BC31D616C1439B3FBF1F301339E
:1055B00000EBC30082421CD3E76ADFF85C80394607
:1055C000404600F01DFD07AB0293019500963B4657
:1055D00042465146204619F09AFA834600287FF445
:1055E00073AFD8F80830E362D6E7DDF810B0059E57
:1055F000D2E75F461FB1384609B0BDE8F08F2B46B1
:10560000054A5268DAF8001004F1080000F066FC60
:10561000F1E71C27EFE700BF78310020F0B583B039
:105620001C46032A05D1237A012B33D0012003B075
:10563000F0BD06460F4615460DF10703164A0968E8
:10564000FFF7E0FC60600028EDD19DF80730032BE8
:10565000E9D0114B5A687B689A42E4D1237A012B36
:1056600008D13B69E26813447269934202D900236E
:105670002374D8E7E3683A6913440833E3602B46A0
:10568000012239463046FFF707FF60600028CAD084
:105690000020CCE7207CCAE7A4310020F0B583B01D
:1056A000089C2668032A05D1237A012B4DD00120BE
:1056B00003B0F0BD15460DF10703254A3046FFF74C
:1056C000A1FC60600028EFD12168214B5A688B6AE9
:1056D000486CC0F1000C5A4012EA0C0FE4D1227A57
:1056E000012A19D00F68DB1BB3FBF0F3CA6AD21B87
:1056F000B2FBF0F29A4219D0E36815490A691344E3
:105700000833E3602B4601222068FFF7C5FE606086
:105710000028C9D00020CBE70D4A1269E7683A4457
:105720007769BA42DED900232374BDE7726CF16A4F
:10573000531E0B40316B9B1A0B4433632668B16ACE
:10574000304618F099FEF062D6E7207CB0E700BF43
:10575000A4310020F8B56E4B1E6800221A600028A4
:1057600000F0B6800D46044690F8343013B30A6852
:1057700003689A4240F0AE804A6843689A4240F01B
:10578000AC808A6883689A4240F0A980CA68C3687E
:105790009A4240F0A6800A6943699A4240F0A38089
:1057A0008A69C36B9A4201D05D2594E04B6983619D
:1057B000002590E0876B682200211FF0D6FEA763CA
:1057C0002B6823606B6863602B6963616B69A361FD
:1057D000EA68A96804F1080000F03AFBAB69E363EA
:1057E0009B6804F14000984730B9636C23B162684C
:1057F000B2FBF3F2E26101E00023E36194F843308D
:10580000002B72D000232366656C002D6FD0E369F6
:10581000002B6ED02368B3FBF5F205FB1233002B8F
:1058200069D16768B7FBF5F305FB1373002B64D1EF
:10583000204618F033FBA369034404339F425ED330
:105840006369B3F5805F5CD8CB2B5CD9B5F5805F1D
:105850005BD30321204618F08DFCE36B1B68616865
:10586000206898470546E36BDB6802209847EDB156
:10587000636C143B5DB9266A03FB06F6204618F0FC
:105880000DFBA369034404339E4200D25A25B5FAA6
:1058900085F35B0984F834301BB11E4A1368013369
:1058A000136085B1204618F007FF14E0314620460A
:1058B00018F085FE05466428DAD13146204618F0F6
:1058C0007EFE0546D4E76168206819F011FCE9E71F
:1058D000212500E05D252846F8BD5D25FBE75D2517
:1058E000F9E75D25F7E75D25F5E72125F3E75B257A
:1058F000F1E75B25EFE75925EDE75925EBE75A2559
:10590000E9E75F25E7E75F25E5E75B25E3E700BF1C
:10591000082B0020042B0020F0B585B0A8B30C465E
:1059200017461E46054690F8343083B3B1F5801F04
:105930002FD2012118F01EFC0DF10F03164A21464B
:105940002846FFF75FFB044630B99DF80F30012B66
:1059500008D0022B17D02D24284618F0ADFE204683
:1059600005B0F0BD0C4B1B69B34201D06324F3E7D3
:1059700000220192084B009333463946284618F01E
:10598000A3FE0446E8E76024E6E72124E7E71124C4
:10599000E5E72924E3E700BFD0310020F0B585B06A
:1059A000002838D00C4617461E46054690F834307D
:1059B0009BB3B1F5801F32D2012118F0DBFB0DF152
:1059C0000F03184A21462846FFF71CFB044630B94E
:1059D0009DF80F30012B08D0022B1AD02D24284619
:1059E00018F06AFE204605B0F0BD0E4B1A690A9BFE
:1059F000F3189A4201D26324F1E700230193094B83
:105A000000930A9B32463946284618F05DFE04464C
:105A1000E5E76024E3E72124E4E71124E2E7292411
:105A2000E0E700BFD031002070B582B058B30C461B
:105A30001646054690F834303BB3B1F5801F26D2A8
:105A4000012118F097FB0DF10703124A2146284661
:105A5000FFF7D8FA044668B99DF80730032B10D039
:105A6000022B01D0612406E00A49284619F013F8F8
:105A7000306000E02D24284618F01EFE204602B0BB
:105A800070BD2D24F7E72124F8E71124F6E7292437
:105A9000F4E700BFD0310020F0B583B01C460023EE
:105AA000236070B30E461746054690F8343053B362
:105AB000B1F5801F29D2012118F05CFB0DF107031D
:105AC000134A31462846FFF79DFA064680B99DF8ED
:105AD0000730032B13D0022B05D000233B600C4B67
:105AE0001B69236005E001233B600423236000E081
