S0160000476174655F4C525F436F6E6E6563742E73333737
S31508000000002000204D3B0008C5DF0108C5DF0108B8
S3150800001057290208C5DF0108C5DF0108C5DF010841
S31508000020C5DF0108C5DF0108C5DF0108C5DF01080E
S31508000030C5DF0108C5DF0108C5DF0108C5DF0108FE
S31508000040C5DF0108C5DF0108C5DF0108C5DF0108EE
S3150800005051650008C5DF0108C5DF0108C5DF0108CD
S31508000060C5DF0108C5DF0108C5DF01080D3700082F
S31508000070FD360008C5DF0108C5DF0108C5DF010830
S31508000080C5DF0108C5DF0108C5DF0108C5DF0108AE
S31508000090C5DF0108C5DF0108CD470008C5DF01082F
S315080000A0C5DF0108C5DF01086D42000845420008A2
S315080000B0C5DF0108C5DF01088DB2010839BD010891
S315080000C06B5A0208675A0208EDB40108815A0208F9
S315080000D06F5A020809BD0108735A02089DBD010836
S315080000E0D5BD0108C5DF0108C5DF01085DCE0008DA
S315080000F0C5DF0108E3180208C5DF0108C5DF0108E6
S31508000100C5DF0108C5DF0108C5DF0108C5DF01082D
S31508000110C5DF0108C5DF0108C5DF0108C5DF01081D
S31508000120C5DF0108C5DF0108C5DF0108C5DF01080D
S31508000130C5DF0108C5DF0108C5DF0108C5DF0108FD
S31508000140C5DF0108C5DF0108C5DF0108C5DF0108ED
S31508000150C5DF0108C5DF0108CB7C020879970108CD
S31508000160C5DF0108C5DF0108055A02080B5A02084F
S31508000180194A5AB3194BDB6913F0040F29D110B475
S315080001900AE003EA00048C4210D0013AB2B1134BCC
S315080001A0DB6913F0040F14D110F0010FF1D1104CD4
S315080001B01C40002CEDD06FF001000CE00C4A1A40F0
S315080001C00AB9002007E06FF0010004E06FF00200B2
S315080001D001E04FF0FF305DF8044B70476FF0020006
S315080001E070474FF0FF307047809698000000035024
S315080001F0020001000D4BDB6913F4803F12D170B584
S315080002000A4B03F580560124F46003F500552C6467
S315080002104FF480721A6100212046FFF7B1FF34645B
S31508000220EC6070BD6FF00100704700BF000003501E
S3150800023010B5124B4FF480329A6603F51C33DC690D
S31508000240144041F67132DA6303F580520121D16018
S31508000250586102221A6100212120FFF791FF40B15F
S31508000260074B0122DA601CB1A3F500530022DA63BA
S3150800027010BD00212120FFF783FFF1E70090005011
S315080002800020035038B51A4B5861DB6913F0040F88
S315080002902AD10C4654F8041B154B9961151F06E024
S315080002A0214651F8042B124B9A61043D0C465DB168
S315080002B008210846FFF764FF03460028F0D00C4AD9
S315080002C004211161184638BD094B04221A61002120
S315080002D02120FFF755FF03460028F3D100212120EE
S315080002E0FFF74EFF0346EDE74FF0FF33EAE700BF9F
S315080002F0000003502DE9F0410F46164605461A4BF5
S315080003004FF480329A6603F51C33DA6902F48038B2
S3150800031041F67132DA6303F580530122DA6000236D
S3150800032002E025442744361B8EB105F5005424F413
S31508000330FF5424F01F04641BB44228BF34462246E7
S3150800034039462846FFF79EFF03460028E9D0074AA4
S315080003500121D160B8F1000F03D0A2F500520021A7
S31508000360D1631846BDE8F081009000500020035084
S31508000370000000000000000000000000000000006F
S31508000380013800D0FCE770472DE9F04F2DED028BC0
S3150800039093B082460C4693461D4657EC106B8DED7E
S315080003A0080B32463B46304639461CF0E7F900282A
S315080003B000F009814FF0FF32B14B304639461CF048
S315080003C005FA002840F0FF804FF0FF326FF48013E3
S315080003D0304639461CF0DCF9002840F0F48000224B
S315080003E00023DDE90867304639461CF0D1F90028B4
S315080003F040F0FC809DED087B8DED067B209B13F479
S315080004008063119301D106231E93DDE90601024696
S31508000410C1F30A50C1F31303904643F07F5949F4D8
S315080004204019A0F2FF301BF0D7FE83A3D3E90023BF
S315080004301BF03CFF82A3D3E900231BF081FD06468F
S315080004400F4600228F4B404649461BF077FD7EA398
S31508000450D3E900231BF02AFF02460B4630463946ED
S315080004601BF06EFD1CF0BCF906461BF0B5FE804677
S31508000470894677A3D3E900231BF018FF0022824B95
S315080004801BF05EFD1CF0ACF9074673A3D3E9002305
S31508000490404649461BF00AFF8046894638461BF007
S315080004A09BFE6FA3D3E900231BF000FF02460B4611
S315080004B0404649461BF042FD8046894602460B46A1
S315080004C01BF0F4FECDE90C0107F2FF3700210022EC
S315080004D0CDE90A123B050B9300230A9342464B4685
S315080004E0404649461BF02CFDCDE90E0142464B46D7
S315080004F000204FF080411BF021FD804689460022EE
S31508000500624BDDE90C011BF0FBFF0022604B1BF080
S3150800051017FD02460B46DDE90C011BF0F1FF002230
S315080005205C4B1BF00DFD02460B46DDE90C011BF08A
S31508000530E7FF02460B46404649461BF001FD0246C8
S315080005400B46DDE90E011BF0DBFF0022524B1BF0C8
S31508000550F7FCDDE90A231BF0A9FE8046894649EC2B
S31508000560188BDDE906231CF031F940B1013E002263
S31508000570474B404649461BF0C3FF41EC180B06F1B2
S315080005806303C62B3BD80427209B13F4006F40D087
S3150800059035A3D3E90023DDE90689404649461CF020
S315080005A00BF900283BD032A3D3E90023404649463D
S315080005B01CF0EEF8002832D01E9BB34221DD9E1BAC
S315080005C0731E1E931FE0209B02931F9B01931E9B85
S315080005D000939DED080B2B465A462146504600F0DF
S315080005E0CBF813B0BDEC028BBDE8F08F9FED227BF4
S315080005F08DED067B069607F100430793FEE6052771
S31508000600C2E700231E93209B43F4806320930027B0
S315080006103E461F9B9F4241D2A3EB070840E01E9B24
S31508000620002BF6D0119B002BF3D01E9B013B1E938B
S31508000630EFE700BFAFF30080FB799F501344D33F29
S31508000640B3C8608B288AC63F61436F63A787D23FCA
S3150800065071A379094F930A401655B5BBB16B024091
S31508000660EF39FAFE422EE63F2D431CEBE2361A3FDF
S315080006700000000080842E410000000000000000F9
S31508000680FFFFEF7F0000F83F0000E03F00002C402E
S3150800069000002440000018400000F03F4FF000081A
S315080006A0209B13F0020902D00FB14FF000083EB1AB
S315080006B053EC182BDDE906011BF022FFCDE90601F4
S315080006C000220023DDE908011CF062F800283BD16E
S315080006D0209B23F400630293CDF804801E9B0093AD
S315080006E09DED060B2B465A462146504600F044F827
S315080006F0002F3FF476AF209B13F0200F2CD04FF03D
S31508000700450C00F101082B46024621466046D047B3
S3150800071086EAE672A2EBE67205230593013F049783
S31508000720002303930A230293F30F019300922B46A7
S3150800073042462146504623F08CFDB9F1000F3FF49E
S3150800074050AF02461F9F10E0DDE90601024601F19F
S315080007500043CDE90623BBE74FF0650CD1E7561CED
S315080007602B4621462020D0473246A2EB0B03BB423C
S31508000770F5D3104635E700BF2DE9F04F2DED028B76
S3150800078093B00590089192469B4659EC108B1E9D96
S3150800079042464B46404649461BF0F0FF002840D0EB
S315080007A04FF0FF326FF48013404649461BF0F0FFC6
S315080007B0002845D14FF0FF32B14B404649461CF060
S315080007C005F800284BD1AAA3D3E900234046494699
S315080007D01BF0FCFF00285AD1A7A3D3E90023404603
S315080007E049461BF0D5FF002851D100220023404678
S315080007F049461BF0CDFF002857D100230993209BBB
S3150800080013F4806F5CD000241F2C5BD8092D59D9AE
S3150800081004F148036B44302203F8202C013D0134CF
S31508000820F2E7209B03931F9B029303230193954BA7
S3150800083000935B4652460899059823F030FC10E170
S31508000840209B03931F9B0293042301938E4B0093D3
S315080008505B4652460899059823F021FC01E1209B46
S3150800086013F004030FD0894A7BB10423209903911E
S315080008701F990291019300925B4652460899059882
S3150800088023F00DFCEDE0824AEEE70323EEE7209B1A
S3150800089002931F9B0193009549EC108B5B465246C9
S315080008A008990598FFF770FDDBE042464B460020A5
S315080008B000211BF043FB80468946012309939EE7E6
S315080008C00625A0E7404649461BF08AFF06461BF068
S315080008D083FC02460B46404649461BF02FFB6D4BF0
S315080008E003EBC50393ED008B53EC182B1BF0DEFCD2
S315080008F002460B46CDE906231BF09AFF07461BF076
S315080009005BFC02460B46DDE906011BF017FB0246B7
S315080009100B46CDE9062300225F4B1BF057FF50B369
S31508000920013738461BF048FC02460B4651EC180BBB
S315080009301BF038FF08B10136002755BB30461BF0BF
S315080009404BFC02460B46404649461BF0F7FA8046E2
S3150800095089460022504B1BF01BFF38B100224E4B34
S31508000960404649461BF032FF002842D016F0010FD8
S315080009703FD001363DE00022474BDDE906011BF07A
S3150800098007FF0028D9D117B117F0010FD5D00137C5
S31508000990D3E71F2C17D8013D404BA3FB0723DB08E1
S315080009A0194603EB8303A7EB4303621C303304F1B8
S315080009B048000DEB000404F8203C092F02D90F4625
S315080009C01446E6E714461F2C0AD86B1E45B104F1F7
S315080009D048026A44302102F8201C1D460134F2E719
S315080009E01F2C06D804F148036B442E2203F8202C4A
S315080009F001341F2C17D82A4A82FB0632F317C3EB99
S31508000A00A2031A4603EB8303A6EB4303611C3033A8
S31508000A1004F148000DEB000404F8203C16460AB120
S31508000A200C46E6E70C46209B03F00303012B39D05E
S31508000A301F2C09D8099B002B51D004F148036B449D
S31508000A402D2203F8202C0134209B03931F9B02932D
S31508000A5001940AAB00935B4652460899059823F021
S31508000A601EFB13B0BDEC028BBDE8F08FAFF3008020
S31508000A700000000065CDCD410000000065CDCDC168
S31508000A80FFFFEF7F689802086C9802085C980208D6
S31508000A9064980208789802080000E03FCDCCCCCCD8
S31508000AA0676666661F9BB3B1099B1BB9209B13F04B
S31508000AB00C0F12D01F9B013B1F93194606E004F149
S31508000AC048036B44302203F8202C01348C42AFD201
S31508000AD01F2CF4D9ACE71F99F8E71F99F6E7209B76
S31508000AE013F0040F07D004F148036B442B2203F8D4
S31508000AF0202C0134A8E7209B13F0080FA4D004F19A
S31508000B0048036B44202203F8202C01349CE700BFDD
S31508000B1038B50D46044626F004FE064A13889BB2ED
S31508000B202DB123431380BDE8384026F0F5BD23EAEE
S31508000B300403F7E7C84B00200022034B01214FF4BA
S31508000B4080709A70E4E700BFC84B00207FB54E68F6
S31508000B5002A9044624F017FA9DF808300C2B19D17F
S31508000B60134BB3F90050134B9E4218D808F020F8DF
S31508000B7003460068694600909B882046ADF8043015
S31508000B8024F0EEF970B140F25F620B490B480EF0A3
S31508000B90D5F8FEE7204613F0D3FE0546E3E71FF037
S31508000BA00CFEE5E72946204624F0C0F904B070BDDE
S31508000BB09C510020FFC99A3B219B0208EC98020829
S31508000BC0002330B5134C85B0CDE901330393237860
S31508000BD08DF8043026F0A5FDA288E38805469A42DA
S31508000BE00DD0E188A06801AAA18024F055F858B173
S31508000BF040F2DA62084909480EF0A0F8FEE7A06854
S31508000C0024F023F80128ECD0284626F085FD05B007
S31508000C1030BD00BFF8560020219B0208EC98020858
S31508000C2038B50F4C656835B940F2C7720D490E489C
S31508000C300EF084F8FEE723F0E1FB284410F0CEFF1F
S31508000C4000F00700032809D164680921204623F02B
S31508000C50F1FC205C031F5842584138BD0020FCE7D0
S31508000C60C84B0020219B0208EC98020808B5114BD6
S31508000C709A78042A06D040F28E520F490F480EF091
S31508000C805DF8FEE71B881B0706D440F28F520A4917
S31508000C900A480EF053F8FEE700210820FFF738FF50
S31508000CA00222074B98681A7313F004FCBDE8084043
S31508000CB021F0ACBFC84B0020219B0208EC98020823
S31508000CC0F856002010B5084CA06813F0F3FBA0688E
S31508000CD023F0BBFF012806D00122A0681146BDE813
S31508000CE0104023F0B4BF10BDF856002038B5194D92
S31508000CF0AB7833B140F22B72174918480EF01EF83C
S31508000D00FEE726F00EFD2988044611F0060109D0F3
S31508000D1001214FF48070FFF7FBFE2046BDE83840FE
S31508000D2026F0FABC4FF48070FFF7F2FE12F014FDBD
S31508000D30012805D010F0FD0F05D1FFF741FFECE7BC
S31508000D40FFF7C0FFE9E740F24172034903480DF097
S31508000D50F5FFFEE7C84B0020219B0208EC98020825
S31508000D6070B50446064D95F90860FFF7BFFF12F007
S31508000D70F1FB314620466A68BDE8704012F022BA97
S31508000D80C84B002008B50A4B1B88DB0606D440F280
S31508000D90A752084908480DF0D1FFFEE700211020A8
S31508000DA0FFF7B6FE12F054FDBDE8084021F02EBF4D
S31508000DB0C84B0020219B0208EC9802080D4B10B581
S31508000DC01B8804469B0713D500210220FFF7A0FEC7
S31508000DD0094B5A7BFF2A06D040F2E54207490848E4
S31508000DE00DF0ACFFFEE75C73BDE8104021F00EBFC6
S31508000DF010BD00BFC84B0020F8560020219B0208F2
S31508000E00EC9802087047704707B5ADF8061001461A
S31508000E1030B94FF4B572104910480DF08FFFFEE750
S31508000E20BDF8063033B940F26B120B490B480DF08A
S31508000E3085FFFEE70A4B0DF10602986824F05AF979
S31508000E4030B140F26D12044904480DF077FFFEE711
S31508000E5003B05DF804FB00BF219B0208EC9802086A
S31508000E60F856002010B50E4CA37833B14FF4EA7249
S31508000E700C490D480DF062FFFEE7606019B1A17BD1
S31508000E80003918BF01212020FFF742FE074B08480A
S31508000E909B7B23760223A370BDE8104010F06ABD41
S31508000EA0C84B0020219B0208EC980208F85600203F
S31508000EB0E44B002008B50CF06FFA80F00100C0B2D0
S31508000EC008BD0A4B9A780AB1062A0CD11B8803F486
S31508000ED08B7343B9064B5A7BFF2A04D1187BFF381C
S31508000EE018BF012070470120704700BFC84B00207B
S31508000EF0F856002008B50CF03FFA0028FBD108BDCB
S31508000F000C4B42889A8142789A730278DA738288FF
S31508000F101A82C2885A82C2685A61017A064A91734D
S31508000F20028A998C914204D001214FF400709A8468
S31508000F30EEE57047C84B0020F8560020094B9A8901
S31508000F4042809A7B4270DA7B02701A8A82805A8AB9
S31508000F50C2805A699B8CC260034A0382927B0272E2
S31508000F60704700BFC84B0020F85600204B1E012BC7
S31508000F7070B50C4606D940F2B7221A491A480DF040
S31508000F80DDFEFEE7194D0A460146A86824F0DCF89E
S31508000F9030B140F2B922134913480DF0CFFEFEE7EF
S31508000FA0AE6810F05BFC22460146304624F0C6F8CF
S31508000FB030B140F2BD220B490B480DF0BFFEFEE7EB
S31508000FC0AD6810F057FC22460146284624F0C2F8C0
S31508000FD030B140F2C122034903480DF0AFFEFEE7E7
S31508000FE070BD00BF219B0208EC980208F856002045
S31508000FF0054BDB7B1B0913F00E0003D0052B8CBFBA
S3150800100000200120704700BFF8560020044BDB7B08
S315080010101B0913F00E0F0CBF01200020704700BFFC
S31508001020F85600202DE9F04F15469A0580461F46CA
S315080010308FB003D501218020FFF76AFDEB014FF041
S31508001040000955D5984C23889E0751D5974E737B32
S31508001050FF2B06D040F2AF42954996480DF06EFE3A
S31508001060FEE7636833B94FF49662914991480DF0EB
S3150800107065FEFEE749460220FFF74AFDA37886F893
S315080010800D90042B03D101210820FFF741FD002311
S31508001090B06808A98DF82C3023F077FF30B140F2FC
S315080010A0BA42834983480DF049FEFEE7FFF7A0FFE1
S315080010B0B0B923F0A3F98146606823F0AAF908A914
S315080010C08144B068ADF8249023F062FF30B140F255
S315080010D0C242774977480DF031FEFEE7089BA362C6
S315080010E0A378032B02D1B06813F0E4F921F08EFD42
S315080010F0B80702D50120FFF761FE15F0A84F02D008
S315080011000220FFF75BFEA90220D50021402003AC90
S31508001110FFF7FEFC2146404624F034F8B0B99DF8A6
S31508001120143008AA022B22D18DF82830BDF80C30CD
S31508001130ADF82030104612F017FA38B1404624F0C0
S315080011401FF818B901214020FFF7E2FC2A0753D5FA
S31508001150564E0321B06803AA23F0CEFF814688B90C
S3150800116040F2FE42524953480DF0E8FDFEE7032BD4
S3150800117005BF8DF82830D4E900018DF82800C2E9AA
S315080011800001D7E79DF80C30B068072B40F01F81A7
S31508001190494608AA23F0B2FF30B140F20152444949
S315080011A044480DF0CBFDFEE7FFF722FFBDF80E2001
S315080011B0A0B9FFF72BFF78B1043292B2B06808A93C
S315080011C0ADF8242023F09CFF40B140F21252384972
S315080011D038480DF0B3FDFEE70232EEE7BDF80E0023
S315080011E00121073080B226F0CDF98246002842D187
S315080011F001210C2013F0F2F8A90705D52A4B1B8804
S315080012001A0701D5FFF732FDAB010BD500210420E3
S31508001210FFF77EFC244B9B78012B03D1234B986860
S3150800122013F048F915F0284F03D000210420FFF7E2
S315080012306FFC7E060CD51C4C23881D0701D5FFF7CD
S3150800124015FD2388580703D500210420FFF760FC05
S31508001250F90540F1D88003A9404608AA23F0F3FC13
S315080012600146002800F0BA8040F2D25210491148CF
S315080012700DF064FDFEE74FF0000B26F007F9CDF8F8
S3150800128000B00246BDF80E3004464946B06823F061
S315080012903BFFBDF80E3083420ED040F2225204497D
S315080012A004480DF04BFDFEE7C84B0020F856002019
S315080012B0219B0208EC98020823F0A0F8204410F0BD
S315080012C08DFC00F007000228DFF8589124D199F820
S315080012D00230042B90D123F091F8504B20448278A9
S315080012E01B789A4288D159460820FFF711FC23F04B
S315080012F085F8204410F072FC9DF82E30C0F30010DB
S31508001300307389F80830FFF78BFC00287FF474AF38
S31508001310B06813F0CFF86FE723F070F8204410F0A8
S315080013205DFC83064AD523F069F8204410F056FC84
S3150800133000F0070003280BD10921204623F07AF98B
S3150800134014F800B0ABF1040CDCF1000B4BEB0C0B02
S3150800135001210420FFF7DCFBB06823F0E8FEC9F89A
S315080013602C00BBF1000F30D0B9F8003058062CD548
S3150800137000214020FFF7CCFB0126BDF80E309DF872
S315080013802E200120E254BDF80E309DF82F2023446C
S315080013909A71BDF80E10089A0131214410F02CFC00
S315080013A0BDF80E3050461C44667126F043F91C4BB6
S315080013B0187810F0E5FB21F029FC1DE799F80230B2
S315080013C0012B02D1B06813F075F80026D5E723F093
S315080013D077FE4946B06823F095FE0DE79DF80C3078
S315080013E003F0BF02032A01D0022B0FD10D4C23882C
S315080013F05A0702D50420FFF78BFB23889B0702D5E3
S315080014000120FFF7DBFC0FB0BDE8F08F4FF4BF6299
S31508001410054906480DF092FCFEE700BF354C002052
S31508001420584B0020C84B0020219B0208EC98020864
S3150800143008B50246FFF7DCFD30B1072A06D80020BA
S31508001440034B83F8302008BD7020FCE70220FAE73A
S31508001450C84B002008B50246FFF7CAFD28B1002090
S31508001460034B93F83030137008BD7020FCE700BFBB
S31508001470C84B002008B5074B01460022986823F0A0
S3150800148063FE30B140F2EB22034904480DF056FCE6
S31508001490FEE708BDF8560020219B0208EC980208D2
S315080014A008B5074B01460022986823F047FE30B17D
S315080014B040F2F122034904480DF040FCFEE708BD5E
S315080014C0F8560020219B0208EC98020808B5074B3D
S315080014D00146986823F044FE30B140F2F7220449E9
S315080014E004480DF02BFCFEE708BD00BFF8560020A7
S315080014F0219B0208EC98020808B5074B9B7833B184
S3150800150040F20132054906480DF018FCFEE7BDE831
S315080015100840FFF7EBBB00BFC84B0020219B020821
S31508001520EC98020808B5054B0146986823F0FEFCBE
S31508001530002814BF8B20002008BD00BFF8560020E5
S31508001540014B986813F0FCB9F8560020014BD8886F
S31508001550704700BFF85600207FB50123ADF80E305E
S315080015604FF6FE7309480093806800230DF10E02BA
S3150800157004A923F068FC212800D020B9BDF8100082
S3150800158007B05DF804FB4FF6FF70F9E7F856002040
S3150800159008B5044B0146986823F009FCB0FA80F0B8
S315080015A0400908BDF856002038B50B4D0446AB78FF
S315080015B0012B0DD8FFF7ECFF60B1084BDC80AB7848
S315080015C01BB9FFF793FB002038BDFFF7F9FAFAE7D6
S315080015D03E20F9E78A20F7E7C84B0020F856002096
S315080015E0024B9B780BB9FFF781BB7047C84B0020AD
S315080015F0014BD873704700BFC84B002008B5064B8F
S315080016004FF0FF31986823F04BFB0028B8BF033032
S3150800161040F3870008BD00BFF856002008B5044B04
S31508001620986823F0C0FB034BB3FBF0F080B208BD0B
S31508001630F856002040420F0030B58DB02C220446E3
S31508001640002101A824F0A9FA01234FF002328DF8EF
S3150800165008306423CDE9032306930B238DF82C3039
S31508001660214B9B8CADF80A30FFF7C2FCA8B140F2BB
S31508001670F23307934FF47A7305930CB9FFF722FBFD
S315080016801A4D01A9A86813F02FFAC0B140F2AC624E
S31508001690174918480DF052FBFEE7FFF7BFFF0C236A
S315080016A04343902B0793A3F10A02D8BF91230592CF
S315080016B0D8BF0793059B8B2BDFD88C23DCE7FFF776
S315080016C0A5FC60B10122A868114623F057FD30B188
S315080016D040F2AF62064907480DF030FBFEE70CB949
S315080016E0FFF704FB0DB030BDC84B0020F8560020AC
S315080016F0219B0208EC980208F8B526F012F8554C1A
S3150800170006462388D90503D5A37843BBFFF7EEFA27
S31508001710514D6B7BFF2B13D06B7B03F0FF0723BB6D
S31508001720FF236B73A378032B0AD100233046A370DB
S3150800173025F0F2FF3846FFF713FB25F0F2FF0646C1
S31508001740A378042B08D12B7BFF2B05D02B7B022BF0
S3150800175014D1424810F00EF9FF232B7327E000211D
S315080017604FF48070FFF7D4F9D2E76B7B012B4FF06B
S31508001770FF0314BF89278D276B73D6E72B7B13B11D
S315080017802B7B012B1ED1FFF74BFA0022FF212B7B67
S315080017900746DBB222772973002847D0012B0AD1E6
S315080017A064212E48A37010F0F0F8FFF709FA3046C6
S315080017B025F0B2FF06E03046A27025F0ADFF3120D5
S315080017C0FFF7CEFA23881A0608D500218020FFF7EE
S315080017D09FF9A86823F015FC12F01BF823889B05CF
S315080017E007D54FF400700021FFF792F90020FFF7A4
S315080017F023FF0BF0C1FD608620B325F047FE0121CB
S315080018000546002012F0EAFDA678012E14D100261E
S315080018102677A670FFF76AFA284611F0F5FBA37833
S3150800182066867BB9BDE8F84011F094BEA0703046D4
S3150800183025F072FF3846C3E72EB1284611F0E4FBBF
S3150800184000236386F8BDFFF751FA284611F0DCFB42
S315080018506686F7E7C84B0020F8560020E44B0020C0
S315080018608B4BF0B51B888B4C8B4D63848B4B85B0AB
S315080018701B68E3628A4B1B8823848A4B1B68A36216
S315080018802B88DB0700F1FC8001210846FFF740F9A9
S315080018900523854A04F1100104F10800AB7012F023
S315080018A0CBFD28B1F522814981480DF047FAFEE7BC
S315080018B0A3682BB9F7227D497D480DF03FFAFEE76C
S315080018C07C4823F008FA70A3D3E90023CDE9002366
S315080018D04FF0FF324FF0FF33A06823F0ABFA4FF416
S315080018E08811A06813F0A4F8014630B140F20F122F
S315080018F06E496F480DF022FAFEE76F4B1B78012BF5
S315080019000ED16E4AA06812F065FEA06813F01AF9A7
S31508001910E0B140F21B12654965480DF00FFAFEE783
S31508001920674E316831B94FF48F72604960480DF0DF
S3150800193005FAFEE7614AA06812F04CFE33689B6818
S3150800194023B1DB6913B15B7803B1E373FFF704FED8
S315080019500146E080A06812F0B9FF064630B140F2B1
S315080019602D12524952480DF0E9F9FEE7554B012070
S315080019701B78C3EB431203EB8203DB00AB84FFF750
S315080019805BFEA7680FF076FF32460146384623F01D
S31508001990E1FB064630B140F23312444944480DF0A3
S315080019A0CDF9FEE740F203530427AB81464BAF73EC
S315080019B01B78EB73FFF732FE00EB80039B002B824C
S315080019C0FFF72CFEC00068823946A0686E6123F0D6
S315080019D0D9F930B14FF4A172344935480DF0AEF952
S315080019E0FEE73A46A06803A923F05FFA042806D062
S315080019F04FF4A3722D492E480DF0A0F9FEE703A96E
S31508001A00012010F007F90BF03DFA08224FF0FF31DC
S31508001A10A06823F020FA30B140F24F122349244837
S31508001A200DF08CF9FEE713F00DFA30B140F25512BD
S31508001A301E491F480DF082F9FEE7FFF7D9FA68B18B
S31508001A401EF0BDFE0146A06823F08AFA30B140F2C6
S31508001A505912164916480DF071F9FEE7A468FFF702
S31508001A607BFD1A4B014603F10C02204623F016F9BA
S31508001A7030B14FF4B0720D490D480DF05FF9FEE72D
S31508001A8005B0F0BDAFF300800A0020FF4203000056
S31508001A90189E0208F8560020C84B00201C9E020813
S31508001AA01A9E0208209E0208390B0008219B02088C
S31508001AB0EC980208690345EC194C00204D0B000808
S31508001AC0DC5400209C5800209B5800204C9B0208A0
S31508001AD008B5044B986823F068F9034BB3FBF0F09C
S31508001AE080B208BDF856002040420F002DE9F043A9
S31508001AF08C4D87B02B889B0706D440F24C728A49D6
S31508001B008A480DF01BF9FEE7AB78033B012B06D993
S31508001B1040F24E72844985480DF010F9FEE76A686E
S31508001B2032B940F25172804980480DF007F9FEE754
S31508001B307F4E2C88F77B14F0200418BF4FF47A7474
S31508001B404FEA1718FFF754FA00287DD0B8F1020FAC
S31508001B500AD0A8F10303022B74D940F265727249C0
S31508001B6072480DF0EBF8FEE7032795F8303008EBDE
S31508001B70C80898446F4B104603EB4803B3F81C801B
S31508001B8022F047FC4FF4FA534343B3FBF8F37822A9
S31508001B907733B3FBF2F31F44C7EB0717AB78FF00A5
S31508001BA0BFB204F5347417FA84F4042BA4B203D133
S31508001BB007F6E8072744BCB2D5F8048022F01EFCD5
S31508001BC00746686822F025FC074422F03DFCBFB2B0
S31508001BD03F1A22F013FC404410F000F87378C0F363
S31508001BE040198DF80C30544BBFB2CDE904340024AB
S31508001BF022F036FC009402463B464146B06823F084
S31508001C0061FA287EB278737812FB00F29342C4BF59
S31508001C109B1ADCB22B88F18813F0200FB068B180CC
S31508001C208DF80C4003AB76D000934A46434B23F01D
S31508001C302AF8002873D040F224723B493B480DF03D
S31508001C407DF8FEE7062790E7FFF7E0F9002846D07B
S31508001C50384B07F00F0708EBC801394403EB41037B
S31508001C601046B3F81C9022F0D4FBB8F1000F2CD024
S31508001C70B8F1010F2CD14FF00408400080B2F319D7
S31508001C8093F834304BB14FF4FA52023303444344C9
S31508001C909BB25343B3FBF9F39CB2AB78042B8BD1BD
S31508001CA0FFF7BCFC374497F834308146053398442F
S31508001CB0FFF70EFF0C2308FB00F003FB09F909EBFD
S31508001CC0C009A1441FFA89F476E74FF00208D6E75F
S31508001CD040F28672144915480DF030F8FEE7FFF712
S31508001CE0F7FE0746686822F094FB09307843AB781C
S31508001CF004EBC000042B84B27FF45EAFFFF78EFCC2
S31508001D000746FFF7E5FE602358430C2303FB07004D
S31508001D10204484B250E74A4622F0B3FF89E707B069
S31508001D20BDE8F083C84B0020219B0208EC98020806
S31508001D30F85600204C9B020820A10700D44B00202F
S31508001D40F8B5494C258815F0020506D040F27512FB
S31508001D50464947480CF0F2FFFEE7257725F0E1FCF7
S31508001D60238806465A070CD5424B986823F0DFF9B4
S31508001D70E36AC01AA38C984203D929460420FEF7C1
S31508001D80C7FE304625F0C8FCA778022F37D125F0C4
S31508001D90C8FC2388064613F0040507D036480FF01A
S31508001DA0E9FD3046BDE8F84025F0B6BC25F0B4FCA0
S31508001DB0606811F009FC20B1A570BDE8F840FEF78F
S31508001DC0CFBF25F0AEFC6668054622F017FB304407
S31508001DD00FF004FF10F0200F0CBF0323042301218A
S31508001DE03846A370FEF794FEFFF780FE284625F0D6
S31508001DF093FC01210846BDE8F84012F0EFBA042F1B
S31508001E0027D11C4B1B7BFF2B2DD1237EF3B125F04D
S31508001E1088FC238805465B0704D517480FF0AAFDFA
S31508001E202846BFE725F078FC237E013B237625F07C
S31508001E3078FC044601210220FEF76AFEFFF756FEEB
S31508001E40204625F069FC01210820D4E74020A3702C
S31508001E50B3E7012F07D10023A370064B986812F049
S31508001E6029FB3120A9E7F8BDC84B0020219B0208B1
S31508001E70EC980208F8560020E44B002038B50121FA
S31508001E8004461020FEF744FE064B9D68FFF7C6FB86
S31508001E90012200FB04F1044B284622F0DDFE002057
S31508001EA038BD00BFF8560020850D000808B50A4B56
S31508001EB01B88DB0606D44FF46172084908480CF003
S31508001EC03DFFFEE710200021FEF722FE054B98682D
S31508001ED0BDE8084022F0CEBEC84B0020219B020870
S31508001EE0EC980208F856002038B50E4D688E30B9C1
S31508001EF040F291320C490D480CF020FFFEE725F020
S31508001F00C5FA0446688E25F0DFFA811F21440120B0
S31508001F100FF080FE064B0446986823F008F9001B6C
S31508001F2038BD00BFC84B0020219B0208EC98020868
S31508001F30F856002010B5084C636833B94FF4687238
S31508001F40064907480CF0FAFEFEE7064B986823F0A8
S31508001F50EEF8A36AC01A10BDC84B0020219B0208E0
S31508001F60EC980208F856002038B50A4D688E30B944
S31508001F7040F2AA32084909480CF0E0FEFEE725F0CF
S31508001F8085FA0446688E25F09FFA044414F8020C74
S31508001F9038BD00BFC84B0020219B0208EC980208F8
S31508001FA038B50A4D688E30B940F2B9320849094841
S31508001FB00CF0C4FEFEE725F069FA0446688E25F0A3
S31508001FC083FA044414F9070C38BD00BFC84B002037
S31508001FD0219B0208EC98020838B50A4D688E30B97C
S31508001FE04FF47272084909480CF0A8FEFEE725F07E
S31508001FF04DFA0446688E25F067FA044414F9010C74
S3150800200038BD00BFC84B0020219B0208EC98020887
S31508002010024B1888C0F3C010704700BFC84B002099
S3150800202030B585B005466C460D4B0FCB84E80F00DE
S315080020300DB12B6800930B4B21460022986812F0CD
S3150800204095FC044630B140F2E632074907480CF0E1
S3150800205075FEFEE7FEF7B4FD204605B030BD00BFAD
S31508002060D49B0208F8560020219B0208EC98020827
S3150800207030B5154D87B004460DF10701A86822F062
S31508002080DBFE30B140F2F732104911480CF056FE2B
S31508002090FEE79DF80720531EDBB2FD2B0FD90294ED
S315080020A0FF2A00D10394A86802A922F0ADFF40B127
S315080020B040F20442054906480CF040FEFEE7012AB4
S315080020C0EFE707B030BD00BFF8560020219B020895
S315080020D0EC98020808B5064B986822F0A4FF30B1C0
S315080020E04FF48262034904480CF028FEFEE708BD57
S315080020F0F8560020219B0208EC9802080122024BA0
S315080021001146986822F0A3BDF85600207047F8B526
S31508002110064604200D4622F053F9030622D5124F2F
S31508002120BC78FCB926B1012E17D002242046F8BD8A
S3150800213001262846FFF72CFA0028F6D00B4800237C
S3150800214032462946806822F0A0FD40B14FF48A62E3
S31508002150074908480CF0F2FDFEE72646E9E706239C
S31508002160BB70E3E77024E1E7C84B0020F85600206F
S31508002170219B0208EC980208042010B522F020F9E9
S31508002180030611D5094CA378062B0DD1084B986880
S3150800219022F07DFD30B140F26A42064906480CF04D
S315080021A0CDFDFEE7A07010BD7020FCE7C84B0020EF
S315080021B0F8560020219B0208EC9802081FB5044631
S315080021C001A812F09BFB9DF80D3053B14CB1064B9C
S315080021D02078617818700020A27859709A7004B037
S315080021E010BD0220FBE700BFF85600201FB50446C5
S315080021F001A812F083FB9DF80D3053B14CB10020B5
S31508002200054B1A7822705A789B786270A37004B0CE
S3150800221010BD0220FBE700BFF8560020FFF7CEBF2F
S31508002220FFF7E4BF0348044B834202D0034B03B1D4
S3150800223018477047B4580020B45800200000000022
S31508002240064B0749C91A891048BF0131491003D0FE
S31508002250044B0BB101481847704700BFB45800201B
S31508002260B45800200000000010B5064C237843B986
S31508002270FFF7D8FF044B13B10448AFF300800123DE
S31508002280237010BD5652002000000000C0D7020877
S3150800229008B5054B1BB105490548AFF30080BDE8F5
S315080022A00840FFF7CDBF00BF00000000A0220020B5
S315080022B0C0D70208A3F5803A704700BF174B002B1A
S315080022C008BF134B9D46FFF7F5FF00218B460F46C7
S315080022D01348144A121A23F060FC0E4B002B00D048
S315080022E098470D4B002B00D098470020002104008A
S315080022F00D000D48002802D00C48AFF300801AF0F4
S31508002300CFFF200029001BF03AFD1AF05FFC00BF42
S315080023100000080000000000000000000020002067
S3150800232000200020C052002000000000000000002D
S3150800233010B50A4B01220A490A48006803F02AFF29
S3150800234004F06AF8084C094920460AF071FC4FF473
S31508002350FA7120680FF019FB10BD00BF2925000887
S31508002360EC2200207C560020B822002051250008C7
S31508002370024B93F82E300370704700BFBC22002032
S3150800238010B55F4B93F85930042B0ED8DFE803F0ED
S3150800239003132231420003787E2B07D0594B0122C2
S315080023A059495A48006803F0F5FE10BD544B0122FE
S315080023B083F85920F2E70378514981F8313002232E
S315080023C081F859304F4B012230315048006803F0EC
S315080023D0E1FEEAE703784A4981F83230032381F8B7
S315080023E05930484B012230314848006803F0D2FE84
S315080023F0DBE70378424981F83330042381F8593002
S3150800240091F831203F4B043A34314048006803F0D4
S31508002410C1FECAE73A4C002384F85930621C94F886
S31508002420311004F131001BF081FB207020B9E378EC
S31508002430482B09D0432B5DD0324B01223249334811
S31508002440006803F0A7FEB0E7637A84F82E30013BF4
S31508002450042BF1D8DFE803F0031221303F000320F4
S3150800246001F0C0F90028E7D01BF018FD1BF017FD96
S315080024702749284B18681FF09FFADDE7032001F06B
S31508002480B1F90028D8D01BF009FD1BF008FD224938
S31508002490204B18681FF090FACEE7032001F0A2F946
S315080024A00028C9D01BF0FAFC1BF0F9FC1B49194B94
S315080024B018681FF081FABFE7032001F093F9002896
S315080024C0BAD01BF0EBFC1BF0EAFC1549114B186857
S315080024D01FF072FAB0E7032001F084F90028ABD0A8
S315080024E01BF0DCFC1BF0DBFC0E490A4B18681FF0DE
S315080024F063FAA1E7024B1A7983F82F209CE700BFFD
S31508002500BC22002029250008EC2200207C56002049
S31508002510487E0208B8270020507E0208587E020826
S31508002520607E02086C7E020808B50248FFF728FF9D
S3150800253008BD00BFEC22002008B50A460023014664
S315080025400248006803F0ECFE08BD00BF7C56002078
S3150800255008B506481BF0B8FE1BF076FB4FF4FA7177
S31508002560034B18680FF011FA08BD00BF68900208FF
S31508002570B822002010B582B004461BF07EFB08B9CD
S3150800258002B010BD00230093ADF80430074B1B883A
S31508002590ADF80230ADF8044040F2FF13ADF8003054
S315080025A06946032020F0C5FBEAE700BF94510020E6
S315080025B008B5064B1B7823B1054B1B6800221A7019
S315080025C008BD0C201BF01DFBF6E700BF20230020EA
S315080025D01C23002010B5032001F004F998B9FFF771
S315080025E0A7FE0E490E480AF023FB0E4C0E4920465C
S315080025F00AF01EFB4FF4FA6120680FF0C6F90B4883
S31508002600FFF7B6FE10BD1BF049FC1BF048FC084955
S31508002610084B18681FF0D0F9E1E700BFB12500089C
S315080026201C23002018230020392600082E2300200A
S31508002630787E0208B827002010B584B0184C2046CA
S31508002640FFF796FE204610F80D39827B934207D194
S315080026504FF49671134B18680FF097F904B010BD34
S31508002660A4F10D029373032001F0BCF868B91E2388
S315080026708DF804300C4B9B7B8DF8053002238DF8C2
S315080026800D3001A81BF01AFBE2E71BF007FC1BF054
S3150800269006FC0649064B18681FF08EF9E7E700BFE7
S315080026A02D2300201823002020230020847E0208E2
S315080026B0B827002008B5044A1BF0E9FA034B186846
S315080026C00FF058F908BD00BF202300201C23002066
S315080026D038B5044620F039FBA04201D8012038BDA0
S315080026E00546032001F07EF80028F8D01BF0D6FB3B
S315080026F01BF0D5FB2B4622460349044800681FF009
S315080027005BF90020EBE700BF947E0208B82700209B
S3150800271030B583B004468368C26853F822301D88F2
S315080027202846FFF7D5FF08B903B030BD002300934C
S31508002730ADF80430164B1B88ADF80230ADF80450DE
S315080027406368E2689B1A012B1DDDA368013253F802
S3150800275022301B88ADF8003020F0E7FA69460320DE
S3150800276020F0E7FA0446032001F03CF80028DBD005
S315080027701BF094FB1BF093FB22460649064B186890
S315080027801FF01AF9D0E740F2FF13ADF80030E3E77F
S3150800279096510020CC7E0208B827002030B583B0B9
S315080027A004468368C26853F822301D882846FFF716
S315080027B08FFF08B903B030BD00230093ADF804308D
S315080027C0154B1B88ADF80230ADF804506368E26813
S315080027D09B1A012B1BDDA368013253F822301B8894
S315080027E0ADF800306946042020F0A3FA0446032019
S315080027F000F0F8FF0028DDD01BF050FB1BF04FFB64
S3150800280022460649064B18681FF0D6F8D2E740F26A
S31508002810FF13ADF80030E5E796510020EC7E02087C
S31508002820B827002030B583B004468368C26853F8D9
S3150800283022301D882846FFF74BFF08B903B030BD84
S3150800284000230093ADF80430154B1B88ADF8023011
S31508002850ADF804506368E2689B1A012B1BDDA36878
S31508002860013253F822301B88ADF800306946022041
S3150800287020F05FFA0446032000F0B4FF0028DDD0FC
S315080028801BF00CFB1BF00BFB22460649064B18688F
S315080028901FF092F8D2E740F2FF13ADF80030E5E7F3
S315080028A096510020007F0208B827002030B583B073
S315080028B08368C26853F822301C7800230193436862
S315080028C09B1A012B19DD01AA01211EF03DFB0146C9
S315080028D09DF8040020F025FA054680B1022000F094
S315080028E081FF60B11BF0DAFA1BF0D9FA2A460649CD
S315080028F0064B18681FF060F801E020F016FA20462B
S3150800290020F01BFA03B030BD1C7F0208B827002050
S3150800291010B503468168C26851F82200B0F9000074
S315080029201A4C20805B689B1A012B0FDD013251F887
S31508002930223093F90010003918BF012120F0A6F9BA
S31508002940A0B9032000F04EFF10B910BD0021F5E72D
S315080029501BF0A4FA1BF0A3FA0D4B1C6820F09AF999
S3150800296002460C4920461FF027F8EEE7012000F042
S3150800297039FF0028E9D01BF091FA1BF090FA0649B6
S31508002980034B18681FF018F8DFE700BF96510020C0
S31508002990B8270020807F0208947F020808B520F037
S315080029A069F9032000F01EFF00B908BD1BF076FA8E
S315080029B01BF075FA0249034B18681EF0FDFFF4E791
S315080029C0AC7F0208B827002008B58368C26853F8A8
S315080029D022301A88094B1A80032000F003FF00B939
S315080029E008BD1BF05BFA1BF05AFA044B1A88044917
S315080029F0044B18681EF0E0FFF2E700BF18580020E5
S31508002A00CC7F0208B827002008B5024B18680EF0DC
S31508002A10B1FF08BD382300202DE9F04186B020F02B
S31508002A2045F90446894B1B7813F0020F2CD0884EC3
S31508002A3013F0010F2AD0864F13F0040F28D0DFF8C1
S31508002A401082032000F0CEFE28BB032000F0CAFE49
S31508002A5058BB032000F0C6FE002835D1032000F03D
S31508002A60C1FE00283ED1032000F0BCFE002847D155
S31508002A70032000F0B7FE00285ED1032000F0B2FE66
S31508002A80002867D1002471E0724ED1E7714FD3E771
S31508002A90DFF8C081D5E71BF001FA1BF000FA6E4992
S31508002AA06E4B18681EF088FFCFE71BF0F7F91BF08E
S31508002AB0F6F96A4B1D6805F041FC02460B46684963
S31508002AC028461EF079FFC4E71BF0E8F91BF0E7F982
S31508002AD0624B1D6820F0C2F80246624928461EF07D
S31508002AE06BFFBBE71BF0DAF91BF0D9F95B4B1D68E6
S31508002AF020F0E8F802465C4928461EF05DFFB2E77A
S31508002B001BF0CCF91BF0CBF9E279A379617920792E
S31508002B10E57894F802C094F801E024780594CDF895
S31508002B2010E0CDF80CC00295019000914F494B4832
S31508002B3000681EF041FF9BE71BF0B0F91BF0AFF9E8
S31508002B40464B1C6820F0B6F80246494920461EF056
S31508002B5033FF92E71BF0A2F91BF0A1F945493F4B59
S31508002B6018681EF029FF8DE70134E4B2072C12D845
S31508002B70032000F037FE0028F6D01BF08FF91BF073
S31508002B808EF9364B1D6820F091F8025D3A492846C1
S31508002B901EF012FFE8E7032000F024FE98B9032090
S31508002BA000F020FEC8B9032000F01CFE18BB032065
S31508002BB000F018FE68BB032000F014FE002836D18A
S31508002BC006B0BDE8F0811BF069F91BF068F92B49DE
S31508002BD0224B18681EF0F0FEE1E71BF05FF91BF0C8
S31508002BE05EF91E4B1C6820F069F802462449204607
S31508002BF01EF0E2FED7E71BF051F91BF050F9174B10
S31508002C001C6820F03FF802461E4920461EF0D4FEF6
S31508002C10CDE71BF043F91BF042F9104B1C6820F076
S31508002C2039F80246184920461EF0C6FEC3E71BF0CF
S31508002C3035F91BF034F9CDF800803B463246134986
S31508002C40064800681EF0B8FEBAE700BF8E58002096
S31508002C50347F02083C7F0208E87F0208B827002074
S31508002C60F07F02080C8002082880020844800208C7
S31508002C70688002088480020898800208A0960208E4
S31508002C80A0800208BC800208D4800208EC800208F2
S31508002C9030B583B08368C26853F822301C7801A91E
S31508002CA020461FF0EBFF88B9032000F09BFD08B90A
S31508002CB003B030BD1BF0F2F81BF0F1F8019B224679
S31508002CC00B490C4800681EF077FEF1E7054601201F
S31508002CD000F088FD0028EBD01BF0E0F81BF0DFF8C9
S31508002CE02A460549034B18681EF066FEE0E700BF52
S31508002CF024810208B82700204081020870B582683E
S31508002D00C36852F823100C88013352F823301D7813
S31508002D102946204620F001F880B9032000F062FD1C
S31508002D2000B970BD1BF0BAF81BF0B9F82B4622465D
S31508002D300B490C4800681EF03FFEF2E706460120E4
S31508002D4000F050FD0028ECD01BF0A8F81BF0A7F8FF
S31508002D5032460549034B18681EF02EFEE1E700BF10
S31508002D6064810208B82700209481020870B582B0F1
S31508002D708368C26853F822301B78134A137013F01D
S31508002D80020F0ED0114C13F0010F0CD00F4D13F09B
S31508002D90040F0AD00D4E032000F024FD38B902B006
S31508002DA070BD0B4CEFE70A4DF1E7094EF3E71BF050
S31508002DB075F81BF074F800962B4622460549064816
S31508002DC000681EF0F9FDEAE78E580020347F0208F5
S31508002DD03C7F0208487F0208B827002030B58FB02C
S31508002DE004460D4668461AF084FF0DF1200EEC469F
S31508002DF0BCE80F00AEE80F009CE803008EE803006D
S31508002E0008A9464B186820F096FD10F1880F46D1A0
S31508002E1068461AF06EFF0DF1200EEC46BCE80F006E
S31508002E20AEE80F009CE803008EE803004FF4105349
S31508002E30ADF820308023ADF822304FF44073079365
S31508002E4007A81AF066FF079B0A93354B0B93334B7B
S31508002E501A68099B0D9213F0FF0F04D123F0FF03A4
S31508002E6043F001030993012309932C4B2A46214673
S31508002E7008A820F07DFD044610BB032000F0B2FC34
S31508002E8090B9264B18681FF0F1FE0546002831D187
S31508002E90032000F0A7FC044610BB01242FE01F4BBB
S31508002EA0186820F01FFDB3E71AF0F8FF1AF0F7FFCD
S31508002EB01A4B1A681B491C4B18681EF07DFDE0E783
S31508002EC0032000F08FFC0028DBD01AF0E7FF1AF089
S31508002ED0E6FF22461549144B18681EF06DFDD0E72B
S31508002EE01AF0DCFF1AF0DBFF11490F4B18681EF0C9
S31508002EF063FD04E0032000F075FC044610B9204683
S31508002F000FB030BD1AF0CAFF1AF0C9FF2A460949A0
S31508002F10054B18681EF050FD0024F0E7302300200A
S31508002F2000014405C4810208B8270020F48102087C
S31508002F30188202083882020800B583B00021019180
S31508002F4001AA1EF001F8019910290ED0032000F0FD
S31508002F5049FC60B11AF0A2FF1AF0A1FF1022054938
S31508002F60054B18681EF028FD01E0FFF737FF03B090
S31508002F705DF804FB58820208B827002010B588B00F
S31508002F8000238DF81F3020F0F2FD654A936843F45C
S31508002F90005393600DF11F024021624B18681AF026
S31508002FA0E9FF50B36049614809F042FE032000F08A
S31508002FB019FC00283CD101245D4B1C6001A81AF0BD
S31508002FC0BFFE01A9204620F0B6FC10F1880F39D0C3
S31508002FD0032000F007FC002840F08C80544B18684A
S31508002FE01FF044FE1FF095FE0446032000F0FAFB8E
S31508002FF0002840F0898008B010BD502009F07EF9FD
S315080030000DF11F024021474B18681AF0B3FF00283C
S31508003010C8D1012000F0E6FB0028C3D01AF03EFF15
S315080030201AF03DFF4349444B18681EF0C5FCB9E742
S315080030301AF034FF1AF033FF40493F4B18681EF068
S31508003040BBFCB8E7032000F0CDFB002837D1384B8E
S315080030501A68029B069213F0FF0F04D123F0FF03B0
S3150800306043F001030293364B04934FF440730093E5
S3150800307068461AF075FE009B03934FF41053ADF89B
S3150800308004308023ADF8063001230293284B102222
S315080030902C4901A820F06CFC0446D0B9032000F0A6
S315080030A0A1FB00289AD01AF0F9FE1AF0F8FE204B78
S315080030B01A682549204B18681EF07EFC8EE71AF020
S315080030C0EDFE1AF0ECFE21491B4B18681EF074FC45
S315080030D0BDE7032000F086FB00283FF47FAF1AF017
S315080030E0DDFE1AF0DCFE22461949134B18681EF05D
S315080030F063FC73E71AF0D2FE1AF0D1FE15490E4B9F
S3150800310018681EF059FC69E71AF0C8FE1AF0C7FEDF
S3150800311022461149084B18681EF04EFC6BE700BFA3
S3150800312000C0055010550020CD3100083823002076
S315080031303023002080820208B8270020AC820208CB
S3150800314000444004CC540020C4810208B882020816
S31508003150F4810208E08202080C83020810B50446CE
S315080031601AF0A9FF10B9144B9C4205D020461AF054
S31508003170A2FF012808D010BD24F055FD0F4B18609A
S315080031800F4B01221A70F1E724F04DFD0C4B00227B
S315080031901A700A4B1B68C01A0A4B984208D84CF298
S315080031A04F339842E7D8084B18680EF0E3FBE2E77E
S315080031B01FF0C7FDDFE700BF509002083423002048
S315080031C057520020A08601003823002000B585B09C
S315080031D01FF048FD60B9FFF7CDF9164B1B680022B2
S315080031E01A70144B1B6800221A7005B05DF804FBB0
S315080031F09DF80030032262F304038DF800309DF831
S3150800320000306FF346138DF800301C238DF8043018
S3150800321002228DF80D209DF800208DF80520064A1B
S31508003220937201A81AF04AFD044A137883F0010341
S315080032301370D6E738230020202300205852002098
S31508003240014B1878704700BF5852002000B97047E4
S3150800325010B50446032000F0C5FA00B910BD1AF0EF
S315080032601DFE1AF01CFE22460249034B18681EF082
S31508003270A3FBF3E724830208B827002010B5A0F1C2
S315080032809003062B68D8DFE803F0042B3A676749F2
S315080032905800032000F0A6FA50B9032000F0A2FA5D
S315080032A080B9364B1988364B18680EF06EFB10BD80
S315080032B01AF0F4FD1AF0F3FD3249334B18681EF084
S315080032C07BFBEAE71AF0EAFD1AF0E9FD2E4B1C68CB
S315080032D01FF0F0FC02462D4920461EF06DFBE0E784
S315080032E0032000F07FFA0028E1D01AF0D7FD1AF083
S315080032F0D6FD2749244B18681EF05EFBD7E7012048
S3150800330000F070FA0028D2D01AF0C8FD1AF0C7FDEE
S3150800331020491D4B18681EF04FFBC8E7012000F036
S3150800332061FA0028C3D01AF0B9FD1AF0B8FD1A4997
S31508003330154B18681EF040FBB9E7032000F052FA57
S315080033400028B4D01AF0AAFD1AF0A9FD13490E4BAD
S3150800335018681EF031FBAAE70446032000F042FA7B
S315080033600028A4D01AF09AFD1AF099FD22460C49B5
S31508003370054B18681EF020FB99E700BF1858002077
S315080033803823002030830208B82700203C8302082F
S31508003390648302087483020894830208B8830208C7
S315080033A0D483020808B524F03EFC0C4B1B782BB1DD
S315080033B00B4B1B68C01A0B4B984206D81FF052FCE1
S315080033C038B109481AF076FF08BD07481AF077FFA2
S315080033D0F4E705481AF073FFF6E700BF57520020D6
S315080033E034230020A08601008090020810B580B121
S315080033F00446012000F0F6F900B910BD1AF04EFD9A
S315080034001AF04DFD22460A490A4B18681EF0D4FAEE
S31508003410F3E7032000F0E6F90028EED01AF03EFDA7
S315080034201AF03DFD0449034B18681EF0C5FAE4E797
S31508003430EC830208B827002014840208F0B583B08C
S3150800344004460D4616461F46032000F0CBF908B978
S3150800345003B0F0BD1AF022FD1AF021FD019700967F
S315080034602B4622460249034800681EF0A5FAEFE7F4
S315080034702C840208B827002008B5024B1B6803B144
S31508003480984708BD6C23002008B5024B5B6803B15A
S31508003490984708BD6C23002008B5024B9B6803B10A
S315080034A0984708BD6C23002008B5024BDB6803B1BA
S315080034B0984708BD6C23002008B5024B1B6903B169
S315080034C0984708BD6C23002008B5024B5B6903B119
S315080034D0984708BD6C23002000B585B0094B1868CD
S315080034E0094B1860094B0A4A13600A4A01920A4AAC
S315080034F012680292039301A91DF048FD05B05DF814
S3150800350004FB00BFF85400202C320020EC540020A5
S3150800351028320020309002084026002008B5024BC9
S3150800352018681DF047FD08BDF854002038B507F0A7
S315080035307DFE0446064D2B68D3F8B00207F06AFEF6
S3150800354028681DF051FD204607F064FE38BD00BF0F
S31508003550F854002008B5034824F0E8F9024800F0BA
S3150800356099FE08BD6C930208FC540020002306202F
S3150800357073B1704754B224B9013353B15DF8044BA3
S3150800358070470228F8D008680A4908601046F3E729
S3150800359010B4094A52F823100A7A022AEAD9032AE9
S315080035A0EAD1441EE4B2012CE6D90868014908604C
S315080035B01046E1E7402600201455002010B5A2B0B9
S315080035C02024224600211AA822F0E7FA314B1A9342
S315080035D04FF4E1331C9302238DF8753003238DF8DD
S315080035E076302D4B1E930A238DF87E3009238DF8ED
S315080035F080300021159116911791189119914FF461
S3150800360080131593254B19931091119112911391CB
S315080036101491234B1093234B14933C2201A822F0B8
S31508003620BCFA0DF1040E0DF1540CBCE80F00AEE81F
S315080036300F00DCF80030CEF800300DF1180E0DF151
S31508003640400CBCE80F00AEE80F00DCF80030CEF8FE
S315080036500030154B0B930C9401238DF834308DF8FC
S3150800366035308DF83630114B0F93114B1AAA01A934
S31508003670104807F087FE04469DF837303BB1002115
S315080036804FF4E1301AF064FC204622B010BD032145
S31508003690F6E700BF90930208749302083C00015BAA
S315080036A0010010004400015B442600202855002034
S315080036B0642600202027002008B531B9084B186871
S315080036C0036823B108F074FA01E0012900D908BD9E
S315080036D0034B18680368002BF9D01EF04FFCF6E779
S315080036E03C55002008B50349034808F0D5FBFFF709
S315080036F065FF08BD405500204827002008B5024848
S315080037001EF0A0F908BD00BF2027002008B5024812
S315080037101EF098F908BD00BF2027002008B5024B07
S315080037205A6A1868904708BD2027002008B502483D
S315080037301AF0BAFC08BD00BF5090020808B5034845
S315080037401AF0B3FD02481AF0B0FD08BD80900208D1
S315080037506890020818B1034A1060002070472520B7
S31508003760704700BF5027002010B5044C0449206854
S3150800377002F028FC2068FFF7EDFF10BD7C560020FC
S3150800378058550020014B1868704700BF5027002085
S3150800379000B583B00B4605490978019100920022CD
S315080037A001211FF0A7FA03B05DF804FB8E5800202C
S315080037B010B50446032000F015F820B9A179A068D1
S315080037C01AF068FB10BD1AF069FB1AF068FB03498A
S315080037D0034B18681EF0F0F8F0E700BF989002084F
S315080037E0B827002003460B4A107828B10A4A1278EF
S315080037F09A4202D2002000E00120084A12783AB123
S31508003800074A127842FA03F313F0010F00D1002099
S31508003810704700BF91580020905800205A52002047
S315080038208F58002008B5084B01221A70074B002252
S315080038301A70074B04221A70064B1F221A7007F0DB
S31508003840F5FC054B186008BD915800205A52002017
S31508003850905800208F580020B827002008B5054842
S3150800386024F064F81AF0B3FA01201AF03EFB00F0CF
S31508003870B1F808BD6C93020808B5024824F056F85A
S3150800388008BD00BF6C9302082DE9F04180460F463B
S3150800389001F109050026344604E05B21082000F002
S315080038A0C1FA0134AC4233D2052C1BD801A353F814
S315080038B024F000BF9B380008CD38000801390008FD
S315080038C0D5380008D9380008DD380008FBB20433BB
S315080038D0D9B2E3E78021E1E70021DFE7731C31462F
S315080038E0DEB2DBE7BB1DA3420CD0FB1DA3420BD007
S315080038F007F10803A34209D0A31F18F80310CDE760
S31508003900D121CBE75A21C9E75A21C7E75D21C5E787
S315080039100020BDE8F08100BF00B583B00023009306
S315080039200193FFF72FFF114B186001238DF8003024
S3150800393090F8363093B100200C4B1B6893F835107D
S3150800394002290FD003290FD11AF0E5FA01900821B0
S315080039506846FFF799FF03B05DF804FB00681CF0A2
S315080039609BFEE9E70321EFE70021EDE7BC270020EE
S3150800397000B583B000220092019202218DF8001052
S3150800398005481AF0CDFA019008216846FFF77CFF32
S3150800399003B05DF804FB00BF006A180000B583B0E9
S315080039A0044B1B88ADF8043001A800F017FB03B0E0
S315080039B05DF804FBA890020800B583B0044B1B8889
S315080039C0ADF8043001A800F0D9FA03B05DF804FB9D
S315080039D0A89002082DE9F04F97B04D4D09AC2E1D61
S315080039E00FCE0FC43368236001AC05F118060FCE5D
S315080039F00FC496E80F0084E80F00464823F096FFA8
S31508003A00454823F093FF01268DF8096000248DF8B8
S31508003A100840424B0B9301AB0D93414F09A9384619
S31508003A201CF0F8FCB5F838B0ADF838B032460421C9
S31508003A300EA800F067FAB5F83CA0ADF83CA02246FF
S31508003A4031460FA800F05EFAB5F84090ADF8409000
S31508003A503246042110A800F055FAB5F80080ADF8F2
S31508003A6044803246042111A800F04CFA2D4D2E4B05
S31508003A70C5F8F8344FF00213C5F8F434A3F58033CB
S31508003A80C5F8FC341C23C5F8E4344FF4487009F033
S31508003A906DF8FFF783FF142009F068F8FFF78CFF2D
S31508003AA0232009F063F8FFF779FFB92138461CF09F
S31508003AB099FCFFF781FFADF848B02246214612A8C7
S31508003AC000F020FAADF84CA02246214613A800F0D3
S31508003AD019FAADF850903246214614A800F012FAA9
S31508003AE0ADF854803246214615A800F00BFA384640
S31508003AF003F0EAFDC5F8E444C5F8F844C5F8F4440B
S31508003B00C5F8FC44044823F016FF17B0BDE8F08F4B
S31508003B10A89002086C93020870930208E07072007D
S31508003B2000000A5000C003500200030008B504480C
S31508003B30044A121A921004491AF045FA08BD00BF41
S31508003B408001000880030008C052002008B5154B04
S31508003B5083F30A8800F030F8FFF7E8FF124A0AE014
S31508003B601068516850F8230041F823000133916822
S31508003B708B42F5D30C320D4B9A4201D20023F6E75D
S31508003B800B4A08E01168002041F823000133516808
S31508003B908B42F7D30832074B9A4201D20023F6E745
S31508003BA0FEF78CFB00000020C8D70208D4D702080D
S31508003BB0D4D70208D4D7020870B5134B134A9A60B3
S31508003BC0D3F8882042F47002C3F88820104A4FF4CC
S31508003BD0804191660F4D05F500544FF0FF3222667D
S31508003BE00D4A62660222C3F8D020BFF34F8FBFF397
S31508003BF06F8F002007F0E4FA4FF44036E6600020A5
S31508003C001DF085FE2E6170BD00ED00E00000000885
S31508003C1000900050008000447FFF7F01014B186030
S31508003C20704700BF8456002008B5064B1860064B3F
S31508003C301B6F03F00703032B00D008BD22F034FAEC
S31508003C40FBE700BF8C56002000800050BFF34F8F63
S31508003C500549CA6802F4E062044B1343CB60BFF31C
S31508003C604F8F00BFFDE700BF00ED00E00400FA0536
S31508003C70F0B18446F1B110B409E004F120000FE078
S31508003C802033C01A18D1BCB10CF1010C01319CF8D3
S31508003C9000400B4B1B5D03F00303012BEDD02046C0
S31508003CA00B78074AD25C02F00302012AE9D1E7E75A
S31508003CB001207047012070475DF8044B704700BF2C
S31508003CC08DD6020830B587B00546046823798DF885
S31508003CD00C3063798DF80D301B4823F027FE00223F
S31508003CE0012103A800F00EF90DF10B0103A81AF043
S31508003CF0A5FA9DF80B3083F001032370A379022BF4
S31508003D0002D0002007B030BD4FF0FF33059304936F
S31508003D1000950E4B002205A903A800F02FFA059B73
S31508003D20B3F1FF3F07D00095084B012204A903A869
S31508003D3000F084F9E5E70095044B042204A903A8DA
S31508003D4000F07CF9DDE700BF6C930208C5E00108C6
S31508003D5010B582B0002401942A4823F0E7FD8DF8B7
S31508003D60004003238DF8013001220421684600F043
S31508003D70C9F8254B0122C3F8442401A9052023F0DC
S31508003D80CEFD00283BD1214BD3F8F02042F00102AA
S31508003D90C3F8F020D3F8FC2042F08072C3F8FC2068
S31508003DA0A3F55D431A4A1A60019B03F5D52303F26E
S31508003DB0FC43DB08174AA2FB03239B0A013B164A6E
S31508003DC013610223C2F8F0304FF48073C2F804334B
S31508003DD04FF06043114AC3F8B02F114AC3F8802E3A
S31508003DE0D3F8002E42F48072C3F8002EFF2283F81F
S31508003DF02020D3F8002E22F48072C3F8002E02B0D9
S31508003E0010BD00BF6C93020800D0035000ED00E01F
S31508003E10FF03004017916502000004E055CEACC5CB
S31508003E20090001004FF06043D3F8803E13F0010FFC
S31508003E3001D1112070470E4AD2F8FC3043F0807346
S31508003E40C2F8FC304FF06043D3F8002E4FF0010C57
S31508003E500CFA00FC42EA0C02C3F8002E53F8203094
S31508003E60002BE8D04FF0604303F82010002070477D
S31508003E7000ED00E010B504460FE00123834024EA74
S31508003E8003040F2814D800EB40020E4B03EB820301
S31508003E905A6812B19968C0B2904794B12346002077
S31508003EA01F28EAD813F0010FE7D101305B08F7E7BE
S31508003EB0103800EB40039B00B033024A1344043326
S31508003EC0E6E710BDC027002008B50D4823F02EFDF3
S31508003ED01A2007F03BF928B91B2007F037F940B933
S31508003EE0002008BD1A2007F06BF91A201DF00FFDF7
S31508003EF0F2E71B2007F064F91B201DF008FDEFE729
S31508003F006C9302082DE9F04170B30C461746054636
S31508003F100F292BD803784BB1022B20D0032B21D0A5
S31508003F20012B01D0002303E07F2301E040F2FF7359
S31508003F306A78D34013F0010F1AD00F4BD3F81063E9
S31508003F40C6B923F0EEFB80463A462146284604F0D9
S31508003F5045FB404623F0E0FB3046BDE8F08140F2E1
S31508003F60FF33E5E73F23E3E72226F5E72126F3E7D4
S31508003F702126F1E70226EFE700C0035040B310B54B
S31508003F80044603784BB1022B1DD0032B1ED0012B00
S31508003F9001D0002303E07F2301E040F2FF7362783B
S31508003FA0D34013F0010F15D023F0BBFB23786278BA
S31508003FB00121914003EB43031B01074AD15023F02B
S31508003FC0ABFB002010BD40F2FF33E8E73F23E6E7EE
S31508003FD0222070472120F5E740D0035040B310B5A2
S31508003FE0044603784BB1022B1DD0032B1ED0012BA0
S31508003FF001D0002303E07F2301E040F2FF736278DB
S31508004000D34013F0010F15D023F08BFB2378627889
S315080040100121914003EB43031B01074AD15023F0CA
S315080040207BFB002010BD40F2FF33E8E73F23E6E7BD
S31508004030222070472120F5E740E00350002866D08B
S315080040402DE9F0410C4615461F460646002960D064
S3150800405002784AB1022A3ED0032A3FD0012A01D06B
S31508004060002303E07F2301E040F2FF737178CB4021
S3150800407013F0010F01D1FF2A4DD1022D01D9042DCC
S315080040804BD123F04EFB80463378FF2B28D123688B
S31508004090B3F1FF3F2BD02268B2F1FF3F32D0204B5D
S315080040A002EB420203EB82025760226802EB4202ED
S315080040B003EB8203069A9A603378FF2B05D02268B1
S315080040C001239340174AC2F82434404623F024FBC0
S315080040D00020BDE8F08140F2FF33C7E73F23C5E77C
S315080040E02A462168304604F0E3FA2060CFE73378A1
S315080040F0FF2BD0D10C4BD3F8241470781CF004FB9A
S315080041002060C8E7404623F007FB2D20E1E7222080
S3150800411070472220DDE72120DBE72120D9E700BF11
S31508004120C027002000D0035000C00350B0F1FF3F65
S315080041301AD038B504460F2818DC002818DB23F0F7
S31508004140F0FA0123A3400B4AC2F82034C2F82434FB
S31508004150094B04EB440203EB820200255560956087
S3150800416023F0DAFA284638BD212070472120FAE7DD
S315080041702120F8E700E00350C0270020002856D089
S315080041802DE9F0410C4617461E460546002950D033
S31508004190017849B1022939D003293AD0012901D039
S315080041A0002303E07F2301E040F2FF736A78D340DF
S315080041B013F0010F01D1FF293DD123F0B2FA804651
S315080041C02B78FF2B27D12268B2F1FF3F2AD01B4B51
S315080041D002EB420203EB8202C2F8B860226802EBE5
S315080041E0420203EB8203069AC3F8BC202B78FF2B06
S315080041F006D02268103201239340114AC2F82434AB
S31508004200404623F089FA0020BDE8F08140F2FF33EA
S31508004210CCE73F23CAE73A462168284604F0E8FA7D
S315080042202060D0E7404623F077FA2D20ECE72220DD
S3150800423070472220E8E72120E6E700BFC0270020D4
S3150800424000D0035008B5084BD3F82404D3F820242B
S31508004250104000F0553020F0502003F50053C3F805
S315080042602004FFF707FE08BD00C0035008B5084B39
S31508004270D3F82404D3F82024104000F0AA3020F004
S31508004280A02003F50053C3F82004FFF7F3FD08BD8B
S3150800429000C0035070B586B005460368B3F1B64F43
S315080042A027D0304A934222D04FF0FF36B3F1B64FAB
S315080042B021D02C4A934252D12B4823F037FB2B7935
S315080042C08DF804306B798DF80530AB798DF80030B0
S315080042D0EB798DF8013001220A2101A8FFF712FEB9
S315080042E001220A216846FFF70DFE002412E0012686
S315080042F0DCE70026DAE71D48DFE701A8FFF76EFED0
S31508004300642008F033FC01A8FFF738FE642008F0A3
S315080043102DFC0134092CF0DD154A02EB06110323A6
S31508004320C1F8383568792B7943EA0043C1F83C353A
S31508004330E979AB7943EA01435436360193510123AF
S315080043408DF808308DF80930EB680493AB68039351
S315080043502B7C8DF8143002A9286803F0B7FC06B048
S3150800436070BD00BF00800650649302086893020877
S3150800437000C0035038B5054603F04EFE054B01282C
S3150800438006D15C1E23B1284603F0C2FC2346F6E795
S3150800439038BD00BFE093040010B582B004460A4851
S315080043A023F0C4FA23788DF8043063788DF8053045
S315080043B0A278B2FA82F2520904210DEB0100FFF746
S315080043C0A1FD002002B010BD6C930208F0B585B0BF
S315080043D00C4694469DF83410664A1278002A00F076
S315080043E0BD800546BCF1070F00F2BA800A9A002A7A
S315080043F000F0B8800B9A002A00F0B6800E9AB2F543
S31508004400006F00F3B38001285BD05B4A02EB0C1205
S31508004410127B002A00F0AC800022009201920292E0
S315080044200392564A02EB4C1E002C4FD14FEA4C160B
S3150800443000209051CEF80400CEF80800CEF80C0003
S315080044409EF8020040F010008EF802009EF8030065
S3150800445040F030008EF8030021B9C1B241F00301E3
S315080044608EF8031000930E9B013B444A4FEA4C100A
S3150800447002EB4C11165A63F30E1616520A9B8B6002
S315080044800B9B4B60CB789DF83C2062F38303CB7083
S31508004490012D36D0109B002B56D0374A4FEA0C1107
S315080044A002EB0C1310985050119A5A6000249C6025
S315080044B05D7372466946604603F048FE204605B0BD
S315080044C0F0BD0C9A002AA0D12D48F8E72B4F4FEAE9
S315080044D04C1607EB4C120020B85150609060D06023
S315080044E0907840F010009070D07840F00300D070BB
S315080044F00029B7D107EB4C12C1B241F03001D17097
S31508004500B0E70E460A7B42F001020A73D2B242F0C5
S3150800451002020A73CA68042161F39F02F26006F177
S31508004520100796E80F0087E80F00F2696FF003019D
S3150800453061F39F02F2610C9B7361012CAAD10B9A5D
S31508004540B2610C9A7260A5E7002DA6D10B4B03EB5E
S315080045504C139A786FF304129A709EE70948AEE7EF
S315080045600748ACE70648AAE70548A8E70448A6E7C7
S315080045700548A4E75B520020282A002028290020A5
S31508004580018000F0028000F0078000F0134B1B78D2
S31508004590FBB110B50446F0B123F0C3F80023072B8E
S315080045A013D80F4A02EB0312127B0AB10133F6E75E
S315080045B023600B4A190102EB031301241C73002420
S315080045C0545023F0A9F8204602E023F0A5F8054840
S315080045D010BD054870470548FAE700BF5B52002042
S315080045E0282A0020048000F0028000F0018000F0F4
S315080045F038B523F096F804460023072B06DC0C4A48
S3150800460002EB0312127B12B90133F6E7002222B13C
S31508004610204623F081F8074838BD03F043FD0025FE
S31508004620054B1D70204623F077F82846F4E700BFAF
S31508004630282A0020058000F05B5200200F4B1B78CB
S31508004640BBB110B50446072815D823F06AF80C4BF9
S3150800465003EB04131B7B1BB923F05EF809480BE038
S31508004660074B03EB041300241C7323F055F820466C
S3150800467002E005487047054810BD00BF5B520020A0
S31508004680282A0020068000F0028000F0018000F051
S3150800469000B583B0134B1B68019300238DF80430D3
S315080046A023F03FF8104B1B7833B90F4B01221A70D1
S315080046B023F032F8002309E023F02EF80B480EE029
S315080046C00B4A02EB0312002111730133072BF7DDA6
S315080046D008238DF8073001A803F008FD002003B071
S315080046E05DF804FBEC9002085B520020038000F0A2
S315080046F0282A002010B5104C2478BCB1072817DCEE
S315080047000E4C04EB0014247BA4B10C4C4FEA001E9B
S3150800471004EB001C44F80E30029BCCF8043000244D
S31508004720CCF8084003F012FD204610BD0448FCE70B
S315080047300448FAE70448F8E75B520020282A0020D4
S31508004740028000F0018000F0078000F008B50A4BEF
S315080047501B785BB107280BD8084B03EB00131B7BB0
S3150800476043B1002103F0B4FC002008BD0448FCE76F
S315080047700448FAE70448F8E75B520020282A002094
S31508004780028000F0018000F0078000F008B50A4BAF
S315080047901B785BB107280BD8084B03EB00131B7B70
S315080047A043B1012103F094FC002008BD0448FCE74E
S315080047B00448FAE70448F8E75B520020282A002054
S315080047C0028000F0018000F0078000F0F8B5194B70
S315080047D01F6D5B6D1F4002D40125002402E0FEE731
S315080047E001346D00072C24D83D42F9D0124B1D65C3
S315080047F02301124AD358002BF2D002EB0416B168F3
S315080048000131B16072682046984780F00100C0B255
S31508004810737B012BE4D10028E2D0094B03EB441348
S315080048201A7B6FF341021A731A7F6FF341021A77E4
S31508004830D6E7F8BD0000045000200450282A0020BE
S31508004840282900202DE9F04F89B005460E46144662
S315080048509846C36B5B69012207A960689847EB6BAA
S315080048605B69012206A93046984707A81AF08EFF09
S3150800487048B10027A77567754FF0FF33A360384620
S3150800488009B0BDE8F08F074606A81AF08FFF012386
S31508004890A375237E033304EBC3035E6000221A81EB
S315080048A06368B3422AD02368834201D00023A375E4
S315080048B006A81AF0A0FF237D984201D00023A3750D
S315080048C006A81AF077FF814607A81AF073FF8145F4
S315080048D001D00023A37506A81AF074FF814607A81D
S315080048E01AF070FF814501D00023A375237D043B90
S315080048F0DBB2022B0BD80023A375C0E7206006A8FD
S315080049001AF079FF20754FF0FF33A360EEE706A88B
S315080049101AF050FF80B1EB6B5B69022204A930469E
S31508004920984704A81AF059FF0346207D032868D83B
S31508004930DFE800F0615B070D06A81AF04EFF034694
S31508004940F3E7237E033304EBC303CC221A811AF060
S3150800495062FF129B187094F8189006A81AF01DFFAB
S3150800496009F1030904EBC90989F80A00237E033310
S3150800497004EBC303B3F808A093F80AB006A81AF024
S3150800498019FF814606A81AF01DFF0390B9F1000F1A
S315080049903DD0EB6B5B69022204A93046984704A810
S315080049A01AF0D7FE6075637D03B9A375A37DA3B11D
S315080049B0BAF1000F11D0039BF1186B6C5B4286EAC3
S315080049C001021A4201D00023A3756B6C5A1E0A40D5
S315080049D09B1A9A4501D90023A375A37D002B40D0C5
S315080049E0BBF1000F18D1E77D3CE0227E033204EBD1
S315080049F0C2021381ABE7227E033204EBC2021381A3
S31508004A00A5E7227E033204EBC20213819FE706A8BC
S31508004A101AF088FE6075C6E70122E275627EBAB9A9
S31508004A20BBF1010F08D095F83470DFB9EA6AB2F124
S31508004A30FF3F05D01F4615E001216176174611E0B4
S31508004A40BBF1030F01D01F460CE00122A27609E054
S31508004A50BBF1010F37D0BBF1030F03D10122A276B8
S31508004A6000E01F4653B117B1BBF1010F06D95346F3
S31508004A70039A3146284619F0CCFFA060A37D13B1EE
S31508004A80236953442361237E114A127893421CD228
S31508004A9001332376B8F1000F13D0A37D8BB1E37DE4
S31508004AA07BB177B9BBF1030F0BD0A168B1F1FF3F1A
S31508004AB007D0129B0093012322462846FFF7C2FE21
S31508004AC0A075A77DDBE61746CCE70023A375E1E7CB
S31508004AD0109102082DE9F04F89B005460F46924617
S31508004AE09B4600238DF80B304FF0FF31104600F03F
S31508004AF0EFFFB7F5801F1DD30023009317F1020FB0
S31508004B0007D0009B002B40F09E802B7C002B00F0EA
S31508004B108C80EB6AB3F1FF3F2CD02A689B1A6A6C2B
S31508004B20B3FBF2F917F1020818BF4FF0010800238A
S31508004B3001935DE00DF10A02394605F1080000F01F
S31508004B4017FF0146B0F1FF3F11D0504600F0C0FFF5
S31508004B500DF10B0301225146284619F0D9FF0090A2
S31508004B600028CBD09DF80B308BF80030C6E7002321
S31508004B700093C3E7696A284619F06CFE8146D1E7B7
S31508004B800123019337E09DF80B308BF80030324B48
S31508004B901A683249504621F027F800942F4B996835
S31508004BA0B1F1FF3F1BD06B6C5B4281EA06021A42E9
S31508004BB015D12A4C204600F08BFF0DF10B03424617
S31508004BC02146284619F0A4FF04460028E6D017F126
S31508004BD0020FD8D0214B1B68BB42DFD1D3E7494629
S31508004BE0284619F037FE8146019BCBB9009BBBB915
S31508004BF06B6A4B45C4D02C686B6C03FB0944EB6BA2
S31508004C005B69052203A92046984703A81AF09AFE6D
S31508004C101AF0BFFE20461AF0C8FE06460146BFE750
S31508004C20009BA3B1B7F5801F03D3009B8BB100206F
S31508004C300AE09BF80030DAF80420394605F1080046
S31508004C4000F0B4FEF1E7002009B0BDE8F08F2D2092
S31508004C50FAE72D20F8E700BF0C9102081C31002066
S31508004C6070B582B004464FF0FF33C3620DF10703F7
S31508004C701A4A6FF00101FFF72DFF20BB174B9B68FF
S31508004C80E362E56A2946204619F0D5FB2063E8B1B8
S31508004C902946204619F0ADFE0546A36AAB421BD04D
S31508004CA02946204619F0C7FB0646236B03442363AF
S31508004CB02946204619F09DFE0546002EEDD1002313
S31508004CC02363E062E9E7A36AE362DAE7E16A20467A
S31508004CD019F08FFEE062DBE702B070BD48310020B4
S31508004CE030B583B01C46032A14BF002201221B7E5E
S31508004CF09A4202D0012003B030BD0D4609682368E8
S31508004D009942F7D363689942F4D80DF10703114A1B
S31508004D10FFF7E0FE0028EDD10E4B5A686B689A4201
S31508004D20E8D19DF80730032B14BF00230123227E08
S31508004D309342DFD16369013363612369E268934271
S31508004D40D8D2A268296842F823102369013323615F
S31508004D50D0E700BF483100202DE9F04182B0044673
S31508004D600E4690461F46816A06E01A4B9968B1F1CD
S31508004D70FF3F1FD0012E23D0E06A884217D0B1F139
S31508004D80FF3F14D0134D284600F0A2FE0DF107038D
S31508004D9001222946204619F0BBFE0028E5D03B46ED
S31508004DA09DF8072029462046C0470028DDD102B0D5
S31508004DB0BDE8F0815968204619F01BFE0146D9E77F
S31508004DC0044B5A68636C5B424A401A42D4D04FF08F
S31508004DD0FF31D1E7F030002010B50446083000F066
S31508004DE08DFD0023024A19462046FFF7B5FF10BD80
S31508004DF0FFEA010838B50446037C0BBB0246134993
S31508004E00083000F01DFE616A204619F045FD421C77
S31508004E10616A204619F096FC054620B9236B626C38
S31508004E201344143B2363A16A204619F0E2FDA062ED
S31508004E302368C01A636CB0FBF3F06062284638BD7D
S31508004E400023034A0121FFF787FFDCE797EE0108F5
S31508004E5065EE0108F0B589B080B30F4616461D46C3
S31508004E60044690F834301BB90025284609B0F0BD31
S31508004E70012119F03CFC01950E9B029303970496B9
S31508004E800023059306939DF83C308DF81C30237C4F
S31508004E905BB901AA0A4904F1080000F0D1FD5EB920
S31508004EA0069D204619F0C5FEDFE701AB054A00213D
S31508004EB02046FFF751FFF2E7059DF2E70025D4E704
S31508004EC0B3E60108E14C0008F0B58BB004460D4680
S31508004ED0406AE36B5B69052205A92668676C07FBD0
S31508004EE00060984705A81AF02DFD012836D00094D1
S31508004EF0002301938DF80850039301238DF8103091
S31508004F00A16AE36A99420FD0237CBBB96A46144961
S31508004F1004F1080000F094FD019B13B99DF81030C8
S31508004F209BB901980BB0F0BD204619F062FDE0620E
S31508004F30236B626C9B1A14332363EDE76B46094AAD
S31508004F4001212046FFF708FFE6E7626A2368616CDD
S31508004F5001FB0231E06B1AF0A7FCE2E70020E1E76B
S31508004F606D510008ED5000082DE9F04F89B0044650
S31508004F708A4691461D46002307930969026BCB1D95
S31508004F80406C1438B3FBF0F3013301EBC3019142D3
S31508004F9000F2A7804E4677E03D2840F092800490C4
S31508004FA0BB4605961EE04FF000092368616C01FBBD
S31508004FB00631E06B1AF064FC204619F0A2FB204685
S31508004FC019F03EFD2063B9F1000F76D0DAF810200B
S31508004FD0D31D616C1439B3FBF1F3013302EBC30241
S31508004FE090423AD32368ABEB0309606CB9FBF0F93E
S31508004FF009FB00301AF0D9FC8046E16A204619F010
S31508005000F8FCA36A83422CD0E062374B9A68616C3D
S315080050104B1E1340226B5B1A13442363ABEB080742
S315080050202368079EF61AB6FBF1F6B145BBD197B1D0
S31508005030E36B9B69BA08414698478146E36A3B4455
S31508005040E362236BA8EB0B084344236304F10800CF
S3150800505000F054FCA9E7B946A7E7DDF810B0059EAD
S3150800506002E0DDF810B0059EBBF1000F29D0DAF892
S315080050701000226BC31D616C1439B3FBF1F30133C5
S3150800508000EBC30082421CD3E76ADFF85C8039462E
S31508005090404600F01DFD07AB0293019500963B467E
S315080050A042465146204619F0EFFF834600287FF412
S315080050B073AFD8F80830E362D6E7DDF810B0059E7E
S315080050C0D2E75F461FB1384609B0BDE8F08F2B46D8
S315080050D0054A5268DAF8001004F1080000F066FC88
S315080050E0F1E71C27EFE700BF1C310020F0B583B0BD
S315080050F01C46032A05D1237A012B33D0012003B09D
S31508005100F0BD06460F4615460DF10703164A09680F
S31508005110FFF7E0FC60600028EDD19DF80730032B0F
S31508005120E9D0114B5A687B689A42E4D1237A012B5D
S3150800513008D13B69E26813447269934202D9002395
S315080051402374D8E7E3683A6913440833E3602B46C7
S31508005150012239463046FFF707FF60600028CAD0AB
S315080051600020CCE7207CCAE748310020F0B583B0A0
S31508005170089C2668032A05D1237A012B4DD00120E5
S3150800518003B0F0BD15460DF10703254A3046FFF773
S31508005190A1FC60600028EFD12168214B5A688B6A10
S315080051A0486CC0F1000C5A4012EA0C0FE4D1227A7E
S315080051B0012A19D00F68DB1BB3FBF0F3CA6AD21BAE
S315080051C0B2FBF0F29A4219D0E36815490A6913440A
S315080051D00833E3602B4601222068FFF7C5FE6060AE
S315080051E00028C9D00020CBE70D4A1269E7683A447F
S315080051F07769BA42DED900232374BDE7726CF16A77
S31508005200531E0B40316B9B1A0B4433632668B16AF5
S31508005210304619F0EEFBF062D6E7207CB0E700BF17
S3150800522048310020F8B56E4B1E6800221A60002827
S3150800523000F0B6800D46044690F8343013B30A6879
S3150800524003689A4240F0AE804A6843689A4240F042
S31508005250AC808A6883689A4240F0A980CA68C368A5
S315080052609A4240F0A6800A6943699A4240F0A380B0
S315080052708A69C36B9A4201D05D2594E04B698361C4
S31508005280002590E0876B6822002120F086FCA76342
S315080052902B6823606B6863602B6963616B69A36124
S315080052A0EA68A96804F1080000F03AFBAB69E36311
S315080052B09B6804F14000984730B9636C23B1626873
S315080052C0B2FBF3F2E26101E00023E36194F84330B4
S315080052D0002B72D000232366656C002D6FD0E3691E
S315080052E0002B6ED02368B3FBF5F205FB1233002BB7
S315080052F069D16768B7FBF5F305FB1373002B64D117
S31508005300204619F088F8A369034404339F425ED304
S315080053106369B3F5805F5CD8CB2B5CD9B5F5805F44
S315080053205BD30321204619F0E2F9E36B1B68616839
S31508005330206898470546E36BDB6802209847EDB17D
S31508005340636C143B5DB9266A03FB06F6204619F022
S3150800535062F8A369034404339E4200D25A25B5FA7B
S3150800536085F35B0984F834301BB11E4A1368013390
S31508005370136085B1204619F05CFC14E031462046DE
S3150800538019F0DAFB05466428DAD13146204619F0C9
S31508005390D3FB0546D4E7616820681AF066F9E9E7A1
S315080053A0212500E05D252846F8BD5D25FBE75D253E
S315080053B0F9E75D25F7E75D25F5E72125F3E75B25A1
S315080053C0F1E75B25EFE75925EDE75925EBE75A2580
S315080053D0E9E75F25E7E75F25E5E75B25E3E700BF44
S315080053E0AC2A0020A82A0020F0B585B0A8B30C4640
S315080053F017461E46054690F8343083B3B1F5801F2C
S315080054002FD2012119F073F90DF10F03164A21461F
S315080054102846FFF75FFB044630B99DF80F30012B8D
S3150800542008D0022B17D02D24284619F002FC204656
S3150800543005B0F0BD0C4B1B69B34201D06324F3E7FA
S3150800544000220192084B009333463946284619F044
S31508005450F8FB0446E8E76024E6E72124E7E7112499
S31508005460E5E72924E3E700BF74310020F0B585B0ED
S31508005470002838D00C4617461E46054690F83430A4
S315080054809BB3B1F5801F32D2012119F030F90DF125
S315080054900F03184A21462846FFF71CFB044630B975
S315080054A09DF80F30012B08D0022B1AD02D24284640
S315080054B019F0BFFB204605B0F0BD0E4B1A690A9BD2
S315080054C0F3189A4201D26324F1E700230193094BAA
S315080054D000930A9B32463946284619F0B2FB044621
S315080054E0E5E76024E3E72124E4E71124E2E7292439
S315080054F0E0E700BF7431002070B582B058B30C469F
S315080055001646054690F834303BB3B1F5801F26D2CF
