:020000040800F2
:1000000000200020AD3F0008A3D90108A3D90108B2
:1000100081220208A3D90108A3D90108A3D90108A4
:10002000A3D90108A3D90108A3D90108A3D90108BC
:10003000A3D90108A3D90108A3D90108A3D90108AC
:10004000A3D90108A3D90108A3D90108A3D901089C
:100050008D690008A3D90108A3D90108A3D9010813
:10006000A3D90108A3D90108A3D901086D3B000851
:100070005D3B0008A3D90108A3D90108A3D9010851
:10008000A3D90108A3D90108A3D90108A3D901085C
:10009000A3D90108A3D90108094C0008A3D9010874
:1000A000A3D90108A3D90108CD460008A546000838
:1000B000A3D90108A3D9010829AD0108D5B70108C2
:1000C0009B5302089753020889AF0108B1530208F5
:1000D0009F530208A5B70108A353020839B80108C5
:1000E00071B80108A3D90108A3D90108F9C800080B
:1000F000A3D90108A3D90108A3D90108A3D90108EC
:10010000A3D90108A3D90108A3D90108A3D90108DB
:10011000A3D90108A3D90108A3D90108A3D90108CB
:10012000A3D90108A3D90108A3D90108A3D90108BB
:10013000A3D90108A3D90108A3D90108A3D90108AB
:10014000A3D90108A3D90108A3D90108A3D901089B
:10015000A3D90108A3D90108B76E020815920108B6
:10016000A3D90108A3D90108355302083B5302085B
:10018000194A5AB3194BDB6913F0040F29D110B483
:100190000AE003EA00048C4210D0013AB2B1134BDA
:1001A000DB6913F0040F14D110F0010FF1D1104CE2
:1001B0001C40002CEDD06FF001000CE00C4A1A40FE
:1001C0000AB9002007E06FF0010004E06FF00200C0
:1001D00001E04FF0FF305DF8044B70476FF0020014
:1001E00070474FF0FF307047809698000000035032
:1001F000020001000D4BDB6913F4803F12D170B592
:100200000A4B03F580560124F46003F500552C6475
:100210004FF480721A6100212046FFF7B1FF346469
:10022000EC6070BD6FF00100704700BF000003502C
:1002300010B5124B4FF480329A6603F51C33DC691B
:10024000144041F67132DA6303F580520121D16026
:10025000586102221A6100212120FFF791FF40B16D
:10026000074B0122DA601CB1A3F500530022DA63C8
:1002700010BD00212120FFF783FFF1E7009000501F
:100280000020035038B51A4B5861DB6913F0040F96
:100290002AD10C4654F8041B154B9961151F06E032
:1002A000214651F8042B124B9A61043D0C465DB176
:1002B00008210846FFF764FF03460028F0D00C4AE7
:1002C00004211161184638BD094B04221A6100212E
:1002D0002120FFF755FF03460028F3D100212120FC
:1002E000FFF74EFF0346EDE74FF0FF33EAE700BFAD
:1002F000000003502DE9F0410F46164605461A4B03
:100300004FF480329A6603F51C33DA6902F48038C0
:1003100041F67132DA6303F580530122DA6000237B
:1003200002E025442744361B8EB105F5005424F421
:10033000FF5424F01F04641BB44228BF34462246F5
:1003400039462846FFF79EFF03460028E9D0074AB2
:100350000121D160B8F1000F03D0A2F500520021B5
:10036000D1631846BDE8F081009000500020035092
:10037000000000000000000000000000000000007D
:10038000013800D0FCE770472DE9F04F2DED028BCE
:1003900093B082460C4693461D4657EC106B8DED8C
:1003A000080B32463B46304639461BF035FF0028E5
:1003B00000F009814FF0FF32B14B304639461BF057
:1003C00053FF002840F0FF804FF0FF326FF480139E
:1003D000304639461BF02AFF002840F0F480002206
:1003E0000023DDE90867304639461BF01FFF00286F
:1003F00040F0FC809DED087B8DED067B209B13F487
:100400008063119301D106231E93DDE906010246A4
:10041000C1F30A50C1F31303904643F07F5949F4E6
:100420004019A0F2FF301BF025FC83A3D3E9002381
:100430001BF08AFC82A3D3E900231BF0CFFA064607
:100440000F4600228F4B404649461BF0C5FA7EA35B
:10045000D3E900231BF078FC02460B4630463946B0
:100460001BF0BCFA1BF00AFF06461BF003FC80469B
:10047000894677A3D3E900231BF066FC0022824B58
:100480001BF0ACFA1BF0FAFE074673A3D3E9002376
:10049000404649461BF058FC8046894638461BF0CA
:1004A000E9FB6FA3D3E900231BF04EFC02460B4689
:1004B000404649461BF090FA8046894602460B4664
:1004C0001BF042FCCDE90C0107F2FF3700210022AE
:1004D000CDE90A123B050B9300230A9342464B4693
:1004E000404649461BF07AFACDE90E0142464B469A
:1004F00000204FF080411BF06FFA804689460022B1
:10050000624BDDE90C011BF049FD0022604B1BF042
:1005100065FA02460B46DDE90C011BF03FFD0022A7
:100520005C4B1BF05BFA02460B46DDE90C011BF04D
:1005300035FD02460B46404649461BF04FFA02463F
:100540000B46DDE90E011BF029FD0022524B1BF08A
:1005500045FADDE90A231BF0F7FB8046894649ECA2
:10056000188BDDE906231BF07FFE40B1013E00221F
:10057000474B404649461BF011FD41EC180B06F174
:100580006303C62B3BD80427209B13F4006F40D095
:1005900035A3D3E90023DDE90689404649461BF02F
:1005A00059FE00283BD032A3D3E9002340464946F8
:1005B0001BF03CFE002832D01E9BB34221DD9E1B67
:1005C000731E1E931FE0209B02931F9B01931E9B93
:1005D00000939DED080B2B465A462146504600F0ED
:1005E000CBF813B0BDEC028BBDE8F08F9FED227B02
:1005F0008DED067B069607F100430793FEE605277F
:10060000C2E700231E93209B43F4806320930027BE
:100610003E461F9B9F4241D2A3EB070840E01E9B32
:10062000002BF6D0119B002BF3D01E9B013B1E9399
:10063000EFE700BFAFF30080FB799F501344D33F37
:10064000B3C8608B288AC63F61436F63A787D23FD8
:1006500071A379094F930A401655B5BBB16B02409F
:10066000EF39FAFE422EE63F2D431CEBE2361A3FED
:100670000000000080842E41000000000000000007
:10068000FFFFEF7F0000F83F0000E03F00002C403C
:1006900000002440000018400000F03F4FF0000828
:1006A000209B13F0020902D00FB14FF000083EB1B9
:1006B00053EC182BDDE906011BF070FCCDE90601B7
:1006C00000220023DDE908011BF0B0FD00283BD12A
:1006D000209B23F400630293CDF804801E9B0093BB
:1006E0009DED060B2B465A462146504600F044F835
:1006F000002F3FF476AF209B13F0200F2CD04FF04B
:10070000450C00F101082B46024621466046D047C1
:1007100086EAE672A2EBE67205230593013F049791
:10072000002303930A230293F30F019300922B46B5
:1007300042462146504623F024FAB9F1000F3FF417
:1007400050AF02461F9F10E0DDE90601024601F1AD
:100750000043CDE90623BBE74FF0650CD1E7561CFB
:100760002B4621462020D0473246A2EB0B03BB424A
:10077000F5D3104635E700BF2DE9F04F2DED028B84
:1007800093B00590089192469B4659EC108B1E9DA4
:1007900042464B46404649461BF03EFD002840D0AD
:1007A0004FF0FF326FF48013404649461BF03EFD88
:1007B000002845D14FF0FF32B14B404649461BF06F
:1007C00053FD00284BD1AAA3D3E900234046494654
:1007D0001BF04AFD00285AD1A7A3D3E900234046C5
:1007E00049461BF023FD002851D10022002340463A
:1007F00049461BF01BFD002857D100230993209B7D
:1008000013F4806F5CD000241F2C5BD8092D59D9BC
:1008100004F148036B44302203F8202C013D0134DD
:10082000F2E7209B03931F9B029303230193954BB5
:1008300000935B4652460899059823F0C8F810E1EA
:10084000209B03931F9B0293042301938E4B0093E1
:100850005B4652460899059823F0B9F801E1209BC0
:1008600013F004030FD0894A7BB10423209903912C
:100870001F990291019300925B4652460899059890
:1008800023F0A5F8EDE0824AEEE70323EEE7209B94
:1008900002931F9B0193009549EC108B5B465246D7
:1008A00008990598FFF770FDDBE042464B460020B3
:1008B00000211BF091F880468946012309939EE7A9
:1008C0000625A0E7404649461BF0D8FC06461BF02B
:1008D000D1F902460B46404649461BF07DF86D4B68
:1008E00003EBC50393ED008B53EC182B1BF02CFA94
:1008F00002460B46CDE906231BF0E8FC07461BF039
:10090000A9F902460B46DDE906011BF065F802462F
:100910000B46CDE9062300225F4B1BF0A5FC50B32C
:10092000013738461BF096F902460B4651EC180B7E
:100930001BF086FC08B10136002755BB30461BF082
:1009400099F902460B46404649461BF045F8804659
:1009500089460022504B1BF069FC38B100224E4BF7
:10096000404649461BF080FC002842D016F0010F9B
:100970003FD001363DE00022474BDDE906011BF088
:1009800055FC0028D9D117B117F0010FD5D0013788
:10099000D3E71F2C17D8013D404BA3FB0723DB08EF
:1009A000194603EB8303A7EB4303621C303304F1C6
:1009B00048000DEB000404F8203C092F02D90F4633
:1009C0001446E6E714461F2C0AD86B1E45B104F105
:1009D00048026A44302102F8201C1D460134F2E727
:1009E0001F2C06D804F148036B442E2203F8202C58
:1009F00001341F2C17D82A4A82FB0632F317C3EBA7
:100A0000A2031A4603EB8303A6EB4303611C3033B6
:100A100004F148000DEB000404F8203C16460AB12E
:100A20000C46E6E70C46209B03F00303012B39D06C
:100A30001F2C09D8099B002B51D004F148036B44AB
:100A40002D2203F8202C0134209B03931F9B02933B
:100A500001940AAB00935B4652460899059822F030
:100A6000B6FF13B0BDEC028BBDE8F08FAFF3008092
:100A70000000000065CDCD410000000065CDCDC176
:100A8000FFFFEF7F0C8A0208108A0208008A020822
:100A9000088A0208188A02080000E03FCDCCCCCCBE
:100AA000676666661F9BB3B1099B1BB9209B13F059
:100AB0000C0F12D01F9B013B1F93194606E004F157
:100AC00048036B44302203F8202C01348C42AFD20F
:100AD0001F2CF4D9ACE71F99F8E71F99F6E7209B84
:100AE00013F0040F07D004F148036B442B2203F8E2
:100AF000202C0134A8E7209B13F0080FA4D004F1A8
:100B000048036B44202203F8202C01349CE700BFEB
:100B100038B50D46044625F0D8FE064A13889BB228
:100B20002DB123431380BDE8384025F0C9BE23EA28
:100B30000403F7E7944B00200022034B01214FF4FC
:100B400080709A70E4E700BF944B00207FB54E6838
:100B500002A9044623F0AFFE9DF808300C2B19D1F2
:100B6000134BB3F90050134B9E4218D808F020F8ED
:100B700003460068694600909B882046ADF8043023
:100B800023F086FE70B140F25F620B490B480DF016
:100B900023FEFEE7204613F021FC0546E3E71FF0A5
:100BA000A9FAE5E72946204623F058FE04B070BDB7
:100BB00068510020FFC99A3BC18C02088C8A020848
:100BC000002330B5134C85B0CDE90133039323786E
:100BD0008DF8043025F079FEA288E38805469A4214
:100BE0000DD0E188A06801AAA18023F0EDFC58B1E6
:100BF00040F2DA62084909480DF0EEFDFEE7A06810
:100C000023F0BBFC0128ECD0284625F059FE05B0A6
:100C100030BD00BFB8560020C18C02088C8A020883
:100C200038B50F4C656835B940F2C7720D490E48AA
:100C30000DF0D2FDFEE723F079F8284410F01CFDFA
:100C400000F00700032809D164680921204623F039
:100C500089F9205C031F5842584138BD0020FCE749
:100C6000944B0020C18C02088C8A020808B5114BF5
:100C70009A78042A06D040F28E520F490F480DF0A0
:100C8000ABFDFEE71B881B0706D440F28F520A49D2
:100C90000A480DF0A1FDFEE700210820FFF738FF0C
:100CA0000222074B98681A7313F052F9BDE8084006
:100CB00021F040BC944B0020C18C02088C8A0208B1
:100CC000B856002010B5084CA06813F041F9A06890
:100CD00023F053FC012806D00122A0681146BDE88C
:100CE000104023F04CBC10BDB856002038B5194D4B
:100CF000AB7833B140F22B72174918480DF06CFDF8
:100D0000FEE725F0E2FD2988044611F0060109D02E
:100D100001214FF48070FFF7FBFE2046BDE838400C
:100D200025F0CEBD4FF48070FFF7F2FE12F062FAAC
:100D3000012805D010F0FD0F05D1FFF741FFECE7CA
:100D4000FFF7C0FFE9E740F24172034903480DF0A5
:100D500043FDFEE7944B0020C18C02088C8A0208F8
:100D600070B50446064D95F90860FFF7BFFF12F015
:100D70003FF9314620466A68BDE8704011F070BF07
:100D8000944B002008B50A4B1B88DB0606D440F2C2
:100D9000A752084908480DF01FFDFEE7002110206A
:100DA000FFF7B6FE12F0A2FABDE8084021F0C2BB80
:100DB000944B0020C18C02088C8A02080D4B10B5A0
:100DC0001B8804469B0713D500210220FFF7A0FED5
:100DD000094B5A7BFF2A06D040F2E54207490848F2
:100DE0000DF0FAFCFEE75C73BDE8104021F0A2BBF9
:100DF00010BD00BF944B0020B8560020C18C0208E3
:100E00008C8A02087047704707B5ADF80610014696
:100E100030B94FF4B572104910480DF0DDFCFEE713
:100E2000BDF8063033B940F26B120B490B480DF098
:100E3000D3FCFEE70A4B0DF10602986823F0F2FDA1
:100E400030B140F26D12044904480DF0C5FCFEE7D4
:100E500003B05DF804FB00BFC18C02088C8A020855
:100E6000B856002010B50E4CA37833B14FF4EA7297
:100E70000C490D480DF0B0FCFEE7606019B1A17B94
:100E8000003918BF01212020FFF742FE074B084818
:100E90009B7B23760223A370BDE8104010F0B8BA04
:100EA000944B0020C18C02088C8A0208B85600209E
:100EB000B04B002008B50BF0BDFF80F00100C0B2C0
:100EC00008BD0A4B9A780AB1062A0CD11B8803F494
:100ED0008B7343B9064B5A7BFF2A04D1187BFF382A
:100EE00018BF012070470120704700BF944B0020BD
:100EF000B856002008B50BF08DFF0028FBD108BDC7
:100F00000C4B42889A8142789A730278DA7382880D
:100F10001A82C2885A82C2685A61017A064A91735B
:100F2000028A998C914204D001214FF400709A8476
:100F3000EEE57047944B0020B8560020094B9A8983
:100F400042809A7B4270DA7B02701A8A82805A8AC7
:100F5000C2805A699B8CC260034A0382927B0272F0
:100F6000704700BF944B0020B85600204B1E012B49
:100F700070B50C4606D940F2B7221A491A480DF04E
:100F80002BFCFEE7194D0A460146A86823F074FDC4
:100F900030B140F2B922134913480DF01DFCFEE7B1
:100FA000AE6810F0A9F922460146304623F05EFDF6
:100FB00030B140F2BD220B490B480DF00DFCFEE7AD
:100FC000AD6810F0A5F922460146284623F05AFDE7
:100FD00030B140F2C122034903480DF0FDFBFEE7AA
:100FE00070BD00BFC18C02088C8A0208B856002070
:100FF000054BDB7B1B0913F00E0003D0052B8CBFC8
:1010000000200120704700BFB8560020044BDB7B56
:101010001B0913F00E0F0CBF01200020704700BF0A
:10102000B85600202DE9F04F15469A0580461F4618
:101030008FB003D501218020FFF76AFDEB014FF04F
:10104000000955D5984C23889E0751D5974E737B40
:10105000FF2B06D040F2AF42954996480DF0BCFBFD
:10106000FEE7636833B94FF49662914991480DF0F9
:10107000B3FBFEE749460220FFF74AFDA37886F856
:101080000D90042B03D101210820FFF741FD00231F
:10109000B06808A98DF82C3023F00FFC30B140F275
:1010A000BA42834983480DF097FBFEE7FFF7A0FFA4
:1010B000B0B922F03BFE8146606822F042FE08A9EA
:1010C0008144B068ADF8249023F0FAFB30B140F2CF
:1010D000C242774977480DF07FFBFEE7089BA36289
:1010E000A378032B02D1B06812F032FF21F022FA6C
:1010F000B80702D50120FFF761FE15F0A84F02D016
:101100000220FFF75BFEA90220D50021402003AC9E
:10111000FFF7FEFC2146404623F0CCFCB0B99DF819
:10112000143008AA022B22D18DF82830BDF80C30DB
:10113000ADF82030104611F065FF38B1404623F07D
:10114000B7FC18B901214020FFF7E2FC2A0753D56C
:10115000564E0321B06803AA23F066FC814688B985
:1011600040F2FE42524953480DF036FBFEE7032B96
:1011700005BF8DF82830D4E900018DF82800C2E9B8
:101180000001D7E79DF80C30B068072B40F01F81B5
:10119000494608AA23F04AFC30B140F201524449C2
:1011A00044480DF019FBFEE7FFF722FFBDF80E20C3
:1011B000A0B9FFF72BFF78B1043292B2B06808A94A
:1011C000ADF8242023F034FC40B140F212523849EB
:1011D00038480DF001FBFEE70232EEE7BDF80E00E5
:1011E0000121073080B225F0A1FA8246002842D1C1
:1011F00001210C2012F040FEA90705D52A4B1B88BF
:101200001A0701D5FFF732FDAB010BD500210420F1
:10121000FFF77EFC244B9B78012B03D1234B98686E
:1012200012F096FE15F0284F03D000210420FFF79E
:101230006FFC7E060CD51C4C23881D0701D5FFF7DB
:1012400015FD2388580703D500210420FFF760FC13
:10125000F90540F1D88003A9404608AA23F08BF98C
:101260000146002800F0BA8040F2D25210491148DD
:101270000DF0B2FAFEE74FF0000B25F0DBF9CDF8E8
:1012800000B00246BDF80E3004464946B06823F06F
:10129000D3FBBDF80E3083420ED040F222520449F7
:1012A00004480DF099FAFEE7944B0020B856002050
:1012B000C18C02088C8A020822F038FD204410F00C
:1012C000DBF900F007000228DFF8589124D199F8E3
:1012D0000230042B90D122F029FD504B204482781B
:1012E0001B789A4288D159460820FFF711FC22F05A
:1012F0001DFD204410F0C0F99DF82E30C0F3001001
:10130000307389F80830FFF78BFC00287FF474AF46
:10131000B06812F01DFE6FE722F008FD204410F0C7
:10132000ABF983064AD522F001FD204410F0A4F960
:1013300000F0070003280BD10921204622F012FEFD
:1013400014F800B0ABF1040CDCF1000B4BEB0C0B10
:1013500001210420FFF7DCFBB06823F080FBC9F813
:101360002C00BBF1000F30D0B9F8003058062CD556
:1013700000214020FFF7CCFB0126BDF80E309DF880
:101380002E200120E254BDF80E309DF82F2023447A
:101390009A71BDF80E10089A0131214410F07AF9C3
:1013A000BDF80E3050461C44667125F017FA1C4BF0
:1013B000187810F033F921F0BDF81DE799F80230E4
:1013C000012B02D1B06812F0C3FD0026D5E723F04F
:1013D0000FFB4946B06823F02DFB0DE79DF80C305C
:1013E00003F0BF02032A01D0022B0FD10D4C23883A
:1013F0005A0702D50420FFF78BFB23889B0702D5F1
:101400000120FFF7DBFC0FB0BDE8F08F4FF4BF62A7
:10141000054906480DF0E0F9FEE700BF014C002049
:10142000244B0020944B0020C18C02088C8A0208B7
:1014300008B50246FFF7DCFD30B1072A06D80020C8
:10144000034B83F8302008BD7020FCE70220FAE748
:10145000944B002008B50246FFF7CAFD28B10020D2
:10146000034B93F83030137008BD7020FCE700BFC9
:10147000944B002008B5074B01460022986823F0E2
:10148000FBFA30B140F2EB22034904480DF0A4F915
:10149000FEE708BDB8560020C18C02088C8A0208FD
:1014A00008B5074B01460022986823F0DFFA30B1F7
:1014B00040F2F122034904480DF08EF9FEE708BD21
:1014C000B8560020C18C02088C8A020808B5074B68
:1014D0000146986823F0DCFA30B140F2F722044963
:1014E00004480DF079F9FEE708BD00BFB8560020AA
:1014F000C18C02088C8A020808B5074B9B7833B16F
:1015000040F20132054906480DF066F9FEE7BDE8F4
:101510000840FFF7EBBB00BF944B0020C18C0208D2
:101520008C8A020808B5054B0146986823F096F9A5
:10153000002814BF8B20002008BD00BFB856002033
:10154000014B986812F04ABFB8560020014BD8886A
:10155000704700BFB85600207FB50123ADF80E30AC
:101560004FF6FE7309480093806800230DF10E02C8
:1015700004A923F000F9212800D020B9BDF81000FB
:1015800007B05DF804FB4FF6FF70F9E7B85600208E
:1015900008B5044B0146986823F0A1F8B0FA80F032
:1015A000400908BDB856002038B50B4D0446AB784D
:1015B000012B0DD8FFF7ECFF60B1084BDC80AB7856
:1015C0001BB9FFF793FB002038BDFFF7F9FAFAE7E4
:1015D0003E20F9E78A20F7E7944B0020B856002018
:1015E000024B9B780BB9FFF781BB7047944B0020EF
:1015F000014BD873704700BF944B002008B5064BD1
:101600004FF0FF31986822F0E3FF0028B8BF0330A5
:1016100040F3870008BD00BFB856002008B5044B52
:10162000986823F058F8034BB3FBF0F080B208BD84
:10163000B856002040420F0030B58DB02C22044631
:10164000002101A823F041FF01234FF002328DF861
:1016500008306423CDE9032306930B238DF82C3047
:10166000214B9B8CADF80A30FFF7C2FCA8B140F2C9
:10167000F23307934FF47A7305930CB9FFF722FB0B
:101680001A4D01A9A86812F07DFFC0B140F2AC620A
:10169000174918480DF0A0F8FEE7FFF7BFFF0C232D
:1016A0004343902B0793A3F10A02D8BF91230592DD
:1016B000D8BF0793059B8B2BDFD88C23DCE7FFF784
:1016C000A5FC60B10122A868114623F0EFF930B102
:1016D00040F2AF62064907480DF07EF8FEE70CB90C
:1016E000FFF704FB0DB030BD944B0020B85600202E
:1016F000C18C02088C8A0208F8B525F0E6F8554C32
:1017000006462388D90503D5A37843BBFFF7EEFA35
:10171000514D6B7BFF2B13D06B7B03F0FF0723BB7B
:10172000FF236B73A378032B0AD100233046A370E9
:1017300025F0C6F83846FFF713FB25F0C6F8064635
:10174000A378042B08D12B7BFF2B05D02B7B022BFE
:1017500014D142480FF05CFEFF232B7327E00021D9
:101760004FF48070FFF7D4F9D2E76B7B012B4FF079
:10177000FF0314BF89278D276B73D6E72B7B13B12B
:101780002B7B012B1ED1FFF74BFA0022FF212B7B75
:101790000746DBB222772973002847D0012B0AD1F4
:1017A00064212E48A3700FF03EFEFFF709FA304681
:1017B00025F086F806E03046A27025F081F8312049
:1017C000FFF7CEFA23881A0608D500218020FFF7FC
:1017D0009FF9A86823F0ADF811F069FD23889B05F7
:1017E00007D54FF400700021FFF792F90020FFF7B2
:1017F00023FF0BF00FFB608620B324F01BFF0121B9
:101800000546002012F038FBA678012E14D10026E0
:101810002677A670FFF76AFA284611F043F9A378F5
:1018200066867BB9BDE8F84011F0E2BBA070304697
:1018300025F046F83846C3E72EB1284611F032F9B4
:1018400000236386F8BDFFF751FA284611F02AF904
:101850006686F7E7944B0020B8560020B04B002076
:101860008B4BF0B51B888B4C8B4D63848B4B85B0B9
:101870001B68E3628A4B1B8823848A4B1B68A36224
:101880002B88DB0700F1FC8001210846FFF740F9B7
:101890000523854A04F1100104F10800AB7012F031
:1018A00019FB28B1F522814981480CF095FFFEE72C
:1018B000A3682BB9F7227D497D480CF08DFFFEE728
:1018C0007C4822F0A0FE70A3D3E90023CDE90023D9
:1018D0004FF0FF324FF0FF33A06822F043FF4FF488
:1018E0008811A06812F0F2FD014630B140F20F12EB
:1018F0006E496F480CF070FFFEE76F4B1B78012BB1
:101900000ED16E4AA06812F0B3FBA06812F068FE18
:10191000E0B140F21B12654965480CF05DFFFEE73F
:10192000674E316831B94FF48F72604960480CF0EE
:1019300053FFFEE7614AA06812F09AFB33689B6888
:1019400023B1DB6913B15B7803B1E373FFF704FEE6
:101950000146E080A06812F007FD064630B140F273
:101960002D12524952480CF037FFFEE7554B01202B
:101970001B78C3EB431203EB8203DB00AB84FFF75E
:101980005BFEA7680FF0C4FC32460146384623F0E0
:1019900079F8064630B140F23312444944480CF01D
:1019A0001BFFFEE740F203530427AB81464BAF73A6
:1019B0001B78EB73FFF732FE00EB80039B002B825A
:1019C000FFF72CFEC00068823946A0686E6122F0E5
:1019D00071FE30B14FF4A172344935480CF0FCFE71
:1019E000FEE73A46A06803A922F0F7FE042806D0D5
:1019F0004FF4A3722D492E480CF0EEFEFEE703A92A
:101A000001200FF055FE0AF08BFF08224FF0FF3146
:101A1000A06822F0B8FE30B140F24F1223492448AA
:101A20000CF0DAFEFEE712F05BFF30B140F2551227
:101A30001E491F480CF0D0FEFEE7FFF7D9FA68B147
:101A40001EF05AFB0146A06822F022FF30B140F29E
:101A50005912164916480CF0BFFEFEE7A468FFF7BE
:101A60007BFD1A4B014603F10C02204622F0AEFD2D
:101A700030B14FF4B0720D490D480CF0ADFEFEE7E9
:101A800005B0F0BDAFF300800A0020FF4203000064
:101A9000B88F0208B8560020944B0020BC8F020873
:101AA000BA8F0208C08F0208390B0008C18C0208E7
:101AB0008C8A0208690345ECE54B00204D0B0008B9
:101AC000A05400205A58002059580020EC8C0208DD
:101AD00008B5044B986822F000FE034BB3FBF0F00E
:101AE00080B208BDB856002040420F002DE9F043F7
:101AF0008C4D87B02B889B0706D440F24C728A49E4
:101B00008A480CF069FEFEE7AB78033B012B06D94F
:101B100040F24E72844985480CF05EFEFEE76A682A
:101B200032B940F25172804980480CF055FEFEE710
:101B30007F4E2C88F77B14F0200418BF4FF47A7482
:101B40004FEA1718FFF754FA00287DD0B8F1020FBA
:101B50000AD0A8F10303022B74D940F265727249CE
:101B600072480CF039FEFEE7032795F8303008EB99
:101B7000C80898446F4B104603EB4803B3F81C8029
:101B800022F0DFF84FF4FA534343B3FBF8F3782223
:101B90007733B3FBF2F31F44C7EB0717AB78FF00B3
:101BA000BFB204F5347417FA84F4042BA4B203D141
:101BB00007F6E8072744BCB2D5F8048022F0B6F84F
:101BC0000746686822F0BDF8074422F0D5F8BFB296
:101BD0003F1A22F0ABF840440FF04EFD7378C0F38B
:101BE00040198DF80C30544BBFB2CDE904340024B9
:101BF00022F0CEF8009402463B464146B06822F0FF
:101C0000F9FE287EB278737812FB00F29342C4BFCB
:101C10009B1ADCB22B88F18813F0200FB068B180DA
:101C20008DF80C4003AB76D000934A46434B22F02C
:101C3000C2FC002873D040F224723B493B480CF0B0
:101C4000CBFDFEE7062790E7FFF7E0F9002846D036
:101C5000384B07F00F0708EBC801394403EB410389
:101C60001046B3F81C9022F06CF8B8F1000F2CD09D
:101C7000B8F1010F2CD14FF00408400080B2F319E5
:101C800093F834304BB14FF4FA52023303444344D7
:101C90009BB25343B3FBF9F39CB2AB78042B8BD1CB
:101CA000FFF7BCFC374497F834308146053398443D
:101CB000FFF70EFF0C2308FB00F003FB09F909EB0B
:101CC000C009A1441FFA89F476E74FF00208D6E76D
:101CD00040F28672144915480CF07EFDFEE7FFF7CE
:101CE000F7FE0746686822F02CF809307843AB7895
:101CF00004EBC000042B84B27FF45EAFFFF78EFCD0
:101D00000746FFF7E5FE602358430C2303FB07005B
:101D1000204484B250E74A4622F04BFC89E707B0E2
:101D2000BDE8F083944B0020C18C02088C8A020825
:101D3000B8560020EC8C020820A10700A04B002020
:101D4000F8B5494C258815F0020506D040F2751209
:101D5000464947480CF040FDFEE7257724F0B5FDE5
:101D6000238806465A070CD5424B986822F077FE26
:101D7000E36AC01AA38C984203D929460420FEF7CF
:101D8000C7FE304624F09CFDA778022F37D124F0FF
:101D90009CFD2388064613F0040507D036480FF053
:101DA00037FB3046BDE8F84024F08ABD24F088FDBA
:101DB000606811F057F920B1A570BDE8F840FEF752
:101DC000CFBF24F082FD6668054621F0AFFF3044A6
:101DD0000FF052FC10F0200F0CBF0323042301214D
:101DE0003846A370FEF794FEFFF780FE284624F0E5
:101DF00067FD01210846BDE8F84012F03DB8042F08
:101E000027D11C4B1B7BFF2B2DD1237EF3B124F05C
:101E10005CFD238805465B0704D517480FF0F8FAE8
:101E20002846BFE724F04CFD237E013B237624F0B7
:101E30004CFD044601210220FEF76AFEFFF756FE24
:101E4000204624F03DFD01210820D4E74020A37066
:101E5000B3E7012F07D10023A370064B986812F057
:101E600077F83120A9E7F8BD944B0020C18C020817
:101E70008C8A0208B8560020B04B002038B50121EA
:101E800004461020FEF744FE064B9D68FFF7C6FB94
:101E9000012200FB04F1044B284622F075FB0020D0
:101EA00038BD00BFB8560020850D000808B50A4BA4
:101EB0001B88DB0606D44FF46172084908480CF011
:101EC0008BFCFEE710200021FEF722FE054B9868F0
:101ED000BDE8084022F066BB944B0020C18C02088C
:101EE0008C8A0208B856002038B50E4D688E30B97D
:101EF00040F291320C490D480CF06EFCFEE724F0E4
:101F000099FB0446688E24F0B3FB811F2144012015
:101F10000FF0CEFB064B0446986822F0A0FD001B94
:101F200038BD00BF944B0020C18C02088C8A020887
:101F3000B856002010B5084C636833B94FF4687286
:101F4000064907480CF048FCFEE7064B986822F06B
:101F500086FDA36AC01A10BD944B0020C18C0208F4
:101F60008C8A0208B856002038B50A4D688E30B900
:101F700040F2AA32084909480CF02EFCFEE724F092
:101F800059FB0446688E24F073FB044414F8020CD9
:101F900038BD00BF944B0020C18C02088C8A020817
:101FA00038B50A4D688E30B940F2B932084909484F
:101FB0000CF012FCFEE724F03DFB0446688E24F092
:101FC00057FB044414F9070C38BD00BF944B0020A4
:101FD000C18C02088C8A020838B50A4D688E30B967
:101FE0004FF47272084909480CF0F6FBFEE724F042
:101FF00021FB0446688E24F03BFB044414F9010CD9
:1020000038BD00BF944B0020C18C02088C8A0208A6
:10201000024B1888C0F3C010704700BF944B0020DB
:1020200030B585B005466C460D4B0FCB84E80F00EC
:102030000DB12B6800930B4B21460022986812F0DB
:10204000E3F9044630B140F2E632074907480CF0A4
:10205000C3FBFEE7FEF7B4FD204605B030BD00BF70
:10206000748D0208B8560020C18C02088C8A0208C0
:1020700030B5154D87B004460DF10701A86822F070
:1020800073FB30B140F2F732104911480CF0A4FB59
:10209000FEE79DF80720531EDBB2FD2B0FD90294FB
:1020A000FF2A00D10394A86802A922F045FC40B1A0
:1020B00040F20442054906480CF08EFBFEE7012A77
:1020C000EFE707B030BD00BFB8560020C18C020852
:1020D0008C8A020808B5064B986822F03CFC30B1A7
:1020E0004FF48262034904480CF076FBFEE708BD1A
:1020F000B8560020C18C02088C8A02080122024BCB
:102100001146986822F03BBAB85600207047F8B5DF
:10211000064604200D4621F0EBFD030622D5124FA2
:10212000BC78FCB926B1012E17D002242046F8BD98
:1021300001262846FFF72CFA0028F6D00B4800238A
:1021400032462946806822F038FA40B14FF48A625C
:10215000074908480CF040FBFEE72646E9E706235E
:10216000BB70E3E77024E1E7944B0020B8560020F1
:10217000C18C02088C8A0208042010B521F0B8FD39
:10218000030611D5094CA378062B0DD1084B98688E
:1021900022F015FA30B140F26A42064906480CF0C6
:1021A0001BFBFEE7A07010BD7020FCE7944B0020E5
:1021B000B8560020C18C02088C8A02081FB504465C
:1021C00001A812F0E9F89DF80D3053B14CB1064B5F
:1021D0002078617818700020A27859709A7004B045
:1021E00010BD0220FBE700BFB85600201FB5044613
:1021F00001A812F0D1F89DF80D3053B14CB1002078
:10220000054B1A7822705A789B786270A37004B0DC
:1022100010BD0220FBE700BFB8560020FFF7CEBF7D
:10222000FFF7E4BF0348044B834202D0034B03B1E2
:1022300018477047705800207058002000000000B8
:10224000064B0749C91A891048BF0131491003D00C
:10225000044B0BB101481847704700BF705800206D
:10226000705800200000000010B5064C237843B9D8
:10227000FFF7D8FF044B13B10448AFF300800123EC
:10228000237010BD225200200000000060C9020827
:1022900008B5054B1BB105490548AFF30080BDE803
:1022A0000840FFF7CDBF00BF00000000A0220020C3
:1022B00060C90208A3F5803A704700BF174B002B96
:1022C00008BF134B9D46FFF7F5FF00218B460F46D5
:1022D0001348144A121A23F0F8F80E4B002B00D0C2
:1022E00098470D4B002B00D0984700200021040098
:1022F0000D000D48002802D00C48AFF300801AF002
:102300001DFD200029001BF046FA1AF0ADF900BFB0
:102310000000080000000000000000000020002075
:10232000002000208052002000000000000000007B
:1023300008B5074B01225A73064B1B6800221A701E
:102340004FF49671044B18680FF06DF808BD00BF8C
:102350006C230020B8220020BC22002010B504F01D
:1023600079FA0B4B01220B490B48006804F030F955
:102370000A490B480AF072F90A4C0B4920460AF048
:102380006DF941F2883120680FF04DF810BD00BFA3
:102390009D250008F02200203C560020B5260008AC
:1023A000BC220020B822002031230008084B5B7BB0
:1023B000012B05D01BB9074B93F82E3003707047E3
:1023C000054BD3F8A430C3F340030370704700BF3C
:1023D0006C230020C022002000C0035010B5634BC6
:1023E00093F85930042B0ED8DFE803F003132231A1
:1023F000420003787E2B07D05D4B01225D495E4889
:10240000006804F0E5F810BD584B012283F859200C
:10241000F2E70378554981F83130022381F85930C9
:10242000534B012230315448006804F0D1F8EAE7F8
:1024300003784E4981F83230032381F859304C4BF0
:10244000012230314C48006804F0C2F8DBE7037821
:10245000464981F83330042381F8593091F831200E
:10246000434B043A34314448006804F0B1F8CAE7F9
:102470003E4C002384F85930621C94F8311004F16A
:1024800031001BF0A1F8207038B1394B01223949D5
:102490003948006804F09CF8B5E7384B00225A73BD
:1024A0004FF49671364B18680EF0BDFFE378482B59
:1024B00006D0432BE9D12D4B1A7983F82F20E4E77E
:1024C000637A84F82E30013B042BDED8DFE803F07A
:1024D000031221303F00032001F0B4FB0028D4D0C8
:1024E0001BF0F3F91BF0F2F92649274B18681EF090
:1024F000F8FECAE7032001F0A5FB0028C5D01BF0B9
:10250000E4F91BF0E3F921491F4B18681EF0E9FEBE
:10251000BBE7032001F096FB0028B6D01BF0D5F9ED
:102520001BF0D4F91A49184B18681EF0DAFEACE714
:10253000032001F087FB0028A7D01BF0C6F91BF091
:10254000C5F91449104B18681EF0CBFE9DE7032017
:1025500001F078FB002898D01BF0B7F91BF0B6F912
:102560000D49094B18681EF0BCFE8EE7C022002002
:102570009D250008F02200203C5600206C230020FE
:10258000BC220020287002081428002030700208A5
:1025900038700208407002084C70020808B5024802
:1025A000FFF71CFF08BD00BFF022002008B50A4657
:1025B000002301460248006804F0D0F808BD00BFBF
:1025C0003C56002000B591B0264B5B7B23B1012B1C
:1025D00020D011B05DF804FB8DF814008DF8153093
:1025E0008DF816308DF817300122039204220292E2
:1025F00005AA01924322009202220A2106A81AF09B
:10260000A1FF0A2106A8FFF7D1FF42F2107004F0E3
:1026100091F9DEE7144BD3F8982722F01002C3F8A3
:102620009827D3F8982722F00402C3F8982703F5D7
:10263000805320221A6400210C481DF0DFFC002387
:1026400004220521184605F0A1FC002301220621E1
:10265000184605F09BFCC821054B18680EF0E3FEF8
:10266000B7E700BF6C23002000C0035000C0055036
:10267000BC2200200E4B5B7B03B1704700B58FB0CE
:102680000123039300230293019348220092022224
:10269000062104A81AF056FF062104A8FFF786FFBA
:1026A00042F2107004F046F90FB05DF804FB00BF71
:1026B0006C23002008B5094B20221A64FFF7DAFFCB
:1026C0004FF49671064B18680EF0ADFE41F288315A
:1026D000044B18680EF0A7FE08BD00BF00D00350E1
:1026E000BC220020B822002010B582B004461AF0A7
:1026F000D6FF08B902B010BD00230093ADF8043036
:10270000074B1B88ADF80230ADF8044040F2FF13D0
:10271000ADF80030694604201FF0A3FFEAE700BFD0
:102720006051002008B513460A4601460448006877
:1027300003F0D2F900B908BD02480CF04DF8FAE7F1
:1027400070560020587002080A2800D9704730B52A
:1027500083B004460D466B4601AA01461048006846
:1027600003F020F908B9019B23B10E480CF034F8AE
:1027700003B030BD009B2A4621460948006803F09B
:1027800051F840B9214608480CF026F82946074878
:102790000CF022F8ECE7214605480CF01DF8E7E7BD
:1027A000705600206070020884700208A070020851
:1027B000A870020808B50F4B1B786BB90E4B1B783D
:1027C0000E4A1278B3EB420F07DA01330A4A13704C
:1027D00001210B481BF069F808BD0023094A13705A
:1027E000054A1370012106481BF067F8064823F0DC
:1027F00081FCF1E7235200202552002024520020C2
:1028000028820208265200201C230020037823BBC4
:1028100070470133022B22DC03EB4302104911F80D
:102820002220002AF5D100B50A4603EB430102EB52
:10283000810C4FF0000E8CF801E04FF0010C02F813
:1028400021C002EB810301684268C3F80210C3F89B
:10285000062002895A815DF804FB0023DAE77047FD
:102860003C23002030B583B004460F4B1D7B21B1C3
:1028700023788DF8003000230BE0FFF7C7FFF7E760
:10288000E118497803F109026A4402F8081C01338F
:10289000DBB2617A4A1E9342F2DB6A46284601F0B7
:1028A000A7F903B030BD00BF6C23002010B51E4C4B
:1028B0002046FFF77BFD204610F80F39027C93423B
:1028C00006D0A4F10F021374127B42B1012A20D06A
:1028D0004FF49671154B18680EF0A5FD10BD03203E
:1028E00001F0B0F958B912481E230370114B1B7C3C
:1028F0004370022343720021FFF7B4FFE8E71AF0A8
:10290000E4FF1AF0E3FF0C490C4B18681EF0E9FCD9
:10291000E9E707481E220270437002234372002138
:10292000FFF7A0FFD4E700BF7B2300208C2300200B
:10293000602300206C230020CC70020814280020A3
:1029400008B51C4B1A789A721B78DBB2102B10D08A
:102950002B2B09D023B1184B1B6800221A7008BD1D
:102960000C20FFF72FFEF6E7144B18680EF050FD11
:10297000F1E7104B1B7B012BEDD10E4B5B78DBB2EB
:10298000012B07D00B4B5B78DBB2022B06D0094B37
:102990005B78E0E70C20FFF715FEDCE708481F2313
:1029A0000370044BDB7B4370022343720021FFF76B
:1029B00059FFD0E76C2300209023002094230020AF
:1029C0006023002000B583B08C461146074B187079
:1029D000074B83F800C00123019300230093054AAD
:1029E000054824F003FA03B05DF804FB23520020ED
:1029F00024520020B52700081C23002008B5044AF3
:102A00001AF06CFE034B18680EF002FD08BD00BF03
:102A10006C2300209023002038B504461FF02DFEC3
:102A2000A04201D8012038BD0546032001F00AF973
:102A30000028F8D01AF049FF1AF048FF2B4622462A
:102A40000349044800681EF04CFC0020EBE700BF7F
:102A5000DC7002081428002030B583B00446836877
:102A6000C26853F822301D882846FFF7D5FF08B901
:102A700003B030BD00230093ADF80430164B1B8823
:102A8000ADF80230ADF804506368E2689B1A012B80
:102A90001DDDA368013253F822301B88ADF80030E9
:102AA0001FF0D7FD694603201FF0DBFD044603201D
:102AB00001F0C8F80028DBD01AF007FF1AF006FF73
:102AC00022460649064B18681EF00BFCD0E740F280
:102AD000FF13ADF80030E3E76251002014710208E3
:102AE0001428002030B583B004468368C26853F8C8
:102AF00022301D882846FFF78FFF08B903B030BD8C
:102B000000230093ADF80430154B1B88ADF802305C
:102B1000ADF804506368E2689B1A012B1BDDA368C3
:102B2000013253F822301B88ADF80030694604208A
:102B30001FF097FD0446032001F084F80028DDD043
:102B40001AF0C3FE1AF0C2FE22460649064B186868
:102B50001EF0C7FBD2E740F2FF13ADF80030E5E707
:102B600062510020347102081428002030B583B06F
:102B700004468368C26853F822301D882846FFF750
:102B80004BFF08B903B030BD00230093ADF804300B
:102B9000154B1B88ADF80230ADF804506368E2684D
:102BA0009B1A012B1BDDA368013253F822301B88CE
:102BB000ADF80030694602201FF053FD04460320A3
:102BC00001F040F80028DDD01AF07FFE1AF07EFEFA
:102BD00022460649064B18681EF083FBD2E740F2F6
:102BE000FF13ADF80030E5E762510020487102089C
:102BF0001428002030B583B08368C26853F82230AF
:102C00001C780023019343689B1A012B19DD01AA4C
:102C100001211DF036FE01469DF804001FF015FD50
:102C2000054680B1022001F00DF860B11AF04DFEAA
:102C30001AF04CFE2A460649064B18681EF051FB56
:102C400001E01FF006FD20461FF00FFD03B030BD70
:102C5000647102081428002010B503468168C26818
:102C600051F82200B0F900001A4C20805B689B1AD2
:102C7000012B0FDD013251F8223093F90010003999
:102C800018BF01211FF096FCA0B9032000F0DAFF65
:102C900010B910BD0021F5E71AF017FE1AF016FE64
:102CA0000D4B1C681FF08AFC02460C4920461EF0A2
:102CB00018FBEEE7012000F0C5FF0028E9D01AF06C
:102CC00004FE1AF003FE0649034B18681EF009FBC8
:102CD000DFE700BF6251002014280020C8710208FD
:102CE000DC71020808B51FF059FC032000F0AAFFB0
:102CF00000B908BD1AF0E9FD1AF0E8FD0249034BDE
:102D000018681EF0EEFAF4E7F471020814280020A7
:102D100008B58368C26853F822301A88094B1A80B4
:102D2000032000F08FFF00B908BD1AF0CEFD1AF0A5
:102D3000CDFD044B1A880449044B18681EF0D1FAE3
:102D4000F2E700BFD85700201472020814280020B0
:102D500008B5024B18680EF05BFB08BD94230020F9
:102D60002DE9F04186B01FF035FC0446894B1B78F5
:102D700013F0020F2CD0884E13F0010F2AD0864F8B
:102D800013F0040F28D0DFF81082032000F05AFF60
:102D900028BB032000F056FF58BB032000F052FF71
:102DA000002835D1032000F04DFF00283ED103203C
:102DB00000F048FF002847D1032000F043FF00281F
:102DC0005ED1032000F03EFF002867D1002471E0AF
:102DD000724ED1E7714FD3E7DFF8C081D5E71AF023
:102DE00074FD1AF073FD6E496E4B18681EF079FA87
:102DF000CFE71AF06AFD1AF069FD6A4B1D6805F00D
:102E00009DFA02460B46684928461EF06AFAC4E756
:102E10001AF05BFD1AF05AFD624B1D681FF0B2FB01
:102E20000246624928461EF05CFABBE71AF04DFDE7
:102E30001AF04CFD5B4B1D681FF0D8FB02465C4945
:102E400028461EF04EFAB2E71AF03FFD1AF03EFD9A
:102E5000E279A37961792079E57894F802C094F851
:102E600001E024780594CDF810E0CDF80CC002956F
:102E7000019000914F494B4800681EF032FA9BE7E1
:102E80001AF023FD1AF022FD464B1C681FF0A6FB2A
:102E90000246494920461EF024FA92E71AF015FD31
:102EA0001AF014FD45493F4B18681EF01AFA8DE7D9
:102EB0000134E4B2072C12D8032000F0C3FE00282E
:102EC000F6D01AF002FD1AF001FD364B1D681FF016
:102ED00081FB025D3A4928461EF003FAE8E7032029
:102EE00000F0B0FE98B9032000F0ACFEC8B9032092
:102EF00000F0A8FE18BB032000F0A4FE68BB03206E
:102F000000F0A0FE002836D106B0BDE8F0811AF02E
:102F1000DCFC1AF0DBFC2B49224B18681EF0E1F9AF
:102F2000E1E71AF0D2FC1AF0D1FC1E4B1C681FF02E
:102F300059FB0246244920461EF0D3F9D7E71AF080
:102F4000C4FC1AF0C3FC174B1C681FF02FFB024691
:102F50001E4920461EF0C5F9CDE71AF0B6FC1AF05E
:102F6000B5FC104B1C681FF029FB0246184920468F
:102F70001EF0B7F9C3E71AF0A8FC1AF0A7FCCDF8C9
:102F800000803B4632461349064800681EF0A9F906
:102F9000BAE700BF4E5800207C7102088471020815
:102FA0003072020814280020387202085472020895
:102FB000707202088C720208B0720208CC720208A9
:102FC000E07202089C700208E872020804730208AA
:102FD0001C7302083473020830B583B08368C2687A
:102FE00053F822301C7801A920461FF0DBFA88B97B
:102FF000032000F027FE08B903B030BD1AF065FCCD
:103000001AF064FC019B22460B490C4800681EF034
:1030100068F9F1E70546012000F014FE0028EBD026
:103020001AF053FC1AF052FC2A460549034B186863
:103030001EF057F9E0E700BF6C7302081428002067
:103040008873020870B58268C36852F823100C8830
:10305000013352F823301D78294620461FF0F1FA3B
:1030600080B9032000F0EEFD00B970BD1AF02DFC10
:103070001AF02CFC2B4622460B490C4800681EF027
:1030800030F9F2E70646012000F0DCFD0028ECD024
:103090001AF01BFC1AF01AFC32460549034B18685B
:1030A0001EF01FF9E1E700BFAC73020814280020EE
:1030B000DC73020870B582B08368C26853F82230AE
:1030C0001B78134A137013F0020F0ED0114C13F03B
:1030D000010F0CD00F4D13F0040F0AD00D4E03203A
:1030E00000F0B0FD38B902B070BD0B4CEFE70A4DEF
:1030F000F1E7094EF3E71AF0E8FB1AF0E7FB009658
:103100002B4622460549064800681EF0EAF8EAE721
:103110004E5800207C7102088471020890710208E8
:103120001428002030B58FB004460D4668461AF0CA
:10313000ECFA0DF1200EEC46BCE80F00AEE80F00F3
:103140009CE803008EE8030008A9464B186820F0AD
:103150008AF810F1880F46D168461AF0D6FA0DF1B8
:10316000200EEC46BCE80F00AEE80F009CE8030020
:103170008EE803004FF41053ADF820308023ADF8F3
:1031800022304FF44073079307A81AF0CEFA079B3A
:103190000A93354B0B93334B1A68099B0D9213F02E
:1031A000FF0F04D123F0FF0343F001030993012330
:1031B00009932C4B2A46214608A820F071F80446B2
:1031C00010BB032000F03EFD90B9264B18681FF09D
:1031D000E1F90546002831D1032000F033FD044613
:1031E00010BB01242FE01F4B186820F013F8B3E741
:1031F0001AF06BFB1AF06AFB1A4B1A681B491C4B3E
:1032000018681EF06EF8E0E7032000F01BFD0028B0
:10321000DBD01AF05AFB1AF059FB22461549144B21
:1032200018681EF05EF8D0E71AF04FFB1AF04EFB5C
:1032300011490F4B18681EF054F804E0032000F009
:1032400001FD044610B920460FB030BD1AF03DFB19
:103250001AF03CFB2A460949054B18681EF041F854
:103260000024F0E780230020000144050C740208CC
:10327000142800203C74020860740208807402085C
:1032800000B583B00021019101AA1DF0FAFA01995D
:1032900010290ED0032000F0D5FC60B11AF015FB08
:1032A0001AF014FB10220549054B18681EF019F896
:1032B00001E0FFF737FF03B05DF804FBA0740208DC
:1032C0001428002010B588B020F0E9F8032000F0A1
:1032D000B9FCF8B901244A4B1C6002A81AF03CFA68
:1032E00002A920461FF0BFFF10F1880F1CD0032059
:1032F00000F0A8FC00286ED1414B18681FF04AF975
:103300001FF09BF90446032000F09CFC00286CD1C0
:1033100008B010BD1AF0D9FA1AF0D8FA39493A4B68
:1033200018681DF0DEFFD5E7032000F08BFC0028B5
:1033300037D1334B1A68039B079213F0FF0F04D168
:1033400023F0FF0343F001030393304B05934FF445
:103350004073019301A81AF00FFA019B04934FF4F4
:103360001053ADF808308023ADF80A3001230393E1
:10337000234B1022264902A81FF092FF0446D0B921
:10338000032000F05FFC0028B6D01AF09EFA1AF075
:103390009DFA1B4B1A681F491B4B18681DF0A1FFB3
:1033A000AAE71AF092FA1AF091FA1B49164B18681C
:1033B0001DF097FFBDE7032000F044FC00289BD0E0
:1033C0001AF083FA1AF082FA224614490E4B186852
:1033D0001DF087FF90E71AF078FA1AF077FA104993
:1033E000094B18681DF07DFF86E71AF06EFA1AF097
:1033F0006DFA22460B49044B18681DF072FF87E7EF
:1034000080230020C87402081428002000444004CF
:103410008C5400200C740208D47402083C74020816
:10342000FC7402082875020810B5012009F010FA92
:103430000B4C21460420FFF787F9611E0320FFF79C
:1034400083F94FF4FA61074B18680DF0ECFF064B57
:1034500001221A70054B1B6800221A7010BD00BFB4
:10346000782300208C23002027520020882300206E
:1034700010B584B0214BDB7A3BB1012B23D0204B1C
:103480001B6800221A7004B010BD9DF800300322A2
:1034900062F304038DF800309DF800306FF346139B
:1034A0008DF800301C238DF8043002228DF80D2099
:1034B0009DF800208DF80520104A9372002101A884
:1034C000FFF7D0F9DBE70D4B9B7A2B2BD7D10D4CB7
:1034D0002046FEF76BFF2B238DF8043004238DF874
:1034E0000D3023788DF80530FF238DF806308DF8E8
:1034F0000730002101A8FFF7B5F9C0E76C230020D1
:10350000942300207B23002010B50C490C4809F0BF
:10351000A5F80C490C4809F0A1F80C490C4809F031
:103520009DF80C4C0C49204609F098F8FEF716FF60
:103530004FF47A7120680DF076FF10BD4129000824
:1035400090230020AD2800088C230020713400084F
:1035500094230020882300202934000810B5044655
:103560001AF098FA10B92E4B9C4205D020461AF05A
:1035700091FA012808D010BD23F02CFC294B1860CB
:10358000294B01221A70F1E723F024FC264B00227C
:103590001A70244B1B68C01AA0F5C333A13B4CF230
:1035A0004E32934210D9214B98421DD9204B1B7BA0
:1035B0006BB1012BDFD11E49002301F80C3F012222
:1035C0000420FFF7AFF8D6E71FF053F8D3E7012246
:1035D000174901F80C2F0420FFF7A4F864220521F5
:1035E0000020FFF7EFF9C6E7124B9842C3D8104B03
:1035F000DB7A002BBFD10E4B1B7B6BB1012BBAD1F9
:103600000D4B01221A701AF054F84FF47A7205210A
:103610000020FFF7D7F9AEE70020FFF765F8AAE72B
:10362000F88102088423002028520020F04902007B
:103630006C2300209F8601002652002070B50646AC
:103640000D468B681B781C2B01D000241DE0214BFC
:10365000DB7A002BF9D10028F7D101221D4901F8AE
:103660000B2F0320FFF75EF8EFE704EB44021A4B41
:1036700003EB82035B780A2B1DD11749900001EB05
:10368000820300220A545A700134022C21DCAB68F8
:10369000197804EB4402104B03EB82039B789942A8
:1036A000F2D1002EE1D10C49900001EB82030022FF
:1036B0000A545A70E8E7084A04EB440C02EB8C0009
:1036C000012102F82C100B4443700230FFF7CAF8B6
:1036D000DAE770BD6C2300203C23002010B5A0F178
:1036E0009003062B4ED8DFE803F00411204D4D2F38
:1036F0003E002D4BDB7A6BB92C4B1B7853B12C4B16
:1037000019882C4B18680DF08EFE03E0032000F0A2
:1037100099FA00B910BD1AF0D8F81AF0D7F826496E
:10372000264B18681DF0DDFDF4E7012000F08AFA51
:103730000028EFD01AF0C9F81AF0C8F820491F4B3A
:1037400018681DF0CEFDE5E7012000F07BFA0028A7
:10375000E0D01AF0BAF81AF0B9F81A49174B1868FD
:103760001DF0BFFDD6E7032000F06CFA0028D1D091
:103770001AF0ABF81AF0AAF81349104B18681DF0AC
:10378000B0FDC7E70446032000F05CFA0028C1D072
:103790001AF09BF81AF09AF822460C49074B186861
:1037A0001DF09FFDB6E700BF6C23002027520020CC
:1037B000D8570020942300204075020814280020C8
:1037C000507502087075020894750208B0750208F9
:1037D00010B523F0FFFA0446214B1B68C31A214A97
:1037E000934205D9204A127812B1204A93420ED949
:1037F0001D4A127812B11E4A93420CD81D4B1B78F9
:1038000023B11D4B1B7B53B1012B1CD010BD1B489A
:103810001AF044FAFAE719481AF03BFAF6E71EF0F4
:10382000B5FE60B9164B1B68E31A41F67862934205
:10383000ECD9134B1C6011481AF035FAE6E70F4833
:103840001AF027FAE2E71EF0A1FE0028DED00D4BA9
:103850001B78002BDAD109481AF01BFAD6E700BF13
:1038600084230020A086010028520020EF49020096
:10387000F0490200275200206C2300202882020811
:103880009C5400202652002010B580B1044601202F
:1038900000F0D8F900B910BD1AF017F81AF016F8B0
:1038A00022460A490A4B18681DF01BFDF3E7032066
:1038B00000F0C8F90028EED01AF007F81AF006F860
:1038C0000449034B18681DF00CFDE4E7C8750208B5
:1038D00014280020F075020808B5024B1B6803B1DC
:1038E000984708BDC823002008B5024B5B6803B1A8
:1038F000984708BDC823002008B5024B9B6803B158
:10390000984708BDC823002008B5024BDB6803B107
:10391000984708BDC823002008B5024B1B6903B1B6
:10392000984708BDC823002008B5024B5B6903B166
:10393000984708BDC823002000B585B0094B18681A
:10394000094B1860094B0A4A13600A4A01920A4A55
:1039500012680292039301A91CF0B5FF05B05DF84F
:1039600004FB00BFBC54002070320020B054002083
:103970006C320020D88102089C26002008B5024B3A
:1039800018681CF0B4FF08BDBC54002038B507F01F
:1039900015FB0446064D2B68D3F8B00207F002FB76
:1039A00028681CF0BEFF204607F0FCFA38BD00BFB7
:1039B000BC54002008B5034823F08CF8024800F0FE
:1039C00099FE08BD10850208C0540020002306207F
:1039D00073B1704754B224B9013353B15DF8044B4D
:1039E00070470228F8D008680A4908601046F3E7D3
:1039F00010B4094A52F823100A7A022AEAD9032A93
:103A0000EAD1441EE4B2012CE6D9086801490860F5
:103A10001046E1E79C260020D454002010B5A2B047
:103A20002024224600211AA821F04FFD314B1A9381
:103A30004FF4E1331C9302238DF8753003238DF886
:103A400076302D4B1E930A238DF87E3009238DF896
:103A500080300021159116911791189119914FF40A
:103A600080131593254B1993109111911291139175
:103A70001491234B1093234B14933C2201A821F063
:103A800024FD0DF1040E0DF1540CBCE80F00AEE85E
:103A90000F00DCF80030CEF800300DF1180E0DF1FB
:103AA000400CBCE80F00AEE80F00DCF80030CEF8A8
:103AB0000030154B0B930C9401238DF834308DF8A6
:103AC00035308DF83630114B0F93114B1AAA01A9DE
:103AD000104807F01FFB04469DF837303BB100212A
:103AE0004FF4E13019F04BFF204622B010BD032106
:103AF000F6E700BF34850208188502083C00015B28
:103B0000010010004400015BA0260020E8540020C2
:103B1000C02600207C27002008B531B9084B186862
:103B2000036823B107F00CFF01E0012900D908BDAB
:103B3000034B18680368002BF9D01DF0B4FEF6E7BC
:103B4000FC54002008B50349034808F06DF8FFF75E
:103B500065FF08BD00550020A427002008B50248D5
:103B60001DF005FC08BD00BF7C27002008B50248F9
:103B70001DF0FDFB08BD00BF7C27002008B5024BEF
:103B80005A6A1868904708BD7C27002008B502488B
:103B900019F079FF08BD00BFF881020808B5034895
:103BA0001AF072F802481AF06FF808BD288202086D
:103BB0001082020818B1034A1060002070472520C7
:103BC000704700BFAC27002010B5044C04492068A2
:103BD00002F016FC2068FFF7EDFF10BD3C560020F8
:103BE00018550020014B1868704700BFAC27002013
:103BF00000B583B00B460549097801910092002277
:103C000001211EF00BFD03B05DF804FB4E580020AF
:103C100010B50446032000F015F820B9A179A0687A
:103C200019F04FFE10BD19F050FE19F04FFE034978
:103C3000034B18681DF055FBF0E700BF40820208F7
:103C40001428002003460B4A107828B10A4A12783B
:103C50009A4202D2002000E00120084A12783AB1CC
:103C6000074A127842FA03F313F0010F00D1002043
:103C7000704700BF51580020505800202A520020A1
:103C80004F58002008B5084B01221A70074B00223C
:103C90001A70074B04221A70064B1F221A7007F085
:103CA0008DF9054B186008BD515800202A5200209C
:103CB000505800204F5800201428002008B505480F
:103CC00022F008FF19F090FD012019F025FE00F008
:103CD000B1F808BD1085020808B5024822F0FAFEC6
:103CE00008BD00BF108502082DE9F04180460F464F
:103CF00001F109050026344604E05B21082000F0AC
:103D0000C1FA0134AC4233D2052C1BD801A353F8BD
:103D100024F000BFFB3C00082D3D0008613D000879
:103D2000353D0008393D00083D3D0008FBB2043335
:103D3000D9B2E3E78021E1E70021DFE7731C3146D8
:103D4000DEB2DBE7BB1DA3420CD0FB1DA3420BD0B0
:103D500007F10803A34209D0A31F18F80310CDE709
:103D6000D121CBE75A21C9E75A21C7E75D21C5E731
:103D70000020BDE8F08100BF00B583B000230093B0
:103D80000193FFF72FFF114B186001238DF80030CE
:103D900090F8363093B100200C4B1B6893F8351027
:103DA00002290FD003290FD119F0CCFD0190082171
:103DB0006846FFF799FF03B05DF804FB00681CF04C
:103DC00008F9E9E70321EFE70021EDE718280020D3
:103DD00000B583B000220092019202218DF80010FC
:103DE000054819F0B4FD019008216846FFF77CFFF3
:103DF00003B05DF804FB00BF006A180000B583B093
:103E0000044B1B88ADF8043001A800F017FB03B089
:103E10005DF804FB5082020800B583B0044B1B8898
:103E2000ADF8043001A800F0D9FA03B05DF804FB46
:103E3000508202082DE9F04F97B04D4D09AC2E1D70
:103E40000FCE0FC43368236001AC05F118060FCE06
:103E50000FC496E80F0084E80F00464822F03AFEAF
:103E6000454822F037FE01268DF8096000248DF8C0
:103E70000840424B0B9301AB0D93414F09A93846C3
:103E80001BF0B7FFB5F838B0ADF838B032460421B2
:103E90000EA800F067FAB5F83CA0ADF83CA02246A9
:103EA00031460FA800F05EFAB5F84090ADF84090AA
:103EB0003246042110A800F055FAB5F80080ADF89C
:103EC00044803246042111A800F04CFA2D4D2E4BAF
:103ED000C5F8F8344FF00213C5F8F434A3F5803375
:103EE000C5F8FC341C23C5F8E4344FF4487008F0DE
:103EF00053FBFFF783FF142008F04EFBFFF78CFF06
:103F0000232008F049FBFFF779FFB92138461BF061
:103F100058FFFFF781FFADF848B02246214612A8AE
:103F200000F020FAADF84CA02246214613A800F07C
:103F300019FAADF850903246214614A800F012FA52
:103F4000ADF854803246214615A800F00BFA3846E9
:103F500003F0A6FDC5F8E444C5F8F844C5F8F444F8
:103F6000C5F8FC44044822F0BAFD17B0BDE8F08F54
:103F7000508202081085020814850208E070720061
:103F800000000A5000C003500200030008B50448B6
:103F9000044A121A9210044919F004FD08BD00BF2A
:103FA00080010008800300088052002008B5154BEE
:103FB00083F30A8800F030F8FFF7E8FF124A0AE0BE
:103FC0001068516850F8230041F8230001339168CC
:103FD0008B42F5D30C320D4B9A4201D20023F6E707
:103FE0000B4A08E01168002041F8230001335168B2
:103FF0008B42F7D30832074B9A4201D20023F6E7EF
:10400000FEF75CF90000002068C9020874C90208C4
:1040100074C9020874C9020870B5134B134A9A6038
:10402000D3F8882042F47002C3F88820104A4FF475
:10403000804191660F4D05F500544FF0FF32226626
:104040000D4A62660222C3F8D020BFF34F8FBFF340
:104050006F8F002006F07CFF4FF44036E6600020B2
:104060001DF0EAF82E6170BD00ED00E000000008D0
:1040700000900050008000447FFF7F01014B1860DA
:10408000704700BF4456002008B5064B1860064B29
:104090001B6F03F00703032B00D008BD21F09CFC2D
:1040A000FBE700BF4C56002000800050BFF34F8F4D
:1040B0000549CA6802F4E062044B1343CB60BFF3C6
:1040C0004F8F00BFFDE700BF00ED00E00400FA05E0
:1040D000F0B18446F1B110B409E004F120000FE022
:1040E0002033C01A18D1BCB10CF1010C01319CF87D
:1040F00000400B4B1B5D03F00303012BEDD020466A
:104100000B78074AD25C02F00302012AE9D1E7E703
:1041100001207047012070475DF8044B704700BFD5
:104120002DC8020830B587B00546046823798DF89C
:104130000C3063798DF80D301B4822F0CBFC002247
:10414000012103A800F00EF90DF10B0103A819F0ED
:1041500064FD9DF80B3083F001032370A379022BDB
:1041600002D0002007B030BD4FF0FF330593049319
:1041700000950E4B002205A903A800F02FFA059B1D
:10418000B3F1FF3F07D00095084B012204A903A813
:1041900000F084F9E5E70095044B042204A903A884
:1041A00000F07CF9DDE700BF10850208A3DA010802
:1041B00010B582B0002401942A4822F08BFC8DF8BF
:1041C000004003238DF8013001220421684600F0ED
:1041D000C9F8254B0122C3F8442401A9052022F087
:1041E00072FC00283BD1214BD3F8F02042F00102B1
:1041F000C3F8F020D3F8FC2042F08072C3F8FC2012
:10420000A3F55D431A4A1A60019B03F5D52303F217
:10421000FC43DB08174AA2FB03239B0A013B164A17
:1042200013610223C2F8F0304FF48073C2F80433F4
:104230004FF06043114AC3F8B02F114AC3F8802EE3
:10424000D3F8002E42F48072C3F8002EFF2283F8C8
:104250002020D3F8002E22F48072C3F8002E02B082
:1042600010BD00BF1085020800D0035000ED00E033
:10427000FF03004017916502000004E055CEACC575
:10428000090001004FF06043D3F8803E13F0010FA6
:1042900001D1112070470E4AD2F8FC3043F08073F0
:1042A000C2F8FC304FF06043D3F8002E4FF0010C01
:1042B0000CFA00FC42EA0C02C3F8002E53F820303E
:1042C000002BE8D04FF0604303F820100020704727
:1042D00000ED00E010B504460FE00123834024EA1E
:1042E00003040F2814D800EB40020E4B03EB8203AB
:1042F0005A6812B19968C0B2904794B12346002021
:104300001F28EAD813F0010FE7D101305B08F7E767
:10431000103800EB40039B00B033024A13440433CF
:10432000E6E710BD1C28002008B50D4822F0D2FB9E
:104330001A2006F0D3FD28B91B2006F0CFFD40B9A6
:10434000002008BD1A2006F003FE1A201CF074FF9E
:10435000F2E71B2006F0FCFD1B201CF06DFFEFE7D1
:10436000108502082DE9F04170B30C46174605464A
:104370000F292BD803784BB1022B20D0032B21D04F
:10438000012B01D0002303E07F2301E040F2FF7303
:104390006A78D34013F0010F1AD00F4BD3F8106393
:1043A000C6B922F092FA80463A462146284604F0E1
:1043B00015F9404622F084FA3046BDE8F08140F21B
:1043C000FF33E5E73F23E3E72226F5E72126F3E77E
:1043D0002126F1E70226EFE700C0035040B310B5F5
:1043E000044603784BB1022B1DD0032B1ED0012BAA
:1043F00001D0002303E07F2301E040F2FF736278E5
:10440000D34013F0010F15D022F05FFA23786278C1
:104410000121914003EB43031B01074AD15022F0D5
:104420004FFA002010BD40F2FF33E8E73F23E6E7F4
:10443000222070472120F5E740D0035040B310B54B
:10444000044603784BB1022B1DD0032B1ED0012B49
:1044500001D0002303E07F2301E040F2FF73627884
:10446000D34013F0010F15D022F02FFA2378627891
:104470000121914003EB43031B01074AD15022F075
:104480001FFA002010BD40F2FF33E8E73F23E6E7C4
:10449000222070472120F5E740E00350002866D035
:1044A0002DE9F0410C4615461F460646002960D00E
:1044B00002784AB1022A3ED0032A3FD0012A01D015
:1044C000002303E07F2301E040F2FF737178CB40CB
:1044D00013F0010F01D1FF2A4DD1022D01D9042D76
:1044E0004BD122F0F2F980463378FF2B28D1236894
:1044F000B3F1FF3F2BD02268B2F1FF3F32D0204B07
:1045000002EB420203EB82025760226802EB420296
:1045100003EB8203069A9A603378FF2B05D022685A
:1045200001239340174AC2F82434404622F0C8F9C8
:104530000020BDE8F08140F2FF33C7E73F23C5E725
:104540002A462168304604F0B3F82060CFE733787C
:10455000FF2BD0D10C4BD3F8241470781BF071FDD5
:104560002060C8E7404622F0ABF92D20E1E7222089
:1045700070472220DDE72120DBE72120D9E700BFBB
:104580001C28002000D0035000C00350B0F1FF3FB2
:104590001AD038B504460F2818DC002818DB22F0A2
:1045A00094F90123A3400B4AC2F82034C2F8243402
:1045B000094B04EB440203EB820200255560956031
:1045C00022F07EF9284638BD212070472120FAE7E5
:1045D0002120F8E700E003501C280020002856D0D6
:1045E0002DE9F0410C4617461E460546002950D0DD
:1045F000017849B1022939D003293AD0012901D0E3
:10460000002303E07F2301E040F2FF736A78D34088
:1046100013F0010F01D1FF293DD122F056F9804658
:104620002B78FF2B27D12268B2F1FF3F2AD01B4BFA
:1046300002EB420203EB8202C2F8B860226802EB8E
:10464000420203EB8203069AC3F8BC202B78FF2BAF
:1046500006D02268103201239340114AC2F8243454
:10466000404622F02DF90020BDE8F08140F2FF33F2
:10467000CCE73F23CAE73A462168284604F0B8F859
:104680002060D0E7404622F01BF92D20ECE72220E5
:1046900070472220E8E72120E6E700BF1C28002021
:1046A00000D0035008B5084BD3F82404D3F82024D5
:1046B000104000F0553020F0502003F50053C3F8AF
:1046C0002004FFF707FE08BD00C0035008B5084BE3
:1046D000D3F82404D3F82024104000F0AA3020F0AE
:1046E000A02003F50053C3F82004FFF7F3FD08BD35
:1046F00000C0035070B586B005460368B3F1B64FED
:1047000027D0304A934222D04FF0FF36B3F1B64F54
:1047100021D02C4A934252D12B4822F0DBF92B793D
:104720008DF804306B798DF80530AB798DF8003059
:10473000EB798DF8013001220A2101A8FFF712FE62
:1047400001220A216846FFF70DFE002412E001262F
:10475000DCE70026DAE71D48DFE701A8FFF76EFE79
:10476000642007F019FF01A8FFF738FE642007F066
:1047700013FF0134092CF0DD154A02EB0611032367
:10478000C1F8383568792B7943EA0043C1F83C35E4
:10479000E979AB7943EA0143543636019351012359
:1047A0008DF808308DF80930EB680493AB680393FB
:1047B0002B7C8DF8143002A9286803F073FC06B036
:1047C00070BD00BF00800650088502080C850208F5
:1047D00000C0035010B582B004460A4822F07AF9AE
:1047E00023788DF8043063788DF80530A278B2FA1A
:1047F00082F2520904210DEB0100FFF7B3FD002006
:1048000002B010BD10850208F0B585B00C46944684
:104810009DF83410664A1278002A00F0BD800546E3
:10482000BCF1070F00F2BA800A9A002A00F0B880A3
:104830000B9A002A00F0B6800E9AB2F5006F00F3D2
:10484000B38001285BD05B4A02EB0C12127B002A7A
:1048500000F0AC8000220092019202920392564A2C
:1048600002EB4C1E002C4FD14FEA4C160020905109
:10487000CEF80400CEF80800CEF80C009EF8020036
:1048800040F010008EF802009EF8030040F0300067
:104890008EF8030021B9C1B241F003018EF8031074
:1048A00000930E9B013B444A4FEA4C1002EB4C1123
:1048B000165A63F30E1616520A9B8B600B9B4B60C5
:1048C000CB789DF83C2062F38303CB70012D36D06A
:1048D000109B002B56D0374A4FEA0C1102EB0C13F9
:1048E00010985050119A5A6000249C605D73724673
:1048F0006946604603F04CFC204605B0F0BD0C9ABA
:10490000002AA0D12D48F8E72B4F4FEA4C1607EBB1
:104910004C120020B85150609060D060907840F008
:1049200010009070D07840F00300D0700029B7D10B
:1049300007EB4C12C1B241F03001D170B0E70E4626
:104940000A7B42F001020A73D2B242F002020A73F9
:10495000CA68042161F39F02F26006F1100796E82D
:104960000F0087E80F00F2696FF0030161F39F0207
:10497000F2610C9B7361012CAAD10B9AB2610C9A63
:104980007260A5E7002DA6D10B4B03EB4C139A7870
:104990006FF304129A709EE70948AEE70748ACE748
:1049A0000648AAE70548A8E70448A6E70548A4E79B
:1049B0002B520020842A002084290020018000F04E
:1049C000028000F0078000F0134B1B78FBB110B59C
:1049D0000446F0B121F079FF0023072B13D80F4ACA
:1049E00002EB0312127B0AB10133F6E723600B4A94
:1049F000190102EB031301241C730024545021F00D
:104A00005FFF204602E021F05BFF054810BD05482E
:104A100070470548FAE700BF2B520020842A002087
:104A2000048000F0028000F0018000F038B521F031
:104A30004CFF04460023072B06DC0C4A02EB031252
:104A4000127B12B90133F6E7002222B1204621F091
:104A500037FF074838BD03F047FB0025054B1D70A5
:104A6000204621F02DFF2846F4E700BF842A0020CD
:104A7000058000F02B5200200F4B1B78BBB110B506
:104A80000446072815D821F020FF0C4B03EB041334
:104A90001B7B1BB921F014FF09480BE0074B03EB0C
:104AA000041300241C7321F00BFF204602E005488C
:104AB0007047054810BD00BF2B520020842A0020FB
:104AC000068000F0028000F0018000F000B583B0A5
:104AD000134B1B68019300238DF8043021F0F5FE81
:104AE000104B1B7833B90F4B01221A7021F0E8FEEE
:104AF000002309E021F0E4FE0B480EE00B4A02EB34
:104B00000312002111730133072BF7DD08238DF801
:104B1000073001A803F00CFB002003B05DF804FB94
:104B2000948202082B520020038000F0842A002087
:104B300010B5104C2478BCB1072817DC0E4C04EBE0
:104B40000014247BA4B10C4C4FEA001E04EB001CA3
:104B500044F80E30029BCCF804300024CCF8084016
:104B600003F016FB204610BD0448FCE70448FAE7B2
:104B70000448F8E72B520020842A0020028000F02D
:104B8000018000F0078000F008B50A4B1B785BB18C
:104B900007280BD8084B03EB00131B7B43B1002104
:104BA00003F0B8FA002008BD0448FCE70448FAE71F
:104BB0000448F8E72B520020842A0020028000F0ED
:104BC000018000F0078000F008B50A4B1B785BB14C
:104BD00007280BD8084B03EB00131B7B43B10121C3
:104BE00003F098FA002008BD0448FCE70448FAE7FF
:104BF0000448F8E72B520020842A0020028000F0AD
:104C0000018000F0078000F0F8B5194B1F6D5B6D57
:104C10001F4002D40125002402E0FEE701346D00AC
:104C2000072C24D83D42F9D0124B1D652301124AAE
:104C3000D358002BF2D002EB0416B1680131B160F9
:104C400072682046984780F00100C0B2737B012B48
:104C5000E4D10028E2D0094B03EB44131A7B6FF335
:104C600041021A731A7F6FF341021A77D6E7F8BD33
:104C70000000045000200450842A002084290020D1
:104C80002DE9F04F89B005460E4614469846C36B91
:104C90005B69012207A960689847EB6B5B69012299
:104CA00006A93046984707A81AF063FA48B10027CA
:104CB000A77567754FF0FF33A360384609B0BDE8AC
:104CC000F08F074606A81AF064FA0123A375237E25
:104CD000033304EBC3035E6000221A816368B342AE
:104CE0002AD02368834201D00023A37506A81AF0B6
:104CF00075FA237D984201D00023A37506A81AF007
:104D00004CFA814607A81AF048FA814501D00023E1
:104D1000A37506A81AF049FA814607A81AF045FAC1
:104D2000814501D00023A375237D043BDBB2022B18
:104D30000BD80023A375C0E7206006A81AF04EFA2E
:104D400020754FF0FF33A360EEE706A81AF025FAAE
:104D500080B1EB6B5B69022204A93046984704A836
:104D60001AF02EFA0346207D032868D8DFE800F009
:104D7000615B070D06A81AF023FA0346F3E7237ECA
:104D8000033304EBC303CC221A811AF037FA129BC7
:104D9000187094F8189006A81AF0F2F909F10309AE
:104DA00004EBC90989F80A00237E033304EBC3032B
:104DB000B3F808A093F80AB006A81AF0EEF98146F5
:104DC00006A81AF0F2F90390B9F1000F3DD0EB6B91
:104DD0005B69022204A93046984704A81AF0ACF98E
:104DE0006075637D03B9A375A37DA3B1BAF1000F0C
:104DF00011D0039BF1186B6C5B4286EA01021A42E8
:104E000001D00023A3756B6C5A1E0A409B1A9A4569
:104E100001D90023A375A37D002B40D0BBF1000F67
:104E200018D1E77D3CE0227E033204EBC2021381FD
:104E3000ABE7227E033204EBC2021381A5E7227E98
:104E4000033204EBC20213819FE706A81AF05DF952
:104E50006075C6E70122E275627EBAB9BBF1010F47
:104E600008D095F83470DFB9EA6AB2F1FF3F05D097
:104E70001F4615E001216176174611E0BBF1030FD3
:104E800001D01F460CE00122A27609E0BBF1010F20
:104E900037D0BBF1030F03D10122A27600E01F46F9
:104EA00053B117B1BBF1010F06D95346039A3146EE
:104EB000284619F0A1FAA060A37D13B123695344D9
:104EC0002361237E114A127893421CD20133237648
:104ED000B8F1000F13D0A37D8BB1E37D7BB177B91F
:104EE000BBF1030F0BD0A168B1F1FF3F07D0129BBC
:104EF0000093012322462846FFF7C2FEA075A77D36
:104F0000DBE61746CCE70023A375E1E7B882020889
:104F10002DE9F04F89B005460F4692469B46002387
:104F20008DF80B304FF0FF31104600F0EFFFB7F572
:104F3000801F1DD30023009317F1020F07D0009BA1
:104F4000002B40F09E802B7C002B00F08C80EB6AC5
:104F5000B3F1FF3F2CD02A689B1A6A6CB3FBF2F9BD
:104F600017F1020818BF4FF00108002301935DE01C
:104F70000DF10A02394605F1080000F017FF01465D
:104F8000B0F1FF3F11D0504600F0C0FF0DF10B0310
:104F900001225146284619F0AEFA00900028CBD0E5
:104FA0009DF80B308BF80030C6E700230093C3E771
:104FB000696A284619F041F98146D1E70123019336
:104FC00037E09DF80B308BF80030324B1A683249CD
:104FD000504620F0A1FA00942F4B9968B1F1FF3FA1
:104FE0001BD06B6C5B4281EA06021A4215D12A4C37
:104FF000204600F08BFF0DF10B0342462146284668
:1050000019F079FA04460028E6D017F1020FD8D03B
:10501000214B1B68BB42DFD1D3E74946284619F034
:105020000CF98146019BCBB9009BBBB96B6A4B4520
:10503000C4D02C686B6C03FB0944EB6B5B690522E5
:1050400003A92046984703A81AF06FF91AF094F9BB
:1050500020461AF09DF906460146BFE7009BA3B122
:10506000B7F5801F03D3009B8BB100200AE09BF8AB
:105070000030DAF80420394605F1080000F0B4FEEB
:10508000F1E7002009B0BDE8F08F2D20FAE72D20D0
:10509000F8E700BFB48202087831002070B582B012
:1050A00004464FF0FF33C3620DF107031A4A6FF055
:1050B0000101FFF72DFF20BB174B9B68E362E56AF8
:1050C0002946204618F0AAFE2063E8B1294620466A
:1050D00019F082F90546A36AAB421BD02946204647
:1050E00018F09CFE0646236B0344236329462046A2
:1050F00019F072F90546002EEDD100232363E0621A
:10510000E9E7A36AE362DAE7E16A204619F064F9A5
:10511000E062DBE702B070BDA431002030B583B09F
:105120001C46032A14BF002201221B7E9A4202D091
:10513000012003B030BD0D46096823689942F7D3BA
:1051400063689942F4D80DF10703114AFFF7E0FEB6
:105150000028EDD10E4B5A686B689A42E8D19DF851
:105160000730032B14BF00230123227E9342DFD19B
:105170006369013363612369E2689342D8D2A2680C
:10518000296842F82310236901332361D0E700BF67
:10519000A43100202DE9F04182B004460E4690462D
:1051A0001F46816A06E01A4B9968B1F1FF3F1FD094
:1051B000012E23D0E06A884217D0B1F1FF3F14D00E
:1051C000134D284600F0A2FE0DF1070301222946E7
:1051D000204619F090F90028E5D03B469DF80720BD
:1051E00029462046C0470028DDD102B0BDE8F08145
:1051F0005968204619F0F0F80146D9E7044B5A687F
:10520000636C5B424A401A42D4D04FF0FF31D1E781
:105210004C31002010B50446083000F08DFD00230D
:10522000024A19462046FFF7B5FF10BDE5E4010824
:1052300038B50446037C0BBB02461349083000F026
:105240001DFE616A204619F01AF8421C616A204668
:1052500018F06BFF054620B9236B626C1344143BB6
:105260002363A16A204619F0B7F8A0622368C01A28
:10527000636CB0FBF3F06062284638BD0023034A3C
:105280000121FFF787FFDCE77DE801084BE8010813
:10529000F0B589B080B30F4616461D46044690F817
:1052A00034301BB90025284609B0F0BD012118F0A3
:1052B00011FF01950E9B029303970496002305931B
:1052C00006939DF83C308DF81C30237C5BB901AA15
:1052D0000A4904F1080000F0D1FD5EB9069D2046A0
:1052E00019F09AF9DFE701AB054A00212046FFF7E4
:1052F00051FFF2E7059DF2E70025D4E799E00108A8
:105300001D510008F0B58BB004460D46406AE36BB2
:105310005B69052205A92668676C07FB0060984752
:1053200005A81AF002F8012836D000940023019352
:105330008DF80850039301238DF81030A16AE36AB9
:1053400099420FD0237CBBB96A46144904F1080086
:1053500000F094FD019B13B99DF810309BB90198A2
:105360000BB0F0BD204619F037F8E062236B626C99
:105370009B1A14332363EDE76B46094A012120464B
:10538000FFF708FFE6E7626A2368616C01FB023100
:10539000E06B19F07CFFE2E70020E1E7A955000887
:1053A000295500082DE9F04F89B004468A469146F8
:1053B0001D46002307930969026BCB1D406C14380E
:1053C000B3FBF0F3013301EBC301914200F2A7807C
:1053D0004E4677E03D2840F092800490BB4605960B
:1053E0001EE04FF000092368616C01FB0631E06BA1
:1053F00019F039FF204618F077FE204619F013F80F
:105400002063B9F1000F76D0DAF81020D31D616C5B
:105410001439B3FBF1F3013302EBC30290423AD3E8
:105420002368ABEB0309606CB9FBF0F909FB0030B2
:1054300019F0AEFF8046E16A204618F0CDFFA36A5E
:1054400083422CD0E062374B9A68616C4B1E13404C
:10545000226B5B1A13442363ABEB08072368079E98
:10546000F61AB6FBF1F6B145BBD197B1E36B9B6978
:10547000BA08414698478146E36A3B44E362236B9E
:10548000A8EB0B084344236304F1080000F054FC2C
:10549000A9E7B946A7E7DDF810B0059E02E0DDF800
:1054A00010B0059EBBF1000F29D0DAF81000226B76
:1054B000C31D616C1439B3FBF1F3013300EBC3007E
:1054C00082421CD3E76ADFF85C803946404600F030
:1054D0001DFD07AB0293019500963B46424651469F
:1054E000204619F0C4FA834600287FF473AFD8F839
:1054F0000830E362D6E7DDF810B0059ED2E75F46DC
:105500001FB1384609B0BDE8F08F2B46054A5268F6
:10551000DAF8001004F1080000F066FCF1E71C273F
:10552000EFE700BF78310020F0B583B01C46032AB6
:1055300005D1237A012B33D0012003B0F0BD0646FC
:105540000F4615460DF10703164A0968FFF7E0FC00
:1055500060600028EDD19DF80730032BE9D0114B96
:105560005A687B689A42E4D1237A012B08D13B69BF
:10557000E26813447269934202D900232374D8E786
:10558000E3683A6913440833E3602B460122394645
:105590003046FFF707FF60600028CAD00020CCE744
:1055A000207CCAE7A4310020F0B583B0089C2668AF
:1055B000032A05D1237A012B4DD0012003B0F0BD81
:1055C00015460DF10703254A3046FFF7A1FC606040
:1055D0000028EFD12168214B5A688B6A486CC0F1D2
:1055E000000C5A4012EA0C0FE4D1227A012A19D099
:1055F0000F68DB1BB3FBF0F3CA6AD21BB2FBF0F2FD
:105600009A4219D0E36815490A6913440833E360E4
:105610002B4601222068FFF7C5FE60600028C9D034
:105620000020CBE70D4A1269E7683A447769BA422D
:10563000DED900232374BDE7726CF16A531E0B4060
:10564000316B9B1A0B4433632668B16A304618F0FD
:10565000C3FEF062D6E7207CB0E700BFA431002093
:10566000F8B56E4B1E6800221A60002800F0B68064
:105670000D46044690F8343013B30A6803689A4222
:1056800040F0AE804A6843689A4240F0AC808A6835
:1056900083689A4240F0A980CA68C3689A4240F081
:1056A000A6800A6943699A4240F0A3808A69C36B65
:1056B0009A4201D05D2594E04B698361002590E01A
:1056C000876B682200211FF000FFA7632B6823600F
:1056D0006B6863602B6963616B69A361EA68A968A1
:1056E00004F1080000F03AFBAB69E3639B6804F146
:1056F0004000984730B9636C23B16268B2FBF3F2A3
:10570000E26101E00023E36194F84330002B72D0A2
:1057100000232366656C002D6FD0E369002B6ED0EB
:105720002368B3FBF5F205FB1233002B69D16768E0
:10573000B7FBF5F305FB1373002B64D1204618F07B
:105740005DFBA369034404339F425ED36369B3F5F1
:10575000805F5CD8CB2B5CD9B5F5805F5BD3032130
:10576000204618F0B7FCE36B1B6861682068984717
:105770000546E36BDB6802209847EDB1636C143B90
:105780005DB9266A03FB06F6204618F037FBA369CD
:10579000034404339E4200D25A25B5FA85F35B09CF
:1057A00084F834301BB11E4A13680133136085B18D
:1057B000204618F031FF14E03146204618F0AFFEC5
:1057C00005466428DAD13146204618F0A8FE054681
:1057D000D4E76168206819F03BFCE9E7212500E087
:1057E0005D252846F8BD5D25FBE75D25F9E75D25CC
:1057F000F7E75D25F5E72125F3E75B25F1E75B2575
:10580000EFE75925EDE75925EBE75A25E9E75F254D
:10581000E7E75F25E5E75B25E3E700BF082B00200E
:10582000042B0020F0B585B0A8B30C4617461E46E1
:10583000054690F8343083B3B1F5801F2FD2012193
:1058400018F048FC0DF10F03164A21462846FFF7D1
:105850005FFB044630B99DF80F30012B08D0022BB6
:1058600017D02D24284618F0D7FE204605B0F0BDED
:105870000C4B1B69B34201D06324F3E70022019271
:10588000084B009333463946284618F0CDFE0446AF
:10589000E8E76024E6E72124E7E71124E5E7292487
:1058A000E3E700BFD0310020F0B585B0002838D044
:1058B0000C4617461E46054690F834309BB3B1F5AA
:1058C000801F32D2012118F005FC0DF10F03184A98
:1058D00021462846FFF71CFB044630B99DF80F30DF
:1058E000012B08D0022B1AD02D24284618F094FE44
:1058F000204605B0F0BD0E4B1A690A9BF3189A4278
:1059000001D26324F1E700230193094B00930A9B22
:1059100032463946284618F087FE0446E5E76024FB
:10592000E3E72124E4E71124E2E72924E0E700BFCC
:10593000D031002070B582B058B30C4616460546EB
:1059400090F834303BB3B1F5801F26D2012118F016
:10595000C1FB0DF10703124A21462846FFF7D8FA8A
:10596000044668B99DF80730032B10D0022B01D0F4
:10597000612406E00A49284619F03DF8306000E04D
:105980002D24284618F048FE204602B070BD2D2474
:10599000F7E72124F8E71124F6E72924F4E700BF0C
:1059A000D0310020F0B583B01C460023236070B3D3
:1059B0000E461746054690F8343053B3B1F5801FB4
:1059C00029D2012118F086FB0DF10703134A314655
:1059D0002846FFF79DFA064680B99DF80730032B4D
:1059E00013D0022B05D000233B600C4B1B692360B6
:1059F00005E001233B600423236000E02D262846B8
:105A000018F00AFE304603B0F0BD2D26F7E7212638
:105A1000F8E71126F6E72926F4E700BFD031002089
:105A200000B583B0044B009300231A46194619F0C1
:105A300013FA03B05DF804FBFFFF0F0000B583B05D
:105A4000044B009300231A46194619F00FFA03B0CD
:105A50005DF804FBFFFF0F002DE9F8431D469DF89C
:105A600020704369AB422FD304468846914618F014
:105A7000C1FE032F06D0266B2946204618F0AEF94A
:105A8000864225D3134E4FF0FF31304600F03EFAE8
:105A9000C6F800803561C6F80C903B4600223146BE
:105AA0002046FFF77FFC0546236E73B1204619F0B0
:105AB000E7F994F8503013B994F858302BB1236EAD
:105AC00004F15000984700E062252846BDE8F883BD
:105AD0001C25FAE7A43100202DE9F04184B000280C
:105AE0003AD00C4690461F46054690F83430ABB38A
