:020000040800F2
:1000000000200020A9430008A3E10108A3E10108A2
:10001000A12A0208A3E10108A3E10108A3E1010864
:10002000A3E10108A3E10108A3E10108A3E101089C
:10003000A3E10108A3E10108A3E10108A3E101088C
:10004000A3E10108A3E10108A3E10108A3E101087C
:10005000896D0008A3E10108A3E10108A3E10108FB
:10006000A3E10108A3E10108A3E10108753E00082E
:10007000653E0008A3E10108A3E10108A3E101082E
:10008000A3E10108A3E10108A3E10108A3E101083C
:10009000A3E10108A3E1010805500008A3E101085C
:1000A000A3E10108A3E10108C94A0008A14A000828
:1000B000A3E10108A3E1010855B4010801BF01084B
:1000C000C35B0208BF5B0208B5B60108D95B020832
:1000D000C75B0208D1BE0108CB5B020865BF0108FF
:1000E0009DBF0108A3E10108A3E10108E9CE0008D2
:1000F000A3E10108A3E10108A3E10108A3E10108CC
:10010000A3E10108A3E10108A3E10108A3E10108BB
:10011000A3E10108A3E10108A3E10108A3E10108AB
:10012000A3E10108A3E10108A3E10108A3E101089B
:10013000A3E10108A3E10108A3E10108A3E101088B
:10014000A3E10108A3E10108A3E10108A3E101087B
:10015000A3E10108A3E10108DF7602084199010843
:10016000A3E10108A3E101085D5B0208635B0208EB
:10018000194A5AB3194BDB6913F0040F29D110B483
:100190000AE003EA00048C4210D0013AB2B1134BDA
:1001A000DB6913F0040F14D110F0010FF1D1104CE2
:1001B0001C40002CEDD06FF001000CE00C4A1A40FE
:1001C0000AB9002007E06FF0010004E06FF00200C0
:1001D00001E04FF0FF305DF8044B70476FF0020014
:1001E00070474FF0FF307047809698000000035032
:1001F000020001000D4BDB6913F4803F12D170B592
:100200000A4B03F580560124F46003F500552C6475
:100210004FF480721A6100212046FFF7B1FF346469
:10022000EC6070BD6FF00100704700BF000003502C
:1002300010B5124B4FF480329A6603F51C33DC691B
:10024000144041F67132DA6303F580520121D16026
:10025000586102221A6100212120FFF791FF40B16D
:10026000074B0122DA601CB1A3F500530022DA63C8
:1002700010BD00212120FFF783FFF1E7009000501F
:100280000020035038B51A4B5861DB6913F0040F96
:100290002AD10C4654F8041B154B9961151F06E032
:1002A000214651F8042B124B9A61043D0C465DB176
:1002B00008210846FFF764FF03460028F0D00C4AE7
:1002C00004211161184638BD094B04221A6100212E
:1002D0002120FFF755FF03460028F3D100212120FC
:1002E000FFF74EFF0346EDE74FF0FF33EAE700BFAD
:1002F000000003502DE9F0410F46164605461A4B03
:100300004FF480329A6603F51C33DA6902F48038C0
:1003100041F67132DA6303F580530122DA6000237B
:1003200002E025442744361B8EB105F5005424F421
:10033000FF5424F01F04641BB44228BF34462246F5
:1003400039462846FFF79EFF03460028E9D0074AB2
:100350000121D160B8F1000F03D0A2F500520021B5
:10036000D1631846BDE8F081009000500020035092
:10037000000000000000000000000000000000007D
:10038000013800D0FCE770472DE9F04F2DED028BCE
:1003900093B082460C4693461D4657EC106B8DED8C
:1003A000080B32463B46304639461CF0CBFA002853
:1003B00000F009814FF0FF32B14B304639461CF056
:1003C000E9FA002840F0FF804FF0FF326FF480130D
:1003D000304639461CF0C0FA002840F0F480002274
:1003E0000023DDE90867304639461CF0B5FA0028DD
:1003F00040F0FC809DED087B8DED067B209B13F487
:100400008063119301D106231E93DDE906010246A4
:10041000C1F30A50C1F31303904643F07F5949F4E6
:100420004019A0F2FF301BF0BBFF83A3D3E90023E8
:100430001CF020F882A3D3E900231BF065FE0646DA
:100440000F4600228F4B404649461BF05BFE7EA3C1
:10045000D3E900231CF00EF802460B46304639461D
:100460001BF052FE1CF0A0FA06461BF099FF8046D6
:10047000894677A3D3E900231BF0FCFF0022824BBF
:100480001BF042FE1CF090FA074673A3D3E9002349
:10049000404649461BF0EEFF8046894638461BF031
:1004A0007FFF6FA3D3E900231BF0E4FF02460B4656
:1004B000404649461BF026FE8046894602460B46CA
:1004C0001BF0D8FFCDE90C0107F2FF370021002215
:1004D000CDE90A123B050B9300230A9342464B4693
:1004E000404649461BF010FECDE90E0142464B4600
:1004F00000204FF080411BF005FE80468946002217
:10050000624BDDE90C011CF0DFF80022604B1BF0B0
:10051000FBFD02460B46DDE90C011CF0D5F800227C
:100520005C4B1BF0F1FD02460B46DDE90C011CF0B3
:10053000CBF802460B46404649461BF0E5FD024615
:100540000B46DDE90E011CF0BFF80022524B1BF0F8
:10055000DBFDDDE90A231BF08DFF8046894649EC6F
:10056000188BDDE906231CF015FA40B1013E00228C
:10057000474B404649461CF0A7F841EC180B06F1E2
:100580006303C62B3BD80427209B13F4006F40D095
:1005900035A3D3E90023DDE90689404649461CF02E
:1005A000EFF900283BD032A3D3E900234046494667
:1005B0001CF0D2F9002832D01E9BB34221DD9E1BD5
:1005C000731E1E931FE0209B02931F9B01931E9B93
:1005D00000939DED080B2B465A462146504600F0ED
:1005E000CBF813B0BDEC028BBDE8F08F9FED227B02
:1005F0008DED067B069607F100430793FEE605277F
:10060000C2E700231E93209B43F4806320930027BE
:100610003E461F9B9F4241D2A3EB070840E01E9B32
:10062000002BF6D0119B002BF3D01E9B013B1E9399
:10063000EFE700BFAFF30080FB799F501344D33F37
:10064000B3C8608B288AC63F61436F63A787D23FD8
:1006500071A379094F930A401655B5BBB16B02409F
:10066000EF39FAFE422EE63F2D431CEBE2361A3FED
:100670000000000080842E41000000000000000007
:10068000FFFFEF7F0000F83F0000E03F00002C403C
:1006900000002440000018400000F03F4FF0000828
:1006A000209B13F0020902D00FB14FF000083EB1B9
:1006B00053EC182BDDE906011CF006F8CDE9060124
:1006C00000220023DDE908011CF046F900283BD197
:1006D000209B23F400630293CDF804801E9B0093BB
:1006E0009DED060B2B465A462146504600F044F835
:1006F000002F3FF476AF209B13F0200F2CD04FF04B
:10070000450C00F101082B46024621466046D047C1
:1007100086EAE672A2EBE67205230593013F049791
:10072000002303930A230293F30F019300922B46B5
:1007300042462146504623F038FEB9F1000F3FF4FF
:1007400050AF02461F9F10E0DDE90601024601F1AD
:100750000043CDE90623BBE74FF0650CD1E7561CFB
:100760002B4621462020D0473246A2EB0B03BB424A
:10077000F5D3104635E700BF2DE9F04F2DED028B84
:1007800093B00590089192469B4659EC108B1E9DA4
:1007900042464B46404649461CF0D4F8002840D01B
:1007A0004FF0FF326FF48013404649461CF0D4F8F6
:1007B000002845D14FF0FF32B14B404649461CF06E
:1007C000E9F800284BD1AAA3D3E9002340464946C3
:1007D0001CF0E0F800285AD1A7A3D3E90023404633
:1007E00049461CF0B9F8002851D1002200234046A8
:1007F00049461CF0B1F8002857D100230993209BEB
:1008000013F4806F5CD000241F2C5BD8092D59D9BC
:1008100004F148036B44302203F8202C013D0134DD
:10082000F2E7209B03931F9B029303230193954BB5
:1008300000935B4652460899059823F0DCFC10E1D2
:10084000209B03931F9B0293042301938E4B0093E1
:100850005B4652460899059823F0CDFC01E1209BA8
:1008600013F004030FD0894A7BB10423209903912C
:100870001F990291019300925B4652460899059890
:1008800023F0B9FCEDE0824AEEE70323EEE7209B7C
:1008900002931F9B0193009549EC108B5B465246D7
:1008A00008990598FFF770FDDBE042464B460020B3
:1008B00000211BF027FC80468946012309939EE70F
:1008C0000625A0E7404649461CF06EF806461BF098
:1008D00067FD02460B46404649461BF013FC6D4B34
:1008E00003EBC50393ED008B53EC182B1BF0C2FDFB
:1008F00002460B46CDE906231CF07EF807461BF0A6
:100900003FFD02460B46DDE906011BF0FBFB0246FC
:100910000B46CDE9062300225F4B1CF03BF850B399
:10092000013738461BF02CFD02460B4651EC180BE4
:100930001CF01CF808B10136002755BB30461BF0EF
:100940002FFD02460B46404649461BF0DBFB804626
:1009500089460022504B1BF0FFFF38B100224E4B5E
:10096000404649461CF016F8002842D016F0010F08
:100970003FD001363DE00022474BDDE906011BF088
:10098000EBFF0028D9D117B117F0010FD5D00137EF
:10099000D3E71F2C17D8013D404BA3FB0723DB08EF
:1009A000194603EB8303A7EB4303621C303304F1C6
:1009B00048000DEB000404F8203C092F02D90F4633
:1009C0001446E6E714461F2C0AD86B1E45B104F105
:1009D00048026A44302102F8201C1D460134F2E727
:1009E0001F2C06D804F148036B442E2203F8202C58
:1009F00001341F2C17D82A4A82FB0632F317C3EBA7
:100A0000A2031A4603EB8303A6EB4303611C3033B6
:100A100004F148000DEB000404F8203C16460AB12E
:100A20000C46E6E70C46209B03F00303012B39D06C
:100A30001F2C09D8099B002B51D004F148036B44AB
:100A40002D2203F8202C0134209B03931F9B02933B
:100A500001940AAB00935B4652460899059823F02F
:100A6000CAFB13B0BDEC028BBDE8F08FAFF3008082
:100A70000000000065CDCD410000000065CDCDC176
:100A8000FFFFEF7FA4920208A89202089892020842
:100A9000A0920208B09202080000E03FCDCCCCCC7E
:100AA000676666661F9BB3B1099B1BB9209B13F059
:100AB0000C0F12D01F9B013B1F93194606E004F157
:100AC00048036B44302203F8202C01348C42AFD20F
:100AD0001F2CF4D9ACE71F99F8E71F99F6E7209B84
:100AE00013F0040F07D004F148036B442B2203F8E2
:100AF000202C0134A8E7209B13F0080FA4D004F1A8
:100B000048036B44202203F8202C01349CE700BFEB
:100B100038B50D46044626F0ECFA064A13889BB217
:100B20002DB123431380BDE8384026F0DDBA23EA17
:100B30000403F7E7DC4B00200022034B01214FF4B4
:100B400080709A70E4E700BFDC4B00207FB54E68F0
:100B500002A9044624F0C3FA9DF808300C2B19D1E1
:100B6000134BB3F90050134B9E4218D808F01EFAED
:100B700003460068694600909B882046ADF8043023
:100B800024F09AFA70B140F25F620B490B480EF004
:100B9000B9F9FEE7204613F0B7FF0546E3E71FF07B
:100BA000A9FEE5E72946204624F06CFA04B070BDA2
:100BB000AE510020FFC99A3B5995020824930208C0
:100BC000002330B5134C85B0CDE90133039323786E
:100BD0008DF8043026F08DFAA288E38805469A4203
:100BE0000DD0E188A06801AAA18024F001F958B1D4
:100BF00040F2DA62084909480EF084F9FEE7A0687D
:100C000024F0CFF80128ECD0284626F06DFA05B084
:100C100030BD00BFFC5600205995020824930208FD
:100C200038B50F4C656835B940F2C7720D490E48AA
:100C30000EF068F9FEE723F08DFC284411F0B2F8BD
:100C400000F00700032809D164680921204623F039
:100C50009DFD205C031F5842584138BD0020FCE731
:100C6000DC4B0020599502082493020808B5114B6B
:100C70009A78042A06D040F28E520F490F480EF09F
:100C800041F9FEE71B881B0706D440F28F520A4940
:100C90000A480EF037F9FEE700210820FFF738FF79
:100CA0000222074B98681A7313F0E8FCBDE808406D
:100CB00022F050B8DC4B002059950208249302081A
:100CC000FC56002010B5084CA06813F0D7FCA068B3
:100CD00024F067F8012806D00122A0681146BDE87B
:100CE000104024F060B810BDFC56002038B5194DF6
:100CF000AB7833B140F22B72174918480EF002F965
:100D0000FEE726F0F6F92988044611F0060109D01D
:100D100001214FF48070FFF7FBFE2046BDE838400C
:100D200026F0E2B94FF48070FFF7F2FE12F0F8FD02
:100D3000012805D010F0FD0F05D1FFF741FFECE7CA
:100D4000FFF7C0FFE9E740F24172034903480EF0A4
:100D5000D9F8FEE7DC4B00205995020824930208DD
:100D600070B50446064D95F90860FFF7BFFF12F015
:100D7000D5FC314620466A68BDE8704012F006BBDB
:100D8000DC4B002008B50A4B1B88DB0606D440F27A
:100D9000A752084908480EF0B5F8FEE700211020D8
:100DA000FFF7B6FE12F038FEBDE8084021F0D2BFD2
:100DB000DC4B002059950208249302080D4B10B516
:100DC0001B8804469B0713D500210220FFF7A0FED5
:100DD000094B5A7BFF2A06D040F2E54207490848F2
:100DE0000EF090F8FEE75C73BDE8104021F0B2BF52
:100DF00010BD00BFDC4B0020FC56002059950208B6
:100E0000249302087047704707B5ADF806100146F5
:100E100030B94FF4B572104910480EF073F8FEE780
:100E2000BDF8063033B940F26B120B490B480EF097
:100E300069F8FEE70A4B0DF10602986824F006FAFD
:100E400030B140F26D12044904480EF05BF8FEE741
:100E500003B05DF804FB00BF599502082493020813
:100E6000FC56002010B50E4CA37833B14FF4EA7253
:100E70000C490D480EF046F8FEE7606019B1A17B01
:100E8000003918BF01212020FFF742FE074B084818
:100E90009B7B23760223A370BDE8104010F04EBE6A
:100EA000DC4B00205995020824930208FC560020D0
:100EB000F84B002008B50CF0B5FA80F00100C0B284
:100EC00008BD0A4B9A780AB1062A0CD11B8803F494
:100ED0008B7343B9064B5A7BFF2A04D1187BFF382A
:100EE00018BF012070470120704700BFDC4B002075
:100EF000FC56002008B50CF085FA0028FBD108BD8F
:100F00000C4B42889A8142789A730278DA7382880D
:100F10001A82C2885A82C2685A61017A064A91735B
:100F2000028A998C914204D001214FF400709A8476
:100F3000EEE57047DC4B0020FC560020094B9A89F7
:100F400042809A7B4270DA7B02701A8A82805A8AC7
:100F5000C2805A699B8CC260034A0382927B0272F0
:100F6000704700BFDC4B0020FC5600204B1E012BBD
:100F700070B50C4606D940F2B7221A491A480DF04E
:100F8000C1FFFEE7194D0A460146A86824F088F91A
:100F900030B140F2B922134913480DF0B3FFFEE718
:100FA000AE6810F03FFD22460146304624F072F94B
:100FB00030B140F2BD220B490B480DF0A3FFFEE714
:100FC000AD6810F03BFD22460146284624F06EF93C
:100FD00030B140F2C122034903480DF093FFFEE710
:100FE00070BD00BF5995020824930208FC560020EA
:100FF000054BDB7B1B0913F00E0003D0052B8CBFC8
:1010000000200120704700BFFC560020044BDB7B12
:101010001B0913F00E0F0CBF01200020704700BF0A
:10102000FC5600202DE9F04F15469A0580461F46D4
:101030008FB003D501218020FFF76AFDEB014FF04F
:10104000000955D5984C23889E0751D5974E737B40
:10105000FF2B06D040F2AF42954996480DF052FF63
:10106000FEE7636833B94FF49662914991480DF0F9
:1010700049FFFEE749460220FFF74AFDA37886F8BC
:101080000D90042B03D101210820FFF741FD00231F
:10109000B06808A98DF82C3024F023F830B140F264
:1010A000BA42834983480DF02DFFFEE7FFF7A0FF0A
:1010B000B0B923F04FFA8146606823F056FA08A9C8
:1010C0008144B068ADF8249024F00EF830B140F2BD
:1010D000C242774977480DF015FFFEE7089BA362EF
:1010E000A378032B02D1B06813F0C8FA21F032FEC6
:1010F000B80702D50120FFF761FE15F0A84F02D016
:101100000220FFF75BFEA90220D50021402003AC9E
:10111000FFF7FEFC2146404624F0E0F8B0B99DF808
:10112000143008AA022B22D18DF82830BDF80C30DB
:10113000ADF82030104612F0FBFA38B1404624F0EA
:10114000CBF818B901214020FFF7E2FC2A0753D55C
:10115000564E0321B06803AA24F07AF8814688B974
:1011600040F2FE42524953480DF0CCFEFEE7032BFD
:1011700005BF8DF82830D4E900018DF82800C2E9B8
:101180000001D7E79DF80C30B068072B40F01F81B5
:10119000494608AA24F05EF830B140F201524449B1
:1011A00044480DF0AFFEFEE7FFF722FFBDF80E202A
:1011B000A0B9FFF72BFF78B1043292B2B06808A94A
:1011C000ADF8242024F048F840B140F212523849DA
:1011D00038480DF097FEFEE70232EEE7BDF80E004C
:1011E0000121073080B225F0B5FE8246002842D1A9
:1011F00001210C2013F0D6F9A90705D52A4B1B882D
:101200001A0701D5FFF732FDAB010BD500210420F1
:10121000FFF77EFC244B9B78012B03D1234B98686E
:1012200013F02CFA15F0284F03D000210420FFF70B
:101230006FFC7E060CD51C4C23881D0701D5FFF7DB
:1012400015FD2388580703D500210420FFF760FC13
:10125000F90540F1D88003A9404608AA23F09FFD74
:101260000146002800F0BA8040F2D25210491148DD
:101270000DF048FEFEE74FF0000B25F0EFFDCDF836
:1012800000B00246BDF80E3004464946B06823F06F
:10129000E7FFBDF80E3083420ED040F222520449DF
:1012A00004480DF02FFEFEE7DC4B0020FC5600202A
:1012B000599502082493020823F04CF9204410F0B9
:1012C00071FD00F007000228DFF8589124D199F849
:1012D0000230042B90D123F03DF9504B204482780A
:1012E0001B789A4288D159460820FFF711FC23F059
:1012F00031F9204410F056FD9DF82E30C0F3001057
:10130000307389F80830FFF78BFC00287FF474AF46
:10131000B06813F0B3F96FE723F01CF9204410F024
:1013200041FD83064AD523F015F9204410F03AFD1B
:1013300000F0070003280BD10921204623F026FAEC
:1013400014F800B0ABF1040CDCF1000B4BEB0C0B10
:1013500001210420FFF7DCFBB06823F094FFC9F8FB
:101360002C00BBF1000F30D0B9F8003058062CD556
:1013700000214020FFF7CCFB0126BDF80E309DF880
:101380002E200120E254BDF80E309DF82F2023447A
:101390009A71BDF80E10089A0131214410F010FD29
:1013A000BDF80E3050461C44667125F02BFE1C4BD8
:1013B000187810F0C9FC21F0CDFC1DE799F8023037
:1013C000012B02D1B06813F059F90026D5E723F0BC
:1013D00023FF4946B06823F041FF0DE79DF80C302C
:1013E00003F0BF02032A01D0022B0FD10D4C23883A
:1013F0005A0702D50420FFF78BFB23889B0702D5F1
:101400000120FFF7DBFC0FB0BDE8F08F4FF4BF62A7
:10141000054906480DF076FDFEE700BF494C002067
:101420006C4B0020DC4B00205995020824930208E5
:1014300008B50246FFF7DCFD30B1072A06D80020C8
:10144000034B83F8302008BD7020FCE70220FAE748
:10145000DC4B002008B50246FFF7CAFD28B100208A
:10146000034B93F83030137008BD7020FCE700BFC9
:10147000DC4B002008B5074B01460022986823F09A
:101480000FFF30B140F2EB22034904480DF03AFD62
:10149000FEE708BDFC560020599502082493020877
:1014A00008B5074B01460022986823F0F3FE30B1DF
:1014B00040F2F122034904480DF024FDFEE708BD87
:1014C000FC560020599502082493020808B5074BE2
:1014D0000146986823F0F0FE30B140F2F72204494B
:1014E00004480DF00FFDFEE708BD00BFFC560020CC
:1014F000599502082493020808B5074B9B7833B12D
:1015000040F20132054906480DF0FCFCFEE7BDE85B
:101510000840FFF7EBBB00BFDC4B002059950208E9
:101520002493020808B5054B0146986823F0AAFDEC
:10153000002814BF8B20002008BD00BFFC560020EF
:10154000014B986813F0E0BAFC560020014BD88894
:10155000704700BFFC5600207FB50123ADF80E3068
:101560004FF6FE7309480093806800230DF10E02C8
:1015700004A923F014FD212800D020B9BDF81000E3
:1015800007B05DF804FB4FF6FF70F9E7FC5600204A
:1015900008B5044B0146986823F0B5FCB0FA80F01A
:1015A000400908BDFC56002038B50B4D0446AB7809
:1015B000012B0DD8FFF7ECFF60B1084BDC80AB7856
:1015C0001BB9FFF793FB002038BDFFF7F9FAFAE7E4
:1015D0003E20F9E78A20F7E7DC4B0020FC5600208C
:1015E000024B9B780BB9FFF781BB7047DC4B0020A7
:1015F000014BD873704700BFDC4B002008B5064B89
:101600004FF0FF31986823F0F7FB0028B8BF033094
:1016100040F3870008BD00BFFC56002008B5044B0E
:10162000986823F06CFC034BB3FBF0F080B208BD6C
:10163000FC56002040420F0030B58DB02C220446ED
:10164000002101A824F055FB01234FF002328DF850
:1016500008306423CDE9032306930B238DF82C3047
:10166000214B9B8CADF80A30FFF7C2FCA8B140F2C9
:10167000F23307934FF47A7305930CB9FFF722FB0B
:101680001A4D01A9A86813F013FBC0B140F2AC6277
:10169000174918480DF036FCFEE7FFF7BFFF0C2393
:1016A0004343902B0793A3F10A02D8BF91230592DD
:1016B000D8BF0793059B8B2BDFD88C23DCE7FFF784
:1016C000A5FC60B10122A868114623F003FE30B1E9
:1016D00040F2AF62064907480DF014FCFEE70CB972
:1016E000FFF704FB0DB030BDDC4B0020FC560020A2
:1016F0005995020824930208F8B525F0FAFC554CD8
:1017000006462388D90503D5A37843BBFFF7EEFA35
:10171000514D6B7BFF2B13D06B7B03F0FF0723BB7B
:10172000FF236B73A378032B0AD100233046A370E9
:1017300025F0DAFC3846FFF713FB25F0DAFC064605
:10174000A378042B08D12B7BFF2B05D02B7B022BFE
:1017500014D1424810F0F2F9FF232B7327E0002147
:101760004FF48070FFF7D4F9D2E76B7B012B4FF079
:10177000FF0314BF89278D276B73D6E72B7B13B12B
:101780002B7B012B1ED1FFF74BFA0022FF212B7B75
:101790000746DBB222772973002847D0012B0AD1F4
:1017A00064212E48A37010F0D4F9FFF709FA3046EF
:1017B00025F09AFC06E03046A27025F095FC312019
:1017C000FFF7CEFA23881A0608D500218020FFF7FC
:1017D0009FF9A86823F0C1FC12F0FFF823889B054D
:1017E00007D54FF400700021FFF792F90020FFF7B2
:1017F00023FF0BF007FE608620B325F02FFB0121AD
:101800000546002012F0CEFEA678012E14D1002647
:101810002677A670FFF76AFA284611F0D9FCA3785C
:1018200066867BB9BDE8F84011F078BFA0703046FD
:1018300025F05AFC3846C3E72EB1284611F0C8FC03
:1018400000236386F8BDFFF751FA284611F0C0FC6B
:101850006686F7E7DC4B0020FC560020F84B0020A2
:101860008B4BF0B51B888B4C8B4D63848B4B85B0B9
:101870001B68E3628A4B1B8823848A4B1B68A36224
:101880002B88DB0700F1FC8001210846FFF740F9B7
:101890000523854A04F1100104F10800AB7012F031
:1018A000AFFE28B1F522814981480DF02BFBFEE700
:1018B000A3682BB9F7227D497D480DF023FBFEE795
:1018C0007C4823F0B4FA70A3D3E90023CDE90023C8
:1018D0004FF0FF324FF0FF33A06823F057FB4FF477
:1018E0008811A06813F088F9014630B140F20F1258
:1018F0006E496F480DF006FBFEE76F4B1B78012B1E
:101900000ED16E4AA06812F049FFA06813F0FEF9EC
:10191000E0B140F21B12654965480DF0F3FAFEE7AD
:10192000674E316831B94FF48F72604960480DF0ED
:10193000E9FAFEE7614AA06812F030FF33689B685D
:1019400023B1DB6913B15B7803B1E373FFF704FEE6
:101950000146E080A06813F09DF8064630B140F2E1
:101960002D12524952480DF0CDFAFEE7554B012099
:101970001B78C3EB431203EB8203DB00AB84FFF75E
:101980005BFEA76810F05AF832460146384623F04D
:101990008DFC064630B140F23312444944480DF004
:1019A000B1FAFEE740F203530427AB81464BAF7315
:1019B0001B78EB73FFF732FE00EB80039B002B825A
:1019C000FFF72CFEC00068823946A0686E6123F0E4
:1019D00085FA30B14FF4A172344935480DF092FACE
:1019E000FEE73A46A06803A923F00BFB042806D0C3
:1019F0004FF4A3722D492E480DF084FAFEE703A997
:101A0000012010F0EBF90BF083FA08224FF0FF31C0
:101A1000A06823F0CCFA30B140F24F122349244899
:101A20000DF070FAFEE713F0F1FA30B140F2551202
:101A30001E491F480DF066FAFEE7FFF7D9FA68B1B4
:101A40001EF05AFF0146A06823F036FB30B140F289
:101A50005912164916480DF055FAFEE7A468FFF72B
:101A60007BFD1A4B014603F10C02204623F0C2F91C
:101A700030B14FF4B0720D490D480DF043FAFEE756
:101A800005B0F0BDAFF300800A0020FF4203000064
:101A900050980208FC560020DC4B002054980208A5
:101AA0005298020858980208390B00085995020804
:101AB00024930208690345EC2D4C00204D0B0008CF
:101AC000E0540020A1580020A0580020849502086E
:101AD00008B5044B986823F014FA034BB3FBF0F0FD
:101AE00080B208BDFC56002040420F002DE9F043B3
:101AF0008C4D87B02B889B0706D440F24C728A49E4
:101B00008A480DF0FFF9FEE7AB78033B012B06D9BD
:101B100040F24E72844985480DF0F4F9FEE76A6898
:101B200032B940F25172804980480DF0EBF9FEE77E
:101B30007F4E2C88F77B14F0200418BF4FF47A7482
:101B40004FEA1718FFF754FA00287DD0B8F1020FBA
:101B50000AD0A8F10303022B74D940F265727249CE
:101B600072480DF0CFF9FEE7032795F8303008EB07
:101B7000C80898446F4B104603EB4803B3F81C8029
:101B800022F0F3FC4FF4FA534343B3FBF8F378220B
:101B90007733B3FBF2F31F44C7EB0717AB78FF00B3
:101BA000BFB204F5347417FA84F4042BA4B203D141
:101BB00007F6E8072744BCB2D5F8048022F0CAFC37
:101BC0000746686822F0D1FC074422F0E9FCBFB266
:101BD0003F1A22F0BFFC404410F0E4F87378C0F3E1
:101BE00040198DF80C30544BBFB2CDE904340024B9
:101BF00022F0E2FC009402463B464146B06823F0E6
:101C00000DFB287EB278737812FB00F29342C4BFBA
:101C10009B1ADCB22B88F18813F0200FB068B180DA
:101C20008DF80C4003AB76D000934A46434B23F02B
:101C3000D6F8002873D040F224723B493B480DF09F
:101C400061F9FEE7062790E7FFF7E0F9002846D0A4
:101C5000384B07F00F0708EBC801394403EB410389
:101C60001046B3F81C9022F080FCB8F1000F2CD085
:101C7000B8F1010F2CD14FF00408400080B2F319E5
:101C800093F834304BB14FF4FA52023303444344D7
:101C90009BB25343B3FBF9F39CB2AB78042B8BD1CB
:101CA000FFF7BCFC374497F834308146053398443D
:101CB000FFF70EFF0C2308FB00F003FB09F909EB0B
:101CC000C009A1441FFA89F476E74FF00208D6E76D
:101CD00040F28672144915480DF014F9FEE7FFF73B
:101CE000F7FE0746686822F040FC09307843AB787D
:101CF00004EBC000042B84B27FF45EAFFFF78EFCD0
:101D00000746FFF7E5FE602358430C2303FB07005B
:101D1000204484B250E74A4623F05FF889E707B0D1
:101D2000BDE8F083DC4B002059950208249302089B
:101D3000FC5600208495020820A10700E84B0020F3
:101D4000F8B5494C258815F0020506D040F2751209
:101D5000464947480DF0D6F8FEE7257725F0C9F942
:101D6000238806465A070CD5424B986823F08BFA15
:101D7000E36AC01AA38C984203D929460420FEF7CF
:101D8000C7FE304625F0B0F9A778022F37D125F0ED
:101D9000B0F92388064613F0040507D036480FF043
:101DA000CDFE3046BDE8F84025F09EB925F09CF9FF
:101DB000606811F0EDFC20B1A570BDE8F840FEF7B9
:101DC000CFBF25F096F96668054622F0C3FB304484
:101DD0000FF0E8FF10F0200F0CBF032304230121B4
:101DE0003846A370FEF794FEFFF780FE284625F0E4
:101DF0007BF901210846BDE8F84012F0D3BB042F5F
:101E000027D11C4B1B7BFF2B2DD1237EF3B125F05B
:101E100070F9238805465B0704D517480FF08EFE3E
:101E20002846BFE725F060F9237E013B237625F0A5
:101E300060F9044601210220FEF76AFEFFF756FE14
:101E4000204625F051F901210820D4E74020A37055
:101E5000B3E7012F07D10023A370064B986812F057
:101E60000DFC3120A9E7F8BDDC4B00205995020894
:101E700024930208FC560020F84B002038B50121BD
:101E800004461020FEF744FE064B9D68FFF7C6FB94
:101E9000012200FB04F1044B284622F089FF0020B8
:101EA00038BD00BFFC560020850D000808B50A4B60
:101EB0001B88DB0606D44FF46172084908480DF010
:101EC00021F8FEE710200021FEF722FE054B98685E
:101ED000BDE8084022F07ABFDC4B0020599502088B
:101EE00024930208FC56002038B50E4D688E30B998
:101EF00040F291320C490D480DF004F8FEE724F051
:101F0000ADFF0446688E24F0C7FF811F21440120E5
:101F10000FF064FF064B0446986823F0B4F9001BE9
:101F200038BD00BFDC4B00205995020824930208FD
:101F3000FC56002010B5084C636833B94FF4687242
:101F4000064907480CF0DEFFFEE7064B986823F0D1
:101F50009AF9A36AC01A10BDDC4B002059950208FB
:101F600024930208FC56002038B50A4D688E30B91B
:101F700040F2AA32084909480CF0C4FFFEE724F0F9
:101F80006DFF0446688E24F087FF044414F8020CA9
:101F900038BD00BFDC4B002059950208249302088D
:101FA00038B50A4D688E30B940F2B932084909484F
:101FB0000CF0A8FFFEE724F051FF0446688E24F0E1
:101FC0006BFF044414F9070C38BD00BFDC4B002044
:101FD000599502082493020838B50A4D688E30B925
:101FE0004FF47272084909480CF08CFFFEE724F0A8
:101FF00035FF0446688E24F04FFF044414F9010CA9
:1020000038BD00BFDC4B002059950208249302081C
:10201000024B1888C0F3C010704700BFDC4B002093
:1020200030B585B005466C460D4B0FCB84E80F00EC
:102030000DB12B6800930B4B21460022986812F0DB
:1020400079FD044630B140F2E632074907480CF00A
:1020500059FFFEE7FEF7B4FD204605B030BD00BFD6
:102060000C960208FC560020599502082493020899
:1020700030B5154D87B004460DF10701A86822F070
:1020800087FF30B140F2F732104911480CF03AFFA7
:10209000FEE79DF80720531EDBB2FD2B0FD90294FB
:1020A000FF2A00D10394A86802A923F059F840B18F
:1020B00040F20442054906480CF024FFFEE7012ADD
:1020C000EFE707B030BD00BFFC560020599502086D
:1020D0002493020808B5064B986823F050F830B1F5
:1020E0004FF48262034904480CF00CFFFEE708BD80
:1020F000FC56002059950208249302080122024B45
:102100001146986822F04FBEFC5600207047F8B583
:10211000064604200D4622F0FFF9030622D5124F91
:10212000BC78FCB926B1012E17D002242046F8BD98
:1021300001262846FFF72CFA0028F6D00B4800238A
:1021400032462946806822F04CFE40B14FF48A6244
:10215000074908480CF0D6FEFEE72646E9E70623C5
:10216000BB70E3E77024E1E7DC4B0020FC56002065
:102170005995020824930208042010B522F0CCF9E6
:10218000030611D5094CA378062B0DD1084B98688E
:1021900022F029FE30B140F26A42064906480CF0AE
:1021A000B1FEFEE7A07010BD7020FCE7DC4B002004
:1021B000FC56002059950208249302081FB50446D6
:1021C00001A812F07FFC9DF80D3053B14CB1064BC5
:1021D0002078617818700020A27859709A7004B045
:1021E00010BD0220FBE700BFFC5600201FB50446CF
:1021F00001A812F067FC9DF80D3053B14CB10020DE
:10220000054B1A7822705A789B786270A37004B0DC
:1022100010BD0220FBE700BFFC560020FFF7CEBF39
:10222000FFF7E4BF0348044B834202D0034B03B1E2
:1022300018477047B8580020B85800200000000028
:10224000064B0749C91A891048BF0131491003D00C
:10225000044B0BB101481847704700BFB858002025
:10226000B85800200000000010B5064C237843B990
:10227000FFF7D8FF044B13B10448AFF300800123EC
:10228000237010BD6852002000000000F8D1020841
:1022900008B5054B1BB105490548AFF30080BDE803
:1022A0000840FFF7CDBF00BF00000000A0220020C3
:1022B000F8D10208A3F5803A704700BF174B002BF6
:1022C00008BF134B9D46FFF7F5FF00218B460F46D5
:1022D0001348144A121A23F00CFD0E4B002B00D0A9
:1022E00098470D4B002B00D0984700200021040098
:1022F0000D000D48002802D00C48AFF300801BF001
:10230000B3F8200029001BF064FE1AF043FD00BF63
:102310000000080000000000000000000020002075
:1023200000200020C052002000000000000000003B
:1023300010B504F08DFC094B0122094909480068D9
:1023400004F044FB084C094920460AF07FFC4FF496
:10235000967120680FF0FDFB10BD00BF89250008B5
:10236000F922002080560020B8220020A126000873
:10237000084B5B78012B05D01BB9074B93F83B301A
:1023800003707047054BD3F8A430C3F340030370C8
:10239000704700BF84230020BC22002000C00350EF
:1023A00010B56D4B93F86630042B0ED8DFE803F0C0
:1023B00003132231420003787E2B07D0674B0122A2
:1023C00067496848006804F001FB10BD624B0122B8
:1023D00083F86620F2E703785F4981F83E300223F4
:1023E00081F866305D4B01223D315E48006804F0A3
:1023F000EDFAEAE70378584981F83F30032381F882
:102400006630564B01223D315648006804F0DEFA32
:10241000DBE70378504981F84030042381F86630C7
:1024200091F83E204D4B043A41314E48006804F08B
:10243000CDFACAE7484C002384F86630A21C94F811
:102440003E1004F13E001BF06DFC2070002866D1A8
:10245000454B00225A704FF49671444B18680FF0A8
:1024600078FB2379482B06D0432B6DD13A4B5A7910
:1024700083F83C2068E0A37A84F83B30013B042BCE
:1024800062D8DFE803F0031221303E00032001F0A0
:10249000D7FD002858D01BF035FE1BF034FE344920
:1024A000344B18681FF02DFB4EE0032001F0C8FDEF
:1024B000002849D01BF026FE1BF025FE2E492D4B8F
:1024C00018681FF01EFB3FE0032001F0B9FD002853
:1024D0003AD01BF017FE1BF016FE2849254B186852
:1024E0001FF00FFB30E0032001F0AAFD60B31BF0EA
:1024F00009FE1BF008FE22491E4B18681FF001FB65
:1025000022E0032001F09CFDF0B11BF0FBFD1BF06D
:10251000FAFD1C49174B18681FF0F3FA14E00E4C33
:1025200004F12F0294F83E1004F13E001BF065FC0C
:10253000607048B994F831100B4B597494F832100C
:10254000997494F83320DA74044B01220449054845
:10255000006804F03BFA38E7BC2200208925000817
:10256000F92200208056002084230020B822002079
:10257000487802085C280020507802085878020841
:10258000607802086C78020808B50248FFF708FF77
:1025900008BD00BFF922002008B50A460023014605
:1025A0000448006804F0D8FA4FF47A7004F0C0FBD5
:1025B00008BD00BF8056002000B591B0254B5B7868
:1025C00023B1012B1FD011B05DF804FB8DF814006E
:1025D0008DF815308DF816308DF8173003930422DE
:1025E000029205AA01924322009202220A2106A821
:1025F0001BF03EFB0A2106A8FFF7CEFF42F2107047
:1026000004F096FBDFE7144BD3F8982722F0100272
:10261000C3F89827D3F8982722F00402C3F8982724
:1026200003F5805320221A6400210C481EF0E6F8BE
:10263000002304220521184605F0A6FE00230122EE
:102640000621184605F0A0FEC821054B18680FF0BA
:1026500080FAB8E78423002000C0035000C0055072
:10266000B82200200D4B5B7803B1704700B58FB0E6
:10267000039302930193482200920222062104A8A8
:102680001BF0F6FA062104A8FFF786FF42F210704D
:1026900004F04EFB0FB05DF804FB00BF8423002064
:1026A00008B5064B20221A64FFF7DCFF4FF4967141
:1026B000034B18680FF04DFA08BD00BF00D003505F
:1026C000B8220020F0B58FB005460E46174600240C
:1026D0000D940794089409940A940B940C9406940E
:1026E0004FF40073059305A81BF0FDFB059B0993B0
:1026F000124B0A934FF41053ADF81C308023ADF801
:102700001E3008940C940DAB1022294607A821F026
:10271000DBF9044610B120460FB0F0BD06AB0293C2
:10272000102301930097324604490D980BF0A0FD49
:1027300004460D9821F082F9EDE700BF0044400403
:1027400010B582B0044600201BF0DCFB08B902B0D3
:1027500010BD00230093ADF80430054B1B88ADF885
:102760000230ADF800406946022020F08EFBEEE713
:102770001C58002000B583B000230093ADF804304E
:10278000094B1B88ADF8023044F22133ADF800301C
:10279000684620F076FB20F070FB0A2020F079FBE1
:1027A00003B05DF804FB00BF1C58002008B51346B9
:1027B0000A4601460448006803F08CFB00B908BDD6
:1027C00002480CF09FFBFAE7B45600208878020814
:1027D0000A2800D9704730B583B004460D466B46D1
:1027E00001AA01461048006803F0DAFA08B9019B13
:1027F00023B10E480CF086FB03B030BD009B2A4687
:1028000021460948006803F00BFA40B92146084800
:102810000CF078FB294607480CF074FBECE72146E6
:1028200005480CF06FFBE7E7B456002090780208EB
:10283000B4780208D0780208D87802080A2800D9AB
:10284000704710B504460146064B186803F010FCAB
:1028500020B9214604480CF055FB10BD03480CF08C
:1028600051FBFAE7B4560020FC78020818790208F8
:1028700008B5314B1B78012B21D0022B3DD003B181
:1028800008BD2E4B1B782E4A1278B3EB420F07DAA5
:1028900001332A4A137001212A481BF023FCEFE779
:1028A0000023294A1370254A137026481BF022FC86
:1028B000264B01221A70264824F030F8E0E71F4B1F
:1028C0001B781F4A1278B3EB420F07DA01331B4A19
:1028D000137001211F481BF005FCD1E700231A4AA1
:1028E0001370164A13701B481BF004FC174B01228F
:1028F0001A70174824F012F8C2E7104B1B78104AE0
:102900001278B3EB420F07DA01330C4A137001213E
:1029100011481BF0E7FBB3E700230B4A1370074A8B
:1029200013700D481BF0E6FB084B01221A70084893
:1029300023F0F4FFA4E700BF695200206B5200208F
:102940006A520020A08A02086C520020945800208D
:1029500024230020B88A0208D08A0208037823BB07
:1029600070470133022B22DC03EB4302104911F8BC
:102970002220002AF5D100B50A4603EB430102EB01
:10298000810C4FF0000E8CF801E04FF0010C02F8C2
:1029900021C002EB810301684268C3F80210C3F84A
:1029A000062002895A815DF804FB0023DAE77047AC
:1029B0004423002030B583B00446164B1D7815B172
:1029C000012D00D0002521B123788DF8003000239F
:1029D0000CE02046FFF7C2FFF6E7E118497803F163
:1029E00009026A4402F8081C0133DBB2617A4A1E0C
:1029F0009342F2DB23781C2B08D0074B03221A707A
:102A00006A46284601F0B2FA03B030BD024B0022FC
:102A10001A70F5E7842300209558002010B5214C4A
:102A20002046FFF7A5FC204610F80F39027C9342A0
:102A300006D0A4F10F021374127842B1012A26D0F5
:102A40004FF49671184B18680FF083F810BD0320EF
:102A500001F0F6FA88B915481E2303700623437265
:102A6000134AD37B4370FF238370C3700371537B7E
:102A700043710021FFF79EFFE2E71BF043FB1BF0D1
:102A800042FB0C490C4B18681FF03BF8E3E7074882
:102A90001E2202704370022343720021FFF78AFF57
:102AA000CEE700BF93230020D4230020682300201A
:102AB00084230020307902085C28002008B5274BC9
:102AC0009A781A739B78DBB22B2B1DD00DD8102B64
:102AD00023D01D2B1CD1214BDB7B012B0CD0032BD6
:102AE0000ED00C20FFF768FD12E0322B10D11B4BEB
:102AF000D8781BF0E0F90BE00220FFF75DFD07E05E
:102B00000120FFF759FD03E0154B18680FF016F888
:102B1000144B1B6800221A7008BD104B1B78012B48
:102B2000F6D10E4BDB78DBB2012B07D00B4BDB78F9
:102B3000DBB2022B06D0094BDB78E9E70C20FFF76C
:102B40003BFDE5E708482B230370044BDB7B437018
:102B5000022343720021FFF72DFFD9E784230020D1
:102B6000DC230020D82300206823002000B583B098
:102B70008C461146084B1870084B83F800C00023A0
:102B8000074A1370012201920093064A064824F076
:102B900041FD03B05DF804FB695200206A52002039
:102BA00094580020712800082423002008B5044A06
:102BB0001BF0B2F9034B18680EF0C0FF08BD00BF50
:102BC00086230020D823002038B5044620F069F978
:102BD000A04201D8012038BD0546032001F030FA9B
:102BE0000028F8D01BF08EFA1BF08DFA2B462246F7
:102BF0000349044800681EF084FF0020EBE700BF93
:102C0000407902085C28002030B583B00446836810
:102C1000C26853F822301D882846FFF7D5FF08B94F
:102C200003B030BD00230093ADF80430164B1B8871
:102C3000ADF80230ADF804506368E2689B1A012BCE
:102C40001DDDA368013253F822301B88ADF8003037
:102C500020F013F96946032020F017F904460320F9
:102C600001F0EEF90028DBD01BF04CFA1BF04BFA18
:102C700022460649064B18681EF043FFD0E740F293
:102C8000FF13ADF80030E3E7A8510020787902087F
:102C90005C28002030B583B004468368C26853F8CE
:102CA00022301D882846FFF78FFF08B903B030BDDA
:102CB00000230093ADF80430154B1B88ADF80230AB
:102CC000ADF804506368E2689B1A012B1BDDA36812
:102CD000013253F822301B88ADF8003069460420D9
:102CE00020F0D3F80446032001F0AAF90028DDD033
:102CF0001BF008FA1BF007FA22460649064B186833
:102D00001EF0FFFED2E740F2FF13ADF80030E5E71A
:102D1000A8510020987902085C28002030B583B0C3
:102D200004468368C26853F822301D882846FFF79E
:102D30004BFF08B903B030BD00230093ADF8043059
:102D4000154B1B88ADF80230ADF804506368E2689B
:102D50009B1A012B1BDDA368013253F822301B881C
:102D6000ADF800306946022020F08FF804460320B9
:102D700001F066F90028DDD01BF0C4F91BF0C3F99F
:102D800022460649064B18681EF0BBFED2E740F209
:102D9000FF13ADF80030E5E7A8510020AC79020838
:102DA0005C28002030B583B08368C26853F82230B5
:102DB0001C780023019343689B1A012B19DD01AA9B
:102DC00001211EF06EF901469DF8040020F051F833
:102DD000054680B1022001F033F960B11BF092F991
:102DE0001BF091F92A460649064B18681EF089FE29
:102DF00001E020F042F8204620F04BF803B030BD4F
:102E0000C87902085C28002010B503468168C268B2
:102E100051F82200B0F900001A4C20805B689B1A20
:102E2000012B0FDD013251F8223093F900100039E7
:102E300018BF01211FF0CEFFA0B9032001F000F957
:102E400010B910BD0021F5E71BF05CF91BF05BF930
:102E50000D4B1C681FF0C2FF02460C4920461EF0B5
:102E600050FEEEE7012001F0EBF80028E9D01BF05E
:102E700049F91BF048F90649034B18681EF041FE5A
:102E8000DFE700BFA85100205C2800202C7A020850
:102E9000407A020808B51FF091FF032001F0D0F836
:102EA00000B908BD1BF02EF91BF02DF90249034BA8
:102EB00018681EF026FEF4E7587A02085C28002005
:102EC00008B58368C26853F822301A88094B1A8003
:102ED000032001F0B5F800B908BD1BF013F91BF091
:102EE00012F9044B1A880449044B18681EF009FEB5
:102EF000F2E700BF1E580020787A02085C28002004
:102F000008B5024B18680EF019FE08BDDC2300203E
:102F10002DE9F04186B01FF06DFF0446894B1B7808
:102F200013F0020F2CD0884E13F0010F2AD0864FD9
:102F300013F0040F28D0DFF81082032001F080F88E
:102F400028BB032001F07CF858BB032001F078F87F
:102F5000002835D1032001F073F800283ED103206A
:102F600001F06EF8002847D1032001F069F800282D
:102F70005ED1032001F064F8002867D1002471E0DD
:102F8000724ED1E7714FD3E7DFF8C081D5E71BF070
:102F9000B9F81BF0B8F86E496E4B18681EF0B1FD19
:102FA000CFE71BF0AFF81BF0AEF86A4B1D6805F0D9
:102FB000C3FB02460B46684928461EF0A2FDC4E743
:102FC0001BF0A0F81BF09FF8624B1D681FF0EAFE93
:102FD0000246624928461EF094FDBBE71BF092F8BA
:102FE0001BF091F85B4B1D681FF010FF02465C4917
:102FF00028461EF086FDB2E71BF084F81BF083F82C
:10300000E279A37961792079E57894F802C094F89F
:1030100001E024780594CDF810E0CDF80CC00295BD
:10302000019000914F494B4800681EF06AFD9BE7F4
:103030001BF068F81BF067F8464B1C681FF0DEFEBB
:103040000246494920461EF05CFD92E71BF05AF803
:103050001BF059F845493F4B18681EF052FD8DE7AB
:103060000134E4B2072C12D8032000F0E9FF002855
:10307000F6D01BF047F81BF046F8364B1D681FF0E2
:10308000B9FE025D3A4928461EF03BFDE8E7032001
:1030900000F0D6FF98B9032000F0D2FFC8B9032092
:1030A00000F0CEFF18BB032000F0CAFF68BB03206E
:1030B00000F0C6FF002836D106B0BDE8F0811BF055
:1030C00021F81BF020F82B49224B18681EF019FD3F
:1030D000E1E71BF017F81BF016F81E4B1C681FF0F9
:1030E00091FE0246244920461EF00BFDD7E71BF057
:1030F00009F81BF008F8174B1C681FF067FE024622
:103100001E4920461EF0FDFCCDE71AF0FBFF1AF029
:10311000FAFF104B1C681FF061FE0246184920465A
:103120001EF0EFFCC3E71AF0EDFF1AF0ECFFCDF84C
:1031300000803B4632461349064800681EF0E1FC19
:10314000BAE700BF95580020E0790208E879020844
:10315000947A02085C2800209C7A0208B87A020857
:10316000D47A0208F07A0208147B0208307B020845
:10317000447B0208CC7802084C7B0208687B02087A
:10318000807B0208987B020830B583B08368C268F0
:1031900053F822301C7801A920461FF013FE88B98D
:1031A000032000F04DFF08B903B030BD1AF0AAFFAC
:1031B0001AF0A9FF019B22460B490C4800681EF03B
:1031C000A0FCF1E70546012000F03AFF0028EBD013
:1031D0001AF098FF1AF097FF2A460549034B186822
:1031E0001EF08FFCE0E700BFD07B02085C280020C7
:1031F000EC7B020870B58268C36852F823100C8813
:10320000013352F823301D78294620461FF02DFE49
:1032100080B9032000F014FF00B970BD1AF072FFEE
:103220001AF071FF2B4622460B490C4800681EF02D
:1032300068FCF2E70646012000F002FF0028ECD00F
:103240001AF060FF1AF05FFF32460549034B186819
:103250001EF057FCE1E700BF107C02085C2800204C
:10326000407C020870B582B08368C26853F822308F
:103270001B78134A137013F0020F0ED0114C13F089
:10328000010F0CD00F4D13F0040F0AD00D4E032088
:1032900000F0D6FE38B902B070BD0B4CEFE70A4D16
:1032A000F1E7094EF3E71AF02DFF1AF02CFF009614
:1032B0002B4622460549064800681EF022FCEAE734
:1032C00095580020E0790208E8790208F4790208AC
:1032D0005C28002030B58FB004460D4668461AF0D1
:1032E00032FE0DF1200EEC46BCE80F00AEE80F00F8
:1032F0009CE803008EE8030008A9464B186820F0FC
:10330000C6FB10F1880F46D168461AF01CFE0DF17D
:10331000200EEC46BCE80F00AEE80F009CE803006E
:103320008EE803004FF41053ADF820308023ADF841
:1033300022304FF44073079307A81AF014FE079B3E
:103340000A93354B0B93334B1A68099B0D9213F07C
:10335000FF0F04D123F0FF0343F00103099301237E
:1033600009932C4B2A46214608A820F0ADFB0446C1
:1033700010BB032000F064FE90B9264B18681FF0C4
:1033800019FD0546002831D1032000F059FE0446FE
:1033900010BB01242FE01F4B186820F04FFBB3E750
:1033A0001AF0B0FE1AF0AFFE1A4B1A681B491C4BFC
:1033B00018681EF0A6FBE0E7032000F041FE00289D
:1033C000DBD01AF09FFE1AF09EFE22461549144BE0
:1033D00018681EF096FBD0E71AF094FE1AF093FEE0
:1033E00011490F4B18681EF08CFB04E0032000F01D
:1033F00027FE044610B920460FB030BD1AF082FEF9
:103400001AF081FE2A460949054B18681EF079FB1F
:103410000024F0E79823002000014405707C020896
:103420005C280020A07C0208C47C0208E47C02081E
:1034300000B583B00021019101AA1DF032FE01996F
:1034400010290ED0032000F0FBFD60B11AF05AFEE7
:103450001AF059FE10220549054B18681EF051FB61
:1034600001E0FFF737FF03B05DF804FB047D0208BD
:103470005C28002010B588B020F025FC032000F067
:10348000DFFDF8B901244A4B1C6002A81AF082FD46
:1034900002A9204620F0FBFA10F1880F1CD003206F
:1034A00000F0CEFD00286ED1414B18681FF082FC61
:1034B0001FF0D3FC0446032000F0C2FD00286CD1AD
:1034C00008B010BD1AF01EFE1AF01DFE39493A4B25
:1034D00018681EF016FBD5E7032000F0B1FD0028A8
:1034E00037D1334B1A68039B079213F0FF0F04D1B7
:1034F00023F0FF0343F001030393304B05934FF494
:103500004073019301A81AF055FD019B04934FF4F9
:103510001053ADF808308023ADF80A30012303932F
:10352000234B1022264902A820F0CEFA0446D0B937
:10353000032000F085FD0028B6D01AF0E3FD1AF054
:10354000E2FD1B4B1A681F491B4B18681EF0D9FA85
:10355000AAE71AF0D7FD1AF0D6FD1B49164B1868DA
:103560001EF0CFFABDE7032000F06AFD00289BD0D3
:103570001AF0C8FD1AF0C7FD224614490E4B186810
:103580001EF0BFFA90E71AF0BDFD1AF0BCFD10491D
:10359000094B18681EF0B5FA86E71AF0B3FD1AF069
:1035A000B2FD22460B49044B18681EF0AAFA87E7C1
:1035B000982300202C7D02085C2800200044400451
:1035C000CC540020707C0208387D0208A07C0208E0
:1035D000607D02088C7D020810B5012009F030FCE6
:1035E0000D4C21460420FFF7F3F804F10E010320EF
:1035F000FFF7EEF809490820FFF7EAF84FF4FA61FF
:10360000074B18680EF0A5FA064B01221A70064BFC
:103610001B6800221A7010BD842300207423002030
:10362000D42300206D520020D023002010B584B098
:10363000354B9B7B3BB1012B22D0344B1B680022C6
:103640001A7004B010BD9DF800306FF304038DF8BC
:1036500000309DF800306FF346138DF800301C23C6
:103660008DF8043002228DF80D209DF800208DF891
:103670000520254A1373002101A8FFF79BF9DCE719
:10368000214B1B7B1E2B21D01F4B1B7B2B2BD4D103
:103690001F4C2046FEF76CFE2B238DF804300623CA
:1036A0008DF80D30204610F80F398DF80530FF23C6
:1036B0008DF806308DF807308DF80830437B8DF893
:1036C0000930002101A8FFF775F9B6E7104C204634
:1036D000FEF74EFE1E238DF8043006238DF80D30C4
:1036E000204610F80F398DF80530FF238DF806308D
:1036F0008DF807308DF80830437B8DF809300021B4
:1037000001A8FFF757F9BFE784230020DC2300203E
:103710009323002010B50C490C4809F097FA0C4986
:103720000C4809F093FA0C490C4809F08FFA0C4C3C
:103730000C49204609F08AFAFEF7FAFD4FF47A7137
:1037400020680EF006FA10BDBD2A0008D82300201C
:103750001D2A0008D42300202D360008DC23002079
:10376000D0230020D935000808B50320FFF766F8FC
:103770000820FFF763F80449002301F80E3F0122F7
:103780000320FFF713F808BD8423002070B5064618
:103790000D468B681B781C2B01D000241DE0234BA9
:1037A0009B7B002BF9D10028F7D101221F4901F89A
:1037B0000E2F0320FEF7FAFFEFE704EB44021C4B49
:1037C00003EB82035B780A2B1DD11949900001EBB2
:1037D000820300220A545A700134022C21DCAB68A7
:1037E000197804EB4402124B03EB82039B78994255
:1037F000F2D1002EE1D10E49900001EB82030022AC
:103800000A545A70E8E70A4A04EB440C02EB8C00B5
:10381000012102F82C100B4443700230FFF7CAF864
:10382000DAE72B7B5B42014A537370BD842300208F
:103830004423002010B504463D481AF05BFCA4F177
:103840009003062B5ED8DFE803F0040A1E5D5D33AB
:103850004800C82202210120FFF788F910BD03208B
:1038600000F0EEFB28B9642205210020FFF77EF965
:10387000F4E71AF047FC1AF046FC2E492E4B186864
:103880001EF03FF9EFE7012000F0DAFB30B94FF40A
:103890007A7202210020FFF769F9DFE71AF032FCA3
:1038A0001AF031FC2549244B18681EF02AF9EEE77E
:1038B000012000F0C5FB30B94FF47A7202210020DC
:1038C000FFF754F9CAE71AF01DFC1AF01CFC1C495A
:1038D000194B18681EF015F9EEE7032000F0B0FB55
:1038E00030B94FF47A7202210020FFF73FF9B5E7B3
:1038F0001AF008FC1AF007FC12490F4B18681EF06A
:1039000000F9EEE7032000F09BFB30B94FF47A7228
:1039100002210020FFF72AF9A0E71AF0F3FB1AF0C2
:10392000F2FB22460849044B18681EF0EAF8EDE75E
:10393000D08A0208A47D02085C280020B47D020819
:10394000D47D0208F87D0208147E020810B523F029
:1039500055FE0446274B1B68C31A274A934205D9D4
:10396000264A127812B1264A93420ED9234A127877
:1039700012B1234A934212D8224B1B7823B1224B17
:103980001B788BB1012B29D010BD20481AF086FD81
:103990001F481AF083FD1F481AF080FDF4E700214C
:1039A0001B4800F0AFFAEFE71FF000FA88B91A4B96
:1039B0001B78002BE8D0194B1B68E31A41F678629C
:1039C0009342E1D9154B1C600021124800F09AFA8D
:1039D000DAE700210E4800F095FAD5E71FF0E6F986
:1039E0000028D1D00E4B1B78002BCDD107481AF000
:1039F00050FDC9E79C230020007102006E52002098
:103A000000E204006D52002084230020A08A0208F6
:103A1000B88A0208D08A020894580020DC5400209A
:103A20006C52002010B500201FF01BFA80B1044634
:103A3000012000F005FB00B910BD1AF063FB1AF07D
:103A400062FB22460A490B4B18681EF05AF8F3E74E
:103A5000012000F0F5FA0028EED01AF053FB1AF01E
:103A600052FB00220449034B18681EF04AF8E3E7B2
:103A70002C7E02085C280020587E020810B50446FF
:103A80001AF008FC10B9344B9C4205D020461AF0BD
:103A900001FC012808D010BD23F0B0FD2F4B1860A9
:103AA0002F4B01221A70F1E723F0A8FD2C4B0022C6
:103AB0001A702A4B1B68C01AA0F51C33A3F201131D
:103AC000284A934214D9284B984223D9274B1B7874
:103AD0009BB1012BDFD1254900230B70012204206B
:103AE000FEF764FE642205210120FFF73FF8D2E7CC
:103AF0001FF0D3F9FFF738FECDE71C4901240C7005
:103B000022460420FEF752FE642205212046FFF7DC
:103B10002DF8C0E7164B9842BDD8144B9B7B002B69
:103B2000B9D1124B1B786BB1012BB4D1114B0122CF
:103B30001A70FEF71FFE4FF47A7205210020FFF77E
:103B400015F8A8E7FFF76EFF0B4B00221A700B4821
:103B50001AF09FFC9FE700BF888A02089C23002080
:103B60006E520020FE70020000E204008423002058
:103B7000007102006C52002094580020D08A020884
:103B800030B4064D2978064C24F8210004EB81045A
:103B9000A270E3700131297030BC70476F52002071
:103BA000A023002038B500231846FF256FF07F0EB4
:103BB00008E0144800EB810191F902E010461D462F
:103BC0000133DBB20B2B10D819460E4A02EB8302ED
:103BD000D278002AF4D00028EBD00A4C04EB830CF6
:103BE0009CF902407445EBDDE3E708B1FF2D03D1FA
:103BF000054B00221A7038BD024B33F82500FEF742
:103C00009FFDF5E7A02300206F52002008B5024B6E
:103C10001B6803B1984708BD1024002008B5024B6B
:103C20005B6803B1984708BD1024002008B5024B1B
:103C30009B6803B1984708BD1024002008B5024BCB
:103C4000DB6803B1984708BD1024002008B5024B7B
:103C50001B6903B1984708BD1024002008B5024B2A
:103C60005B6903B1984708BD1024002000B585B0FA
:103C7000094B1868094B1860094B0A4A13600A4A35
:103C800001920A4A12680292039301A91DF02BFACD
:103C900005B05DF804FB00BFFC540020B8320020E2
:103CA000F0540020B4320020488A0208E4260020A4
:103CB00008B5024B18681DF02AFA08BDFC54002014
:103CC00038B507F073FC0446064D2B68D3F8B002F4
:103CD00007F060FC28681DF034FA204607F05AFC13
:103CE00038BD00BFFC54002008B5034823F006FB94
:103CF000024800F0FDFE08BDA88D02080055002016
:103D00000023062073B1704754B224B9013353B174
:103D10005DF8044B70470228F8D008680A4908602B
:103D20001046F3E710B4094A52F823100A7A022A1F
:103D3000EAD9032AEAD1441EE4B2012CE6D9086884
:103D4000014908601046E1E7E426002014550020F0
:103D500010B5A2B00DF1680C294C0FCCACE80F00E7
:103D600094E80F008CE80F0000211591169117912F
:103D7000189119914FF480131593224B19931091B8
:103D800011911291139114911F4B10931F4B149387
:103D90003C2201A821F0ADFF01AC0DF1540CBCE8B0
:103DA0000F000FC4DCF80030236006AC0DF1400CAE
:103DB000BCE80F000FC4DCF800302360144B0B93F9
:103DC00020230C9301238DF834308DF835308DF895
:103DD0003630104B0F93104B1AAA01A90F4807F069
:103DE00091FC04469DF837303BB100214FF4E1309F
:103DF0001AF0C5F9204622B010BD0321F6E700BF36
:103E0000688A02083C00015B010010004400015B6D
:103E1000E82600202855002008270020C42700207D
:103E200008B531B9084B1868036823B108F080F869
:103E300001E0012900D908BD034B18680368002B75
:103E4000F9D01EF040F9F6E73C55002008B50349CB
:103E5000034808F0E1F9FFF77BFF08BD405500205B
:103E6000EC27002008B502481DF091FE08BD00BFF8
:103E7000C427002008B502481DF089FE08BD00BF18
:103E8000C427002008B5024B5A6A1868904708BD3D
:103E9000C427002008B502481AF0F5F908BD00BF94
:103EA000888A020808B505481AF0EEFA04481AF0A4
:103EB000EBFA04481AF0E8FA08BD00BFD08A0208FD
:103EC000B88A0208A08A020818B1034A10600020CC
:103ED00070472520704700BFF427002010B5044C20
:103EE0000449206802F08AFC2068FFF7EDFF10BD4E
:103EF000805600205C550020014B1868704700BFB9
:103F0000F427002008B539BB154B984206D0154B55
:103F100098420DD0144B984214D008BD18461AF0A0
:103F2000B8FA10481AF0BAFA0F481AF0B7FAF4E7DC
:103F30000B481AF0B3FA0B481AF0ABFA0A481AF019
:103F4000ADFAEAE706481AF0A9FA06481AF0A1FA0B
:103F500005481AF09EFAE0E71AF0A0FADDE700BF84
:103F6000A08A0208B88A0208D08A020800B583B085
:103F70000B460549097801910092002201211EF0AB
:103F80005DFF03B05DF804FB9558002010B584B0C8
:103F9000044683681A782F2A07D0244A927B002A85
:103FA00031D0012A38D004B010BD204A927B002ABB
:103FB000F3D16C46D3F80100D3F80510D3F80920EB
:103FC000D3F80D300FC41A4C224669461948FEF743
:103FD00079FB10212046FFF77DF90028E3D010225D
:103FE00021460820FEF7E2FB104B9B7B002BDAD129
:103FF000114B1B78002BD6D04FF47A710F4B1868F9
:104000000DF0A7FDCFE7A17918461AF077F863798C
:104010005B42064A5373C6E7A17918461AF06EF858
:1040200063795B42014A5373BDE700BF84230020DC
:1040300074230020787802086D520020DC230020D1
:1040400003460B4A107828B10A4A12789A4202D2E3
:10405000002000E00120084A12783AB1074A12789D
:1040600042FA03F313F0010F00D10020704700BFA4
:104070009858002097580020715200209658002030
:1040800008B5084B01221A70074B00221A70074B23
:1040900004221A70064B1F221A7007F087FA054B8C
:1040A000186008BD985800207152002097580020D1
:1040B000965800205C28002008B5054823F01EF91A
:1040C00019F0AFFF01201AF027F800F0B1F808BD91
:1040D000A88D020808B5024823F010F908BD00BFFA
:1040E000A88D02082DE9F04180460F4601F109052F
:1040F0000026344604E05B21082000F0C1FA0134B8
:10410000AC4233D2052C1BD801A353F824F000BFD6
:10411000F7400008294100085D41000831410008CE
:104120003541000839410008FBB20433D9B2E3E756
:104130008021E1E70021DFE7731C3146DEB2DBE7D7
:10414000BB1DA3420CD0FB1DA3420BD007F10803FB
:10415000A34209D0A31F18F80310CDE7D121CBE764
:104160005A21C9E75A21C7E75D21C5E70020BDE80C
:10417000F08100BF00B583B0002300930193FFF7E7
:10418000BBFE114B186001238DF8003090F83630DB
:1041900093B100200C4B1B6893F8351002290FD007
:1041A00003290FD119F0CEFF019008216846FFF7CF
:1041B00099FF03B05DF804FB00681CF00AFBE9E717
:1041C0000321EFE70021EDE76028002000B583B070
:1041D00000220092019202218DF80010054819F08A
:1041E000B6FF019008216846FFF77CFF03B05DF839
:1041F00004FB00BF006A180000B583B0044B1B88A5
:10420000ADF8043001A800F017FB03B05DF804FB23
:10421000E88A020800B583B0044B1B88ADF804306F
:1042200001A800F0D9FA03B05DF804FBE88A02089F
:104230002DE9F04F97B04D4D09AC2E1D0FCE0FC498
:104240003368236001AC05F118060FCE0FC496E861
:104250000F0084E80F00464823F050F8454823F04B
:104260004DF801268DF8096000248DF80840424B76
:104270000B9301AB0D93414F09A938461CF0B9F9D6
:10428000B5F838B0ADF838B0324604210EA800F0C9
:1042900067FAB5F83CA0ADF83CA0224631460FA81D
:1042A00000F05EFAB5F84090ADF840903246042137
:1042B00010A800F055FAB5F80080ADF844803246F9
:1042C000042111A800F04CFA2D4D2E4BC5F8F834FE
:1042D0004FF00213C5F8F434A3F58033C5F8FC346D
:1042E0001C23C5F8E4344FF4487008F04DFCFFF788
:1042F00083FF142008F048FCFFF78CFF232008F010
:1043000043FCFFF779FFB92138461CF05AF9FFF753
:1043100081FFADF848B02246214612A800F020FAED
:10432000ADF84CA02246214613A800F019FAADF8CA
:1043300050903246214614A800F012FAADF854808D
:104340003246214615A800F00BFA384603F0A6FDC8
:10435000C5F8E444C5F8F844C5F8F444C5F8FC448D
:10436000044822F0D0FF17B0BDE8F08FE88A0208B9
:10437000A88D0208AC8D0208E070720000000A509F
:1043800000C003500200030008B50448044A121A92
:104390009210044919F006FF08BD00BF8001000813
:1043A00080030008C052002008B5154B83F30A882B
:1043B00000F030F8FFF7E8FF124A0AE01068516891
:1043C00050F8230041F82300013391688B42F5D364
:1043D0000C320D4B9A4201D20023F6E70B4A08E05B
:1043E0001168002041F82300013351688B42F7D354
:1043F0000832074B9A4201D20023F6E7FDF75EFF31
:104400000000002000D202080CD202080CD20208E0
:104410000CD2020870B5134B134A9A60D3F8882067
:1044200042F47002C3F88820104A4FF4804191662C
:104430000F4D05F500544FF0FF3222660D4A6266BB
:104440000222C3F8D020BFF34F8FBFF36F8F00203D
:1044500007F076F84FF44036E66000201DF0FCFAD5
:104460002E6170BD00ED00E00000000800900050DB
:10447000008000447FFF7F01014B1860704700BF40
:104480008856002008B5064B1860064B1B6F03F0DA
:104490000703032B00D008BD21F0B2FEFBE700BFED
:1044A0009056002000800050BFF34F8F0549CA6826
:1044B00002F4E062044B1343CB60BFF34F8F00BFA5
:1044C000FDE700BF00ED00E00400FA05F0B184460E
:1044D000F1B110B409E004F120000FE02033C01A5C
:1044E00018D1BCB10CF1010C01319CF800400B4B10
:1044F0001B5D03F00303012BEDD020460B78074A28
:10450000D25C02F00302012AE9D1E7E701207047FB
:10451000012070475DF8044B704700BFC5D002080A
:1045200030B587B00546046823798DF80C3063797F
:104530008DF80D301B4822F0E1FE0022012103A876
:1045400000F00EF90DF10B0103A819F066FF9DF8BC
:104550000B3083F001032370A379022B02D00020DB
:1045600007B030BD4FF0FF330593049300950E4B19
:10457000002205A903A800F02FFA059BB3F1FF3F25
:1045800007D00095084B012204A903A800F084F984
:10459000E5E70095044B042204A903A800F07CF988
:1045A000DDE700BFA88D0208A3E2010810B582B0C4
:1045B000002401942A4822F0A1FE8DF80040032334
:1045C0008DF8013001220421684600F0C9F8254B1E
:1045D0000122C3F8442401A9052022F088FE002806
:1045E0003BD1214BD3F8F02042F00102C3F8F02078
:1045F000D3F8FC2042F08072C3F8FC20A3F55D43A1
:104600001A4A1A60019B03F5D52303F2FC43DB0829
:10461000174AA2FB03239B0A013B164A136102239C
:10462000C2F8F0304FF48073C2F804334FF06043A7
:10463000114AC3F8B02F114AC3F8802ED3F8002EC8
:1046400042F48072C3F8002EFF2283F82020D3F8B2
:10465000002E22F48072C3F8002E02B010BD00BFFD
:10466000A88D020800D0035000ED00E0FF030040D9
:1046700017916502000004E055CEACC509000100A9
:104680004FF06043D3F8803E13F0010F01D11120A9
:1046900070470E4AD2F8FC3043F08073C2F8FC3009
:1046A0004FF06043D3F8002E4FF0010C0CFA00FCE1
:1046B00042EA0C02C3F8002E53F82030002BE8D059
:1046C0004FF0604303F820100020704700ED00E039
:1046D00010B504460FE00123834024EA03040F28A9
:1046E00014D800EB40020E4B03EB82035A6812B160
:1046F0009968C0B2904794B1234600201F28EAD899
:1047000013F0010FE7D101305B08F7E7103800EB39
:1047100040039B00B033024A13440433E6E710BD64
:104720006428002008B50D4822F0E8FD1A2006F0A4
:10473000CDFE28B91B2006F0C9FE40B9002008BDF7
:104740001A2006F0FDFE1A201DF086F9F2E71B2064
:1047500006F0F6FE1B201DF07FF9EFE7A88D02089A
:104760002DE9F04170B30C46174605460F292BD8AA
:1047700003784BB1022B20D0032B21D0012B01D089
:10478000002303E07F2301E040F2FF736A78D34007
:1047900013F0010F1AD00F4BD3F81063C6B922F0F3
:1047A000A8FC80463A462146284604F015F94046C2
:1047B00022F09AFC3046BDE8F08140F2FF33E5E795
:1047C0003F23E3E72226F5E72126F3E72126F1E759
:1047D0000226EFE700C0035040B310B5044603784B
:1047E0004BB1022B1DD0032B1ED0012B01D0002377
:1047F00003E07F2301E040F2FF736278D34013F0BF
:10480000010F15D022F075FC2378627801219140C8
:1048100003EB43031B01074AD15022F065FC002043
:1048200010BD40F2FF33E8E73F23E6E72220704760
:104830002120F5E740D0035040B310B5044603787B
:104840004BB1022B1DD0032B1ED0012B01D0002316
:1048500003E07F2301E040F2FF736278D34013F05E
:10486000010F15D022F045FC237862780121914098
:1048700003EB43031B01074AD15022F035FC002013
:1048800010BD40F2FF33E8E73F23E6E72220704700
:104890002120F5E740E00350002866D02DE9F041E3
:1048A0000C4615461F460646002960D002784AB1DC
:1048B000022A3ED0032A3FD0012A01D0002303E080
:1048C0007F2301E040F2FF737178CB4013F0010FBA
:1048D00001D1FF2A4DD1022D01D9042D4BD122F057
:1048E00008FC80463378FF2B28D12368B3F1FF3FC3
:1048F0002BD02268B2F1FF3F32D0204B02EB4202B4
:1049000003EB82025760226802EB420203EB820350
:10491000069A9A603378FF2B05D0226801239340D2
:10492000174AC2F82434404622F0DEFB0020BDE8DE
:10493000F08140F2FF33C7E73F23C5E72A462168ED
:10494000304604F0B3F82060CFE73378FF2BD0D1A6
:104950000C4BD3F8241470781BF073FF2060C8E769
:10496000404622F0C1FB2D20E1E7222070472220A3
:10497000DDE72120DBE72120D9E700BF6428002004
:1049800000D0035000C00350B0F1FF3F1AD038B53B
:1049900004460F2818DC002818DB22F0AAFB0123AC
:1049A000A3400B4AC2F82034C2F82434094B04EB6C
:1049B000440203EB820200255560956022F094FBCF
:1049C000284638BD212070472120FAE72120F8E74A
:1049D00000E0035064280020002856D02DE9F04163
:1049E0000C4617461E460546002950D0017849B1AD
:1049F000022939D003293AD0012901D0002303E04C
:104A00007F2301E040F2FF736A78D34013F0010F77
:104A100001D1FF293DD122F06CFB80462B78FF2B82
:104A200027D12268B2F1FF3F2AD01B4B02EB420292
:104A300003EB8202C2F8B860226802EB420203EB89
:104A40008203069AC3F8BC202B78FF2B06D022687D
:104A5000103201239340114AC2F82434404622F018
:104A600043FB0020BDE8F08140F2FF33CCE73F2359
:104A7000CAE73A462168284604F0B8F82060D0E733
:104A8000404622F031FB2D20ECE722207047222007
:104A9000E8E72120E6E700BF6428002000D00350AB
:104AA00008B5084BD3F82404D3F82024104000F0B4
:104AB000553020F0502003F50053C3F82004FFF7D1
:104AC00007FE08BD00C0035008B5084BD3F8240406
:104AD000D3F82024104000F0AA3020F0A02003F5E5
:104AE0000053C3F82004FFF7F3FD08BD00C00350D6
:104AF00070B586B005460368B3F1B64F27D0304A8B
:104B0000934222D04FF0FF36B3F1B64F21D02C4A5A
:104B1000934252D12B4822F0F1FB2B798DF80430CF
:104B20006B798DF80530AB798DF80030EB798DF825
:104B3000013001220A2101A8FFF712FE01220A21F9
:104B40006846FFF70DFE002412E00126DCE7002690
:104B5000DAE71D48DFE701A8FFF76EFE642008F0E2
:104B600013F801A8FFF738FE642008F00DF80134AF
:104B7000092CF0DD154A02EB06110323C1F8383584
:104B800068792B7943EA0043C1F83C35E979AB7980
:104B900043EA014354363601935101238DF808301E
:104BA0008DF80930EB680493AB6803932B7C8DF888
:104BB000143002A9286803F073FC06B070BD00BF72
:104BC00000800650A08D0208A48D020800C003508A
:104BD00010B582B004460A4822F090FB23788DF885
:104BE000043063788DF80530A278B2FA82F2520967
:104BF00004210DEB0100FFF7B3FD002002B010BD52
:104C0000A88D0208F0B585B00C4694469DF8341086
:104C1000664A1278002A00F0BD800546BCF1070FF5
:104C200000F2BA800A9A002A00F0B8800B9A002A93
:104C300000F0B6800E9AB2F5006F00F3B380012841
:104C40005BD05B4A02EB0C12127B002A00F0AC80B6
:104C500000220092019202920392564A02EB4C1EED
:104C6000002C4FD14FEA4C1600209051CEF8040092
:104C7000CEF80800CEF80C009EF8020040F01000BC
:104C80008EF802009EF8030040F030008EF803001A
:104C900021B9C1B241F003018EF8031000930E9BBD
:104CA000013B444A4FEA4C1002EB4C11165A63F395
:104CB0000E1616520A9B8B600B9B4B60CB789DF8AF
:104CC0003C2062F38303CB70012D36D0109B002B68
:104CD00056D0374A4FEA0C1102EB0C131098505083
:104CE000119A5A6000249C605D7372466946604662
:104CF00003F04CFC204605B0F0BD0C9A002AA0D170
:104D00002D48F8E72B4F4FEA4C1607EB4C120020CA
:104D1000B85150609060D060907840F01000907072
:104D2000D07840F00300D0700029B7D107EB4C12C7
:104D3000C1B241F03001D170B0E70E460A7B42F0BB
:104D400001020A73D2B242F002020A73CA68042155
:104D500061F39F02F26006F1100796E80F0087E802
:104D60000F00F2696FF0030161F39F02F2610C9B87
:104D70007361012CAAD10B9AB2610C9A7260A5E7FB
:104D8000002DA6D10B4B03EB4C139A786FF3041252
:104D90009A709EE70948AEE70748ACE70648AAE7DD
:104DA0000548A8E70448A6E70548A4E77252002092
:104DB000CC2A0020CC290020018000F0028000F0E5
:104DC000078000F0134B1B78FBB110B50446F0B11F
:104DD00022F08FF90023072B13D80F4A02EB03129E
:104DE000127B0AB10133F6E723600B4A190102EB8B
:104DF000031301241C730024545022F075F920463B
:104E000002E022F071F9054810BD054870470548D9
:104E1000FAE700BF72520020CC2A0020048000F084
:104E2000028000F0018000F038B522F062F90446FB
:104E30000023072B06DC0C4A02EB0312127B12B98B
:104E40000133F6E7002222B1204622F04DF907484F
:104E500038BD03F047FB0025054B1D70204622F0AE
:104E600043F92846F4E700BFCC2A0020058000F073
:104E7000725200200F4B1B78BBB110B504460728B7
:104E800015D822F036F90C4B03EB04131B7B1BB92E
:104E900022F02AF909480BE0074B03EB0413002426
:104EA0001C7322F021F9204602E0054870470548AE
:104EB00010BD00BF72520020CC2A0020068000F0F6
:104EC000028000F0018000F000B583B0134B1B6836
:104ED000019300238DF8043022F00BF9104B1B785E
:104EE00033B90F4B01221A7022F0FEF8002309E0BB
:104EF00022F0FAF80B480EE00B4A02EB03120021F5
:104F000011730133072BF7DD08238DF8073001A853
:104F100003F00CFB002003B05DF804FB2C8B0208AF
:104F200072520020038000F0CC2A002010B5104CF3
:104F30002478BCB1072817DC0E4C04EB0014247B4A
:104F4000A4B10C4C4FEA001E04EB001C44F80E30D8
:104F5000029BCCF804300024CCF8084003F016FB88
:104F6000204610BD0448FCE70448FAE70448F8E787
:104F700072520020CC2A0020028000F0018000F054
:104F8000078000F008B50A4B1B785BB107280BD8E7
:104F9000084B03EB00131B7B43B1002103F0B8FA6D
:104FA000002008BD0448FCE70448FAE70448F8E795
:104FB00072520020CC2A0020028000F0018000F014
:104FC000078000F008B50A4B1B785BB107280BD8A7
:104FD000084B03EB00131B7B43B1012103F098FA4C
:104FE000002008BD0448FCE70448FAE70448F8E755
:104FF00072520020CC2A0020028000F0018000F0D4
:10500000078000F0F8B5194B1F6D5B6D1F4002D48F
:105010000125002402E0FEE701346D00072C24D8AE
:105020003D42F9D0124B1D652301124AD358002B83
:10503000F2D002EB0416B1680131B160726820460B
:10504000984780F00100C0B2737B012BE4D10028A7
:10505000E2D0094B03EB44131A7B6FF341021A733E
:105060001A7F6FF341021A77D6E7F8BD00000450AB
:1050700000200450CC2A0020CC2900202DE9F04F3C
:1050800089B005460E4614469846C36B5B690122FB
:1050900007A960689847EB6B5B69012206A9304657
:1050A000984707A81AF065FC48B10027A7756775EF
:1050B0004FF0FF33A360384609B0BDE8F08F0746D4
:1050C00006A81AF066FC0123A375237E033304EBC4
:1050D000C3035E6000221A816368B3422AD023684A
:1050E000834201D00023A37506A81AF077FC237D24
:1050F000984201D00023A37506A81AF04EFC814601
:1051000007A81AF04AFC814501D00023A37506A820
:105110001AF04BFC814607A81AF047FC814501D0E4
:105120000023A375237D043BDBB2022B0BD80023A5
:10513000A375C0E7206006A81AF050FC20754FF058
:10514000FF33A360EEE706A81AF027FC80B1EB6BF3
:105150005B69022204A93046984704A81AF030FC83
:105160000346207D032868D8DFE800F0615B070D67
:1051700006A81AF025FC0346F3E7237E033304EB6D
:10518000C303CC221A811AF039FC129B187094F8D0
:10519000189006A81AF0F4FB09F1030904EBC909F9
:1051A00089F80A00237E033304EBC303B3F808A095
:1051B00093F80AB006A81AF0F0FB814606A81AF088
:1051C000F4FB0390B9F1000F3DD0EB6B5B69022259
:1051D00004A93046984704A81AF0AEFB6075637DB9
:1051E00003B9A375A37DA3B1BAF1000F11D0039B3E
:1051F000F1186B6C5B4286EA01021A4201D000236F
:10520000A3756B6C5A1E0A409B1A9A4501D900235C
:10521000A375A37D002B40D0BBF1000F18D1E77D13
:105220003CE0227E033204EBC2021381ABE7227E14
:10523000033204EBC2021381A5E7227E033204EBA2
:10524000C20213819FE706A81AF05FFB6075C6E7EC
:105250000122E275627EBAB9BBF1010F08D095F860
:105260003470DFB9EA6AB2F1FF3F05D01F4615E09E
:1052700001216176174611E0BBF1030F01D01F46F3
:105280000CE00122A27609E0BBF1010F37D0BBF19F
:10529000030F03D10122A27600E01F4653B117B1DC
:1052A000BBF1010F06D95346039A3146284619F03F
:1052B000A3FCA060A37D13B1236953442361237E23
:1052C000114A127893421CD201332376B8F1000FB1
:1052D00013D0A37D8BB1E37D7BB177B9BBF1030F15
:1052E0000BD0A168B1F1FF3F07D0129B00930123BF
:1052F00022462846FFF7C2FEA075A77DDBE61746CB
:10530000CCE70023A375E1E7508B02082DE9F04FAD
:1053100089B005460F4692469B4600238DF80B3018
:105320004FF0FF31104600F0EFFFB7F5801F1DD39F
:105330000023009317F1020F07D0009B002B40F0D1
:105340009E802B7C002B00F08C80EB6AB3F1FF3F3A
:105350002CD02A689B1A6A6CB3FBF2F917F1020889
:1053600018BF4FF00108002301935DE00DF10A0220
:10537000394605F1080000F017FF0146B0F1FF3F84
:1053800011D0504600F0C0FF0DF10B030122514631
:10539000284619F0B0FC00900028CBD09DF80B30C7
:1053A0008BF80030C6E700230093C3E7696A2846FC
:1053B00019F043FB8146D1E70123019337E09DF8C3
:1053C0000B308BF80030324B1A683249504620F0CF
:1053D000B7FC00942F4B9968B1F1FF3F1BD06B6C69
:1053E0005B4281EA06021A4215D12A4C204600F09F
:1053F0008BFF0DF10B0342462146284619F07BFC3A
:1054000004460028E6D017F1020FD8D0214B1B68C4
:10541000BB42DFD1D3E74946284619F00EFB81464F
:10542000019BCBB9009BBBB96B6A4B45C4D02C68C0
:105430006B6C03FB0944EB6B5B69052203A92046F7
:10544000984703A81AF071FB1AF096FB20461AF051
:105450009FFB06460146BFE7009BA3B1B7F5801F3F
:1054600003D3009B8BB100200AE09BF80030DAF8F0
:105470000420394605F1080000F0B4FEF1E70020F1
:1054800009B0BDE8F08F2D20FAE72D20F8E700BF26
:105490004C8B0208C031002070B582B004464FF03A
:1054A000FF33C3620DF107031A4A6FF00101FFF7E2
:1054B0002DFF20BB174B9B68E362E56A2946204617
:1054C00019F0ACF82063E8B12946204619F084FBB6
:1054D0000546A36AAB421BD02946204619F09EF828
:1054E0000646236B034423632946204619F074FBC8
:1054F0000546002EEDD100232363E062E9E7A36AAD
:10550000E362DAE7E16A204619F066FBE062DBE776
:1055100002B070BDEC31002030B583B01C46032AC8
:1055200014BF002201221B7E9A4202D0012003B048
:1055300030BD0D46096823689942F7D363689942E4
:10554000F4D80DF10703114AFFF7E0FE0028EDD172
:105550000E4B5A686B689A42E8D19DF80730032BCE
:1055600014BF00230123227E9342DFD163690133FC
:1055700063612369E2689342D8D2A268296842F83D
:105580002310236901332361D0E700BFEC310020F1
:105590002DE9F04182B004460E4690461F46816ACE
:1055A00006E01A4B9968B1F1FF3F1FD0012E23D0BE
:1055B000E06A884217D0B1F1FF3F14D0134D28465E
:1055C00000F0A2FE0DF1070301222946204619F042
:1055D00092FB0028E5D03B469DF80720294620464F
:1055E000C0470028DDD102B0BDE8F08159682046EF
:1055F00019F0F2FA0146D9E7044B5A68636C5B4232
:105600004A401A42D4D04FF0FF31D1E79431002004
:1056100010B50446083000F08DFD0023024A1946FB
:105620002046FFF7B5FF10BDE5EC010838B504468C
:10563000037C0BBB02461349083000F01DFE616A73
:10564000204619F01CFA421C616A204619F06DF9D7
:10565000054620B9236B626C1344143B2363A16A93
:10566000204619F0B9FAA0622368C01A636CB0FB37
:10567000F3F06062284638BD0023034A0121FFF79A
:1056800087FFDCE77DF001084BF00108F0B589B039
:1056900080B30F4616461D46044690F834301BB9B9
:1056A0000025284609B0F0BD012119F013F9019534
:1056B0000E9B0293039704960023059306939DF88F
:1056C0003C308DF81C30237C5BB901AA0A4904F1F7
:1056D000080000F0D1FD5EB9069D204619F09CFB44
:1056E000DFE701AB054A00212046FFF751FFF2E753
:1056F000059DF2E70025D4E799E80108195500084F
:10570000F0B58BB004460D46406AE36B5B69052239
:1057100005A92668676C07FB0060984705A81AF082
:1057200004FA012836D00094002301938DF8085024
:10573000039301238DF81030A16AE36A99420FD0D8
:10574000237CBBB96A46144904F1080000F094FDBB
:10575000019B13B99DF810309BB901980BB0F0BDB7
:10576000204619F039FAE062236B626C9B1A1433FD
:105770002363EDE76B46094A01212046FFF708FF46
:10578000E6E7626A2368616C01FB0231E06B1AF0A4
:105790007EF9E2E70020E1E7A55900082559000855
:1057A0002DE9F04F89B004468A4691461D460023F4
:1057B00007930969026BCB1D406C1438B3FBF0F3FF
:1057C000013301EBC301914200F2A7804E4677E01E
:1057D0003D2840F092800490BB4605961EE04FF0B5
:1057E00000092368616C01FB0631E06B1AF03BF99C
:1057F000204619F079F8204619F015FA2063B9F11E
:10580000000F76D0DAF81020D31D616C1439B3FB89
:10581000F1F3013302EBC30290423AD32368ABEBBE
:105820000309606CB9FBF0F909FB00301AF0B0F91C
:105830008046E16A204619F0CFF9A36A83422CD052
:10584000E062374B9A68616C4B1E1340226B5B1A07
:1058500013442363ABEB08072368079EF61AB6FBD5
:10586000F1F6B145BBD197B1E36B9B69BA084146EC
:1058700098478146E36A3B44E362236BA8EB0B083D
:105880004344236304F1080000F054FCA9E7B9463F
:10589000A7E7DDF810B0059E02E0DDF810B0059E28
:1058A000BBF1000F29D0DAF81000226BC31D616C28
:1058B0001439B3FBF1F3013300EBC30082421CD374
:1058C000E76ADFF85C803946404600F01DFD07AB13
:1058D0000293019500963B4642465146204619F0F8
:1058E000C6FC834600287FF473AFD8F80830E36223
:1058F000D6E7DDF810B0059ED2E75F461FB1384607
:1059000009B0BDE8F08F2B46054A5268DAF800105E
:1059100004F1080000F066FCF1E71C27EFE700BF88
:10592000C0310020F0B583B01C46032A05D1237A8C
:10593000012B33D0012003B0F0BD06460F461546BB
:105940000DF10703164A0968FFF7E0FC60600028C4
:10595000EDD19DF80730032BE9D0114B5A687B68D5
:105960009A42E4D1237A012B08D13B69E2681344BF
:105970007269934202D900232374D8E7E3683A6935
:1059800013440833E3602B46012239463046FFF7C3
:1059900007FF60600028CAD00020CCE7207CCAE75F
:1059A000EC310020F0B583B0089C2668032A05D1AD
:1059B000237A012B4DD0012003B0F0BD15460DF127
:1059C0000703254A3046FFF7A1FC60600028EFD1AD
:1059D0002168214B5A688B6A486CC0F1000C5A4010
:1059E00012EA0C0FE4D1227A012A19D00F68DB1BCE
:1059F000B3FBF0F3CA6AD21BB2FBF0F29A4219D0A1
:105A0000E36815490A6913440833E3602B46012211
:105A10002068FFF7C5FE60600028C9D00020CBE7F2
:105A20000D4A1269E7683A447769BA42DED9002321
:105A30002374BDE7726CF16A531E0B40316B9B1AE5
:105A40000B4433632668B16A304619F0C5F8F0623A
:105A5000D6E7207CB0E700BFEC310020F8B56E4BF4
:105A60001E6800221A60002800F0B6800D46044629
:105A700090F8343013B30A6803689A4240F0AE805D
:105A80004A6843689A4240F0AC808A6883689A42C8
:105A900040F0A980CA68C3689A4240F0A6800A69AB
:105AA00043699A4240F0A3808A69C36B9A4201D04D
:105AB0005D2594E04B698361002590E0876B682247
:105AC000002120F016F9A7632B6823606B686360E0
:105AD0002B6963616B69A361EA68A96804F1080036
:105AE00000F03AFBAB69E3639B6804F14000984720
