:020000040800F2
:1000000000200020D9430008B7E00108B7E001084C
:10001000B5290208B7E00108B7E00108B7E0010818
:10002000B7E00108B7E00108B7E00108B7E0010850
:10003000B7E00108B7E00108B7E00108B7E0010840
:10004000B7E00108B7E00108B7E00108B7E0010830
:10005000B96D0008B7E00108B7E00108B7E0010892
:10006000B7E00108B7E00108B7E00108A13E0008C9
:10007000913E0008B7E00108B7E00108B7E00108C9
:10008000B7E00108B7E00108B7E00108B7E00108F0
:10009000B7E00108B7E0010835500008B7E00108F3
:1000A000B7E00108B7E00108F94A0008D14A0008A2
:1000B000B7E00108B7E0010885B4010831BF0108C5
:1000C000D75A0208D35A0208E5B60108ED5A0208C9
:1000D000DB5A020801BF0108DF5A020895BF010878
:1000E000CDBF0108B7E00108B7E0010819CF00084B
:1000F000B7E00108B7E00108B7E00108B7E0010880
:10010000B7E00108B7E00108B7E00108B7E001086F
:10011000B7E00108B7E00108B7E00108B7E001085F
:10012000B7E00108B7E00108B7E00108B7E001084F
:10013000B7E00108B7E00108B7E00108B7E001083F
:10014000B7E00108B7E00108B7E00108B7E001082F
:10015000B7E00108B7E00108F375020871990108DA
:10016000B7E00108B7E00108715A0208775A02089F
:10018000194A5AB3194BDB6913F0040F29D110B483
:100190000AE003EA00048C4210D0013AB2B1134BDA
:1001A000DB6913F0040F14D110F0010FF1D1104CE2
:1001B0001C40002CEDD06FF001000CE00C4A1A40FE
:1001C0000AB9002007E06FF0010004E06FF00200C0
:1001D00001E04FF0FF305DF8044B70476FF0020014
:1001E00070474FF0FF307047809698000000035032
:1001F000020001000D4BDB6913F4803F12D170B592
:100200000A4B03F580560124F46003F500552C6475
:100210004FF480721A6100212046FFF7B1FF346469
:10022000EC6070BD6FF00100704700BF000003502C
:1002300010B5124B4FF480329A6603F51C33DC691B
:10024000144041F67132DA6303F580520121D16026
:10025000586102221A6100212120FFF791FF40B16D
:10026000074B0122DA601CB1A3F500530022DA63C8
:1002700010BD00212120FFF783FFF1E7009000501F
:100280000020035038B51A4B5861DB6913F0040F96
:100290002AD10C4654F8041B154B9961151F06E032
:1002A000214651F8042B124B9A61043D0C465DB176
:1002B00008210846FFF764FF03460028F0D00C4AE7
:1002C00004211161184638BD094B04221A6100212E
:1002D0002120FFF755FF03460028F3D100212120FC
:1002E000FFF74EFF0346EDE74FF0FF33EAE700BFAD
:1002F000000003502DE9F0410F46164605461A4B03
:100300004FF480329A6603F51C33DA6902F48038C0
:1003100041F67132DA6303F580530122DA6000237B
:1003200002E025442744361B8EB105F5005424F421
:10033000FF5424F01F04641BB44228BF34462246F5
:1003400039462846FFF79EFF03460028E9D0074AB2
:100350000121D160B8F1000F03D0A2F500520021B5
:10036000D1631846BDE8F081009000500020035092
:10037000000000000000000000000000000000007D
:10038000013800D0FCE770472DE9F04F2DED028BCE
:1003900093B082460C4693461D4657EC106B8DED8C
:1003A000080B32463B46304639461CF0E3FA00283B
:1003B00000F009814FF0FF32B14B304639461CF056
:1003C00001FB002840F0FF804FF0FF326FF48013F4
:1003D000304639461CF0D8FA002840F0F48000225C
:1003E0000023DDE90867304639461CF0CDFA0028C5
:1003F00040F0FC809DED087B8DED067B209B13F487
:100400008063119301D106231E93DDE906010246A4
:10041000C1F30A50C1F31303904643F07F5949F4E6
:100420004019A0F2FF301BF0D3FF83A3D3E90023D0
:100430001CF038F882A3D3E900231BF07DFE0646AA
:100440000F4600228F4B404649461BF073FE7EA3A9
:10045000D3E900231CF026F802460B463046394605
:100460001BF06AFE1CF0B8FA06461BF0B1FF80468E
:10047000894677A3D3E900231CF014F80022824BAD
:100480001BF05AFE1CF0A8FA074673A3D3E9002319
:10049000404649461CF006F88046894638461BF01F
:1004A00097FF6FA3D3E900231BF0FCFF02460B4626
:1004B000404649461BF03EFE8046894602460B46B2
:1004C0001BF0F0FFCDE90C0107F2FF3700210022FD
:1004D000CDE90A123B050B9300230A9342464B4693
:1004E000404649461BF028FECDE90E0142464B46E8
:1004F00000204FF080411BF01DFE804689460022FF
:10050000624BDDE90C011CF0F7F80022604B1BF098
:1005100013FE02460B46DDE90C011CF0EDF800224B
:100520005C4B1BF009FE02460B46DDE90C011CF09A
:10053000E3F802460B46404649461BF0FDFD0246E5
:100540000B46DDE90E011CF0D7F80022524B1BF0E0
:10055000F3FDDDE90A231BF0A5FF8046894649EC3F
:10056000188BDDE906231CF02DFA40B1013E002274
:10057000474B404649461CF0BFF841EC180B06F1CA
:100580006303C62B3BD80427209B13F4006F40D095
:1005900035A3D3E90023DDE90689404649461CF02E
:1005A00007FA00283BD032A3D3E90023404649464E
:1005B0001CF0EAF9002832D01E9BB34221DD9E1BBD
:1005C000731E1E931FE0209B02931F9B01931E9B93
:1005D00000939DED080B2B465A462146504600F0ED
:1005E000CBF813B0BDEC028BBDE8F08F9FED227B02
:1005F0008DED067B069607F100430793FEE605277F
:10060000C2E700231E93209B43F4806320930027BE
:100610003E461F9B9F4241D2A3EB070840E01E9B32
:10062000002BF6D0119B002BF3D01E9B013B1E9399
:10063000EFE700BFAFF30080FB799F501344D33F37
:10064000B3C8608B288AC63F61436F63A787D23FD8
:1006500071A379094F930A401655B5BBB16B02409F
:10066000EF39FAFE422EE63F2D431CEBE2361A3FED
:100670000000000080842E41000000000000000007
:10068000FFFFEF7F0000F83F0000E03F00002C403C
:1006900000002440000018400000F03F4FF0000828
:1006A000209B13F0020902D00FB14FF000083EB1B9
:1006B00053EC182BDDE906011CF01EF8CDE906010C
:1006C00000220023DDE908011CF05EF900283BD17F
:1006D000209B23F400630293CDF804801E9B0093BB
:1006E0009DED060B2B465A462146504600F044F835
:1006F000002F3FF476AF209B13F0200F2CD04FF04B
:10070000450C00F101082B46024621466046D047C1
:1007100086EAE672A2EBE67205230593013F049791
:10072000002303930A230293F30F019300922B46B5
:1007300042462146504623F0C2FDB9F1000F3FF476
:1007400050AF02461F9F10E0DDE90601024601F1AD
:100750000043CDE90623BBE74FF0650CD1E7561CFB
:100760002B4621462020D0473246A2EB0B03BB424A
:10077000F5D3104635E700BF2DE9F04F2DED028B84
:1007800093B00590089192469B4659EC108B1E9DA4
:1007900042464B46404649461CF0ECF8002840D003
:1007A0004FF0FF326FF48013404649461CF0ECF8DE
:1007B000002845D14FF0FF32B14B404649461CF06E
:1007C00001F900284BD1AAA3D3E9002340464946AA
:1007D0001CF0F8F800285AD1A7A3D3E9002340461B
:1007E00049461CF0D1F8002851D100220023404690
:1007F00049461CF0C9F8002857D100230993209BD3
:1008000013F4806F5CD000241F2C5BD8092D59D9BC
:1008100004F148036B44302203F8202C013D0134DD
:10082000F2E7209B03931F9B029303230193954BB5
:1008300000935B4652460899059823F066FC10E148
:10084000209B03931F9B0293042301938E4B0093E1
:100850005B4652460899059823F057FC01E1209B1E
:1008600013F004030FD0894A7BB10423209903912C
:100870001F990291019300925B4652460899059890
:1008800023F043FCEDE0824AEEE70323EEE7209BF2
:1008900002931F9B0193009549EC108B5B465246D7
:1008A00008990598FFF770FDDBE042464B460020B3
:1008B00000211BF03FFC80468946012309939EE7F7
:1008C0000625A0E7404649461CF086F806461BF080
:1008D0007FFD02460B46404649461BF02BFC6D4B04
:1008E00003EBC50393ED008B53EC182B1BF0DAFDE3
:1008F00002460B46CDE906231CF096F807461BF08E
:1009000057FD02460B46DDE906011BF013FC0246CB
:100910000B46CDE9062300225F4B1CF053F850B381
:10092000013738461BF044FD02460B4651EC180BCC
:100930001CF034F808B10136002755BB30461BF0D7
:1009400047FD02460B46404649461BF0F3FB8046F6
:1009500089460022504B1CF017F838B100224E4B4C
:10096000404649461CF02EF8002842D016F0010FF0
:100970003FD001363DE00022474BDDE906011CF087
:1009800003F80028D9D117B117F0010FD5D00137DE
:10099000D3E71F2C17D8013D404BA3FB0723DB08EF
:1009A000194603EB8303A7EB4303621C303304F1C6
:1009B00048000DEB000404F8203C092F02D90F4633
:1009C0001446E6E714461F2C0AD86B1E45B104F105
:1009D00048026A44302102F8201C1D460134F2E727
:1009E0001F2C06D804F148036B442E2203F8202C58
:1009F00001341F2C17D82A4A82FB0632F317C3EBA7
:100A0000A2031A4603EB8303A6EB4303611C3033B6
:100A100004F148000DEB000404F8203C16460AB12E
:100A20000C46E6E70C46209B03F00303012B39D06C
:100A30001F2C09D8099B002B51D004F148036B44AB
:100A40002D2203F8202C0134209B03931F9B02933B
:100A500001940AAB00935B4652460899059823F02F
:100A600054FB13B0BDEC028BBDE8F08FAFF30080F8
:100A70000000000065CDCD410000000065CDCDC176
:100A8000FFFFEF7FC4910208C8910208B8910208E5
:100A9000C0910208D09102080000E03FCDCCCCCC40
:100AA000676666661F9BB3B1099B1BB9209B13F059
:100AB0000C0F12D01F9B013B1F93194606E004F157
:100AC00048036B44302203F8202C01348C42AFD20F
:100AD0001F2CF4D9ACE71F99F8E71F99F6E7209B84
:100AE00013F0040F07D004F148036B442B2203F8E2
:100AF000202C0134A8E7209B13F0080FA4D004F1A8
:100B000048036B44202203F8202C01349CE700BFEB
:100B100038B50D46044626F076FA064A13889BB28D
:100B20002DB123431380BDE8384026F067BA23EA8D
:100B30000403F7E7D44B00200022034B01214FF4BC
:100B400080709A70E4E700BFD44B00207FB54E68F8
:100B500002A9044624F04DFA9DF808300C2B19D157
:100B6000134BB3F90050134B9E4218D808F036FAD5
:100B700003460068694600909B882046ADF8043023
:100B800024F024FA70B140F25F620B490B480EF07A
:100B9000D1F9FEE7204613F0CFFF0546E3E71FF04B
:100BA00033FEE5E72946204624F0F6F904B070BD8F
:100BB000A6510020FFC99A3B79940208449202088A
:100BC000002330B5134C85B0CDE90133039323786E
:100BD0008DF8043026F017FAA288E38805469A4279
:100BE0000DD0E188A06801AAA18024F08BF858B14B
:100BF00040F2DA62084909480EF09CF9FEE7A06865
:100C000024F059F80128ECD0284626F0F7F905B071
:100C100030BD00BFFC5600207994020844920208BF
:100C200038B50F4C656835B940F2C7720D490E48AA
:100C30000EF080F9FEE723F017FC284411F0CAF803
:100C400000F00700032809D164680921204623F039
:100C500027FD205C031F5842584138BD0020FCE7A7
:100C6000D44B0020799402084492020808B5114B35
:100C70009A78042A06D040F28E520F490F480EF09F
:100C800059F9FEE71B881B0706D440F28F520A4928
:100C90000A480EF04FF9FEE700210820FFF738FF61
:100CA0000222074B98681A7313F000FDBDE8084054
:100CB00021F0DABFD44B0020799402084492020854
:100CC000FC56002010B5084CA06813F0EFFCA0689B
:100CD00023F0F1FF012806D00122A0681146BDE8EB
:100CE000104023F0EABF10BDFC56002038B5194D66
:100CF000AB7833B140F22B72174918480EF01AF94D
:100D0000FEE726F080F92988044611F0060109D093
:100D100001214FF48070FFF7FBFE2046BDE838400C
:100D200026F06CB94FF48070FFF7F2FE12F010FE5F
:100D3000012805D010F0FD0F05D1FFF741FFECE7CA
:100D4000FFF7C0FFE9E740F24172034903480EF0A4
:100D5000F1F8FEE7D44B002079940208449202088F
:100D600070B50446064D95F90860FFF7BFFF12F015
:100D7000EDFC314620466A68BDE8704012F01EBBAB
:100D8000D44B002008B50A4B1B88DB0606D440F282
:100D9000A752084908480EF0CDF8FEE700211020C0
:100DA000FFF7B6FE12F050FEBDE8084021F05CBF30
:100DB000D44B002079940208449202080D4B10B5E0
:100DC0001B8804469B0713D500210220FFF7A0FED5
:100DD000094B5A7BFF2A06D040F2E54207490848F2
:100DE0000EF0A8F8FEE75C73BDE8104021F03CBFB0
:100DF00010BD00BFD44B0020FC560020799402089F
:100E0000449202087047704707B5ADF806100146D6
:100E100030B94FF4B572104910480EF08BF8FEE768
:100E2000BDF8063033B940F26B120B490B480EF097
:100E300081F8FEE70A4B0DF10602986824F090F95C
:100E400030B140F26D12044904480EF073F8FEE729
:100E500003B05DF804FB00BF7994020844920208D5
:100E6000FC56002010B50E4CA37833B14FF4EA7253
:100E70000C490D480EF05EF8FEE7606019B1A17BE9
:100E8000003918BF01212020FFF742FE074B084818
:100E90009B7B23760223A370BDE8104010F066BE52
:100EA000D44B00207994020844920208FC5600209A
:100EB000F04B002008B50CF0CDFA80F00100C0B274
:100EC00008BD0A4B9A780AB1062A0CD11B8803F494
:100ED0008B7343B9064B5A7BFF2A04D1187BFF382A
:100EE00018BF012070470120704700BFD44B00207D
:100EF000FC56002008B50CF09DFA0028FBD108BD77
:100F00000C4B42889A8142789A730278DA7382880D
:100F10001A82C2885A82C2685A61017A064A91735B
:100F2000028A998C914204D001214FF400709A8476
:100F3000EEE57047D44B0020FC560020094B9A89FF
:100F400042809A7B4270DA7B02701A8A82805A8AC7
:100F5000C2805A699B8CC260034A0382927B0272F0
:100F6000704700BFD44B0020FC5600204B1E012BC5
:100F700070B50C4606D940F2B7221A491A480DF04E
:100F8000D9FFFEE7194D0A460146A86824F012F978
:100F900030B140F2B922134913480DF0CBFFFEE700
:100FA000AE6810F057FD22460146304624F0FCF8AA
:100FB00030B140F2BD220B490B480DF0BBFFFEE7FC
:100FC000AD6810F053FD22460146284624F0F8F89B
:100FD00030B140F2C122034903480DF0ABFFFEE7F8
:100FE00070BD00BF7994020844920208FC560020AC
:100FF000054BDB7B1B0913F00E0003D0052B8CBFC8
:1010000000200120704700BFFC560020044BDB7B12
:101010001B0913F00E0F0CBF01200020704700BF0A
:10102000FC5600202DE9F04F15469A0580461F46D4
:101030008FB003D501218020FFF76AFDEB014FF04F
:10104000000955D5984C23889E0751D5974E737B40
:10105000FF2B06D040F2AF42954996480DF06AFF4B
:10106000FEE7636833B94FF49662914991480DF0F9
:1010700061FFFEE749460220FFF74AFDA37886F8A4
:101080000D90042B03D101210820FFF741FD00231F
:10109000B06808A98DF82C3023F0ADFF30B140F2D4
:1010A000BA42834983480DF045FFFEE7FFF7A0FFF2
:1010B000B0B923F0D9F98146606823F0E0F908A9B6
:1010C0008144B068ADF8249023F098FF30B140F22D
:1010D000C242774977480DF02DFFFEE7089BA362D7
:1010E000A378032B02D1B06813F0E0FA21F0BCFD25
:1010F000B80702D50120FFF761FE15F0A84F02D016
:101100000220FFF75BFEA90220D50021402003AC9E
:10111000FFF7FEFC2146404624F06AF8B0B99DF87E
:10112000143008AA022B22D18DF82830BDF80C30DB
:10113000ADF82030104612F013FB38B1404624F0D1
:1011400055F818B901214020FFF7E2FC2A0753D5D2
:10115000564E0321B06803AA24F004F8814688B9EA
:1011600040F2FE42524953480DF0E4FEFEE7032BE5
:1011700005BF8DF82830D4E900018DF82800C2E9B8
:101180000001D7E79DF80C30B068072B40F01F81B5
:10119000494608AA23F0E8FF30B140F20152444921
:1011A00044480DF0C7FEFEE7FFF722FFBDF80E2012
:1011B000A0B9FFF72BFF78B1043292B2B06808A94A
:1011C000ADF8242023F0D2FF40B140F2125238494A
:1011D00038480DF0AFFEFEE70232EEE7BDF80E0034
:1011E0000121073080B225F03FFE8246002842D11F
:1011F00001210C2013F0EEF9A90705D52A4B1B8815
:101200001A0701D5FFF732FDAB010BD500210420F1
:10121000FFF77EFC244B9B78012B03D1234B98686E
:1012200013F044FA15F0284F03D000210420FFF7F3
:101230006FFC7E060CD51C4C23881D0701D5FFF7DB
:1012400015FD2388580703D500210420FFF760FC13
:10125000F90540F1D88003A9404608AA23F029FDEA
:101260000146002800F0BA8040F2D25210491148DD
:101270000DF060FEFEE74FF0000B25F079FDCDF894
:1012800000B00246BDF80E3004464946B06823F06F
:1012900071FFBDF80E3083420ED040F22252044955
:1012A00004480DF047FEFEE7D44B0020FC5600201A
:1012B000799402084492020823F0D6F8204410F0F2
:1012C00089FD00F007000228DFF8589124D199F831
:1012D0000230042B90D123F0C7F8504B2044827881
:1012E0001B789A4288D159460820FFF711FC23F059
:1012F000BBF8204410F06EFD9DF82E30C0F30010B6
:10130000307389F80830FFF78BFC00287FF474AF46
:10131000B06813F0CBF96FE723F0A6F8204410F083
:1013200059FD83064AD523F09FF8204410F052FD62
:1013300000F0070003280BD10921204623F0B0F963
:1013400014F800B0ABF1040CDCF1000B4BEB0C0B10
:1013500001210420FFF7DCFBB06823F01EFFC9F871
:101360002C00BBF1000F30D0B9F8003058062CD556
:1013700000214020FFF7CCFB0126BDF80E309DF880
:101380002E200120E254BDF80E309DF82F2023447A
:101390009A71BDF80E10089A0131214410F028FD11
:1013A000BDF80E3050461C44667125F0B5FD1C4B4F
:1013B000187810F0E1FC21F057FC1DE799F8023095
:1013C000012B02D1B06813F071F90026D5E723F0A4
:1013D000ADFE4946B06823F0CBFE0DE79DF80C301A
:1013E00003F0BF02032A01D0022B0FD10D4C23883A
:1013F0005A0702D50420FFF78BFB23889B0702D5F1
:101400000120FFF7DBFC0FB0BDE8F08F4FF4BF62A7
:10141000054906480DF08EFDFEE700BF414C002057
:10142000644B0020D44B00207994020844920208B7
:1014300008B50246FFF7DCFD30B1072A06D80020C8
:10144000034B83F8302008BD7020FCE70220FAE748
:10145000D44B002008B50246FFF7CAFD28B1002092
:10146000034B93F83030137008BD7020FCE700BFC9
:10147000D44B002008B5074B01460022986823F0A2
:1014800099FE30B140F2EB22034904480DF052FDC1
:10149000FEE708BDFC560020799402084492020839
:1014A00008B5074B01460022986823F07DFE30B155
:1014B00040F2F122034904480DF03CFDFEE708BD6F
:1014C000FC560020799402084492020808B5074BA4
:1014D0000146986823F07AFE30B140F2F7220449C1
:1014E00004480DF027FDFEE708BD00BFFC560020B4
:1014F000799402084492020808B5074B9B7833B1EF
:1015000040F20132054906480DF014FDFEE7BDE842
:101510000840FFF7EBBB00BFD44B002079940208D2
:101520004492020808B5054B0146986823F034FD43
:10153000002814BF8B20002008BD00BFFC560020EF
:10154000014B986813F0F8BAFC560020014BD8887C
:10155000704700BFFC5600207FB50123ADF80E3068
:101560004FF6FE7309480093806800230DF10E02C8
:1015700004A923F09EFC212800D020B9BDF810005A
:1015800007B05DF804FB4FF6FF70F9E7FC5600204A
:1015900008B5044B0146986823F03FFCB0FA80F090
:1015A000400908BDFC56002038B50B4D0446AB7809
:1015B000012B0DD8FFF7ECFF60B1084BDC80AB7856
:1015C0001BB9FFF793FB002038BDFFF7F9FAFAE7E4
:1015D0003E20F9E78A20F7E7D44B0020FC56002094
:1015E000024B9B780BB9FFF781BB7047D44B0020AF
:1015F000014BD873704700BFD44B002008B5064B91
:101600004FF0FF31986823F081FB0028B8BF03300A
:1016100040F3870008BD00BFFC56002008B5044B0E
:10162000986823F0F6FB034BB3FBF0F080B208BDE3
:10163000FC56002040420F0030B58DB02C220446ED
:10164000002101A824F0DFFA01234FF002328DF8C7
:1016500008306423CDE9032306930B238DF82C3047
:10166000214B9B8CADF80A30FFF7C2FCA8B140F2C9
:10167000F23307934FF47A7305930CB9FFF722FB0B
:101680001A4D01A9A86813F02BFBC0B140F2AC625F
:10169000174918480DF04EFCFEE7FFF7BFFF0C237B
:1016A0004343902B0793A3F10A02D8BF91230592DD
:1016B000D8BF0793059B8B2BDFD88C23DCE7FFF784
:1016C000A5FC60B10122A868114623F08DFD30B160
:1016D00040F2AF62064907480DF02CFCFEE70CB95A
:1016E000FFF704FB0DB030BDD44B0020FC560020AA
:1016F0007994020844920208F8B525F084FC554C10
:1017000006462388D90503D5A37843BBFFF7EEFA35
:10171000514D6B7BFF2B13D06B7B03F0FF0723BB7B
:10172000FF236B73A378032B0AD100233046A370E9
:1017300025F064FC3846FFF713FB25F064FC0646F1
:10174000A378042B08D12B7BFF2B05D02B7B022BFE
:1017500014D1424810F00AFAFF232B7327E000212E
:101760004FF48070FFF7D4F9D2E76B7B012B4FF079
:10177000FF0314BF89278D276B73D6E72B7B13B12B
:101780002B7B012B1ED1FFF74BFA0022FF212B7B75
:101790000746DBB222772973002847D0012B0AD1F4
:1017A00064212E48A37010F0ECF9FFF709FA3046D7
:1017B00025F024FC06E03046A27025F01FFC312005
:1017C000FFF7CEFA23881A0608D500218020FFF7FC
:1017D0009FF9A86823F04BFC12F017F923889B05AA
:1017E00007D54FF400700021FFF792F90020FFF7B2
:1017F00023FF0BF01FFE608620B325F0B9FA01210C
:101800000546002012F0E6FEA678012E14D100262F
:101810002677A670FFF76AFA284611F0F1FCA37844
:1018200066867BB9BDE8F84011F090BFA0703046E5
:1018300025F0E4FB3846C3E72EB1284611F0E0FC62
:1018400000236386F8BDFFF751FA284611F0D8FC53
:101850006686F7E7D44B0020FC560020F04B0020B2
:101860008B4BF0B51B888B4C8B4D63848B4B85B0B9
:101870001B68E3628A4B1B8823848A4B1B68A36224
:101880002B88DB0700F1FC8001210846FFF740F9B7
:101890000523854A04F1100104F10800AB7012F031
:1018A000C7FE28B1F522814981480DF043FBFEE7D0
:1018B000A3682BB9F7227D497D480DF03BFBFEE77D
:1018C0007C4823F03EFA70A3D3E90023CDE900233E
:1018D0004FF0FF324FF0FF33A06823F0E1FA4FF4EE
:1018E0008811A06813F0A0F9014630B140F20F1240
:1018F0006E496F480DF01EFBFEE76F4B1B78012B06
:101900000ED16E4AA06812F061FFA06813F016FABB
:10191000E0B140F21B12654965480DF00BFBFEE794
:10192000674E316831B94FF48F72604960480DF0ED
:1019300001FBFEE7614AA06812F048FF33689B682C
:1019400023B1DB6913B15B7803B1E373FFF704FEE6
:101950000146E080A06813F0B5F8064630B140F2C9
:101960002D12524952480DF0E5FAFEE7554B012081
:101970001B78C3EB431203EB8203DB00AB84FFF75E
:101980005BFEA76810F072F832460146384623F035
:1019900017FC064630B140F23312444944480DF07A
:1019A000C9FAFEE740F203530427AB81464BAF73FD
:1019B0001B78EB73FFF732FE00EB80039B002B825A
:1019C000FFF72CFEC00068823946A0686E6123F0E4
:1019D0000FFA30B14FF4A172344935480DF0AAFA2C
:1019E000FEE73A46A06803A923F095FA042806D03A
:1019F0004FF4A3722D492E480DF09CFAFEE703A97F
:101A0000012010F003FA0BF09BFA08224FF0FF318F
:101A1000A06823F056FA30B140F24F12234924480F
:101A20000DF088FAFEE713F009FB30B140F25512D1
:101A30001E491F480DF07EFAFEE7FFF7D9FA68B19C
:101A40001EF0E4FE0146A06823F0C0FA30B140F277
:101A50005912164916480DF06DFAFEE7A468FFF713
:101A60007BFD1A4B014603F10C02204623F04CF992
:101A700030B14FF4B0720D490D480DF05BFAFEE73E
:101A800005B0F0BDAFF300800A0020FF4203000064
:101A900070970208FC560020D44B0020749702086F
:101AA0007297020878970208390B000879940208A7
:101AB00044920208690345EC254C00204D0B0008B8
:101AC000E0540020A1580020A0580020A49402084F
:101AD00008B5044B986823F09EF9034BB3FBF0F074
:101AE00080B208BDFC56002040420F002DE9F043B3
:101AF0008C4D87B02B889B0706D440F24C728A49E4
:101B00008A480DF017FAFEE7AB78033B012B06D9A4
:101B100040F24E72844985480DF00CFAFEE76A687F
:101B200032B940F25172804980480DF003FAFEE765
:101B30007F4E2C88F77B14F0200418BF4FF47A7482
:101B40004FEA1718FFF754FA00287DD0B8F1020FBA
:101B50000AD0A8F10303022B74D940F265727249CE
:101B600072480DF0E7F9FEE7032795F8303008EBEF
:101B7000C80898446F4B104603EB4803B3F81C8029
:101B800022F07DFC4FF4FA534343B3FBF8F3782281
:101B90007733B3FBF2F31F44C7EB0717AB78FF00B3
:101BA000BFB204F5347417FA84F4042BA4B203D141
:101BB00007F6E8072744BCB2D5F8048022F054FCAD
:101BC0000746686822F05BFC074422F073FCBFB252
:101BD0003F1A22F049FC404410F0FCF87378C0F33F
:101BE00040198DF80C30544BBFB2CDE904340024B9
:101BF00022F06CFC009402463B464146B06823F05C
:101C000097FA287EB278737812FB00F29342C4BF31
:101C10009B1ADCB22B88F18813F0200FB068B180DA
:101C20008DF80C4003AB76D000934A46434B23F02B
:101C300060F8002873D040F224723B493B480DF015
:101C400079F9FEE7062790E7FFF7E0F9002846D08C
:101C5000384B07F00F0708EBC801394403EB410389
:101C60001046B3F81C9022F00AFCB8F1000F2CD0FB
:101C7000B8F1010F2CD14FF00408400080B2F319E5
:101C800093F834304BB14FF4FA52023303444344D7
:101C90009BB25343B3FBF9F39CB2AB78042B8BD1CB
:101CA000FFF7BCFC374497F834308146053398443D
:101CB000FFF70EFF0C2308FB00F003FB09F909EB0B
:101CC000C009A1441FFA89F476E74FF00208D6E76D
:101CD00040F28672144915480DF02CF9FEE7FFF723
:101CE000F7FE0746686822F0CAFB09307843AB78F4
:101CF00004EBC000042B84B27FF45EAFFFF78EFCD0
:101D00000746FFF7E5FE602358430C2303FB07005B
:101D1000204484B250E74A4622F0E9FF89E707B041
:101D2000BDE8F083D44B0020799402084492020865
:101D3000FC560020A494020820A10700E04B0020DC
:101D4000F8B5494C258815F0020506D040F2751209
:101D5000464947480DF0EEF8FEE7257725F053F9A0
:101D6000238806465A070CD5424B986823F015FA8B
:101D7000E36AC01AA38C984203D929460420FEF7CF
:101D8000C7FE304625F03AF9A778022F37D125F063
:101D90003AF92388064613F0040507D036480FF0B9
:101DA000E5FE3046BDE8F84025F028B925F026F9D3
:101DB000606811F005FD20B1A570BDE8F840FEF7A0
:101DC000CFBF25F020F96668054622F04DFB304470
:101DD00010F000F810F0200F0CBF032304230121A2
:101DE0003846A370FEF794FEFFF780FE284625F0E4
:101DF00005F901210846BDE8F84012F0EBBB042FBD
:101E000027D11C4B1B7BFF2B2DD1237EF3B125F05B
:101E1000FAF8238805465B0704D517480FF0A6FE9D
:101E20002846BFE725F0EAF8237E013B237625F01C
:101E3000EAF8044601210220FEF76AFEFFF756FE8B
:101E4000204625F0DBF801210820D4E74020A370CC
:101E5000B3E7012F07D10023A370064B986812F057
:101E600025FC3120A9E7F8BDD44B00207994020865
:101E700044920208FC560020F04B002038B50121A6
:101E800004461020FEF744FE064B9D68FFF7C6FB94
:101E9000012200FB04F1044B284622F013FF00202E
:101EA00038BD00BFFC560020850D000808B50A4B60
:101EB0001B88DB0606D44FF46172084908480DF010
:101EC00039F8FEE710200021FEF722FE054B986846
:101ED000BDE8084022F004BFD44B002079940208EA
:101EE00044920208FC56002038B50E4D688E30B979
:101EF00040F291320C490D480DF01CF8FEE724F039
:101F000037FF0446688E24F051FF811F21440120D1
:101F10000FF07CFF064B0446986823F03EF9001B47
:101F200038BD00BFD44B00207994020844920208C7
:101F3000FC56002010B5084C636833B94FF4687242
:101F4000064907480CF0F6FFFEE7064B986823F0B9
:101F500024F9A36AC01A10BDD44B0020799402085A
:101F600044920208FC56002038B50A4D688E30B9FC
:101F700040F2AA32084909480CF0DCFFFEE724F0E1
:101F8000F7FE0446688E24F011FF044414F8020C96
:101F900038BD00BFD44B0020799402084492020857
:101FA00038B50A4D688E30B940F2B932084909484F
:101FB0000CF0C0FFFEE724F0DBFE0446688E24F040
:101FC000F5FE044414F9070C38BD00BFD44B0020C3
:101FD000799402084492020838B50A4D688E30B9E7
:101FE0004FF47272084909480CF0A4FFFEE724F090
:101FF000BFFE0446688E24F0D9FE044414F9010C97
:1020000038BD00BFD44B00207994020844920208E6
:10201000024B1888C0F3C010704700BFD44B00209B
:1020200030B585B005466C460D4B0FCB84E80F00EC
:102030000DB12B6800930B4B21460022986812F0DB
:1020400091FD044630B140F2E632074907480CF0F2
:1020500071FFFEE7FEF7B4FD204605B030BD00BFBE
:102060002C950208FC56002079940208449202083C
:1020700030B5154D87B004460DF10701A86822F070
:1020800011FF30B140F2F732104911480CF052FF05
:10209000FEE79DF80720531EDBB2FD2B0FD90294FB
:1020A000FF2A00D10394A86802A922F0E3FF40B1FF
:1020B00040F20442054906480CF03CFFFEE7012AC5
:1020C000EFE707B030BD00BFFC560020799402084E
:1020D0004492020808B5064B986822F0DAFF30B146
:1020E0004FF48262034904480CF024FFFEE708BD68
:1020F000FC56002079940208449202080122024B07
:102100001146986822F0D9BDFC5600207047F8B5FA
:10211000064604200D4622F089F9030622D5124F07
:10212000BC78FCB926B1012E17D002242046F8BD98
:1021300001262846FFF72CFA0028F6D00B4800238A
:1021400032462946806822F0D6FD40B14FF48A62BB
:10215000074908480CF0EEFEFEE72646E9E70623AD
:10216000BB70E3E77024E1E7D44B0020FC5600206D
:102170007994020844920208042010B522F056F91E
:10218000030611D5094CA378062B0DD1084B98688E
:1021900022F0B3FD30B140F26A42064906480CF025
:1021A000C9FEFEE7A07010BD7020FCE7D44B0020F4
:1021B000FC56002079940208449202081FB5044698
:1021C00001A812F097FC9DF80D3053B14CB1064BAD
:1021D0002078617818700020A27859709A7004B045
:1021E00010BD0220FBE700BFFC5600201FB50446CF
:1021F00001A812F07FFC9DF80D3053B14CB10020C6
:10220000054B1A7822705A789B786270A37004B0DC
:1022100010BD0220FBE700BFFC560020FFF7CEBF39
:10222000FFF7E4BF0348044B834202D0034B03B1E2
:1022300018477047B8580020B85800200000000028
:10224000064B0749C91A891048BF0131491003D00C
:10225000044B0BB101481847704700BFB858002025
:10226000B85800200000000010B5064C237843B990
:10227000FFF7D8FF044B13B10448AFF300800123EC
:10228000237010BD605200200000000018D1020829
:1022900008B5054B1BB105490548AFF30080BDE803
:1022A0000840FFF7CDBF00BF00000000A0220020C3
:1022B00018D10208A3F5803A704700BF174B002BD6
:1022C00008BF134B9D46FFF7F5FF00218B460F46D5
:1022D0001348144A121A23F096FC0E4B002B00D020
:1022E00098470D4B002B00D0984700200021040098
:1022F0000D000D48002802D00C48AFF300801BF001
:10230000CBF8200029001BF0EFFD1AF05BFD00BFA9
:102310000000080000000000000000000020002075
:1023200000200020C052002000000000000000003B
:1023300008B5074B01229A73064B1B6800221A70DE
:102340004FF49671044B18680FF01BFC08BD00BFDA
:102350007C230020B8220020BC22002010B504F00D
:102360008FFC0B4B01220B490B48006804F046FB25
:102370000A490B480AF082FC0A4C0B4920460AF035
:102380007DFC41F2883120680FF0FBFB10BD00BFDF
:102390009D250008F022002080560020B526000868
:1023A000BC220020B822002031230008084B9B7B70
:1023B000012B05D01BB9074B93F82E3003707047E3
:1023C000054BD3F8A430C3F340030370704700BF3C
:1023D0007C230020C022002000C0035010B5634BB6
:1023E00093F85930042B0ED8DFE803F003132231A1
:1023F000420003787E2B07D05D4B01225D495E4889
:10240000006804F0FBFA10BD584B012283F85920F4
:10241000F2E70378554981F83130022381F85930C9
:10242000534B012230315448006804F0E7FAEAE7E0
:1024300003784E4981F83230032381F859304C4BF0
:10244000012230314C48006804F0D8FADBE7037809
:10245000464981F83330042381F8593091F831200E
:10246000434B043A34314448006804F0C7FACAE7E1
:102470003E4C002384F85930621C94F8311004F16A
:1024800031001BF04FFC207038B1394B0122394923
:102490003948006804F0B2FAB5E7384B00229A7365
:1024A0004FF49671364B18680FF06BFBE378482BAE
:1024B00006D0432BE9D12D4B1A7983F82F20E4E77E
:1024C000637A84F82E30013B042BDED8DFE803F07A
:1024D000031221303F00032001F0CAFD0028D4D0B0
:1024E0001BF09AFD1BF099FD2649274B18681FF039
:1024F00092FACAE7032001F0BBFD0028C5D01BF00B
:102500008BFD1BF08AFD21491F4B18681FF083FAD1
:10251000BBE7032001F0ACFD0028B6D01BF07CFD2A
:102520001BF07BFD1A49184B18681FF074FAACE7D2
:10253000032001F09DFD0028A7D01BF06DFD1BF0CE
:102540006CFD1449104B18681FF065FA9DE70320D5
:1025500001F08EFD002898D01BF05EFD1BF05DFDA4
:102560000D49094B18681FF056FA8EE7C02200206B
:102570009D250008F0220020805600207C230020AA
:10258000BC220020687702085428002070770208D7
:1025900078770208807702088C77020808B502482D
:1025A000FFF71CFF08BD00BFF022002008B50A4657
:1025B000002301460248006804F0E6FA08BD00BFA7
:1025C0008056002000B591B0264B9B7B23B1012B98
:1025D00020D011B05DF804FB8DF814008DF8153093
:1025E0008DF816308DF817300122039204220292E2
:1025F00005AA01924322009202220A2106A81BF09A
:102600004FFB0A2106A8FFF7D1FF42F2107004F039
:10261000A7FBDEE7144BD3F8982722F01002C3F88B
:102620009827D3F8982722F00402C3F8982703F5D7
:10263000805320221A6400210C481EF069F8002300
:1026400004220521184605F0B7FE002301220621C9
:10265000184605F0B1FEC821054B18680FF091FA35
:10266000B7E700BF7C23002000C0035000C0055026
:10267000BC2200200E4B9B7B03B1704700B58FB08E
:102680000123039300230293019348220092022224
:10269000062104A81BF004FB062104A8FFF786FF0F
:1026A00042F2107004F05CFB0FB05DF804FB00BF59
:1026B0007C23002008B5094B20221A64FFF7DAFFBB
:1026C0004FF49671064B18680FF05BFA41F28831AF
:1026D000044B18680FF055FA08BD00BF00D0035036
:1026E000BC220020B8220020F0B58FB005460E466F
:1026F000174600240D940794089409940A940B94A7
:102700000C9406944FF40073059305A81BF075FB19
:10271000059B0993124B0A934FF41053ADF81C30EC
:102720008023ADF81E3008940C940DAB102229467E
:1027300007A821F053F9044610B120460FB0F0BDB0
:1027400006AB0293102301930097324604490D987B
:102750000BF0A6FD04460D9821F0FAF8EDE700BF56
:102760000044400410B582B0044600201BF054FB26
:1027700008B902B010BD00230093ADF80430054B3A
:102780001B88ADF80230ADF800406946022020F009
:1027900006FBEEE71C58002000B583B00023009331
:1027A000ADF80430094B1B88ADF8023044F22133F8
:1027B000ADF80030684620F0EEFA20F0E8FA0A2082
:1027C00020F0F1FA03B05DF804FB00BF1C580020B4
:1027D00008B513460A4601460448006803F092FB18
:1027E00000B908BD02480CF0A5FBFAE7B45600207A
:1027F000A87702080A2800D9704730B583B004468C
:102800000D466B4601AA01461048006803F0E0FA45
:1028100008B9019B23B10E480CF08CFB03B030BD0E
:10282000009B2A4621460948006803F011FA40B986
:10283000214608480CF07EFB294607480CF07AFB3D
:10284000ECE7214605480CF075FBE7E7B45600209D
:10285000B0770208D4770208F0770208F877020808
:102860000A2800D9704710B504460146064B18687F
:1028700003F016FC20B9214604480CF05BFB10BDA8
:1028800003480CF057FBFAE7B45600201C78020806
:102890003878020808B5314B1B78012B21D0022B68
:1028A0003DD003B108BD2E4B1B782E4A1278B3EBF6
:1028B000420F07DA01332A4A137001212A481BF01C
:1028C0009BFBEFE70023294A1370254A1370264823
:1028D0001BF09AFB264B01221A70264823F0A8FF12
:1028E000E0E71F4B1B781F4A1278B3EB420F07DA61
:1028F00001331B4A137001211F481BF07DFBD1E7F8
:1029000000231A4A1370164A13701B481BF07CFBF5
:10291000174B01221A70174823F08AFFC2E7104BA9
:102920001B78104A1278B3EB420F07DA01330C4AD6
:102930001370012111481BF05FFBB3E700230B4A22
:102940001370074A13700D481BF05EFB084B012201
:102950001A70084823F06CFFA4E700BF6152002002
:102960006352002062520020C08902086452002095
:10297000945800201C230020D8890208F0890208FE
:10298000037823BB70470133022B22DC03EB4302A5
:10299000104911F82220002AF5D100B50A4603EBB0
:1029A000430102EB810C4FF0000E8CF801E04FF078
:1029B000010C02F821C002EB810301684268C3F8F0
:1029C0000210C3F8062002895A815DF804FB002337
:1029D000DAE770473C23002030B583B00446144B3F
:1029E0005D7B21B123788DF8003000230BE0FFF7E9
:1029F000C7FFF7E7E118497803F109026A4402F8D2
:102A0000081C0133DBB2617A4A1E9342F2DB237861
:102A10001C2B08D0074B03221A706A46284601F087
:102A2000BBFA03B030BD034B00221A70F5E700BFBC
:102A30007C2300209558002010B5214C2046FFF73C
:102A4000B5FC204610F81039427C934206D0A4F120
:102A500010025374527B42B1012A26D04FF4967172
:102A6000184B18680FF08DF810BD032001F000FB23
:102A700088B915481E23037006234372134A137C3A
:102A80004370FF238370C3700371D37A43710021B5
:102A9000FFF7A2FFE2E71BF0BFFA1BF0BEFA0C49FA
:102AA0000C4B18681EF0B7FFE3E707481E220270C0
:102AB0004370022343720021FFF78EFFCEE700BF71
:102AC0008C230020CC230020602300207C230020C6
:102AD000507802085428002008B5244B1A789A72BE
:102AE0001B78DBB21D2B08D02B2B18D0102B1BD042
:102AF0001F4B1B6800221A7008BD1C4B1B7C012B4E
:102B000005D0032B07D00C20FFF75CFDF0E7022077
:102B1000FFF758FDECE70120FFF754FDE8E7154B00
:102B200018680FF023F8E3E7104B5B7B012BDFD134
:102B30000E4B5B78DBB2012B07D00C4B5B78DBB222
:102B4000022B06D0094B5B78D2E70C20FFF73AFD49
:102B5000CEE709482B230370044B1B7C43700223F0
:102B600043720021FFF738FFC2E700BF7C2300203B
:102B7000D0230020D42300206023002000B583B0A0
:102B80008C461146084B1870084B83F800C0002390
:102B9000074A1370012201920093064A064824F066
:102BA000C3FC03B05DF804FB6152002062520020B8
:102BB00094580020952800081C23002008B5044ADA
:102BC0001BF034F9034B18680EF0D0FF08BD00BFAE
:102BD0007C230020D023002038B5044620F0EBF8F9
:102BE000A04201D8012038BD0546032001F040FA7B
:102BF0000028F8D01BF010FA1BF00FFA2B462246E3
:102C00000349044800681EF006FF0020EBE700BF00
:102C1000607802085428002030B583B004468368E9
:102C2000C26853F822301D882846FFF7D5FF08B93F
:102C300003B030BD00230093ADF80430164B1B8861
:102C4000ADF80230ADF804506368E2689B1A012BBE
:102C50001DDDA368013253F822301B88ADF8003027
:102C600020F095F86946032020F099F804460320E7
:102C700001F0FEF90028DBD01BF0CEF91BF0CDF9F6
:102C800022460649064B18681EF0C5FED0E740F202
:102C9000FF13ADF80030E3E7A05100209878020858
:102CA0005428002030B583B004468368C26853F8C6
:102CB00022301D882846FFF78FFF08B903B030BDCA
:102CC00000230093ADF80430154B1B88ADF802309B
:102CD000ADF804506368E2689B1A012B1BDDA36802
:102CE000013253F822301B88ADF8003069460420C9
:102CF00020F055F80446032001F0BAF90028DDD091
:102D00001BF08AF91BF089F922460649064B186820
:102D10001EF081FED2E740F2FF13ADF80030E5E788
:102D2000A0510020B87802085428002030B583B0A4
:102D300004468368C26853F822301D882846FFF78E
:102D40004BFF08B903B030BD00230093ADF8043049
:102D5000154B1B88ADF80230ADF804506368E2688B
:102D60009B1A012B1BDDA368013253F822301B880C
:102D7000ADF800306946022020F011F80446032027
:102D800001F076F90028DDD01BF046F91BF045F97B
:102D900022460649064B18681EF03DFED2E740F277
:102DA000FF13ADF80030E5E7A0510020CC78020811
:102DB0005428002030B583B08368C26853F82230AD
:102DC0001C780023019343689B1A012B19DD01AA8B
:102DD00001211EF0F0F801469DF804001FF0D3FF1A
:102DE000054680B1022001F043F960B11BF014F9EF
:102DF0001BF013F92A460649064B18681EF00BFE15
:102E000001E01FF0C4FF20461FF0CDFF03B030BD2E
:102E1000E87802085428002010B503468168C2688B
:102E200051F82200B0F900001A4C20805B689B1A10
:102E3000012B0FDD013251F8223093F900100039D7
:102E400018BF01211FF050FFA0B9032001F010F9B5
:102E500010B910BD0021F5E71BF0DEF81BF0DDF81E
:102E60000D4B1C681FF044FF02460C4920461EF023
:102E7000D2FDEEE7012001F0FBF80028E9D01BF0BD
:102E8000CBF81BF0CAF80649034B18681EF0C3FDC7
:102E9000DFE700BFA0510020542800204C79020831
:102EA0006079020808B51FF013FF032001F0E0F875
:102EB00000B908BD1BF0B0F81BF0AFF80249034B96
:102EC00018681EF0A8FDF4E778790208542800205D
:102ED00008B58368C26853F822301A88094B1A80F3
:102EE000032001F0C5F800B908BD1BF095F81BF0F0
:102EF00094F8044B1A880449044B18681EF08BFDA3
:102F0000F2E700BF1E5800209879020854280020DC
:102F100008B5024B18680EF029FE08BDD423002026
:102F20002DE9F04186B01FF0EFFE0446894B1B7877
:102F300013F0020F2CD0884E13F0010F2AD0864FC9
:102F400013F0040F28D0DFF81082032001F090F86E
:102F500028BB032001F08CF858BB032001F088F84F
:102F6000002835D1032001F083F800283ED103204A
:102F700001F07EF8002847D1032001F079F80028FD
:102F80005ED1032001F074F8002867D1002471E0BD
:102F9000724ED1E7714FD3E7DFF8C081D5E71BF060
:102FA0003BF81BF03AF86E496E4B18681EF033FD83
:102FB000CFE71BF031F81BF030F86A4B1D6805F0C5
:102FC000D3FB02460B46684928461EF024FDC4E7A1
:102FD0001BF022F81BF021F8624B1D681FF06CFEFD
:102FE0000246624928461EF016FDBBE71BF014F8A6
:102FF0001BF013F85B4B1D681FF092FE02465C4904
:1030000028461EF008FDB2E71BF006F81BF005F895
:10301000E279A37961792079E57894F802C094F88F
:1030200001E024780594CDF810E0CDF80CC00295AD
:10303000019000914F494B4800681EF0ECFC9BE763
:103040001AF0EAFF1AF0E9FF464B1C681FF060FE19
:103050000246494920461EF0DEFC92E71AF0DCFFEA
:103060001AF0DBFF45493F4B18681EF0D4FC8DE792
:103070000134E4B2072C12D8032000F0F9FF002835
:10308000F6D01AF0C9FF1AF0C8FF364B1D681FF0C2
:103090003BFE025D3A4928461EF0BDFCE8E70320EE
:1030A00000F0E6FF98B9032000F0E2FFC8B9032062
:1030B00000F0DEFF18BB032000F0DAFF68BB03203E
:1030C00000F0D6FF002836D106B0BDE8F0811AF036
:1030D000A3FF1AF0A2FF2B49224B18681EF09BFC9D
:1030E000E1E71AF099FF1AF098FF1E4B1C681FF0D9
:1030F00013FE0246244920461EF08DFCD7E71AF045
:103100008BFF1AF08AFF174B1C681FF0E9FD02467F
:103110001E4920461EF07FFCCDE71AF07DFF1AF015
:103120007CFF104B1C681FF0E3FD02461849204647
:103130001EF071FCC3E71AF06FFF1AF06EFFCDF8B6
:1031400000803B4632461349064800681EF063FC87
:10315000BAE700BF955800200079020808790208F4
:10316000B479020854280020BC790208D8790208F2
:10317000F4790208107A0208347A0208507A0208B8
:10318000647A0208EC7702086C7A0208887A0208EE
:10319000A07A0208B87A020830B583B08368C268A2
:1031A00053F822301C7801A920461FF095FD88B9FC
:1031B000032000F05DFF08B903B030BD1AF02CFF0A
:1031C0001AF02BFF019B22460B490C4800681EF0A9
:1031D00022FCF1E70546012000F04AFF0028EBD071
:1031E0001AF01AFF1AF019FF2A460549034B18680E
:1031F0001EF011FCE0E700BFF07A0208542800201E
:103200000C7B020870B58268C36852F823100C88E2
:10321000013352F823301D78294620461FF0AFFDB8
:1032200080B9032000F024FF00B970BD1AF0F4FE4D
:103230001AF0F3FE2B4622460B490C4800681EF09C
:10324000EAFBF2E70646012000F012FF0028ECD06E
:103250001AF0E2FE1AF0E1FE32460549034B186807
:103260001EF0D9FBE1E700BF307B020854280020A4
:10327000607B020870B582B08368C26853F8223060
:103280001B78134A137013F0020F0ED0114C13F079
:10329000010F0CD00F4D13F0040F0AD00D4E032078
:1032A00000F0E6FE38B902B070BD0B4CEFE70A4DF6
:1032B000F1E7094EF3E71AF0AFFE1AF0AEFE009602
:1032C0002B4622460549064800681EF0A4FBEAE7A3
:1032D000955800200079020808790208147902083C
:1032E0005428002030B58FB004460D4668461AF0C9
:1032F000B4FD0DF1200EEC46BCE80F00AEE80F0067
:103300009CE803008EE8030008A9464B186820F0EB
:1033100048FB10F1880F46D168461AF09EFD0DF16A
:10332000200EEC46BCE80F00AEE80F009CE803005E
:103330008EE803004FF41053ADF820308023ADF831
:1033400022304FF44073079307A81AF096FD079BAD
:103350000A93354B0B93334B1A68099B0D9213F06C
:10336000FF0F04D123F0FF0343F00103099301236E
:1033700009932C4B2A46214608A820F02FFB04462F
:1033800010BB032000F074FE90B9264B18681FF0A4
:103390009BFC0546002831D1032000F069FE04465D
:1033A00010BB01242FE01F4B186820F0D1FAB3E7BF
:1033B0001AF032FE1AF031FE1A4B1A681B491C4BE8
:1033C00018681EF028FBE0E7032000F051FE0028FB
:1033D000DBD01AF021FE1AF020FE22461549144BCC
:1033E00018681EF018FBD0E71AF016FE1AF015FE4A
:1033F00011490F4B18681EF00EFB04E0032000F08B
:1034000037FE044610B920460FB030BD1AF004FE56
:103410001AF003FE2A460949054B18681EF0FBFA0C
:103420000024F0E79023002000014405907B02086F
:1034300054280020C07B0208E47B0208047C0208B8
:1034400000B583B00021019101AA1DF0B4FD0199DE
:1034500010290ED0032000F00BFE60B11AF0DCFD45
:103460001AF0DBFD10220549054B18681EF0D3FA4F
:1034700001E0FFF737FF03B05DF804FB247C02088E
:103480005428002010B588B020F0A7FB032000F0DE
:10349000EFFDF8B901244A4B1C6002A81AF004FDA4
:1034A00002A9204620F07DFA10F1880F1CD00320DD
:1034B00000F0DEFD00286ED1414B18681FF004FCBF
:1034C0001FF055FC0446032000F0D2FD00286CD10B
:1034D00008B010BD1AF0A0FD1AF09FFD39493A4B13
:1034E00018681EF098FAD5E7032000F0C1FD002807
:1034F00037D1334B1A68039B079213F0FF0F04D1A7
:1035000023F0FF0343F001030393304B05934FF483
:103510004073019301A81AF0D7FC019B04934FF468
:103520001053ADF808308023ADF80A30012303931F
:10353000234B1022264902A820F050FA0446D0B9A5
:10354000032000F095FD0028B6D01AF065FD1AF0B2
:1035500064FD1B4B1A681F491B4B18681EF05BFA71
:10356000AAE71AF059FD1AF058FD1B49164B1868C6
:103570001EF051FABDE7032000F07AFD00289BD031
:103580001AF04AFD1AF049FD224614490E4B1868FC
:103590001EF041FA90E71AF03FFD1AF03EFD104987
:1035A000094B18681EF037FA86E71AF035FD1AF055
:1035B00034FD22460B49044B18681EF02CFA87E7AD
:1035C000902300204C7C0208542800200044400432
:1035D000CC540020907B0208587C0208C07B020873
:1035E000807C0208AC7C020810B5012009F040FC88
:1035F0000D4C21460420FFF7FDF8611E0320FFF764
:10360000F9F80A490820FFF7F5F84FF4FA61084B7A
:1036100018680EF0B6FA074B01221A70064B1B68A9
:1036200000221A7010BD00BF892300206C230020E7
:10363000CC23002065520020C823002010B584B0A0
:10364000364B1B7B3BB1022B23D0354B1B68002232
:103650001A7004B010BD9DF80030032262F3040319
:103660008DF800309DF800306FF346138DF8003070
:103670001C238DF8043002228DF80D209DF80020C7
:103680008DF80520254A9372002101A8FFF7A4F9BF
:10369000DBE7224B9B7A1E2B21D0204B9B7A2B2BD6
:1036A000D3D1204C2046FEF781FE2B238DF8043029
:1036B00006238DF80D30204610F810398DF80530AE
:1036C000FF238DF806308DF807308DF80830C37A67
:1036D0008DF80930002101A8FFF77EF9B5E7114CFC
:1036E0002046FEF763FE1E238DF8043006238DF876
:1036F0000D30204610F810398DF80530FF238DF875
:1037000006308DF807308DF80830C37A8DF809300F
:10371000002101A8FFF760F9BFE700BF7C2300206C
:10372000D42300208C23002010B50C490C4809F04C
:10373000A5FA0C490C4809F0A1FA0C490C4809F00B
:103740009DFA0C4C0C49204609F098FAFEF706FE4B
:103750004FF47A7120680EF014FA10BDD92A0008CF
:10376000D0230020392A0008CC2300203D36000851
:10377000D4230020C8230020E935000808B5032021
:10378000FFF76EF80820FFF76BF80449002301F8F3
:103790000C3F01220320FFF71BF808BD7C2300200B
:1037A00070B506460D468B681B781C2B01D0002493
:1037B0001EE0244B1B7B002BF9D10028F7D12149B7
:1037C000022301F80C3F01220320FFF701F8EEE786
:1037D00004EB44021C4B03EB82035B780A2B1DD1E4
:1037E0001949900001EB820300220A545A700134F7
:1037F000022C21DCAB68197804EB4402124B03EB7A
:1038000082039B789942F2D1002EE1D10E499000BB
:1038100001EB820300220A545A70E8E70A4A04EBDB
:10382000440C02EB8C00012102F82C100B44437075
:103830000230FFF7D1F8DAE72B7B5B42014AD37203
:1038400070BD00BF7C2300203C23002010B504463F
:103850003D481AF0D9FBA4F19003062B5ED8DFE8AF
:1038600003F0040A1E5D5D334800C82202210120D6
:10387000FFF784F910BD032000F0FAFB28B9642299
:1038800005210020FFF77AF9F4E71AF0C5FB1AF0DA
:10389000C4FB2E492E4B18681EF0BDF8EFE701203F
:1038A00000F0E6FB30B94FF47A7202210020FFF7F6
:1038B00065F9DFE71AF0B0FB1AF0AFFB2549244B9E
:1038C00018681EF0A8F8EEE7012000F0D1FB30B92F
:1038D0004FF47A7202210020FFF750F9CAE71AF07C
:1038E0009BFB1AF09AFB1C49194B18681EF093F8C1
:1038F000EEE7032000F0BCFB30B94FF47A720221EE
:103900000020FFF73BF9B5E71AF086FB1AF085FBBC
:1039100012490F4B18681EF07EF8EEE7032000F006
:10392000A7FB30B94FF47A7202210020FFF726F985
:10393000A0E71AF071FB1AF070FB22460849044B0D
:1039400018681EF068F8EDE7F0890208C47C0208E8
:1039500054280020D47C0208F47C0208187D020858
:10396000347D020810B523F0D3FD04462A4B1B68B2
:10397000C31A2A4A934205D9294A127812B1294A10
:1039800093420ED9264A127812B1264A934212D88F
:10399000254B1B7823B1254B5B7B8BB1012B2ED0A4
:1039A00010BD23481AF004FD22481AF001FD2248F8
:1039B0001AF0FEFCF4E700211D4800F0B9FAEFE729
:1039C0001FF07EF9B0B91D4B1B78002BE8D01C4BC3
:1039D0001B68E31A41F678629342E1D9184B1C60E8
:1039E00015481AF0EAFC12481AF0E2FC11481AF0E5
:1039F000DFFCD5E700210F4800F09AFAD0E71FF06E
:103A00005FF90028CCD00F4B1B78002BC8D1084899
:103A10001AF0C9FCC4E700BF94230020A08601006F
:103A200066520020400D0300655200207C230020D8
:103A3000C0890208D8890208F08902089458002039
:103A4000DC5400206452002010B500201FF093F9D0
:103A500080B10446012000F00BFB00B910BD1AF044
:103A6000DBFA1AF0DAFA22460A490B4B18681DF005
:103A7000D2FFF3E7012000F0FBFA0028EED01AF0A5
:103A8000CBFA1AF0CAFA00220449034B18681DF059
:103A9000C2FFE3E74C7D020854280020787D02082D
:103AA00010B504461AF080FB10B9344B9C4205D087
:103AB00020461AF079FB012808D010BD23F028FD1C
:103AC0002F4B18602F4B01221A70F1E723F020FDD5
:103AD0002C4B00221A702A4B1B68C01AA0F5C33366
:103AE000A13B294A934215D9284B984224D9284B07
:103AF0005B7BA3B1012BE0D10024254901F80D4FD8
:103B000001220420FEF764FE642205212046FFF70F
:103B100035F8D2E71FF04BF9FFF730FECDE7012271
:103B20001B4901F80D2F0420FEF752FE64220521E7
:103B30000020FFF723F8C0E7164B9842BDD8144B7E
:103B40001B7B002BB9D1124B5B7B6BB1012BB4D12A
:103B5000114B01221A70FEF71FFE4FF47A720521F5
:103B60000020FFF70BF8A8E7FFF76EFF0B4B0022D2
:103B70001A700B481AF017FC9FE700BFA8890208CB
:103B800094230020665200209E860100400D030011
:103B90007C230020A086010064520020945800205D
:103BA000F089020830B4084D2978084C24F8210027
:103BB00004EB8104A270003B18BF0123E3700131C4
:103BC000297030BC704700BF675200209823002046
:103BD00038B500231846FF256FF07F0E08E0144823
:103BE00000EB810191F902E010461D460133DBB282
:103BF0000B2B10D819460E4A02EB8302D278002A0A
:103C0000F4D00028EBD00A4C04EB830C9CF9024062
:103C10007445EBDDE3E708B1FF2D03D1054B00222E
:103C20001A7038BD024B33F82500FEF79BFDF5E70F
:103C3000982300206752002008B5024B1B6803B18F
:103C4000984708BD0824002008B5024B5B6803B103
:103C5000984708BD0824002008B5024B9B6803B1B3
:103C6000984708BD0824002008B5024BDB6803B163
:103C7000984708BD0824002008B5024B1B6903B112
:103C8000984708BD0824002008B5024B5B6903B1C2
:103C9000984708BD0824002000B585B0094B186876
:103CA000094B1860094B0A4A13600A4A01920A4AF2
:103CB00012680292039301A91DF09FF905B05DF807
:103CC00004FB00BFFC540020B0320020F054002060
:103CD000AC32002068890208DC26002008B5024BBF
:103CE00018681DF09EF908BDFC54002038B507F097
:103CF00075FC0446064D2B68D3F8B00207F062FC51
:103D000028681DF0A8F9204607F05CFC38BD00BF0C
:103D1000FC54002008B5034823F07AFA024800F06A
:103D2000FFFE08BDC88C02080055002000230620B5
:103D300073B1704754B224B9013353B15DF8044BE9
:103D400070470228F8D008680A4908601046F3E76F
:103D500010B4094A52F823100A7A022AEAD9032A2F
:103D6000EAD1441EE4B2012CE6D908680149086092
:103D70001046E1E7DC2600201455002010B5A2B063
:103D80000DF1680C294C0FCCACE80F0094E80F0043
:103D90008CE80F0000211591169117911891199137
:103DA0004FF480131593224B199310911191129196
:103DB000139114911F4B10931F4B14933C2201A895
:103DC00021F021FF01AC0DF1540CBCE80F000FC431
:103DD000DCF80030236006AC0DF1400CBCE80F00AD
:103DE0000FC4DCF800302360144B0B9320230C939A
:103DF00001238DF834308DF835308DF83630104B86
:103E00000F93104B1AAA01A90F4807F093FC044620
:103E10009DF837303BB100214FF4E1301AF039F909
:103E2000204622B010BD0321F6E700BF88890208B2
:103E30003C00015B010010004400015BE026002013
:103E40002855002000270020BC27002008B531B9E4
:103E5000084B1868036823B108F082F801E00129D3
:103E600000D908BD034B18680368002BF9D01EF079
:103E7000B4F8F6E73C55002008B50349034808F0BC
:103E8000E3F9FFF77BFF08BD40550020E427002041
:103E900008B502481DF005FE08BD00BFBC27002084
:103EA00008B502481DF0FDFD08BD00BFBC2700207D
:103EB00008B5024B5A6A1868904708BDBC27002015
:103EC00008B502481AF069F908BD00BFA8890208C0
:103ED00008B505481AF062FA04481AF05FFA044877
:103EE0001AF05CFA08BD00BFF0890208D889020800
:103EF000C089020818B1034A1060002070472520CD
:103F0000704700BFEC27002010B5044C044920681E
:103F100002F08CFC2068FFF7EDFF10BD80560020FA
:103F20005C550020014B1868704700BFEC2700204B
:103F300008B539BB154B984206D0154B98420DD0A9
:103F4000144B984214D008BD18461AF02CFA1048A9
:103F50001AF02EFA0F481AF02BFAF4E70B481AF071
:103F600027FA0B481AF01FFA0A481AF021FAEAE772
:103F700006481AF01DFA06481AF01AFA05481AF00F
:103F800012FAE0E71AF014FADDE700BFC089020870
:103F9000D8890208F089020800B583B00B460549AC
:103FA000097801910092002201211EF0D1FE03B098
:103FB0005DF804FB9558002030B585B0044685684F
:103FC0002B782F2B09D0254B1B7B002B33D0013BAB
:103FD000DBB2012B38D905B030BD204B1B7B012B48
:103FE000F1D86C46D5F80100D5F80510D5F80920B0
:103FF000D5F80D300FC41A4C224669461948FEF711
:1040000073FB10212046FFF76DF90128E3D1102240
:1040100021460820FEF7DCFB104B1B7B002BDAD17E
:10402000114B1B78002BD6D04FF47A710F4B1868C8
:104030000DF0A7FDCFE7A179284619F0E9FF6379D4
:104040005B42064AD372C6E7A179284619F0E0FF21
:1040500063795B42014AD372BDE700BF7C23002035
:104060006C2300209877020865520020D42300209A
:1040700003460B4A107828B10A4A12789A4202D2B3
:10408000002000E00120084A12783AB1074A12786D
:1040900042FA03F313F0010F00D10020704700BF74
:1040A0009858002097580020695200209658002008
:1040B00008B5084B01221A70074B00221A70074BF3
:1040C00004221A70064B1F221A7007F087FA054B5C
:1040D000186008BD985800206952002097580020A9
:1040E000965800205428002008B5054823F090F881
:1040F00019F021FF012019F099FF00F0B1F808BD77
:10410000C88C020808B5024823F082F808BD00BF39
:10411000C88C02082DE9F04180460F4601F10905DF
:104120000026344604E05B21082000F0C1FA013487
:10413000AC4233D2052C1BD801A353F824F000BFA6
:1041400027410008594100088D41000861410008DD
:104150006541000869410008FBB20433D9B2E3E7C6
:104160008021E1E70021DFE7731C3146DEB2DBE7A7
:10417000BB1DA3420CD0FB1DA3420BD007F10803CB
:10418000A34209D0A31F18F80310CDE7D121CBE734
:104190005A21C9E75A21C7E75D21C5E70020BDE8DC
:1041A000F08100BF00B583B0002300930193FFF7B7
:1041B000B9FE114B186001238DF8003090F83630AD
:1041C00093B100200C4B1B6893F8351002290FD0D7
:1041D00003290FD119F040FF019008216846FFF72D
:1041E00099FF03B05DF804FB00681CF07CFAE9E776
:1041F0000321EFE70021EDE75828002000B583B048
:1042000000220092019202218DF80010054819F059
:1042100028FF019008216846FFF77CFF03B05DF896
:1042200004FB00BF006A180000B583B0044B1B8874
:10423000ADF8043001A800F017FB03B05DF804FBF3
:10424000088A020800B583B0044B1B88ADF804301F
:1042500001A800F0D9FA03B05DF804FB088A02084F
:104260002DE9F04F97B04D4D09AC2E1D0FCE0FC468
:104270003368236001AC05F118060FCE0FC496E831
:104280000F0084E80F00464822F0C2FF454822F0A4
:10429000BFFF01268DF8096000248DF80840424BCD
:1042A0000B9301AB0D93414F09A938461CF02BF934
:1042B000B5F838B0ADF838B0324604210EA800F099
:1042C00067FAB5F83CA0ADF83CA0224631460FA8ED
:1042D00000F05EFAB5F84090ADF840903246042107
:1042E00010A800F055FAB5F80080ADF844803246C9
:1042F000042111A800F04CFA2D4D2E4BC5F8F834CE
:104300004FF00213C5F8F434A3F58033C5F8FC343C
:104310001C23C5F8E4344FF4487008F04DFCFFF757
:1043200083FF142008F048FCFFF78CFF232008F0DF
:1043300043FCFFF779FFB92138461CF0CCF8FFF7B2
:1043400081FFADF848B02246214612A800F020FABD
:10435000ADF84CA02246214613A800F019FAADF89A
:1043600050903246214614A800F012FAADF854805D
:104370003246214615A800F00BFA384603F0A6FD98
:10438000C5F8E444C5F8F844C5F8F444C5F8FC445D
:10439000044822F042FF17B0BDE8F08F088A0208F7
:1043A000C88C0208CC8C0208E070720000000A5031
:1043B00000C003500200030008B50448044A121A62
:1043C0009210044919F078FE08BD00BF8001000872
:1043D00080030008C052002008B5154B83F30A88FB
:1043E00000F030F8FFF7E8FF124A0AE01068516861
:1043F00050F8230041F82300013391688B42F5D334
:104400000C320D4B9A4201D20023F6E70B4A08E02A
:104410001168002041F82300013351688B42F7D323
:104420000832074B9A4201D20023F6E7FDF746FF18
:104430000000002020D102082CD102082CD1020853
:104440002CD1020870B5134B134A9A60D3F8882018
:1044500042F47002C3F88820104A4FF480419166FC
:104460000F4D05F500544FF0FF3222660D4A62668B
:104470000222C3F8D020BFF34F8FBFF36F8F00200D
:1044800007F076F84FF44036E66000201DF06EFA33
:104490002E6170BD00ED00E00000000800900050AB
:1044A000008000447FFF7F01014B1860704700BF10
:1044B0008856002008B5064B1860064B1B6F03F0AA
:1044C0000703032B00D008BD21F024FEFBE700BF4B
:1044D0009056002000800050BFF34F8F0549CA68F6
:1044E00002F4E062044B1343CB60BFF34F8F00BF75
:1044F000FDE700BF00ED00E00400FA05F0B18446DE
:10450000F1B110B409E004F120000FE02033C01A2B
:1045100018D1BCB10CF1010C01319CF800400B4BDF
:104520001B5D03F00303012BEDD020460B78074AF7
:10453000D25C02F00302012AE9D1E7E701207047CB
:10454000012070475DF8044B704700BFE5CF0208BB
:1045500030B587B00546046823798DF80C3063794F
:104560008DF80D301B4822F053FE0022012103A8D4
:1045700000F00EF90DF10B0103A819F0D8FE9DF81B
:104580000B3083F001032370A379022B02D00020AB
:1045900007B030BD4FF0FF330593049300950E4BE9
:1045A000002205A903A800F02FFA059BB3F1FF3FF5
:1045B00007D00095084B012204A903A800F084F954
:1045C000E5E70095044B042204A903A800F07CF958
:1045D000DDE700BFC88C0208B7E1010810B582B062
:1045E000002401942A4822F013FE8DF80040032392
:1045F0008DF8013001220421684600F0C9F8254BEE
:104600000122C3F8442401A9052022F0FAFD002864
:104610003BD1214BD3F8F02042F00102C3F8F02047
:10462000D3F8FC2042F08072C3F8FC20A3F55D4370
:104630001A4A1A60019B03F5D52303F2FC43DB08F9
:10464000174AA2FB03239B0A013B164A136102236C
:10465000C2F8F0304FF48073C2F804334FF0604377
:10466000114AC3F8B02F114AC3F8802ED3F8002E98
:1046700042F48072C3F8002EFF2283F82020D3F882
:10468000002E22F48072C3F8002E02B010BD00BFCD
:10469000C88C020800D0035000ED00E0FF0300408A
:1046A00017916502000004E055CEACC50900010079
:1046B0004FF06043D3F8803E13F0010F01D1112079
:1046C00070470E4AD2F8FC3043F08073C2F8FC30D9
:1046D0004FF06043D3F8002E4FF0010C0CFA00FCB1
:1046E00042EA0C02C3F8002E53F82030002BE8D029
:1046F0004FF0604303F820100020704700ED00E009
:1047000010B504460FE00123834024EA03040F2878
:1047100014D800EB40020E4B03EB82035A6812B12F
:104720009968C0B2904794B1234600201F28EAD868
:1047300013F0010FE7D101305B08F7E7103800EB09
:1047400040039B00B033024A13440433E6E710BD34
:104750005C28002008B50D4822F05AFD1A2006F00A
:10476000CDFE28B91B2006F0C9FE40B9002008BDC7
:104770001A2006F0FDFE1A201DF0F8F8F2E71B20C3
:1047800006F0F6FE1B201DF0F1F8EFE7C88C0208DA
:104790002DE9F04170B30C46174605460F292BD87A
:1047A00003784BB1022B20D0032B21D0012B01D059
:1047B000002303E07F2301E040F2FF736A78D340D7
:1047C00013F0010F1AD00F4BD3F81063C6B922F0C3
:1047D0001AFC80463A462146284604F015F9404620
:1047E00022F00CFC3046BDE8F08140F2FF33E5E7F3
:1047F0003F23E3E72226F5E72126F3E72126F1E729
:104800000226EFE700C0035040B310B5044603781A
:104810004BB1022B1DD0032B1ED0012B01D0002346
:1048200003E07F2301E040F2FF736278D34013F08E
:10483000010F15D022F0E7FB237862780121914027
:1048400003EB43031B01074AD15022F0D7FB0020A2
:1048500010BD40F2FF33E8E73F23E6E72220704730
:104860002120F5E740D0035040B310B5044603784B
:104870004BB1022B1DD0032B1ED0012B01D00023E6
:1048800003E07F2301E040F2FF736278D34013F02E
:10489000010F15D022F0B7FB2378627801219140F7
:1048A00003EB43031B01074AD15022F0A7FB002072
:1048B00010BD40F2FF33E8E73F23E6E722207047D0
:1048C0002120F5E740E00350002866D02DE9F041B3
:1048D0000C4615461F460646002960D002784AB1AC
:1048E000022A3ED0032A3FD0012A01D0002303E050
:1048F0007F2301E040F2FF737178CB4013F0010F8A
:1049000001D1FF2A4DD1022D01D9042D4BD122F026
:104910007AFB80463378FF2B28D12368B3F1FF3F21
:104920002BD02268B2F1FF3F32D0204B02EB420283
:1049300003EB82025760226802EB420203EB820320
:10494000069A9A603378FF2B05D0226801239340A2
:10495000174AC2F82434404622F050FB0020BDE83C
:10496000F08140F2FF33C7E73F23C5E72A462168BD
:10497000304604F0B3F82060CFE73378FF2BD0D176
:104980000C4BD3F8241470781BF0E5FE2060C8E7C8
:10499000404622F033FB2D20E1E722207047222001
:1049A000DDE72120DBE72120D9E700BF5C280020DC
:1049B00000D0035000C00350B0F1FF3F1AD038B50B
:1049C00004460F2818DC002818DB22F01CFB01230A
:1049D000A3400B4AC2F82034C2F82434094B04EB3C
:1049E000440203EB820200255560956022F006FB2D
:1049F000284638BD212070472120FAE72120F8E71A
:104A000000E003505C280020002856D02DE9F0413A
:104A10000C4617461E460546002950D0017849B17C
:104A2000022939D003293AD0012901D0002303E01B
:104A30007F2301E040F2FF736A78D34013F0010F47
:104A400001D1FF293DD122F0DEFA80462B78FF2BE1
:104A500027D12268B2F1FF3F2AD01B4B02EB420262
:104A600003EB8202C2F8B860226802EB420203EB59
:104A70008203069AC3F8BC202B78FF2B06D022684D
:104A8000103201239340114AC2F82434404622F0E8
:104A9000B5FA0020BDE8F08140F2FF33CCE73F23B8
:104AA000CAE73A462168284604F0B8F82060D0E703
:104AB000404622F0A3FA2D20ECE722207047222066
:104AC000E8E72120E6E700BF5C28002000D0035083
:104AD00008B5084BD3F82404D3F82024104000F084
:104AE000553020F0502003F50053C3F82004FFF7A1
:104AF00007FE08BD00C0035008B5084BD3F82404D6
:104B0000D3F82024104000F0AA3020F0A02003F5B4
:104B10000053C3F82004FFF7F3FD08BD00C00350A5
:104B200070B586B005460368B3F1B64F27D0304A5A
:104B3000934222D04FF0FF36B3F1B64F21D02C4A2A
:104B4000934252D12B4822F063FB2B798DF804302D
:104B50006B798DF80530AB798DF80030EB798DF8F5
:104B6000013001220A2101A8FFF712FE01220A21C9
:104B70006846FFF70DFE002412E00126DCE7002660
:104B8000DAE71D48DFE701A8FFF76EFE642008F0B2
:104B900013F801A8FFF738FE642008F00DF801347F
:104BA000092CF0DD154A02EB06110323C1F8383554
:104BB00068792B7943EA0043C1F83C35E979AB7950
:104BC00043EA014354363601935101238DF80830EE
:104BD0008DF80930EB680493AB6803932B7C8DF858
:104BE000143002A9286803F073FC06B070BD00BF42
:104BF00000800650C08C0208C48C020800C003501C
:104C000010B582B004460A4822F002FB23788DF8E2
:104C1000043063788DF80530A278B2FA82F2520936
:104C200004210DEB0100FFF7B3FD002002B010BD21
:104C3000C88C0208F0B585B00C4694469DF8341037
:104C4000664A1278002A00F0BD800546BCF1070FC5
:104C500000F2BA800A9A002A00F0B8800B9A002A63
:104C600000F0B6800E9AB2F5006F00F3B380012811
:104C70005BD05B4A02EB0C12127B002A00F0AC8086
:104C800000220092019202920392564A02EB4C1EBD
:104C9000002C4FD14FEA4C1600209051CEF8040062
:104CA000CEF80800CEF80C009EF8020040F010008C
:104CB0008EF802009EF8030040F030008EF80300EA
:104CC00021B9C1B241F003018EF8031000930E9B8D
:104CD000013B444A4FEA4C1002EB4C11165A63F365
:104CE0000E1616520A9B8B600B9B4B60CB789DF87F
:104CF0003C2062F38303CB70012D36D0109B002B38
:104D000056D0374A4FEA0C1102EB0C131098505052
:104D1000119A5A6000249C605D7372466946604631
:104D200003F04CFC204605B0F0BD0C9A002AA0D13F
:104D30002D48F8E72B4F4FEA4C1607EB4C1200209A
:104D4000B85150609060D060907840F01000907042
:104D5000D07840F00300D0700029B7D107EB4C1297
:104D6000C1B241F03001D170B0E70E460A7B42F08B
:104D700001020A73D2B242F002020A73CA68042125
:104D800061F39F02F26006F1100796E80F0087E8D2
:104D90000F00F2696FF0030161F39F02F2610C9B57
:104DA0007361012CAAD10B9AB2610C9A7260A5E7CB
:104DB000002DA6D10B4B03EB4C139A786FF3041222
:104DC0009A709EE70948AEE70748ACE70648AAE7AD
:104DD0000548A8E70448A6E70548A4E76A5200206A
:104DE000C42A0020C4290020018000F0028000F0C5
:104DF000078000F0134B1B78FBB110B50446F0B1EF
:104E000022F001F90023072B13D80F4A02EB0312FB
:104E1000127B0AB10133F6E723600B4A190102EB5A
:104E2000031301241C730024545022F0E7F8204699
:104E300002E022F0E3F8054810BD05487047054838
:104E4000FAE700BF6A520020C42A0020048000F064
:104E5000028000F0018000F038B522F0D4F804465A
:104E60000023072B06DC0C4A02EB0312127B12B95B
:104E70000133F6E7002222B1204622F0BFF80748AE
:104E800038BD03F047FB0025054B1D70204622F07E
:104E9000B5F82846F4E700BFC42A0020058000F0DA
:104EA0006A5200200F4B1B78BBB110B5044607288F
:104EB00015D822F0A8F80C4B03EB04131B7B1BB98D
:104EC00022F09CF809480BE0074B03EB0413002485
:104ED0001C7322F093F8204602E00548704705480D
:104EE00010BD00BF6A520020C42A0020068000F0D6
:104EF000028000F0018000F000B583B0134B1B6806
:104F0000019300238DF8043022F07DF8104B1B78BC
:104F100033B90F4B01221A7022F070F8002309E018
:104F200022F06CF80B480EE00B4A02EB0312002152
:104F300011730133072BF7DD08238DF8073001A823
:104F400003F00CFB002003B05DF804FB4C8A020860
:104F50006A520020038000F0C42A002010B5104CD3
:104F60002478BCB1072817DC0E4C04EB0014247B1A
:104F7000A4B10C4C4FEA001E04EB001C44F80E30A8
:104F8000029BCCF804300024CCF8084003F016FB58
:104F9000204610BD0448FCE70448FAE70448F8E757
:104FA0006A520020C42A0020028000F0018000F034
:104FB000078000F008B50A4B1B785BB107280BD8B7
:104FC000084B03EB00131B7B43B1002103F0B8FA3D
:104FD000002008BD0448FCE70448FAE70448F8E765
:104FE0006A520020C42A0020028000F0018000F0F4
:104FF000078000F008B50A4B1B785BB107280BD877
:10500000084B03EB00131B7B43B1012103F098FA1B
:10501000002008BD0448FCE70448FAE70448F8E724
:105020006A520020C42A0020028000F0018000F0B3
:10503000078000F0F8B5194B1F6D5B6D1F4002D45F
:105040000125002402E0FEE701346D00072C24D87E
:105050003D42F9D0124B1D652301124AD358002B53
:10506000F2D002EB0416B1680131B16072682046DB
:10507000984780F00100C0B2737B012BE4D1002877
:10508000E2D0094B03EB44131A7B6FF341021A730E
:105090001A7F6FF341021A77D6E7F8BD000004507B
:1050A00000200450C42A0020C42900202DE9F04F1C
:1050B00089B005460E4614469846C36B5B690122CB
:1050C00007A960689847EB6B5B69012206A9304627
:1050D000984707A81AF0D7FB48B10027A77567754E
:1050E0004FF0FF33A360384609B0BDE8F08F0746A4
:1050F00006A81AF0D8FB0123A375237E033304EB23
:10510000C3035E6000221A816368B3422AD0236819
:10511000834201D00023A37506A81AF0E9FB237D82
:10512000984201D00023A37506A81AF0C0FB81465F
:1051300007A81AF0BCFB814501D00023A37506A87F
:105140001AF0BDFB814607A81AF0B9FB814501D0D2
:105150000023A375237D043BDBB2022B0BD8002375
:10516000A375C0E7206006A81AF0C2FB20754FF0B7
:10517000FF33A360EEE706A81AF099FB80B1EB6B52
:105180005B69022204A93046984704A81AF0A2FBE2
:105190000346207D032868D8DFE800F0615B070D37
:1051A00006A81AF097FB0346F3E7237E033304EBCC
:1051B000C303CC221A811AF0ABFB129B187094F82F
:1051C000189006A81AF066FB09F1030904EBC90957
:1051D00089F80A00237E033304EBC303B3F808A065
:1051E00093F80AB006A81AF062FB814606A81AF0E6
:1051F00066FB0390B9F1000F3DD0EB6B5B690222B7
:1052000004A93046984704A81AF020FB6075637D16
:1052100003B9A375A37DA3B1BAF1000F11D0039B0D
:10522000F1186B6C5B4286EA01021A4201D000233E
:10523000A3756B6C5A1E0A409B1A9A4501D900232C
:10524000A375A37D002B40D0BBF1000F18D1E77DE3
:105250003CE0227E033204EBC2021381ABE7227EE4
:10526000033204EBC2021381A5E7227E033204EB72
:10527000C20213819FE706A81AF0D1FA6075C6E74B
:105280000122E275627EBAB9BBF1010F08D095F830
:105290003470DFB9EA6AB2F1FF3F05D01F4615E06E
:1052A00001216176174611E0BBF1030F01D01F46C3
:1052B0000CE00122A27609E0BBF1010F37D0BBF16F
:1052C000030F03D10122A27600E01F4653B117B1AC
:1052D000BBF1010F06D95346039A3146284619F00F
:1052E00015FCA060A37D13B1236953442361237E81
:1052F000114A127893421CD201332376B8F1000F81
:1053000013D0A37D8BB1E37D7BB177B9BBF1030FE4
:105310000BD0A168B1F1FF3F07D0129B009301238E
:1053200022462846FFF7C2FEA075A77DDBE617469A
:10533000CCE70023A375E1E7708A02082DE9F04F5E
:1053400089B005460F4692469B4600238DF80B30E8
:105350004FF0FF31104600F0EFFFB7F5801F1DD36F
:105360000023009317F1020F07D0009B002B40F0A1
:105370009E802B7C002B00F08C80EB6AB3F1FF3F0A
:105380002CD02A689B1A6A6CB3FBF2F917F1020859
:1053900018BF4FF00108002301935DE00DF10A02F0
:1053A000394605F1080000F017FF0146B0F1FF3F54
:1053B00011D0504600F0C0FF0DF10B030122514601
:1053C000284619F022FC00900028CBD09DF80B3025
:1053D0008BF80030C6E700230093C3E7696A2846CC
:1053E00019F0B5FA8146D1E70123019337E09DF822
:1053F0000B308BF80030324B1A683249504620F09F
:1054000029FC00942F4B9968B1F1FF3F1BD06B6CC6
:105410005B4281EA06021A4215D12A4C204600F06E
:105420008BFF0DF10B0342462146284619F0EDFB98
:1054300004460028E6D017F1020FD8D0214B1B6894
:10544000BB42DFD1D3E74946284619F080FA8146AE
:10545000019BCBB9009BBBB96B6A4B45C4D02C6890
:105460006B6C03FB0944EB6B5B69052203A92046C7
:10547000984703A81AF0E3FA1AF008FB20461AF03E
:1054800011FB06460146BFE7009BA3B1B7F5801F9D
:1054900003D3009B8BB100200AE09BF80030DAF8C0
:1054A0000420394605F1080000F0B4FEF1E70020C1
:1054B00009B0BDE8F08F2D20FAE72D20F8E700BFF6
:1054C0006C8A0208B831002070B582B004464FF0F3
:1054D000FF33C3620DF107031A4A6FF00101FFF7B2
:1054E0002DFF20BB174B9B68E362E56A29462046E7
:1054F00019F01EF82063E8B12946204619F0F6FAA3
:105500000546A36AAB421BD02946204619F010F885
:105510000646236B034423632946204619F0E6FA26
:105520000546002EEDD100232363E062E9E7A36A7C
:10553000E362DAE7E16A204619F0D8FAE062DBE7D5
:1055400002B070BDE431002030B583B01C46032AA0
:1055500014BF002201221B7E9A4202D0012003B018
:1055600030BD0D46096823689942F7D363689942B4
:10557000F4D80DF10703114AFFF7E0FE0028EDD142
:105580000E4B5A686B689A42E8D19DF80730032B9E
:1055900014BF00230123227E9342DFD163690133CC
:1055A00063612369E2689342D8D2A268296842F80D
:1055B0002310236901332361D0E700BFE4310020C9
:1055C0002DE9F04182B004460E4690461F46816A9E
:1055D00006E01A4B9968B1F1FF3F1FD0012E23D08E
:1055E000E06A884217D0B1F1FF3F14D0134D28462E
:1055F00000F0A2FE0DF1070301222946204619F012
:1056000004FB0028E5D03B469DF8072029462046AC
:10561000C0470028DDD102B0BDE8F08159682046BE
:1056200019F064FA0146D9E7044B5A68636C5B428F
:105630004A401A42D4D04FF0FF31D1E78C310020DC
:1056400010B50446083000F08DFD0023024A1946CB
:105650002046FFF7B5FF10BDF9EB010838B5044649
:10566000037C0BBB02461349083000F01DFE616A43
:10567000204619F08EF9421C616A204619F0DFF8C5
:10568000054620B9236B626C1344143B2363A16A63
:10569000204619F02BFAA0622368C01A636CB0FB95
:1056A000F3F06062284638BD0023034A0121FFF76A
:1056B00087FFDCE791EF01085FEF0108F0B589B0E3
:1056C00080B30F4616461D46044690F834301BB989
:1056D0000025284609B0F0BD012119F085F8019593
:1056E0000E9B0293039704960023059306939DF85F
:1056F0003C308DF81C30237C5BB901AA0A4904F1C7
:10570000080000F0D1FD5EB9069D204619F00EFBA1
:10571000DFE701AB054A00212046FFF751FFF2E722
:10572000059DF2E70025D4E7ADE7010849550008DB
:10573000F0B58BB004460D46406AE36B5B69052209
:1057400005A92668676C07FB0060984705A81AF052
:1057500076F9012836D00094002301938DF8085083
:10576000039301238DF81030A16AE36A99420FD0A8
:10577000237CBBB96A46144904F1080000F094FD8B
:10578000019B13B99DF810309BB901980BB0F0BD87
:10579000204619F0ABF9E062236B626C9B1A14335C
:1057A0002363EDE76B46094A01212046FFF708FF16
:1057B000E6E7626A2368616C01FB0231E06B1AF074
:1057C000F0F8E2E70020E1E7D55900085559000854
:1057D0002DE9F04F89B004468A4691461D460023C4
:1057E00007930969026BCB1D406C1438B3FBF0F3CF
:1057F000013301EBC301914200F2A7804E4677E0EE
:105800003D2840F092800490BB4605961EE04FF084
:1058100000092368616C01FB0631E06B1AF0ADF8FA
:10582000204618F0EBFF204619F087F92063B9F104
:10583000000F76D0DAF81020D31D616C1439B3FB59
:10584000F1F3013302EBC30290423AD32368ABEB8E
:105850000309606CB9FBF0F909FB00301AF022F97A
:105860008046E16A204619F041F9A36A83422CD0B0
:10587000E062374B9A68616C4B1E1340226B5B1AD7
:1058800013442363ABEB08072368079EF61AB6FBA5
:10589000F1F6B145BBD197B1E36B9B69BA084146BC
:1058A00098478146E36A3B44E362236BA8EB0B080D
:1058B0004344236304F1080000F054FCA9E7B9460F
:1058C000A7E7DDF810B0059E02E0DDF810B0059EF8
:1058D000BBF1000F29D0DAF81000226BC31D616CF8
:1058E0001439B3FBF1F3013300EBC30082421CD344
:1058F000E76ADFF85C803946404600F01DFD07ABE3
:105900000293019500963B4642465146204619F0C7
:1059100038FC834600287FF473AFD8F80830E36280
:10592000D6E7DDF810B0059ED2E75F461FB13846D6
:1059300009B0BDE8F08F2B46054A5268DAF800102E
:1059400004F1080000F066FCF1E71C27EFE700BF58
:10595000B8310020F0B583B01C46032A05D1237A64
:10596000012B33D0012003B0F0BD06460F4615468B
:105970000DF10703164A0968FFF7E0FC6060002894
:10598000EDD19DF80730032BE9D0114B5A687B68A5
:105990009A42E4D1237A012B08D13B69E26813448F
:1059A0007269934202D900232374D8E7E3683A6905
:1059B00013440833E3602B46012239463046FFF793
:1059C00007FF60600028CAD00020CCE7207CCAE72F
:1059D000E4310020F0B583B0089C2668032A05D185
:1059E000237A012B4DD0012003B0F0BD15460DF1F7
:1059F0000703254A3046FFF7A1FC60600028EFD17D
:105A00002168214B5A688B6A486CC0F1000C5A40DF
:105A100012EA0C0FE4D1227A012A19D00F68DB1B9D
:105A2000B3FBF0F3CA6AD21BB2FBF0F29A4219D070
:105A3000E36815490A6913440833E3602B460122E1
:105A40002068FFF7C5FE60600028C9D00020CBE7C2
:105A50000D4A1269E7683A447769BA42DED90023F1
:105A60002374BDE7726CF16A531E0B40316B9B1AB5
:105A70000B4433632668B16A304619F037F8F06298
:105A8000D6E7207CB0E700BFE4310020F8B56E4BCC
:105A90001E6800221A60002800F0B6800D460446F9
:105AA00090F8343013B30A6803689A4240F0AE802D
:105AB0004A6843689A4240F0AC808A6883689A4298
:105AC00040F0A980CA68C3689A4240F0A6800A697B
:105AD00043699A4240F0A3808A69C36B9A4201D01D
:105AE0005D2594E04B698361002590E0876B682217
