:020000040800F2
:1000000000200020A93B0008E9DB0108E9DB01082A
:1000100065250208E9DB0108E9DB0108E9DB0108E5
:10002000E9DB0108E9DB0108E9DB0108E9DB01089C
:10003000E9DB0108E9DB0108E9DB0108E9DB01088C
:10004000E9DB0108E9DB0108E9DB0108E9DB01087C
:1000500089650008E9DB0108E9DB0108E9DB010843
:10006000E9DB0108E9DB0108E9DB01086937000881
:1000700059370008E9DB0108E9DB0108E9DB010881
:10008000E9DB0108E9DB0108E9DB0108E9DB01083C
:10009000E9DB0108E9DB010805480008E9DB0108A4
:1000A000E9DB0108E9DB0108C9420008A1420008B8
:1000B000E9DB0108E9DB0108F9AE0108A5B901088F
:1000C000795602087556020859B101088F56020880
:1000D0007D56020875B901088156020809BA01085F
:1000E00041BA0108E9DB0108E9DB0108C9CA0008D7
:1000F000E9DB0108F1140208E9DB0108E9DB01088A
:10010000E9DB0108E9DB0108E9DB0108E9DB0108BB
:10011000E9DB0108E9DB0108E9DB0108E9DB0108AB
:10012000E9DB0108E9DB0108E9DB0108E9DB01089B
:10013000E9DB0108E9DB0108E9DB0108E9DB01088B
:10014000E9DB0108E9DB0108E9DB0108E9DB01087B
:10015000E9DB0108E9DB0108A9780208E593010859
:10016000E9DB0108E9DB0108135602081956020809
:10018000194A5AB3194BDB6913F0040F29D110B483
:100190000AE003EA00048C4210D0013AB2B1134BDA
:1001A000DB6913F0040F14D110F0010FF1D1104CE2
:1001B0001C40002CEDD06FF001000CE00C4A1A40FE
:1001C0000AB9002007E06FF0010004E06FF00200C0
:1001D00001E04FF0FF305DF8044B70476FF0020014
:1001E00070474FF0FF307047809698000000035032
:1001F000020001000D4BDB6913F4803F12D170B592
:100200000A4B03F580560124F46003F500552C6475
:100210004FF480721A6100212046FFF7B1FF346469
:10022000EC6070BD6FF00100704700BF000003502C
:1002300010B5124B4FF480329A6603F51C33DC691B
:10024000144041F67132DA6303F580520121D16026
:10025000586102221A6100212120FFF791FF40B16D
:10026000074B0122DA601CB1A3F500530022DA63C8
:1002700010BD00212120FFF783FFF1E7009000501F
:100280000020035038B51A4B5861DB6913F0040F96
:100290002AD10C4654F8041B154B9961151F06E032
:1002A000214651F8042B124B9A61043D0C465DB176
:1002B00008210846FFF764FF03460028F0D00C4AE7
:1002C00004211161184638BD094B04221A6100212E
:1002D0002120FFF755FF03460028F3D100212120FC
:1002E000FFF74EFF0346EDE74FF0FF33EAE700BFAD
:1002F000000003502DE9F0410F46164605461A4B03
:100300004FF480329A6603F51C33DA6902F48038C0
:1003100041F67132DA6303F580530122DA6000237B
:1003200002E025442744361B8EB105F5005424F421
:10033000FF5424F01F04641BB44228BF34462246F5
:1003400039462846FFF79EFF03460028E9D0074AB2
:100350000121D160B8F1000F03D0A2F500520021B5
:10036000D1631846BDE8F081009000500020035092
:10037000000000000000000000000000000000007D
:10038000013800D0FCE770472DE9F04F2DED028BCE
:1003900093B082460C4693461D4657EC106B8DED8C
:1003A000080B32463B46304639461CF01DF8002803
:1003B00000F009814FF0FF32B14B304639461CF056
:1003C0003BF8002840F0FF804FF0FF326FF48013BD
:1003D000304639461CF012F8002840F0F480002224
:1003E0000023DDE90867304639461CF007F800288D
:1003F00040F0FC809DED087B8DED067B209B13F487
:100400008063119301D106231E93DDE906010246A4
:10041000C1F30A50C1F31303904643F07F5949F4E6
:100420004019A0F2FF301BF00DFD83A3D3E9002398
:100430001BF072FD82A3D3E900231BF0B7FB064635
:100440000F4600228F4B404649461BF0ADFB7EA372
:10045000D3E900231BF060FD02460B4630463946C7
:100460001BF0A4FB1BF0F2FF06461BF0EBFC8046E2
:10047000894677A3D3E900231BF04EFD0022824B6F
:100480001BF094FB1BF0E2FF074673A3D3E90023A4
:10049000404649461BF040FD8046894638461BF0E1
:1004A000D1FC6FA3D3E900231BF036FD02460B46B7
:1004B000404649461BF078FB8046894602460B467B
:1004C0001BF02AFDCDE90C0107F2FF3700210022C5
:1004D000CDE90A123B050B9300230A9342464B4693
:1004E000404649461BF062FBCDE90E0142464B46B1
:1004F00000204FF080411BF057FB804689460022C8
:10050000624BDDE90C011BF031FE0022604B1BF059
:100510004DFB02460B46DDE90C011BF027FE0022D5
:100520005C4B1BF043FB02460B46DDE90C011BF064
:100530001DFE02460B46404649461BF037FB02466D
:100540000B46DDE90E011BF011FE0022524B1BF0A1
:100550002DFBDDE90A231BF0DFFC8046894649ECD0
:10056000188BDDE906231BF067FF40B1013E002236
:10057000474B404649461BF0F9FD41EC180B06F18C
:100580006303C62B3BD80427209B13F4006F40D095
:1005900035A3D3E90023DDE90689404649461BF02F
:1005A00041FF00283BD032A3D3E90023404649460F
:1005B0001BF024FF002832D01E9BB34221DD9E1B7E
:1005C000731E1E931FE0209B02931F9B01931E9B93
:1005D00000939DED080B2B465A462146504600F0ED
:1005E000CBF813B0BDEC028BBDE8F08F9FED227B02
:1005F0008DED067B069607F100430793FEE605277F
:10060000C2E700231E93209B43F4806320930027BE
:100610003E461F9B9F4241D2A3EB070840E01E9B32
:10062000002BF6D0119B002BF3D01E9B013B1E9399
:10063000EFE700BFAFF30080FB799F501344D33F37
:10064000B3C8608B288AC63F61436F63A787D23FD8
:1006500071A379094F930A401655B5BBB16B02409F
:10066000EF39FAFE422EE63F2D431CEBE2361A3FED
:100670000000000080842E41000000000000000007
:10068000FFFFEF7F0000F83F0000E03F00002C403C
:1006900000002440000018400000F03F4FF0000828
:1006A000209B13F0020902D00FB14FF000083EB1B9
:1006B00053EC182BDDE906011BF058FDCDE90601CE
:1006C00000220023DDE908011BF098FE00283BD141
:1006D000209B23F400630293CDF804801E9B0093BB
:1006E0009DED060B2B465A462146504600F044F835
:1006F000002F3FF476AF209B13F0200F2CD04FF04B
:10070000450C00F101082B46024621466046D047C1
:1007100086EAE672A2EBE67205230593013F049791
:10072000002303930A230293F30F019300922B46B5
:1007300042462146504623F093FBB9F1000F3FF4A7
:1007400050AF02461F9F10E0DDE90601024601F1AD
:100750000043CDE90623BBE74FF0650CD1E7561CFB
:100760002B4621462020D0473246A2EB0B03BB424A
:10077000F5D3104635E700BF2DE9F04F2DED028B84
:1007800093B00590089192469B4659EC108B1E9DA4
:1007900042464B46404649461BF026FE002840D0C4
:1007A0004FF0FF326FF48013404649461BF026FE9F
:1007B000002845D14FF0FF32B14B404649461BF06F
:1007C0003BFE00284BD1AAA3D3E90023404649466B
:1007D0001BF032FE00285AD1A7A3D3E900234046DC
:1007E00049461BF00BFE002851D100220023404651
:1007F00049461BF003FE002857D100230993209B94
:1008000013F4806F5CD000241F2C5BD8092D59D9BC
:1008100004F148036B44302203F8202C013D0134DD
:10082000F2E7209B03931F9B029303230193954BB5
:1008300000935B4652460899059823F037FA10E179
:10084000209B03931F9B0293042301938E4B0093E1
:100850005B4652460899059823F028FA01E1209B4F
:1008600013F004030FD0894A7BB10423209903912C
:100870001F990291019300925B4652460899059890
:1008800023F014FAEDE0824AEEE70323EEE7209B23
:1008900002931F9B0193009549EC108B5B465246D7
:1008A00008990598FFF770FDDBE042464B460020B3
:1008B00000211BF079F980468946012309939EE7C0
:1008C0000625A0E7404649461BF0C0FD06461BF042
:1008D000B9FA02460B46404649461BF065F96D4B96
:1008E00003EBC50393ED008B53EC182B1BF014FBAB
:1008F00002460B46CDE906231BF0D0FD07461BF050
:1009000091FA02460B46DDE906011BF04DF902465D
:100910000B46CDE9062300225F4B1BF08DFD50B343
:10092000013738461BF07EFA02460B4651EC180B95
:100930001BF06EFD08B10136002755BB30461BF099
:1009400081FA02460B46404649461BF02DF9804687
:1009500089460022504B1BF051FD38B100224E4B0E
:10096000404649461BF068FD002842D016F0010FB2
:100970003FD001363DE00022474BDDE906011BF088
:100980003DFD0028D9D117B117F0010FD5D001379F
:10099000D3E71F2C17D8013D404BA3FB0723DB08EF
:1009A000194603EB8303A7EB4303621C303304F1C6
:1009B00048000DEB000404F8203C092F02D90F4633
:1009C0001446E6E714461F2C0AD86B1E45B104F105
:1009D00048026A44302102F8201C1D460134F2E727
:1009E0001F2C06D804F148036B442E2203F8202C58
:1009F00001341F2C17D82A4A82FB0632F317C3EBA7
:100A0000A2031A4603EB8303A6EB4303611C3033B6
:100A100004F148000DEB000404F8203C16460AB12E
:100A20000C46E6E70C46209B03F00303012B39D06C
:100A30001F2C09D8099B002B51D004F148036B44AB
:100A40002D2203F8202C0134209B03931F9B02933B
:100A500001940AAB00935B4652460899059823F02F
:100A600025F913B0BDEC028BBDE8F08FAFF3008029
:100A70000000000065CDCD410000000065CDCDC176
:100A8000FFFFEF7F109402081494020804940208F8
:100A90000C940208209402080000E03FCDCCCCCC9E
:100AA000676666661F9BB3B1099B1BB9209B13F059
:100AB0000C0F12D01F9B013B1F93194606E004F157
:100AC00048036B44302203F8202C01348C42AFD20F
:100AD0001F2CF4D9ACE71F99F8E71F99F6E7209B84
:100AE00013F0040F07D004F148036B442B2203F8E2
:100AF000202C0134A8E7209B13F0080FA4D004F1A8
:100B000048036B44202203F8202C01349CE700BFEB
:100B100038B50D46044626F0F6FB064A13889BB20C
:100B20002DB123431380BDE8384026F0E7BB23EA0C
:100B30000403F7E7E04B00200022034B01214FF4B0
:100B400080709A70E4E700BFE04B00207FB54E68EC
:100B500002A9044624F01EF89DF808300C2B19D188
:100B6000134BB3F90050134B9E4218D807F072FE96
:100B700003460068694600909B882046ADF8043023
:100B800023F0F5FF70B140F25F620B490B480DF0A6
:100B90000BFFFEE7204613F009FD0546E3E71FF0D3
:100BA00013FCE5E72946204623F0C7FF04B070BDDB
:100BB000B4510020FFC99A3BC996020894940208D8
:100BC000002330B5134C85B0CDE90133039323786E
:100BD0008DF8043026F097FBA288E38805469A42F8
:100BE0000DD0E188A06801AAA18023F05CFE58B175
:100BF00040F2DA62084909480DF0D6FEFEE7A06827
:100C000023F02AFE0128ECD0284626F077FB05B019
:100C100030BD00BF18570020C996020894940208FE
:100C200038B50F4C656835B940F2C7720D490E48AA
:100C30000DF0BAFEFEE723F0E8F9284410F004FEB8
:100C400000F00700032809D164680921204623F039
:100C5000F8FA205C031F5842584138BD0020FCE7D9
:100C6000E04B0020C99602089494020808B5114B85
:100C70009A78042A06D040F28E520F490F480DF0A0
:100C800093FEFEE71B881B0706D440F28F520A49E9
:100C90000A480DF089FEFEE700210820FFF738FF23
:100CA0000222074B98681A7313F03AFABDE808401D
:100CB00021F0B3BDE04B0020C996020894940208CD
:100CC0001857002010B5084CA06813F029FAA06846
:100CD00023F0C2FD012806D00122A0681146BDE81C
:100CE000104023F0BBBD10BD1857002038B5194D7A
:100CF000AB7833B140F22B72174918480DF054FE0F
:100D0000FEE726F000FB2988044611F0060109D011
:100D100001214FF48070FFF7FBFE2046BDE838400C
:100D200026F0ECBA4FF48070FFF7F2FE12F04AFBA7
:100D3000012805D010F0FD0F05D1FFF741FFECE7CA
:100D4000FFF7C0FFE9E740F24172034903480DF0A5
:100D50002BFEFEE7E04B0020C9960208949402089F
:100D600070B50446064D95F90860FFF7BFFF12F015
:100D700027FA314620466A68BDE8704012F058B83C
:100D8000E04B002008B50A4B1B88DB0606D440F276
:100D9000A752084908480DF007FEFEE70021102081
:100DA000FFF7B6FE12F08AFBBDE8084021F035BD22
:100DB000E04B0020C9960208949402080D4B10B530
:100DC0001B8804469B0713D500210220FFF7A0FED5
:100DD000094B5A7BFF2A06D040F2E54207490848F2
:100DE0000DF0E2FDFEE75C73BDE8104021F015BD9B
:100DF00010BD00BFE04B002018570020C996020824
:100E0000949402087047704707B5ADF80610014684
:100E100030B94FF4B572104910480DF0C5FDFEE72A
:100E2000BDF8063033B940F26B120B490B480DF098
:100E3000BBFDFEE70A4B0DF10602986823F061FF47
:100E400030B140F26D12044904480DF0ADFDFEE7EB
:100E500003B05DF804FB00BFC99602089494020831
:100E60001857002010B50E4CA37833B14FF4EA7236
:100E70000C490D480DF098FDFEE7606019B1A17BAB
:100E8000003918BF01212020FFF742FE074B084818
:100E90009B7B23760223A370BDE8104010F0A0BB1B
:100EA000E04B0020C99602089494020818570020CD
:100EB000FC4B002008B50CF0A5F880F00100C0B292
:100EC00008BD0A4B9A780AB1062A0CD11B8803F494
:100ED0008B7343B9064B5A7BFF2A04D1187BFF382A
:100EE00018BF012070470120704700BFE04B002071
:100EF0001857002008B50CF075F80028FBD108BD84
:100F00000C4B42889A8142789A730278DA7382880D
:100F10001A82C2885A82C2685A61017A064A91735B
:100F2000028A998C914204D001214FF400709A8476
:100F3000EEE57047E04B002018570020094B9A89D6
:100F400042809A7B4270DA7B02701A8A82805A8AC7
:100F5000C2805A699B8CC260034A0382927B0272F0
:100F6000704700BFE04B0020185700204B1E012B9C
:100F700070B50C4606D940F2B7221A491A480DF04E
:100F800013FDFEE7194D0A460146A86823F0E3FE6B
:100F900030B140F2B922134913480DF005FDFEE7C8
:100FA000AE6810F091FA22460146304623F0CDFE9D
:100FB00030B140F2BD220B490B480DF0F5FCFEE7C5
:100FC000AD6810F08DFA22460146284623F0C9FE8E
:100FD00030B140F2C122034903480DF0E5FCFEE7C1
:100FE00070BD00BFC99602089494020818570020EB
:100FF000054BDB7B1B0913F00E0003D0052B8CBFC8
:1010000000200120704700BF18570020044BDB7BF5
:101010001B0913F00E0F0CBF01200020704700BF0A
:10102000185700202DE9F04F15469A0580461F46B7
:101030008FB003D501218020FFF76AFDEB014FF04F
:10104000000955D5984C23889E0751D5974E737B40
:10105000FF2B06D040F2AF42954996480DF0A4FC14
:10106000FEE7636833B94FF49662914991480DF0F9
:101070009BFCFEE749460220FFF74AFDA37886F86D
:101080000D90042B03D101210820FFF741FD00231F
:10109000B06808A98DF82C3023F07EFD30B140F205
:1010A000BA42834983480DF07FFCFEE7FFF7A0FFBB
:1010B000B0B922F0AAFF8146606822F0B1FF08A90A
:1010C0008144B068ADF8249023F069FD30B140F25E
:1010D000C242774977480DF067FCFEE7089BA362A0
:1010E000A378032B02D1B06813F01AF821F095FB16
:1010F000B80702D50120FFF761FE15F0A84F02D016
:101100000220FFF75BFEA90220D50021402003AC9E
:10111000FFF7FEFC2146404623F03BFEB0B99DF8A8
:10112000143008AA022B22D18DF82830BDF80C30DB
:10113000ADF82030104612F04DF838B1404623F09B
:1011400026FE18B901214020FFF7E2FC2A0753D5FB
:10115000564E0321B06803AA23F0D5FD814688B915
:1011600040F2FE42524953480DF01EFCFEE7032BAD
:1011700005BF8DF82830D4E900018DF82800C2E9B8
:101180000001D7E79DF80C30B068072B40F01F81B5
:10119000494608AA23F0B9FD30B140F20152444952
:1011A00044480DF001FCFEE7FFF722FFBDF80E20DA
:1011B000A0B9FFF72BFF78B1043292B2B06808A94A
:1011C000ADF8242023F0A3FD40B140F2125238497B
:1011D00038480DF0E9FBFEE70232EEE7BDF80E00FD
:1011E0000121073080B225F0BFFF8246002842D19E
:1011F00001210C2012F028FFA90705D52A4B1B88D6
:101200001A0701D5FFF732FDAB010BD500210420F1
:10121000FFF77EFC244B9B78012B03D1234B98686E
:1012200012F07EFF15F0284F03D000210420FFF7B5
:101230006FFC7E060CD51C4C23881D0701D5FFF7DB
:1012400015FD2388580703D500210420FFF760FC13
:10125000F90540F1D88003A9404608AA23F0FAFA1C
:101260000146002800F0BA8040F2D25210491148DD
:101270000DF09AFBFEE74FF0000B25F0F9FECDF8DC
:1012800000B00246BDF80E3004464946B06823F06F
:1012900042FDBDF80E3083420ED040F22252044986
:1012A00004480DF081FBFEE7E04B002018570020BA
:1012B000C99602089494020822F0A7FE204410F078
:1012C000C3FA00F007000228DFF8589124D199F8FA
:1012D0000230042B90D122F098FE504B20448278AB
:1012E0001B789A4288D159460820FFF711FC22F05A
:1012F0008CFE204410F0A8FA9DF82E30C0F30010A8
:10130000307389F80830FFF78BFC00287FF474AF46
:10131000B06812F005FF6FE722F077FE204410F06E
:1013200093FA83064AD522F070FE204410F08CFA1E
:1013300000F0070003280BD10921204622F081FF8D
:1013400014F800B0ABF1040CDCF1000B4BEB0C0B10
:1013500001210420FFF7DCFBB06823F0EFFCC9F8A3
:101360002C00BBF1000F30D0B9F8003058062CD556
:1013700000214020FFF7CCFB0126BDF80E309DF880
:101380002E200120E254BDF80E309DF82F2023447A
:101390009A71BDF80E10089A0131214410F062FADA
:1013A000BDF80E3050461C44667125F035FF1C4BCD
:1013B000187810F01BFA21F030FA1DE799F8023086
:1013C000012B02D1B06812F0ABFE0026D5E723F066
:1013D0007EFC4946B06823F09CFC0DE79DF80C307C
:1013E00003F0BF02032A01D0022B0FD10D4C23883A
:1013F0005A0702D50420FFF78BFB23889B0702D5F1
:101400000120FFF7DBFC0FB0BDE8F08F4FF4BF62A7
:10141000054906480DF0C8FAFEE700BF4D4C002014
:10142000704B0020E04B0020C996020894940208FB
:1014300008B50246FFF7DCFD30B1072A06D80020C8
:10144000034B83F8302008BD7020FCE70220FAE748
:10145000E04B002008B50246FFF7CAFD28B1002086
:10146000034B93F83030137008BD7020FCE700BFC9
:10147000E04B002008B5074B01460022986823F096
:101480006AFC30B140F2EB22034904480DF08CFABB
:10149000FEE708BD18570020C99602089494020878
:1014A00008B5074B01460022986823F04EFC30B186
:1014B00040F2F122034904480DF076FAFEE708BD38
:1014C00018570020C99602089494020808B5074BE3
:1014D0000146986823F04BFC30B140F2F7220449F2
:1014E00004480DF061FAFEE708BD00BF1857002060
:1014F000C99602089494020808B5074B9B7833B14B
:1015000040F20132054906480DF04EFAFEE7BDE80B
:101510000840FFF7EBBB00BFE04B0020C996020874
:101520009494020808B5054B0146986823F005FB22
:10153000002814BF8B20002008BD00BF18570020D2
:10154000014B986813F032B818570020014BD88827
:10155000704700BF185700207FB50123ADF80E304B
:101560004FF6FE7309480093806800230DF10E02C8
:1015700004A923F06FFA212800D020B9BDF810008B
:1015800007B05DF804FB4FF6FF70F9E7185700202D
:1015900008B5044B0146986823F010FAB0FA80F0C1
:1015A000400908BD1857002038B50B4D0446AB78EC
:1015B000012B0DD8FFF7ECFF60B1084BDC80AB7856
:1015C0001BB9FFF793FB002038BDFFF7F9FAFAE7E4
:1015D0003E20F9E78A20F7E7E04B0020185700206B
:1015E000024B9B780BB9FFF781BB7047E04B0020A3
:1015F000014BD873704700BFE04B002008B5064B85
:101600004FF0FF31986823F052F90028B8BF03303B
:1016100040F3870008BD00BF1857002008B5044BF1
:10162000986823F0C7F9034BB3FBF0F080B208BD14
:101630001857002040420F0030B58DB02C220446D0
:10164000002101A824F0B0F801234FF002328DF8F8
:1016500008306423CDE9032306930B238DF82C3047
:10166000214B9B8CADF80A30FFF7C2FCA8B140F2C9
:10167000F23307934FF47A7305930CB9FFF722FB0B
:101680001A4D01A9A86813F065F8C0B140F2AC6228
:10169000174918480DF088F9FEE7FFF7BFFF0C2344
:1016A0004343902B0793A3F10A02D8BF91230592DD
:1016B000D8BF0793059B8B2BDFD88C23DCE7FFF784
:1016C000A5FC60B10122A868114623F05EFB30B191
:1016D00040F2AF62064907480DF066F9FEE70CB923
:1016E000FFF704FB0DB030BDE04B00201857002081
:1016F000C996020894940208F8B525F004FE554CEA
:1017000006462388D90503D5A37843BBFFF7EEFA35
:10171000514D6B7BFF2B13D06B7B03F0FF0723BB7B
:10172000FF236B73A378032B0AD100233046A370E9
:1017300025F0E4FD3846FFF713FB25F0E4FD0646EF
:10174000A378042B08D12B7BFF2B05D02B7B022BFE
:1017500014D142480FF044FFFF232B7327E00021F0
:101760004FF48070FFF7D4F9D2E76B7B012B4FF079
:10177000FF0314BF89278D276B73D6E72B7B13B12B
:101780002B7B012B1ED1FFF74BFA0022FF212B7B75
:101790000746DBB222772973002847D0012B0AD1F4
:1017A00064212E48A3700FF026FFFFF709FA304698
:1017B00025F0A4FD06E03046A27025F09FFD312003
:1017C000FFF7CEFA23881A0608D500218020FFF7FC
:1017D0009FF9A86823F01CFA11F051FE23889B059D
:1017E00007D54FF400700021FFF792F90020FFF7B2
:1017F00023FF0BF0F7FB608620B325F039FC0121B5
:101800000546002012F020FCA678012E14D10026F7
:101810002677A670FFF76AFA284611F02BFAA3780C
:1018200066867BB9BDE8F84011F0CABCA0703046AE
:1018300025F064FD3846C3E72EB1284611F01AFAA8
:1018400000236386F8BDFFF751FA284611F012FA1B
:101850006686F7E7E04B002018570020FC4B00207D
:101860008B4BF0B51B888B4C8B4D63848B4B85B0B9
:101870001B68E3628A4B1B8823848A4B1B68A36224
:101880002B88DB0700F1FC8001210846FFF740F9B7
:101890000523854A04F1100104F10800AB7012F031
:1018A00001FC28B1F522814981480DF07DF8FEE761
:1018B000A3682BB9F7227D497D480DF075F8FEE746
:1018C0007C4823F00FF870A3D3E90023CDE900236F
:1018D0004FF0FF324FF0FF33A06823F0B2F84FF41F
:1018E0008811A06812F0DAFE014630B140F20F1202
:1018F0006E496F480DF058F8FEE76F4B1B78012BCF
:101900000ED16E4AA06812F09BFCA06812F050FF46
:10191000E0B140F21B12654965480DF045F8FEE75D
:10192000674E316831B94FF48F72604960480DF0ED
:101930003BF8FEE7614AA06812F082FC33689B68BE
:1019400023B1DB6913B15B7803B1E373FFF704FEE6
:101950000146E080A06812F0EFFD064630B140F28B
:101960002D12524952480DF01FF8FEE7554B012049
:101970001B78C3EB431203EB8203DB00AB84FFF75E
:101980005BFEA7680FF0ACFD32460146384623F0F7
:10199000E8F9064630B140F23312444944480DF0AC
:1019A00003F8FEE740F203530427AB81464BAF73C5
:1019B0001B78EB73FFF732FE00EB80039B002B825A
:1019C000FFF72CFEC00068823946A0686E6122F0E5
:1019D000E0FF30B14FF4A172344935480CF0E4FF18
:1019E000FEE73A46A06803A923F066F8042806D06B
:1019F0004FF4A3722D492E480CF0D6FFFEE703A941
:101A000001200FF03DFF0BF073F808224FF0FF317B
:101A1000A06823F027F830B140F24F122349244840
:101A20000CF0C2FFFEE713F043F830B140F255125C
:101A30001E491F480CF0B8FFFEE7FFF7D9FA68B15E
:101A40001EF0C4FC0146A06823F091F830B140F2CA
:101A50005912164916480CF0A7FFFEE7A468FFF7D5
:101A60007BFD1A4B014603F10C02204622F01DFFBC
:101A700030B14FF4B0720D490D480CF095FFFEE700
:101A800005B0F0BDAFF300800A0020FF4203000064
:101A9000C099020818570020E04B0020C4990208A2
:101AA000C2990208C8990208390B0008C9960208B1
:101AB00094940208690345EC314C00204D0B00085A
:101AC00000550020BC580020BB580020F4960208A6
:101AD00008B5044B986822F06FFF034BB3FBF0F09E
:101AE00080B208BD1857002040420F002DE9F04396
:101AF0008C4D87B02B889B0706D440F24C728A49E4
:101B00008A480CF051FFFEE7AB78033B012B06D966
:101B100040F24E72844985480CF046FFFEE76A6841
:101B200032B940F25172804980480CF03DFFFEE727
:101B30007F4E2C88F77B14F0200418BF4FF47A7482
:101B40004FEA1718FFF754FA00287DD0B8F1020FBA
:101B50000AD0A8F10303022B74D940F265727249CE
:101B600072480CF021FFFEE7032795F8303008EBB0
:101B7000C80898446F4B104603EB4803B3F81C8029
:101B800022F04EFA4FF4FA534343B3FBF8F37822B2
:101B90007733B3FBF2F31F44C7EB0717AB78FF00B3
:101BA000BFB204F5347417FA84F4042BA4B203D141
:101BB00007F6E8072744BCB2D5F8048022F025FADE
:101BC0000746686822F02CFA074422F044FABFB2B4
:101BD0003F1A22F01AFA40440FF036FE7378C0F331
:101BE00040198DF80C30544BBFB2CDE904340024B9
:101BF00022F03DFA009402463B464146B06823F08D
:101C000068F8287EB278737812FB00F29342C4BF62
:101C10009B1ADCB22B88F18813F0200FB068B180DA
:101C20008DF80C4003AB76D000934A46434B22F02C
:101C300031FE002873D040F224723B493B480CF03F
:101C4000B3FEFEE7062790E7FFF7E0F9002846D04D
:101C5000384B07F00F0708EBC801394403EB410389
:101C60001046B3F81C9022F0DBF9B8F1000F2CD02D
:101C7000B8F1010F2CD14FF00408400080B2F319E5
:101C800093F834304BB14FF4FA52023303444344D7
:101C90009BB25343B3FBF9F39CB2AB78042B8BD1CB
:101CA000FFF7BCFC374497F834308146053398443D
:101CB000FFF70EFF0C2308FB00F003FB09F909EB0B
:101CC000C009A1441FFA89F476E74FF00208D6E76D
:101CD00040F28672144915480CF066FEFEE7FFF7E5
:101CE000F7FE0746686822F09BF909307843AB7825
:101CF00004EBC000042B84B27FF45EAFFFF78EFCD0
:101D00000746FFF7E5FE602358430C2303FB07005B
:101D1000204484B250E74A4622F0BAFD89E707B072
:101D2000BDE8F083E04B0020C996020894940208B5
:101D300018570020F496020820A10700EC4B002061
:101D4000F8B5494C258815F0020506D040F2751209
:101D5000464947480CF028FEFEE7257725F0D3FAE0
:101D6000238806465A070CD5424B986822F0E6FFB6
:101D7000E36AC01AA38C984203D929460420FEF7CF
:101D8000C7FE304625F0BAFAA778022F37D125F0E2
:101D9000BAFA2388064613F0040507D036480FF038
:101DA0001FFC3046BDE8F84025F0A8BA25F0A6FA99
:101DB000606811F03FFA20B1A570BDE8F840FEF769
:101DC000CFBF25F0A0FA6668054622F01EF9304420
:101DD0000FF03AFD10F0200F0CBF03230423012164
:101DE0003846A370FEF794FEFFF780FE284625F0E4
:101DF00085FA01210846BDE8F84012F025B9042F04
:101E000027D11C4B1B7BFF2B2DD1237EF3B125F05B
:101E10007AFA238805465B0704D517480FF0E0FBE4
:101E20002846BFE725F06AFA237E013B237625F09A
:101E30006AFA044601210220FEF76AFEFFF756FE09
:101E4000204625F05BFA01210820D4E74020A3704A
:101E5000B3E7012F07D10023A370064B986812F057
:101E60005FF93120A9E7F8BDE04B0020C9960208D0
:101E70009494020818570020FC4B002038B501212B
:101E800004461020FEF744FE064B9D68FFF7C6FB94
:101E9000012200FB04F1044B284622F0E4FC002060
:101EA00038BD00BF18570020850D000808B50A4B43
:101EB0001B88DB0606D44FF46172084908480CF011
:101EC00073FDFEE710200021FEF722FE054B986807
:101ED000BDE8084022F0D5BCE04B0020C9960208BE
:101EE000949402081857002038B50E4D688E30B90A
:101EF00040F291320C490D480CF056FDFEE725F0FA
:101F0000B7F80446688E25F0D1F8811F21440120DE
:101F10000FF0B6FC064B0446986822F00FFF001B3A
:101F200038BD00BFE04B0020C99602089494020817
:101F30001857002010B5084C636833B94FF4687225
:101F4000064907480CF030FDFEE7064B986822F082
:101F5000F5FEA36AC01A10BDE04B0020C996020826
:101F6000949402081857002038B50A4D688E30B98D
:101F700040F2AA32084909480CF016FDFEE725F0A8
:101F800077F80446688E25F091F8044414F8020CA2
:101F900038BD00BFE04B0020C996020894940208A7
:101FA00038B50A4D688E30B940F2B932084909484F
:101FB0000CF0FAFCFEE725F05BF80446688E25F08D
:101FC00075F8044414F9070C38BD00BFE04B00203D
:101FD000C99602089494020838B50A4D688E30B943
:101FE0004FF47272084909480CF0DEFCFEE725F058
:101FF0003FF80446688E25F059F8044414F9010CA2
:1020000038BD00BFE04B0020C99602089494020836
:10201000024B1888C0F3C010704700BFE04B00208F
:1020200030B585B005466C460D4B0FCB84E80F00EC
:102030000DB12B6800930B4B21460022986812F0DB
:10204000CBFA044630B140F2E632074907480CF0BB
:10205000ABFCFEE7FEF7B4FD204605B030BD00BF87
:102060007C97020818570020C99602089494020829
:1020700030B5154D87B004460DF10701A86822F070
:10208000E2FC30B140F2F732104911480CF08CFC00
:10209000FEE79DF80720531EDBB2FD2B0FD90294FB
:1020A000FF2A00D10394A86802A922F0B4FD40B130
:1020B00040F20442054906480CF076FCFEE7012A8E
:1020C000EFE707B030BD00BF18570020C9960208DF
:1020D0009494020808B5064B986822F0ABFD30B125
:1020E0004FF48262034904480CF05EFCFEE708BD31
:1020F00018570020C9960208949402080122024B46
:102100001146986822F0AABB185700207047F8B50E
:10211000064604200D4621F05AFF030622D5124F31
:10212000BC78FCB926B1012E17D002242046F8BD98
:1021300001262846FFF72CFA0028F6D00B4800238A
:1021400032462946806822F0A7FB40B14FF48A62EC
:10215000074908480CF028FCFEE72646E9E7062375
:10216000BB70E3E77024E1E7E04B00201857002044
:10217000C996020894940208042010B521F027FFA4
:10218000030611D5094CA378062B0DD1084B98688E
:1021900022F084FB30B140F26A42064906480CF056
:1021A00003FCFEE7A07010BD7020FCE7E04B0020B0
:1021B00018570020C9960208949402081FB50446D7
:1021C00001A812F0D1F99DF80D3053B14CB1064B76
:1021D0002078617818700020A27859709A7004B045
:1021E00010BD0220FBE700BF185700201FB50446B2
:1021F00001A812F0B9F99DF80D3053B14CB100208F
:10220000054B1A7822705A789B786270A37004B0DC
:1022100010BD0220FBE700BF18570020FFF7CEBF1C
:10222000FFF7E4BF0348044B834202D0034B03B1E2
:1022300018477047D4580020D458002000000000F0
:10224000064B0749C91A891048BF0131491003D00C
:10225000044B0BB101481847704700BFD458002009
:10226000D45800200000000010B5064C237843B974
:10227000FFF7D8FF044B13B10448AFF300800123EC
:10228000237010BD6E5200200000000068D30208C9
:1022900008B5054B1BB105490548AFF30080BDE803
:1022A0000840FFF7CDBF00BF00000000A0220020C3
:1022B00068D30208A3F5803A704700BF174B002B84
:1022C00008BF134B9D46FFF7F5FF00218B460F46D5
:1022D0001348144A121A23F067FA0E4B002B00D051
:1022E00098470D4B002B00D0984700200021040098
:1022F0000D000D48002802D00C48AFF300801AF002
:1023000005FE200029001BF074FB1AF095FA00BFAF
:102310000000080000000000000000000020002075
:1023200000200020E052002000000000000000001B
:1023300010B50A4B01220A490A48006803F046FF1B
:1023400004F086F8084C094920460AF0A7FA4FF431
:10235000FA7120680FF04FF910BD00BF2925000861
:10236000EC2200209C560020B822002051250008B5
:10237000024B93F82E300370704700BFBC22002040
:1023800010B55F4B93F85930042B0ED8DFE803F0FB
:1023900003132231420003787E2B07D0594B0122D0
:1023A00059495A48006803F011FF10BD544B0122EF
:1023B00083F85920F2E70378514981F8313002233C
:1023C00081F859304F4B012230315048006803F0FA
:1023D000FDFEEAE703784A4981F83230032381F8A9
:1023E0005930484B012230314848006803F0EEFE76
:1023F000DBE70378424981F83330042381F8593010
:1024000091F831203F4B043A34314048006803F0E2
:10241000DDFECAE73A4C002384F85930621C94F878
:10242000311004F131001BF0B7F9207020B9E378C6
:10243000482B09D0432B5DD0324B0122324933481F
:10244000006803F0C3FEB0E7637A84F82E30013BE6
:10245000042BF1D8DFE803F0031221303F00032002
:1024600001F0EEF90028E7D01BF052FB1BF051FB06
:102470002749284B18681FF0A6F8DDE7032001F074
:10248000DFF90028D8D01BF043FB1BF042FB2249A8
:10249000204B18681FF097F8CEE7032001F0D0F921
:1024A0000028C9D01BF034FB1BF033FB1B49194B30
:1024B00018681FF088F8BFE7032001F0C1F9002871
:1024C000BAD01BF025FB1BF024FB1549114B1868F3
:1024D0001FF079F8B0E7032001F0B2F90028ABD083
:1024E0001BF016FB1BF015FB0E490A4B18681FF07A
:1024F0006AF8A1E7024B1A7983F82F209CE700BF06
:10250000BC22002029250008EC2200209C56002037
:10251000287A0208E8270020307A0208387A020870
:10252000407A02084C7A020808B50248FFF728FFF3
:1025300008BD00BFEC22002008B50A460023014672
:102540000248006803F008FF08BD00BF9C56002049
:1025500008B51BF0AFF94FF4FA71024B18680FF091
:102560004AF808BDB822002010B582B004461BF01E
:10257000BAF908B902B010BD00230093ADF80430D9
:10258000074B1B88ADF80230ADF8044040F2FF1352
:10259000ADF800306946032020F0D2F9EAE700BF29
:1025A000AC51002008B5064B1B7823B1054B1B68C6
:1025B00000221A7008BD0C201BF059F9F6E700BF85
:1025C000502300204C23002010B5032001F038F9DF
:1025D00098B9FFF7ADFE0E490E480AF05FF90E4CB0
:1025E0000E4920460AF05AF94FF4FA6120680FF0BC
:1025F00002F80B48FFF7BCFE10BD1BF089FA1BF078
:1026000088FA0849084B18681EF0DDFFE1E700BFB3
:10261000A52500084C23002048230020852600081B
:102620005E230020587A0208E8270020037823BBA5
:1026300070470133022B22DC03EB4302104911F8EF
:102640002220002AF5D100B50A4603EB430102EB34
:10265000810C4FF0000E8CF801E04FF0010C02F8F5
:1026600021C002EB810301684268C3F80210C3F87D
:10267000062002895A815DF804FB0023DAE77047DF
:102680001823002010B5194C2046FFF771FE204694
:1026900010F80D39827B934206D14FF49671144B9A
:1026A00018680EF0A8FF10BDA4F10D02937303206B
:1026B00001F0C6F880B90F481E2303700E4B9B7BB8
:1026C00043700223437200211BF02EF90028E4D14D
:1026D0000A481BF00BFCE0E71BF01AFA1BF019FA92
:1026E0000749084B18681EF06EFFE4E75D230020E1
:1026F000482300203C23002050230020108C020897
:10270000647A0208E827002008B5044A1BF0F5F8AF
:10271000034B18680EF064FF08BD00BF5023002073
:102720004C23002038B5044620F016F9A04201D809
:10273000012038BD0546032001F082F80028F8D0BA
:102740001BF0E6F91BF0E5F92B4622460349044845
:1027500000681EF038FF0020EBE700BF747A020823
:10276000E827002030B583B004468368C26853F878
:1027700022301D882846FFF7D5FF08B903B030BDC9
:1027800000230093ADF80430164B1B88ADF80230DF
:10279000ADF804506368E2689B1A012B1DDDA36845
:1027A000013253F822301B88ADF8003020F0C4F815
:1027B0006946032020F0C4F80446032001F040F8E5
:1027C0000028DBD01BF0A4F91BF0A3F92246064930
:1027D000064B18681EF0F7FED0E740F2FF13ADF885
:1027E0000030E3E7AE510020AC7A0208E827002071
:1027F00030B583B004468368C26853F822301D8820
:102800002846FFF78FFF08B903B030BD00230093BF
:10281000ADF80430154B1B88ADF80230ADF804500C
:102820006368E2689B1A012B1BDDA368013253F831
:1028300022301B88ADF800306946042020F080F873
:102840000446032000F0FCFF0028DDD01BF060F9F7
:102850001BF05FF922460649064B18681EF0B3FECE
:10286000D2E740F2FF13ADF80030E5E7AE510020AB
:10287000CC7A0208E827002030B583B0044683688C
:10288000C26853F822301D882846FFF74BFF08B96D
:1028900003B030BD00230093ADF80430154B1B8806
:1028A000ADF80230ADF804506368E2689B1A012B62
:1028B0001BDDA368013253F822301B88ADF80030CD
:1028C0006946022020F03CF80446032000F0B8FFDF
:1028D0000028DDD01BF01CF91BF01BF9224606492D
:1028E000064B18681EF06FFED2E740F2FF13ADF8FA
:1028F0000030E5E7AE510020E07A0208E82700202A
:1029000030B583B08368C26853F822301C78002346
:10291000019343689B1A012B19DD01AA01211EF0C6
:102920001AF901469DF8040020F002F8054680B12E
:10293000022000F085FF60B11BF0EAF81BF0E9F817
:102940002A460649064B18681EF03DFE01E01FF0BE
:10295000F3FF20461FF0F8FF03B030BDFC7A0208F9
:10296000E827002010B503468168C26851F82200AC
:10297000B0F900001A4C20805B689B1A012B0FDD18
:10298000013251F8223093F90010003918BF0121AB
:102990001FF083FFA0B9032000F052FF10B910BD53
:1029A0000021F5E71BF0B4F81BF0B3F80D4B1C68E1
:1029B0001FF077FF02460C4920461EF004FEEEE7AA
:1029C000012000F03DFF0028E9D01BF0A1F81BF02A
:1029D000A0F80649034B18681EF0F5FDDFE700BFBD
:1029E000AE510020E8270020607B0208747B0208BB
:1029F00008B51FF046FF032000F022FF00B908BD14
:102A00001BF086F81BF085F80249034B18681EF08E
:102A1000DAFDF4E78C7B0208E827002008B583681C
:102A2000C26853F822301A88094B1A80032000F03C
:102A300007FF00B908BD1BF06BF81BF06AF8044BE8
:102A40001A880449044B18681EF0BDFDF2E700BF68
:102A500038580020AC7B0208E827002008B5024B5C
:102A600018680EF0BDFD08BD682300202DE9F04177
:102A700086B01FF022FF0446894B1B7813F0020F2B
:102A80002CD0884E13F0010F2AD0864F13F0040F7C
:102A900028D0DFF81082032000F0D2FE28BB0320EC
:102AA00000F0CEFE58BB032000F0CAFE002835D14E
:102AB000032000F0C5FE00283ED1032000F0C0FE38
:102AC000002847D1032000F0BBFE00285ED1032080
:102AD00000F0B6FE002867D1002471E0724ED1E705
:102AE000714FD3E7DFF8C081D5E71BF011F81BF079
:102AF00010F86E496E4B18681EF065FDCFE71BF0AD
:102B000007F81BF006F86A4B1D6805F069FA0246E3
:102B10000B46684928461EF056FDC4E71AF0F8FF38
:102B20001AF0F7FF624B1D681FF09FFE02466249D4
:102B300028461EF048FDBBE71AF0EAFF1AF0E9FF4D
:102B40005B4B1D681FF0C5FE02465C4928461EF01F
:102B50003AFDB2E71AF0DCFF1AF0DBFFE279A37965
:102B600061792079E57894F802C094F801E024783E
:102B70000594CDF810E0CDF80CC0029501900091BD
:102B80004F494B4800681EF01EFD9BE71AF0C0FF3E
:102B90001AF0BFFF464B1C681FF093FE02464949DE
:102BA00020461EF010FD92E71AF0B2FF1AF0B1FFB6
:102BB00045493F4B18681EF006FD8DE70134E4B22D
:102BC000072C12D8032000F03BFE0028F6D01AF0A4
:102BD0009FFF1AF09EFF364B1D681FF06EFE025DD0
:102BE0003A4928461EF0EFFCE8E7032000F028FEF3
:102BF00098B9032000F024FEC8B9032000F020FE9D
:102C000018BB032000F01CFE68BB032000F018FE78
:102C1000002836D106B0BDE8F0811AF079FF1AF02D
:102C200078FF2B49224B18681EF0CDFCE1E71AF023
:102C30006FFF1AF06EFF1E4B1C681FF046FE024627
:102C4000244920461EF0BFFCD7E71AF061FF1AF0B6
:102C500060FF174B1C681FF01CFE02461E492046F1
:102C60001EF0B1FCCDE71AF053FF1AF052FF104BE3
:102C70001C681FF016FE0246184920461EF0A3FCF1
:102C8000C3E71AF045FF1AF044FFCDF800803B4639
:102C900032461349064800681EF095FCBAE700BFAB
:102CA000AE580020147B02081C7B0208C87B020877
:102CB000E8270020D07B0208EC7B0208087C020891
:102CC000247C0208487C0208647C0208787C0208A4
:102CD00048920208807C02089C7C0208B47C0208AE
:102CE000CC7C020830B583B08368C26853F82230C8
:102CF0001C7801A920461FF0C8FD88B9032000F008
:102D00009FFD08B903B030BD1AF002FF1AF001FFB1
:102D1000019B22460B490C4800681EF054FCF1E769
:102D20000546012000F08CFD0028EBD01AF0F0FEE3
:102D30001AF0EFFE2A460549034B18681EF043FCC3
:102D4000E0E700BF047D0208E8270020207D02089C
:102D500070B58268C36852F823100C88013352F8AA
:102D600023301D78294620461FF0DEFD80B9032060
:102D700000F066FD00B970BD1AF0CAFE1AF0C9FE77
:102D80002B4622460B490C4800681EF01CFCF2E75B
:102D90000646012000F054FD0028ECD01AF0B8FEE1
:102DA0001AF0B7FE32460549034B18681EF00BFCBB
:102DB000E1E700BF447D0208E8270020747D020897
:102DC00070B582B08368C26853F822301B78134A0A
:102DD000137013F0020F0ED0114C13F0010F0CD032
:102DE0000F4D13F0040F0AD00D4E032000F028FD04
:102DF00038B902B070BD0B4CEFE70A4DF1E7094E50
:102E0000F3E71AF085FE1AF084FE00962B46224660
:102E10000549064800681EF0D6FBEAE7AE580020D8
:102E2000147B02081C7B0208287B0208E82700208C
:102E300030B58FB004460D4668461AF094FD0DF18A
:102E4000200EEC46BCE80F00AEE80F009CE8030043
:102E50008EE8030008A9464B186820F073FB10F1B8
:102E6000880F46D168461AF07EFD0DF1200EEC4623
:102E7000BCE80F00AEE80F009CE803008EE80300FA
:102E80004FF41053ADF820308023ADF822304FF4CA
:102E90004073079307A81AF076FD079B0A93354BFA
:102EA0000B93334B1A68099B0D9213F0FF0F04D15B
:102EB00023F0FF0343F001030993012309932C4BF3
:102EC0002A46214608A820F05AFB044610BB0320DE
:102ED00000F0B6FC90B9264B18681FF0CEFC0546F2
:102EE000002831D1032000F0ABFC044610BB0124C4
:102EF0002FE01F4B186820F0FCFAB3E71AF008FE29
:102F00001AF007FE1A4B1A681B491C4B18681EF072
:102F10005AFBE0E7032000F093FC0028DBD01AF016
:102F2000F7FD1AF0F6FD22461549144B18681EF0FD
:102F30004AFBD0E71AF0ECFD1AF0EBFD11490F4BFC
:102F400018681EF040FB04E0032000F079FC044602
:102F500010B920460FB030BD1AF0DAFD1AF0D9FDD5
:102F60002A460949054B18681EF02DFB0024F0E79E
:102F70006023002000014405A47D0208E82700200A
:102F8000D47D0208F87D0208187E020800B583B0DF
:102F90000021019101AA1DF0DEFD019910290ED03A
:102FA000032000F04DFC60B11AF0B2FD1AF0B1FD43
:102FB00010220549054B18681EF005FB01E0FFF7DC
:102FC00037FF03B05DF804FB387E0208E8270020D5
:102FD00010B588B020F0D2FB514A936843F40053F7
:102FE00093605049504809F059FC032000F028FC38
:102FF000F8B901244D4B1C6002A81AF0DBFC02A9B1
:10300000204620F09FFA10F1880F1CD0032000F01A
:1030100017FC00286ED1454B18681FF02EFC1FF0DE
:103020007FFC0446032000F00BFC00286CD108B0A4
:1030300010BD1AF06DFD1AF06CFD3D493D4B18684E
:103040001EF0C1FAD5E7032000F0FAFB002837D1C3
:10305000364B1A68039B079213F0FF0F04D123F03D
:10306000FF0343F001030393334B05934FF4407385
:10307000019301A81AF0AEFC019B04934FF4105386
:10308000ADF808308023ADF80A3001230393274BB5
:1030900010222A4902A820F072FA0446D0B903206F
:1030A00000F0CEFB0028B6D01AF032FD1AF031FD48
:1030B0001E4B1A6822491F4B18681EF084FAAAE7B3
:1030C0001AF026FD1AF025FD1E491A4B18681EF04D
:1030D0007AFABDE7032000F0B3FB00289BD01AF07A
:1030E00017FD1AF016FD22461749124B18681EF0FC
:1030F0006AFA90E71AF00CFD1AF00BFD13490D4B1C
:1031000018681EF060FA86E71AF002FD1AF001FD59
:1031100022460F49074B18681EF055FA87E700BF93
:1031200000C00550C531000868230020602300203E
:10313000607E0208E827002000444004EC54002090
:10314000A47D02086C7E0208D47D0208947E0208E9
:10315000C07E020810B504461AF0BFFD10B9144B2A
:103160009C4205D020461AF0B8FD012808D010BDB9
:1031700024F048FB0F4B18600F4B01221A70F1E747
:1031800024F040FB0C4B00221A700A4B1B68C01A3B
:103190000A4B984208D84CF24F339842E7D8084B74
:1031A00018680EF01DFAE2E71FF0D2FBDFE700BF60
:1031B000F88B0208642300206F520020A0860100D3
:1031C0006823002000B585B01FF053FB60B9FFF7FE
:1031D000CBF9174B1B6800221A70154B1B68002295
:1031E0001A7005B05DF804FB9DF80030032262F30D
:1031F00004038DF800309DF800306FF346138DF80E
:1032000000301C238DF8043002228DF80D209DF82B
:1032100000208DF80520074A9372002101A81AF0BA
:1032200083FB054A137883F001031370D5E700BFD1
:10323000682300205023002070520020014B187892
:10324000704700BF7052002070B506460D4600243E
:103250000FE004EB4402194B03EB82035B780A2B6B
:103260001DD11649900001EB820300220A545A70C6
:103270000134022C21DCAB68197804EB44020F4BBB
:1032800003EB82039B789942F2D1002EE1D10B49E6
:10329000900001EB820300220A545A70E8E7074AC3
:1032A00004EB440C02EB8C00012102F82C100B44BF
:1032B000437002301AF038FBDAE770BD18230020A3
:1032C00010B5A0F19003062B68D8DFE803F0042BBB
:1032D0003A6767495800032000F0B2FA50B903205A
:1032E00000F0AEFA80B9364B1988364B18680EF0EC
:1032F00082F910BD1AF00CFC1AF00BFC3249334B6A
:1033000018681EF060F9EAE71AF002FC1AF001FCF6
:103310002E4B1C681FF0D5FA02462D4920461EF0A0
:1033200052F9E0E7032000F08BFA0028E1D01AF010
:10333000EFFB1AF0EEFB2749244B18681EF043F907
:10334000D7E7012000F07CFA0028D2D01AF0E0FB89
:103350001AF0DFFB20491D4B18681EF034F9C8E74E
:10336000012000F06DFA0028C3D01AF0D1FB1AF04A
:10337000D0FB1A49154B18681EF025F9B9E7032050
:1033800000F05EFA0028B4D01AF0C2FB1AF0C1FBBC
:1033900013490E4B18681EF016F9AAE704460320DD
:1033A00000F04EFA0028A4D01AF0B2FB1AF0B1FBDC
:1033B00022460C49054B18681EF005F999E700BF35
:1033C0003858002068230020D87E0208E827002013
:1033D000E47E02080C7F02081C7F02083C7F020882
:1033E000607F02087C7F020810B524F00BFA0446C7
:1033F000104B1B68C31A104A934202D90F4B1B781B
:1034000053B91FF036FA58B90D4B1B68E31A41F651
:103410007862934208D810BD0A481AF062FDFAE7B4
:1034200008481AF059FDF6E7054B1C6005481AF0EC
:103430005DFDF0E764230020A08601006F520020AC
:10344000FC540020288C020810B580B104460120ED
:1034500000F0F6F900B910BD1AF05AFB1AF059FB4A
:1034600022460A490A4B18681EF0ADF8F3E703201C
:1034700000F0E6F90028EED01AF04AFB1AF049FBFA
:103480000449034B18681EF09EF8E4E7947F020895
:10349000E8270020BC7F0208F0B583B004460D4643
:1034A00016461F46032000F0CBF908B903B0F0BD63
:1034B0001AF02EFB1AF02DFB019700962B462246A0
:1034C0000249034800681EF07EF8EFE7D47F020847
:1034D000E827002008B5024B1B6803B1984708BDD8
:1034E0009C23002008B5024B5B6803B1984708BDD8
:1034F0009C23002008B5024B9B6803B1984708BD88
:103500009C23002008B5024BDB6803B1984708BD37
:103510009C23002008B5024B1B6903B1984708BDE6
:103520009C23002008B5024B5B6903B1984708BD96
:103530009C23002000B585B0094B1868094B186022
:10354000094B0A4A13600A4A01920A4A1268029217
:10355000039301A91DF021FB05B05DF804FB00BF3A
:103560001C5500204432002010550020403200201D
:10357000D88B02087026002008B5024B18681DF091
:1035800020FB08BD1C55002038B507F0A1FC0446FF
:10359000064D2B68D3F8B00207F08EFC28681DF0AA
:1035A0002AFB204607F088FC38BD00BF1C550020D0
:1035B00008B5034823F0ACFF024800F099FE08BDAF
:1035C000148F0208205500200023062073B1704795
:1035D00054B224B9013353B15DF8044B704702284B
:1035E000F8D008680A4908601046F3E710B4094AA1
:1035F00052F823100A7A022AEAD9032AEAD1441E91
:10360000E4B2012CE6D90868014908601046E1E7F8
:10361000702600203455002010B5A2B02024224688
:1036200000211AA822F0C0F8314B1A934FF4E1336D
:103630001C9302238DF8753003238DF876302D4BC3
:103640001E930A238DF87E3009238DF880300021E7
:10365000159116911791189119914FF480131593A4
:10366000254B199310911191129113911491234BA1
:103670001093234B14933C2201A822F095F80DF1EE
:10368000040E0DF1540CBCE80F00AEE80F00DCF89E
:103690000030CEF800300DF1180E0DF1400CBCE8F2
:1036A0000F00AEE80F00DCF80030CEF80030154B0C
:1036B0000B930C9401238DF834308DF835308DF850
:1036C0003630114B0F93114B1AAA01A9104807F07D
:1036D000ABFC04469DF837303BB100214FF4E1309C
:1036E0001AF070FA204622B010BD0321F6E700BFA1
:1036F000388F02081C8F02083C00015B010010009B
:103700004400015B742600204855002094260020C8
:103710005027002008B531B9084B1868036823B159
:1037200008F098F801E0012900D908BD034B18689A
:103730000368002BF9D01EF028FAF6E75C5500204C
:1037400008B50349034808F0F9F9FFF765FF08BD1C
:10375000605500207827002008B502481DF079FF49
:1037600008BD00BF5027002008B502481DF071FFBA
:1037700008BD00BF5027002008B5024B5A6A1868E0
:10378000904708BD5027002008B502481AF09EFA5D
:1037900008BD00BFF88B020808B503481AF097FB74
:1037A00002481AF094FB08BD288C0208108C02080D
:1037B00018B1034A1060002070472520704700BFF1
:1037C0008027002010B5044C0449206802F016FC44
:1037D0002068FFF7EDFF10BD9C56002078550020B3
:1037E000014B1868704700BF8027002000B583B0E8
:1037F0000B460549097801910092002201211FF032
:1038000080F803B05DF804FBAE58002010B5044604
:10381000032000F015F820B9A179A0681AF074F916
:1038200010BD1AF075F91AF074F90349034B1868C2
:103830001DF0C9FEF0E700BF408C0208E827002019
:1038400003460B4A107828B10A4A12789A4202D2EB
:10385000002000E00120084A12783AB1074A1278A5
:1038600042FA03F313F0010F00D10020704700BFAC
:10387000B1580020B058002072520020AF580020EC
:1038800008B5084B01221A70074B00221A70074B2B
:1038900004221A70064B1F221A7007F019FB054B01
:1038A000186008BDB158002072520020B0580020A6
:1038B000AF580020E827002008B5054823F028FE6F
:1038C0001AF0BFF801201AF04AF900F0B1F808BD6B
:1038D000148F020808B5024823F01AFE08BD00BF85
:1038E000148F02082DE9F04180460F4601F10905C9
:1038F0000026344604E05B21082000F0C1FA0134C0
:10390000AC4233D2052C1BD801A353F824F000BFDE
:10391000F7380008293900085D39000831390008F6
:103920003539000839390008FBB20433D9B2E3E76E
:103930008021E1E70021DFE7731C3146DEB2DBE7DF
:10394000BB1DA3420CD0FB1DA3420BD007F1080303
:10395000A34209D0A31F18F80310CDE7D121CBE76C
:103960005A21C9E75A21C7E75D21C5E70020BDE814
:10397000F08100BF00B583B0002300930193FFF7EF
:103980002FFF114B186001238DF8003090F836306E
:1039900093B100200C4B1B6893F8351002290FD00F
:1039A00003290FD11AF0F1F8019008216846FFF7BA
:1039B00099FF03B05DF804FB00681CF074FCE9E7B4
:1039C0000321EFE70021EDE7EC27002000B583B0ED
:1039D00000220092019202218DF8001005481AF091
:1039E000D9F8019008216846FFF77CFF03B05DF825
:1039F00004FB00BF006A180000B583B0044B1B88AD
:103A0000ADF8043001A800F017FB03B05DF804FB2B
:103A1000508C020800B583B0044B1B88ADF804300D
:103A200001A800F0D9FA03B05DF804FB508C02083D
:103A30002DE9F04F97B04D4D09AC2E1D0FCE0FC4A0
:103A40003368236001AC05F118060FCE0FC496E869
:103A50000F0084E80F00464823F05AFD454823F044
:103A600057FD01268DF8096000248DF80840424B6F
:103A70000B9301AB0D93414F09A938461CF0DCFABA
:103A8000B5F838B0ADF838B0324604210EA800F0D1
:103A900067FAB5F83CA0ADF83CA0224631460FA825
:103AA00000F05EFAB5F84090ADF84090324604213F
:103AB00010A800F055FAB5F80080ADF84480324601
:103AC000042111A800F04CFA2D4D2E4BC5F8F83406
:103AD0004FF00213C5F8F434A3F58033C5F8FC3475
:103AE0001C23C5F8E4344FF4487008F075FEFFF766
:103AF00083FF142008F070FEFFF78CFF232008F0EE
:103B00006BFEFFF779FFB92138461CF07DFAFFF70D
:103B100081FFADF848B02246214612A800F020FAF5
:103B2000ADF84CA02246214613A800F019FAADF8D2
:103B300050903246214614A800F012FAADF8548095
:103B40003246214615A800F00BFA384603F0D8FD9E
:103B5000C5F8E444C5F8F844C5F8F444C5F8FC4495
:103B6000044823F0DAFC17B0BDE8F08F508C02084F
:103B7000148F0208188F0208E070720000000A50CB
:103B800000C003500200030008B50448044A121A9A
:103B9000921004491AF029F808BD00BF80010008FE
:103BA00080030008E052002008B5154B83F30A8813
:103BB00000F030F8FFF7E8FF124A0AE01068516899
:103BC00050F8230041F82300013391688B42F5D36C
:103BD0000C320D4B9A4201D20023F6E70B4A08E063
:103BE0001168002041F82300013351688B42F7D35C
:103BF0000832074B9A4201D20023F6E7FEF75EFB3C
:103C00000000002070D302087CD302087CD3020895
:103C10007CD3020870B5134B134A9A60D3F88820FE
:103C200042F47002C3F88820104A4FF48041916634
:103C30000F4D05F500544FF0FF3222660D4A6266C3
:103C40000222C3F8D020BFF34F8FBFF36F8F002045
:103C500007F008F94FF44036E66000201DF05EFCE6
:103C60002E6170BD00ED00E00000000800900050E3
:103C7000008000447FFF7F01014B1860704700BF48
:103C8000A456002008B5064B1860064B1B6F03F0C6
:103C90000703032B00D008BD22F00CF8FBE700BFA0
:103CA000AC56002000800050BFF34F8F0549CA6812
:103CB00002F4E062044B1343CB60BFF34F8F00BFAD
:103CC000FDE700BF00ED00E00400FA05F0B1844616
:103CD000F1B110B409E004F120000FE02033C01A64
:103CE00018D1BCB10CF1010C01319CF800400B4B18
:103CF0001B5D03F00303012BEDD020460B78074A30
:103D0000D25C02F00302012AE9D1E7E70120704703
:103D1000012070475DF8044B704700BF35D20208A0
:103D200030B587B00546046823798DF80C30637987
:103D30008DF80D301B4823F0EBFB0022012103A876
:103D400000F00EF90DF10B0103A81AF089F89DF8A7
:103D50000B3083F001032370A379022B02D00020E3
:103D600007B030BD4FF0FF330593049300950E4B21
:103D7000002205A903A800F02FFA059BB3F1FF3F2D
:103D800007D00095084B012204A903A800F084F98C
:103D9000E5E70095044B042204A903A800F07CF990
:103DA000DDE700BF148F0208E9DC010810B582B01E
:103DB000002401942A4823F0ABFB8DF80040032334
:103DC0008DF8013001220421684600F0C9F8254B26
:103DD0000122C3F8442401A9052023F092FB002806
:103DE0003BD1214BD3F8F02042F00102C3F8F02080
:103DF000D3F8FC2042F08072C3F8FC20A3F55D43A9
:103E00001A4A1A60019B03F5D52303F2FC43DB0831
:103E1000174AA2FB03239B0A013B164A13610223A4
:103E2000C2F8F0304FF48073C2F804334FF06043AF
:103E3000114AC3F8B02F114AC3F8802ED3F8002ED0
:103E400042F48072C3F8002EFF2283F82020D3F8BA
:103E5000002E22F48072C3F8002E02B010BD00BF05
:103E6000148F020800D0035000ED00E0FF03004073
:103E700017916502000004E055CEACC509000100B1
:103E80004FF06043D3F8803E13F0010F01D11120B1
:103E900070470E4AD2F8FC3043F08073C2F8FC3011
:103EA0004FF06043D3F8002E4FF0010C0CFA00FCE9
:103EB00042EA0C02C3F8002E53F82030002BE8D061
:103EC0004FF0604303F820100020704700ED00E041
:103ED00010B504460FE00123834024EA03040F28B1
:103EE00014D800EB40020E4B03EB82035A6812B168
:103EF0009968C0B2904794B1234600201F28EAD8A1
:103F000013F0010FE7D101305B08F7E7103800EB41
:103F100040039B00B033024A13440433E6E710BD6C
:103F2000F027002008B50D4823F0F2FA1A2006F019
:103F30005FFF28B91B2006F05BFF40B9002008BDD9
:103F40001A2006F08FFF1A201DF0E8FAF2E71B2076
:103F500006F088FF1B201DF0E1FAEFE7148F02083E
:103F60002DE9F04170B30C46174605460F292BD8B2
:103F700003784BB1022B20D0032B21D0012B01D091
:103F8000002303E07F2301E040F2FF736A78D3400F
:103F900013F0010F1AD00F4BD3F81063C6B923F0FA
:103FA000B2F980463A462146284604F069F940466F
:103FB00023F0A4F93046BDE8F08140F2FF33E5E795
:103FC0003F23E3E72226F5E72126F3E72126F1E761
:103FD0000226EFE700C0035040B310B50446037853
:103FE0004BB1022B1DD0032B1ED0012B01D000237F
:103FF00003E07F2301E040F2FF736278D34013F0C7
:10400000010F15D023F07FF92378627801219140C8
:1040100003EB43031B01074AD15023F06FF9002043
:1040200010BD40F2FF33E8E73F23E6E72220704768
:104030002120F5E740D0035040B310B50446037883
:104040004BB1022B1DD0032B1ED0012B01D000231E
:1040500003E07F2301E040F2FF736278D34013F066
:10406000010F15D023F04FF9237862780121914098
:1040700003EB43031B01074AD15023F03FF9002013
:1040800010BD40F2FF33E8E73F23E6E72220704708
:104090002120F5E740E00350002866D02DE9F041EB
:1040A0000C4615461F460646002960D002784AB1E4
:1040B000022A3ED0032A3FD0012A01D0002303E088
:1040C0007F2301E040F2FF737178CB4013F0010FC2
:1040D00001D1FF2A4DD1022D01D9042D4BD123F05E
:1040E00012F980463378FF2B28D12368B3F1FF3FC4
:1040F0002BD02268B2F1FF3F32D0204B02EB4202BC
:1041000003EB82025760226802EB420203EB820358
:10411000069A9A603378FF2B05D0226801239340DA
:10412000174AC2F82434404623F0E8F80020BDE8DE
:10413000F08140F2FF33C7E73F23C5E72A462168F5
:10414000304604F007F92060CFE73378FF2BD0D159
:104150000C4BD3F8241470781CF0DDF82060C8E70D
:10416000404623F0CBF82D20E1E7222070472220A3
:10417000DDE72120DBE72120D9E700BFF027002081
:1041800000D0035000C00350B0F1FF3F1AD038B543
:1041900004460F2818DC002818DB23F0B4F80123AC
:1041A000A3400B4AC2F82034C2F82434094B04EB74
:1041B000440203EB820200255560956023F09EF8CF
:1041C000284638BD212070472120FAE72120F8E752
:1041D00000E00350F0270020002856D02DE9F041E0
:1041E0000C4617461E460546002950D0017849B1B5
:1041F000022939D003293AD0012901D0002303E054
:104200007F2301E040F2FF736A78D34013F0010F7F
:1042100001D1FF293DD123F076F880462B78FF2B82
:1042200027D12268B2F1FF3F2AD01B4B02EB42029A
:1042300003EB8202C2F8B860226802EB420203EB91
:104240008203069AC3F8BC202B78FF2B06D0226885
:10425000103201239340114AC2F82434404623F01F
:104260004DF80020BDE8F08140F2FF33CCE73F235A
:10427000CAE73A462168284604F00CF92060D0E7E6
:10428000404623F03BF82D20ECE722207047222007
:10429000E8E72120E6E700BFF027002000D0035028
:1042A00008B5084BD3F82404D3F82024104000F0BC
:1042B000553020F0502003F50053C3F82004FFF7D9
:1042C00007FE08BD00C0035008B5084BD3F824040E
:1042D000D3F82024104000F0AA3020F0A02003F5ED
:1042E0000053C3F82004FFF7F3FD08BD00C00350DE
:1042F00070B586B005460368B3F1B64F27D0304A93
:10430000934222D04FF0FF36B3F1B64F21D02C4A62
:10431000934252D12B4823F0FBF82B798DF80430CF
:104320006B798DF80530AB798DF80030EB798DF82D
:10433000013001220A2101A8FFF712FE01220A2101
:104340006846FFF70DFE002412E00126DCE7002698
:10435000DAE71D48DFE701A8FFF76EFE642008F0EA
:104360003BFA01A8FFF738FE642008F035FA013463
:10437000092CF0DD154A02EB06110323C1F838358C
:1043800068792B7943EA0043C1F83C35E979AB7988
:1043900043EA014354363601935101238DF8083026
:1043A0008DF80930EB680493AB6803932B7C8DF890
:1043B000143002A9286803F0A5FC06B070BD00BF48
:1043C000008006500C8F0208108F020800C00350B6
:1043D00010B582B004460A4823F09AF823788DF885
:1043E000043063788DF80530A278B2FA82F252096F
:1043F00004210DEB0100FFF7B3FD002002B010BD5A
:10440000148F0208F0B585B00C4694469DF8341020
:10441000664A1278002A00F0BD800546BCF1070FFD
:1044200000F2BA800A9A002A00F0B8800B9A002A9B
:1044300000F0B6800E9AB2F5006F00F3B380012849
:104440005BD05B4A02EB0C12127B002A00F0AC80BE
:1044500000220092019202920392564A02EB4C1EF5
:10446000002C4FD14FEA4C1600209051CEF804009A
:10447000CEF80800CEF80C009EF8020040F01000C4
:104480008EF802009EF8030040F030008EF8030022
:1044900021B9C1B241F003018EF8031000930E9BC5
:1044A000013B444A4FEA4C1002EB4C11165A63F39D
:1044B0000E1616520A9B8B600B9B4B60CB789DF8B7
:1044C0003C2062F38303CB70012D36D0109B002B70
:1044D00056D0374A4FEA0C1102EB0C13109850508B
:1044E000119A5A6000249C605D737246694660466A
:1044F00003F07EFC204605B0F0BD0C9A002AA0D146
:104500002D48F8E72B4F4FEA4C1607EB4C120020D2
:10451000B85150609060D060907840F0100090707A
:10452000D07840F00300D0700029B7D107EB4C12CF
:10453000C1B241F03001D170B0E70E460A7B42F0C3
:1045400001020A73D2B242F002020A73CA6804215D
:1045500061F39F02F26006F1100796E80F0087E80A
:104560000F00F2696FF0030161F39F02F2610C9B8F
:104570007361012CAAD10B9AB2610C9A7260A5E703
:10458000002DA6D10B4B03EB4C139A786FF304125A
:104590009A709EE70948AEE70748ACE70648AAE7E5
:1045A0000548A8E70448A6E70548A4E77352002099
:1045B000582A002058290020018000F0028000F0D5
:1045C000078000F0134B1B78FBB110B50446F0B127
:1045D00022F099FE0023072B13D80F4A02EB031297
:1045E000127B0AB10133F6E723600B4A190102EB93
:1045F000031301241C730024545022F07FFE204634
:1046000002E022F07BFE054810BD054870470548D2
:10461000FAE700BF73520020582A0020048000F0FF
:10462000028000F0018000F038B522F06CFE0446F4
:104630000023072B06DC0C4A02EB0312127B12B993
:104640000133F6E7002222B1204622F057FE074848
:1046500038BD03F079FB0025054B1D70204622F084
:104660004DFE2846F4E700BF582A0020058000F0E0
:10467000735200200F4B1B78BBB110B504460728BE
:1046800015D822F040FE0C4B03EB04131B7B1BB927
:1046900022F034FE09480BE0074B03EB041300241F
:1046A0001C7322F02BFE204602E0054870470548A7
:1046B00010BD00BF73520020582A0020068000F071
:1046C000028000F0018000F000B583B0134B1B683E
:1046D000019300238DF8043022F015FE104B1B7857
:1046E00033B90F4B01221A7022F008FE002309E0B3
:1046F00022F004FE0B480EE00B4A02EB03120021ED
:1047000011730133072BF7DD08238DF8073001A85B
:1047100003F03EFB002003B05DF804FB948C02081C
:1047200073520020038000F0582A002010B5104C6E
:104730002478BCB1072817DC0E4C04EB0014247B52
:10474000A4B10C4C4FEA001E04EB001C44F80E30E0
:10475000029BCCF804300024CCF8084003F048FB5E
:10476000204610BD0448FCE70448FAE70448F8E78F
:1047700073520020582A0020028000F0018000F0CF
:10478000078000F008B50A4B1B785BB107280BD8EF
:10479000084B03EB00131B7B43B1002103F0EAFA43
:1047A000002008BD0448FCE70448FAE70448F8E79D
:1047B00073520020582A0020028000F0018000F08F
:1047C000078000F008B50A4B1B785BB107280BD8AF
:1047D000084B03EB00131B7B43B1012103F0CAFA22
:1047E000002008BD0448FCE70448FAE70448F8E75D
:1047F00073520020582A0020028000F0018000F04F
:10480000078000F0F8B5194B1F6D5B6D1F4002D497
:104810000125002402E0FEE701346D00072C24D8B6
:104820003D42F9D0124B1D652301124AD358002B8B
:10483000F2D002EB0416B1680131B1607268204613
:10484000984780F00100C0B2737B012BE4D10028AF
:10485000E2D0094B03EB44131A7B6FF341021A7346
:104860001A7F6FF341021A77D6E7F8BD00000450B3
:1048700000200450582A0020582900202DE9F04F2C
:1048800089B005460E4614469846C36B5B69012203
:1048900007A960689847EB6B5B69012206A930465F
:1048A000984707A81AF084FD48B10027A7756775D7
:1048B0004FF0FF33A360384609B0BDE8F08F0746DC
:1048C00006A81AF085FD0123A375237E033304EBAC
:1048D000C3035E6000221A816368B3422AD0236852
:1048E000834201D00023A37506A81AF096FD237D0C
:1048F000984201D00023A37506A81AF06DFD8146E9
:1049000007A81AF069FD814501D00023A37506A808
:104910001AF06AFD814607A81AF066FD814501D0AC
:104920000023A375237D043BDBB2022B0BD80023AD
:10493000A375C0E7206006A81AF06FFD20754FF040
:10494000FF33A360EEE706A81AF046FD80B1EB6BDB
:104950005B69022204A93046984704A81AF04FFD6B
:104960000346207D032868D8DFE800F0615B070D6F
:1049700006A81AF044FD0346F3E7237E033304EB55
:10498000C303CC221A811AF058FD129B187094F8B8
:10499000189006A81AF013FD09F1030904EBC909E0
:1049A00089F80A00237E033304EBC303B3F808A09D
:1049B00093F80AB006A81AF00FFD814606A81AF06F
:1049C00013FD0390B9F1000F3DD0EB6B5B69022240
:1049D00004A93046984704A81AF0CDFC6075637DA1
:1049E00003B9A375A37DA3B1BAF1000F11D0039B46
:1049F000F1186B6C5B4286EA01021A4201D0002377
:104A0000A3756B6C5A1E0A409B1A9A4501D9002364
:104A1000A375A37D002B40D0BBF1000F18D1E77D1B
:104A20003CE0227E033204EBC2021381ABE7227E1C
:104A3000033204EBC2021381A5E7227E033204EBAA
:104A4000C20213819FE706A81AF07EFC6075C6E7D4
:104A50000122E275627EBAB9BBF1010F08D095F868
:104A60003470DFB9EA6AB2F1FF3F05D01F4615E0A6
:104A700001216176174611E0BBF1030F01D01F46FB
:104A80000CE00122A27609E0BBF1010F37D0BBF1A7
:104A9000030F03D10122A27600E01F4653B117B1E4
:104AA000BBF1010F06D95346039A3146284619F047
:104AB000C2FDA060A37D13B1236953442361237E0B
:104AC000114A127893421CD201332376B8F1000FB9
:104AD00013D0A37D8BB1E37D7BB177B9BBF1030F1D
:104AE0000BD0A168B1F1FF3F07D0129B00930123C7
:104AF00022462846FFF7C2FEA075A77DDBE61746D3
:104B0000CCE70023A375E1E7B88C02082DE9F04F4C
:104B100089B005460F4692469B4600238DF80B3020
:104B20004FF0FF31104600F0EFFFB7F5801F1DD3A7
:104B30000023009317F1020F07D0009B002B40F0D9
:104B40009E802B7C002B00F08C80EB6AB3F1FF3F42
:104B50002CD02A689B1A6A6CB3FBF2F917F1020891
:104B600018BF4FF00108002301935DE00DF10A0228
:104B7000394605F1080000F017FF0146B0F1FF3F8C
:104B800011D0504600F0C0FF0DF10B030122514639
:104B9000284619F0CFFD00900028CBD09DF80B30AF
:104BA0008BF80030C6E700230093C3E7696A284604
:104BB00019F062FC8146D1E70123019337E09DF8AB
:104BC0000B308BF80030324B1A683249504620F0D7
:104BD00012FE00942F4B9968B1F1FF3F1BD06B6C14
:104BE0005B4281EA06021A4215D12A4C204600F0A7
:104BF0008BFF0DF10B0342462146284619F09AFD22
:104C000004460028E6D017F1020FD8D0214B1B68CC
:104C1000BB42DFD1D3E74946284619F02DFC814637
:104C2000019BCBB9009BBBB96B6A4B45C4D02C68C8
:104C30006B6C03FB0944EB6B5B69052203A92046FF
:104C4000984703A81AF090FC1AF0B5FC20461AF019
:104C5000BEFC06460146BFE7009BA3B1B7F5801F27
:104C600003D3009B8BB100200AE09BF80030DAF8F8
:104C70000420394605F1080000F0B4FEF1E70020F9
:104C800009B0BDE8F08F2D20FAE72D20F8E700BF2E
:104C9000B48C02084C31002070B582B004464FF04D
:104CA000FF33C3620DF107031A4A6FF00101FFF7EA
:104CB0002DFF20BB174B9B68E362E56A294620461F
:104CC00019F0CBF92063E8B12946204619F0A3FC7E
:104CD0000546A36AAB421BD02946204619F0BDF910
:104CE0000646236B034423632946204619F093FCB0
:104CF0000546002EEDD100232363E062E9E7A36AB5
:104D0000E362DAE7E16A204619F085FCE062DBE75E
:104D100002B070BD7831002030B583B01C46032A44
:104D200014BF002201221B7E9A4202D0012003B050
:104D300030BD0D46096823689942F7D363689942EC
:104D4000F4D80DF10703114AFFF7E0FE0028EDD17A
:104D50000E4B5A686B689A42E8D19DF80730032BD6
:104D600014BF00230123227E9342DFD16369013304
:104D700063612369E2689342D8D2A268296842F845
:104D80002310236901332361D0E700BF783100206D
:104D90002DE9F04182B004460E4690461F46816AD6
:104DA00006E01A4B9968B1F1FF3F1FD0012E23D0C6
:104DB000E06A884217D0B1F1FF3F14D0134D284666
:104DC00000F0A2FE0DF1070301222946204619F04A
:104DD000B1FC0028E5D03B469DF807202946204637
:104DE000C0470028DDD102B0BDE8F08159682046F7
:104DF00019F011FC0146D9E7044B5A68636C5B4219
:104E00004A401A42D4D04FF0FF31D1E72031002080
:104E100010B50446083000F08DFD0023024A194603
:104E20002046FFF7B5FF10BD23E7010838B504465B
:104E3000037C0BBB02461349083000F01DFE616A7B
:104E4000204619F03BFB421C616A204619F08CFA9F
:104E5000054620B9236B626C1344143B2363A16A9B
:104E6000204619F0D8FBA0622368C01A636CB0FB1F
:104E7000F3F06062284638BD0023034A0121FFF7A2
:104E800087FFDCE7BBEA010889EA0108F0B589B0D1
:104E900080B30F4616461D46044690F834301BB9C1
:104EA0000025284609B0F0BD012119F032FA01951C
:104EB0000E9B0293039704960023059306939DF897
:104EC0003C308DF81C30237C5BB901AA0A4904F1FF
:104ED000080000F0D1FD5EB9069D204619F0BBFC2C
:104EE000DFE701AB054A00212046FFF751FFF2E75B
:104EF000059DF2E70025D4E7D7E20108194D000827
:104F0000F0B58BB004460D46406AE36B5B69052241
:104F100005A92668676C07FB0060984705A81AF08A
:104F200023FB012836D00094002301938DF808500C
:104F3000039301238DF81030A16AE36A99420FD0E0
:104F4000237CBBB96A46144904F1080000F094FDC3
:104F5000019B13B99DF810309BB901980BB0F0BDBF
:104F6000204619F058FBE062236B626C9B1A1433E5
:104F70002363EDE76B46094A01212046FFF708FF4E
:104F8000E6E7626A2368616C01FB0231E06B1AF0AC
:104F90009DFAE2E70020E1E7A5510008255100084D
:104FA0002DE9F04F89B004468A4691461D460023FC
:104FB00007930969026BCB1D406C1438B3FBF0F307
:104FC000013301EBC301914200F2A7804E4677E026
:104FD0003D2840F092800490BB4605961EE04FF0BD
:104FE00000092368616C01FB0631E06B1AF05AFA84
:104FF000204619F098F9204619F034FB2063B9F1E6
:10500000000F76D0DAF81020D31D616C1439B3FB91
:10501000F1F3013302EBC30290423AD32368ABEBC6
:105020000309606CB9FBF0F909FB00301AF0CFFA04
:105030008046E16A204619F0EEFAA36A83422CD03A
:10504000E062374B9A68616C4B1E1340226B5B1A0F
:1050500013442363ABEB08072368079EF61AB6FBDD
:10506000F1F6B145BBD197B1E36B9B69BA084146F4
:1050700098478146E36A3B44E362236BA8EB0B0845
:105080004344236304F1080000F054FCA9E7B94647
:10509000A7E7DDF810B0059E02E0DDF810B0059E30
:1050A000BBF1000F29D0DAF81000226BC31D616C30
:1050B0001439B3FBF1F3013300EBC30082421CD37C
:1050C000E76ADFF85C803946404600F01DFD07AB1B
:1050D0000293019500963B4642465146204619F000
:1050E000E5FD834600287FF473AFD8F80830E3620B
:1050F000D6E7DDF810B0059ED2E75F461FB138460F
:1051000009B0BDE8F08F2B46054A5268DAF8001066
:1051100004F1080000F066FCF1E71C27EFE700BF90
:105120004C310020F0B583B01C46032A05D1237A08
:10513000012B33D0012003B0F0BD06460F461546C3
:105140000DF10703164A0968FFF7E0FC60600028CC
:10515000EDD19DF80730032BE9D0114B5A687B68DD
:105160009A42E4D1237A012B08D13B69E2681344C7
:105170007269934202D900232374D8E7E3683A693D
:1051800013440833E3602B46012239463046FFF7CB
:1051900007FF60600028CAD00020CCE7207CCAE767
:1051A00078310020F0B583B0089C2668032A05D129
:1051B000237A012B4DD0012003B0F0BD15460DF12F
:1051C0000703254A3046FFF7A1FC60600028EFD1B5
:1051D0002168214B5A688B6A486CC0F1000C5A4018
:1051E00012EA0C0FE4D1227A012A19D00F68DB1BD6
:1051F000B3FBF0F3CA6AD21BB2FBF0F29A4219D0A9
:10520000E36815490A6913440833E3602B46012219
:105210002068FFF7C5FE60600028C9D00020CBE7FA
:105220000D4A1269E7683A447769BA42DED9002329
:105230002374BDE7726CF16A531E0B40316B9B1AED
:105240000B4433632668B16A304619F0E4F9F06222
:10525000D6E7207CB0E700BF78310020F8B56E4B70
:105260001E6800221A60002800F0B6800D46044631
:1052700090F8343013B30A6803689A4240F0AE8065
:105280004A6843689A4240F0AC808A6883689A42D0
:1052900040F0A980CA68C3689A4240F0A6800A69B3
:1052A00043699A4240F0A3808A69C36B9A4201D055
:1052B0005D2594E04B698361002590E0876B68224F
:1052C000002120F071FAA7632B6823606B6863608C
:1052D0002B6963616B69A361EA68A96804F108003E
:1052E00000F03AFBAB69E3639B6804F14000984728
:1052F00030B9636C23B16268B2FBF3F2E26101E0A2
:105300000023E36194F84330002B72D0002323661E
:10531000656C002D6FD0E369002B6ED02368B3FB62
:10532000F5F205FB1233002B69D16768B7FBF5F383
:1053300005FB1373002B64D1204618F07EFEA36991
:10534000034404339F425ED36369B3F5805F5CD846
:10535000CB2B5CD9B5F5805F5BD30321204618F0D9
:10536000D8FFE36B1B686168206898470546E36BCC
:10537000DB6802209847EDB1636C143B5DB9266A87
:1053800003FB06F6204618F058FEA36903440433D5
:105390009E4200D25A25B5FA85F35B0984F8343071
:1053A0001BB11E4A13680133136085B1204619F002
:1053B00052FA14E03146204619F0D0F90546642827
:1053C000DAD13146204619F0C9F90546D4E76168BB
:1053D000206819F05CFFE9E7212500E05D252846FB
:1053E000F8BD5D25FBE75D25F9E75D25F7E75D2560
:1053F000F5E72125F3E75B25F1E75B25EFE7592585
:10540000EDE75925EBE75A25E9E75F25E7E75F2553
:10541000E5E75B25E3E700BFDC2A0020D82A00206F
:10542000F0B585B0A8B30C4617461E46054690F861
:10543000343083B3B1F5801F2FD2012118F069FFFA
:105440000DF10F03164A21462846FFF75FFB04467D
:1054500030B99DF80F30012B08D0022B17D02D2426
:10546000284619F0F8F9204605B0F0BD0C4B1B6931
:10547000B34201D06324F3E700220192084B00936A
:1054800033463946284619F0EEF90446E8E7602429
:10549000E6E72124E7E71124E5E72924E3E700BF55
:1054A000A4310020F0B585B0002838D00C4617464E
:1054B0001E46054690F834309BB3B1F5801F32D2BA
:1054C000012118F026FF0DF10F03184A2146284646
:1054D000FFF71CFB044630B99DF80F30012B08D0B4
:1054E000022B1AD02D24284619F0B5F9204605B014
:1054F000F0BD0E4B1A690A9BF3189A4201D263243D
:10550000F1E700230193094B00930A9B3246394689
:10551000284619F0A8F90446E5E76024E3E72124CA
:10552000E4E71124E2E72924E0E700BFA4310020EA
:1055300070B582B058B30C461646054690F8343024
:105540003BB3B1F5801F26D2012118F0E2FE0DF128
:105550000703124A21462846FFF7D8FA044668B9DD
:105560009DF80730032B10D0022B01D0612406E0F8
:105570000A49284619F05EFB306000E02D242846D9
:1055800019F069F9204602B070BD2D24F7E72124F7
:10559000F8E71124F6E72924F4E700BFA43100203E
:1055A000F0B583B01C460023236070B30E46174647
:1055B000054690F8343053B3B1F5801F29D201214C
:1055C00018F0A7FE0DF10703134A31462846FFF7EE
:1055D0009DFA064680B99DF80730032B13D0022BA5
:1055E00005D000233B600C4B1B69236005E00123C1
:1055F0003B600423236000E02D26284619F02BF998
:10560000304603B0F0BD2D26F7E72126F8E7112636
:10561000F6E72926F4E700BFA431002000B583B0E7
:10562000044B009300231A46194619F034FD03B0C9
:105630005DF804FBFFFF0F0000B583B0044B00933F
:1056400000231A46194619F030FD03B05DF804FB3B
:10565000FFFF0F002DE9F8431D469DF820704369B8
:10566000AB422FD304468846914619F0E2F9032F46
:1056700006D0266B2946204618F0CFFC864225D35B
:10568000134E4FF0FF31304600F03EFAC6F800806E
:105690003561C6F80C903B46002231462046FFF7A4
:1056A0007FFC0546236E73B1204619F008FD94F87F
:1056B000503013B994F858302BB1236E04F15000D8
:1056C000984700E062252846BDE8F8831C25FAE7E4
:1056D000783100202DE9F04184B000283AD00C4602
:1056E00090461F46054690F83430ABB3B1F5801FA5
:1056F00034D2022118F00DFE0DF10F03184A214695
:105700002846FFF703FA18B99DF80F30012B0FD088
:10571000012300933B46424621462846FFF79AFF65
:105720000646284619F097F8304604B0BDE8F081E7
:105730000B4B1B69BB42EBD101230193084B009338
:105740003B4600224146284619F08DF806460028BF
:10575000E7D0DDE72126E7E71126E5E72926E3E79D
:10576000A4310020F0B583B0A0B30C461646054620
:1057700090F8343083B3B1F5801F2FD2022118F096
:10578000C8FD0DF10703164A21462846FFF7BEF96A
:10579000B8B99DF80730032B1AD0022B01D0612431
:1057A00010E00F4C2146284619F044FA0346471CE6
:1057B0003A462146284619F0AFFC044616B1376038
:1057C00000E02D24284619F046F8204603B0F0BD2D
:1057D0002D24F7E72124F8E71124F6E72924F4E73C
:1057E000A431002070B586B00392C0B30C460546C4
:1057F00090F83430ABB3B1F5801F34D2022118F0E9
:1058000088FD0DF11703194A21462846FFF77EF956
:10581000064638B99DF81730032B03D0022B10D061
:10582000612608E002230093CC2303AA21462846E0
:10583000FFF710FF0646284619F00DF8304606B06F
:1058400070BD0A49284619F0F5F9039A8242F2D050
:1058500003460649284619F05FFC0646EBE7212679
:10586000ECE71126EAE72926E8E700BFA43100208B
:1058700030B585B048B30C46054690F8343033B3A4
:10588000B1F5801F25D2022118F043FD0DF10F0361
:10589000114A21462846FFF739F978B99DF80F30AB
:1058A000032B01D12D240AE00323009300231A4681
:1058B00021462846FFF7CEFE044600E02D24284668
:1058C00018F0C9FF204605B030BD2124FAE71124A5
:1058D000F8E72924F6E700BFA4310020036853F855
:1058E0003100C0F313007047036853F83100C0F370
:1058F00007507047036803EBC1035868704700BF47
:10590000006850F831301B0D1B05134340F831304F
:10591000704700BF006850F83130C3F3130343EA07
:10592000025340F831307047036803EBC1035A60FB
:10593000704700BF002309E002684FF0FF3142F8D2
:105940003310026802EBC3025160013342689A428D
:10595000F2D800230372704708B501604260FFF778
:10596000E9FF08BD002342689A421BD910B403E046
:10597000013342689A4212D904684FEAC30C54F8C2
:105980003320B2F1FF3FF3D0C2F313029142EFD1C3
:105990004FF0FF3244F80C20036863445A605DF80E
:1059A000044B7047704700BF10B5002300E001337F
:1059B00044689C4212D904684FEAC30E54F833403D
:1059C000B4F1FF3FF3D0C4F3130C6145EFD1C4F33E
:1059D0000754147003687344586801E04FF0FF30B7
:1059E00010BD00BF2DE9F047456806467DB30F4660
:1059F000914698460024D0F800A05AF8343001337C
:105A000005D021463046FFF769FFB84210D0013477
:105A1000A542F2D1002402E00134A54214D05AF884
:105A200034300133F8D13A4621463046FFF768FF5B
:105A3000424621463046FFF76DFF4A462146304632
:105A4000BDE8F047FFF770BFB8F1030F03D10123A2
:105A50003372BDE8F087002402E00134A542F6D09D
:105A600021463046FFF740FF0328F6D13A4621464B
:105A70003046FFF745FFDBE72DE9F04391464268EA
:105A800083B00AB30546884600242B6853F83430A7
:105A9000013316D021462846FFF720FF214607464E
:105AA0002846FFF721FF214606462846FFF722FF3A
:105AB0003946034632462846CDF80090C04718B113
:105AC0006A6801349442E0D303B0BDE8F08300BFBC
:105AD00008B5034B1968034B1868FFF7BFFB08BDF7
:105AE000B0560020D056002008B521F0F9FB014B3C
