S0160000476174655F4C525F436F6E6E6563742E73333737
S315080000000020002041490008B5E70108B5E70108C6
S3150800001001310208B5E70108B5E70108B5E70108A7
S31508000020B5E70108B5E70108B5E70108B5E701082E
S31508000030B5E70108B5E70108B5E70108B5E701081E
S31508000040B5E70108B5E70108B5E70108B5E701080E
S3150800005021730008B5E70108B5E70108B5E7010807
S31508000060B5E70108B5E70108B5E701081144000836
S3150800007001440008B5E70108B5E70108B5E7010836
S31508000080B5E70108B5E70108B5E70108B5E70108CE
S31508000090B5E70108B5E701089D550008B5E7010869
S315080000A0B5E70108B5E701086150000839500008AE
S315080000B0B5E70108B5E7010865BA010811C50108E1
S315080000C0336202082F620208C5BC010849620208A9
S315080000D037620208E1C401083B62020875C50108D7
S315080000E0ADC50108B5E70108B5E70108F9D4000868
S315080000F0B5E70108B5E70108B5E70108B5E701085E
S31508000100B5E70108B5E70108B5E70108B5E701084D
S31508000110B5E70108B5E70108B5E70108B5E701083D
S31508000120B5E70108B5E70108B5E70108B5E701082D
S31508000130B5E70108B5E70108B5E70108B5E701081D
S31508000140B5E70108B5E70108B5E70108B5E701080D
S31508000150B5E70108B5E701084F7D0208519F010878
S31508000160B5E70108B5E70108CD610208D3610208C1
S31508000180194A5AB3194BDB6913F0040F29D110B475
S315080001900AE003EA00048C4210D0013AB2B1134BCC
S315080001A0DB6913F0040F14D110F0010FF1D1104CD4
S315080001B01C40002CEDD06FF001000CE00C4A1A40F0
S315080001C00AB9002007E06FF0010004E06FF00200B2
S315080001D001E04FF0FF305DF8044B70476FF0020006
S315080001E070474FF0FF307047809698000000035024
S315080001F0020001000D4BDB6913F4803F12D170B584
S315080002000A4B03F580560124F46003F500552C6467
S315080002104FF480721A6100212046FFF7B1FF34645B
S31508000220EC6070BD6FF00100704700BF000003501E
S3150800023010B5124B4FF480329A6603F51C33DC690D
S31508000240144041F67132DA6303F580520121D16018
S31508000250586102221A6100212120FFF791FF40B15F
S31508000260074B0122DA601CB1A3F500530022DA63BA
S3150800027010BD00212120FFF783FFF1E70090005011
S315080002800020035038B51A4B5861DB6913F0040F88
S315080002902AD10C4654F8041B154B9961151F06E024
S315080002A0214651F8042B124B9A61043D0C465DB168
S315080002B008210846FFF764FF03460028F0D00C4AD9
S315080002C004211161184638BD094B04221A61002120
S315080002D02120FFF755FF03460028F3D100212120EE
S315080002E0FFF74EFF0346EDE74FF0FF33EAE700BF9F
S315080002F0000003502DE9F0410F46164605461A4BF5
S315080003004FF480329A6603F51C33DA6902F48038B2
S3150800031041F67132DA6303F580530122DA6000236D
S3150800032002E025442744361B8EB105F5005424F413
S31508000330FF5424F01F04641BB44228BF34462246E7
S3150800034039462846FFF79EFF03460028E9D0074AA4
S315080003500121D160B8F1000F03D0A2F500520021A7
S31508000360D1631846BDE8F081009000500020035084
S31508000370000000000000000000000000000000006F
S31508000380013800D0FCE770472DE9F04F2DED028BC0
S3150800039093B082460C4693461D4657EC106B8DED7E
S315080003A0080B32463B46304639461CF0D3FD00283A
S315080003B000F009814FF0FF32B14B304639461CF048
S315080003C0F1FD002840F0FF804FF0FF326FF48013F4
S315080003D0304639461CF0C8FD002840F0F48000225B
S315080003E00023DDE90867304639461CF0BDFD0028C4
S315080003F040F0FC809DED087B8DED067B209B13F479
S315080004008063119301D106231E93DDE90601024696
S31508000410C1F30A50C1F31303904643F07F5949F4D8
S315080004204019A0F2FF301CF0C3FA83A3D3E90023D6
S315080004301CF028FB82A3D3E900231CF06DF90646BD
S315080004400F4600228F4B404649461CF063F97EA3AF
S31508000450D3E900231CF016FB02460B463046394604
S315080004601CF05AF91CF0A8FD06461CF0A1FA8046B5
S31508000470894677A3D3E900231CF004FB0022824BAC
S315080004801CF04AF91CF098FD074673A3D3E900232C
S31508000490404649461CF0F6FA8046894638461CF01E
S315080004A087FA6FA3D3E900231CF0ECFA02460B4641
S315080004B0404649461CF02EF98046894602460B46B8
S315080004C01CF0E0FACDE90C0107F2FF370021002203
S315080004D0CDE90A123B050B9300230A9342464B4685
S315080004E0404649461CF018F9CDE90E0142464B46EE
S315080004F000204FF080411CF00DF980468946002205
S31508000500624BDDE90C011CF0E7FB0022604B1CF096
S3150800051003F902460B46DDE90C011CF0DDFB00225F
S315080005205C4B1CF0F9F802460B46DDE90C011CF0A1
S31508000530D3FB02460B46404649461CF0EDF80246F8
S315080005400B46DDE90E011CF0C7FB0022524B1CF0DE
S31508000550E3F8DDE90A231CF095FA8046894649EC5A
S31508000560188BDDE906231CF01DFD40B1013E002273
S31508000570474B404649461CF0AFFB41EC180B06F1C9
S315080005806303C62B3BD80427209B13F4006F40D087
S3150800059035A3D3E90023DDE90689404649461CF020
S315080005A0F7FC00283BD032A3D3E90023404649464E
S315080005B01CF0DAFC002832D01E9BB34221DD9E1BBC
S315080005C0731E1E931FE0209B02931F9B01931E9B85
S315080005D000939DED080B2B465A462146504600F0DF
S315080005E0CBF813B0BDEC028BBDE8F08F9FED227BF4
S315080005F08DED067B069607F100430793FEE6052771
S31508000600C2E700231E93209B43F4806320930027B0
S315080006103E461F9B9F4241D2A3EB070840E01E9B24
S31508000620002BF6D0119B002BF3D01E9B013B1E938B
S31508000630EFE700BFAFF30080FB799F501344D33F29
S31508000640B3C8608B288AC63F61436F63A787D23FCA
S3150800065071A379094F930A401655B5BBB16B024091
S31508000660EF39FAFE422EE63F2D431CEBE2361A3FDF
S315080006700000000080842E410000000000000000F9
S31508000680FFFFEF7F0000F83F0000E03F00002C402E
S3150800069000002440000018400000F03F4FF000081A
S315080006A0209B13F0020902D00FB14FF000083EB1AB
S315080006B053EC182BDDE906011CF00EFBCDE906010B
S315080006C000220023DDE908011CF04EFC00283BD17E
S315080006D0209B23F400630293CDF804801E9B0093AD
S315080006E09DED060B2B465A462146504600F044F827
S315080006F0002F3FF476AF209B13F0200F2CD04FF03D
S31508000700450C00F101082B46024621466046D047B3
S3150800071086EAE672A2EBE67205230593013F049783
S31508000720002303930A230293F30F019300922B46A7
S3150800073042462146504624F070F9B9F1000F3FF4BD
S3150800074050AF02461F9F10E0DDE90601024601F19F
S315080007500043CDE90623BBE74FF0650CD1E7561CED
S315080007602B4621462020D0473246A2EB0B03BB423C
S31508000770F5D3104635E700BF2DE9F04F2DED028B76
S3150800078093B00590089192469B4659EC108B1E9D96
S3150800079042464B46404649461CF0DCFB002840D002
S315080007A04FF0FF326FF48013404649461CF0DCFBDD
S315080007B0002845D14FF0FF32B14B404649461CF060
S315080007C0F1FB00284BD1AAA3D3E9002340464946AA
S315080007D01CF0E8FB00285AD1A7A3D3E9002340461A
S315080007E049461CF0C1FB002851D10022002340468F
S315080007F049461CF0B9FB002857D100230993209BD2
S3150800080013F4806F5CD000241F2C5BD8092D59D9AE
S3150800081004F148036B44302203F8202C013D0134CF
S31508000820F2E7209B03931F9B029303230193954BA7
S3150800083000935B4652460899059824F014F810E18F
S31508000840209B03931F9B0293042301938E4B0093D3
S315080008505B4652460899059824F005F801E1209B65
S3150800086013F004030FD0894A7BB10423209903911E
S315080008701F990291019300925B4652460899059882
S3150800088023F0F1FFEDE0824AEEE70323EEE7209B33
S3150800089002931F9B0193009549EC108B5B465246C9
S315080008A008990598FFF770FDDBE042464B460020A5
S315080008B000211BF02FFF80468946012309939EE7F6
S315080008C00625A0E7404649461CF076FB06461CF07E
S315080008D06FF802460B46404649461BF01BFF6D4B18
S315080008E003EBC50393ED008B53EC182B1CF0CAF8E9
S315080008F002460B46CDE906231CF086FB07461CF08C
S3150800090047F802460B46DDE906011BF003FF0246DF
S315080009100B46CDE9062300225F4B1CF043FB50B380
S31508000920013738461CF034F802460B4651EC180BD2
S315080009301CF024FB08B10136002755BB30461CF0D5
S3150800094037F802460B46404649461BF0E3FE80460A
S3150800095089460022504B1CF007FB38B100224E4B4B
S31508000960404649461CF01EFB002842D016F0010FEF
S315080009703FD001363DE00022474BDDE906011CF079
S31508000980F3FA0028D9D117B117F0010FD5D00137DE
S31508000990D3E71F2C17D8013D404BA3FB0723DB08E1
S315080009A0194603EB8303A7EB4303621C303304F1B8
S315080009B048000DEB000404F8203C092F02D90F4625
S315080009C01446E6E714461F2C0AD86B1E45B104F1F7
S315080009D048026A44302102F8201C1D460134F2E719
S315080009E01F2C06D804F148036B442E2203F8202C4A
S315080009F001341F2C17D82A4A82FB0632F317C3EB99
S31508000A00A2031A4603EB8303A6EB4303611C3033A8
S31508000A1004F148000DEB000404F8203C16460AB120
S31508000A200C46E6E70C46209B03F00303012B39D05E
S31508000A301F2C09D8099B002B51D004F148036B449D
S31508000A402D2203F8202C0134209B03931F9B02932D
S31508000A5001940AAB00935B4652460899059823F021
S31508000A6002FF13B0BDEC028BBDE8F08FAFF3008038
S31508000A700000000065CDCD410000000065CDCDC168
S31508000A80FFFFEF7F609902086499020854990208EB
S31508000A905C990208709902080000E03FCDCCCCCCE6
S31508000AA0676666661F9BB3B1099B1BB9209B13F04B
S31508000AB00C0F12D01F9B013B1F93194606E004F149
S31508000AC048036B44302203F8202C01348C42AFD201
S31508000AD01F2CF4D9ACE71F99F8E71F99F6E7209B76
S31508000AE013F0040F07D004F148036B442B2203F8D4
S31508000AF0202C0134A8E7209B13F0080FA4D004F19A
S31508000B0048036B44202203F8202C01349CE700BFDD
S31508000B1038B50D46044626F024FE064A13889BB2CD
S31508000B202DB123431380BDE8384026F015BE23EACD
S31508000B300403F7E7204C00200022034B01214FF461
S31508000B4080709A70E4E700BF204C00207FB54E689D
S31508000B5002A9044624F0FBFD9DF808300C2B19D198
S31508000B60134BB3F90050134B9E4218D808F026FDD4
S31508000B7003460068694600909B882046ADF8043015
S31508000B8024F0D2FD70B140F25F620B490B480EF0BB
S31508000B90C1FCFEE7204614F0BFFA0546E3E720F05D
S31508000BA0D9F9E5E72946204624F0A4FD04B070BD2E
S31508000BB0F4510020FFC99A3B199C0208E4990208DF
S31508000BC0002330B5134C85B0CDE901330393237860
S31508000BD08DF8043026F0C5FDA288E38805469A42BA
S31508000BE00DD0E188A06801AAA18024F039FC58B18B
S31508000BF040F2DA62084909480EF08CFCFEE7A06864
S31508000C0024F007FC0128ECD0284626F0A5FD05B0FF
S31508000C1030BD00BF5C570020199C0208E499020801
S31508000C2038B50F4C656835B940F2C7720D490E489C
S31508000C300EF070FCFEE723F0C5FF284411F0BAFB5E
S31508000C4000F00700032809D164680921204624F02A
S31508000C50D5F8205C031F5842584138BD0020FCE7F0
S31508000C60204C0020199C0208E499020808B5114B8B
S31508000C709A78042A06D040F28E520F490F480EF091
S31508000C8049FCFEE71B881B0706D440F28F520A4927
S31508000C900A480EF03FFCFEE700210820FFF738FF60
S31508000CA00222074B98681A7313F0F0FFBDE8084054
S31508000CB022F080BB204C0020199C0208E499020807
S31508000CC05C57002010B5084CA06813F0DFFFA06839
S31508000CD024F09FFB012806D00122A0681146BDE832
S31508000CE0104024F098BB10BD5C57002038B5194D4C
S31508000CF0AB7833B140F22B72174918480EF00AFC4C
S31508000D00FEE726F02EFD2988044611F0060109D0D3
S31508000D1001214FF48070FFF7FBFE2046BDE83840FE
S31508000D2026F01ABD4FF48070FFF7F2FE13F000F9B3
S31508000D30012805D010F0FD0F05D1FFF741FFECE7BC
S31508000D40FFF7C0FFE9E740F24172034903480EF096
S31508000D50E1FBFEE7204C0020199C0208E4990208F2
S31508000D6070B50446064D95F90860FFF7BFFF12F007
S31508000D70DDFF314620466A68BDE8704012F00EBEB7
S31508000D80204C002008B50A4B1B88DB0606D440F227
S31508000D90A752084908480EF0BDFBFEE700211020BF
S31508000DA0FFF7B6FE13F040F9BDE8084022F002BB93
S31508000DB0204C0020199C0208E49902080D4B10B536
S31508000DC01B8804469B0713D500210220FFF7A0FEC7
S31508000DD0094B5A7BFF2A06D040F2E54207490848E4
S31508000DE00EF098FBFEE75C73BDE8104022F0E2BA0D
S31508000DF010BD00BF204C00205C570020199C02083B
S31508000E00E49902087047704707B5ADF80610014621
S31508000E1030B94FF4B572104910480EF07BFBFEE767
S31508000E20BDF8063033B940F26B120B490B480EF089
S31508000E3071FBFEE70A4B0DF10602986824F03EFDA9
S31508000E4030B140F26D12044904480EF063FBFEE728
S31508000E5003B05DF804FB00BF199C0208E499020878
S31508000E605C57002010B50E4CA37833B14FF4EA72E4
S31508000E700C490D480EF04EFBFEE7606019B1A17BE8
S31508000E80003918BF01212020FFF742FE074B08480A
S31508000E909B7B23760223A370BDE8104011F056B958
S31508000EA0204C0020199C0208E49902085C5700208F
S31508000EB03C4C002008B50CF0BDFD80F00100C0B226
S31508000EC008BD0A4B9A780AB1062A0CD11B8803F486
S31508000ED08B7343B9064B5A7BFF2A04D1187BFF381C
S31508000EE018BF012070470120704700BF204C002022
S31508000EF05C57002008B50CF08DFD0028FBD108BD15
S31508000F000C4B42889A8142789A730278DA738288FF
S31508000F101A82C2885A82C2685A61017A064A91734D
S31508000F20028A998C914204D001214FF400709A8468
S31508000F30EEE57047204C00205C570020094B9A8943
S31508000F4042809A7B4270DA7B02701A8A82805A8AB9
S31508000F50C2805A699B8CC260034A0382927B0272E2
S31508000F60704700BF204C00205C5700204B1E012B09
S31508000F7070B50C4606D940F2B7221A491A480EF03F
S31508000F80C9FAFEE7194D0A460146A86824F0C0FCCE
S31508000F9030B140F2B922134913480EF0BBFAFEE706
S31508000FA0AE6811F047F822460146304624F0AAFCFE
S31508000FB030B140F2BD220B490B480EF0ABFAFEE702
S31508000FC0AD6811F043F822460146284624F0A6FCEF
S31508000FD030B140F2C122034903480EF09BFAFEE7FE
S31508000FE070BD00BF199C0208E49902085C570020EE
S31508000FF0054BDB7B1B0913F00E0003D0052B8CBFBA
S3150800100000200120704700BF5C570020044BDB7BA3
S315080010101B0913F00E0F0CBF01200020704700BFFC
S315080010205C5700202DE9F04F15469A0580461F4665
S315080010308FB003D501218020FFF76AFDEB014FF041
S31508001040000955D5984C23889E0751D5974E737B32
S31508001050FF2B06D040F2AF42954996480EF05AFA51
S31508001060FEE7636833B94FF49662914991480EF0EA
S3150800107051FAFEE749460220FFF74AFDA37886F8AB
S315080010800D90042B03D101210820FFF741FD002311
S31508001090B06808A98DF82C3024F05BFB30B140F21B
S315080010A0BA42834983480EF035FAFEE7FFF7A0FFF8
S315080010B0B0B923F087FD8146606823F08EFD08A944
S315080010C08144B068ADF8249024F046FB30B140F274
S315080010D0C242774977480EF01DFAFEE7089BA362DD
S315080010E0A378032B02D1B06813F0D0FD22F062F981
S315080010F0B80702D50120FFF761FE15F0A84F02D008
S315080011000220FFF75BFEA90220D50021402003AC90
S31508001110FFF7FEFC2146404624F018FCB0B99DF8BE
S31508001120143008AA022B22D18DF82830BDF80C30CD
S31508001130ADF82030104612F003FE38B1404624F0D0
S3150800114003FC18B901214020FFF7E2FC2A0753D512
S31508001150564E0321B06803AA24F0B2FB814688B92B
S3150800116040F2FE42524953480EF0D4F9FEE7032BEB
S3150800117005BF8DF82830D4E900018DF82800C2E9AA
S315080011800001D7E79DF80C30B068072B40F01F81A7
S31508001190494608AA24F096FB30B140F20152444968
S315080011A044480EF0B7F9FEE7FFF722FFBDF80E2018
S315080011B0A0B9FFF72BFF78B1043292B2B06808A93C
S315080011C0ADF8242024F080FB40B140F21252384991
S315080011D038480EF09FF9FEE70232EEE7BDF80E003A
S315080011E00121073080B226F0EDF98246002842D167
S315080011F001210C2013F0DEFCA90705D52A4B1B8814
S315080012001A0701D5FFF732FDAB010BD500210420E3
S31508001210FFF77EFC244B9B78012B03D1234B986860
S3150800122013F034FD15F0284F03D000210420FFF7F2
S315080012306FFC7E060CD51C4C23881D0701D5FFF7CD
S3150800124015FD2388580703D500210420FFF760FC05
S31508001250F90540F1D88003A9404608AA24F0D7F832
S315080012600146002800F0BA8040F2D25210491148CF
S315080012700EF050F9FEE74FF0000B26F027F9CDF8EF
S3150800128000B00246BDF80E3004464946B06824F060
S315080012901FFBBDF80E3083420ED040F2225204499D
S315080012A004480EF037F9FEE7204C00205C57002072
S315080012B0199C0208E499020823F084FC204411F0E2
S315080012C079F800F007000228DFF8589124D199F838
S315080012D00230042B90D123F075FC504B20448278C1
S315080012E01B789A4288D159460820FFF711FC23F04B
S315080012F069FC204411F05EF89DF82E30C0F300100A
S31508001300307389F80830FFF78BFC00287FF474AF38
S31508001310B06813F0BBFC6FE723F054FC204411F0CF
S3150800132049F883064AD523F04DFC204411F042F8CB
S3150800133000F0070003280BD10921204623F05EFDA3
S3150800134014F800B0ABF1040CDCF1000B4BEB0C0B02
S3150800135001210420FFF7DCFBB06824F0CCFAC9F8B9
S315080013602C00BBF1000F30D0B9F8003058062CD548
S3150800137000214020FFF7CCFB0126BDF80E309DF872
S315080013802E200120E254BDF80E309DF82F2023446C
S315080013909A71BDF80E10089A0131214411F018F817
S315080013A0BDF80E3050461C44667126F063F91C4B96
S315080013B0187810F0D1FF21F0FDFF1DE799F80230EB
S315080013C0012B02D1B06813F061FC0026D5E724F0A2
S315080013D05BFA4946B06824F079FA0DE79DF80C30B7
S315080013E003F0BF02032A01D0022B0FD10D4C23882C
S315080013F05A0702D50420FFF78BFB23889B0702D5E3
S315080014000120FFF7DBFC0FB0BDE8F08F4FF4BF6299
S31508001410054906480EF07EF8FEE700BF8D4C002011
S31508001420B04B0020204C0020199C0208E4990208C1
S3150800143008B50246FFF7DCFD30B1072A06D80020BA
S31508001440034B83F8302008BD7020FCE70220FAE73A
S31508001450204C002008B50246FFF7CAFD28B1002037
S31508001460034B93F83030137008BD7020FCE700BFBB
S31508001470204C002008B5074B01460022986824F046
S3150800148047FA30B140F2EB22034904480EF042F81D
S31508001490FEE708BD5C570020199C0208E49902087B
S315080014A008B5074B01460022986824F02BFA30B19C
S315080014B040F2F122034904480EF02CF8FEE708BD75
S315080014C05C570020199C0208E499020808B5074BE6
S315080014D00146986824F028FA30B140F2F722044908
S315080014E004480EF017F8FEE708BD00BF5C57002059
S315080014F0199C0208E499020808B5074B9B7833B192
S3150800150040F20132054906480EF004F8FEE7BDE848
S315080015100840FFF7EBBB00BF204C0020199C0208CF
S31508001520E499020808B5054B0146986824F0E2F8E4
S31508001530002814BF8B20002008BD00BF5C57002080
S31508001540014B986813F0E8BD5C570020014BD8881A
S31508001550704700BF5C5700207FB50123ADF80E30F9
S315080015604FF6FE7309480093806800230DF10E02BA
S3150800157004A924F04CF8212800D020B9BDF81000A1
S3150800158007B05DF804FB4FF6FF70F9E75C570020DB
S3150800159008B5044B0146986823F0EDFFB0FA80F0D1
S315080015A0400908BD5C57002038B50B4D0446AB789A
S315080015B0012B0DD8FFF7ECFF60B1084BDC80AB7848
S315080015C01BB9FFF793FB002038BDFFF7F9FAFAE7D6
S315080015D03E20F9E78A20F7E7204C00205C570020D8
S315080015E0024B9B780BB9FFF781BB7047204C002054
S315080015F0014BD873704700BF204C002008B5064B36
S315080016004FF0FF31986823F02FFF0028B8BF03304A
S3150800161040F3870008BD00BF5C57002008B5044B9F
S31508001620986823F0A4FF034BB3FBF0F080B208BD23
S315080016305C57002040420F0030B58DB02C2204467E
S31508001640002101A824F08DFE01234FF002328DF807
S3150800165008306423CDE9032306930B238DF82C3039
S31508001660214B9B8CADF80A30FFF7C2FCA8B140F2BB
S31508001670F23307934FF47A7305930CB9FFF722FBFD
S315080016801A4D01A9A86813F01BFEC0B140F2AC625E
S31508001690174918480DF03EFFFEE7FFF7BFFF0C237A
S315080016A04343902B0793A3F10A02D8BF91230592CF
S315080016B0D8BF0793059B8B2BDFD88C23DCE7FFF776
S315080016C0A5FC60B10122A868114624F03BF930B1A7
S315080016D040F2AF62064907480DF01CFFFEE70CB959
S315080016E0FFF704FB0DB030BD204C00205C570020EE
S315080016F0199C0208E4990208F8B526F032F8554C08
S3150800170006462388D90503D5A37843BBFFF7EEFA27
S31508001710514D6B7BFF2B13D06B7B03F0FF0723BB6D
S31508001720FF236B73A378032B0AD100233046A370DB
S3150800173026F012F83846FFF713FB26F012F806468D
S31508001740A378042B08D12B7BFF2B05D02B7B022BF0
S3150800175014D1424810F0FAFCFF232B7327E000212E
S315080017604FF48070FFF7D4F9D2E76B7B012B4FF06B
S31508001770FF0314BF89278D276B73D6E72B7B13B11D
S315080017802B7B012B1ED1FFF74BFA0022FF212B7B67
S315080017900746DBB222772973002847D0012B0AD1E6
S315080017A064212E48A37010F0DCFCFFF709FA3046D6
S315080017B025F0D2FF06E03046A27025F0CDFF312095
S315080017C0FFF7CEFA23881A0608D500218020FFF7EE
S315080017D09FF9A86823F0F9FF12F007FC23889B05F8
S315080017E007D54FF400700021FFF792F90020FFF7A4
S315080017F023FF0CF00FF9608620B325F067FE012160
S315080018000546002013F0D6F9A678012E14D1002635
S315080018102677A670FFF76AFA284611F0E1FFA37843
S3150800182066867BB9BDE8F84012F080BAA0703046EB
S3150800183025F092FF3846C3E72EB1284611F0D0FFAF
S3150800184000236386F8BDFFF751FA284611F0C8FF52
S315080018506686F7E7204C00205C5700203C4C0020A9
S315080018608B4BF0B51B888B4C8B4D63848B4B85B0AB
S315080018701B68E3628A4B1B8823848A4B1B68A36216
S315080018802B88DB0700F1FC8001210846FFF740F9A9
S315080018900523854A04F1100104F10800AB7013F022
S315080018A0B7F928B1F522814981480DF033FEFEE7E4
S315080018B0A3682BB9F7227D497D480DF02BFEFEE77C
S315080018C07C4823F0ECFD70A3D3E90023CDE900237F
S315080018D04FF0FF324FF0FF33A06823F08FFE4FF42E
S315080018E08811A06813F090FC014630B140F20F123F
S315080018F06E496F480DF00EFEFEE76F4B1B78012B05
S315080019000ED16E4AA06813F051FAA06813F006FDCE
S31508001910E0B140F21B12654965480DF0FBFDFEE794
S31508001920674E316831B94FF48F72604960480DF0DF
S31508001930F1FDFEE7614AA06813F038FA33689B6840
S3150800194023B1DB6913B15B7803B1E373FFF704FED8
S315080019500146E080A06813F0A5FB064630B140F2C8
S315080019602D12524952480DF0D5FDFEE7554B012080
S315080019701B78C3EB431203EB8203DB00AB84FFF750
S315080019805BFEA76810F062FB32460146384623F034
S31508001990C5FF064630B140F23312444944480DF0BB
S315080019A0B9FDFEE740F203530427AB81464BAF73FC
S315080019B01B78EB73FFF732FE00EB80039B002B824C
S315080019C0FFF72CFEC00068823946A0686E6123F0D6
S315080019D0BDFD30B14FF4A172344935480DF09AFD7A
S315080019E0FEE73A46A06803A923F043FE042806D07A
S315080019F04FF4A3722D492E480DF08CFDFEE703A97E
S31508001A00012010F0F3FC0BF08BFD08224FF0FF319C
S31508001A10A06823F004FE30B140F24F12234924484F
S31508001A200DF078FDFEE713F0F9FD30B140F25512DE
S31508001A301E491F480DF06EFDFEE7FFF7D9FA68B19B
S31508001A401FF08AFA0146A06823F06EFE30B140F214
S31508001A505912164916480DF05DFDFEE7A468FFF712
S31508001A607BFD1A4B014603F10C02204623F0FAFCD3
S31508001A7030B14FF4B0720D490D480DF04BFDFEE73D
S31508001A8005B0F0BDAFF300800A0020FF4203000056
S31508001A90109F02085C570020204C0020149F020863
S31508001AA0129F0208189F0208390B0008199C0208A1
S31508001AB0E4990208690345EC714C00204D0B0008B7
S31508001AC0405500200159002000590020449C020876
S31508001AD008B5044B986823F04CFD034BB3FBF0F0B4
S31508001AE080B208BD5C57002040420F002DE9F04344
S31508001AF08C4D87B02B889B0706D440F24C728A49D6
S31508001B008A480DF007FDFEE7AB78033B012B06D9A3
S31508001B1040F24E72844985480DF0FCFCFEE76A687F
S31508001B2032B940F25172804980480DF0F3FCFEE765
S31508001B307F4E2C88F77B14F0200418BF4FF47A7474
S31508001B404FEA1718FFF754FA00287DD0B8F1020FAC
S31508001B500AD0A8F10303022B74D940F265727249C0
S31508001B6072480DF0D7FCFEE7032795F8303008EBEE
S31508001B70C80898446F4B104603EB4803B3F81C801B
S31508001B8023F02BF84FF4FA534343B3FBF8F37822C8
S31508001B907733B3FBF2F31F44C7EB0717AB78FF00A5
S31508001BA0BFB204F5347417FA84F4042BA4B203D133
S31508001BB007F6E8072744BCB2D5F8048023F002F8F4
S31508001BC00746686823F009F8074423F021F8BFB2EE
S31508001BD03F1A22F0F7FF404410F0ECFB7378C0F38D
S31508001BE040198DF80C30544BBFB2CDE904340024AB
S31508001BF023F01AF8009402463B464146B06823F0A3
S31508001C0045FE287EB278737812FB00F29342C4BF71
S31508001C109B1ADCB22B88F18813F0200FB068B180CC
S31508001C208DF80C4003AB76D000934A46434B23F01D
S31508001C300EFC002873D040F224723B493B480DF055
S31508001C4069FCFEE7062790E7FFF7E0F9002846D08B
S31508001C50384B07F00F0708EBC801394403EB41037B
S31508001C601046B3F81C9022F0B8FFB8F1000F2CD03C
S31508001C70B8F1010F2CD14FF00408400080B2F319D7
S31508001C8093F834304BB14FF4FA52023303444344C9
S31508001C909BB25343B3FBF9F39CB2AB78042B8BD1BD
S31508001CA0FFF7BCFC374497F834308146053398442F
S31508001CB0FFF70EFF0C2308FB00F003FB09F909EBFD
S31508001CC0C009A1441FFA89F476E74FF00208D6E75F
S31508001CD040F28672144915480DF01CFCFEE7FFF722
S31508001CE0F7FE0746686822F078FF09307843AB7834
S31508001CF004EBC000042B84B27FF45EAFFFF78EFCC2
S31508001D000746FFF7E5FE602358430C2303FB07004D
S31508001D10204484B250E74A4623F097FB89E707B088
S31508001D20BDE8F083204C0020199C0208E4990208BB
S31508001D305C570020449C020820A107002C4C002078
S31508001D40F8B5494C258815F0020506D040F27512FB
S31508001D50464947480DF0DEFBFEE7257725F001FDED
S31508001D60238806465A070CD5424B986823F0C3FDCC
S31508001D70E36AC01AA38C984203D929460420FEF7C1
S31508001D80C7FE304625F0E8FCA778022F37D125F0A4
S31508001D90E8FC2388064613F0040507D0364810F0F9
S31508001DA0D5F93046BDE8F84025F0D6BC25F0D4FC78
S31508001DB0606811F0F5FF20B1A570BDE8F840FEF7A0
S31508001DC0CFBF25F0CEFC6668054622F0FBFE304400
S31508001DD010F0F0FA10F0200F0CBF032304230121A2
S31508001DE03846A370FEF794FEFFF780FE284625F0D6
S31508001DF0B3FC01210846BDE8F84012F0DBBE042F0B
S31508001E0027D11C4B1B7BFF2B2DD1237EF3B125F04D
S31508001E10A8FC238805465B0704D5174810F096F9F1
S31508001E202846BFE725F098FC237E013B237625F05C
S31508001E3098FC044601210220FEF76AFEFFF756FECB
S31508001E40204625F089FC01210820D4E74020A3700C
S31508001E50B3E7012F07D10023A370064B986812F049
S31508001E6015FF3120A9E7F8BD204C0020199C02086F
S31508001E70E49902085C5700203C4C002038B5012143
S31508001E8004461020FEF744FE064B9D68FFF7C6FB86
S31508001E90012200FB04F1044B284623F0C1FA002076
S31508001EA038BD00BF5C570020850D000808B50A4BF1
S31508001EB01B88DB0606D44FF46172084908480DF002
S31508001EC029FBFEE710200021FEF722FE054B986845
S31508001ED0BDE8084023F0B2BA204C0020199C02083D
S31508001EE0E49902085C57002038B50E4D688E30B963
S31508001EF040F291320C490D480DF00CFBFEE725F037
S31508001F00E5FA0446688E25F0FFFA811F2144012070
S31508001F1010F06CFA064B0446986823F0ECFC001B9C
S31508001F2038BD00BF204C0020199C0208E49902081D
S31508001F305C57002010B5084C636833B94FF46872D3
S31508001F40064907480DF0E6FAFEE7064B986823F0BF
S31508001F50D2FCA36AC01A10BD204C0020199C0208A6
S31508001F60E49902085C57002038B50A4D688E30B9E6
S31508001F7040F2AA32084909480DF0CCFAFEE725F0E6
S31508001F80A5FA0446688E25F0BFFA044414F8020C34
S31508001F9038BD00BF204C0020199C0208E4990208AD
S31508001FA038B50A4D688E30B940F2B9320849094841
S31508001FB00DF0B0FAFEE725F089FA0446688E25F09A
S31508001FC0A3FA044414F9070C38BD00BF204C0020BE
S31508001FD0199C0208E499020838B50A4D688E30B98A
S31508001FE04FF47272084909480DF094FAFEE725F095
S31508001FF06DFA0446688E25F087FA044414F9010C34
S3150800200038BD00BF204C0020199C0208E49902083C
S31508002010024B1888C0F3C010704700BF204C002040
S3150800202030B585B005466C460D4B0FCB84E80F00DE
S315080020300DB12B6800930B4B21460022986813F0CC
S3150800204081F8044630B140F2E632074907480DF0F8
S3150800205061FAFEE7FEF7B4FD204605B030BD00BFC5
S31508002060CC9C02085C570020199C0208E4990208D7
S3150800207030B5154D87B004460DF10701A86823F061
S31508002080BFFA30B140F2F732104911480DF042FA62
S31508002090FEE79DF80720531EDBB2FD2B0FD90294ED
S315080020A0FF2A00D10394A86802A923F091FB40B146
S315080020B040F20442054906480DF02CFAFEE7012ACB
S315080020C0EFE707B030BD00BF5C570020199C020837
S315080020D0E499020808B5064B986823F088FB30B1E6
S315080020E04FF48262034904480DF014FAFEE708BD6E
S315080020F05C570020199C0208E49902080122024B49
S315080021001146986823F087B95C5700207047F8B5E0
S31508002110064604200D4622F037FD030622D5124F47
S31508002120BC78FCB926B1012E17D002242046F8BD8A
S3150800213001262846FFF72CFA0028F6D00B4800237C
S3150800214032462946806823F084F940B14FF48A6202
S31508002150074908480DF0DEF9FEE72646E9E70623B3
S31508002160BB70E3E77024E1E7204C00205C570020B1
S31508002170199C0208E4990208042010B522F004FD0F
S31508002180030611D5094CA378062B0DD1084B986880
S3150800219023F061F930B140F26A42064906480DF06B
S315080021A0B9F9FEE7A07010BD7020FCE7204C0020AE
S315080021B05C570020199C0208E49902081FB50446DA
S315080021C001A812F087FF9DF80D3053B14CB1064BAC
S315080021D02078617818700020A27859709A7004B037
S315080021E010BD0220FBE700BF5C5700201FB5044660
S315080021F001A812F06FFF9DF80D3053B14CB10020C5
S31508002200054B1A7822705A789B786270A37004B0CE
S3150800221010BD0220FBE700BF5C570020FFF7CEBFCA
S31508002220FFF7E4BF0348044B834202D0034B03B1D4
S315080022301847704718590020185900200000000058
S31508002240064B0749C91A891048BF0131491003D0FE
S31508002250044B0BB101481847704700BF18590020B6
S31508002260185900200000000010B5064C237843B921
S31508002270FFF7D8FF044B13B10448AFF300800123DE
S31508002280237010BDAE52002000000000B8D8020826
S3150800229008B5054B1BB105490548AFF30080BDE8F5
S315080022A00840FFF7CDBF00BF00000000A0220020B5
S315080022B0B8D80208A3F5803A704700BF174B002B21
S315080022C008BF134B9D46FFF7F5FF00218B460F46C7
S315080022D01348144A121A24F044F80E4B002B00D067
S315080022E098470D4B002B00D098470020002104008A
S315080022F00D000D48002802D00C48AFF300801BF0F3
S31508002300BBFB200029001CF06EF91BF04BF800BF40
S315080023100000080000000000000000000020002067
S3150800232000200020205300200000000000000000CC
S3150800233010B504F059FF094B0122094909480068FC
S3150800234004F010FE084C094920460AF087FF4FF4AE
S31508002350967120680FF005FF10BD00BF59260008CA
S31508002360F9220020E0560020B8220020DD270008C8
S31508002370084B5B78012B05D01BB9074B93F83B300C
S3150800238003707047054BD3F8A430C3F340030370BA
S31508002390704700BFB8230020BC22002000C00350AD
S315080023A010B5A14B93F86630042B0ED8DFE803F07E
S315080023B003132251620003787E2B07D09B4B012220
S315080023C09B499C48006804F0CDFD10BD964B012240
S315080023D083F86620F2E70378934981F83E300223B2
S315080023E081F86630914B01223D319248006804F02D
S315080023F0B9FDEAE703788C4A82F83F30032182F870
S3150800240066108D4AD2788AB98B4203D9102B01D02F
S31508002410112B13D1884903238B700123CB7000231A
S315080024204B7002221144092000F0B6FA7F4B0122B4
S315080024307F498048006804F095FDC6E77E49042375
S315080024408B700123CB7002221144092000F0A4FAF4
S31508002450ECE70378744981F84030042381F8663044
S3150800246091F83E20714B043A41317248006804F0F5
S3150800247079FDAAE76C4B002283F866206E4B9B78A1
S31508002480032B09D0042B7DD0684B01226849694883
S31508002490006804F067FD98E7634CA21C94F83E10A8
S315080024A004F13E001BF005FF20700028ECD1E2780D
S315080024B0614B1A7100225A704FF496715F4B186877
S315080024C00FF04FFE2379482B06D0432BDCD1564B11
S315080024D05A7983F83C20D7E7A37A84F83B30013B46
S315080024E0042BD1D8DFE803F0031221303F00032084
S315080024F002F072F80028C7D01CF00DF91CF00CF990
S315080025004F49504B18681FF02CFEBDE7032002F018
S3150800251063F80028B8D01CF0FEF81CF0FDF84A490C
S31508002520484B18681FF01DFEAEE7032002F054F86A
S315080025300028A9D01CF0EFF81CF0EEF84349414BEF
S3150800254018681FF00EFE9FE7032002F045F80028E2
S315080025509AD01CF0E0F81CF0DFF83D49394B1868B2
S315080025601FF0FFFD90E7032002F036F800288BD015
S315080025701CF0D1F81CF0D0F83649324B18681FF019
S31508002580F0FD81E7284C04F12F0294F83E1004F17F
S315080025903E001BF0F9FE607000287FF475AF94F8D2
S315080025A03010254B197194F8311083F8201094F8DF
S315080025B0321083F8201094F8332083F82020D2B202
S315080025C0C2F3C00093F8211060F3C71183F82110F5
S315080025D0C2F38000C9B260F3820183F82110D009E2
S315080025E0C9B260F3451183F82110C2F38010C9B24D
S315080025F060F3041183F82110C9B262F3000183F86D
S315080026002110C2F34000C9B260F3861183F8211085
S31508002610C9B260F3410183F82110CAB242F0080238
S3150800262083F8212030E700BFBC2200205926000885
S31508002630F9220020E0560020B8230020B822002006
S31508002640C87E0208A0280020D07E0208D87E02088C
S31508002650E07E0208EC7E020808B50248FFF7A0FEF5
S3150800266008BD00BFF922002008B5074B5B7803B107
S3150800267008BD0A4601460548006804F039FD4FF4CE
S315080026807A7004F021FEF3E7B8230020E056002014
S3150800269000B591B0264B5B7823B1012B20D011B041
S315080026A05DF804FB8DF814008DF815308DF816309A
S315080026B08DF81730032203920422029205AA01928A
S315080026C04322009202220A2106A81BF0D4FE0A2100
S315080026D006A8FFF7C9FF42F2107004F0F5FDDEE721
S315080026E0144BD3F8982722F01002C3F89827D3F88A
S315080026F0982722F00402C3F8982703F5805320226E
S315080027001A6400210C481EF082FB002304220521CE
S31508002710184606F005F9002301220621184606F098
S31508002720FFF8C821054B18680FF01BFDB7E700BF77
S31508002730B823002000C0035000C00550B82200206E
S3150800274000B58FB0234B5B786BBB224B9B78032B72
S3150800275015D0042B29D103930022029201920E234D
S3150800276000931346082104A81BF085FE082104A837
S31508002770FFF77AFF42F2107004F0A6FD15E0039306
S31508002780002302930193482200920222062104A8FC
S315080027901BF071FE062104A8FFF766FF42F21070CF
S315080027A004F092FD01E0012B0CD00A4BDB7833B91B
S315080027B0084B9B78042B09D0064B04229A700FB05D
S315080027C05DF804FB0448FFF7D3FDEEE7014B03224F
S315080027D09A70F4E7B8230020D623002008B50E4BDC
S315080027E020221A64FFF7ACFF0C4BDB7853B90C4A6E
S315080027F013780133DBB213700E2B06D9074B01226F
S315080028005A7002E0064B00221A704FF49671054B77
S3150800281018680FF0A6FC08BD00D00350B8230020A6
S31508002820AF520020B8220020F0B58FB005460E46FC
S31508002830174600240D940794089409940A940B9457
S315080028400C9406944FF48073059305A81BF018FDA5
S31508002850059B0993124B0A934FF41053ADF81C309D
S315080028608023ADF81E3008940C940DAB102229462F
S3150800287007A821F05DFC044610B120460FB0F0BD54
S3150800288006AB0293102301930097324604490D982C
S315080028900BF03AFF04460D9821F004FCEDE700BF63
S315080028A000444004F0B58FB005460E46174600248E
S315080028B00D940794089409940A940B940C9406941E
S315080028C04FF40073059305A81BF0DAFC059B0993E2
S315080028D0124B0A934FF41053ADF81C308023ADF811
S315080028E01E3008940C940DAB1022294607A821F037
S315080028F01FFC044610B120460FB0F0BD06AB02938C
S31508002900102301930097324604490D980BF0B8FF3F
S3150800291004460D9821F0C6FBEDE700BF00444004CD
S3150800292010B582B0044600201BF0B9FC08B902B005
S3150800293010BD00230093ADF80430054B1B88ADF895
S315080029400230ADF800406946032020F0D2FDEEE7DC
S315080029507C58002000B583B000230093ADF80430FE
S315080029600A4B1B88ADF80230094B1B88ADF80030BE
S31508002970684620F0BAFD20F0B4FD064BF0221A6036
S315080029800A2020F0BAFD03B05DF804FB7C5800204D
S31508002990EC510020A423002008B513460A46014638
S315080029A00448006803F062FD00B908BD02480CF04F
S315080029B0B1FDFAE714570020087F02080A2800D953
S315080029C0704730B583B004460D466B4601AA0146EA
S315080029D01048006803F0B0FC08B9019B23B10E4803
S315080029E00CF098FD03B030BD009B2A4621460948E5
S315080029F0006803F0E1FB40B9214608480CF08AFD5F
S31508002A00294607480CF086FDECE7214605480CF0F8
S31508002A1081FDE7E714570020107F0208347F02087B
S31508002A20507F0208587F02080A2800D9704710B557
S31508002A3004460146064B186803F0E6FD20B9214610
S31508002A4004480CF067FD10BD03480CF063FDFAE777
S31508002A50145700207C7F0208987F020808B5314B7E
S31508002A601B78012B21D0022B3DD003B108BD2E4B7C
S31508002A701B782E4A1278B3EB420F07DA01332A4A3B
S31508002A80137001212A481BF036FEEFE70023294A76
S31508002A901370254A137026481BF035FE264B012273
S31508002AA01A70264824F072FAE0E71F4B1B781F4A73
S31508002AB01278B3EB420F07DA01331B4A1370012170
S31508002AC01F481BF018FED1E700231A4A1370164A4E
S31508002AD013701B481BF017FE174B01221A70174874
S31508002AE024F054FAC2E7104B1B78104A1278B3EB5D
S31508002AF0420F07DA01330C4A1370012111481BF003
S31508002B00FAFDB3E700230B4A1370074A13700D4802
S31508002B101BF0F9FD084B01221A70084824F036FA12
S31508002B20A4E700BFB0520020B2520020B1520020E4
S31508002B3058910208B4520020F4580020242300209B
S31508002B40709102088891020808B53A4B5A79DA76E4
S31508002B505B79103B1B2B25D8DFE803F029242424B6
S31508002B602424242424242424240E2424242424242D
S31508002B7066242424242424202E4B9B7F012B05D055
S31508002B80032B07D00C20FFF783FD0BE00220FFF78D
S31508002B907FFD07E00120FFF77BFD03E0264B186861
S31508002BA00FF0D4FA254B1B6800221A7008BD214B7A
S31508002BB01B78012BF6D11F4BDB786BB31D4B9B782B
S31508002BC0032B19D0042BEDD11A4B9B79DBB2012BC1
S31508002BD016D0184B9B79DBB2022B15D0154B9B7977
S31508002BE0DBB2032B14D0134B9B79DBB2042BD9D160
S31508002BF012201BF02DFBD5E70C20FFF749FDD1E786
S31508002C0001201BF025FBCDE702201BF021FBC9E7BD
S31508002C1011201BF01DFBC5E7064B5B78012BC1D1C4
S31508002C200C20FFF735FDBDE7024B98791BF010FB2A
S31508002C30B8E700BFB8230020202400201C24002069
S31508002C4003787BBB70470133022B2DDC03EB430271
S31508002C50164911F83220002AF5D100B50A4603EBC9
S31508002C60430102EBC10C4FF0000E8CF801E04FF067
S31508002C70010C02F831C002EBC1030268D0F804E087
S31508002C80D0F808C0C168C3F80220C3F806E0C3F844
S31508002C900AC0C3F80E100269C3F81220828ADA82C3
S31508002CA05DF804FB0023CFE7704700BF44230020EC
S31508002CB030B583B004460D46174B1B7803B900257B
S31508002CC022B123788DF8003000230CE02046FFF768
S31508002CD0B7FFF6E7E118497803F109026A4402F8F2
S31508002CE0081C0133DBB2617D4A1E9342F2DB23786E
S31508002CF01C2B07D0232B05D02F2B03D0074B0322E1
S31508002D001A7002E0054B02221A706A46E8B201F010
S31508002D10FBFB03B030BD00BFB8230020F5580020E8
S31508002D2010B54A4B9B78032B08D0042B48D04FF498
S31508002D309671474B18680FF014FA10BD454C20469B
S31508002D40FFF716FB204610F81E39C27F9342EED0D5
S31508002D50A4F11E02D377127822B9A4F11E01497F85
S31508002D6001290CD0012AE2D13B481E220270437089
S31508002D700223437500220121FFF79AFFD7E70320B4
S31508002D8001F02AFC90B934481E23037006234375C4
S31508002D902E4A937F4370FF238370C3700371137F9A
S31508002DA0437100221146FFF783FFC0E71BF0B3FC0F
S31508002DB01BF0B2FC29492A4B18681FF0D2F9E2E742
S31508002DC0224A92F8213092F822209342AFD013F08B
S31508002DD0460201D0462AAAD11C4A92F8211082F846
S31508002DE0221012781AB91949497F01290CD0012AEB
S31508002DF09DD119482522027043700223437500228B
S31508002E000121FFF755FF92E7032001F0E5FB98B98A
S31508002E10114825230370062343750C4A92F821307E
S31508002E204370FF238370C3700371137F43710022BD
S31508002E301146FFF73DFF7AE71BF06DFC1BF06CFCB3
S31508002E400649074B18681FF08CF9E1E7B8230020FC
S31508002E5018240020D62300208C230020B07F0208E7
S31508002E60A028002000B583B08C461146084B187080
S31508002E70084B83F800C00023074A13700122019209
S31508002E800093064A064824F0FDFE03B05DF804FBED
S31508002E90B0520020B1520020F45800205D2A0008E4
S31508002EA02423002008B5044A1BF040FB034B18688E
S31508002EB00FF04CF908BD00BFBD2300201C240020DC
S31508002EC038B5044620F021FBA04201D8012038BDC0
S31508002ED00546032001F080FB0028F8D01BF01BFCF8
S31508002EE01BF01AFC2B4622460349044800681FF0CB
S31508002EF038F90020EBE700BFC07F0208A0280020B1
S31508002F0030B583B004468368C26853F822301D88FA
S31508002F102846FFF7D5FF08B903B030BD0023009354
S31508002F20ADF80430164B1B88ADF80230ADF80450E6
S31508002F306368E2689B1A012B1DDDA368013253F80A
S31508002F4022301B88ADF8003020F0CBFA6946032002
S31508002F5020F0CFFA0446032001F03EFB0028DBD020
S31508002F601BF0D9FB1BF0D8FB22460649064B18680E
S31508002F701FF0F7F8D0E740F2FF13ADF80030E3E7AB
S31508002F80EE510020F87F0208A028002030B583B053
S31508002F9004468368C26853F822301D882846FFF71E
S31508002FA08FFF08B903B030BD00230093ADF8043095
S31508002FB0154B1B88ADF80230ADF804506368E2681B
S31508002FC09B1A012B1BDDA368013253F822301B889C
S31508002FD0ADF800306946042020F08BFA0446032039
S31508002FE001F0FAFA0028DDD01BF095FB1BF094FBE4
S31508002FF022460649064B18681FF0B3F8D2E740F296
S31508003000FF13ADF80030E5E7EE51002018800208FE
S31508003010A028002030B583B004468368C26853F8F8
S3150800302022301D882846FFF74BFF08B903B030BD8C
S3150800303000230093ADF80430154B1B88ADF8023019
S31508003040ADF804506368E2689B1A012B1BDDA36880
S31508003050013253F822301B88ADF800306946022049
S3150800306020F047FA0446032001F0B6FA0028DDD01E
S315080030701BF051FB1BF050FB22460649064B18680D
S315080030801FF06FF8D2E740F2FF13ADF80030E5E71E
S31508003090EE5100202C800208A028002030B583B00D
S315080030A08368C26853F822301C780023019343686A
S315080030B09B1A012B19DD01AA01211EF022FB0146EC
S315080030C09DF8040020F009FA054680B1022001F0B7
S315080030D083FA60B11BF01FFB1BF01EFB2A4606494C
S315080030E0064B18681FF03DF801E020F0FAF9204673
S315080030F020F003FA03B030BD48800208A02800205B
S3150800310010B503468168C26851F82200B0F900007C
S315080031101A4C20805B689B1A012B0FDD013251F88F
S31508003120223093F90010003918BF012120F082F9E6
S31508003130A0B9032001F050FA10B910BD0021F5E737
S315080031401BF0E9FA1BF0E8FA0D4B1C6820F076F93B
S3150800315002460C4920461FF004F8EEE7012001F06C
S315080031603BFA0028E9D01BF0D6FA1BF0D5FA064937
S31508003170034B18681EF0F5FFDFE700BFEE5100208D
S31508003180A0280020AC800208C080020808B520F0FC
S3150800319045F9032001F020FA00B908BD1BF0BBFA77
S315080031A01BF0BAFA0249034B18681EF0DAFFF4E777
S315080031B0D8800208A028002008B58368C26853F89A
S315080031C022301A88094B1A80032001F005FA00B943
S315080031D008BD1BF0A0FA1BF09FFA044B1A88044995
S315080031E0044B18681EF0BDFFF2E700BF7E580020AA
S315080031F0F8800208A028002008B5024B18680EF0CF
S31508003200A5FF08BD202400202DE9F04186B020F056
S3150800321025F90446894B1B7813F0020F2CD0884EEB
S3150800322013F0010F2AD0864F13F0040F28D0DFF8C9
S315080032301082032001F0D0F928BB032001F0CCF955
S3150800324058BB032001F0C8F9002835D1032001F046
S31508003250C3F900283ED1032001F0BEF9002847D162
S31508003260032001F0B9F900285ED1032001F0B4F972
S31508003270002867D1002471E0724ED1E7714FD3E779
S31508003280DFF8C081D5E71BF046FA1BF045FA6E4910
S315080032906E4B18681EF065FFCFE71BF03CFA1BF073
S315080032A03BFA6A4B1D6805F013FD02460B46684952
S315080032B028461EF056FFC4E71BF02DFA1BF02CFA21
S315080032C0624B1D6820F09EF80246624928461EF0A9
S315080032D048FFBBE71BF01FFA1BF01EFA5B4B1D6885
S315080032E020F0C8F802465C4928461EF03AFFB2E7C5
S315080032F01BF011FA1BF010FAE279A37961792079AB
S31508003300E57894F802C094F801E024780594CDF89D
S3150800331010E0CDF80CC00295019000914F494B483A
S3150800332000681EF01EFF9BE71BF0F5F91BF0F4F989
S31508003330464B1C6820F096F80246494920461EF07E
S3150800334010FF92E71BF0E7F91BF0E6F945493F4BFA
S3150800335018681EF006FF8DE70134E4B2072C12D870
S31508003360032001F039F90028F6D01BF0D4F91BF038
S31508003370D3F9364B1D6820F071F8025D3A492846A4
S315080033801EF0EFFEE8E7032001F026F998B90320BE
S3150800339001F022F9C8B9032001F01EF918BB032071
S315080033A001F01AF968BB032001F016F9002836D196
S315080033B006B0BDE8F0811BF0AEF91BF0ADF92B495C
S315080033C0224B18681EF0CDFEE1E71BF0A4F91BF0AE
S315080033D0A3F91E4B1C6820F049F8024624492046EA
S315080033E01EF0BFFED7E71BF096F91BF095F9174BB1
S315080033F01C6820F01BF802461E4920461EF0B1FE46
S31508003400CDE71BF088F91BF087F9104B1C6820F0F4
S3150800341015F80246184920461EF0A3FEC3E71BF01E
S315080034207AF91BF079F9CDF800803B463246134904
S31508003430064800681EF095FEBAE700BFF55800205A
S31508003440608002086880020814810208A02800200B
S315080034501C8102083881020854810208708102081A
S3150800346094810208B0810208C48102084C7F0208D0
S31508003470CC810208E8810208008202081882020844
S3150800348030B583B08368C26853F822301C7801A926
S3150800349020461FF0C7FF88B9032001F09DF808B938
S315080034A003B030BD1BF037F91BF036F9019B2246F5
S315080034B00B490C4800681EF054FEF1E7054601204A
S315080034C001F08AF80028EBD01BF025F91BF024F947
S315080034D02A460549034B18681EF043FEE0E700BF7D
S315080034E050820208A02800206C82020870B5826803
S315080034F0C36852F823100C88013352F823301D781C
S31508003500294620461FF0E5FF80B9032001F064F83C
S3150800351000B970BD1BF0FFF81BF0FEF82B462246DB
S315080035200B490C4800681EF01CFEF2E7064601200F
S3150800353001F052F80028ECD01BF0EDF81BF0ECF87F
S3150800354032460549034B18681EF00BFEE1E700BF3B
S3150800355090820208A0280020C082020870B582B0B6
S315080035608368C26853F822301B78134A137013F025
S31508003570020F0ED0114C13F0010F0CD00F4D13F0A3
S31508003580040F0AD00D4E032001F026F838B902B010
S3150800359070BD0B4CEFE70A4DF1E7094EF3E71BF058
S315080035A0BAF81BF0B9F800962B4622460549064894
S315080035B000681EF0D6FDEAE7F5580020608002088C
S315080035C06880020874800208A028002030B58FB0F1
S315080035D004460D4668461AF0C0FF0DF1200EEC466B
S315080035E0BCE80F00AEE80F009CE803008EE8030075
S315080035F008A9464B186820F07EFD10F1880F46D1C1
S3150800360068461AF0AAFF0DF1200EEC46BCE80F003A
S31508003610AEE80F009CE803008EE803004FF4105351
S31508003620ADF820308023ADF822304FF4407307936D
S3150800363007A81AF0A2FF079B0A93354B0B93334B47
S315080036401A68099B0D9213F0FF0F04D123F0FF03AC
S3150800365043F001030993012309932C4B2A4621467B
S3150800366008A820F065FD044610BB032000F0B4FF4F
S3150800367090B9264B18681FF0CDFE0546002831D1B3
S31508003680032000F0A9FF044610BB01242FE01F4BBE
S31508003690186820F007FDB3E71BF03DF81BF03CF86F
S315080036A01A4B1A681B491C4B18681EF05AFDE0E7AE
S315080036B0032000F091FF0028DBD01BF02CF81BF04C
S315080036C02BF822461549144B18681EF04AFDD0E718
S315080036D01BF021F81BF020F811490F4B18681EF053
S315080036E040FD04E0032000F077FF044610B92046A9
S315080036F00FB030BD1BF00FF81BF00EF82A4609492B
S31508003700054B18681EF02DFD0024F0E7DC23002089
S3150800371000014405F0820208A02800202083020840
S31508003720448302086483020800B583B0002101912E
S3150800373001AA1DF0E6FF019910290ED0032000F01A
S315080037404BFF60B11AF0E7FF1AF0E6FF10220549B1
S31508003750054B18681EF005FD01E0FFF737FF03B0BB
S315080037605DF804FB84830208A028002010B588B001
S3150800377020F0E1FD032000F02FFFF8B901244A4BA1
S315080037801C6002A81AF010FF02A9204620F0B3FC1C
S3150800379010F1880F1CD0032000F01EFF00286ED100
S315080037A0414B18681FF036FE1FF08BFE04460320B7
S315080037B000F012FF00286CD108B010BD1AF0ABFF5C
S315080037C01AF0AAFF39493A4B18681EF0CAFCD5E721
S315080037D0032000F001FF002837D1334B1A68039BFA
S315080037E0079213F0FF0F04D123F0FF0343F0010300
S315080037F00393304B05934FF44073019301A81AF0D5
S31508003800E3FE019B04934FF41053ADF80830802370
S31508003810ADF80A3001230393234B1022264902A848
S3150800382020F086FC0446D0B9032000F0D5FE002817
S31508003830B6D01AF070FF1AF06FFF1B4B1A681F49B3
S315080038401B4B18681EF08DFCAAE71AF064FF1AF0E5
S3150800385063FF1B49164B18681EF083FCBDE703205F
S3150800386000F0BAFE00289BD01AF055FF1AF054FF54
S31508003870224614490E4B18681EF073FC90E71AF09E
S315080038804AFF1AF049FF1049094B18681EF069FCEF
S3150800389086E71AF040FF1AF03FFF22460B49044B11
S315080038A018681EF05EFC87E7DC230020AC8302085C
S315080038B0A0280020004440042C550020F08202086D
S315080038C0B883020820830208E08302080C840208F1
S315080038D010B588B0434B5B7F3BB1012B3BD0424BC5
S315080038E01B6800221A7008B010BD3E4B9A789DF8E6
S315080038F0043062F304038DF804309DF804306FF346
S3150800390046138DF804309DF8043003F01F03042B8A
S3150800391019D09DF8043003F01F03032B17D0032397
S315080039208DF81D309DF804308DF809302D4B1A7925
S315080039308DF80A209DF80820DA760022114602A89A
S31508003940FFF7B6F9CBE723238DF80830E7E71C2302
S315080039508DF80830E3E7234BDB7E1E2B22D0214B64
S31508003960DB7E2B2BBBD1214C2046FEF701FD2B23FA
S315080039708DF8083006238DF81D30204610F81E39BC
S315080039808DF80930FF238DF80A308DF80B308DF845
S315080039900C30037F8DF80D300022114602A8FFF780
S315080039A087F99CE7114C2046FEF7E2FC1E238DF8AA
S315080039B0083006238DF81D30204610F81E398DF87C
S315080039C00930FF238DF80A308DF80B308DF80C304E
S315080039D0037F8DF80D300022114602A8FFF768F91B
S315080039E0BDE700BFB823002020240020D6230020EE
S315080039F010B50C490C4809F031FC0C490C4809F083
S31508003A002DFC0C490C4809F029FC0C4C0C492046A5
S31508003A1009F024FCFEF78CFC642120680EF0A1FB5B
S31508003A2010BD00BF492B00081C240020212D0008CA
S31508003A3018240020D138000820240020142400204F
S31508003A404141000810B58AB01E490420FEF7B6FFAA
S31508003A500320FEF7E9FF0820FEF7E6FF0920FEF738
S31508003A60E3FF0A20FEF7E0FF1021174820F05FFC6D
S31508003A70B0B102221549684606F0DEF8E0B1114CED
S31508003A8000236377E370012204F11D010320FEF78A
S31508003A9083FF0222A1180920FEF77EFF0AB010BD97
S31508003AA010210948FFF792FD0128E2D110220649A4
S31508003AB00820FEF771FFDCE7022204490A20FEF718
S31508003AC06BFFDCE7B8230020A8230020EC51002078
S31508003AD070B506460D468B681B781C2B03D0232B26
S31508003AE001D0002432E02C4B5B7F002BF9D1002E4D
S31508003AF0F7D10122284901F81D2F0320FEF74CFFB4
S31508003B00EFE7254B1B78F3B904EB4402234B03EB91
S31508003B10C2035B780A2B07D12049D00001EBC20308
S31508003B2000220A545A7010E01C4904EB440C01EBBD
S31508003B30CC00012201F83C20134443706988023006
S31508003B40FFF7B6F801E0012B16D00134022C1DDC74
S31508003B50AB68197804EB4402104B03EBC2039B785D
S31508003B609942F2D1002ECCD10C49D00001EBC20308
S31508003B7000220A545A70E8E7084904EB4403D800BF
S31508003B8001EBC30300220A545A70DEE72B7B5B4223
S31508003B90014A137770BD00BFB823002044230020D4
S31508003BA010B504463D481AF0AEFDA4F19003062B65
S31508003BB05ED8DFE803F0040A1E5D5D334800C822BC
S31508003BC002210120FFF74EF910BD032000F004FD85
S31508003BD028B9642205210020FFF744F9F4E71AF012
S31508003BE09AFD1AF099FD2E492E4B18681EF0B9FA5F
S31508003BF0EFE7012000F0F0FC30B94FF47A720221A9
S31508003C000020FFF72FF9DFE71AF085FD1AF084FD8B
S31508003C102549244B18681EF0A4FAEEE7012000F0A7
S31508003C20DBFC30B94FF47A7202210020FFF71AF94B
S31508003C30CAE71AF070FD1AF06FFD1C49194B18688F
S31508003C401EF08FFAEEE7032000F0C6FC30B94FF4F9
S31508003C507A7202210020FFF705F9B5E71AF05BFD35
S31508003C601AF05AFD12490F4B18681EF07AFAEEE759
S31508003C70032000F0B1FC30B94FF47A72022100201B
S31508003C80FFF7F0F8A0E71AF046FD1AF045FD2246C0
S31508003C900849044B18681EF064FAEDE78891020893
S31508003CA024840208A02800203484020854840208C8
S31508003CB0788402089484020808B500201FF01DFCC9
S31508003CC00020034B1870034B18601FF0BBFB08BDA0
S31508003CD0B4520020A423002038B523F0C7FF414B77
S31508003CE01D68451B404B1B7803B938BD04463F4841
S31508003CF01DF01BF93E4B9D4205D93E4B1B7813B16F
S31508003D003D4B9D421ED93B4B1B7813B13A4B9D4206
S31508003D1022D83A4B1B7823B3012BE6D11FF076FB4A
S31508003D20002855D0364B1B68012B47D9354B1B68E5
S31508003D30E31A41F67862934233D8314A1368013B55
S31508003D401360D2E730481AF0B2FE30481AF0AFFED8
S31508003D502F481AF0ACFEC8E700212C4800F0A0FB5B
S31508003D60C3E71FF053FBB8B92A4B1B78002BBCD00E
S31508003D70244B1B68E31A41F678629342B5D9214B66
S31508003D801C60002122481AF0B6FC1F481AF0BBFC3A
S31508003D901E481AF0B8FCA8E700211C4800F080FB72
S31508003DA0A3E7184B1C60002119481AF0A4FC164812
S31508003DB01AF0A9FC15481AF0A6FCBEE7012B04D098
S31508003DC00021124800F06CFB8FE7FFF775FF8CE7C0
S31508003DD00D481AF098FC0D481AF095FC0C481AF094
S31508003DE092FC82E7E0230020B55200200040005BE9
S31508003DF000710200B652002000E20400B823002039
S31508003E00A42300203C55002058910208709102080E
S31508003E1088910208F458002030B58BB005460C4648
S31508003E20032000F0D9FBF0B96A4615491548FEF794
S31508003E30FBFC2F238DF8103011238DF82530EC4626
S31508003E40BCE80F00CDF81100CDF81510CDF81920F3
S31508003E50CDF81D30002221466046FEF729FFFFF700
S31508003E602BFF0BB030BD1AF056FC1AF055FC2B464A
S31508003E7022460549054800681EF073F9D4E700BFD5
S31508003E80A8230020F87E0208AC840208A028002097
S31508003E9010B500201FF019FB80B10446012000F080
S31508003EA09BFB00B910BD1AF036FC1AF035FC224609
S31508003EB00A490B4B18681EF054F9F3E7012000F085
S31508003EC08BFB0028EED01AF026FC1AF025FC0022FF
S31508003ED00449034B18681EF044F9E3E7E484020832
S31508003EE0A02800201085020810B504461AF0DBFC4D
S31508003EF010B94B4B9C4205D020461AF0D4FC012839
S31508003F0008D010BD23F0B2FE464B1860464B01227E
S31508003F101A70F1E723F0AAFE434B00221A70414BB0
S31508003F201B68C01AA0F51C33A3F201133F4A93423B
S31508003F300CD93F4B984228D93E4B1B785BB1012BD5
S31508003F4016D01FF0DEFAFFF77DFDDAE71FF0D9FA83
S31508003F50FFF778FDD5E7374901240C70224604207F
S31508003F60FEF71AFD642205212046FEF77BFFE8E7E7
S31508003F70304900230B7001220420FEF70DFD642250
S31508003F8005210120FEF76EFFDBE72B4B9842B8D8D8
S31508003F90284B5B7FCBB9274B1B7853B1012BB0D18C
S31508003FA0264B1B7873B9254B01221A70FEF7D2FCF3
S31508003FB0A7E7FFF76DFF224B00221A7021481AF077
S31508003FC071FD9EE7FFF778FE9BE71F4B1B789BB9B1
S31508003FD01D4B01221A70174B24225A7111229A710D
S31508003FE064211A4B18680EF0BCF84FF4FA61184BA6
S31508003FF018680EF0B6F884E7134B00221A700D4BBA
S3150800400024225A7112229A716421104B18680EF0F4
S31508004010A8F84FF4FA610E4B18680EF0A2F870E78C
S3150800402040910208E0230020B6520020FE700200EC
S3150800403000E20400B823002000710200B4520020F8
S31508004040F458002088910208B35200201C2400204E
S31508004050B822002030B4064D2978064C24F82100F1
S3150800406004EB8104A270E3700131297030BC7047FB
S31508004070B7520020E423002038B500231846FF2550
S315080040806FF07F0E08E0144800EB810191F902E019
S3150800409010461D460133DBB20B2B10D819460E4AC3
S315080040A002EB8302D278002AF4D00028EBD00A4C1F
S315080040B004EB830C9CF902407445EBDDE3E708B199
S315080040C0FF2D03D1054B00221A7038BD024B33F879
S315080040D02500FEF725FCF5E7E4230020B75200206B
S315080040E010B584B0144823F041FC002300930193D3
S315080040F002938DF80C300F238DF8093006238DF8BE
S31508004100093003238DF80A300C4C6946204605F021
S31508004110EBF804F500520223936104F58052D3614B
S315080041202B2007F015FD2B201DF0C6FF20461CF09E
S31508004130E7FE04B010BD00BF4C9402080040005BC7
S3150800414038B5012009F084F9114C21460420FEF700
S3150800415035FC04F11D010320FEF730FC0D4908204B
S31508004160FEF72CFC0C490A20FEF728FC0025A57052
S31508004170E5704FF4FA61094B18680DF0F2FFFFF786
S31508004180AFFF074B01221A70064B1B681D7038BD1E
S31508004190B8230020A8230020EC5100201824002072
S315080041A0B55200201424002008B5024B1B6803B141
S315080041B0984708BD5424002008B5024B5B6803B134
S315080041C0984708BD5424002008B5024B9B6803B1E4
S315080041D0984708BD5424002008B5024BDB6803B194
S315080041E0984708BD5424002008B5024B1B6903B143
S315080041F0984708BD5424002008B5024B5B6903B1F3
S31508004200984708BD5424002000B585B0094B1868A6
S31508004210094B1860094B0A4A13600A4A01920A4A6E
S3150800422012680292039301A91DF08DFA05B05DF894
S3150800423004FB00BF5C550020FC32002050550020CE
S31508004240F8320020009102082827002008B5024B02
S3150800425018681DF08CFA08BD5C55002038B507F0C3
S31508004260ADFC0446064D2B68D3F8B00207F09AFC5D
S3150800427028681DF096FA204607F094FC38BD00BF62
S315080042805C55002008B5034823F070FB024800F08F
S31508004290FBFE08BD64940208605500200023062032
S315080042A073B1704754B224B9013353B15DF8044B66
S315080042B070470228F8D008680A4908601046F3E7EC
S315080042C010B4094A52F823100A7A022AEAD9032AAC
S315080042D0EAD1441EE4B2012CE6D90868014908600F
S315080042E01046E1E7282700207455002010B5A2B033
S315080042F00DF1680C294C0FCCACE80F0094E80F00C0
S315080043008CE80F00002115911691179118911991B3
S315080043104FF480131593224B199310911191129112
S31508004320139114911F4B10931F4B14933C2201A811
S3150800433022F017F801AC0DF1540CBCE80F000FC4BD
S31508004340DCF80030236006AC0DF1400CBCE80F0029
S315080043500FC4DCF800302360144B0B9320230C9316
S3150800436001238DF834308DF835308DF83630104B02
S315080043700F93104B1AAA01A90F4807F0CBFC044665
S315080043809DF837303BB100214FF4E1301AF000FABE
S31508004390204622B010BD0321F6E700BF209102088F
S315080043A03C00015B010010004400015B2C27002043
S315080043B0885500204C2700200828002008B531B968
S315080043C0084B1868036823B108F0BAF801E0012918
S315080043D000D908BD034B18680368002BF9D01EF0F6
S315080043E0A2F9F6E79C55002008B50349034808F0EA
S315080043F01BFAFFF77BFF08BDA055002030280020D8
S3150800440008B502481DF0F3FE08BD00BF08280020C5
S3150800441008B502481DF0EBFE08BD00BF08280020BD
S3150800442008B5024B5A6A1868904708BD0828002044
S3150800443008B502481AF030FA08BD00BF40910208D4
S3150800444008B505481AF029FB04481AF026FB044863
S315080044501AF023FB08BD00BF889102087091020874
S315080044605891020818B1034A1060002070472520A9
S31508004470704700BF3828002010B5044C044920684E
S3150800448002F088FC2068FFF7EDFF10BDE05600201B
S31508004490BC550020014B1868704700BF382800201B
S315080044A008B539BB154B984206D0154B98420DD026
S315080044B0144B984214D008BD18461AF0F3FA10485F
S315080044C01AF0F5FA0F481AF0F2FAF4E70B481AF060
S315080044D0EEFA0B481AF0E6FA0A481AF0E8FAEAE79A
S315080044E006481AF0E4FA06481AF0E1FA05481AF0FE
S315080044F0D9FAE0E71AF0DBFADDE700BF58910208BF
S31508004500709102088891020800B583B00B460549E8
S31508004510097801910092002201211EF0C3FF03B021
S315080045205DF804FBF558002010B584B0044683688E
S315080045301A782F2A07D0234A527F002A2FD0012A19
S3150800454036D004B010BD1F4A527F002AF3D16C46FC
S31508004550D3F80100D3F80510D3F80920D3F80D30A5
S315080045600FC4194C224669461848FEF79BF91021D4
S315080045702046FFF72BF80028E3D010222146082012
S31508004580FEF70AFA0F4B5B7F002BDAD1104B1B782C
S31508004590002BD6D00F4B18680DF0D8FDD1E7A179BE
S315080045A018461AF0B4F863795B42064A1377C8E7E7
S315080045B0A17918461AF0ABF863795B42014A13777A
S315080045C0BFE700BFB8230020A8230020F87E020812
S315080045D0B55200202024002003460B4A107828B143
S315080045E00A4A12789A4202D2002000E00120084ABC
S315080045F012783AB1074A127842FA03F313F0010F18
S3150800460000D10020704700BFF8580020F758002056
S31508004610B9520020F658002008B5084B01221A7036
S31508004620074B00221A70074B04221A70064B1F22EA
S315080046301A7007F0C3FA054B186008BDF858002031
S31508004640B9520020F7580020F6580020A02800206C
S3150800465008B5054823F08AF919F0ECFF01201AF08D
S3150800466064F800F0B1F808BD6494020808B5024879
S3150800467023F07CF908BD00BF649402082DE9F041D7
S3150800468080460F4601F109050026344604E05B2101
S31508004690082000F0C1FA0134AC4233D2052C1BD8ED
S315080046A001A353F824F000BF8F460008C14600084E
S315080046B0F5460008C9460008CD460008D146000858
S315080046C0FBB20433D9B2E3E78021E1E70021DFE753
S315080046D0731C3146DEB2DBE7BB1DA3420CD0FB1DC3
S315080046E0A3420BD007F10803A34209D0A31F18F869
S315080046F00310CDE7D121CBE75A21C9E75A21C7E7ED
S315080047005D21C5E70020BDE8F08100BF00B583B094
S31508004710002300930193FFF7BDFE114B1860012398
S315080047208DF8003090F8363093B100200C4B1B689A
S3150800473093F8351002290FD003290FD11AF00BF878
S31508004740019008216846FFF799FF03B05DF804FB5E
S3150800475000681CF047FBE9E70321EFE70021EDE7D6
S31508004760A428002000B583B00022009201920221FD
S315080047708DF80010054819F0F3FF019008216846E6
S31508004780FFF77CFF03B05DF804FB00BF006A180062
S3150800479000B583B0044B1B88ADF8043001A800F0BF
S315080047A017FB03B05DF804FBA091020800B583B0BF
S315080047B0044B1B88ADF8043001A800F0D9FA03B001
S315080047C05DF804FBA09102082DE9F04F97B04D4D16
S315080047D009AC2E1D0FCE0FC43368236001AC05F15A
S315080047E018060FCE0FC496E80F0084E80F00464857
S315080047F023F0BCF8454823F0B9F801268DF809607E
S3150800480000248DF80840424B0B9301AB0D93414FA2
S3150800481009A938461CF0F6F9B5F838B0ADF838B03D
S31508004820324604210EA800F067FAB5F83CA0ADF8A8
S315080048303CA0224631460FA800F05EFAB5F8409033
S31508004840ADF840903246042110A800F055FAB5F8A4
S315080048500080ADF844803246042111A800F04CFAD5
S315080048602D4D2E4BC5F8F8344FF00213C5F8F43425
S31508004870A3F58033C5F8FC341C23C5F8E4344FF49B
S31508004880487008F089FCFFF783FF142008F084FCC1
S31508004890FFF78CFF232008F07FFCFFF779FFB9218B
S315080048A038461CF097F9FFF781FFADF848B0224665
S315080048B0214612A800F020FAADF84CA0224621465F
S315080048C013A800F019FAADF850903246214614A8FC
S315080048D000F012FAADF854803246214615A800F0C9
S315080048E00BFA384603F0A6FDC5F8E444C5F8F844C3
S315080048F0C5F8F444C5F8FC44044823F03CF817B05E
S31508004900BDE8F08FA0910208649402086894020832
S31508004910E070720000000A5000C003500200030055
S3150800492008B50448044A121A9210044919F043FFBC
S3150800493008BD00BF8001000880030008205300203E
S3150800494008B5154B83F30A8800F030F8FFF7E8FF3F
S31508004950124A0AE01068516850F8230041F823000B
S31508004960013391688B42F5D30C320D4B9A4201D232
S315080049700023F6E70B4A08E01168002041F82300F7
S31508004980013351688B42F7D30832074B9A4201D25A
S315080049900023F6E7FDF792FC00000020C0D80208C5
S315080049A0CCD80208CCD80208CCD8020870B5134B6C
S315080049B0134A9A60D3F8882042F47002C3F8882014
S315080049C0104A4FF4804191660F4D05F500544FF09B
S315080049D0FF3222660D4A62660222C3F8D020BFF370
S315080049E04F8FBFF36F8F002007F0B2F84FF44036B1
S315080049F0E66000201DF060FB2E6170BD00ED00E052
S31508004A000000000800900050008000447FFF7F01EE
S31508004A10014B1860704700BFE856002008B5064BE2
S31508004A201860064B1B6F03F00703032B00D008BD65
S31508004A3021F01EFFFBE700BFF05600200080005063
S31508004A40BFF34F8F0549CA6802F4E062044B13436B
S31508004A50CB60BFF34F8F00BFFDE700BF00ED00E05E
S31508004A600400FA05F0B18446F1B110B409E004F186
S31508004A7020000FE02033C01A18D1BCB10CF1010C8C
S31508004A8001319CF800400B4B1B5D03F00303012B1F
S31508004A90EDD020460B78074AD25C02F00302012AC1
S31508004AA0E9D1E7E701207047012070475DF8044B1C
S31508004AB0704700BF85D7020830B587B00546046839
S31508004AC023798DF80C3063798DF80D301B4822F068
S31508004AD04DFF0022012103A800F00EF90DF10B018C
S31508004AE003A819F0A3FF9DF80B3083F00103237088
S31508004AF0A379022B02D0002007B030BD4FF0FF3358
S31508004B000593049300950E4B002205A903A800F00F
S31508004B102FFA059BB3F1FF3F07D00095084B0122FA
S31508004B2004A903A800F084F9E5E70095044B0422DC
S31508004B3004A903A800F07CF9DDE700BF6494020825
S31508004B40B5E8010810B582B0002401942A4822F07D
S31508004B500DFF8DF8004003238DF801300122042152
S31508004B60684600F0C9F8254B0122C3F8442401A978
S31508004B70052022F0F4FE00283BD1214BD3F8F02083
S31508004B8042F00102C3F8F020D3F8FC2042F080720C
S31508004B90C3F8FC20A3F55D431A4A1A60019B03F586
S31508004BA0D52303F2FC43DB08174AA2FB03239B0A1F
S31508004BB0013B164A13610223C2F8F0304FF48073A2
S31508004BC0C2F804334FF06043114AC3F8B02F114AB4
S31508004BD0C3F8802ED3F8002E42F48072C3F8002E54
S31508004BE0FF2283F82020D3F8002E22F48072C3F81F
S31508004BF0002E02B010BD00BF6494020800D0035016
S31508004C0000ED00E0FF03004017916502000004E094
S31508004C1055CEACC5090001004FF06043D3F8803E7D
S31508004C2013F0010F01D1112070470E4AD2F8FC305B
S31508004C3043F08073C2F8FC304FF06043D3F8002E7F
S31508004C404FF0010C0CFA00FC42EA0C02C3F8002EE5
S31508004C5053F82030002BE8D04FF0604303F82010BB
S31508004C600020704700ED00E010B504460FE0012370
S31508004C70834024EA03040F2814D800EB40020E4BA5
S31508004C8003EB82035A6812B19968C0B2904794B18F
S31508004C90234600201F28EAD813F0010FE7D1013078
S31508004CA05B08F7E7103800EB40039B00B033024A75
S31508004CB013440433E6E710BDA828002008B50D48BC
S31508004CC022F054FE1A2006F009FF28B91B2006F028
S31508004CD005FF40B9002008BD1A2006F039FF1A2042
S31508004CE01DF0EAF9F2E71B2006F032FF1B201DF043
S31508004CF0E3F9EFE7649402082DE9F04170B30C4636
S31508004D00174605460F292BD803784BB1022B20D01E
S31508004D10032B21D0012B01D0002303E07F2301E0E0
S31508004D2040F2FF736A78D34013F0010F1AD00F4B85
S31508004D30D3F81063C6B922F014FD80463A462146D8
S31508004D40284604F015F9404622F006FD3046BDE82F
S31508004D50F08140F2FF33E5E73F23E3E72226F5E754
S31508004D602126F3E72126F1E70226EFE700C00350E4
S31508004D7040B310B5044603784BB1022B1DD0032B64
S31508004D801ED0012B01D0002303E07F2301E040F26F
S31508004D90FF736278D34013F0010F15D022F0E1FCBF
S31508004DA0237862780121914003EB43031B01074AEC
S31508004DB0D15022F0D1FC002010BD40F2FF33E8E7C5
S31508004DC03F23E6E7222070472120F5E740D003502D
S31508004DD040B310B5044603784BB1022B1DD0032B04
S31508004DE01ED0012B01D0002303E07F2301E040F20F
S31508004DF0FF736278D34013F0010F15D022F0B1FC8F
S31508004E00237862780121914003EB43031B01074A8B
S31508004E10D15022F0A1FC002010BD40F2FF33E8E794
S31508004E203F23E6E7222070472120F5E740E00350BC
S31508004E30002866D02DE9F0410C4615461F46064661
S31508004E40002960D002784AB1022A3ED0032A3FD010
S31508004E50012A01D0002303E07F2301E040F2FF731B
S31508004E607178CB4013F0010F01D1FF2A4DD1022DE5
S31508004E7001D9042D4BD122F074FC80463378FF2BE0
S31508004E8028D12368B3F1FF3F2BD02268B2F1FF3F48
S31508004E9032D0204B02EB420203EB820257602268B3
S31508004EA002EB420203EB8203069A9A603378FF2BE1
S31508004EB005D0226801239340174AC2F82434404695
S31508004EC022F04AFC0020BDE8F08140F2FF33C7E734
S31508004ED03F23C5E72A462168304604F0B3F8206028
S31508004EE0CFE73378FF2BD0D10C4BD3F82414707846
S31508004EF01BF0B0FF2060C8E7404622F02DFC2D20AD
S31508004F00E1E7222070472220DDE72120DBE7212088
S31508004F10D9E700BFA828002000D0035000C00350DE
S31508004F20B0F1FF3F1AD038B504460F2818DC002820
S31508004F3018DB22F016FC0123A3400B4AC2F82034E2
S31508004F40C2F82434094B04EB440203EB8202002521
S31508004F505560956022F000FC284638BD2120704730
S31508004F602120FAE72120F8E700E00350A8280020CE
S31508004F70002856D02DE9F0410C4617461E46054630
S31508004F80002950D0017849B1022939D003293AD0ED
S31508004F90012901D0002303E07F2301E040F2FF73DB
S31508004FA06A78D34013F0010F01D1FF293DD122F0D1
S31508004FB0D8FB80462B78FF2B27D12268B2F1FF3F1A
S31508004FC02AD01B4B02EB420203EB8202C2F8B860FE
S31508004FD0226802EB420203EB8203069AC3F8BC205E
S31508004FE02B78FF2B06D02268103201239340114AF2
S31508004FF0C2F82434404622F0AFFB0020BDE8F08119
S3150800500040F2FF33CCE73F23CAE73A4621682846F1
S3150800501004F0B8F82060D0E7404622F09DFB2D202A
S31508005020ECE7222070472220E8E72120E6E700BFC8
S31508005030A828002000D0035008B5084BD3F824044C
S31508005040D3F82024104000F0553020F0502003F506
S315080050500053C3F82004FFF707FE08BD00C003503D
S3150800506008B5084BD3F82404D3F82024104000F0E0
S31508005070AA3020F0A02003F50053C3F82004FFF758
S31508005080F3FD08BD00C0035070B586B00546036839
S31508005090B3F1B64F27D0304A934222D04FF0FF36AD
S315080050A0B3F1B64F21D02C4A934252D12B4822F065
S315080050B05DFC2B798DF804306B798DF80530AB796A
S315080050C08DF80030EB798DF8013001220A2101A80C
S315080050D0FFF712FE01220A216846FFF70DFE00249B
S315080050E012E00126DCE70026DAE71D48DFE701A81B
S315080050F0FFF76EFE642008F04FF801A8FFF738FEA8
S31508005100642008F049F80134092CF0DD154A02EB51
S3150800511006110323C1F8383568792B7943EA004329
S31508005120C1F83C35E979AB7943EA0143543636018F
S31508005130935101238DF808308DF80930EB680493F4
S31508005140AB6803932B7C8DF8143002A9286803F00A
S3150800515073FC06B070BD00BF008006505C94020860
S315080051606094020800C0035010B582B004460A488D
S3150800517022F0FCFB23788DF8043063788DF805302F
S31508005180A278B2FA82F2520904210DEB0100FFF768
S31508005190B3FD002002B010BD64940208F0B585B0D6
S315080051A00C4694469DF83410664A1278002A00F098
S315080051B0BD800546BCF1070F00F2BA800A9A002A9C
S315080051C000F0B8800B9A002A00F0B6800E9AB2F565
S315080051D0006F00F3B38001285BD05B4A02EB0C1228
S315080051E0127B002A00F0AC80002200920192029203
S315080051F00392564A02EB4C1E002C4FD14FEA4C162E
S3150800520000209051CEF80400CEF80800CEF80C0025
S315080052109EF8020040F010008EF802009EF8030087
S3150800522040F030008EF8030021B9C1B241F0030105
S315080052308EF8031000930E9B013B444A4FEA4C102C
S3150800524002EB4C11165A63F30E1616520A9B8B6024
S315080052500B9B4B60CB789DF83C2062F38303CB70A5
S31508005260012D36D0109B002B56D0374A4FEA0C1129
S3150800527002EB0C1310985050119A5A6000249C6047
S315080052805D7372466946604603F04CFC204605B0DD
S31508005290F0BD0C9A002AA0D12D48F8E72B4F4FEA0B
S315080052A04C1607EB4C120020B85150609060D06045
S315080052B0907840F010009070D07840F00300D070DD
S315080052C00029B7D107EB4C12C1B241F03001D170B9
S315080052D0B0E70E460A7B42F001020A73D2B242F0E8
S315080052E002020A73CA68042161F39F02F26006F19A
S315080052F0100796E80F0087E80F00F2696FF00301C0
S3150800530061F39F02F2610C9B7361012CAAD10B9A7F
S31508005310B2610C9A7260A5E7002DA6D10B4B03EB80
S315080053204C139A786FF304129A709EE70948AEE711
S315080053300748ACE70648AAE70548A8E70448A6E7E9
S315080053400548A4E7BA520020102B0020102A002096
S31508005350018000F0028000F0078000F0134B1B78F4
S31508005360FBB110B50446F0B122F0FBF90023072B78
S3150800537013D80F4A02EB0312127B0AB10133F6E780
S3150800538023600B4A190102EB031301241C73002442
S31508005390545022F0E1F9204602E022F0DDF90548F2
S315080053A010BD054870470548FAE700BFBA52002005
S315080053B0102B0020048000F0028000F0018000F02D
S315080053C038B522F0CEF904460023072B06DC0C4A32
S315080053D002EB0312127B12B90133F6E7002222B15F
S315080053E0204622F0B9F9074838BD03F047FB0025E7
S315080053F0054B1D70204622F0AFF92846F4E700BF9A
S31508005400102B0020058000F0BA5200200F4B1B78A5
S31508005410BBB110B50446072815D822F0A2F90C4BE3
S3150800542003EB04131B7B1BB922F096F909480BE022
S31508005430074B03EB041300241C7322F08DF9204656
S3150800544002E005487047054810BD00BFBA52002063
S31508005450102B0020068000F0028000F0018000F08A
S3150800546000B583B0134B1B68019300238DF80430F5
S3150800547022F077F9104B1B7833B90F4B01221A70BB
S3150800548022F06AF9002309E022F066F90B480EE0DB
S315080054900B4A02EB0312002111730133072BF7DDC8
S315080054A008238DF8073001A803F00CFB002003B091
S315080054B05DF804FBE4910208BA520020038000F06C
S315080054C0102B002010B5104C2478BCB1072817DC27
S315080054D00E4C04EB0014247BA4B10C4C4FEA001EBE
S315080054E004EB001C44F80E30029BCCF80430002470
S315080054F0CCF8084003F016FB204610BD0448FCE72C
S315080055000448FAE70448F8E7BA520020102B0020AE
