S0160000476174655F4C525F436F6E6E6563742E73333737
S315080000000020002065420008F9DB0108F9DB010839
S31508000010D7240208F9DB0108F9DB0108F9DB010836
S31508000020F9DB0108F9DB0108F9DB0108F9DB01084E
S31508000030F9DB0108F9DB0108F9DB0108F9DB01083E
S31508000040F9DB0108F9DB0108F9DB0108F9DB01082E
S31508000050456C0008F9DB0108F9DB0108F9DB010842
S31508000060F9DB0108F9DB0108F9DB0108413D000865
S31508000070313D0008F9DB0108F9DB0108F9DB010865
S31508000080F9DB0108F9DB0108F9DB0108F9DB0108EE
S31508000090F9DB0108F9DB0108C14E0008F9DB0108A4
S315080000A0F9DB0108F9DB0108854900085D49000804
S315080000B0F9DB0108F9DB0108E1AF01088DBA01088F
S315080000C0F1550208ED55020841B201080756020823
S315080000D0F55502085DBA0108F9550208F1BA010892
S315080000E029BB0108F9DB0108F9DB0108B1CB0008D7
S315080000F0F9DB0108F9DB0108F9DB0108F9DB01087E
S31508000100F9DB0108F9DB0108F9DB0108F9DB01086D
S31508000110F9DB0108F9DB0108F9DB0108F9DB01085D
S31508000120F9DB0108F9DB0108F9DB0108F9DB01084D
S31508000130F9DB0108F9DB0108F9DB0108F9DB01083D
S31508000140F9DB0108F9DB0108F9DB0108F9DB01082D
S31508000150F9DB0108F9DB01080B710208CD940108E7
S31508000160F9DB0108F9DB01088B55020891550208ED
S31508000180194A5AB3194BDB6913F0040F29D110B475
S315080001900AE003EA00048C4210D0013AB2B1134BCC
S315080001A0DB6913F0040F14D110F0010FF1D1104CD4
S315080001B01C40002CEDD06FF001000CE00C4A1A40F0
S315080001C00AB9002007E06FF0010004E06FF00200B2
S315080001D001E04FF0FF305DF8044B70476FF0020006
S315080001E070474FF0FF307047809698000000035024
S315080001F0020001000D4BDB6913F4803F12D170B584
S315080002000A4B03F580560124F46003F500552C6467
S315080002104FF480721A6100212046FFF7B1FF34645B
S31508000220EC6070BD6FF00100704700BF000003501E
S3150800023010B5124B4FF480329A6603F51C33DC690D
S31508000240144041F67132DA6303F580520121D16018
S31508000250586102221A6100212120FFF791FF40B15F
S31508000260074B0122DA601CB1A3F500530022DA63BA
S3150800027010BD00212120FFF783FFF1E70090005011
S315080002800020035038B51A4B5861DB6913F0040F88
S315080002902AD10C4654F8041B154B9961151F06E024
S315080002A0214651F8042B124B9A61043D0C465DB168
S315080002B008210846FFF764FF03460028F0D00C4AD9
S315080002C004211161184638BD094B04221A61002120
S315080002D02120FFF755FF03460028F3D100212120EE
S315080002E0FFF74EFF0346EDE74FF0FF33EAE700BF9F
S315080002F0000003502DE9F0410F46164605461A4BF5
S315080003004FF480329A6603F51C33DA6902F48038B2
S3150800031041F67132DA6303F580530122DA6000236D
S3150800032002E025442744361B8EB105F5005424F413
S31508000330FF5424F01F04641BB44228BF34462246E7
S3150800034039462846FFF79EFF03460028E9D0074AA4
S315080003500121D160B8F1000F03D0A2F500520021A7
S31508000360D1631846BDE8F081009000500020035084
S31508000370000000000000000000000000000000006F
S31508000380013800D0FCE770472DE9F04F2DED028BC0
S3150800039093B082460C4693461D4657EC106B8DED7E
S315080003A0080B32463B46304639461CF091F8002881
S315080003B000F009814FF0FF32B14B304639461CF048
S315080003C0AFF8002840F0FF804FF0FF326FF480133B
S315080003D0304639461CF086F8002840F0F4800022A2
S315080003E00023DDE90867304639461CF07BF800280B
S315080003F040F0FC809DED087B8DED067B209B13F479
S315080004008063119301D106231E93DDE90601024696
S31508000410C1F30A50C1F31303904643F07F5949F4D8
S315080004204019A0F2FF301BF081FD83A3D3E9002316
S315080004301BF0E6FD82A3D3E900231BF02BFC06463E
S315080004400F4600228F4B404649461BF021FC7EA3EF
S31508000450D3E900231BF0D4FD02460B463046394645
S315080004601BF018FC1CF066F806461BF05FFD80467C
S31508000470894677A3D3E900231BF0C2FD0022824BED
S315080004801BF008FC1CF056F8074673A3D3E90023B3
S31508000490404649461BF0B4FD8046894638461BF05F
S315080004A045FD6FA3D3E900231BF0AAFD02460B46C0
S315080004B0404649461BF0ECFB8046894602460B46F9
S315080004C01BF09EFDCDE90C0107F2FF370021002243
S315080004D0CDE90A123B050B9300230A9342464B4685
S315080004E0404649461BF0D6FBCDE90E0142464B462F
S315080004F000204FF080411BF0CBFB80468946002246
S31508000500624BDDE90C011BF0A5FE0022604B1BF0D7
S31508000510C1FB02460B46DDE90C011BF09BFE0022DF
S315080005205C4B1BF0B7FB02460B46DDE90C011BF0E2
S3150800053091FE02460B46404649461BF0ABFB024677
S315080005400B46DDE90E011BF085FE0022524B1BF01F
S31508000550A1FBDDE90A231BF053FD8046894649ECD9
S31508000560188BDDE906231BF0DBFF40B1013E0022B4
S31508000570474B404649461BF06DFE41EC180B06F109
S315080005806303C62B3BD80427209B13F4006F40D087
S3150800059035A3D3E90023DDE90689404649461BF021
S315080005A0B5FF00283BD032A3D3E90023404649468D
S315080005B01BF098FF002832D01E9BB34221DD9E1BFC
S315080005C0731E1E931FE0209B02931F9B01931E9B85
S315080005D000939DED080B2B465A462146504600F0DF
S315080005E0CBF813B0BDEC028BBDE8F08F9FED227BF4
S315080005F08DED067B069607F100430793FEE6052771
S31508000600C2E700231E93209B43F4806320930027B0
S315080006103E461F9B9F4241D2A3EB070840E01E9B24
S31508000620002BF6D0119B002BF3D01E9B013B1E938B
S31508000630EFE700BFAFF30080FB799F501344D33F29
S31508000640B3C8608B288AC63F61436F63A787D23FCA
S3150800065071A379094F930A401655B5BBB16B024091
S31508000660EF39FAFE422EE63F2D431CEBE2361A3FDF
S315080006700000000080842E410000000000000000F9
S31508000680FFFFEF7F0000F83F0000E03F00002C402E
S3150800069000002440000018400000F03F4FF000081A
S315080006A0209B13F0020902D00FB14FF000083EB1AB
S315080006B053EC182BDDE906011BF0CCFDCDE906014C
S315080006C000220023DDE908011BF00CFF00283BD1BE
S315080006D0209B23F400630293CDF804801E9B0093AD
S315080006E09DED060B2B465A462146504600F044F827
S315080006F0002F3FF476AF209B13F0200F2CD04FF03D
S31508000700450C00F101082B46024621466046D047B3
S3150800071086EAE672A2EBE67205230593013F049783
S31508000720002303930A230293F30F019300922B46A7
S3150800073042462146504623F04FFBB9F1000F3FF4DD
S3150800074050AF02461F9F10E0DDE90601024601F19F
S315080007500043CDE90623BBE74FF0650CD1E7561CED
S315080007602B4621462020D0473246A2EB0B03BB423C
S31508000770F5D3104635E700BF2DE9F04F2DED028B76
S3150800078093B00590089192469B4659EC108B1E9D96
S3150800079042464B46404649461BF09AFE002840D042
S315080007A04FF0FF326FF48013404649461BF09AFE1D
S315080007B0002845D14FF0FF32B14B404649461BF061
S315080007C0AFFE00284BD1AAA3D3E9002340464946E9
S315080007D01BF0A6FE00285AD1A7A3D3E9002340465A
S315080007E049461BF07FFE002851D1002200234046CF
S315080007F049461BF077FE002857D100230993209B12
S3150800080013F4806F5CD000241F2C5BD8092D59D9AE
S3150800081004F148036B44302203F8202C013D0134CF
S31508000820F2E7209B03931F9B029303230193954BA7
S3150800083000935B4652460899059823F0F3F910E1B0
S31508000840209B03931F9B0293042301938E4B0093D3
S315080008505B4652460899059823F0E4F901E1209B86
S3150800086013F004030FD0894A7BB10423209903911E
S315080008701F990291019300925B4652460899059882
S3150800088023F0D0F9EDE0824AEEE70323EEE7209B5A
S3150800089002931F9B0193009549EC108B5B465246C9
S315080008A008990598FFF770FDDBE042464B460020A5
S315080008B000211BF0EDF980468946012309939EE73E
S315080008C00625A0E7404649461BF034FE06461BF0BF
S315080008D02DFB02460B46404649461BF0D9F96D4B9F
S315080008E003EBC50393ED008B53EC182B1BF088FB29
S315080008F002460B46CDE906231BF044FE07461BF0CD
S3150800090005FB02460B46DDE906011BF0C1F9024666
S315080009100B46CDE9062300225F4B1BF001FE50B3C0
S31508000920013738461BF0F2FA02460B4651EC180B13
S315080009301BF0E2FD08B10136002755BB30461BF017
S31508000940F5FA02460B46404649461BF0A1F9804691
S3150800095089460022504B1BF0C5FD38B100224E4B8C
S31508000960404649461BF0DCFD002842D016F0010F30
S315080009703FD001363DE00022474BDDE906011BF07A
S31508000980B1FD0028D9D117B117F0010FD5D001371D
S31508000990D3E71F2C17D8013D404BA3FB0723DB08E1
S315080009A0194603EB8303A7EB4303621C303304F1B8
S315080009B048000DEB000404F8203C092F02D90F4625
S315080009C01446E6E714461F2C0AD86B1E45B104F1F7
S315080009D048026A44302102F8201C1D460134F2E719
S315080009E01F2C06D804F148036B442E2203F8202C4A
S315080009F001341F2C17D82A4A82FB0632F317C3EB99
S31508000A00A2031A4603EB8303A6EB4303611C3033A8
S31508000A1004F148000DEB000404F8203C16460AB120
S31508000A200C46E6E70C46209B03F00303012B39D05E
S31508000A301F2C09D8099B002B51D004F148036B449D
S31508000A402D2203F8202C0134209B03931F9B02932D
S31508000A5001940AAB00935B4652460899059823F021
S31508000A60E1F813B0BDEC028BBDE8F08FAFF3008060
S31508000A700000000065CDCD410000000065CDCDC168
S31508000A80FFFFEF7F648C0208688C0208588C020806
S31508000A90608C0208708C02080000E03FCDCCCCCCFC
S31508000AA0676666661F9BB3B1099B1BB9209B13F04B
S31508000AB00C0F12D01F9B013B1F93194606E004F149
S31508000AC048036B44302203F8202C01348C42AFD201
S31508000AD01F2CF4D9ACE71F99F8E71F99F6E7209B76
S31508000AE013F0040F07D004F148036B442B2203F8D4
S31508000AF0202C0134A8E7209B13F0080FA4D004F19A
S31508000B0048036B44202203F8202C01349CE700BFDD
S31508000B1038B50D46044626F002F8064A13889BB2F5
S31508000B202DB123431380BDE8384025F0F3BF23EAEF
S31508000B300403F7E7A44B00200022034B01214FF4DE
S31508000B4080709A70E4E700BFA44B00207FB54E681A
S31508000B5002A9044623F0DAFF9DF808300C2B19D1B8
S31508000B60134BB3F90050134B9E4218D808F07CF982
S31508000B7003460068694600909B882046ADF8043015
S31508000B8023F0B1FF70B140F25F620B490B480DF0DC
S31508000B907FFFFEE7204613F07DFD0546E3E71FF0DD
S31508000BA0D4FBE5E72946204623F083FF04B070BD51
S31508000BB076510020FFC99A3B198F0208E48C020877
S31508000BC0002330B5134C85B0CDE901330393237860
S31508000BD08DF8043025F0A3FFA288E38805469A42DB
S31508000BE00DD0E188A06801AAA18023F018FE58B1AB
S31508000BF040F2DA62084909480DF04AFFFEE7A068A4
S31508000C0023F0E6FD0128ECD0284625F083FF05B041
S31508000C1030BD00BFDC560020198F0208E48C02089C
S31508000C2038B50F4C656835B940F2C7720D490E489C
S31508000C300DF02EFFFEE723F0A4F9284410F078FE05
S31508000C4000F00700032809D164680921204623F02B
S31508000C50B4FA205C031F5842584138BD0020FCE70F
S31508000C60A44B0020198F0208E48C020808B5114B22
S31508000C709A78042A06D040F28E520F490F480DF092
S31508000C8007FFFEE71B881B0706D440F28F520A4966
S31508000C900A480DF0FDFEFEE700210820FFF738FFA1
S31508000CA00222074B98681A7313F0AEFABDE808409B
S31508000CB021F06BBDA44B0020198F0208E48C0208B2
S31508000CC0DC56002010B5084CA06813F09DFAA06801
S31508000CD023F07EFD012806D00122A0681146BDE852
S31508000CE0104023F077BD10BDDC56002038B5194DED
S31508000CF0AB7833B140F22B72174918480DF0C8FE8D
S31508000D00FEE725F00CFF2988044611F0060109D0F4
S31508000D1001214FF48070FFF7FBFE2046BDE83840FE
S31508000D2025F0F8BE4FF48070FFF7F2FE12F0BEFB16
S31508000D30012805D010F0FD0F05D1FFF741FFECE7BC
S31508000D40FFF7C0FFE9E740F24172034903480DF097
S31508000D509FFEFEE7A44B0020198F0208E48C0208C8
S31508000D6070B50446064D95F90860FFF7BFFF12F007
S31508000D709BFA314620466A68BDE8704012F0CCB846
S31508000D80A44B002008B50A4B1B88DB0606D440F2A4
S31508000D90A752084908480DF07BFEFEE700211020FF
S31508000DA0FFF7B6FE12F0FEFBBDE8084021F0EDBCE9
S31508000DB0A44B0020198F0208E48C02080D4B10B5CD
S31508000DC01B8804469B0713D500210220FFF7A0FEC7
S31508000DD0094B5A7BFF2A06D040F2E54207490848E4
S31508000DE00DF056FEFEE75C73BDE8104021F0CDBC61
S31508000DF010BD00BFA44B0020DC560020198F020846
S31508000E00E48C02087047704707B5ADF8061001462E
S31508000E1030B94FF4B572104910480DF039FEFEE7A7
S31508000E20BDF8063033B940F26B120B490B480DF08A
S31508000E302FFEFEE70A4B0DF10602986823F01DFF08
S31508000E4030B140F26D12044904480DF021FEFEE768
S31508000E5003B05DF804FB00BF198F0208E48C020892
S31508000E60DC56002010B50E4CA37833B14FF4EA7265
S31508000E700C490D480DF00CFEFEE7606019B1A17B28
S31508000E80003918BF01212020FFF742FE074B08480A
S31508000E909B7B23760223A370BDE8104010F014BC98
S31508000EA0A44B0020198F0208E48C0208DC560020A7
S31508000EB0C04B002008B50CF019F980F00100C0B24B
S31508000EC008BD0A4B9A780AB1062A0CD11B8803F486
S31508000ED08B7343B9064B5A7BFF2A04D1187BFF381C
S31508000EE018BF012070470120704700BFA44B00209F
S31508000EF0DC56002008B50CF0E9F80028FBD108BD3F
S31508000F000C4B42889A8142789A730278DA738288FF
S31508000F101A82C2885A82C2685A61017A064A91734D
S31508000F20028A998C914204D001214FF400709A8468
S31508000F30EEE57047A44B0020DC560020094B9A8941
S31508000F4042809A7B4270DA7B02701A8A82805A8AB9
S31508000F50C2805A699B8CC260034A0382927B0272E2
S31508000F60704700BFA44B0020DC5600204B1E012B07
S31508000F7070B50C4606D940F2B7221A491A480DF040
S31508000F8087FDFEE7194D0A460146A86823F09FFE2D
S31508000F9030B140F2B922134913480DF079FDFEE746
S31508000FA0AE6810F005FB22460146304623F089FE5E
S31508000FB030B140F2BD220B490B480DF069FDFEE742
S31508000FC0AD6810F001FB22460146284623F085FE4F
S31508000FD030B140F2C122034903480DF059FDFEE73E
S31508000FE070BD00BF198F0208E48C0208DC56002089
S31508000FF0054BDB7B1B0913F00E0003D0052B8CBFBA
S3150800100000200120704700BFDC560020044BDB7B24
S315080010101B0913F00E0F0CBF01200020704700BFFC
S31508001020DC5600202DE9F04F15469A0580461F46E6
S315080010308FB003D501218020FFF76AFDEB014FF041
S31508001040000955D5984C23889E0751D5974E737B32
S31508001050FF2B06D040F2AF42954996480DF018FD91
S31508001060FEE7636833B94FF49662914991480DF0EB
S315080010700FFDFEE749460220FFF74AFDA37886F8EA
S315080010800D90042B03D101210820FFF741FD002311
S31508001090B06808A98DF82C3023F03AFD30B140F23B
S315080010A0BA42834983480DF0F3FCFEE7FFF7A0FF39
S315080010B0B0B922F066FF8146606822F06DFF08A984
S315080010C08144B068ADF8249023F025FD30B140F294
S315080010D0C242774977480DF0DBFCFEE7089BA3621E
S315080010E0A378032B02D1B06813F08EF821F04DFBDC
S315080010F0B80702D50120FFF761FE15F0A84F02D008
S315080011000220FFF75BFEA90220D50021402003AC90
S31508001110FFF7FEFC2146404623F0F7FDB0B99DF8DF
S31508001120143008AA022B22D18DF82830BDF80C30CD
S31508001130ADF82030104612F0C1F838B1404623F019
S31508001140E2FD18B901214020FFF7E2FC2A0753D532
S31508001150564E0321B06803AA23F091FD814688B94B
S3150800116040F2FE42524953480DF092FCFEE7032B2B
S3150800117005BF8DF82830D4E900018DF82800C2E9AA
S315080011800001D7E79DF80C30B068072B40F01F81A7
S31508001190494608AA23F075FD30B140F20152444988
S315080011A044480DF075FCFEE7FFF722FFBDF80E2058
S315080011B0A0B9FFF72BFF78B1043292B2B06808A93C
S315080011C0ADF8242023F05FFD40B140F212523849B1
S315080011D038480DF05DFCFEE70232EEE7BDF80E007A
S315080011E00121073080B225F0CBFB8246002842D188
S315080011F001210C2012F09CFFA90705D52A4B1B8854
S315080012001A0701D5FFF732FDAB010BD500210420E3
S31508001210FFF77EFC244B9B78012B03D1234B986860
S3150800122012F0F2FF15F0284F03D000210420FFF733
S315080012306FFC7E060CD51C4C23881D0701D5FFF7CD
S3150800124015FD2388580703D500210420FFF760FC05
S31508001250F90540F1D88003A9404608AA23F0B6FA52
S315080012600146002800F0BA8040F2D25210491148CF
S315080012700DF00EFCFEE74FF0000B25F005FBCDF850
S3150800128000B00246BDF80E3004464946B06823F061
S31508001290FEFCBDF80E3083420ED040F222520449BD
S315080012A004480DF0F5FBFEE7A44B0020DC560020B1
S315080012B0198F0208E48C020822F063FE204410F01D
S315080012C037FB00F007000228DFF8589124D199F877
S315080012D00230042B90D122F054FE504B20448278E1
S315080012E01B789A4288D159460820FFF711FC22F04C
S315080012F048FE204410F01CFB9DF82E30C0F3001069
S31508001300307389F80830FFF78BFC00287FF474AF38
S31508001310B06812F079FF6FE722F033FE204410F030
S3150800132007FB83064AD522F02CFE204410F000FB6A
S3150800133000F0070003280BD10921204622F03DFFC3
S3150800134014F800B0ABF1040CDCF1000B4BEB0C0B02
S3150800135001210420FFF7DCFBB06823F0ABFCC9F8D9
S315080013602C00BBF1000F30D0B9F8003058062CD548
S3150800137000214020FFF7CCFB0126BDF80E309DF872
S315080013802E200120E254BDF80E309DF82F2023446C
S315080013909A71BDF80E10089A0131214410F0D6FA58
S315080013A0BDF80E3050461C44667125F041FB1C4BB7
S315080013B0187810F08FFA21F0E8F91DE799F802304D
S315080013C0012B02D1B06812F01FFF0026D5E723F0E3
S315080013D03AFC4946B06823F058FC0DE79DF80C30F6
S315080013E003F0BF02032A01D0022B0FD10D4C23882C
S315080013F05A0702D50420FFF78BFB23889B0702D5E3
S315080014000120FFF7DBFC0FB0BDE8F08F4FF4BF6299
S31508001410054906480DF03CFBFEE700BF114C0020CD
S31508001420344B0020A44B0020198F0208E48C0208D4
S3150800143008B50246FFF7DCFD30B1072A06D80020BA
S31508001440034B83F8302008BD7020FCE70220FAE73A
S31508001450A44B002008B50246FFF7CAFD28B10020B4
S31508001460034B93F83030137008BD7020FCE700BFBB
S31508001470A44B002008B5074B01460022986823F0C4
S3150800148026FC30B140F2EB22034904480DF000FB7C
S31508001490FEE708BDDC560020198F0208E48C020816
S315080014A008B5074B01460022986823F00AFC30B1BC
S315080014B040F2F122034904480DF0EAFAFEE708BDB6
S315080014C0DC560020198F0208E48C020808B5074B81
S315080014D00146986823F007FC30B140F2F722044928
S315080014E004480DF0D5FAFEE708BD00BFDC5600201B
S315080014F0198F0208E48C020808B5074B9B7833B1AC
S3150800150040F20132054906480DF0C2FAFEE7BDE889
S315080015100840FFF7EBBB00BFA44B0020198F020859
S31508001520E48C020808B5054B0146986823F0C1FA11
S31508001530002814BF8B20002008BD00BFDC56002001
S31508001540014B986813F0A6B8DC560020014BD888E2
S31508001550704700BFDC5600207FB50123ADF80E307A
S315080015604FF6FE7309480093806800230DF10E02BA
S3150800157004A923F02BFA212800D020B9BDF81000C1
S3150800158007B05DF804FB4FF6FF70F9E7DC5600205C
S3150800159008B5044B0146986823F0CCF9B0FA80F0F8
S315080015A0400908BDDC56002038B50B4D0446AB781B
S315080015B0012B0DD8FFF7ECFF60B1084BDC80AB7848
S315080015C01BB9FFF793FB002038BDFFF7F9FAFAE7D6
S315080015D03E20F9E78A20F7E7A44B0020DC560020D6
S315080015E0024B9B780BB9FFF781BB7047A44B0020D1
S315080015F0014BD873704700BFA44B002008B5064BB3
S315080016004FF0FF31986823F00EF90028B8BF033071
S3150800161040F3870008BD00BFDC56002008B5044B20
S31508001620986823F083F9034BB3FBF0F080B208BD4A
S31508001630DC56002040420F0030B58DB02C220446FF
S31508001640002101A824F06CF801234FF002328DF82E
S3150800165008306423CDE9032306930B238DF82C3039
S31508001660214B9B8CADF80A30FFF7C2FCA8B140F2BB
S31508001670F23307934FF47A7305930CB9FFF722FBFD
S315080016801A4D01A9A86813F0D9F8C0B140F2AC62A6
S31508001690174918480DF0FCF9FEE7FFF7BFFF0C23C2
S315080016A04343902B0793A3F10A02D8BF91230592CF
S315080016B0D8BF0793059B8B2BDFD88C23DCE7FFF776
S315080016C0A5FC60B10122A868114623F01AFB30B1C7
S315080016D040F2AF62064907480DF0DAF9FEE70CB9A1
S315080016E0FFF704FB0DB030BDA44B0020DC560020EC
S315080016F0198F0208E48C0208F8B525F010FA554C43
S3150800170006462388D90503D5A37843BBFFF7EEFA27
S31508001710514D6B7BFF2B13D06B7B03F0FF0723BB6D
S31508001720FF236B73A378032B0AD100233046A370DB
S3150800173025F0F0F93846FFF713FB25F0F0F90646D1
S31508001740A378042B08D12B7BFF2B05D02B7B022BF0
S3150800175014D142480FF0B8FFFF232B7327E000216E
S315080017604FF48070FFF7D4F9D2E76B7B012B4FF06B
S31508001770FF0314BF89278D276B73D6E72B7B13B11D
S315080017802B7B012B1ED1FFF74BFA0022FF212B7B67
S315080017900746DBB222772973002847D0012B0AD1E6
S315080017A064212E48A3700FF09AFFFFF709FA304616
S315080017B025F0B0F906E03046A27025F0ABF93120E5
S315080017C0FFF7CEFA23881A0608D500218020FFF7EE
S315080017D09FF9A86823F0D8F911F0C5FE23889B0560
S315080017E007D54FF400700021FFF792F90020FFF7A4
S315080017F023FF0BF06BFC608620B325F045F801212A
S315080018000546002012F094FCA678012E14D1002675
S315080018102677A670FFF76AFA284611F09FFAA3788A
S3150800182066867BB9BDE8F84011F03EBDA07030462B
S3150800183025F070F93846C3E72EB1284611F08EFA1E
S3150800184000236386F8BDFFF751FA284611F086FA99
S315080018506686F7E7A44B0020DC560020C04B002024
S315080018608B4BF0B51B888B4C8B4D63848B4B85B0AB
S315080018701B68E3628A4B1B8823848A4B1B68A36216
S315080018802B88DB0700F1FC8001210846FFF740F9A9
S315080018900523854A04F1100104F10800AB7012F023
S315080018A075FC28B1F522814981480DF0F1F8FEE76B
S315080018B0A3682BB9F7227D497D480DF0E9F8FEE7C4
S315080018C07C4822F0CBFF70A3D3E90023CDE900239F
S315080018D04FF0FF324FF0FF33A06823F06EF84FF455
S315080018E08811A06812F04EFF014630B140F20F127F
S315080018F06E496F480DF0CCF8FEE76F4B1B78012B4D
S315080019000ED16E4AA06812F00FFDA06812F0C4FF4F
S31508001910E0B140F21B12654965480DF0B9F8FEE7DB
S31508001920674E316831B94FF48F72604960480DF0DF
S31508001930AFF8FEE7614AA06812F0F6FC33689B68C8
S3150800194023B1DB6913B15B7803B1E373FFF704FED8
S315080019500146E080A06812F063FE064630B140F208
S315080019602D12524952480DF093F8FEE7554B0120C7
S315080019701B78C3EB431203EB8203DB00AB84FFF750
S315080019805BFEA7680FF020FE32460146384623F074
S31508001990A4F9064630B140F23312444944480DF0E2
S315080019A077F8FEE740F203530427AB81464BAF7343
S315080019B01B78EB73FFF732FE00EB80039B002B824C
S315080019C0FFF72CFEC00068823946A0686E6122F0D7
S315080019D09CFF30B14FF4A172344935480DF058F8E0
S315080019E0FEE73A46A06803A923F022F8042806D0A1
S315080019F04FF4A3722D492E480DF04AF8FEE703A9C5
S31508001A0001200FF0B1FF0BF0E7F808224FF0FF3185
S31508001A10A06822F0E3FF30B140F24F122349244870
S31508001A200DF036F8FEE713F0B7F830B140F255126C
S31508001A301E491F480DF02CF8FEE7FFF7D9FA68B1E2
S31508001A401EF085FC0146A06823F04DF830B140F23F
S31508001A505912164916480DF01BF8FEE7A468FFF759
S31508001A607BFD1A4B014603F10C02204622F0D9FEF3
S31508001A7030B14FF4B0720D490D480DF009F8FEE784
S31508001A8005B0F0BDAFF300800A0020FF4203000056
S31508001A9010920208DC560020A44B0020149202087B
S31508001AA01292020818920208390B0008198F0208C8
S31508001AB0E48C0208690345ECF54B00204D0B000841
S31508001AC0C05400208158002080580020448F020806
S31508001AD008B5044B986822F02BFF034BB3FBF0F0D4
S31508001AE080B208BDDC56002040420F002DE9F043C5
S31508001AF08C4D87B02B889B0706D440F24C728A49D6
S31508001B008A480CF0C5FFFEE7AB78033B012B06D9E4
S31508001B1040F24E72844985480CF0BAFFFEE76A68BF
S31508001B2032B940F25172804980480CF0B1FFFEE7A5
S31508001B307F4E2C88F77B14F0200418BF4FF47A7474
S31508001B404FEA1718FFF754FA00287DD0B8F1020FAC
S31508001B500AD0A8F10303022B74D940F265727249C0
S31508001B6072480CF095FFFEE7032795F8303008EB2E
S31508001B70C80898446F4B104603EB4803B3F81C801B
S31508001B8022F00AFA4FF4FA534343B3FBF8F37822E8
S31508001B907733B3FBF2F31F44C7EB0717AB78FF00A5
S31508001BA0BFB204F5347417FA84F4042BA4B203D133
S31508001BB007F6E8072744BCB2D5F8048022F0E1F915
S31508001BC00746686822F0E8F9074422F000FABFB22F
S31508001BD03F1A22F0D6F940440FF0AAFE7378C0F3F4
S31508001BE040198DF80C30544BBFB2CDE904340024AB
S31508001BF022F0F9F9009402463B464146B06823F0C4
S31508001C0024F8287EB278737812FB00F29342C4BF98
S31508001C109B1ADCB22B88F18813F0200FB068B180CC
S31508001C208DF80C4003AB76D000934A46434B22F01E
S31508001C30EDFD002873D040F224723B493B480CF076
S31508001C4027FFFEE7062790E7FFF7E0F9002846D0CA
S31508001C50384B07F00F0708EBC801394403EB41037B
S31508001C601046B3F81C9022F097F9B8F1000F2CD063
S31508001C70B8F1010F2CD14FF00408400080B2F319D7
S31508001C8093F834304BB14FF4FA52023303444344C9
S31508001C909BB25343B3FBF9F39CB2AB78042B8BD1BD
S31508001CA0FFF7BCFC374497F834308146053398442F
S31508001CB0FFF70EFF0C2308FB00F003FB09F909EBFD
S31508001CC0C009A1441FFA89F476E74FF00208D6E75F
S31508001CD040F28672144915480CF0DAFEFEE7FFF763
S31508001CE0F7FE0746686822F057F909307843AB785B
S31508001CF004EBC000042B84B27FF45EAFFFF78EFCC2
S31508001D000746FFF7E5FE602358430C2303FB07004D
S31508001D10204484B250E74A4622F076FD89E707B0A8
S31508001D20BDE8F083A44B0020198F0208E48C020852
S31508001D30DC560020448F020820A10700B04B002083
S31508001D40F8B5494C258815F0020506D040F27512FB
S31508001D50464947480CF09CFEFEE7257724F0DFFE4F
S31508001D60238806465A070CD5424B986822F0A2FFEC
S31508001D70E36AC01AA38C984203D929460420FEF7C1
S31508001D80C7FE304624F0C6FEA778022F37D124F0C6
S31508001D90C6FE2388064613F0040507D036480FF01A
S31508001DA093FC3046BDE8F84024F0B4BE24F0B2FEF9
S31508001DB0606811F0B3FA20B1A570BDE8F840FEF7E7
S31508001DC0CFBF24F0ACFE6668054622F0DAF8304448
S31508001DD00FF0AEFD10F0200F0CBF032304230121E2
S31508001DE03846A370FEF794FEFFF780FE284624F0D7
S31508001DF091FE01210846BDE8F84012F099B9042F72
S31508001E0027D11C4B1B7BFF2B2DD1237EF3B124F04E
S31508001E1086FE238805465B0704D517480FF054FC51
S31508001E202846BFE724F076FE237E013B237624F07E
S31508001E3076FE044601210220FEF76AFEFFF756FEEB
S31508001E40204624F067FE01210820D4E74020A3702D
S31508001E50B3E7012F07D10023A370064B986812F049
S31508001E60D3F93120A9E7F8BDA44B0020198F020841
S31508001E70E48C0208DC560020C04B002038B501214E
S31508001E8004461020FEF744FE064B9D68FFF7C6FB86
S31508001E90012200FB04F1044B284622F0A0FC002096
S31508001EA038BD00BFDC560020850D000808B50A4B72
S31508001EB01B88DB0606D44FF46172084908480CF003
S31508001EC0E7FDFEE710200021FEF722FE054B986885
S31508001ED0BDE8084022F091BCA44B0020198F0208E7
S31508001EE0E48C0208DC56002038B50E4D688E30B9F1
S31508001EF040F291320C490D480CF0CAFDFEE724F079
S31508001F00C3FC0446688E24F0DDFC811F21440120B1
S31508001F100FF02AFD064B0446986822F0CBFE001BFC
S31508001F2038BD00BFA44B0020198F0208E48C0208B4
S31508001F30DC56002010B5084C636833B94FF4687254
S31508001F40064907480CF0A4FDFEE7064B986822F000
S31508001F50B1FEA36AC01A10BDA44B0020198F02084F
S31508001F60E48C0208DC56002038B50A4D688E30B974
S31508001F7040F2AA32084909480CF08AFDFEE724F027
S31508001F8083FC0446688E24F09DFC044414F8020C75
S31508001F9038BD00BFA44B0020198F0208E48C020844
S31508001FA038B50A4D688E30B940F2B9320849094841
S31508001FB00CF06EFDFEE724F067FC0446688E24F0FC
S31508001FC081FC044414F9070C38BD00BFA44B00205B
S31508001FD0198F0208E48C020838B50A4D688E30B9A4
S31508001FE04FF47272084909480CF052FDFEE724F0D6
S31508001FF04BFC0446688E24F065FC044414F9010C75
S3150800200038BD00BFA44B0020198F0208E48C0208D3
S31508002010024B1888C0F3C010704700BFA44B0020BD
S3150800202030B585B005466C460D4B0FCB84E80F00DE
S315080020300DB12B6800930B4B21460022986812F0CD
S315080020403FFB044630B140F2E632074907480CF038
S315080020501FFDFEE7FEF7B4FD204605B030BD00BF04
S31508002060CC8F0208DC560020198F0208E48C02087F
S3150800207030B5154D87B004460DF10701A86822F062
S315080020809EFC30B140F2F732104911480CF000FDC1
S31508002090FEE79DF80720531EDBB2FD2B0FD90294ED
S315080020A0FF2A00D10394A86802A922F070FD40B166
S315080020B040F20442054906480CF0EAFCFEE7012A0C
S315080020C0EFE707B030BD00BFDC560020198F0208C5
S315080020D0E48C020808B5064B986822F067FD30B113
S315080020E04FF48262034904480CF0D2FCFEE708BDAF
S315080020F0DC560020198F0208E48C02080122024BE4
S315080021001146986822F066BBDC5600207047F8B581
S31508002110064604200D4621F016FF030622D5124F67
S31508002120BC78FCB926B1012E17D002242046F8BD8A
S3150800213001262846FFF72CFA0028F6D00B4800237C
S3150800214032462946806822F063FB40B14FF48A6222
S31508002150074908480CF09CFCFEE72646E9E70623F3
S31508002160BB70E3E77024E1E7A44B0020DC560020AF
S31508002170198F0208E48C0208042010B521F0E3FE4A
S31508002180030611D5094CA378062B0DD1084B986880
S3150800219022F040FB30B140F26A42064906480CF08C
S315080021A077FCFEE7A07010BD7020FCE7A44B00206A
S315080021B0DC560020198F0208E48C02081FB5044675
S315080021C001A812F045FA9DF80D3053B14CB1064BF3
S315080021D02078617818700020A27859709A7004B037
S315080021E010BD0220FBE700BFDC5600201FB50446E1
S315080021F001A812F02DFA9DF80D3053B14CB100200C
S31508002200054B1A7822705A789B786270A37004B0CE
S3150800221010BD0220FBE700BFDC560020FFF7CEBF4B
S31508002220FFF7E4BF0348044B834202D0034B03B1D4
S31508002230184770479858002098580020000000005A
S31508002240064B0749C91A891048BF0131491003D0FE
S31508002250044B0BB101481847704700BF9858002037
S31508002260985800200000000010B5064C237843B9A2
S31508002270FFF7D8FF044B13B10448AFF300800123DE
S31508002280237010BD3052002000000000B8CB0208B1
S3150800229008B5054B1BB105490548AFF30080BDE8F5
S315080022A00840FFF7CDBF00BF00000000A0220020B5
S315080022B0B8CB0208A3F5803A704700BF174B002B2E
S315080022C008BF134B9D46FFF7F5FF00218B460F46C7
S315080022D01348144A121A23F023FA0E4B002B00D087
S315080022E098470D4B002B00D098470020002104008A
S315080022F00D000D48002802D00C48AFF300801AF0F4
S3150800230079FE200029001BF08EFB1AF009FB00BF9E
S315080023100000080000000000000000000020002067
S3150800232000200020A052002000000000000000004D
S3150800233008B5074B01229A73064B1B6800221A70D0
S315080023404FF49671044B18680FF0C9F908BD00BF21
S315080023507C230020B8220020BC22002010B504F0FF
S31508002360D5FB0B4B01220B490B48006804F08CFA8D
S315080023700A490B480AF0CEFA0A4C0B4920460AF0DD
S31508002380C9FA41F2883120680FF0A9F910BD00BFDB
S315080023909D250008F022002060560020B52600087A
S315080023A0BC220020B822002031230008084B9B7B62
S315080023B0012B05D01BB9074B93F82E3003707047D5
S315080023C0054BD3F8A430C3F340030370704700BF2E
S315080023D07C230020C022002000C0035010B5634BA8
S315080023E093F85930042B0ED8DFE803F00313223193
S315080023F0420003787E2B07D05D4B01225D495E487B
S31508002400006804F041FA10BD584B012283F85920A0
S31508002410F2E70378554981F83130022381F85930BB
S31508002420534B012230315448006804F02DFAEAE78C
S3150800243003784E4981F83230032381F859304C4BE2
S31508002440012230314C48006804F01EFADBE70378B5
S31508002450464981F83330042381F8593091F8312000
S31508002460434B043A34314448006804F00DFACAE78D
S315080024703E4C002384F85930621C94F8311004F15C
S3150800248031001BF0FDF9207038B1394B012239496A
S315080024903948006804F0F8F9B5E7384B00229A7312
S315080024A04FF49671364B18680FF019F9E378482BF4
S315080024B006D0432BE9D12D4B1A7983F82F20E4E770
S315080024C0637A84F82E30013B042BDED8DFE803F06C
S315080024D0031221303F00032001F010FD0028D4D05C
S315080024E01BF03BFB1BF03AFB2649274B18681FF0ED
S315080024F023F8CAE7032001F001FD0028C5D01BF028
S315080025002CFB1BF02BFB21491F4B18681FF014F8F6
S31508002510BBE7032001F0F2FC0028B6D01BF01DFB38
S315080025201BF01CFB1A49184B18681FF005F8ACE796
S31508002530032001F0E3FC0028A7D01BF00EFB1BF0DC
S315080025400DFB1449104B18681EF0F6FF9DE7032093
S3150800255001F0D4FC002898D01BF0FFFA1BF0FEFA15
S315080025600D49094B18681EF0E7FF8EE7C0220020C8
S315080025709D250008F0220020605600207C230020BC
S31508002580BC22002068720208242800207072020803
S3150800259078720208807202088C72020808B502482E
S315080025A0FFF71CFF08BD00BFF022002008B50A4649
S315080025B0002301460248006804F02CFA08BD00BF53
S315080025C06056002000B591B0264B9B7B23B1012BAA
S315080025D020D011B05DF804FB8DF814008DF8153085
S315080025E08DF816308DF817300122039204220292D4
S315080025F005AA01924322009202220A2106A81BF08C
S31508002600FDF80A2106A8FFF7D1FF42F2107004F080
S31508002610EDFADEE7144BD3F8982722F01002C3F838
S315080026209827D3F8982722F00402C3F8982703F5C9
S31508002630805320221A6400210C481DF00AFE00234C
S3150800264004220521184605F0FDFD00230122062176
S31508002650184605F0F7FDC821054B18680FF03FF836
S31508002660B7E700BF7C23002000C0035000C0055018
S31508002670BC2200200E4B9B7B03B1704700B58FB080
S315080026800123039300230293019348220092022216
S31508002690062104A81BF0B2F8062104A8FFF786FF56
S315080026A042F2107004F0A2FA0FB05DF804FB00BF06
S315080026B07C23002008B5094B20221A64FFF7DAFFAD
S315080026C04FF49671064B18680FF009F841F28831F5
S315080026D0044B18680FF003F808BD00BF00D003507C
S315080026E0BC220020B822002010B582B004461BF098
S315080026F032F908B902B010BD00230093ADF80430D2
S31508002700074B1B88ADF80230ADF8044041F234237C
S31508002710ADF800306946022020F0CEF8EAE700BF9F
S31508002720FC57002000B583B000230093ADF80430B1
S31508002730094B1B88ADF8023044F22133ADF800305E
S31508002740684620F0B5F820F0AFF80A2020F0B8F86F
S3150800275003B05DF804FB00BFFC57002008B513461C
S315080027600A4601460448006803F012FB00B908BD92
S3150800277002480CF08DF9FAE7945600209872020880
S315080027800A2800D9704730B583B004460D466B4613
S3150800279001AA01461048006803F060FA08B9019BCF
S315080027A023B10E480CF074F903B030BD009B2A46DD
S315080027B021460948006803F091F940B921460848BE
S315080027C00CF066F9294607480CF062F9ECE7214651
S315080027D005480CF05DF9E7E794560020A072020858
S315080027E0C4720208E0720208E87202080A2800D9D0
S315080027F0704710B504460146064B186803F096FB69
S3150800280020B9214604480CF043F910BD03480CF0E2
S315080028103FF9FAE7945600200C7302082873020859
S3150800282008B5314B1B78012B21D0022B3DD003B1C3
S3150800283008BD2E4B1B782E4A1278B3EB420F07DAE7
S3150800284001332A4A137001212A481BF076F9EFE76B
S315080028500023294A1370254A137026481BF075F978
S31508002860264B01221A70264823F06EFDE0E71F4B1F
S315080028701B781F4A1278B3EB420F07DA01331B4A5B
S31508002880137001211F481BF058F9D1E700231A4A93
S315080028901370164A13701B481BF057F9174B012281
S315080028A01A70174823F050FDC2E7104B1B78104AE0
S315080028B01278B3EB420F07DA01330C4A1370012181
S315080028C011481BF03AF9B3E700230B4A1370074A7D
S315080028D013700D481BF039F9084B01221A70084885
S315080028E023F032FDA4E700BF315200203352002006
S315080028F032520020608402083452002074580020A6
S315080029001C2300207884020890840208037823BBDD
S3150800291070470133022B22DC03EB4302104911F8FE
S315080029202220002AF5D100B50A4603EB430102EB43
S31508002930810C4FF0000E8CF801E04FF0010C02F804
S3150800294021C002EB810301684268C3F80210C3F88C
S31508002950062002895A815DF804FB0023DAE77047EE
S315080029603C23002030B583B00446144B5D7B21B16F
S3150800297023788DF8003000230BE0FFF7C7FFF7E751
S31508002980E118497803F109026A4402F8081C013380
S31508002990DBB2617A4A1E9342F2DB23781C2B08D0FD
S315080029A0074B03221A706A46284601F045FA03B017
S315080029B030BD034B00221A70F5E700BF7C230020C8
S315080029C07558002010B5214C2046FFF7EFFC20462D
S315080029D010F81039427C934206D0A4F110025374C1
S315080029E0527B42B1012A26D04FF49671184B1868CB
S315080029F00EF075FE10BD032001F080FA88B915485F
S31508002A001E23037006234372134A137C4370FF2365
S31508002A108370C3700371D37A43710021FFF7A2FF55
S31508002A20E2E71BF09AF81BF099F80C490C4B18686A
S31508002A301EF082FDE3E707481E2202704370022358
S31508002A4043720021FFF78EFFCEE700BF8C230020DC
S31508002A509C230020602300207C230020407302086A
S31508002A602428002008B5244B1A789A721B78DBB202
S31508002A701D2B08D02B2B18D0102B1BD01F4B1B68D7
S31508002A8000221A7008BD1C4B1B7C012B05D0032B9A
S31508002A9007D00C20FFF796FDF0E70220FFF792FD1E
S31508002AA0ECE70120FFF78EFDE8E7154B18680EF0F6
S31508002AB00BFEE3E7104B5B7B012BDFD10E4B5B78FC
S31508002AC0DBB2012B07D00C4B5B78DBB2022B06D0AE
S31508002AD0094B5B78D2E70C20FFF774FDCEE709486F
S31508002AE02B230370044B1B7C437002234372002183
S31508002AF0FFF738FFC2E700BF7C230020A023002091
S31508002B00A42300206023002000B583B08C4611461C
S31508002B10084B1870084B83F800C00023074A137047
S31508002B20012201920093064A064824F089FA03B066
S31508002B305DF804FB31520020325200207458002000
S31508002B40212800081C23002008B5044A1AF00DFFA6
S31508002B50034B18680EF0B8FD08BD00BF7C230020A3
S31508002B60A023002038B504461FF0B2FEA04201D8C3
S31508002B70012038BD0546032001F0C0F90028F8D029
S31508002B801AF0EBFF1AF0EAFF2B46224603490448DF
S31508002B9000681EF0D1FC0020EBE700BF5073020866
S31508002BA02428002030B583B004468368C26853F8E9
S31508002BB022301D882846FFF7D5FF08B903B030BD77
S31508002BC000230093ADF80430164B1B88ADF802308D
S31508002BD0ADF804506368E2689B1A012B1DDDA368F3
S31508002BE0013253F822301B88ADF800301FF05CFE26
S31508002BF0694603201FF060FE0446032001F07EF9B3
S31508002C000028DBD01AF0A9FF1AF0A8FF22460649C9
S31508002C10064B18681EF090FCD0E740F2FF13ADF89B
S31508002C200030E3E77051002088730208242800204A
S31508002C3030B583B004468368C26853F822301D88CD
S31508002C402846FFF78FFF08B903B030BD002300936D
S31508002C50ADF80430154B1B88ADF80230ADF80450BA
S31508002C606368E2689B1A012B1BDDA368013253F8DF
S31508002C7022301B88ADF80030694604201FF01CFE80
S31508002C800446032001F03AF90028DDD01AF065FF62
S31508002C901AF064FF22460649064B18681EF04CFCDB
S31508002CA0D2E740F2FF13ADF80030E5E77051002097
S31508002CB0A87302082428002030B583B00446836828
S31508002CC0C26853F822301D882846FFF74BFF08B91B
S31508002CD003B030BD00230093ADF80430154B1B88B4
S31508002CE0ADF80230ADF804506368E2689B1A012B10
S31508002CF01BDDA368013253F822301B88ADF800307B
S31508002D00694602201FF0D8FD0446032001F0F6F8B4
S31508002D100028DDD01AF021FF1AF020FF22460649C6
S31508002D20064B18681EF008FCD2E740F2FF13ADF810
S31508002D300030E5E770510020BC7302082428002003
S31508002D4030B583B08368C26853F822301C780023F4
S31508002D50019343689B1A012B19DD01AA01211DF075
S31508002D60BBFE01469DF804001FF09AFD054680B19A
S31508002D70022001F0C3F860B11AF0EFFE1AF0EEFE79
S31508002D802A460649064B18681EF0D6FB01E01FF0D6
S31508002D908BFD20461FF094FD03B030BDD8730208A2
S31508002DA02428002010B503468168C26851F822001D
S31508002DB0B0F900001A4C20805B689B1A012B0FDDC6
S31508002DC0013251F8223093F90010003918BF012159
S31508002DD01FF01BFDA0B9032001F090F810B910BD33
S31508002DE00021F5E71AF0B9FE1AF0B8FE0D4B1C687B
S31508002DF01FF00FFD02460C4920461EF09DFBEEE72C
S31508002E00012001F07BF80028E9D01AF0A6FE1AF096
S31508002E10A5FE0649034B18681EF08EFBDFE700BFC8
S31508002E2070510020242800203C74020850740208BF
S31508002E3008B51FF0DEFC032001F060F800B908BDF4
S31508002E401AF08BFE1AF08AFE0249034B18681EF028
S31508002E5073FBF4E7687402082428002008B5836821
S31508002E60C26853F822301A88094B1A80032001F0E9
S31508002E7045F800B908BD1AF070FE1AF06FFE044B4B
S31508002E801A880449044B18681EF056FBF2E700BF7F
S31508002E90FE570020887402082428002008B5024B33
S31508002EA018680EF011FC08BDA42300202DE9F04196
S31508002EB086B01FF0BAFC0446894B1B7813F0020F44
S31508002EC02CD0884E13F0010F2AD0864F13F0040F2A
S31508002ED028D0DFF81082032001F010F828BB032061
S31508002EE001F00CF858BB032001F008F8002835D18A
S31508002EF0032001F003F800283ED1032000F0FEFF6E
S31508002F00002847D1032000F0F9FF00285ED10320EE
S31508002F1000F0F4FF002867D1002471E0724ED1E773
S31508002F20714FD3E7DFF8C081D5E71AF016FE1AF01D
S31508002F3015FE6E496E4B18681EF0FEFACFE71AF0BA
S31508002F400CFE1AF00BFE6A4B1D6805F053FB024691
S31508002F500B46684928461EF0EFFAC4E71AF0FDFD4D
S31508002F601AF0FCFD624B1D681FF037FC02466249E9
S31508002F7028461EF0E1FABBE71AF0EFFD1AF0EEFD5F
S31508002F805B4B1D681FF05DFC02465C4928461EF037
S31508002F90D3FAB2E71AF0E1FD1AF0E0FDE279A37977
S31508002FA061792079E57894F802C094F801E02478EC
S31508002FB00594CDF810E0CDF80CC00295019000916B
S31508002FC04F494B4800681EF0B7FA9BE71AF0C5FD53
S31508002FD01AF0C4FD464B1C681FF02BFC02464949F3
S31508002FE020461EF0A9FA92E71AF0B7FD1AF0B6FDC8
S31508002FF045493F4B18681EF09FFA8DE70134E4B245
S31508003000072C12D8032000F079FF0028F6D01AF012
S31508003010A4FD1AF0A3FD364B1D681FF006FC025DE1
S315080030203A4928461EF088FAE8E7032000F066FFCA
S3150800303098B9032000F062FFC8B9032000F05EFFCC
S3150800304018BB032000F05AFF68BB032000F056FFA8
S31508003050002836D106B0BDE8F0811AF07EFD1AF0D8
S315080030607DFD2B49224B18681EF066FAE1E71AF037
S3150800307074FD1AF073FD1E4B1C681FF0DEFB02463A
S31508003080244920461EF058FAD7E71AF066FD1AF0CA
S3150800309065FD174B1C681FF0B4FB02461E49204607
S315080030A01EF04AFACDE71AF058FD1AF057FD104BF4
S315080030B01C681FF0AEFB0246184920461EF03CFA73
S315080030C0C3E71AF04AFD1AF049FDCDF800803B46E1
S315080030D032461349064800681EF02EFABAE700BFC2
S315080030E075580020F0730208F8730208A4740208E1
S315080030F024280020AC740208C8740208E474020884
S3150800310000750208247502084075020854750208FD
S31508003110DC7202085C750208787502089075020868
S31508003120A875020830B583B08368C26853F82230A0
S315080031301C7801A920461FF060FB88B9032000F01F
S31508003140DDFE08B903B030BD1AF007FD1AF006FD1A
S31508003150019B22460B490C4800681EF0EDF9F1E781
S315080031600546012000F0CAFE0028EBD01AF0F5FC4F
S315080031701AF0F4FC2A460549034B18681EF0DCF9D8
S31508003180E0E700BFE075020824280020FC75020865
S3150800319070B58268C36852F823100C88013352F858
S315080031A023301D78294620461FF076FB80B9032078
S315080031B000F0A4FE00B970BD1AF0CFFC1AF0CEFCE0
S315080031C02B4622460B490C4800681EF0B5F9F2E773
S315080031D00646012000F092FE0028ECD01AF0BDFC4D
S315080031E01AF0BCFC32460549034B18681EF0A4F9D0
S315080031F0E1E700BF2076020824280020507602085E
S3150800320070B582B08368C26853F822301B78134AB7
S31508003210137013F0020F0ED0114C13F0010F0CD0DF
S315080032200F4D13F0040F0AD00D4E032000F066FE72
S3150800323038B902B070BD0B4CEFE70A4DF1E7094EFD
S31508003240F3E71AF08AFC1AF089FC00962B46224608
S315080032500549064800681EF06FF9EAE77558002028
S31508003260F0730208F8730208047402082428002080
S3150800327030B58FB004460D4668461AF08DFB0DF141
S31508003280200EEC46BCE80F00AEE80F009CE80300F1
S315080032908EE8030008A9464B186820F00FF910F1CC
S315080032A0880F46D168461AF077FB0DF1200EEC46DA
S315080032B0BCE80F00AEE80F009CE803008EE80300A8
S315080032C04FF41053ADF820308023ADF822304FF478
S315080032D04073079307A81AF06FFB079B0A93354BB1
S315080032E00B93334B1A68099B0D9213F0FF0F04D109
S315080032F023F0FF0343F001030993012309932C4BA1
S315080033002A46214608A820F0F6F8044610BB0320F2
S3150800331000F0F4FD90B9264B18681FF066FA0546CA
S31508003320002831D1032000F0E9FD044610BB012432
S315080033302FE01F4B186820F098F8B3E71AF00DFC39
S315080033401AF00CFC1A4B1A681B491C4B18681EF01D
S31508003350F3F8E0E7032000F0D1FD0028DBD01AF0EF
S31508003360FCFB1AF0FBFB22461549144B18681EF0A5
S31508003370E3F8D0E71AF0F1FB1AF0F0FB11490F4B0E
S3150800338018681EF0D9F804E0032000F0B7FD0446DB
S3150800339010B920460FB030BD1AF0DFFB1AF0DEFB7D
S315080033A02A460949054B18681EF0C6F80024F0E7B6
S315080033B09023002000014405807602082428002076
S315080033C0B0760208D4760208F476020800B583B00F
S315080033D00021019101AA1DF07FFB019910290ED049
S315080033E0032000F08BFD60B11AF0B7FB1AF0B6FBAC
S315080033F010220549054B18681EF09EF801E0FFF7F4
S3150800340037FF03B05DF804FB147702082428002070
S3150800341010B588B020F06EF9032000F06FFDF8B9FA
S3150800342001244A4B1C6002A81AF0DDFA02A92046BC
S3150800343020F044F810F1880F1CD0032000F05EFD40
S3150800344000286ED1414B18681FF0CFF91FF020FAFB
S315080034500446032000F052FD00286CD108B010BDC8
S315080034601AF07BFB1AF07AFB39493A4B18681EF0BA
S3150800347063F8D5E7032000F041FD002837D1334B28
S315080034801A68039B079213F0FF0F04D123F0FF037A
S3150800349043F001030393304B05934FF440730193B4
S315080034A001A81AF0B0FA019B04934FF41053ADF833
S315080034B008308023ADF80A3001230393234B1022EA
S315080034C0264902A820F017F80446D0B9032000F0D0
S315080034D015FD0028B6D01AF040FB1AF03FFB1B4B2F
S315080034E01A681F491B4B18681EF026F8AAE71AF037
S315080034F034FB1AF033FB1B49164B18681EF01CF8F0
S31508003500BDE7032000F0FAFC00289BD01AF025FB43
S315080035101AF024FB224614490E4B18681EF00CF8C4
S3150800352090E71AF01AFB1AF019FB1049094B1868AC
S315080035301EF002F886E71AF010FB1AF00FFB224677
S315080035400B49044B18681DF0F7FF87E79023002006
S315080035503C7702082428002000444004AC5400208C
S315080035608076020848770208B07602087077020863
S315080035709C77020810B5012009F0C6FA0D4C2146C1
S315080035800420FFF7FDF8611E0320FFF7F9F80A4942
S315080035900820FFF7F5F84FF4FA61084B18680EF0A3
S315080035A09EF8074B01221A70064B1B6800221A70F8
S315080035B010BD00BF892300206C2300209C23002017
S315080035C0355200209823002010B584B0364B1B7B5B
S315080035D03BB1022B23D0354B1B6800221A7004B06E
S315080035E010BD9DF80030032262F304038DF8003005
S315080035F09DF800306FF346138DF800301C238DF8C4
S31508003600043002228DF80D209DF800208DF8052043
S31508003610254A9372002101A8FFF7A4F9DBE7224B9C
S315080036209B7A1E2B21D0204B9B7A2B2BD3D1204C57
S315080036302046FEF7BBFE2B238DF8043006238DF8B3
S315080036400D30204610F810398DF80530FF238DF817
S3150800365006308DF807308DF80830C37A8DF80930B2
S31508003660002101A8FFF77EF9B5E7114C2046FEF7C1
S315080036709DFE1E238DF8043006238DF80D30204656
S3150800368010F810398DF80530FF238DF806308DF8BF
S3150800369007308DF80830C37A8DF80930002101A863
S315080036A0FFF760F9BFE700BF7C230020A4230020B2
S315080036B08C23002010B50C490C4809F02BF90C494D
S315080036C00C4809F027F90C490C4809F023F90C4C69
S315080036D00C49204609F01EF9FEF740FE4FF47A71B0
S315080036E020680DF0FCFF10BD652A0008A023002005
S315080036F0C52900089C230020C9350008A4230020FA
S31508003700982300207535000808B50320FFF76EF8E2
S315080037100820FFF76BF80449002301F80C3F012243
S315080037200320FFF71BF808BD7C23002010B50446CC
S315080037301AF0DBFA10B9344B9C4205D020461AF031
S31508003740D4FA012808D010BD23F06EFC2F4B186060
S315080037502F4B01221A70F1E723F066FC2C4B00224E
S315080037601A702A4B1B68C01AA0F5C333A13B294A15
S31508003770934215D9284B984224D9284B5B7BA3B191
S31508003780012BE0D10024254901F80D4F0122042020
S31508003790FEF7E4FF642205212046FFF7B5F9D2E7D4
S315080037A01FF092F8FFF7B0FFCDE701221B4901F899
S315080037B00D2F0420FEF7D2FF642205210020FFF713
S315080037C0A3F9C0E7164B9842BDD8144B1B7B002BB8
S315080037D0B9D1124B5B7B6BB1012BB4D1114B0122D2
S315080037E01A70FEF79FFF4FF47A7205210020FFF743
S315080037F08BF9A8E70020FEF777FF0B4B00221A701B
S315080038000A481AF071FB9EE74884020894230020B0
S31508003810365200209E860100400D03007C230020BE
S31508003820A0860100345200207458002090840208B3
S3150800383070B506460D468B681B781C2B01D00024F4
S315080038401EE0244B1B7B002BF9D10028F7D1214918
S31508003850022301F80C3F01220320FEF77FFFEEE763
S3150800386004EB44021C4B03EB82035B780A2B1DD145
S315080038701949900001EB820300220A545A70013458
S31508003880022C21DCAB68197804EB4402124B03EBDB
S3150800389082039B789942F2D1002EE1D10E4990001D
S315080038A001EB820300220A545A70E8E70A4A04EB3D
S315080038B0440C02EB8C00012102F82C100B444370D7
S315080038C00230FFF74FF8DAE72B7B5B42014AD372E7
S315080038D070BD00BF7C2300203C23002010B50446A1
S315080038E03D481AF032F9A4F19003062B5ED8DFE8BA
S315080038F003F0040A1E5D5D334800C8220221012038
S31508003900FFF702F910BD032000F0F8FA28B964227F
S3150800391005210020FFF7F8F8F4E71AF01EF91AF067
S315080039201DF92E492E4B18681DF006FEEFE70120FB
S3150800393000F0E4FA30B94FF47A7202210020FFF75A
S31508003940E3F8DFE71AF009F91AF008F92549244BD4
S3150800395018681DF0F1FDEEE7012000F0CFFA30B946
S315080039604FF47A7202210020FFF7CEF8CAE71AF060
S31508003970F4F81AF0F3F81C49194B18681DF0DCFD29
S31508003980EEE7032000F0BAFA30B94FF47A72022152
S315080039900020FFF7B9F8B5E71AF0DFF81AF0DEF8F5
S315080039A012490F4B18681DF0C7FDEEE7032000F01B
S315080039B0A5FA30B94FF47A7202210020FFF7A4F86D
S315080039C0A0E71AF0CAF81AF0C9F822460849044BC3
S315080039D018681DF0B1FDEDE790840208B477020877
S315080039E024280020C4770208E47702080878020829
S315080039F02478020810B523F017FB04462A4B1B68E7
S31508003A00C31A2A4A934205D9294A127812B1294A71
S31508003A1093420ED9264A127812B1264A934212D8F0
S31508003A20254B1B7823B1254B5B7B8BB1012B2ED005
S31508003A3010BD23481AF05DFA22481AF05AFA2248AD
S31508003A401AF057FAF4E700211D4800F0C1F9EFE72C
S31508003A501EF0C7FEB0B91D4B1B78002BE8D01C4BD7
S31508003A601B68E31A41F678629342E1D9184B1C6049
S31508003A7015481AF043FA12481AF03BFA11481AF098
S31508003A8038FAD5E700210F4800F0A2F9D0E71EF072
S31508003A90A8FE0028CCD00F4B1B78002BC8D10848AD
S31508003AA01AF022FAC4E700BF94230020A08601007A
S31508003AB036520020400D0300355200207C2300209A
S31508003AC060840208788402089084020874580020EA
S31508003AD0BC5400203452002008B5024B1B6803B1C1
S31508003AE0984708BDD823002008B5024B5B6803B188
S31508003AF0984708BDD823002008B5024B9B6803B138
S31508003B00984708BDD823002008B5024BDB6803B1E7
S31508003B10984708BDD823002008B5024B1B6903B196
S31508003B20984708BDD823002008B5024B5B6903B146
S31508003B30984708BDD823002000B585B0094B1868FA
S31508003B40094B1860094B0A4A13600A4A01920A4A45
S31508003B5012680292039301A91CF0E0FF05B05DF814
S31508003B6004FB00BFDC54002080320020D054002023
S31508003B707C32002008840208AC26002008B5024BD7
S31508003B8018681CF0DFFF08BDDC54002038B507F0C4
S31508003B9071FB0446064D2B68D3F8B00207F05EFBAE
S31508003BA028681CF0E9FF204607F058FB38BD00BF1F
S31508003BB0DC54002008B5034823F0B6F8024800F0A4
S31508003BC0F5FE08BD68870208E05400200023062099
S31508003BD073B1704754B224B9013353B15DF8044B3D
S31508003BE070470228F8D008680A4908601046F3E7C3
S31508003BF010B4094A52F823100A7A022AEAD9032A83
S31508003C00EAD1441EE4B2012CE6D9086801490860E5
S31508003C101046E1E7AC260020F454002010B5A2B007
S31508003C200DF1680C294C0FCCACE80F0094E80F0096
S31508003C308CE80F000021159116911791189119918A
S31508003C404FF480131593224B1993109111911291E9
S31508003C50139114911F4B10931F4B14933C2201A8E8
S31508003C6021F05EFD01AC0DF1540CBCE80F000FC449
S31508003C70DCF80030236006AC0DF1400CBCE80F0000
S31508003C800FC4DCF800302360144B0B9320230C93ED
S31508003C9001238DF834308DF835308DF83630104BD9
S31508003CA00F93104B1AAA01A90F4807F08FFB044679
S31508003CB09DF837303BB100214FF4E13019F08AFF07
S31508003CC0204622B010BD0321F6E700BF288402086B
S31508003CD03C00015B010010004400015BB026002097
S31508003CE008550020D02600208C27002008B531B9B9
S31508003CF0084B1868036823B107F07EFF01E0012925
S31508003D0000D908BD034B18680368002BF9D01DF0CD
S31508003D10F5FEF6E71C55002008B50349034808F0E8
S31508003D20DFF8FFF77BFF08BD20550020B4270020E9
S31508003D3008B502481DF046FC08BD00BF8C270020C8
S31508003D4008B502481DF03EFC08BD00BF8C270020C0
S31508003D5008B5024B5A6A1868904708BD8C27002098
S31508003D6008B5024819F0BAFF08BD00BF4884020822
S31508003D7008B505481AF0B3F804481AF0B0F804482C
S31508003D801AF0ADF808BD00BF9084020878840208CE
S31508003D906084020818B1034A106000207047252085
S31508003DA0704700BFBC27002010B5044C04492068A2
S31508003DB002F082FC2068FFF7EDFF10BD6056002078
S31508003DC03C550020014B1868704700BFBC270020EF
S31508003DD008B539BB154B984206D0154B98420DD0FD
S31508003DE0144B984214D008BD18461AF07DF81048AE
S31508003DF01AF07FF80F481AF07CF8F4E70B481AF027
S31508003E0078F80B481AF070F80A481AF072F8EAE7D8
S31508003E1006481AF06EF806481AF06BF805481AF0C4
S31508003E2063F8E0E71AF065F8DDE700BF608402088A
S31508003E30788402089084020800B583B00B460549C9
S31508003E40097801910092002201211EF012FD03B0AB
S31508003E505DF804FB7558002010B5044680680378A1
S31508003E602F2B07D0214B1B7B83B3013BDBB2012BE6
S31508003E7034D910BD1D4B1B7B012BF3D81C4BD0F836
S31508003E8001C0D0F80540D0F80910D0F80D20C3F8C5
S31508003E9000C05C609960DA6010211846FFF7E8F9FF
S31508003EA00128E6D1102212490820FEF757FC0F4BCD
S31508003EB01B7B002BDDD10F4B1B78002BD9D04FF481
S31508003EC07A710D4B18680DF00AFCD2E7A17919F042
S31508003ED040FE63795B42054AD372CAE7A17919F0B5
S31508003EE038FE63795B42014AD372C2E77C2300201D
S31508003EF06C23002035520020A423002003460B4AD9
S31508003F00107828B10A4A12789A4202D2002000E0B4
S31508003F100120084A12783AB1074A127842FA03F39E
S31508003F2013F0010F00D10020704700BF7858002019
S31508003F3077580020385200207658002008B5084BDC
S31508003F4001221A70074B00221A70074B04221A70B6
S31508003F50064B1F221A7007F08DF9054B186008BD2D
S31508003F6078580020385200207758002076580020CC
S31508003F702428002008B5054822F0D6FE19F07CFD55
S31508003F80012019F0F4FD00F0B1F808BD68870208B1
S31508003F9008B5024822F0C8FE08BD00BF68870208B7
S31508003FA02DE9F04180460F4601F109050026344601
S31508003FB004E05B21082000F0C1FA0134AC4233D298
S31508003FC0052C1BD801A353F824F000BFB33F000803
S31508003FD0E53F000819400008ED3F0008F13F0008DA
S31508003FE0F53F0008FBB20433D9B2E3E78021E1E7E5
S31508003FF00021DFE7731C3146DEB2DBE7BB1DA342B7
S315080040000CD0FB1DA3420BD007F10803A34209D02D
S31508004010A31F18F80310CDE7D121CBE75A21C9E72A
S315080040205A21C7E75D21C5E70020BDE8F08100BF3A
S3150800403000B583B0002300930193FFF7C3FE114B2D
S31508004040186001238DF8003090F8363093B10020BF
S315080040500C4B1B6893F8351002290FD003290FD192
S3150800406019F09BFD019008216846FFF799FF03B0F8
S315080040705DF804FB00681CF0D7F8E9E70321EFE7D1
S315080040800021EDE72828002000B583B00022009221
S31508004090019202218DF80010054819F083FD019060
S315080040A008216846FFF77CFF03B05DF804FB00BFF4
S315080040B0006A180000B583B0044B1B88ADF80430BD
S315080040C001A800F017FB03B05DF804FBA8840208FA
S315080040D000B583B0044B1B88ADF8043001A800F086
S315080040E0D9FA03B05DF804FBA88402082DE9F04F5D
S315080040F097B04D4D09AC2E1D0FCE0FC43368236003
S3150800410001AC05F118060FCE0FC496E80F0084E837
S315080041100F00464822F008FE454822F005FE012613
S315080041208DF8096000248DF80840424B0B9301ABCB
S315080041300D93414F09A938461BF086FFB5F838B0EC
S31508004140ADF838B0324604210EA800F067FAB5F883
S315080041503CA0ADF83CA0224631460FA800F05EFA16
S31508004160B5F84090ADF840903246042110A800F00A
S3150800417055FAB5F80080ADF844803246042111A8F6
S3150800418000F04CFA2D4D2E4BC5F8F8344FF00213BB
S31508004190C5F8F434A3F58033C5F8FC341C23C5F8F8
S315080041A0E4344FF4487008F053FBFFF783FF1420FC
S315080041B008F04EFBFFF78CFF232008F049FBFFF7BA
S315080041C079FFB92138461BF027FFFFF781FFADF8C5
S315080041D048B02246214612A800F020FAADF84CA0B5
S315080041E02246214613A800F019FAADF85090324637
S315080041F0214614A800F012FAADF85480324621463A
S3150800420015A800F00BFA384603F0A6FDC5F8E444F5
S31508004210C5F8F844C5F8F444C5F8FC44044822F047
S3150800422088FD17B0BDE8F08FA884020868870208E1
S315080042306C870208E070720000000A5000C0035044
S315080042400200030008B50448044A121A92100449E9
S3150800425019F0D3FC08BD00BF8001000880030008E0
S31508004260A052002008B5154B83F30A8800F030F8F1
S31508004270FFF7E8FF124A0AE01068516850F8230071
S3150800428041F82300013391688B42F5D30C320D4B6C
S315080042909A4201D20023F6E70B4A08E0116800208B
S315080042A041F82300013351688B42F7D30832074B94
S315080042B09A4201D20023F6E7FEF700F80000002034
S315080042C0C0CB0208CCCB0208CCCB0208CCCB020868
S315080042D070B5134B134A9A60D3F8882042F47002DB
S315080042E0C3F88820104A4FF4804191660F4D05F5B2
S315080042F000544FF0FF3222660D4A62660222C3F866
S31508004300D020BFF34F8FBFF36F8F002006F07CFFDE
S315080043104FF44036E66000201DF0B9F82E6170BDF6
S3150800432000ED00E000000008009000500080004406
S315080043307FFF7F01014B1860704700BF6856002059
S3150800434008B5064B1860064B1B6F03F00703032BD3
S3150800435000D008BD21F06AFCFBE700BF70560020BC
S3150800436000800050BFF34F8F0549CA6802F4E06227
S31508004370044B1343CB60BFF34F8F00BFFDE700BF6D
S3150800438000ED00E00400FA05F0B18446F1B110B47E
S3150800439009E004F120000FE02033C01A18D1BCB19F
S315080043A00CF1010C01319CF800400B4B1B5D03F02E
S315080043B00303012BEDD020460B78074AD25C02F0A6
S315080043C00302012AE9D1E7E7012070470120704777
S315080043D05DF8044B704700BF85CA020830B587B040
S315080043E00546046823798DF80C3063798DF80D300D
S315080043F01B4822F099FC0022012103A800F00EF9BF
S315080044000DF10B0103A819F033FD9DF80B3083F06D
S3150800441001032370A379022B02D0002007B030BD18
S315080044204FF0FF330593049300950E4B002205A920
S3150800443003A800F02FFA059BB3F1FF3F07D00095BC
S31508004440084B012204A903A800F084F9E5E70095C2
S31508004450044B042204A903A800F07CF9DDE700BF99
S3150800446068870208F9DC010810B582B000240194B7
S315080044702A4822F059FC8DF8004003238DF80130B4
S3150800448001220421684600F0C9F8254B0122C3F829
S31508004490442401A9052022F040FC00283BD1214BE9
S315080044A0D3F8F02042F00102C3F8F020D3F8FC203C
S315080044B042F08072C3F8FC20A3F55D431A4A1A60DD
S315080044C0019B03F5D52303F2FC43DB08174AA2FB3D
S315080044D003239B0A013B164A13610223C2F8F030F4
S315080044E04FF48073C2F804334FF06043114AC3F89F
S315080044F0B02F114AC3F8802ED3F8002E42F48072EA
S31508004500C3F8002EFF2283F82020D3F8002E22F4C9
S315080045108072C3F8002E02B010BD00BF688702087B
S3150800452000D0035000ED00E0FF030040179165023C
S31508004530000004E055CEACC5090001004FF0604309
S31508004540D3F8803E13F0010F01D1112070470E4AAF
S31508004550D2F8FC3043F08073C2F8FC304FF0604369
S31508004560D3F8002E4FF0010C0CFA00FC42EA0C02BC
S31508004570C3F8002E53F82030002BE8D04FF06043E4
S3150800458003F820100020704700ED00E010B504463F
S315080045900FE00123834024EA03040F2814D800EB14
S315080045A040020E4B03EB82035A6812B19968C0B2F7
S315080045B0904794B1234600201F28EAD813F0010F2C
S315080045C0E7D101305B08F7E7103800EB40039B00A2
S315080045D0B033024A13440433E6E710BD2C28002002
S315080045E008B50D4822F0A0FB1A2006F0D3FD28B91D
S315080045F01B2006F0CFFD40B9002008BD1A2006F0A2
S3150800460003FE1A201CF043FFF2E71B2006F0FCFD10
S315080046101B201CF03CFFEFE7688702082DE9F041F4
S3150800462070B30C46174605460F292BD803784BB1AD
S31508004630022B20D0032B21D0012B01D0002303E02D
S315080046407F2301E040F2FF736A78D34013F0010F2D
S315080046501AD00F4BD3F81063C6B922F060FA804619
S315080046603A462146284604F015F9404622F052FA01
S315080046703046BDE8F08140F2FF33E5E73F23E3E744
S315080046802226F5E72126F3E72126F1E70226EFE7BA
S3150800469000C0035040B310B5044603784BB1022B53
S315080046A01DD0032B1ED0012B01D0002303E07F234E
S315080046B001E040F2FF736278D34013F0010F15D082
S315080046C022F02DFA237862780121914003EB430307
S315080046D01B01074AD15022F01DFA002010BD40F2F6
S315080046E0FF33E8E73F23E6E7222070472120F5E776
S315080046F040D0035040B310B5044603784BB1022BA3
S315080047001DD0032B1ED0012B01D0002303E07F23ED
S3150800471001E040F2FF736278D34013F0010F15D021
S3150800472022F0FDF9237862780121914003EB4303D7
S315080047301B01074AD15022F0EDF9002010BD40F2C6
S31508004740FF33E8E73F23E6E7222070472120F5E715
S3150800475040E00350002866D02DE9F0410C46154686
S315080047601F460646002960D002784AB1022A3ED082
S31508004770032A3FD0012A01D0002303E07F2301E06A
S3150800478040F2FF737178CB4013F0010F01D1FF2A75
S315080047904DD1022D01D9042D4BD122F0C0F9804606
S315080047A03378FF2B28D12368B3F1FF3F2BD022683B
S315080047B0B2F1FF3F32D0204B02EB420203EB8202FA
S315080047C05760226802EB420203EB8203069A9A605C
S315080047D03378FF2B05D0226801239340174AC2F885
S315080047E02434404622F096F90020BDE8F08140F2D4
S315080047F0FF33C7E73F23C5E72A462168304604F05A
S31508004800B3F82060CFE73378FF2BD0D10C4BD3F821
S31508004810241470781BF040FD2060C8E7404622F05B
S3150800482079F92D20E1E7222070472220DDE72120B3
S31508004830DBE72120D9E700BF2C28002000D0035051
S3150800484000C00350B0F1FF3F1AD038B504460F2810
S3150800485018DC002818DB22F062F90123A3400B4A72
S31508004860C2F82034C2F82434094B04EB440203EBA3
S31508004870820200255560956022F04CF9284638BD1D
S31508004880212070472120FAE72120F8E700E00350AD
S315080048902C280020002856D02DE9F0410C46174652
S315080048A01E460546002950D0017849B1022939D05B
S315080048B003293AD0012901D0002303E07F2301E030
S315080048C040F2FF736A78D34013F0010F01D1FF2934
S315080048D03DD122F024F980462B78FF2B27D1226878
S315080048E0B2F1FF3F2AD01B4B02EB420203EB8202D6
S315080048F0C2F8B860226802EB420203EB8203069A0A
S31508004900C3F8BC202B78FF2B06D02268103201236F
S315080049109340114AC2F82434404622F0FBF800209E
S31508004920BDE8F08140F2FF33CCE73F23CAE73A46B9
S315080049302168284604F0B8F82060D0E7404622F0FF
S31508004940E9F82D20ECE7222070472220E8E721200D
S31508004950E6E700BF2C28002000D0035008B5084B16
S31508004960D3F82404D3F82024104000F0553020F062
S31508004970502003F50053C3F82004FFF707FE08BDCF
S3150800498000C0035008B5084BD3F82404D3F82024F4
S31508004990104000F0AA3020F0A02003F50053C3F819
S315080049A02004FFF7F3FD08BD00C0035070B586B0BC
S315080049B005460368B3F1B64F27D0304A934222D052
S315080049C04FF0FF36B3F1B64F21D02C4A934252D15D
S315080049D02B4822F0A9F92B798DF804306B798DF8DC
S315080049E00530AB798DF80030EB798DF8013001226E
S315080049F00A2101A8FFF712FE01220A216846FFF7DD
S31508004A000DFE002412E00126DCE70026DAE71D4841
S31508004A10DFE701A8FFF76EFE642007F019FF01A87B
S31508004A20FFF738FE642007F013FF0134092CF0DD88
S31508004A30154A02EB06110323C1F8383568792B7934
S31508004A4043EA0043C1F83C35E979AB7943EA0143C7
S31508004A5054363601935101238DF808308DF8093004
S31508004A60EB680493AB6803932B7C8DF8143002A98A
S31508004A70286803F073FC06B070BD00BF00800650BE
S31508004A80608702086487020800C0035010B582B028
S31508004A9004460A4822F048F923788DF804306378EA
S31508004AA08DF80530A278B2FA82F2520904210DEB8C
S31508004AB00100FFF7B3FD002002B010BD68870208A9
S31508004AC0F0B585B00C4694469DF83410664A1278BF
S31508004AD0002A00F0BD800546BCF1070F00F2BA8037
S31508004AE00A9A002A00F0B8800B9A002A00F0B680CD
S31508004AF00E9AB2F5006F00F3B38001285BD05B4ACB
S31508004B0002EB0C12127B002A00F0AC800022009205
S31508004B10019202920392564A02EB4C1E002C4FD188
S31508004B204FEA4C1600209051CEF80400CEF8080043
S31508004B30CEF80C009EF8020040F010008EF8020035
S31508004B409EF8030040F030008EF8030021B9C1B288
S31508004B5041F003018EF8031000930E9B013B444A73
S31508004B604FEA4C1002EB4C11165A63F30E16165206
S31508004B700A9B8B600B9B4B60CB789DF83C2062F3BD
S31508004B808303CB70012D36D0109B002B56D0374AA5
S31508004B904FEA0C1102EB0C1310985050119A5A60F8
S31508004BA000249C605D7372466946604603F04CFCBF
S31508004BB0204605B0F0BD0C9A002AA0D12D48F8E78A
S31508004BC02B4F4FEA4C1607EB4C120020B851506099
S31508004BD09060D060907840F010009070D07840F0E7
S31508004BE00300D0700029B7D107EB4C12C1B241F0CF
S31508004BF03001D170B0E70E460A7B42F001020A7313
S31508004C00D2B242F002020A73CA68042161F39F0213
S31508004C10F26006F1100796E80F0087E80F00F269C0
S31508004C206FF0030161F39F02F2610C9B7361012C23
S31508004C30AAD10B9AB2610C9A7260A5E7002DA6D18B
S31508004C400B4B03EB4C139A786FF304129A709EE79A
S31508004C500948AEE70748ACE70648AAE70548A8E7C3
S31508004C600448A6E70548A4E739520020942A0020FC
S31508004C7094290020018000F0028000F0078000F0EF
S31508004C80134B1B78FBB110B50446F0B121F047FF72
S31508004C900023072B13D80F4A02EB0312127B0AB123
S31508004CA00133F6E723600B4A190102EB03130124CB
S31508004CB01C730024545021F02DFF204602E021F0F9
S31508004CC029FF054810BD054870470548FAE700BFA3
S31508004CD039520020942A0020048000F0028000F057
S31508004CE0018000F038B521F01AFF04460023072B8F
S31508004CF006DC0C4A02EB0312127B12B90133F6E703
S31508004D00002222B1204621F005FF074838BD03F0EE
S31508004D1047FB0025054B1D70204621F0FBFE284663
S31508004D20F4E700BF942A0020058000F039520020DD
S31508004D300F4B1B78BBB110B50446072815D821F0D0
S31508004D40EEFE0C4B03EB04131B7B1BB921F0E2FEB2
S31508004D5009480BE0074B03EB041300241C7321F0EE
S31508004D60D9FE204602E005487047054810BD00BF39
S31508004D7039520020942A0020068000F0028000F0B4
S31508004D80018000F000B583B0134B1B680193002324
S31508004D908DF8043021F0C3FE104B1B7833B90F4B46
S31508004DA001221A7021F0B6FE002309E021F0B2FEB6
S31508004DB00B480EE00B4A02EB031200211173013374
S31508004DC0072BF7DD08238DF8073001A803F00CFB45
S31508004DD0002003B05DF804FBEC8402083952002079
S31508004DE0038000F0942A002010B5104C2478BCB13A
S31508004DF0072817DC0E4C04EB0014247BA4B10C4CDA
S31508004E004FEA001E04EB001C44F80E30029BCCF857
S31508004E1004300024CCF8084003F016FB204610BDE9
S31508004E200448FCE70448FAE70448F8E73952002042
S31508004E30942A0020028000F0018000F0078000F02C
S31508004E4008B50A4B1B785BB107280BD8084B03EB50
S31508004E5000131B7B43B1002103F0B8FA002008BDFC
S31508004E600448FCE70448FAE70448F8E73952002002
S31508004E70942A0020028000F0018000F0078000F0EC
S31508004E8008B50A4B1B785BB107280BD8084B03EB10
S31508004E9000131B7B43B1012103F098FA002008BDDB
S31508004EA00448FCE70448FAE70448F8E739520020C2
S31508004EB0942A0020028000F0018000F0078000F0AC
S31508004EC0F8B5194B1F6D5B6D1F4002D401250024F0
S31508004ED002E0FEE701346D00072C24D83D42F9D0E4
S31508004EE0124B1D652301124AD358002BF2D002EB50
S31508004EF00416B1680131B16072682046984780F09F
S31508004F000100C0B2737B012BE4D10028E2D0094B23
S31508004F1003EB44131A7B6FF341021A731A7F6FF37C
S31508004F2041021A77D6E7F8BD000004500020045065
S31508004F30942A0020942900202DE9F04F89B00546CF
S31508004F400E4614469846C36B5B69012207A960683A
S31508004F509847EB6B5B69012206A93046984707A874
S31508004F601AF032FA48B10027A77567754FF0FF3374
S31508004F70A360384609B0BDE8F08F074606A81AF0C0
S31508004F8033FA0123A375237E033304EBC3035E6060
S31508004F9000221A816368B3422AD02368834201D06B
S31508004FA00023A37506A81AF044FA237D984201D077
S31508004FB00023A37506A81AF01BFA814607A81AF05B
S31508004FC017FA814501D00023A37506A81AF018FA26
S31508004FD0814607A81AF014FA814501D00023A37563
S31508004FE0237D043BDBB2022B0BD80023A375C0E755
S31508004FF0206006A81AF01DFA20754FF0FF33A3604B
S31508005000EEE706A81AF0F4F980B1EB6B5B690222A9
S3150800501004A93046984704A81AF0FDF90346207DEE
S31508005020032868D8DFE800F0615B070D06A81AF0C8
S31508005030F2F90346F3E7237E033304EBC303CC22DA
S315080050401A811AF006FA129B187094F8189006A896
S315080050501AF0C1F909F1030904EBC90989F80A002C
S31508005060237E033304EBC303B3F808A093F80AB00E
S3150800507006A81AF0BDF9814606A81AF0C1F90390E8
S31508005080B9F1000F3DD0EB6B5B69022204A93046EB
S31508005090984704A81AF07BF96075637D03B9A37570
S315080050A0A37DA3B1BAF1000F11D0039BF1186B6C65
S315080050B05B4286EA01021A4201D00023A3756B6C93
S315080050C05A1E0A409B1A9A4501D90023A375A37D47
S315080050D0002B40D0BBF1000F18D1E77D3CE0227EC3
S315080050E0033204EBC2021381ABE7227E033204EBE0
S315080050F0C2021381A5E7227E033204EBC2021381A2
S315080051009FE706A81AF02CF96075C6E70122E27532
S31508005110627EBAB9BBF1010F08D095F83470DFB9D1
S31508005120EA6AB2F1FF3F05D01F4615E00121617614
S31508005130174611E0BBF1030F01D01F460CE0012210
S31508005140A27609E0BBF1010F37D0BBF1030F03D1FB
S315080051500122A27600E01F4653B117B1BBF1010F39
S3150800516006D95346039A3146284619F070FAA060C4
S31508005170A37D13B1236953442361237E114A127810
S3150800518093421CD201332376B8F1000F13D0A37DC6
S315080051908BB1E37D7BB177B9BBF1030F0BD0A16867
S315080051A0B1F1FF3F07D0129B009301232246284600
S315080051B0FFF7C2FEA075A77DDBE61746CCE70023FE
S315080051C0A375E1E7108502082DE9F04F89B0054679
S315080051D00F4692469B4600238DF80B304FF0FF3161
S315080051E0104600F0EFFFB7F5801F1DD3002300938C
S315080051F017F1020F07D0009B002B40F09E802B7CF6
S31508005200002B00F08C80EB6AB3F1FF3F2CD02A68A4
S315080052109B1A6A6CB3FBF2F917F1020818BF4FF034
S315080052200108002301935DE00DF10A02394605F1F4
S31508005230080000F017FF0146B0F1FF3F11D05046B5
S3150800524000F0C0FF0DF10B0301225146284619F064
S315080052507DFA00900028CBD09DF80B308BF80030F3
S31508005260C6E700230093C3E7696A284619F010F9D0
S315080052708146D1E70123019337E09DF80B308BF87F
S315080052800030324B1A683249504620F070FA0094C2
S315080052902F4B9968B1F1FF3F1BD06B6C5B4281EADB
S315080052A006021A4215D12A4C204600F08BFF0DF152
S315080052B00B0342462146284619F048FA04460028B8
S315080052C0E6D017F1020FD8D0214B1B68BB42DFD1BD
S315080052D0D3E74946284619F0DBF88146019BCBB946
S315080052E0009BBBB96B6A4B45C4D02C686B6C03FB3F
S315080052F00944EB6B5B69052203A92046984703A876
S315080053001AF03EF91AF063F920461AF06CF90646C7
S315080053100146BFE7009BA3B1B7F5801F03D3009BE7
S315080053208BB100200AE09BF80030DAF804203946F1
S3150800533005F1080000F0B4FEF1E7002009B0BDE869
S31508005340F08F2D20FAE72D20F8E700BF0C8502081C
S315080053508831002070B582B004464FF0FF33C3622F
S315080053600DF107031A4A6FF00101FFF72DFF20BB65
S31508005370174B9B68E362E56A2946204618F079FED2
S315080053802063E8B12946204619F051F90546A36A73
S31508005390AB421BD02946204618F06BFE0646236B07
S315080053A0034423632946204619F041F90546002E91
S315080053B0EDD100232363E062E9E7A36AE362DAE753
S315080053C0E16A204619F033F9E062DBE702B070BD06
S315080053D0B431002030B583B01C46032A14BF00221E
S315080053E001221B7E9A4202D0012003B030BD0D4631
S315080053F0096823689942F7D363689942F4D80DF18E
S315080054000703114AFFF7E0FE0028EDD10E4B5A6854
S315080054106B689A42E8D19DF80730032B14BF002326
S315080054200123227E9342DFD16369013363612369D5
S31508005430E2689342D8D2A268296842F82310236901
S3150800544001332361D0E700BFB43100202DE9F041D4
S3150800545082B004460E4690461F46816A06E01A4BFD
S315080054609968B1F1FF3F1FD0012E23D0E06A884228
S3150800547017D0B1F1FF3F14D0134D284600F0A2FE15
S315080054800DF1070301222946204619F05FF9002885
S31508005490E5D03B469DF8072029462046C047002808
S315080054A0DDD102B0BDE8F0815968204619F0BFF891
S315080054B00146D9E7044B5A68636C5B424A401A4274
S315080054C0D4D04FF0FF31D1E75C31002010B5044647
S315080054D0083000F08DFD0023024A19462046FFF7E2
S315080054E0B5FF10BD3BE7010838B50446037C0BBB86
S315080054F002461349083000F01DFE616A204618F07E
S31508005500E9FF421C616A204618F03AFF054620B9B1
